:100000000C9486030C940A080C9450070C94A303D8
:100010000C9445250C94A3030C94A3030C94A30304
:100020000C94A3030C943B070C94A3030C94A3031C
:100030000C94A3030C9426260C94A3030C94A30302
:100040000C94E9030C94A3030C94A3030C94A30352
:100050000C94A3030000C0E0F0F838181838F8F04A
:10006000E0C0000000FFFFFFFF000000000000FFF5
:10007000FFFFFF0000071F3F7FF8E0C0C0E0F87FF0
:100080003F1F0700000000808080C0E0F8F8F8F80B
:10009000000000000000000101010101FFFFFFFF5F
:1000A000000000000000000000000000FFFFFFFF54
:1000B000000000000080E0F0F0783818181878F898
:1000C000F0E0C00000010101010080C0C0E0F87F45
:1000D0003F1F0F00C0F0F8FCFEDFCFC7C3C1C0C098
:1000E000C0C0C00000C0E0F0F83818181838F8F0A8
:1000F000E0C0000000000000000030303078FFFF5A
:10010000EFC78000000C3C7C7CF0E0C0C0E0F07FDA
:100110007F3F0F0000000000000000C0E0F8F8F88A
:10012000F80000000080E0F07C3E0F0701FFFFFFB9
:10013000FF000000070707070606060606FFFFFF89
:10014000FF0606060000F8F8F8F81818181818182E
:100150001800000000003F3F3F1F1C0C0C1C3CF827
:10016000F8F0C000000C3C7C7CF0E0C0C0E0F07F08
:100170007F3F0F0000C0E0F0F83818181838F8F08A
:10018000E0C0000000FFFFFFFF381C0C0C1C3CFC13
:10019000F8F0C00000071F3F7FF8E0C0C0E0F07F2C
:1001A0007F3F0F0000181818181818181818D8F8DA
:1001B000F8F8380000000000000000C0F8FEFF3F23
:1001C0000F0100000000000080F0FEFF7F0F010023
:1001D000000000000000C0F0F0F838181838F8F0FF
:1001E000F0C00000000083CFFFFF7C78787CFFFF29
:1001F000CF830000001F3F7F7FF0E0C0C0E0F07FB2
:100200007F3F1F000080E0F0F07838181838F8F0D1
:10021000E0C00000000F3F7FFFF0E0C0C0E070FFD3
:10022000FFFFFF0000183878F8E0C0C0E0F0FC7F66
:100230003F1F03000000000000000000000000005D
:1002400000000000000000000000000000000000AE
:100250000000000000000000000000E0E0E0E0001E
:100260000000000000000000000000F0F81818185E
:100270003830000000FE2020103E003173636363BD
:100280007F3E00000002728A8A8A0202FA0AFA0A93
:10029000FA0200000000F0204020F000E0301010D2
:1002A00030E0000000000700000017A045A7100084
:1002B000070500000000788484840100FC04F90430
:1002C000F800000000000000C0E0C0800000000056
:1002D0000000000000000000000103078FDEFCF8B2
:1002E0007020000000000000183C1E0F07030100F2
:1002F000000000000000000000000000000080C0BE
:10030000E0C00000000000002070F8FCDE8F070352
:1003100001000000000000000000000103070F1EA4
:100320003C18000000000000000000000000000079
:1003300000000000000000383838383838383838C5
:10034000383800000000000000000000000000003D
:10035000000000000000000000000000000000009D
:10036000000000000000000000000000000000008D
:10037000000000000000000000000000000000007D
:1003800000000000FFFFFFFFFF00FFFFFFFFFFFF78
:1003900000FFFFFFFFFFFF00FFFFFFFFFFFF00FF6A
:1003A000FFFFFFFFFF00FFFFFFFFFFFF00FFFFFF5B
:1003B000FFFFFF00FFFFFFFFFFFF00FFFFFFFFFF4B
:1003C000FF00FFFFFFFFFFFF00FFFFFFFFFFFF003A
:1003D000FFFFFFFFFFFF00FFFFFFFFFFFF00FFFF2B
:1003E000FFFFFFFF00FFFFFFFFFFFF00FFFFFFFF1B
:1003F000FFFF00FFFFFFFFFFFF00FFFFFFFFFFFF0B
:1004000000FFFFFFFFFFFF00FFFFFFFFFFFF00FFF9
:10041000FFFFFFFFFF00FFFFFFFFFFFF00FFFFFFEA
:10042000FFFFFF00FFFFFFFFFFFF00FFFFFFFFFFDA
:10043000FF00FFFFFFFFFFFF00FFFFFFFFFFFF00C9
:10044000FFFFFFFFFFFF00FFFFFFFFFFFF00FFFFBA
:10045000FFFFFFFF00FFFFFFFFFFFF00FFFFFFFFAA
:10046000FFFF00FF0000000000FFFF00004F000042
:1004700000FF000700070000FF147F147F1400FF37
:10048000242A7F2A1200FF231308646200FF3649E2
:1004900055222000FF000503000000FF001C224140
:1004A0000000FF0041221C0000FF14083E08140059
:1004B000FF08083E080800FF503000000000FF0859
:1004C0000808080800FF006060000000FF20100816
:1004D000040200FF3E5149453E00FF40427F40403C
:1004E00000FF426151494600FF2141454B3100FF69
:1004F0001814127F1000FF274545453900FF3C4A7C
:1005000049493000FF017109050300FF3649494997
:100510003600FF064949291E00FF0036360000005C
:10052000FF005636000000FF081422410000FF14AF
:100530001414141400FF004122140800FF0201519A
:10054000090600FF000002050200FF7E1111117E66
:1005500000FF7F4949493600FF3E4141412200FFEB
:100560007F4141221C00FF7F4949494100FF7F092B
:1005700009090100FF3E4149497A00FF7F08080848
:100580007F00FF00417F410000FF2040413F01000C
:10059000FF7F0814224100FF7F4040404000FF7F62
:1005A000020C027F00FF7F0408107F00FF3E4141E4
:1005B000413E00FF7F0909090600FF3E4151215ECF
:1005C00000FF7F0919294600FF264949493200FFEB
:1005D00001017F010100FF3F4040403F00FF1F201D
:1005E00040201F00FF3F4038403F00FF63140814C5
:1005F0006300FF070870080700FF61514945430089
:10060000FF007F41410000FF020408102000FF00AE
:1006100041417F0000FF040201020400FF4040400E
:10062000404000FF000003050000FF2054545478B0
:1006300000FF7F4444443800FF384444444400FFF2
:10064000384444447F00FF385454541800FF0404D5
:100650007E050500FF085454543C00FF7F08040445
:100660007800FF00447D4000FFFF2040443D00FF34
:10067000FF7F10284400FFFF417F4000FFFFFF7C09
:10068000047C047800FF7C0804047800FF384444AC
:10069000443800FF7C1414140800FF081414147C60
:1006A00000FF7C08040400FFFF485454542400FF5A
:1006B00004043F444400FF3C4040207C00FF1C20D9
:1006C00040201C00FF3C4030403C00FF44281028E4
:1006D0004400FF0C5050503C00FF4464544C440014
:1006E000FF083641410000FF000077000000FF00D6
:1006F0004141360800FF08082A1C0800FF081C2A90
:10070000080800FFFFFFFFFFFF00FF0011241FBECE
:10071000CFE5D8E0DEBFCDBF14E0A0E6B0E0E2EA6E
:10072000FBE502C005900D92AA32B107D9F714E09B
:10073000AAE2B4E001C01D92A336B107E1F70E941E
:10074000DE170C94CF2D0C940000DF93CF93CDB720
:10075000DEB7F89481E0CF91DF910895DF93CF93D6
:1007600000D0CDB7DEB79A8389838FE590E02981E9
:100770003A81F9012081FC0120830F900F90CF91E5
:10078000DF910895DF93CF93CDB7DEB786E290E097
:1007900026E230E0F90120812760FC01208387E216
:1007A00090E020E4FC01208386E290E026E230E045
:1007B000F90120812868FC01208386E290E026E28E
:1007C00030E0F90120812064FC012083CF91DF918A
:1007D00008951F920F920FB60F921124EF92FF927D
:1007E0000F931F932F933F934F935F936F937F9339
:1007F0008F939F93AF93BF93EF93FF93DF93CF9329
:1008000000D000D0CDB7DEB78FE590E0FC0180814D
:100810008C830E94A5038B8313C084E290E0FC01CB
:100820008081282F30E085E290E0FC018081882FD4
:1008300090E0982F8827822B932B9A8389831B82A1
:100840008B81882351F7CE0104960E94AE038091DC
:10085000080490910904CC01A0E0B0E0BC01CD01F6
:100860000E944127DC01CB01BC01CD0126E636E622
:1008700046E65FE30E94F727DC01CB017C018D0196
:1008800089819A81CC01A0E0B0E0BC01CD010E9439
:100890004127DC01CB01BC01CD012DEC3CEC4CEC43
:1008A0005DE30E94F727DC01CB019C01AD01C8018B
:1008B000B7010E944526DC01CB01BC01CD010E949D
:1008C0001527DC01CB01909309048093080486E28C
:1008D00090E026E230E0F90120812064FC012083D1
:1008E0002496DEBFCDBFCF91DF91FF91EF91BF91F5
:1008F000AF919F918F917F916F915F914F913F91B8
:100900002F911F910F91FF90EF900F900FBE0F90BE
:100910001F9018950F931F93DF93CF93CDB7DEB73A
:1009200060970FB6F894DEBF0FBECDBF85E390E0B1
:10093000FC0180818F8784E390E0FC018081888BBB
:1009400087E390E027E330E0F90120812E7FFC016E
:10095000208388E390E028E330E0F90120812E7FB6
:10096000FC01208384E390E0FC01108285E390E0A9
:100970002FEFFC01208387E390E027E330E0F901CB
:1009800020812160FC01208388E390E028E330E0AF
:10099000F90120812E7FFC01208380E090E0A0E817
:1009A000BFE389839A83AB83BC8369817A818B811E
:1009B0009C8120E030E04AE755E40E94F727DC0103
:1009C000CB018D839E83AF83B88711E06D817E81DB
:1009D0008F81988520E030E040E85FE30E94A926FF
:1009E00088230CF010E0112329F081E090E09A8731
:1009F000898746C011E06D817E818F81988520E0D6
:100A00003FEF4FE757E40E94F32718160CF010E071
:100A1000112361F169817A818B819C8120E030E032
:100A200040E251E40E94F727DC01CB01BC01CD017B
:100A30000E941527DC01CB019A87898712C080E9C3
:100A400091E09C878B878B859C858C01C8010197E1
:100A5000F1F78C011C870B8789859A8501979A8706
:100A6000898789859A85009751F717C06D817E81A6
:100A70008F8198850E941527DC01CB019A87898791
:100A800089859A859E878D878D859E858C01F80145
:100A90003197F1F78F011E870D8783E390E0FC010A
:100AA000808180958093440485E390E02F85FC014C
:100AB000208384E390E02889FC0120838091440412
:100AC00060960FB6F894DEBF0FBECDBFCF91DF9119
:100AD0001F910F910895DF93CF9300D00F92CDB760
:100AE000DEB79A8389836B8389819A81FC01918126
:100AF0008B819817D1F089819A81FC0180818230A5
:100B0000A0F089819A812B81FC01218389819A81BE
:100B1000FC01108289819A81FC018181882341F145
:100B200089819A81FC01818124C089819A81FC019B
:100B300091818B81981789F089819A81FC0180814C
:100B4000823058F489819A81FC018081282F2F5F9F
:100B500089819A81FC0120830BC089819A81FC01E3
:100B600091818B81981721F489819A81FC011082EF
:100B700080E00F900F900F90CF91DF910895DF9359
:100B8000CF930F92CDB7DEB719820E948A0480936B
:100B90004404209144048AE294E0622F0E946B0591
:100BA00089838981882F90E08430910509F491C070
:100BB0008530910564F48130910509F4C5C0823017
:100BC000910509F4A4C0009709F4DCC0C4C08031C9
:100BD0009105B9F1813191052CF48830910509F422
:100BE00053C0B9C080329105B9F08034910509F045
:100BF000B2C080913904882331F481E080933904B4
:100C00000E94F722C8C0109239040E94F72280E6A1
:100C100090E00E940F29BFC080913404882309F01E
:100C2000B3C080913904843031F481E08093390479
:100C30000E94F722B0C084E0809339040E94F7221A
:100C4000AAC08981282F30E000D000D08DB79EB790
:100C5000019647E650E0FC0151834083FC01338359
:100C600022830E94FA280F900F900F900F9080918E
:100C70003404882319F00E94C2198DC081E080934A
:100C800034040E94B51887C08091F700882351F082
:100C900086E892E0909398028093970280E090E03B
:100CA0000E943A1A8981282F30E000D000D08DB7F9
:100CB0009EB7019640E750E0FC0151834083FC0160
:100CC000338322830E94FA280F900F900F900F9089
:100CD00062C08981282F30E000D000D08DB79EB748
:100CE000019649E750E0FC0151834083FC013383C6
:100CF00022830E94FA280F900F900F900F908091FE
:100D00003404882309F442C00E94271944C0898111
:100D1000282F30E000D000D08DB79EB7019642E872
:100D200050E0FC0151834083FC01338322830E9405
:100D3000FA280F900F900F900F9080913404882321
:100D400039F10E94F31927C080913404882311F1EE
:100D50000E946B1920C08981282F30E000D000D07C
:100D60008DB79EB701964BE850E0FC01518340835C
:100D7000FC01338322830E94FA280F900F900F907A
:100D80000F9009C0000007C0000005C0000003C0AC
:100D9000000001C000000F90CF91DF910895DF9314
:100DA000CF93CDB7DEB7F89481E0CF91DF9108956E
:100DB000DF93CF9300D0CDB7DEB79A8389838FE5D9
:100DC00090E029813A81F9012081FC0120830F9074
:100DD0000F90CF91DF910895DF93CF93CDB7DEB71A
:100DE00010922D0410922C048091A400882399F471
:100DF0008BE590E02BE530E0F90120812064FC01D7
:100E000020838BE590E02BE530E0F90120812F77FE
:100E1000FC01208312C08BE590E02BE530E0F90166
:100E200020812068FC0120838BE590E02BE530E0F9
:100E3000F90120812F7BFC01208385E590E025E5E9
:100E400030E0F90120812A60FC0120838FE490E0EA
:100E5000FC0110828EE490E025E0FC01208389E50E
:100E600090E029E530E0F90120812460FC01208335
:100E7000CF91DF9108951F920F920FB60F92112418
:100E80008F93DF93CF93CDB7DEB781E08093B5002A
:100E9000CF91DF918F910F900FBE0F901F901895FB
:100EA0001F920F920FB60F921124EF92FF920F93A1
:100EB0001F932F933F934F935F936F937F938F93E2
:100EC0009F93AF93BF93EF93FF93DF93CF9300D0A4
:100ED000CDB7DEB78FE590E0FC0180818A830E9468
:100EE000CF0689836BC08CE490E0FC018081918106
:100EF00090934604809345048CE490E0FC011182B9
:100F000010828091450490914604893C910508F433
:100F100045C08091450490914604CC01A0E0B0E02A
:100F2000BC01CD010E944127DC01CB01BC01CD01F8
:100F30002DEC3CEC4CEC5DE30E94F727DC01CB018F
:100F40007C018D018091A5009091A600CC01A0E0CC
:100F5000B0E0BC01CD010E944127DC01CB01BC0106
:100F6000CD0126E636E646E65FE30E94F727DC0180
:100F7000CB019C01AD01C801B7010E944526DC01EF
:100F8000CB01BC01CD010E941527DC01CB01909360
:100F9000A6008093A50010922F040FC080912F040B
:100FA0008F5F80932F0480912F04853630F010924C
:100FB0002F041092A6001092A5001982898188231F
:100FC00009F091CFCE0102960E94D8061092B5008A
:100FD0008AE590E02AE530E0F90120812068FC01F3
:100FE00020830F900F90CF91DF91FF91EF91BF91F0
:100FF000AF919F918F917F916F915F914F913F91B1
:101000002F911F910F91FF90EF900F900FBE0F90B7
:101010001F9018951F920F920FB60F921124EF9206
:10102000FF920F931F932F933F934F935F936F9371
:101030007F938F939F93AF93BF93EF93FF93DF9330
:10104000CF9300D0CDB7DEB78FE590E0FC01808173
:101050008A830E94CF0689836BC08CE490E0FC01F8
:101060008081918190934604809345048CE490E0C4
:10107000FC01118210828091450490914604893CC4
:10108000910508F445C08091A7009091A800CC017B
:10109000A0E0B0E0BC01CD010E944127DC01CB0102
:1010A000BC01CD0120E030E040E05FE30E94F72783
:1010B000DC01CB017C018D018091450490914604B7
:1010C000CC01A0E0B0E0BC01CD010E944127DC01D1
:1010D000CB01BC01CD0120E030E040E05FE30E94A5
:1010E000F727DC01CB019C01AD01C801B7010E94CB
:1010F0004526DC01CB01BC01CD010E941527DC0196
:10110000CB019093A8008093A70010922F040FC0EA
:1011100080912F048F5F80932F0480912F04853658
:1011200030F010922F041092A8001092A70019829C
:101130008981882309F091CFCE0102960E94D806BA
:101140001092B5008AE590E02AE530E0F9012081AF
:101150002064FC0120830F900F90CF91DF91FF91CD
:10116000EF91BF91AF919F918F917F916F915F911F
:101170004F913F912F911F910F91FF90EF900F9002
:101180000FBE0F901F901895DF93CF93CDB7DEB7AA
:101190008BE590E02BE530E0F90120812F7BFC010D
:1011A000208381E090E0A0E0B0E08093A9009093DC
:1011B000AA00A093AB00B093AC0081E08093A400A0
:1011C0008BE590E02BE530E0F90120812068FC01FF
:1011D0002083CF91DF910895DF93CF93CDB7DEB712
:1011E0008BE590E02BE530E0F90120812F77FC01C1
:1011F000208381E090E0A0E0B0E08093A90090938C
:10120000AA00A093AB00B093AC001092A4008BE5B1
:1012100090E02BE530E0F90120812064FC0120837F
:10122000CF91DF910895DF93CF93CDB7DEB72897A5
:101230000FB6F894DEBF0FBECDBF8091A400813001
:10124000B1F58091A5009091A600CC01A0E0B0E09E
:10125000BC01CD010E944127DC01CB012091980007
:101260003091990040919A0050919B00BC01CD01B2
:101270000E94F727DC01CB0120919400309195006A
:101280004091960050919700BC01CD010E944526E7
:10129000DC01CB0189839A83AB83BC8369817A812A
:1012A0008B819C810E941527DC01CB0135C0809188
:1012B000A7009091A800CC01A0E0B0E0BC01CD0156
:1012C0000E944127DC01CB012091A0003091A100B8
:1012D0004091A2005091A300BC01CD010E94F727CC
:1012E000DC01CB0120919C0030919D0040919E003B
:1012F00050919F00BC01CD010E944526DC01CB012D
:101300008D839E83AF83B8876D817E818F81988521
:101310000E941527DC01CB01BC01CD0128960FB638
:10132000F894DEBF0FBECDBFCF91DF910895DF935C
:10133000CF9300D000D0CDB7DEB70E941309DC01F7
:10134000CB01BC01CD010E944127DC01CB01898387
:101350009A83AB83BC8329813A814B815C8160E0B5
:1013600074E284E799E40E94AD26DC01CB01898315
:101370009A83AB83BC8389819A81AB81BC81BC0198
:10138000CD010E941527DC01CB01BC01CD010F90DE
:101390000F900F900F90CF91DF910895DF93CF932F
:1013A000CDB7DEB780E090E00E946A2B21E082306A
:1013B000920709F066C08EEB90E00E940F2982E050
:1013C00090E00E945C2B80932E0487E090E00E94C6
:1013D000642BDC01CB0180930A0490930B04A0934F
:1013E0000C04B0930D048BE090E00E94642BDC01B0
:1013F000CB0180930E0490930F04A0931004B0933C
:10140000110483E090E00E946A2BCC01A0E0B0E0E0
:101410002CE330E040E050E0BC01CD010E945A28AE
:10142000DC01CB018093B6009093B700A093B80085
:10143000B093B90085E090E00E945C2B482F50E00B
:101440002CE330E0429FC001439F900D529F900DCE
:1014500011249093BB008093BA0086E090E00E9434
:101460005C2B482F50E02CE330E0429FC001439FAB
:10147000900D529F900D11249093BD008093BC005D
:1014800006C08BEC90E00E940F290E944A0ACF917F
:10149000DF910895DF93CF93CDB7DEB780E090E082
:1014A00062E071E00E94852B82E090E060E00E94A3
:1014B000702B8091B6009091B700A091B800B091C8
:1014C000B9002CE330E040E050E0BC01CD010E94C7
:1014D0008D28DA01C9019C0183E090E0B9010E94E6
:1014E000852B87E090E040E050E0BA010E947D2B20
:1014F0008BE090E040E050E060E47FE30E947D2BD1
:101500008091BC009091BD002CE330E0B9010E94B5
:1015100079289B01C901282F85E090E0622F0E9465
:10152000702B8091BA009091BB002CE330E0B901A0
:101530000E9479289B01C901282F86E090E0622F44
:101540000E94702BCF91DF910895DF93CF93CDB799
:10155000DEB720912E0482E090E0622F0E94702B73
:10156000CF91DF910895DF93CF9300D0CDB7DEB751
:101570008091B6009091B700A091B800B091B900E9
:101580002CE330E040E050E0BC01CD010E948D280A
:10159000DA01C9019A83898383E090E029813A8145
:1015A000B9010E94852B0F900F90CF91DF91089584
:1015B000DF93CF93CDB7DEB720910A0430910B04AF
:1015C00040910C0450910D0487E090E0BA01A9010C
:1015D0000E947D2B20910E0430910F044091100445
:1015E000509111048BE090E0BA01A9010E947D2B7B
:1015F000CF91DF910895DF93CF93CDB7DEB7809180
:10160000BA009091BB002CE330E0B9010E94792828
:101610009B01C901282F85E090E0622F0E94702B6A
:10162000CF91DF910895DF93CF93CDB7DEB780914F
:10163000BC009091BD002CE330E0B9010E947928F4
:101640009B01C901282F86E090E0622F0E94702B39
:10165000CF91DF910895DF93CF93CDB7DEB785E0CB
:1016600090E00E945C2B482F50E02CE330E0429F3A
:10167000C001439F900D529F900D11249093BB0089
:101680008093BA00CF91DF910895DF93CF93CDB7C8
:10169000DEB786E090E00E945C2B482F50E02CE300
:1016A00030E0429FC001439F900D529F900D112446
:1016B0009093BD008093BC00CF91DF910895DF939C
:1016C000CF930F92CDB7DEB7809130048823D9F144
:1016D000809131049091320486309105A4F180917B
:1016E0003304898380913004882339F18981282F3C
:1016F00030E081E090E0022E02C0880F991F0A942A
:10170000E2F70097D1F08981282F30E000D000D097
:101710008DB79EB7019649ED50E0FC01518340839F
:10172000FC01338322830E94FA280F900F900F90C0
:101730000F9089818093330402C010923304898111
:101740008F5F8983CFCF80913104909132040196CD
:1017500090933204809331040F90CF91DF910895DC
:101760000F931F93DF93CF93CDB7DEB72E970FB6AE
:10177000F894DEBF0FBECDBF8AE390E02AE330E0ED
:10178000F9012081206FFC01208384E390E0FC01BB
:10179000808184E390E02FEFFC01208387E390E0D9
:1017A00027E330E0F90120812260FC0120830E94C0
:1017B00010178FE30E94C1120E94F7168FE30E9458
:1017C000C11280E090E0A0E2B1E489839A83AB8308
:1017D000BC8369817A818B819C8120E030E04AE77B
:1017E00053E40E94F727DC01CB018D839E83AF83F6
:1017F000B88711E06D817E818F81988520E030E08F
:1018000040E85FE30E94A92688230CF010E0112332
:1018100029F081E090E09A87898746C011E06D81C8
:101820007E818F81988520E03FEF4FE757E40E944B
:10183000F32718160CF010E0112361F169817A8109
:101840008B819C8120E030E040E251E40E94F72748
:10185000DC01CB01BC01CD010E941527DC01CB01CD
:101860009A87898712C089E190E09C878B878B8556
:101870009C858C01C8010197F1F78C011C870B87AF
:1018800089859A8501979A87898789859A8500979E
:1018900051F717C06D817E818F8198850E94152731
:1018A000DC01CB019A87898789859A859E878D87F8
:1018B0008D859E858C01F8013197F1F78F011E8788
:1018C0000D870E94101780EC0E94C1120E94F7162B
:1018D00080EC0E94C1120E947F0C83E00E94360DB2
:1018E00082EE90E00E94D60D2E960FB6F894DEBFE1
:1018F0000FBECDBFCF91DF911F910F910895DF9360
:10190000CF9300D00F92CDB7DEB780914A048B837E
:1019100010924A04198217C089810E94360D1A82DA
:101920000CC08A81803419F481E00E94100D80E09F
:101930000E94D9138A818F5F8A838A8188238CF7DA
:1019400089818F5F89838981883030F38B8180938F
:101950004A0480E00E94360D0F900F900F90CF91B7
:10196000DF910895DF93CF9300D00F92CDB7DEB70C
:1019700089836A834B838981882319F08981813027
:1019800009F58A818830F0F48B818034D8F489811C
:10199000882319F40E94101702C00E94F71689814B
:1019A000809347048A81886B809348048B8180648C
:1019B00080934904809149040E94C1128091480497
:1019C0000E94C1120F900F900F90CF91DF91089558
:1019D000DF93CF9300D000D000D0CDB7DEB79A838D
:1019E00089837C836B835E834D8320914704898147
:1019F0009A81FC012083209148048B819C81FC0109
:101A00002083209149048D819E81FC0120832696AC
:101A10000FB6F894DEBF0FBECDBFCF91DF91089512
:101A2000DF93CF930F92CDB7DEB789838981882367
:101A300019F089818130B1F48981882319F40E94D9
:101A4000101702C00E94F71689818093470480E432
:101A500080934904809148040E94C11280914904F6
:101A60000E94C1120F90CF91DF910895DF93CF9321
:101A70000F92CDB7DEB789838981883038F48981A8
:101A800088548093480480E00E94100D0F90CF91FD
:101A9000DF910895DF93CF93CDB7DEB780914804EF
:101AA0008F5F8093480480914804803C18F088EB55
:101AB0008093480480E00E94100DCF91DF9108953B
:101AC000DF93CF93CDB7DEB78FEF80934A04CF91EA
:101AD000DF910895DF93CF93CDB7DEB710924A041C
:101AE000CF91DF9108951F93DF93CF93CDB7DEB7EA
:101AF00027970FB6F894DEBF0FBECDBF8F838091BE
:101B00004704813021F4809149048C3718F48F8187
:101B10008A3011F40E944A0D8F818A3009F43CC04A
:101B200024E833E08F81882F90E0AC01440F551FEB
:101B3000440F551F440F551FBA01681B790BCB0189
:101B4000820F931F9A83898380914704882339F4F5
:101B500080914904803819F481E00E94100D898138
:101B60009A819C838B8389819A8101969A83898348
:101B70008B819C81FC0114911D838D818E838E81CC
:101B80008F3F49F08E810E94D913809149048F5F65
:101B900080934904D9CF000027960FB6F894DEBF92
:101BA0000FBECDBFCF91DF911F910895DF93CF93EB
:101BB00000D0CDB7DEB79A8389830CC089819A8122
:101BC000FC01208189819A8101969A838983822FE1
:101BD0000E94730D89819A81FC018081882371F7AD
:101BE0000F900F90CF91DF9108950F931F93DF9384
:101BF000CF93CDB7DEB760970FB6F894DEBF0FBEB8
:101C0000CDBF6C877D878E879F87488B19828C8597
:101C10009D85AE85BF850097A105B105C1F41982E8
:101C20000DC08981882F90E09E012E5F3F4F820F6B
:101C3000931FFC01108289818F5F89839981888934
:101C4000981708F061C089818A3058F35DC0198205
:101C500044C08C859D85AE85BF850097A105B105E3
:101C600049F18981082F10E08C859D85AE85BF855F
:101C70002AE030E040E050E0BC01CD010E948D2818
:101C8000DC01CB01282FCE010296800F911FFC01B1
:101C900020838C859D85AE85BF852AE030E040E0BD
:101CA00050E0BC01CD010E948D282C873D874E87D6
:101CB0005F8710C088898F3F39F188898B3020F584
:101CC0008981882F90E09E012E5F3F4F820F931FE6
:101CD000FC01108289818F5F898399818889981797
:101CE00008F4B7CF11C08981882F90E001979E0139
:101CF0002E5F3F4F820F931FFC018081805D0E9409
:101D0000730D8981815089838981882361F7609669
:101D10000FB6F894DEBF0FBECDBFCF91DF911F91FC
:101D20000F910895DF93CF93CDB7DEB760970FB6CD
:101D3000F894DEBF0FBECDBF6C877D878E879F87EF
:101D4000488B19828C859D85AE85BF850097A1053E
:101D5000B105C1F419820DC08981882F90E09E01E0
:101D60002E5F3F4F820F931FFC01108289818F5F8E
:101D7000898399818889981708F072C089818A308F
:101D800058F36EC019823BC08C859D85AE85BF859A
:101D90000097A105B105F1F08981882F90E02C858D
:101DA000422F4F709E012E5F3F4F820F931FFC0109
:101DB00040838C859D85AE85BF85689413F8B69564
:101DC000A795979587951694D1F78C879D87AE87B1
:101DD000BF8712C088898F3F09F442C088898B3041
:101DE00008F03EC08981882F90E09E012E5F3F4F12
:101DF000820F931FFC01108289818F5F89839981F3
:101E00008889981708F4C0CF2BC08981882F90E06B
:101E100001979E012E5F3F4F820F931FFC0180812F
:101E20008A3068F08981882F90E001979E012E5FAB
:101E30003F4F820F931FFC018081895C0CC0898118
:101E4000882F90E001979E012E5F3F4F820F931FD6
:101E5000FC018081805D0E94730D8981815089839E
:101E60008981882391F660960FB6F894DEBF0FBE85
:101E7000CDBFCF91DF910895DF93CF9300D000D0F5
:101E800000D0CDB7DEB76A837B838C839D834E837E
:101E900028C08E81882F90E09C012150304081E045
:101EA00090E002C0880F991F2A95E2F79C01442711
:101EB00037FD4095542F8A819B81AC81BD8182235F
:101EC0009323A423B52321E00097A105B10509F4CC
:101ED00020E029838981805D0E94730D8E8181506D
:101EE0008E838E818823A9F626960FB6F894DEBFDE
:101EF0000FBECDBFCF91DF910895DF93CF93CDB7C4
:101F0000DEB728970FB6F894DEBF0FBECDBF6D8346
:101F10007E838F8398876D817E818F8198850E94D3
:101F20001527DC01CB0189839A83AB83BC8389812C
:101F30009A81AB81BC81BC01CD014FEF0E94F50DB0
:101F40008EE20E94730D69817A818B819C810E944F
:101F500041279B01AC016D817E818F8198850E9414
:101F60004426DC01CB018D839E83AF83B8876D81CE
:101F70007E818F81988520E034E244E759E40E9415
:101F8000F727DC01CB01BC01CD010E941527DC0144
:101F9000CB0189839A83AB83BC8389819A81AB818E
:101FA000BC81BC01CD014FEF0E94F50D28960FB604
:101FB000F894DEBF0FBECDBFCF91DF910895DF93C0
:101FC000CF93CDB7DEB768970FB6F894DEBF0FBEDC
:101FD000CDBFCE014F96988F8F8B8D8D9E8D9A831E
:101FE0008983BEC189819A81FC0180818987898525
:101FF000853209F0ADC189819A8101969A838983DE
:1020000089819A81FC01808189878985803300F1EB
:1020100089858A33E8F41A8614C08A85880F982F38
:10202000990F990F980F8985890F80538A87898125
:102030009A8101969A83898389819A81FC018081A2
:1020400089878985803338F089858A3330F304C0E5
:102050008FEF8A8701C000008985882F90E088353E
:10206000910509F4F1C08935910504F58434910591
:1020700009F470C08534910564F48234910509F443
:1020800019C1833491058CF58532910509F45CC141
:1020900062C18335910509F445C18535910509F47F
:1020A000A2C08634910509F424C155C18636910534
:1020B00009F41FC1873691055CF483369105A9F0B8
:1020C0008436910509F18236910509F4D7C043C1E0
:1020D0008537910509F470C08837910509F49DC0D2
:1020E0008337910509F41EC136C18F89988D9C01F3
:1020F0002E5F3F4F388F2F8BFC0180819181898724
:1021000089850E94730D27C18F89988D9C012E5F50
:102110003F4F388F2F8BFC01808191819C838B8373
:102120008B819C81992354F48B819C81909581951E
:102130009F4F9C838B838DE20E94730D8B819C81CA
:10214000AA2797FDA095BA2FBC01CD014A850E9410
:10215000F50D01C18F89988D9C012C5F3F4F388F01
:102160002F8BFC0180819181A281B3818D839E831D
:10217000AF83B8878D819E81AF81B885BB2394F4EE
:102180008D819E81AF81B885B095A0959095819500
:102190009F4FAF4FBF4F8D839E83AF83B8878DE234
:1021A0000E94730D8D819E81AF81B885BC01CD01E8
:1021B0004A850E94F50DCFC08F89988D9C012E5FB6
:1021C0003F4F388F2F8BFC01808191819C878B87BB
:1021D0008B859C85CC01A0E0B0E0BC01CD014A8597
:1021E0000E94F50DB8C08F89988D9C012C5F3F4FE0
:1021F000388F2F8BFC0180819181A281B3818D87E3
:102200009E87AF87B88B8D859E85AF85B889BC01C9
:10221000CD014A850E94F50D9EC08F89988D9C0145
:102220002E5F3F4F388F2F8BFC01808191819C87DF
:102230008B878B859C85CC01A0E0B0E0BC01CD01F3
:102240004A850E94920E87C08F89988D9C012C5FD1
:102250003F4F388F2F8BFC0180819181A281B38108
:102260008D879E87AF87B88B8D859E85AF85B88912
:10227000BC01CD014A850E94920E6DC08F89988D58
:102280009C012E5F3F4F388F2F8BFC018081918105
:102290009C878B878A858F3F11F480E18A878B85A5
:1022A0009C85CC01A0E0B0E0BC01CD014A850E9434
:1022B0003C0F51C08F89988D9C012C5F3F4F388F08
:1022C0002F8BFC0180819181A281B3818D879E87B4
:1022D000AF87B88B8A858F3F11F480E18A878D851F
:1022E0009E85AF85B889BC01CD014A850E943C0F0F
:1022F00032C08F89988D9C012C5F3F4F388F2F8B78
:10230000FC0180819181A281B381898B9A8BAB8BF7
:10231000BC8B89899A89AB89BC89BC01CD010E949B
:102320007D0F19C08F89988D9C012E5F3F4F388F8C
:102330002F8BFC01808191819E8B8D8B8D899E8955
:102340000E94D60D000007C085E20E94730D03C0F5
:1023500089850E94730D89819A8101969A83898368
:1023600089819A81FC018081882309F03BCE68969F
:102370000FB6F894DEBF0FBECDBFCF91DF910895A9
:10238000DF93CF9300D0CDB7DEB7198216C0898115
:102390000E94360D1A820BC08A81803411F40E948B
:1023A000F71680E00E94D9138A818F5F8A838A8121
:1023B000882394F789818F5F89838981883038F3F6
:1023C00080E00E94360D0F900F90CF91DF9108951D
:1023D000DF93CF93CDB7DEB729970FB6F894DEBF62
:1023E0000FBECDBF888769878885843008F06FC0AD
:1023F0008985853608F06BC088858295880F807E38
:102400008B838B81803410F41D8205C081E08D8325
:102410008B8180548B838B81982F985F8D8160E0B6
:10242000492F0E94B20C8985882F90E0A0E0B0E08F
:10243000BC01CD0143E00E94F50D89858695898711
:1024400089858695869586958E8397E08E81292F3E
:10245000281B822F8F8381E0898336C08B81982F40
:10246000945F8D816981492F0E94B20C99818F817F
:10247000981710F41C821AC099818F819817A1F4C3
:10248000898587708C838C81882F90E028E030E0EC
:10249000281B390B8FEF90E0022E02C0880F991F86
:1024A0000A94E2F78C8302C08FEF8C831A8206C0F5
:1024B0008C810E94D9138A818F5F8A838A818C30B4
:1024C000B8F389818F5F89838981883038F22996B2
:1024D0000FB6F894DEBF0FBECDBFCF91DF91089548
:1024E000DF93CF9300D000D0CDB7DEB78B836C8362
:1024F0008B81880F8F5F8A838B818430D8F58C81A4
:102500008536C0F580E06A8140E00E94B20C1982F5
:102510000CC08981803419F481E00E94100D8FEF86
:102520000E94D91389818F5F898399818C81981743
:1025300080F38C8189830CC08981803419F481E017
:102540000E94100D80E00E94D91389818F5F8983DA
:102550008981843688F381E06A814EE60E94B20C5C
:102560008C81882F90E0A0E0B0E0BC01CD0143E079
:102570000E94F50D0F900F900F900F90CF91DF916B
:1025800008950F931F93DF93CF93CDB7DEB769976D
:102590000FB6F894DEBF0FBECDBF898F0E94F41432
:1025A00085E390E0298DFC0120838BE390E02BE311
:1025B00030E0F90120812F77FC0120838BE390E04C
:1025C0002BE330E0F90120812F7BFC0120838BE39A
:1025D00090E02BE330E0F90120812062FC012083B0
:1025E00080E090E0A0E0B0E489839A83AB83BC8371
:1025F00069817A818B819C812BEA3AEA4AEA5EE31F
:102600000E94F727DC01CB018D839E83AF83B887BF
:1026100011E06D817E818F81988520E030E040E877
:102620005FE30E94A92688230CF010E0112319F023
:1026300081E08987A3C011E06D817E818F819885BB
:1026400020E030E04FE753E40E94F32718160CF027
:1026500010E0112309F489C069817A818B819C8102
:1026600020E030E04AE754E40E94AD26DC01CB01D3
:102670008A879B87AC87BD876A857B858C859D858E
:1026800020E030E04AE753E40E94F727DC01CB0169
:102690008E879F87A88BB98B11E06E857F8588898F
:1026A000998920E030E040E85FE30E94A926882372
:1026B0000CF010E0112329F081E090E09B8B8A8BD5
:1026C00046C011E06E857F858889998920E03FEFBB
:1026D0004FE757E40E94F32718160CF010E011237F
:1026E00061F16A857B858C859D8520E030E040E244
:1026F00051E40E94F727DC01CB01BC01CD010E940F
:102700001527DC01CB019B8B8A8B12C089E190E0FD
:102710009D8B8C8B8C899D898C01C8010197F1F769
:102720008C011D8B0C8B8A899B8901979B8B8A8BD3
:102730008A899B89009751F728C06E857F85888993
:1027400099890E941527DC01CB019B8B8A8B8A8992
:102750009B899F8B8E8B8E899F898C01F801319785
:10276000F1F78F011F8B0E8B10C06D817E818F81E1
:1027700098850E941527DC01CB0189878985888F80
:10278000888D182F1A95F1F7188F8BE390E02BE3C3
:1027900030E0F90120812F7DFC01208369960FB67E
:1027A000F894DEBF0FBECDBFCF91DF911F910F9187
:1027B00008950F931F93DF93CF93CDB7DEB769973B
:1027C0000FB6F894DEBF0FBECDBF898F0E94F41400
:1027D00085E390E030914A04298D2327FC01208372
:1027E0008BE390E02BE330E0F90120812068FC01CD
:1027F00020838BE390E02BE330E0F90120812F7BF5
:10280000FC0120838BE390E02BE330E0F901208191
:102810002062FC01208380E090E0A0E0B0E48983A6
:102820009A83AB83BC8369817A818B819C812BEAFB
:102830003AEA4AEA5EE30E94F727DC01CB018D8386
:102840009E83AF83B88711E06D817E818F819885EB
:1028500020E030E040E85FE30E94A92688230CF0E6
:1028600010E0112319F081E08987A3C011E06D8188
:102870007E818F81988520E030E04FE753E40E940D
:10288000F32718160CF010E0112309F489C06981B0
:102890007A818B819C8120E030E04AE754E40E94F9
:1028A000AD26DC01CB018A879B87AC87BD876A8513
:1028B0007B858C859D8520E030E04AE753E40E94CB
:1028C000F727DC01CB018E879F87A88BB98B11E09E
:1028D0006E857F858889998920E030E040E85FE354
:1028E0000E94A92688230CF010E0112329F081E032
:1028F00090E09B8B8A8B46C011E06E857F8588892E
:10290000998920E03FEF4FE757E40E94F32718161C
:102910000CF010E0112361F16A857B858C859D8523
:1029200020E030E040E251E40E94F727DC01CB01D7
:10293000BC01CD010E941527DC01CB019B8B8A8B4A
:1029400012C089E190E09D8B8C8B8C899D898C01D4
:10295000C8010197F1F78C011D8B0C8B8A899B892B
:1029600001979B8B8A8B8A899B89009751F728C096
:102970006E857F85888999890E941527DC01CB01A6
:102980009B8B8A8B8A899B899F8B8E8B8E899F8953
:102990008C01F8013197F1F78F011F8B0E8B10C05E
:1029A0006D817E818F8198850E941527DC01CB0186
:1029B00089878985888F888D182F1A95F1F7188F48
:1029C0008BE390E02BE330E0F90120812F7DFC01C7
:1029D000208369960FB6F894DEBF0FBECDBFCF91AE
:1029E000DF911F910F9108950F931F93DF93CF9362
:1029F000CDB7DEB7E1970FB6F894DEBF0FBECDBFFF
:102A000084E390E024E330E0F90120812F77FC019A
:102A100020838BE390E02BE330E0F90120812F77D6
:102A2000FC0120838BE390E02BE330E0F90120816F
:102A30002064FC0120838BE390E02BE330E0F9017C
:102A400020812F7DFC01208380E090E0A0E0B0E4B5
:102A50008A839B83AC83BD836A817B818C819D81CA
:102A60002BEA3AEA4AEA5EE30E94F727DC01CB014F
:102A70008E839F83A887B98711E06E817F818885C7
:102A8000998520E030E040E85FE30E94A926882392
:102A90000CF010E0112319F081E08A87A3C011E047
:102AA0006E817F818885998520E030E04FE753E48F
:102AB0000E94F32718160CF010E0112309F489C0C6
:102AC0006A817B818C819D8120E030E04AE754E47B
:102AD0000E94AD26DC01CB018B879C87AD87BE872A
:102AE0006B857C858D859E8520E030E04AE753E448
:102AF0000E94F727DC01CB018F87988BA98BBA8BBB
:102B000011E06F85788989899A8920E030E040E872
:102B10005FE30E94A92688230CF010E0112329F01E
:102B200081E090E09C8B8B8B46C011E06F857889AB
:102B300089899A8920E03FEF4FE757E40E94F32705
:102B400018160CF010E0112361F16B857C858D85E2
:102B50009E8520E030E040E251E40E94F727DC014E
:102B6000CB01BC01CD010E941527DC01CB019C8B60
:102B70008B8B12C089E190E09E8B8D8B8D899E8915
:102B80008C01C8010197F1F78C011E8B0D8B8B898D
:102B90009C8901979C8B8B8B8B899C89009751F723
:102BA00028C06F85788989899A890E941527DC0158
:102BB000CB019C8B8B8B8B899C89988F8F8B8F897A
:102BC000988D8C01F8013197F1F78F01188F0F8BD9
:102BD00010C06E817F81888599850E941527DC0150
:102BE000CB018A878A85898F898D182F1A95F1F7ED
:102BF000198F8BE390E02BE330E0F9012081206214
:102C0000FC01208380E090E0A0E0B0E48A8F9B8FFD
:102C1000AC8FBD8F6A8D7B8D8C8D9D8D2BEA3AEAB2
:102C20004AEA5EE30E94F727DC01CB018E8F9F8F7B
:102C3000A8A3B9A311E06E8D7F8D88A199A120E092
:102C400030E040E85FE30E94A92688230CF010E002
:102C5000112319F081E08AA3A3C011E06E8D7F8D4E
:102C600088A199A120E030E04FE753E40E94F327C8
:102C700018160CF010E0112309F489C06A8D7B8DC1
:102C80008C8D9D8D20E030E04AE754E40E94AD2613
:102C9000DC01CB018BA39CA3ADA3BEA36BA17CA144
:102CA0008DA19EA120E030E04AE753E40E94F7277F
:102CB000DC01CB018FA398A7A9A7BAA711E06FA148
:102CC00078A589A59AA520E030E040E85FE30E945E
:102CD000A92688230CF010E0112329F081E090E070
:102CE0009CA78BA746C011E06FA178A589A59AA5DE
:102CF00020E03FEF4FE757E40E94F32718160CF04F
:102D000010E0112361F16BA17CA18DA19EA120E0B7
:102D100030E040E251E40E94F727DC01CB01BC0126
:102D2000CD010E941527DC01CB019CA78BA712C007
:102D300089E190E09EA78DA78DA59EA58C01C80175
:102D40000197F1F78C011EA70DA78BA59CA50197F4
:102D50009CA78BA78BA59CA5009751F728C06FA1B6
:102D600078A589A59AA50E941527DC01CB019CA70F
:102D70008BA78BA59CA598AB8FA78FA598A98C0135
:102D8000F8013197F1F78F0118AB0FA710C06E8DC6
:102D90007F8D88A199A10E941527DC01CB018AA310
:102DA0008AA189AB89A9182F1A95F1F719AB83E38A
:102DB00090E0FC018081881F8827881F8983898192
:102DC000882309F038CE84E390E024E330E0F90171
:102DD00020812068FC012083E1960FB6F894DEBFC5
:102DE0000FBECDBFCF91DF911F910F910895DF935B
:102DF000CF93CDB7DEB78BE390E02BE330E0F90162
:102E000020812061FC01208388E390E028E330E00A
:102E1000F90120812D7FFC012083CF91DF9108955E
:102E2000DF93CF93CDB7DEB788E390E028E330E0BF
:102E3000F90120812260FC0120838BE390E02BE3E9
:102E400030E0F90120812F7EFC012083CF91DF91BA
:102E50000895EF92FF920F931F93DF93CF93CDB717
:102E6000DEB72B970FB6F894DEBF0FBECDBF8B87B2
:102E7000809149048C83809148048B831A8624E5D1
:102E800030E08B85682F70E040E350E0649FC00124
:102E9000659F900D749F900D1124820F931F9A834C
:102EA000898301C000008A858F5F8A8789819A8122
:102EB0009E838D8389819A8101969A8389838D81EE
:102EC0009E818C01F801E590F4908F01F886EF82E5
:102ED0001E830D838F819885898789850E94D913E8
:102EE0008A85803370F48A858F708823D9F68B8128
:102EF0008F5F8B838C810E94C1128B810E94C112D3
:102F0000D2CF00002B960FB6F894DEBF0FBECDBF18
:102F1000CF91DF911F910F91FF90EF900895DF9374
:102F2000CF93CDB7DEB781E062E040E30E94B20C00
:102F30008BE00E942917CF91DF910895DF93CF9303
:102F4000CDB7DEB781E062E040E30E94B20C8CE0D6
:102F50000E942917CF91DF910895DF93CF93CDB7CA
:102F6000DEB787E390E027E330E0F90120812F7995
:102F7000FC01208388E390E028E330E0F901208120
:102F80002066FC012083CF91DF910895DF93CF93DA
:102F9000CDB7DEB786E390E0FC0180818072CF91EF
:102FA000DF910895DF93CF93CDB7DEB786E390E04E
:102FB000FC0180818074CF91DF910895DF93CF93DE
:102FC00000D0CDB7DEB778940E9475210E94B00B77
:102FD0000E9457210E94C2030E94AB250E94EC066A
:102FE0000E9423250E9425220E94CE098091F30091
:102FF0009091F4000E94CE210E94AD171A8219828E
:1030000007C00E94BF0589819A8101969A838983AE
:1030100089819A8121E0843F920798F31092F7000A
:103020000CC00E94BF0580914204882331F01092A9
:10303000420480E090E00E943A1A8091350488238F
:1030400081F701C000000E94BF05809142048823DF
:10305000C9F38091550490915604A0915704B09102
:1030600058040097A105B10599F0809155049091FD
:103070005604A0915704B09158040197A109B109D1
:103080008093550490935604A0935704B09358042A
:1030900080913E0490913F04A0914004B09141047E
:1030A0000097A105B10599F080913E0490913F04ED
:1030B000A0914004B09141040197A109B109809306
:1030C0003E0490933F04A0934004B0934104809148
:1030D0004F0490915004A0915104B0915204009774
:1030E000A105B10599F080914F0490915004A091F1
:1030F0005104B09152040197A109B10980934F0482
:1031000090935004A0935104B0935204109242043F
:103110000E94322280913004882311F00E945F0BBC
:1031200080913404882321F40E941B210E943A1EBE
:103130008091F40082958695869583708170982F92
:1031400081E08927817081708295880F880F807C4B
:103150009091F4009F7B892B8093F4008091F30081
:103160009091F4000E94CE216ECFDF93CF930F9207
:10317000CDB7DEB70E947F0C80E00E94360D8091B3
:10318000970290919802FC01828193810E94D60D52
:10319000198255C020919702309198028981882F19
:1031A00090E0880F991F820F931F0596FC01808184
:1031B0009181009709F43FC0809197029091980205
:1031C000FC01948189819817E9F40E94600D89813E
:1031D0008E5F0E94360D209197023091980289816E
:1031E000882F90E0880F991F820F931F0596FC018E
:1031F00080819181FC01828193810E94D60D0E9481
:103200006A0D1AC089818E5F0E94360D2091970247
:10321000309198028981882F90E0880F991F820F42
:10322000931F0596FC0180819181FC01828193812D
:103230000E94D60D01C0000089818F5F898389813A
:10324000853008F4A7CF0F90CF91DF910895DF93D9
:10325000CF930F92CDB7DEB780913804882329F041
:1032600082E090E00E943A1A32C0809197029091D9
:103270009802FC0124812F5FFC012483FC018481DE
:10328000898320919702309198028981882F90E05C
:10329000880F991F820F931F0596FC0180819181F1
:1032A000009731F48091970290919802FC0114826A
:1032B00000D08DB79EB7019629E932E0FC01318339
:1032C00020830E94FA280F900F900E94B5180F904B
:1032D000CF91DF910895DF93CF9300D0CDB7DEB7C4
:1032E00080913804882329F081E090E00E943A1A06
:1032F00044C08091970290919802FC0184818A8356
:103300008A810E94DC258A81882369F5198227C079
:1033100020919702309198028981882F90E0880F40
:10332000991F820F931F0596FC0180819181009760
:1033300099F4809197029091980229812150FC0183
:1033400024838091970290919802FC0184810E94CD
:10335000DC250E94B51811C089818F5F898389811E
:103360008530B0F20AC080919702909198022A812C
:103370002150FC0124830E94B5180F900F90CF912B
:10338000DF910895DF93CF93CDB7DEB780913804F6
:10339000882329F084E090E00E943A1A21C08091AD
:1033A000970290919802FC0180819181009771F0C1
:1033B0008091970290919802FC0180819181909375
:1033C0009802809397020E94B5180AC010923404A4
:1033D0000E947F0C0E943A1E0E94B0200E941B2176
:1033E000CF91DF910895DF93CF930F92CDB7DEB7E2
:1033F00080913804882329F083E090E00E943A1AF3
:1034000035C08091970290919802FC018481898354
:1034100020919702309198028981882F90E0880F3F
:10342000991F820F931F0596FC0180819181FC01F9
:10343000858196810097B1F0209197023091980292
:103440008981882F90E0880F991F820F931F05961E
:10345000FC018081918190939802809397020E9451
:10346000B51804C080E090E00E943A1A0F90CF9106
:10347000DF910895EF92FF920F931F93DF93CF9305
:1034800000D0CDB7DEB79A8389838091970290915F
:103490009802FC012281338100D000D08DB79EB705
:1034A00001964DE952E0FC0151834083FC013383D6
:1034B00022830E94FA280F900F900F900F90809116
:1034C000970290919802F2E086389F0709F0E7C0D2
:1034D00080913804882F90E08130910599F18230F5
:1034E000910509F46CC0009709F006C383EA92E0E5
:1034F0000E940F2981E0809334040E947F0C80E0B9
:103500000E94360D87EA92E00E94D60D86E00E9466
:10351000360D8DEB92E00E94D60D87E00E94360DAD
:1035200085ED92E00E94D60D80E063E048E20E94C3
:10353000B20C0E94352481E08093380481E08093AE
:103540003504E7C28EED92E00E940F2980E063E02F
:1035500048E20E94B20C0E94352489819A8183300E
:10356000910509F0CBC20E94F82390933704809311
:1035700036040E947F0C80E00E94360D87EA92E0BC
:103580000E94D60D86E00E94360D82EE92E00E94E7
:10359000D60D87E00E94360D8AEF92E00E94D60D8C
:1035A00080E063E048E20E94B20C80913604909182
:1035B00037040E94AD2482E080933804AAC2898136
:1035C0009A8182309105E1F08330910579F1813063
:1035D000910509F095C280913604909137040196C7
:1035E000909337048093360480E063E048E20E94C1
:1035F000B20C80913604909137040E94AD2489C2A8
:10360000809136049091370401979093370480930A
:10361000360480E063E048E20E94B20C80913604F8
:10362000909137040E94AD24000073C2E0900A0418
:10363000F0900B0400910C0410910D040E94F823EB
:103640009C018091360490913704A901481B590BC5
:10365000CA01CC01A0E0B0E0BC01CD010E9441272D
:103660009B01AC01C801B7010E944426DC01CB01DB
:1036700080930A0490930B04A0930C04B0930D0460
:103680001092380410923404109235048FE592E0C1
:1036900090939802809397020E947F0C3AC2809187
:1036A00097029091980252E08234950709F580E9DB
:1036B0009AE0ABE0B0E08093B6009093B700A0939F
:1036C000B800B093B900109234048FE592E0909363
:1036D0009802809397020E947F0C0E943A1E0E94DB
:1036E000B0200E941B218DE093E00E940F2911C29F
:1036F0008091970290919802E1E08F3F9E07E1F55B
:103700008091970290919802FC0184818823A9F40A
:103710001092340410922E048FE592E09093980258
:10372000809397020E94A50A0E947F0C0E943A1E75
:103730000E94B0200E941B21ECC1809197029091C1
:103740009802FC018481813009F0E3C181E080931B
:103750002E04109234048FE592E0909398028093A7
:1037600097020E94A50A0E947F0C0E943A1E0E94A6
:10377000B0200E941B21CDC18091970290919802A8
:10378000F2E08A319F0709F0C4C1809197029091BD
:103790009802FC018481813009F0CAC0809138040C
:1037A000882F90E0009729F08130910509F441C0FD
:1037B000B0C10E947F0C80E00E94360D809197027C
:1037C00090919802FC0187819085FC018281938110
:1037D0000E94D60D86E00E94360D82EE92E00E9495
:1037E000D60D87E00E94360D8FE193E00E94D60D42
:1037F00081E063E045E00E94B20C00D08DB79EB737
:10380000019624E333E0FC01318320830E94DF0F23
:103810000F900F9080E063E048E20E94B20C80912C
:10382000BA009091BB000E94921D81E08093380401
:1038300070C189819A818230910581F1833091052F
:1038400024F48130910551F064C18330910509F46D
:1038500044C08430910509F456C05BC18091BA0020
:103860009091BB00F8E380349F0708F04BC1809132
:10387000BA009091BB0006969093BB008093BA006B
:1038800080E063E048E20E94B20C10922B04809129
:10389000BA009091BB000E94921D3BC18091BA007A
:1038A0009091BB008C33910508F42EC18091BA0031
:1038B0009091BB000A979093BB008093BA0080E080
:1038C00063E048E20E94B20C10922B048091BA008F
:1038D0009091BB000E94921D1CC10E94130B10927C
:1038E0003804109234048FE592E09093980280930C
:1038F00097020E947F0C0E943A1E0E94B0200E94F4
:103900001B21000006C10E942B0B1092380410925C
:1039100034048FE592E090939802809397020E947E
:103920007F0C0E943A1E0E94B0200E941B21F1C011
:103930008091970290919802FC018481823009F075
:10394000E8C080913804882F90E0009729F08130FA
:10395000910509F44CC0DDC00E947F0C80E00E94FC
:10396000360D8091970290919802FC018781908595
:10397000FC01828193810E94D60D86E00E94360D63
:1039800082EE92E00E94D60D87E00E94360D8BE316
:1039900093E00E94D60D81E067E044E10E94B20C02
:1039A0008091BA009091BB000E94921D81E063E07B
:1039B00045E00E94B20C00D08DB79EB7019624E37B
:1039C00033E0FC01318320830E94DF0F0F900F90C2
:1039D00080E063E048E20E94B20C8091BC009091CC
:1039E000BD000E94921D81E08093380492C08981BD
:1039F0009A8182309105B1F18330910524F48130B0
:103A0000910551F086C08330910509F44AC0843095
:103A1000910509F45BC07DC08091BA009091BB0014
:103A20009C01265030408091BC009091BD008217CF
:103A3000930708F06BC08091BC009091BD00069682
:103A40009093BD008093BC0080E063E048E20E9458
:103A5000B20C10922B048091BC009091BD000E948A
:103A6000921D57C08091BC009091BD008C33910590
:103A700008F44EC08091BC009091BD000A979093CD
:103A8000BD008093BC0080E063E048E20E94B20C7D
:103A900010922B048091BC009091BD000E94921D59
:103AA00038C00E94FB0A10923804109234048FE54B
:103AB00092E090939802809397020E947F0C0E945C
:103AC0003A1E0E94B0200E941B2123C00E94450B79
:103AD00010923804109234048FE592E0909398028B
:103AE000809397020E947F0C0E943A1E0E94B02091
:103AF0000E941B2100000DC000000BC0000009C087
:103B0000000007C0000005C0000003C0000001C0A5
:103B100000000F900F90CF91DF911F910F91FF90B8
:103B2000EF900895DF93CF9300D000D0CDB7DEB7EC
:103B30009C838B838B819C8120E13EE0B9010E94B4
:103B400079289B01C90189838981482F50E020E1B0
:103B50003EE0429FC001439F900D529F900D112463
:103B60002B813C81A901481B590BCA019C838B8383
:103B70008B819C812CE330E0B9010E9479289B0164
:103B8000C9018A8389818823B9F48981282F30E08B
:103B900000D000D08DB79EB7019649E453E0FC01F8
:103BA00051834083FC01338322830E94DF0F0F90F7
:103BB0000F900F900F9016C08981282F30E000D011
:103BC00000D08DB79EB701964BE453E0FC015183C2
:103BD0004083FC01338322830E94DF0F0F900F90FC
:103BE0000F900F908A81882371F400D08DB79EB713
:103BF00001962EE433E0FC01318320830E94DF0F25
:103C00000F900F9030C08A818A30B8F48A81282FB3
:103C100030E000D000D08DB79EB7019642E553E06A
:103C2000FC0151834083FC01338322830E94DF0F18
:103C30000F900F900F900F9016C08A81282F30E0C0
:103C400000D000D08DB79EB7019647E553E0FC0148
:103C500051834083FC01338322830E94DF0F0F9046
:103C60000F900F900F900F900F900F900F90CF919B
:103C7000DF910895DF93CF93CDB7DEB72A970FB6C4
:103C8000F894DEBF0FBECDBF80E067E04AE00E943F
:103C9000B20C0E9435248091B6009091B700A0919B
:103CA000B800B091B90081312EE0920720E0A20760
:103CB00020E0B20708F446C08091B6009091B700AA
:103CC000A091B800B091B9000197A109B109809302
:103CD000B6009093B700A093B800B093B90081E00C
:103CE00067E044E10E94B20C8091B6009091B70069
:103CF000A091B800B091B90020E13EE040E050E072
:103D0000BC01CD010E948D28DA01C90100D000D08C
:103D100000D02DB73EB72F5F3F4F4BE553E0F90181
:103D200051834083F90182839383A483B5830E94E6
:103D3000DF0F8DB79EB706960FB6F8949EBF0FBEE5
:103D40008DBF12C081E067E044E10E94B20C00D058
:103D50008DB79EB7019623E633E0FC0131832083C3
:103D60000E94DF0F0F900F908091B500882309F01B
:103D7000C1C180912E04813009F0C7C00E9413098F
:103D8000DC01CB018B839C83AD83BE838B819C81C3
:103D9000AD81BE818931F7E49F07F0E0AF07F0E025
:103DA000BF0740F088E197E4A0E0B0E08B839C83FC
:103DB000AD83BE838B819C81AD81BE81883E23E033
:103DC000920720E0A20720E0B20788F488EE93E093
:103DD000A0E0B0E08B839C83AD83BE8380E062E093
:103DE00049E20E94B20C8EE090E00E94291781E027
:103DF00062E040E10E94B20C8AE090E00E94291744
:103E00008B819C81AD81BE8120E137E240E050E0B2
:103E1000BC01CD010E948D28DA01C90189838B8103
:103E20009C81AD81BE8120E137E240E050E0BC01E1
:103E3000CD010E948D28DC01CB018B839C83AD8357
:103E4000BE838981882351F080E062E044E30E94D0
:103E5000B20C8981882F90E00E9429178B819C8168
:103E6000AD81BE8128EE33E040E050E0BC01CD01E1
:103E70000E948D28DA01C90189838B819C81AD81E3
:103E8000BE8128EE33E040E050E0BC01CD010E944D
:103E90008D28DC01CB018B839C83AD83BE8381E0C5
:103EA00062E040E00E94B20C8981882F90E00E947D
:103EB00029178B819C81AD81BE8124E630E040E0F2
:103EC00050E0BC01CD010E948D28DA01C90189832F
:103ED0008B819C81AD81BE8124E630E040E050E0E2
:103EE000BC01CD010E948D28DC01CB018B839C831A
:103EF000AD83BE8381E062E040E20E94B20C898122
:103F0000882F90E00E94291722C10E949709DC01A6
:103F1000CB018F839887A987BA878091A4008130CD
:103F200089F480E063E041E20E94B20C81E30E94E8
:103F3000730D80E064E04EE10E94B20C80E20E94CA
:103F4000730D10C080E063E041E20E94B20C80E299
:103F50000E94730D80E064E04EE10E94B20C82E3A7
:103F60000E94730D8F819885A985BA858031E7E21B
:103F70009E07E0E0AE07E0E0BE0788F08FE097E242
:103F8000A0E0B0E08F839887A987BA8780E062E0DD
:103F90004EE10E94B20C8DE090E00E9429178F81C3
:103FA0009885A985BA8587339105A105B10540F4A7
:103FB00087E390E0A0E0B0E08F839887A987BA8775
:103FC00080E062E044E30E94B20C8AE090E00E944C
:103FD00029178F819885A985BA8528EE33E040E0BE
:103FE00050E0BC01CD010E948D28DA01C9018A830D
:103FF0008F819885A985BA8528EE33E040E050E0AE
:10400000BC01CD010E948D28DC01CB018F839887F4
:10401000A987BA8780E062E049E20E94B20C8A81F7
:10402000882F90E00E9429178F819885A985BA85ED
:1040300024E630E040E050E0BC01CD010E948D2834
:10404000DA01C9018A838F819885A985BA8524E61A
:1040500030E040E050E0BC01CD010E948D28DC0141
:10406000CB018F839887A987BA8781E062E040E01F
:104070000E94B20C8A81882F90E00E9429178F81BC
:104080009885A985BA852AE030E040E050E0BC017F
:10409000CD010E948D28DA01C9018A838F8198851C
:1040A000A985BA852AE030E040E050E0BC01CD01AE
:1040B0000E948D28DC01CB018F839887A987BA875E
:1040C00081E062E040E10E94B20C8A81882F90E09A
:1040D0000E9429178F819885A985BA858A8381E0F6
:1040E00062E040E20E94B20C8A81882F90E00E9438
:1040F00029172DC081E062E040E20E94B20C8FE0FF
:1041000090E00E94291781E062E040E10E94B20C39
:104110008FE090E00E94291781E062E040E00E9479
:10412000B20C8FE090E00E94291780E062E042E349
:104130000E94B20C80E190E00E94291780E062E0CA
:1041400047E20E94B20C80E190E00E9429172A9673
:104150000FB6F894DEBF0FBECDBFCF91DF910895AB
:10416000DF93CF93CDB7DEB780913904882F90E0ED
:1041700083309105A9F1843091054CF4813091058B
:10418000F9F08230910524F5009791F051C0863006
:104190009105B1F18730910524F48430910541F106
:1041A00047C087309105A1F188309105C9F140C021
:1041B00080E00E94360D8CE091E00E94D60D38C060
:1041C00080E00E94360D86E191E00E94D60D30C05D
:1041D00080E00E94360D82E091E00E94D60D28C05A
:1041E00080E00E94360D80E291E00E94D60D20C052
:1041F00080E00E94360D8AE291E00E94D60D18C040
:1042000080E00E94360D86E191E00E94D60D10C03C
:1042100080E00E94360D86E191E00E94D60D08C034
:1042200080E00E94360D82E591E00E94D60D0000EC
:10423000CF91DF910895DF93CF93CDB7DEB70E9482
:10424000D217882351F081E060E042E10E94B20C75
:104250008EE391E00E94D60D1EC00E94C6178823EF
:1042600089F080913904882369F086E080933904CD
:1042700081E060E042E10E94B20C84E391E00E94A0
:10428000D60D09C081E060E042E10E94B20C88E4F2
:1042900091E00E94D60D80912E04882319F00E948F
:1042A0009E1702C00E948F17CF91DF910895DF9370
:1042B000CF93CDB7DEB783E590E023E530E0F90199
:1042C00020812967FC01208387E390E027E330E029
:1042D000F90120812860FC0120838CE590E025E92C
:1042E000FC012083CF91DF910895DF93CF93CDB769
:1042F000DEB781E390E021E330E0F9012081206E18
:10430000FC01208380E090E00E94CE21CF91DF91DC
:104310000895DF93CF93CDB7DEB782E390E022E339
:1043200030E0F90120812064FC01208382E390E0E9
:1043300022E330E0F90120812F7BFC012083CF9123
:10434000DF9108951F93DF93CF9300D0CDB7DEB7F1
:1043500082E390E022E330E0F90120812068FC0153
:10436000208381E089838981182F1A95F1F71983B9
:1043700082E390E022E330E0F90120812F77FC0115
:10438000208381E08A838A81182F1A95F1F71A8396
:104390000F900F90CF91DF911F910895DF93CF93EE
:1043A00000D00F92CDB7DEB79B838A83198222C0DB
:1043B0008A819B81992354F482E390E022E330E0E8
:1043C000F90120812062FC01208309C082E390E092
:1043D00022E330E0F90120812F7DFC0120830E943F
:1043E00089218A819B81880F991F9B838A83898178
:1043F0008F5F898389818031D8F20E94A2210F903A
:104400000F900F90CF91DF910895DF93CF93CDB7A9
:10441000DEB78091F3008F7D8093F3008091F400EC
:104420008F778093F4008091F3008F7E8093F30068
:104430008091F3008F7B8093F3008091F3008F775E
:104440008093F300CF91DF910895DF93CF93CDB7A1
:10445000DEB70E947F0C109239040E94B020CF91E9
:10446000DF910895DF93CF93CDB7DEB78091390404
:10447000882F90E08330910509F46BC0843091055A
:104480003CF481309105A9F082309105A4F5ACC0CF
:104490008630910509F46FC0873091050CF499C0FE
:1044A0008730910509F479C08830910509F47FC0FF
:1044B0009BC08CE693E00E940F290E94D2170097C0
:1044C00031F087E0809339040E94F7228DC00E946A
:1044D000C617009751F085E893E00E940F2986E007
:1044E000809339040E94F7227FC082E080933904D0
:1044F0000E94F72279C08FE993E00E940F290E9461
:10450000D217009731F087E0809339040E94F72298
:104510000DC00E94C617009749F088EB93E00E94F7
:104520000F2986E0809339040E94F7228091550478
:1045300090915604A0915704B09158040097A1059A
:10454000B10509F048C083E0809339040E94F72246
:104550004BC08091550490915604A0915704B0919E
:1045600058040097A105B105C1F581E08093390495
:104570000E94F72239C082ED93E00E940F290E9429
:10458000C617009761F58CEE93E00E940F2982E038
:10459000809339040E94F72227C00E94D217009707
:1045A00001F582E0809339040E94F7221DC08091BA
:1045B000550490915604A0915704B0915804009767
:1045C000A105B10581F481E0809339040E94F722AE
:1045D0000BC0000009C0000007C0000005C00000BB
:1045E00003C0000001C00000CF91DF910895DF9368
:1045F000CF93CDB7DEB780913904882F90E0833018
:10460000910509F465C0843091054CF48130910521
:1046100001F18230910514F50097B1F0BDC08630EC
:10462000910509F491C0873091052CF484309105EF
:1046300009F47BC0B1C08730910509F48FC0883080
:10464000910509F490C0A8C00E9405220E94B020E4
:10465000A3C00E94B0200E9405229EC02091BA00F3
:104660003091BB008091BC009091BD00A901481B16
:10467000590BCA01CC01A0E0B0E08093550490939F
:104680005604A0935704B09358040E9405228091C9
:10469000F30080618093F3008091F3008062809347
:1046A000F3008091F30088608093F3000E94B020B3
:1046B00080916A0390916B03CC01A0E0B0E08093FD
:1046C0004F0490935004A0935104B093520464C0DB
:1046D0000E9405228091F30080648093F300809112
:1046E000F30081608093F3000E94B0208091BC00B1
:1046F0009091BD00CC01A0E0B0E080935504909370
:104700005604A0935704B093580480916A03909183
:104710006B03CC01A0E0B0E080934F049093500471
:10472000A0935104B093520437C00E940522809197
:10473000F30080648093F3008091F400806880939C
:10474000F4000E94B02028C00E9405228091F3004E
:1047500080618093F3000E94B0201EC00E94052259
:104760000E94B02019C00E9405228091F3008F772B
:104770008093F3000E94B0208091530490915404E0
:10478000CC01A0E0B0E08093550490935604A09330
:104790005704B09358040000CF91DF910895DF9340
:1047A000CF9300D0CDB7DEB79A83898389819A8170
:1047B000FC01808191810F900F90CF91DF9108953E
:1047C000DF93CF9300D000D0CDB7DEB79A83898333
:1047D0007C836B8389819A812B813C81FC013183AD
:1047E00020830F900F900F900F90CF91DF9108953D
:1047F000DF93CF9300D0CDB7DEB7809108049091BE
:104800000904CC01A0E0B0E0BC01CD010E94412729
:10481000DC01CB0120910E0430910F044091100473
:1048200050911104BC01CD010E94F727DC01CB019E
:1048300020910A0430910B0440910C0450910D0416
:10484000BC01CD010E944526DC01CB01BC01CD019C
:104850000E941527DC01CB019A83898389819A8183
:104860000F900F90CF91DF910895DF93CF93CDB745
:10487000DEB727970FB6F894DEBF0FBECDBF0E94FC
:10488000F8239A83898389819A81CC01A0E0B0E0E2
:104890002DB73EB72A5030400FB6F8943EBF0FBE3A
:1048A0002DBF2DB73EB72F5F3F4FAE014D5F5F4F1E
:1048B000F9015183408345E050E0F901538342837D
:1048C00042E154E0F90155834483F90186839783DB
:1048D000A087B1870E9444292DB73EB7265F3F4F7E
:1048E0000FB6F8943EBF0FBE2DBF8B81682F70E0CE
:1048F0008C81482F50E08D81282F30E08DB79EB7F6
:1049000008970FB6F8949EBF0FBE8DBF8DB79EB7A8
:104910000196E6E1F4E0DC01ED93FC93FC01738386
:104920006283DC0115965C934E931497FC013783E8
:1049300026830E94DF0F2DB73EB7285F3F4F0FB68B
:10494000F8943EBF0FBE2DBF27960FB6F894DEBF7A
:104950000FBECDBFCF91DF910895DF93CF93CDB739
:10496000DEB727970FB6F894DEBF0FBECDBF9F838B
:104970008E838E819F81CC01A0E0B0E02DB73EB741
:104980002A5030400FB6F8943EBF0FBE2DBF2DB752
:104990003EB72F5F3F4FAE014F5F5F4FF90151832D
:1049A000408345E050E0F9015383428342E154E003
:1049B000F90155834483F90186839783A087B187E2
:1049C0000E9444292DB73EB7265F3F4F0FB6F8949B
:1049D0003EBF0FBE2DBF8981682F70E08A81482FAE
:1049E00050E08B81282F30E08DB79EB708970FB627
:1049F000F8949EBF0FBE8DBF8DB79EB70196E6E1BE
:104A0000F4E0DC01ED93FC93FC0173836283DC0131
:104A100015965C934E931497FC01378326830E946E
:104A2000DF0F2DB73EB7285F3F4F0FB6F8943EBF5C
:104A30000FBE2DBF27960FB6F894DEBF0FBECDBFB9
:104A4000CF91DF910895DF93CF93CDB7DEB785E4A3
:104A500090E025E430E0F90120812F60FC01208303
:104A600083E490E023E430E0F90120812D67FC012C
:104A7000208389E590E029E530E0F9012081206874
:104A8000FC012083CF91DF9108951F920F920FB602
:104A90000F9211248F939F93AF93BF93DF93CF9384
:104AA000CDB7DEB7809143048D3709F044C081E073
:104AB0008093420480913A0490913B04A0913C047D
:104AC000B0913D040097A105B10599F080913A0499
:104AD00090913B04A0913C04B0913D040197A10941
:104AE000B10980933A0490933B04A0933C04B093A3
:104AF0003D0480913E0490913F04A0914004B09108
:104B000041040097A105B10599F080913E04909170
:104B10003F04A0914004B09141040197A109B1095B
:104B200080933E0490933F04A0934004B0934104CB
:104B30001092430405C0809143048F5F8093430427
:104B4000CF91DF91BF91AF919F918F910F900FBE49
:104B50000F901F901895DF93CF93CDB7DEB780E409
:104B600090E0FC01108289E290E027E6FC012083BE
:104B70008AE290E02AE230E0F90120812861FC011C
:104B800020838AE290E02AE230E0F9012081206867
:104B9000FC01208380E490E020E430E0F9012081F2
:104BA0002668FC01208385E096E260E070E00E94C8
:104BB000AF28CF91DF910895DF93CF930F92CDB7B8
:104BC000DEB7898300008BE290E0FC018081882FB2
:104BD00090E0807290700097B1F38CE290E02981B0
:104BE000FC0120830F90CF91DF910895DF93CF9345
:104BF000CDB7DEB78BE290E0FC0180818CE290E0E3
:104C0000FC018081CF91DF910895DF93CF9300D095
:104C10000F92CDB7DEB789837B836A8300008BE276
:104C200090E0FC018081882F90E080729070009766
:104C3000B1F38CE290E02981FC01208380E090E0D8
:104C40000F900F900F90CF91DF9108951F920F92C8
:104C50000FB60F9211248F939F93EF93FF93DF93DF
:104C6000CF93CDB7DEB78CE290E0FC0180818093DA
:104C7000F500CF91DF91FF91EF919F918F910F9070
:104C80000FBE0F901F9018955058BB27AA270ED023
:104C900070C161D130F066D120F031F49F3F11F442
:104CA0001EF456C10EF4E095E7FB4CC1E92F72D11A
:104CB00080F3BA17620773078407950718F071F439
:104CC0009EF58AC10EF4E0950B2EBA2FA02D0B0194
:104CD000B90190010C01CA01A0011124FF27591B41
:104CE00099F0593F50F4503E68F11A16F040A22F47
:104CF000232F342F4427585FF3CF469537952795B8
:104D0000A795F0405395C9F77EF41F16BA0B620BB6
:104D1000730B840BBAF09150A1F0FF0FBB1F661FFD
:104D2000771F881FC2F70EC0BA0F621F731F841F40
:104D300048F4879577956795B795F7959E3F08F066
:104D4000B3CF9395880F08F09927EE0F9795879525
:104D50000895D4D008F481E008950CD00AC102D19E
:104D600040F0F9D030F021F45F3F19F0EBC0511161
:104D700034C1EEC00FD198F39923C9F35523B1F391
:104D8000951B550BBB27AA2762177307840738F0BA
:104D90009F5F5F4F220F331F441FAA1FA9F333D019
:104DA0000E2E3AF0E0E830D091505040E695001CCD
:104DB000CAF729D0FE2F27D0660F771F881FBB1F89
:104DC000261737074807AB07B0E809F0BB0B802D63
:104DD000BF01FF2793585F4F2AF09E3F510568F0AF
:104DE000B1C0FBC05F3FECF3983EDCF3869577954E
:104DF0006795B795F7959F5FC9F7880F911D9695B1
:104E0000879597F90895E1E0660F771F881FBB1F0C
:104E1000621773078407BA0720F0621B730B840BB9
:104E2000BA0BEE1F88F7E0950895BCD088F09F5725
:104E300090F0B92F9927B751A0F0D1F0660F771FE6
:104E4000881F991F1AF0BA95C9F712C0B13081F0C6
:104E5000C3D0B1E00895C0C0672F782F8827B85F0E
:104E600039F0B93FCCF3869577956795B395D9F727
:104E70003EF490958095709561957F4F8F4F9F4F31
:104E80000895E89409C097FB3EF49095809570953D
:104E900061957F4F8F4F9F4F9923A9F0F92F96E986
:104EA000BB279395F695879577956795B795F111FB
:104EB000F8CFFAF4BB0F11F460FF1BC06F5F7F4F98
:104EC0008F4F9F4F16C0882311F096E911C07723AA
:104ED00021F09EE8872F762F05C0662371F096E8B3
:104EE000862F70E060E02AF09A95660F771F881F82
:104EF000DAF7880F9695879597F90895990F000826
:104F0000550FAA0BE0E8FEEF16161706E807F9079B
:104F1000C0F012161306E407F50798F0621B730B36
:104F2000840B950B39F40A2661F0232B242B252BB7
:104F300021F408950A2609F4A140A6958FEF811D5A
:104F4000811D089597F99F6780E870E060E00895FB
:104F50009FEF80EC089500240A9416161706180691
:104F60000906089500240A9412161306140605066D
:104F70000895092E0394000C11F4882352F0BB0FFE
:104F800040F4BF2B11F460FF04C06F5F7F4F8F4F61
:104F90009F4F089557FD9058440F551F59F05F3F9C
:104FA00071F04795880F97FB991F61F09F3F79F04B
:104FB00087950895121613061406551FF2CF4695CD
:104FC000F1DF08C0161617061806991FF1CF86954F
:104FD0007105610508940895E894BB276627772733
:104FE000CB0197F908958ADF08F48FEF08950BD06D
:104FF000C0CFB1DF28F0B6DF18F0952309F0A2CFBB
:10500000A7CF1124EACFC6DFA0F3959FD1F3950F68
:1050100050E0551F629FF001729FBB27F00DB11D3C
:10502000639FAA27F00DB11DAA1F649F6627B00DCC
:10503000A11D661F829F2227B00DA11D621F739FB5
:10504000B00DA11D621F839FA00D611D221F749FC3
:105050003327A00D611D231F849F600D211D822F0A
:10506000762F6A2F11249F5750408AF0E1F0882351
:105070004AF0EE0FFF1FBB1F661F771F881F91505E
:105080005040A9F79E3F510570F05CCFA6CF5F3F1F
:10509000ECF3983EDCF3869577956795B795F79591
:1050A000E7959F5FC1F7FE2B880F911D9695879519
:1050B00097F90895629FD001739FF001829FE00DE0
:1050C000F11D649FE00DF11D929FF00D839FF00D87
:1050D000749FF00D659FF00D9927729FB00DE11D33
:1050E000F91F639FB00DE11DF91FBD01CF01112410
:1050F0000895AA1BBB1B51E107C0AA1FBB1FA6171F
:10510000B70710F0A61BB70B881F991F5A95A9F770
:1051100080959095BC01CD010895A1E21A2EAA1B9D
:10512000BB1BFD010DC0AA1FBB1FEE1FFF1FA21757
:10513000B307E407F50720F0A21BB30BE40BF50B54
:10514000661F771F881F991F1A9469F760957095DD
:10515000809590959B01AC01BD01CF0108950F93FF
:105160001F93CF93DF938C01EB01009711F42097ED
:10517000C9F181E090E06EE070E00E948A2BFC01B2
:105180009C01009789F180E88383209771F0D38791
:10519000C28781E883838091590490915A040097D3
:1051A00021F4F0935A04E093590401151105E1F03C
:1051B0001187008783818260838380915B04909153
:1051C0005C04009789F4F0935C04E0935B048091A5
:1051D0005D0490915E04009739F4F0935E04E093CF
:1051E0005D0402C020E030E0C901DF91CF911F9142
:1051F0000F910895A0E0B0E0E0E0F9E20C94A82D52
:10520000FE0135966191719180915B0490915C04EF
:10521000AF010E9475292096E2E00C94C42DEF9214
:10522000FF920F931F93CF93DF938C01E0915B0468
:10523000F0915C04838181FF1FC0C0E0D0E00AC010
:10524000DB011896ED91FC9119970995009711F0E3
:10525000CFEFDFEFF80181918F0160915B047091D6
:105260005C04882369F7DB011896ED91FC9119978E
:105270008AE00995009711F0CFEFDFEFCE01CDB7AF
:10528000DEB7E6E00C94C02DAEE0B0E0EAE4F9E26F
:105290000C94A62D0D891E898F89988D26E02C836C
:1052A0001A83098397FF02C080E090E801979E83EC
:1052B0008D839E01255E3F4FCE010196698D7A8DCB
:1052C000A9010E9475294D815E8157FD0AC02F8179
:1052D0003885421753070CF49A01020F131FF80187
:1052E00010822E96E4E00C94C22DACE0B0E0EBE727
:1052F000F9E20C94982D6C011B018A01FC011782C4
:105300001682838181FFD1C12E010894411C511C5A
:10531000F6019381F10193FD859193FF81911F0126
:10532000882309F4BEC1853239F493FD859193FF3A
:1053300081911F01853229F490E0B6010E94FE2C74
:10534000E7CFEE24FF2420E02032B0F48B3269F066
:105350008C3228F4803251F0833271F40BC08D32DC
:1053600039F0803349F421602CC02260246029C0C8
:10537000286027C0206125C027FD2CC0382F30535E
:105380003A3098F426FF08C08E2D880FE82EEE0CD8
:10539000EE0CE80EE30E15C08F2D880FF82EFF0CD3
:1053A000FF0CF80EF30E20620CC08E3221F426FDA5
:1053B00078C1206406C08C3611F4206802C088369B
:1053C00049F4F10193FD859193FF81911F01882399
:1053D00009F0BACF982F9554933018F0905293302B
:1053E00028F40C5F1F4FFFE3F9830DC0833631F0C3
:1053F000833771F0833509F060C022C0F8018081E5
:1054000089830E5F1F4F420171E0A72EB12C16C099
:1054100062E0662E712C600E711EF8018080918012
:1054200026FF03C06E2D70E002C06FEF7FEFC40156
:105430002C870E94F32C5C0183012C852F7717C0E9
:1054400052E0652E712C600E711EF80180809180F3
:1054500026FF03C06E2D70E002C06FEF7FEFC40126
:105460002C870E94E12C5C012C852068830123FDA0
:1054700020C008C080E290E0B6012C870E94FE2C7C
:10548000FA942C858F2D90E0A816B90698F311C0D8
:10549000F40127FD859127FF81914F0190E0B6012E
:1054A0002C870E94FE2C2C85F110FA940894A108F8
:1054B000B108A114B10461F7F1C0843611F0893646
:1054C00049F527FF08C0F8016081718182819381CD
:1054D0000C5F1F4F09C0F80160817181882777FD3B
:1054E0008095982F0E5F1F4F4FE6B42EB22297FF84
:1054F00009C090958095709561957F4F8F4F9F4F14
:10550000F0E8BF2AA2012AE030E00E942A2D782E7E
:10551000741845C0853731F43FEEB32EB2222AE02D
:1055200030E025C099EFB92EB2228F36C1F0803716
:1055300020F4883509F0B5C00DC0803721F08837D8
:1055400009F0AFC002C020E1B22AB4FE0BC084E073
:10555000B82A08C0B4FE09C0E6E0BE2A06C028E0AA
:1055600030E005C020E130E002C020E132E0B7FECB
:1055700008C0F80160817181828193810C5F1F4FA7
:1055800007C0F8016081718180E090E00E5F1F4FDD
:10559000A2010E942A2D782E7418FFE7BF22B6FEC2
:1055A0000BC02EEFB2227E1438F4B4FE07C0B2FC5A
:1055B00005C08FEEB82202C0A72C01C0AE2C8B2DE7
:1055C00090E0B4FE0DC0FE01E70DF11D20812033F7
:1055D00019F4E9EEBE2209C0A394B2FE06C004C0CD
:1055E00086789070009709F0A3948B2C9924B3FCD3
:1055F00014C0B0FE0FC0AF1428F4E72CEF0CEA186B
:10560000AF2C08C0E72C06C080E290E0B6010E94F3
:10561000FE2CA394AF14C0F304C0AF1410F4FA1816
:1056200001C0FF2484FE0FC080E390E0B6010E9419
:10563000FE2C82FE1FC081FE03C088E590E010C0F2
:1056400088E790E00DC0C40186789070009791F0D3
:1056500081FC02C080E201C08BE2B7FC8DE290E0E9
:10566000B6010E94FE2C06C080E390E0B6010E94C5
:10567000FE2CEA947E14C0F37A94F201E70DF11D3A
:10568000808190E0B6010E94FE2C7720A9F706C029
:1056900080E290E0B6010E94FE2CFA94FF20C1F750
:1056A00037CEF6012681378102C02FEF3FEFC901C7
:1056B0002C96E2E10C94B42DE199FECF9FBB8EBBFA
:1056C000E09A99278DB30895A6E1B0E044E050E058
:1056D0000C948A2DA8E1B0E042E050E00C948A2DB1
:1056E000262FE199FECF9FBB8EBB2DBB0FB6F89442
:1056F000E29AE19A0FBE01960895242F0E94712B21
:10570000252F0E94712B0C94852B0E94702B272F24
:105710000C94712BEF92FF920F931F93CF93DF9313
:10572000689F8001699F100D789F100D1124C8019A
:105730000E94AE2BE82EE7017E01F92EE7012097AB
:1057400031F08E2D60E070E0A8010E94EC2C7E010B
:10575000CE01CDB7DEB7E6E00C94C02DCF93DF933A
:105760008230910510F482E090E0E0916104F091C4
:10577000620440E050E020E030E026C060817181AA
:1057800068177907E0F06817790781F482819381BF
:105790002115310531F0D90113969C938E93129700
:1057A0002BC0909362048093610426C0411551057B
:1057B00019F06417750718F4AB01E901DF019F01C7
:1057C00072816381E72FF62F3097C1F6411551059D
:1057D00001F1481B590B4430510580F412968D910C
:1057E0009C911397209719F09B838A8304C0909310
:1057F000620480936104FD01329646C0FD01E40F0E
:10580000F51F819391934250504011965C934E93B3
:105810003BC020915F04309160042115310541F4B3
:1058200020912504309126043093600420935F0476
:1058300020912704309128042115310541F42DB71A
:105840003EB74091230450912404241B350BE09172
:105850005F04F0916004E217F307A0F42E1B3F0BE6
:105860002817390778F0AC014E5F5F4F24173507D2
:1058700048F04E0F5F1F5093600440935F04819384
:10588000919302C0E0E0F0E0CF01DF91CF91089565
:10589000CF93DF93009709F491C0FC0132971382F4
:1058A000128260916104709162046115710581F446
:1058B00020813181280F391F80915F04909160040D
:1058C0008217930799F5F0936004E0935F0476C024
:1058D000DB0180E090E002C0CD01D901AE17BF0727
:1058E00048F412962D913C91139721153105A1F79B
:1058F000CD0121C0B383A283EF01499159919E014B
:10590000240F351FA217B30779F42D913C911197FD
:10591000240F351F2E5F3F4F3183208312962D9128
:105920003C91139733832283009729F4F093620408
:10593000E093610443C0DC011396FC93EE9312974D
:105940004D915D91A40FB51FEA17FB0769F4208103
:105950003181240F351F2E5F3F4FEC01398328839F
:10596000228133813B832A83E0E0F0E002C0FB0127
:10597000BC01DB0112968D919C9113970097B9F7AA
:105980009B012E5F3F4F8D919C911197820F931F2A
:1059900040915F04509160044817590779F430979B
:1059A00029F4109262041092610402C013821282E0
:1059B000225030403093600420935F04DF91CF91F8
:1059C0000895FC010590615070400110D8F7809552
:1059D00090958E0F9F1F0895DC0101C06D9341507B
:1059E0005040E0F70895FC016150704001900110B3
:1059F000D8F7809590958E0F9F1F08950F931F9352
:105A0000CF93DF938C01EB018B8181FF1BC082FF61
:105A10000DC02E813F818C819D812817390764F448
:105A2000E881F9810193F983E88306C0E885F98567
:105A3000802F0995009731F48E819F8101969F8375
:105A40008E8302C00FEF1FEFC801DF91CF911F912E
:105A50000F910895FA01AA27283051F1203181F1E0
:105A6000E8946F936E7F6E5F7F4F8F4F9F4FAF4F66
:105A7000B1E03ED0B4E03CD0670F781F891F9A1F79
:105A8000A11D680F791F8A1F911DA11D6A0F711D2D
:105A9000811D911DA11D20D009F468943F912AE039
:105AA000269F11243019305D3193DEF6CF01089521
:105AB000462F4770405D4193B3E00FD0C9F7F6CF52
:105AC000462F4F70405D4A3318F0495D31FD40521A
:105AD000419302D0A9F7EACFB4E0A69597958795B0
