:100000000C9426030C94D2070C941A070C94430307
:100010000C94F8230C9443030C9443030C94430373
:100020000C9443030C94DB060C9443030C9443039D
:100030000C9443030C94D9240C9443030C94430371
:100040000C9489030C9443030C9443030C944303D2
:100050000C9443030000C0E0F0F838181838F8F0AA
:10006000E0C0000000FFFFFFFF000000000000FFF5
:10007000FFFFFF0000071F3F7FF8E0C0C0E0F87FF0
:100080003F1F0700000000808080C0E0F8F8F8F80B
:10009000000000000000000101010101FFFFFFFF5F
:1000A000000000000000000000000000FFFFFFFF54
:1000B000000000000080E0F0F0783818181878F898
:1000C000F0E0C00000010101010080C0C0E0F87F45
:1000D0003F1F0F00C0F0F8FCFEDFCFC7C3C1C0C098
:1000E000C0C0C00000C0E0F0F83818181838F8F0A8
:1000F000E0C0000000000000000030303078FFFF5A
:10010000EFC78000000C3C7C7CF0E0C0C0E0F07FDA
:100110007F3F0F0000000000000000C0E0F8F8F88A
:10012000F80000000080E0F07C3E0F0701FFFFFFB9
:10013000FF000000070707070606060606FFFFFF89
:10014000FF0606060000F8F8F8F81818181818182E
:100150001800000000003F3F3F1F1C0C0C1C3CF827
:10016000F8F0C000000C3C7C7CF0E0C0C0E0F07F08
:100170007F3F0F000000C0E0F0F83818181838F87A
:10018000F0E0C00000FEFFFFFF391C0C0C1C3CFC23
:10019000F8F0C00000071F3F7FF8E0C0C0E0F07F2C
:1001A0007F3F0F0000181818181818181818D8F8DA
:1001B000F8F8380000000000000000C0F8FEFF3F23
:1001C0000F0100000000000080F0FEFF7F0F010023
:1001D000000000000000C0F0F0F838181838F8F0FF
:1001E000F0C00000000083CFFFFF7C78787CFFFF29
:1001F000CF830000001F3F7F7FF0E0C0C0E0F07FB2
:100200007F3F1F000080E0F0F07838181838F8F0D1
:10021000E0C00000000F3F7FFFF0E0C0C0E070FFD3
:10022000FFFFFF0000183878F8E0C0C0E0F0FC7F66
:100230003F1F03000000000000000000000000005D
:1002400000000000000000000000000000000000AE
:100250000000000000000000000000E0E0E0E0001E
:1002600000000000008000000080007CFEC6C6C6C2
:10027000CE8C000000BF8888848F808C9C989898D2
:100280009F8F000000001C22222200003E023E023E
:100290003E0000000000FC081008FC0078CC0404BC
:1002A000CC7800000000010000004528112944001E
:1002B0000101000000001E21212100003F013E013C
:1002C0003E000000FFFFFFFFFF00FFFFFFFFFFFFFB
:1002D00000FFFFFFFFFFFF00FFFFFFFFFFFF00FF2B
:1002E000FFFFFFFFFF00FFFFFFFFFFFF00FFFFFF1C
:1002F000FFFFFF00FFFFFFFFFFFF00FFFFFFFFFF0C
:10030000FF00FFFFFFFFFFFF00FFFFFFFFFFFF00FA
:10031000FFFFFFFFFFFF00FFFFFFFFFFFF00FFFFEB
:10032000FFFFFFFF00FFFFFFFFFFFF00FFFFFFFFDB
:10033000FFFF00FFFFFFFFFFFF00FFFFFFFFFFFFCB
:1003400000FFFFFFFFFFFF00FFFFFFFFFFFF00FFBA
:10035000FFFFFFFFFF00FFFFFFFFFFFF00FFFFFFAB
:10036000FFFFFF00FFFFFFFFFFFF00FFFFFFFFFF9B
:10037000FF00FFFFFFFFFFFF00FFFFFFFFFFFF008A
:10038000FFFFFFFFFFFF00FFFFFFFFFFFF00FFFF7B
:10039000FFFFFFFF00FFFFFFFFFFFF00FFFFFFFF6B
:1003A000FFFF00FF0000000000FFFF00004F000003
:1003B00000FF000700070000FF147F147F1400FFF8
:1003C000242A7F2A1200FF231308646200FF3649A3
:1003D00055222000FF000503000000FF001C224101
:1003E0000000FF0041221C0000FF14083E0814001A
:1003F000FF08083E080800FF503000000000FF081A
:100400000808080800FF006060000000FF201008D6
:10041000040200FF3E5149453E00FF40427F4040FC
:1004200000FF426151494600FF2141454B3100FF29
:100430001814127F1000FF274545453900FF3C4A3C
:1004400049493000FF017109050300FF3649494958
:100450003600FF064949291E00FF0036360000001D
:10046000FF005636000000FF081422410000FF1470
:100470001414141400FF004122140800FF0201515B
:10048000090600FF000002050200FF7E1111117E27
:1004900000FF7F4949493600FF3E4141412200FFAC
:1004A0007F4141221C00FF7F4949494100FF7F09EC
:1004B00009090100FF3E4149497A00FF7F08080809
:1004C0007F00FF00417F410000FF2040413F0100CD
:1004D000FF7F0814224100FF7F4040404000FF7F23
:1004E000020C027F00FF7F0408107F00FF3E4141A5
:1004F000413E00FF7F0909090600FF3E4151215E90
:1005000000FF7F0919294600FF264949493200FFAB
:1005100001017F010100FF3F4040403F00FF1F20DD
:1005200040201F00FF3F4038403F00FF6314081485
:100530006300FF070870080700FF61514945430049
:10054000FF007F41410000FF020408102000FF006F
:1005500041417F0000FF040201020400FF404040CF
:10056000404000FF000003050000FF205454547871
:1005700000FF7F4444443800FF384444444400FFB3
:10058000384444447F00FF385454541800FF040496
:100590007E050500FF085454543C00FF7F08040406
:1005A0007800FF00447D4000FFFF2040443D00FFF5
:1005B000FF7F10284400FFFF417F4000FFFFFF7CCA
:1005C000047C047800FF7C0804047800FF3844446D
:1005D000443800FF7C1414140800FF081414147C21
:1005E00000FF7C08040400FFFF485454542400FF1B
:1005F00004043F444400FF3C4040207C00FF1C209A
:1006000040201C00FF3C4030403C00FF44281028A4
:100610004400FF0C5050503C00FF4464544C4400D4
:10062000FF083641410000FF000077000000FF0096
:100630004141360800FF08082A1C0800FF081C2A50
:10064000080800FFFFFFFFFFFF00FF0011241FBE8F
:10065000CFE5D8E0DEBFCDBF13E0A0E6B0E0E8E034
:10066000F9E502C005900D92AA3AB107D9F713E057
:10067000AAEAB3E001C01D92AB3DB107E1F70E94C9
:1006800029170C94822C0C940000DF93CF93CDB7E4
:10069000DEB7F89481E0CF91DF910895DF93CF9397
:1006A00000D0CDB7DEB79A8389838FE590E02981AA
:1006B0003A81F9012081FC0120830F900F90CF91A6
:1006C000DF910895DF93CF93CDB7DEB786E290E058
:1006D00026E230E0F90120812760FC01208387E2D7
:1006E00090E020E4FC01208386E290E026E230E006
:1006F000F90120812868FC01208386E290E026E24F
:1007000030E0F90120812064FC012083CF91DF914A
:1007100008951F920F920FB60F921124EF92FF923D
:100720000F931F932F933F934F935F936F937F93F9
:100730008F939F93AF93BF93EF93FF93DF93CF93E9
:1007400000D000D0CDB7DEB78FE590E0FC0180810E
:100750008C830E9445038B8313C084E290E0FC01EC
:100760008081282F30E085E290E0FC018081882F95
:1007700090E0982F8827822B932B9A8389831B8262
:100780008B81882351F7CE0104960E944E038091FD
:10079000880390918903CC01A0E0B0E0BC01CD01B9
:1007A0000E94F425DC01CB01BC01CD0126E636E632
:1007B00046E65FE30E94AA26DC01CB017C018D01A5
:1007C00089819A81CC01A0E0B0E0BC01CD010E94FA
:1007D000F425DC01CB01BC01CD012DEC3CEC4CEC53
:1007E0005DE30E94AA26DC01CB019C01AD01C8019A
:1007F000B7010E94F824DC01CB01BC01CD010E94AD
:10080000C825DC01CB01909389038093880386E29D
:1008100090E026E230E0F90120812064FC01208391
:100820002496DEBFCDBFCF91DF91FF91EF91BF91B5
:10083000AF919F918F917F916F915F914F913F9178
:100840002F911F910F91FF90EF900F900FBE0F907F
:100850001F9018950F931F93DF93CF93CDB7DEB7FB
:1008600060970FB6F894DEBF0FBECDBF85E390E072
:10087000FC0180818F8784E390E0FC018081888B7C
:1008800087E390E027E330E0F90120812E7FFC012F
:10089000208388E390E028E330E0F90120812E7F77
:1008A000FC01208384E390E0FC01108285E390E06A
:1008B0002FEFFC01208387E390E027E330E0F9018C
:1008C00020812160FC01208388E390E028E330E070
:1008D000F90120812E7FFC01208380E090E0A0E8D8
:1008E000BFE389839A83AB83BC8369817A818B81DF
:1008F0009C8120E030E04AE755E40E94AA26DC0112
:10090000CB018D839E83AF83B88711E06D817E819B
:100910008F81988520E030E040E85FE30E945C250D
:1009200088230CF010E0112329F081E090E09A87F1
:10093000898746C011E06D817E818F81988520E096
:100940003FEF4FE757E40E94A62618160CF010E080
:10095000112361F169817A818B819C8120E030E0F3
:1009600040E251E40E94AA26DC01CB01BC01CD018A
:100970000E94C825DC01CB019A87898712C080E9D3
:1009800091E09C878B878B859C858C01C8010197A2
:10099000F1F78C011C870B8789859A8501979A87C7
:1009A000898789859A85009751F717C06D817E8167
:1009B0008F8198850E94C825DC01CB019A878987A1
:1009C00089859A859E878D878D859E858C01F80106
:1009D0003197F1F78F011E870D8783E390E0FC01CB
:1009E000808180958093C00385E390E02F85FC0192
:1009F000208384E390E02889FC0120838091C00358
:100A000060960FB6F894DEBF0FBECDBFCF91DF91D9
:100A10001F910F910895DF93CF9300D00F92CDB720
:100A2000DEB79A8389836B8389819A81FC019181E6
:100A30008B819817D1F089819A81FC018081823065
:100A4000A0F089819A812B81FC01218389819A817F
:100A5000FC01108289819A81FC018181882341F106
:100A600089819A81FC01818124C089819A81FC015C
:100A700091818B81981789F089819A81FC0180810D
:100A8000823058F489819A81FC018081282F2F5F60
:100A900089819A81FC0120830BC089819A81FC01A4
:100AA00091818B81981721F489819A81FC011082B0
:100AB00080E00F900F900F90CF91DF910895DF931A
:100AC000CF930F92CDB7DEB719820E942A0480938C
:100AD000C0032091C0038AEA93E0622F0E940B05B5
:100AE00089838981882F90E08430910509F491C031
:100AF0008530910564F48130910509F4C5C08230D8
:100B0000910509F4A4C0009709F4DCC0C4C0803189
:100B10009105B9F1813191052CF48830910509F4E2
:100B200053C0B9C080329105B9F08034910509F005
:100B3000B2C08091B503882331F481E08093B5037E
:100B40000E94C821C8C01092B5030E94C82180E647
:100B500090E00E94C227BFC08091B003882309F0B3
:100B6000B3C08091B503843031F481E08093B50344
:100B70000E94C821B0C084E08093B5030E94C821C0
:100B8000AAC08981282F30E000D000D08DB79EB751
:100B9000019647E650E0FC0151834083FC0133831A
:100BA00022830E94AD270F900F900F900F9080919D
:100BB000B003882319F00E94E6188DC081E080936D
:100BC000B0030E94D91787C080910501882351F096
:100BD00084E992E09093A6028093A50280E090E0E1
:100BE0000E945E198981282F30E000D000D08DB797
:100BF0009EB7019640E750E0FC0151834083FC0121
:100C0000338322830E94AD270F900F900F900F9097
:100C100062C08981282F30E000D000D08DB79EB708
:100C2000019649E750E0FC0151834083FC01338386
:100C300022830E94AD270F900F900F900F9080910C
:100C4000B003882309F442C00E944B1844C0898134
:100C5000282F30E000D000D08DB79EB7019642E833
:100C600050E0FC0151834083FC01338322830E94C6
:100C7000AD270F900F900F900F908091B0038823B5
:100C800039F10E94171927C08091B003882311F110
:100C90000E948F1820C08981282F30E000D000D01A
:100CA0008DB79EB701964BE850E0FC01518340831D
:100CB000FC01338322830E94AD270F900F900F9089
:100CC0000F9009C0000007C0000005C0000003C06D
:100CD000000001C000000F90CF91DF910895DF93D5
:100CE000CF93CDB7DEB7F89481E0CF91DF9108952F
:100CF000DF93CF9300D0CDB7DEB79A8389838FE59A
:100D000090E029813A81F9012081FC0120830F9034
:100D10000F90CF91DF910895DF93CF93CDB7DEB7DA
:100D20001092AD031092AC038091A400882399F433
:100D30008BE590E02BE530E0F90120812064FC0197
:100D400020838BE590E02BE530E0F90120812F77BF
:100D5000FC01208312C08BE590E02BE530E0F90127
:100D600020812068FC0120838BE590E02BE530E0BA
:100D7000F90120812F7BFC01208385E590E025E5AA
:100D800030E0F90120812A60FC0120838FE490E0AB
:100D9000FC0110828EE490E025E0FC01208389E5CF
:100DA00090E029E530E0F90120812460FC012083F6
:100DB000CF91DF9108951F920F920FB60F921124D9
:100DC0002F933F934F935F936F937F938F939F9353
:100DD000AF93BF93EF93FF93DF93CF93CDB7DEB77E
:100DE0002091AC033091AD0300D000D08DB79EB7F9
:100DF000019645EB50E0FC0151834083FC013383B5
:100E000022830E94AD270F900F900F900F90CF91EB
:100E1000DF91FF91EF91BF91AF919F918F917F9162
:100E20006F915F914F913F912F910F900FBE0F9057
:100E30001F9018951F920F920FB60F921124EF92E8
:100E4000FF920F931F932F933F934F935F936F9353
:100E50007F938F939F93AF93BF93EF93FF93DF9312
:100E6000CF9300D0CDB7DEB78FE590E0FC01808155
:100E70008A830E946F0689836BC08CE490E0FC013A
:100E8000808191819093C2038093C1038CE490E0B0
:100E9000FC01118210828091C1039091C203893CB0
:100EA000910508F445C08091C1039091C203CC0123
:100EB000A0E0B0E0BC01CD010E94F425DC01CB0133
:100EC000BC01CD012DEC3CEC4CEC5DE30E94AA266C
:100ED000DC01CB017C018D018091A5009091A600E1
:100EE000CC01A0E0B0E0BC01CD010E94F425DC0102
:100EF000CB01BC01CD0126E636E646E65FE30E9463
:100F0000AA26DC01CB019C01AD01C801B7010E94FA
:100F1000F824DC01CB01BC01CD010E94C825DC0115
:100F2000CB019093A6008093A5001092AF030FC051
:100F30008091AF038F5F8093AF038091AF038536BD
:100F400030F01092AF031092A6001092A500198203
:100F50008981882309F091CFCE0102960E947806FC
:100F60008AE590E02AE530E0F90120812068FC0163
:100F700020830F900F90CF91DF91FF91EF91BF9160
:100F8000AF919F918F917F916F915F914F913F9121
:100F90002F911F910F91FF90EF900F900FBE0F9028
:100FA0001F9018951F920F920FB60F921124EF9277
:100FB000FF920F931F932F933F934F935F936F93E2
:100FC0007F938F939F93AF93BF93EF93FF93DF93A1
:100FD000CF9300D0CDB7DEB78FE590E0FC018081E4
:100FE0008A830E946F0689836BC08CE490E0FC01C9
:100FF000808191819093C2038093C1038CE490E03F
:10100000FC01118210828091C1039091C203893C3E
:10101000910508F445C08091A7009091A800CC01EB
:10102000A0E0B0E0BC01CD010E94F425DC01CB01C1
:10103000BC01CD0120E030E040E05FE30E94AA2641
:10104000DC01CB017C018D018091C1039091C20331
:10105000CC01A0E0B0E0BC01CD010E94F425DC0190
:10106000CB01BC01CD0120E030E040E05FE30E9415
:10107000AA26DC01CB019C01AD01C801B7010E9489
:10108000F824DC01CB01BC01CD010E94C825DC01A4
:10109000CB019093A8008093A7001092AF030FC0DC
:1010A0008091AF038F5F8093AF038091AF0385364C
:1010B00030F01092AF031092A8001092A70019828E
:1010C0008981882309F091CFCE0102960E9478068B
:1010D0008AE590E02AE530E0F90120812064FC01F6
:1010E00020830F900F90CF91DF91FF91EF91BF91EF
:1010F000AF919F918F917F916F915F914F913F91B0
:101100002F911F910F91FF90EF900F900FBE0F90B6
:101110001F901895DF93CF93CDB7DEB78BE590E0A6
:101120002BE530E0F90120812F7BFC01208381E059
:1011300090E0A0E0B0E08093A9009093AA00A09373
:10114000AB00B093AC0081E08093A4008BE590E00D
:101150002BE530E0F90120812068FC012083CF914C
:10116000DF910895DF93CF93CDB7DEB78BE590E0A5
:101170002BE530E0F90120812F77FC01208381E00D
:1011800090E0A0E0B0E08093A9009093AA00A09323
:10119000AB00B093AC001092A4008BE590E02BE57F
:1011A00030E0F90120812064FC012083CF91DF91A0
:1011B0000895DF93CF93CDB7DEB728970FB6F89495
:1011C000DEBF0FBECDBF8091A4008130B1F580910C
:1011D000A5009091A600CC01A0E0B0E0BC01CD013B
:1011E0000E94F425DC01CB012091980030919900F8
:1011F00040919A0050919B00BC01CD010E94AA260B
:10120000DC01CB0120919400309195004091960033
:1012100050919700BC01CD010E94F824DC01CB0164
:1012200089839A83AB83BC8369817A818B819C811A
:101230000E94C825DC01CB0135C08091A7009091A8
:10124000A800CC01A0E0B0E0BC01CD010E94F425D3
:10125000DC01CB012091A0003091A1004091A200BF
:101260005091A300BC01CD010E94AA26DC01CB0154
:1012700020919C0030919D0040919E0050919F00D4
:10128000BC01CD010E94F824DC01CB018D839E833B
:10129000AF83B8876D817E818F8198850E94C82534
:1012A000DC01CB01BC01CD0128960FB6F894DEBF5E
:1012B0000FBECDBFCF91DF910895DF93CF9300D0C4
:1012C00000D0CDB7DEB70E94D908DC01CB01BC014C
:1012D000CD010E94F425DC01CB0189839A83AB8385
:1012E000BC8329813A814B815C8160E074E284E7B0
:1012F00099E40E946025DC01CB0189839A83AB834A
:10130000BC8389819A81AB81BC81BC01CD010E94E3
:10131000C825DC01CB01BC01CD010F900F900F90CF
:101320000F90CF91DF910895DF93CF93CDB7DEB7C4
:1013300080E090E00E941D2A21E08230920709F0AF
:1013400066C085ED90E00E94C22782E090E00E9496
:101350000F2A8093AE0387E090E00E94172ADC01F9
:10136000CB0180938A0390938B03A0938C03B0935B
:101370008D038BE090E00E94172ADC01CB01809363
:101380008E0390938F03A0939003B093910383E017
:1013900090E00E941D2ACC01A0E0B0E02CE330E0F8
:1013A00040E050E0BC01CD010E940D27DC01CB01E3
:1013B0008093CD009093CE00A093CF00B093D00047
:1013C00085E090E00E940F2A482F50E02CE330E0A7
:1013D000429FC001439F900D529F900D1124909306
:1013E000D2008093D10086E090E00E940F2A482F1F
:1013F00050E02CE330E0429FC001439F900D529F8C
:10140000900D11249093D4008093D30006C082EEF7
:1014100090E00E94C2270E94100ACF91DF910895A8
:10142000DF93CF93CDB7DEB780E090E062E071E06C
:101430000E94382A82E090E060E00E94232A83E044
:1014400090E068EA7FE20E94382A87E090E040E07E
:1014500050E0BA010E94302A8BE090E040E050E07A
:1014600060E47FE30E94302A85E090E06FE00E9414
:10147000232A86E090E064E10E94232ACF91DF9145
:101480000895DF93CF93CDB7DEB72091AE0382E00E
:1014900090E0622F0E94232ACF91DF910895DF937D
:1014A000CF9300D0CDB7DEB78091CD009091CE0024
:1014B000A091CF00B091D0002CE330E040E050E0AC
:1014C000BC01CD010E944027DA01C9019A838983BA
:1014D00083E090E029813A81B9010E94382A0F9077
:1014E0000F90CF91DF910895DF93CF93CDB7DEB703
:1014F00020918A0330918B0340918C0350918D038E
:1015000087E090E0BA01A9010E94302A20918E0361
:1015100030918F0340919003509191038BE090E0C4
:10152000BA01A9010E94302ACF91DF910895DF937B
:10153000CF93CDB7DEB78091D1009091D2002CE34C
:1015400030E0B9010E942C279B01C901282F85E0BA
:1015500090E0622F0E94232ACF91DF910895DF93BC
:10156000CF93CDB7DEB78091D3009091D4002CE318
:1015700030E0B9010E942C279B01C901282F86E089
:1015800090E0622F0E94232ACF91DF910895DF938C
:10159000CF93CDB7DEB785E090E00E940F2A482FA9
:1015A00050E02CE330E0429FC001439F900D529FDA
:1015B000900D11249093D2008093D100CF91DF91B0
:1015C0000895DF93CF93CDB7DEB786E090E00E9419
:1015D0000F2A482F50E02CE330E0429FC001439F88
:1015E000900D529F900D11249093D4008093D300BE
:1015F000CF91DF9108950F931F93DF93CF93CDB7D2
:10160000DEB72E970FB6F894DEBF0FBECDBF8AE3CC
:1016100090E02AE330E0F9012081206FFC01208373
:1016200084E390E0FC01808184E390E02FEFFC01F3
:10163000208387E390E027E330E0F90120812260F6
:10164000FC0120830E945B168FE30E940C120E9413
:1016500042168FE30E940C1280E090E0A0E2B1E419
:1016600089839A83AB83BC8369817A818B819C81D6
:1016700020E030E04AE753E40E94AA26DC01CB01D7
:101680008D839E83AF83B88711E06D817E818F81CA
:10169000988520E030E040E85FE30E945C258823E5
:1016A0000CF010E0112329F081E090E09A878987FF
:1016B00046C011E06D817E818F81988520E03FEFEB
:1016C0004FE757E40E94A62618160CF010E01123ED
:1016D00061F169817A818B819C8120E030E040E278
:1016E00051E40E94AA26DC01CB01BC01CD010E947D
:1016F000C825DC01CB019A87898712C089E190E077
:101700009C878B878B859C858C01C8010197F1F79D
:101710008C011C870B8789859A8501979A87898711
:1017200089859A85009751F717C06D817E818F81D9
:1017300098850E94C825DC01CB019A878987898515
:101740009A859E878D878D859E858C01F8013197BE
:10175000F1F78F011E870D870E945B1680EC0E94B7
:101760000C120E94421680EC0E940C120E94CA0BBE
:1017700083E00E94810C80EF90E00E94210D2E9664
:101780000FB6F894DEBF0FBECDBFCF91DF911F9192
:101790000F910895DF93CF9300D00F92CDB7DEB7AE
:1017A0008091C6038B831092C603198217C089816A
:1017B0000E94810C1A820CC08A81803419F481E065
:1017C0000E945B0C80E00E9424138A818F5F8A83D1
:1017D0008A8188238CF789818F5F8983898188300A
:1017E00030F38B818093C60380E00E94810C0F90C0
:1017F0000F900F90CF91DF910895DF93CF9300D09A
:101800000F92CDB7DEB789836A834B8389818823A2
:1018100019F08981813009F58A818830F0F48B8153
:101820008034D8F48981882319F40E945B1602C0A1
:101830000E94421689818093C3038A81886B8093BA
:10184000C4038B8180648093C5038091C5030E948B
:101850000C128091C4030E940C120F900F900F90F5
:10186000CF91DF910895DF93CF9300D000D000D0C7
:10187000CDB7DEB79A8389837C836B835E834D8388
:101880002091C30389819A81FC0120832091C403A4
:101890008B819C81FC0120832091C5038D819E81D9
:1018A000FC01208326960FB6F894DEBF0FBECDBF95
:1018B000CF91DF910895DF93CF930F92CDB7DEB72D
:1018C00089838981882319F089818130B1F48981E4
:1018D000882319F40E945B1602C00E944216898177
:1018E0008093C30380E48093C5038091C4030E9466
:1018F0000C128091C5030E940C120F90CF91DF91C2
:101900000895DF93CF930F92CDB7DEB78983898196
:10191000883038F4898188548093C40380E00E9421
:101920005B0C0F90CF91DF910895DF93CF93CDB7EC
:10193000DEB78091C4038F5F8093C4038091C4039A
:10194000803C18F088EB8093C40380E00E945B0C1D
:10195000CF91DF910895DF93CF93CDB7DEB78FEFAF
:101960008093C603CF91DF910895DF93CF93CDB7D6
:10197000DEB71092C603CF91DF9108951F93DF93D6
:10198000CF93CDB7DEB727970FB6F894DEBF0FBE63
:10199000CDBF8F838091C303813021F48091C50333
:1019A0008C3718F48F818A3011F40E94950C8F8146
:1019B0008A3009F43CC024EC32E08F81882F90E01B
:1019C000AC01440F551F440F551F440F551FBA015A
:1019D000681B790BCB01820F931F9A8389838091B7
:1019E000C303882339F48091C503803819F481E05A
:1019F0000E945B0C89819A819C838B8389819A8167
:101A000001969A8389838B819C81FC0114911D83AB
:101A10008D818E838E818F3F49F08E810E942413A9
:101A20008091C5038F5F8093C503D9CF00002796AF
:101A30000FB6F894DEBF0FBECDBFCF91DF911F91DF
:101A40000895DF93CF9300D0CDB7DEB79A83898313
:101A50000CC089819A81FC01208189819A8101963B
:101A60009A838983822F0E94BE0C89819A81FC010E
:101A70008081882371F70F900F90CF91DF910895A7
:101A80000F931F93DF93CF93CDB7DEB760970FB659
:101A9000F894DEBF0FBECDBF6C877D878E879F8792
:101AA000488B19828C859D85AE85BF850097A105E1
:101AB000B105C1F419820DC08981882F90E09E0183
:101AC0002E5F3F4F820F931FFC01108289818F5F31
:101AD000898399818889981708F061C089818A3043
:101AE00058F35DC0198244C08C859D85AE85BF8545
:101AF0000097A105B10549F18981082F10E08C8577
:101B00009D85AE85BF852AE030E040E050E0BC0115
:101B1000CD010E944027DC01CB01282FCE01029687
:101B2000800F911FFC0120838C859D85AE85BF852C
:101B30002AE030E040E050E0BC01CD010E944027A7
:101B40002C873D874E875F8710C088898F3F39F18A
:101B500088898B3020F58981882F90E09E012E5F47
:101B60003F4F820F931FFC01108289818F5F898311
:101B700099818889981708F4B7CF11C08981882F77
:101B800090E001979E012E5F3F4F820F931FFC0153
:101B90008081805D0E94BE0C89818150898389810A
:101BA000882361F760960FB6F894DEBF0FBECDBFF5
:101BB000CF91DF911F910F910895DF93CF93CDB710
:101BC000DEB760970FB6F894DEBF0FBECDBF6C874F
:101BD0007D878E879F87488B19828C859D85AE85F2
:101BE000BF850097A105B105C1F419820DC0898197
:101BF000882F90E09E012E5F3F4F820F931FFC01C4
:101C0000108289818F5F898399818889981708F06C
:101C100072C089818A3058F36EC019823BC08C85AE
:101C20009D85AE85BF850097A105B105F1F089813D
:101C3000882F90E02C85422F4F709E012E5F3F4FE2
:101C4000820F931FFC0140838C859D85AE85BF85E7
:101C5000689413F8B695A795979587951694D1F73C
:101C60008C879D87AE87BF8712C088898F3F09F414
:101C700042C088898B3008F03EC08981882F90E06F
:101C80009E012E5F3F4F820F931FFC0110828981BE
:101C90008F5F898399818889981708F4C0CF2BC0FA
:101CA0008981882F90E001979E012E5F3F4F820F20
:101CB000931FFC0180818A3068F08981882F90E031
:101CC00001979E012E5F3F4F820F931FFC01808181
:101CD000895C0CC08981882F90E001979E012E5F5E
:101CE0003F4F820F931FFC018081805D0E94BE0CDC
:101CF0008981815089838981882391F660960FB606
:101D0000F894DEBF0FBECDBFCF91DF910895DF9372
:101D1000CF9300D000D000D0CDB7DEB76A837B83ED
:101D20008C839D834E8328C08E81882F90E09C01F8
:101D30002150304081E090E002C0880F991F2A9521
:101D4000E2F79C01442737FD4095542F8A819B81FF
:101D5000AC81BD8182239323A423B52321E0009786
:101D6000A105B10509F420E029838981805D0E94E5
:101D7000BE0C8E8181508E838E818823A9F6269693
:101D80000FB6F894DEBF0FBECDBFCF91DF9108959F
:101D9000DF93CF93CDB7DEB728970FB6F894DEBFA9
:101DA0000FBECDBF6D837E838F8398876D817E81CB
:101DB0008F8198850E94C825DC01CB0189839A8395
:101DC000AB83BC8389819A81AB81BC81BC01CD018D
:101DD0004FEF0E94400D8EE20E94BE0C69817A8115
:101DE0008B819C810E94F4259B01AC016D817E81D9
:101DF0008F8198850E94F724DC01CB018D839E831F
:101E0000AF83B8876D817E818F81988520E034E231
:101E100044E759E40E94AA26DC01CB01BC01CD01B4
:101E20000E94C825DC01CB0189839A83AB83BC83E4
:101E300089819A81AB81BC81BC01CD014FEF0E94A9
:101E4000400D28960FB6F894DEBF0FBECDBFCF91E0
:101E5000DF910895DF93CF93CDB7DEB768970FB6C4
:101E6000F894DEBF0FBECDBFCE014F96988F8F8BFB
:101E70008D8D9E8D9A838983BEC189819A81FC0153
:101E8000808189878985853209F0ADC189819A81F0
:101E900001969A83898389819A81FC01808189874F
:101EA0008985803300F189858A33E8F41A8614C065
:101EB0008A85880F982F990F990F980F8985890F18
:101EC00080538A8789819A8101969A83898389813F
:101ED0009A81FC01808189878985803338F08985E2
:101EE0008A3330F304C08FEF8A8701C000008985F0
:101EF000882F90E08835910509F4F1C08935910566
:101F000004F58434910509F470C08534910564F4B6
:101F10008234910509F419C1833491058CF5853219
:101F2000910509F45CC162C18335910509F445C18D
:101F30008535910509F4A2C08634910509F424C1C0
:101F400055C18636910509F41FC1873691055CF4A9
:101F500083369105A9F08436910509F18236910501
:101F600009F4D7C043C18537910509F470C088379B
:101F7000910509F49DC08337910509F41EC136C14E
:101F80008F89988D9C012E5F3F4F388F2F8BFC01DE
:101F900080819181898789850E94BE0C27C18F89A4
:101FA000988D9C012E5F3F4F388F2F8BFC018081D5
:101FB00091819C838B838B819C81992354F48B81A9
:101FC0009C81909581959F4F9C838B838DE20E948D
:101FD000BE0C8B819C81AA2797FDA095BA2FBC01CE
:101FE000CD014A850E94400D01C18F89988D9C01C9
:101FF0002C5F3F4F388F2F8BFC0180819181A28114
:10200000B3818D839E83AF83B8878D819E81AF819D
:10201000B885BB2394F48D819E81AF81B885B0953E
:10202000A095909581959F4FAF4FBF4F8D839E8315
:10203000AF83B8878DE20E94BE0C8D819E81AF81F7
:10204000B885BC01CD014A850E94400DCFC08F8963
:10205000988D9C012E5F3F4F388F2F8BFC01808124
:1020600091819C878B878B859C85CC01A0E0B0E01B
:10207000BC01CD014A850E94400DB8C08F89988D62
:102080009C012C5F3F4F388F2F8BFC018081918109
:10209000A281B3818D879E87AF87B88B8D859E8502
:1020A000AF85B889BC01CD014A850E94400D9EC014
:1020B0008F89988D9C012E5F3F4F388F2F8BFC01AD
:1020C000808191819C878B878B859C85CC01A0E04A
:1020D000B0E0BC01CD014A850E94DD0D87C08F892B
:1020E000988D9C012C5F3F4F388F2F8BFC01808196
:1020F0009181A281B3818D879E87AF87B88B8D85B3
:102100009E85AF85B889BC01CD014A850E94DD0D51
:102110006DC08F89988D9C012E5F3F4F388F2F8B1C
:10212000FC01808191819C878B878A858F3F11F488
:1021300080E18A878B859C85CC01A0E0B0E0BC0162
:10214000CD014A850E94870E51C08F89988D9C01D0
:102150002C5F3F4F388F2F8BFC0180819181A281B2
:10216000B3818D879E87AF87B88B8A858F3F11F4A7
:1021700080E18A878D859E85AF85B889BC01CD01B8
:102180004A850E94870E32C08F89988D9C012C5FF2
:102190003F4F388F2F8BFC0180819181A281B381C9
:1021A000898B9A8BAB8BBC8B89899A89AB89BC89CB
:1021B000BC01CD010E94C80E19C08F89988D9C0169
:1021C0002E5F3F4F388F2F8BFC01808191819E8B3A
:1021D0008D8B8D899E890E94210D000007C085E2AC
:1021E0000E94BE0C03C089850E94BE0C89819A8121
:1021F00001969A83898389819A81FC018081882351
:1022000009F03BCE68960FB6F894DEBF0FBECDBF87
:10221000CF91DF910895DF93CF9300D0CDB7DEB794
:10222000198216C089810E94810C1A820BC08A8192
:10223000803411F40E94421680E00E9424138A81A7
:102240008F5F8A838A81882394F789818F5F89834E
:102250008981883038F380E00E94810C0F900F90C4
:10226000CF91DF910895DF93CF93CDB7DEB7299754
:102270000FB6F894DEBF0FBECDBF8887698788850B
:10228000843008F06FC08985853608F06BC088857A
:102290008295880F807E8B838B81803410F41D8221
:1022A00005C081E08D838B8180548B838B81982F37
:1022B000985F8D8160E0492F0E94FD0B8985882FF2
:1022C00090E0A0E0B0E0BC01CD0143E00E94400DF1
:1022D00089858695898789858695869586958E8355
:1022E00097E08E81292F281B822F8F8381E089839D
:1022F00036C08B81982F945F8D816981492F0E9410
:10230000FD0B99818F81981710F41C821AC0998156
:102310008F819817A1F4898587708C838C81882F91
:1023200090E028E030E0281B390B8FEF90E0022E80
:1023300002C0880F991F0A94E2F78C8302C08FEFC6
:102340008C831A8206C08C810E9424138A818F5F3D
:102350008A838A818C30B8F389818F5F89838981F0
:10236000883038F229960FB6F894DEBF0FBECDBF85
:10237000CF91DF910895DF93CF9300D000D0CDB7F8
:10238000DEB78B836C838B81880F8F5F8A838B8111
:102390008430D8F58C818536C0F580E06A8140E0D4
:1023A0000E94FD0B19820CC08981803419F481E0F0
:1023B0000E945B0C8FEF0E94241389818F5F8983B9
:1023C00099818C81981780F38C8189830CC08981D5
:1023D000803419F481E00E945B0C80E00E94241399
:1023E00089818F5F89838981843688F381E06A815E
:1023F0004EE60E94FD0B8C81882F90E0A0E0B0E0BB
:10240000BC01CD0143E00E94400D0F900F900F9052
:102410000F90CF91DF9108950F931F93DF93CF9388
:10242000CDB7DEB769970FB6F894DEBF0FBECDBF4C
:10243000898F0E943F1485E390E0298DFC01208361
:102440008BE390E02BE330E0F90120812F77FC0152
:1024500020838BE390E02BE330E0F90120812F7B98
:10246000FC0120838BE390E02BE330E0F901208135
:102470002062FC01208380E090E0A0E0B0E489834A
:102480009A83AB83BC8369817A818B819C812BEA9F
:102490003AEA4AEA5EE30E94AA26DC01CB018D8378
:1024A0009E83AF83B88711E06D817E818F8198858F
:1024B00020E030E040E85FE30E945C2588230CF0D8
:1024C00010E0112319F081E08987A3C011E06D812C
:1024D0007E818F81988520E030E04FE753E40E94B1
:1024E000A62618160CF010E0112309F489C06981A2
:1024F0007A818B819C8120E030E04AE754E40E949D
:102500006025DC01CB018A879B87AC87BD876A8504
:102510007B858C859D8520E030E04AE753E40E946E
:10252000AA26DC01CB018E879F87A88BB98B11E08F
:102530006E857F858889998920E030E040E85FE3F7
:102540000E945C2588230CF010E0112329F081E023
:1025500090E09B8B8A8B46C011E06E857F858889D1
:10256000998920E03FEF4FE757E40E94A62618160E
:102570000CF010E0112361F16A857B858C859D85C7
:1025800020E030E040E251E40E94AA26DC01CB01C9
:10259000BC01CD010E94C825DC01CB019B8B8A8B3D
:1025A00012C089E190E09D8B8C8B8C899D898C0178
:1025B000C8010197F1F78C011D8B0C8B8A899B89CF
:1025C00001979B8B8A8B8A899B89009751F728C03A
:1025D0006E857F85888999890E94C825DC01CB0199
:1025E0009B8B8A8B8A899B899F8B8E8B8E899F89F7
:1025F0008C01F8013197F1F78F011F8B0E8B10C002
:102600006D817E818F8198850E94C825DC01CB0178
:1026100089878985888F888D182F1A95F1F7188FEB
:102620008BE390E02BE330E0F90120812F7DFC016A
:10263000208369960FB6F894DEBF0FBECDBFCF9151
:10264000DF911F910F9108950F931F93DF93CF9305
:10265000CDB7DEB769970FB6F894DEBF0FBECDBF1A
:10266000898F0E943F1485E390E03091C603298D45
:102670002327FC0120838BE390E02BE330E0F9017A
:1026800020812068FC0120838BE390E02BE330E085
:10269000F90120812F7BFC0120838BE390E02BE369
:1026A00030E0F90120812062FC01208380E090E08D
:1026B000A0E0B0E489839A83AB83BC8369817A818B
:1026C0008B819C812BEA3AEA4AEA5EE30E94AA26C1
:1026D000DC01CB018D839E83AF83B88711E06D81D0
:1026E0007E818F81988520E030E040E85FE30E94A2
:1026F0005C2588230CF010E0112319F081E0898714
:10270000A3C011E06D817E818F81988520E030E04B
:102710004FE753E40E94A62618160CF010E0112390
:1027200009F489C069817A818B819C8120E030E045
:102730004AE754E40E946025DC01CB018A879B872D
:10274000AC87BD876A857B858C859D8520E030E0E0
:102750004AE753E40E94AA26DC01CB018E879F87BB
:10276000A88BB98B11E06E857F858889998920E0D7
:1027700030E040E85FE30E945C2588230CF010E025
:10278000112329F081E090E09B8B8A8B46C011E0F9
:102790006E857F858889998920E03FEF4FE757E470
:1027A0000E94A62618160CF010E0112361F16A852C
:1027B0007B858C859D8520E030E040E251E40E94DD
:1027C000AA26DC01CB01BC01CD010E94C825DC0199
:1027D000CB019B8B8A8B12C089E190E09D8B8C8B07
:1027E0008C899D898C01C8010197F1F78C011D8BA3
:1027F0000C8B8A899B8901979B8B8A8B8A899B8901
:10280000009751F728C06E857F85888999890E9435
:10281000C825DC01CB019B8B8A8B8A899B899F8B86
:102820008E8B8E899F898C01F8013197F1F78F018A
:102830001F8B0E8B10C06D817E818F8198850E94C9
:10284000C825DC01CB0189878985888F888D182F61
:102850001A95F1F7188F8BE390E02BE330E0F90144
:1028600020812F7DFC01208369960FB6F894DEBF8E
:102870000FBECDBFCF91DF911F910F9108950F93A0
:102880001F93DF93CF93CDB7DEB7E1970FB6F894E0
:10289000DEBF0FBECDBF84E390E024E330E0F9015A
:1028A00020812F77FC0120838BE390E02BE330E045
:1028B000F90120812F77FC0120838BE390E02BE34B
:1028C00030E0F90120812064FC0120838BE390E05B
:1028D0002BE330E0F90120812F7DFC01208380E093
:1028E00090E0A0E0B0E48A839B83AC83BD836A81DF
:1028F0007B818C819D812BEA3AEA4AEA5EE30E9461
:10290000AA26DC01CB018E839F83A887B98711E0BB
:102910006E817F818885998520E030E040E85FE323
:102920000E945C2588230CF010E0112319F081E04F
:102930008A87A3C011E06E817F818885998520E018
:1029400030E04FE753E40E94A62618160CF010E082
:10295000112309F489C06A817B818C819D8120E0EB
:1029600030E04AE754E40E946025DC01CB018B870C
:102970009C87AD87BE876B857C858D859E8520E095
:1029800030E04AE753E40E94AA26DC01CB018F879E
:10299000988BA98BBA8B11E06F85788989899A8980
:1029A00020E030E040E85FE30E945C2588230CF0E3
:1029B00010E0112329F081E090E09C8B8B8B46C0C6
:1029C00011E06F85788989899A8920E03FEF4FE788
:1029D00057E40E94A62618160CF010E0112361F1AE
:1029E0006B857C858D859E8520E030E040E251E45A
:1029F0000E94AA26DC01CB01BC01CD010E94C825A2
:102A0000DC01CB019C8B8B8B12C089E190E09E8B0B
:102A10008D8B8D899E898C01C8010197F1F78C01FE
:102A20001E8B0D8B8B899C8901979C8B8B8B8B8943
:102A30009C89009751F728C06F85788989899A8980
:102A40000E94C825DC01CB019C8B8B8B8B899C89D8
:102A5000988F8F8B8F89988D8C01F8013197F1F7C2
:102A60008F01188F0F8B10C06E817F8188859985AB
:102A70000E94C825DC01CB018A878A85898F898DD0
:102A8000182F1A95F1F7198F8BE390E02BE330E0C4
:102A9000F90120812062FC01208380E090E0A0E029
:102AA000B0E48A8F9B8FAC8FBD8F6A8D7B8D8C8DB0
:102AB0009D8D2BEA3AEA4AEA5EE30E94AA26DC01EF
:102AC000CB018E8F9F8FA8A3B9A311E06E8D7F8D50
:102AD00088A199A120E030E040E85FE30E945C25F6
:102AE00088230CF010E0112319F081E08AA3A3C021
:102AF00011E06E8D7F8D88A199A120E030E04FE735
:102B000053E40E94A62618160CF010E0112309F4D5
:102B100089C06A8D7B8D8C8D9D8D20E030E04AE7E9
:102B200054E40E946025DC01CB018BA39CA3ADA3E0
:102B3000BEA36BA17CA18DA19EA120E030E04AE75D
:102B400053E40E94AA26DC01CB018FA398A7A9A772
:102B5000BAA711E06FA178A589A59AA520E030E079
:102B600040E85FE30E945C2588230CF010E011230D
:102B700029F081E090E09CA78BA746C011E06FA1EF
:102B800078A589A59AA520E03FEF4FE757E40E947A
:102B9000A62618160CF010E0112361F16BA17CA1A0
:102BA0008DA19EA120E030E040E251E40E94AA26DF
:102BB000DC01CB01BC01CD010E94C825DC01CB01A9
:102BC0009CA78BA712C089E190E09EA78DA78DA539
:102BD0009EA58C01C8010197F1F78C011EA70DA7D6
:102BE0008BA59CA501979CA78BA78BA59CA500975F
:102BF00051F728C06FA178A589A59AA50E94C8257C
:102C0000DC01CB019CA78BA78BA59CA598AB8FA7BC
:102C10008FA598A98C01F8013197F1F78F0118ABB6
:102C20000FA710C06E8D7F8D88A199A10E94C82525
:102C3000DC01CB018AA38AA189AB89A9182F1A9537
:102C4000F1F719AB83E390E0FC018081881F8827AE
:102C5000881F89838981882309F038CE84E390E036
:102C600024E330E0F90120812068FC012083E19613
:102C70000FB6F894DEBF0FBECDBFCF91DF911F918D
:102C80000F910895DF93CF93CDB7DEB78BE390E03C
:102C90002BE330E0F90120812061FC01208388E3EF
:102CA00090E028E330E0F90120812D7FFC012083B2
:102CB000CF91DF910895DF93CF93CDB7DEB788E34F
:102CC00090E028E330E0F90120812260FC012083BC
:102CD0008BE390E02BE330E0F90120812F7EFC01B3
:102CE0002083CF91DF910895EF92FF920F931F936E
:102CF000DF93CF93CDB7DEB72B970FB6F894DEBF37
:102D00000FBECDBF8B878091C5038C838091C40398
:102D10008B831A8624E530E08B85682F70E040E3D2
:102D200050E0649FC001659F900D749F900D112429
:102D3000820F931F9A83898301C000008A858F5F69
:102D40008A8789819A819E838D8389819A81019660
:102D50009A8389838D819E818C01F801E590F4909E
:102D60008F01F886EF821E830D838F819885898776
:102D700089850E9424138A85803370F48A858F7038
:102D80008823D9F68B818F5F8B838C810E940C12F4
:102D90008B810E940C12D2CF00002B960FB6F894B4
:102DA000DEBF0FBECDBFCF91DF911F910F91FF907E
:102DB000EF900895DF93CF93CDB7DEB781E062E067
:102DC00040E30E94FD0B8BE00E947416CF91DF91CF
:102DD0000895DF93CF93CDB7DEB781E062E040E3A3
:102DE0000E94FD0B8CE00E947416CF91DF91089534
:102DF000DF93CF93CDB7DEB787E390E027E330E0F2
:102E0000F90120812F79FC01208388E390E028E3F9
:102E100030E0F90120812066FC012083CF91DF9111
:102E20000895DF93CF93CDB7DEB786E390E0FC0142
:102E300080818072CF91DF910895DF93CF93CDB7DA
:102E4000DEB786E390E0FC0180818074CF91DF9152
:102E50000895DF93CF9300D0CDB7DEB778940E946A
:102E60005E200E94FB0A0E9440200E9462030E9492
:102E70005E240E948C060E94D6230E940E210E948E
:102E8000940980910101909102010E94B7201A8259
:102E9000198207C00E945F0589819A8101969A83F1
:102EA000898389819A8121E0843F920798F3109267
:102EB00005010CC00E945F058091BE03882331F09C
:102EC0001092BE0380E090E00E945E198091B103F1
:102ED000882381F701C000000E945F058091BE0336
:102EE0008823C9F38091CD039091CE03A091CF03A5
:102EF000B091D0030097A105B10599F08091CD0361
:102F00009091CE03A091CF03B091D0030197A10976
:102F1000B1098093CD039093CE03A093CF03B093D8
:102F2000D0038091BA039091BB03A091BC03B091F0
:102F3000BD030097A105B10599F08091BA03909166
:102F4000BB03A091BC03B091BD030197A109B109D6
:102F50008093BA039093BB03A093BC03B093BD03CB
:102F60001092BE030E941B218091B003882321F49C
:102F70000E9404200E945E1D809102018295869528
:102F8000869583708170982F81E089278170817088
:102F90008295880F880F807C909102019F7B892BFE
:102FA0008093020180910101909102010E94B7205B
:102FB00093CFDF93CF930F92CDB7DEB70E94CA0BAA
:102FC00080E00E94810C8091A5029091A602FC01F4
:102FD000828193810E94210D198255C02091A50202
:102FE0003091A6028981882F90E0880F991F820F67
:102FF000931F0596FC0180819181009709F43FC0E1
:103000008091A5029091A602FC0194818981981774
:10301000E9F40E94AB0C89818E5F0E94810C2091A3
:10302000A5023091A6028981882F90E0880F991F10
:10303000820F931F0596FC0180819181FC018281A2
:1030400093810E94210D0E94B50C1AC089818E5F68
:103050000E94810C2091A5023091A6028981882FBF
:1030600090E0880F991F820F931F0596FC018081C5
:103070009181FC01828193810E94210D01C0000099
:1030800089818F5F89838981853008F4A7CF0F906C
:10309000CF91DF910895DF93CF930F92CDB7DEB735
:1030A0008091B403882329F082E090E00E945E19A9
:1030B00032C08091A5029091A602FC0124812F5F6D
:1030C000FC012483FC01848189832091A502309135
:1030D000A6028981882F90E0880F991F820F931F85
:1030E0000596FC0180819181009731F48091A502C1
:1030F0009091A602FC01148200D08DB79EB7019674
:1031000027EA32E0FC01318320830E94AD270F9033
:103110000F900E94D9170F90CF91DF910895DF9300
:10312000CF9300D0CDB7DEB78091B403882329F0C8
:1031300081E090E00E945E1944C08091A5029091C8
:10314000A602FC0184818A838A810E948F248A815D
:10315000882369F5198227C02091A5023091A60223
:103160008981882F90E0880F991F820F931F059601
:10317000FC0180819181009799F48091A502909142
:10318000A60229812150FC0124838091A5029091FF
:10319000A602FC0184810E948F240E94D91711C0CD
:1031A00089818F5F898389818530B0F20AC08091DF
:1031B000A5029091A6022A812150FC0124830E943D
:1031C000D9170F900F90CF91DF910895DF93CF9390
:1031D000CDB7DEB78091B403882329F084E090E076
:1031E0000E945E1921C08091A5029091A602FC0167
:1031F00080819181009771F08091A5029091A60243
:10320000FC01808191819093A6028093A5020E9487
:10321000D9170AC01092B0030E94CA0B0E945E1D0B
:103220000E94991F0E940420CF91DF910895DF939F
:10323000CF930F92CDB7DEB78091B403882329F0E6
:1032400083E090E00E945E1935C08091A5029091C4
:10325000A602FC01848189832091A5023091A602F7
:103260008981882F90E0880F991F820F931F059600
:10327000FC0180819181FC01858196810097B1F0EC
:103280002091A5023091A6028981882F90E0880FB5
:10329000991F820F931F0596FC0180819181909365
:1032A000A6028093A5020E94D91704C080E090E096
:1032B0000E945E190F90CF91DF910895EF92FF92D7
:1032C0000F931F93DF93CF9300D0CDB7DEB79A83D0
:1032D00089838091A5029091A602FC01228133810D
:1032E00000D000D08DB79EB701964BEA52E0FC01AA
:1032F00051834083FC01338322830E94AD270F90CA
:103300000F900F900F908091A5029091A602F2E08D
:1033100084399F0709F0E7C08091B403882F90E0BB
:103320008130910599F18230910509F46CC00097C4
:1033300009F006C381EB92E00E94C22781E08093EE
:10334000B0030E94CA0B80E00E94810C85EB92E0E2
:103350000E94210D86E00E94810C8BEC92E00E947D
:10336000210D87E00E94810C83EE92E00E94210DE6
:1033700080E063E048E20E94FD0B0E94E82281E0C9
:103380008093B40381E08093B103E7C28CEE92E0B6
:103390000E94C22780E063E048E20E94FD0B0E9489
:1033A000E82289819A818330910509F0CBC20E947D
:1033B000AB229093B3038093B2030E94CA0B80E0C8
:1033C0000E94810C85EB92E00E94210D86E00E9414
:1033D000810C80EF92E00E94210D87E00E94810C19
:1033E00088E093E00E94210D80E063E048E20E94C3
:1033F000FD0B8091B2039091B3030E94602382E0A1
:103400008093B403AAC289819A8182309105E1F048
:103410008330910579F18130910509F095C2809151
:10342000B2039091B30301969093B3038093B203D8
:1034300080E063E048E20E94FD0B8091B20390912E
:10344000B3030E94602389C28091B2039091B303B9
:1034500001979093B3038093B20380E063E048E266
:103460000E94FD0B8091B2039091B3030E946023F0
:10347000000073C2E0908A03F0908B0300918C03EC
:1034800010918D030E94AB229C018091B203909118
:10349000B303A901481B590BCA01CC01A0E0B0E05D
:1034A000BC01CD010E94F4259B01AC01C801B7010C
:1034B0000E94F724DC01CB0180938A0390938B0355
:1034C000A0938C03B0938D031092B4031092B003B9
:1034D0001092B1038DE692E09093A6028093A5022C
:1034E0000E94CA0B3AC28091A5029091A60252E0B6
:1034F0008035950709F580E99AE0ABE0B0E080936C
:10350000CD009093CE00A093CF00B093D000109246
:10351000B0038DE692E09093A6028093A5020E94EC
:10352000CA0B0E945E1D0E94991F0E9404208BE11D
:1035300093E00E94C22711C28091A5029091A60239
:10354000E2E08D309E07E1F58091A5029091A60200
:10355000FC0184818823A9F41092B0031092AE0379
:103560008DE692E09093A6028093A5020E94410A04
:103570000E94CA0B0E945E1D0E94991F0E94042097
:10358000ECC18091A5029091A602FC01848181305A
:1035900009F0E3C181E08093AE031092B0038DE6A1
:1035A00092E09093A6028093A5020E94410A0E9495
:1035B000CA0B0E945E1D0E94991F0E940420CDC16B
:1035C0008091A5029091A602F2E088329F0709F04F
:1035D000C4C18091A5029091A602FC018481813032
:1035E00009F0CAC08091B403882F90E0009729F0B9
:1035F0008130910509F441C0B0C10E94CA0B80E03E
:103600000E94810C8091A5029091A602FC01878105
:103610009085FC01828193810E94210D86E00E94A9
:10362000810C80EF92E00E94210D87E00E94810CC6
:103630008DE293E00E94210D81E063E045E00E946D
:10364000FD0B00D08DB79EB7019622E433E0FC015C
:10365000318320830E942A0F0F900F9080E063E057
:1036600048E20E94FD0B8091D1009091D2000E940F
:10367000B61C81E08093B40370C189819A81823045
:10368000910581F18330910524F48130910551F049
:1036900064C18330910509F444C08430910509F474
:1036A00056C05BC18091D1009091D200F8E3803484
:1036B0009F0708F04BC18091D1009091D2000696EF
:1036C0009093D2008093D10080E063E048E20E94B2
:1036D000FD0B1092AB038091D1009091D2000E941B
:1036E000B61C3BC18091D1009091D2008C339105E2
:1036F00008F42EC18091D1009091D2000A97909346
:10370000D2008093D10080E063E048E20E94FD0B8C
:103710001092AB038091D1009091D2000E94B61C10
:103720001CC10E94AF0A1092B4031092B0038DE640
:1037300092E09093A6028093A5020E94CA0B0E9479
:103740005E1D0E94991F0E940420000006C10E9475
:10375000C70A1092B4031092B0038DE692E09093E2
:10376000A6028093A5020E94CA0B0E945E1D0E94C1
:10377000991F0E940420F1C08091A5029091A60299
:10378000FC018481823009F0E8C08091B403882F65
:1037900090E0009729F08130910509F44CC0DDC01C
:1037A0000E94CA0B80E00E94810C8091A50290913A
:1037B000A602FC0187819085FC01828193810E9491
:1037C000210D86E00E94810C80EF92E00E94210D85
:1037D00087E00E94810C89E493E00E94210D81E042
:1037E00067E044E10E94FD0B8091D1009091D200EE
:1037F0000E94B61C81E063E045E00E94FD0B00D012
:103800008DB79EB7019622E433E0FC01318320831B
:103810000E942A0F0F900F9080E063E048E20E9420
:10382000FD0B8091D3009091D4000E94B61C81E0E2
:103830008093B40392C089819A8182309105B1F15D
:103840008330910524F48130910551F086C0833096
:10385000910509F44AC08430910509F45BC07DC02C
:103860008091D1009091D2009C01265030408091EF
:10387000D3009091D4008217930708F06BC0809119
:10388000D3009091D40006969093D4008093D300F7
:1038900080E063E048E20E94FD0B1092AB03809150
:1038A000D3009091D4000E94B61C57C08091D300E1
:1038B0009091D4008C33910508F44EC08091D300D0
:1038C0009091D4000A979093D4008093D30080E025
:1038D00063E048E20E94FD0B1092AB038091D3009D
:1038E0009091D4000E94B61C38C00E94970A109292
:1038F000B4031092B0038DE692E09093A6028093F9
:10390000A5020E94CA0B0E945E1D0E94991F0E9480
:10391000042023C00E94E10A1092B4031092B00365
:103920008DE692E09093A6028093A5020E94CA0BB6
:103930000E945E1D0E94991F0E94042000000DC07D
:1039400000000BC0000009C0000007C0000005C057
:10395000000003C0000001C000000F900F90CF9145
:10396000DF911F910F91FF90EF900895DF93CF9318
:1039700000D000D0CDB7DEB79C838B838B819C8138
:1039800020E13EE0B9010E942C279B01C9018983F7
:103990008981482F50E020E13EE0429FC001439FD3
:1039A000900D529F900D11242B813C81A901481B41
:1039B000590BCA019C838B838B819C812CE330E063
:1039C000B9010E942C279B01C9018A838981882320
:1039D000B9F48981282F30E000D000D08DB79EB790
:1039E000019647E553E0FC0151834083FC0133839A
:1039F00022830E942A0F0F900F900F900F9016C0F5
:103A00008981282F30E000D000D08DB79EB7019675
:103A100049E553E0FC0151834083FC013383228359
:103A20000E942A0F0F900F900F900F908A81882389
:103A300071F400D08DB79EB701962CE533E0FC0100
:103A4000318320830E942A0F0F900F9030C08A810B
:103A50008A30B8F48A81282F30E000D000D08DB7AA
:103A60009EB7019640E653E0FC0151834083FC0180
:103A7000338322830E942A0F0F900F900F900F9094
:103A800016C08A81282F30E000D000D08DB79EB7B5
:103A9000019645E653E0FC0151834083FC013383EA
:103AA00022830E942A0F0F900F900F900F900F907B
:103AB0000F900F900F90CF91DF910895DF93CF93E8
:103AC000CDB7DEB72A970FB6F894DEBF0FBECDBFD5
:103AD00080E067E04AE00E94FD0B0E94E8228091AE
:103AE000CD009091CE00A091CF00B091D000813157
:103AF0002EE0920720E0A20720E0B20708F446C0BB
:103B00008091CD009091CE00A091CF00B091D000D7
:103B10000197A109B1098093CD009093CE00A093A5
:103B2000CF00B093D00081E067E044E10E94FD0B3C
:103B30008091CD009091CE00A091CF00B091D000A7
:103B400020E13EE040E050E0BC01CD010E94402772
:103B5000DA01C90100D000D000D02DB73EB72F5FE9
:103B60003F4F49E653E0F90151834083F9018283D5
:103B70009383A483B5830E942A0F8DB79EB70696C0
:103B80000FB6F8949EBF0FBE8DBF12C081E067E0F4
:103B900044E10E94FD0B00D08DB79EB7019621E74E
:103BA00033E0FC01318320830E942A0F0F900F9095
:103BB0008091AE03813009F0BEC00E94D908DC01BB
:103BC000CB018B839C83AD83BE838B819C81AD8134
:103BD000BE818931F7E49F07F0E0AF07F0E0BF074F
:103BE00040F088E197E4A0E0B0E08B839C83AD8354
:103BF000BE838B819C81AD81BE81883E23E092078C
:103C000020E0A20720E0B20740F488EE93E0A0E0B5
:103C1000B0E08B839C83AD83BE8381E062E040E1B2
:103C20000E94FD0B8AE090E00E9474168B819C81BB
:103C3000AD81BE8120E137E240E050E0BC01CD0122
:103C40000E944027DA01C90189838B819C81AD8163
:103C5000BE8120E137E240E050E0BC01CD010E948E
:103C60004027DC01CB018B839C83AD83BE8389819C
:103C7000882351F080E062E044E30E94FD0B8981DB
:103C8000882F90E00E9474168B819C81AD81BE814B
:103C900028EE33E040E050E0BC01CD010E94402717
:103CA000DA01C90189838B819C81AD81BE8128EEB7
:103CB00033E040E050E0BC01CD010E944027DC0130
:103CC000CB018B839C83AD83BE8381E062E040E0C7
:103CD0000E94FD0B8981882F90E00E9474168B81D1
:103CE0009C81AD81BE8124E630E040E050E0BC0123
:103CF000CD010E944027DA01C90189838B819C8113
:103D0000AD81BE8124E630E040E050E0BC01CD0151
:103D10000E944027DC01CB018B839C83AD83BE8353
:103D200081E062E040E20E94FD0B8981882F90E0F3
:103D30000E947416F5C00E945D09DC01CB018F83DF
:103D40009887A987BA878091A4008130B1F480E078
:103D500063E04AE00E94FD0B81E00E94BE0C00D0AF
:103D60008DB79EB7019628E733E0FC0131832083AD
:103D70000E94AD270F900F9015C080E063E04AE0ED
:103D80000E94FD0B82E00E94BE0C00D08DB79EB752
:103D9000019620E833E0FC01318320830E94AD27A7
:103DA0000F900F908F819885A985BA858031F7E2B1
:103DB0009F07F0E0AF07F0E0BF0740F08FE097E229
:103DC000A0E0B0E08F839887A987BA878F81988514
:103DD000A985BA8587339105A105B10540F487E32C
:103DE00090E0A0E0B0E08F839887A987BA8780E051
:103DF00062E044E30E94FD0B8AE090E00E947416AA
:103E00008F819885A985BA8528EE33E040E050E09F
:103E1000BC01CD010E944027DA01C9018A838F814C
:103E20009885A985BA8528EE33E040E050E0BC01D2
:103E3000CD010E944027DC01CB018F839887A987A1
:103E4000BA8780E062E049E20E94FD0B8A81882FF8
:103E500090E00E9474168F819885A985BA8524E622
:103E600030E040E050E0BC01CD010E944027DA0183
:103E7000C9018A838F819885A985BA8524E630E0B7
:103E800040E050E0BC01CD010E944027DC01CB01A5
:103E90008F839887A987BA8781E062E040E00E941B
:103EA000FD0B8A81882F90E00E9474168F8198857F
:103EB000A985BA852AE030E040E050E0BC01CD01A0
:103EC0000E944027DA01C9018A838F819885A985DC
:103ED000BA852AE030E040E050E0BC01CD010E940C
:103EE0004027DC01CB018F839887A987BA8781E0BF
:103EF00062E040E10E94FD0B8A81882F90E00E94E1
:103F000074168F819885A985BA858A8381E062E0DD
:103F100040E20E94FD0B8A81882F90E00E94741677
:103F20002A960FB6F894DEBF0FBECDBFCF91DF91BA
:103F30000895DF93CF93CDB7DEB78091B503882F77
:103F400090E083309105A9F1843091054CF48130E3
:103F50009105F9F08230910524F5009791F051C058
:103F600086309105B1F18730910524F484309105B4
:103F700041F147C087309105A1F188309105C9F121
:103F800040C080E00E94810C8AE191E00E94210DF6
:103F900038C080E00E94810C84E291E00E94210DF3
:103FA00030C080E00E94810C80E191E00E94210DF0
:103FB00028C080E00E94810C8EE291E00E94210DD9
:103FC00020C080E00E94810C88E391E00E94210DD6
:103FD00018C080E00E94810C84E291E00E94210DD3
:103FE00010C080E00E94810C84E291E00E94210DCB
:103FF00008C080E00E94810C80E691E00E94210DC3
:104000000000CF91DF910895DF93CF93CDB7DEB756
:104010000E941D17882351F081E060E042E10E9478
:10402000FD0B8CE491E00E94210D1EC00E9411172F
:10403000882389F08091B503882369F086E0809316
:10404000B50381E060E042E10E94FD0B82E491E073
:104050000E94210D09C081E060E042E10E94FD0B59
:1040600086E591E00E94210D8091AE03882319F02E
:104070000E94E91602C00E94DA16CF91DF910895DE
:10408000DF93CF93CDB7DEB783E590E023E530E053
:10409000F90120812967FC01208387E390E027E371
:1040A00030E0F90120812860FC0120838CE590E05C
:1040B00025E9FC012083CF91DF910895DF93CF9311
:1040C000CDB7DEB781E390E021E330E0F901208154
:1040D000206EFC01208380E090E00E94B720CF9109
:1040E000DF910895DF93CF93CDB7DEB782E390E001
:1040F00022E330E0F90120812064FC01208382E387
:1041000090E022E330E0F90120812F7BFC01208345
:10411000CF91DF9108951F93DF93CF9300D0CDB758
:10412000DEB782E390E022E330E0F90120812068ED
:10413000FC01208381E089838981182F1A95F1F78A
:10414000198382E390E022E330E0F90120812F77A8
:10415000FC01208381E08A838A81182F1A95F1F768
:104160001A830F900F90CF91DF911F910895DF93E5
:10417000CF9300D00F92CDB7DEB79B838A8319828D
:1041800022C08A819B81992354F482E390E022E348
:1041900030E0F90120812062FC01208309C082E324
:1041A00090E022E330E0F90120812F7DFC012083A3
:1041B0000E9472208A819B81880F991F9B838A832A
:1041C00089818F5F898389818031D8F20E948B2019
:1041D0000F900F900F90CF91DF910895DF93CF93C1
:1041E000CDB7DEB7809101018F7D80930101809171
:1041F00002018F7780930201809101018F7E80936D
:104200000101809101018F7B809301018091010167
:104210008F7780930101CF91DF910895DF93CF9342
:10422000CDB7DEB70E94CA0B1092B5030E94991F4A
:10423000CF91DF910895DF93CF93CDB7DEB7809113
:10424000B503882F90E08330910509F45BC084307A
:1042500091053CF481309105A9F08230910564F517
:1042600094C08630910509F45FC0873091050CF445
:1042700081C08730910509F461C08830910509F447
:1042800067C083C00E941D17009731F087E08093BC
:10429000B5030E94C82179C00E941117009731F020
:1042A00086E08093B5030E94C8216FC082E08093AE
:1042B000B5030E94C82169C00E941D17009731F004
:1042C00087E08093B5030E94C82109C00E9411179E
:1042D000009729F086E08093B5030E94C821809161
:1042E000CD039091CE03A091CF03B091D00300975E
:1042F000A105B10509F040C083E08093B5030E9499
:10430000C82143C08091CD039091CE03A091CF03EB
:10431000B091D0030097A105B10581F581E08093AC
:10432000B5030E94C82131C00E941117009741F5C2
:1043300082E08093B5030E94C82127C00E941D1708
:10434000009701F582E08093B5030E94C8211DC04B
:104350008091CD039091CE03A091CF03B091D00373
:104360000097A105B10581F481E08093B5030E9417
:10437000C8210BC0000009C0000007C0000005C034
:10438000000003C0000001C00000CF91DF9108953C
:10439000DF93CF93CDB7DEB78091B503882F90E040
:1043A0008330910509F456C0843091054CF4813076
:1043B000910501F18230910514F50097B1F09FC08D
:1043C0008630910509F473C0873091052CF4843050
:1043D000910509F45DC093C08730910509F471C05F
:1043E0008830910509F472C08AC00E94EE200E94B4
:1043F000991F85C00E94991F0E94EE2080C02091C5
:10440000D1003091D2008091D3009091D400A901C5
:10441000481B590BCA01CC01A0E0B0E08093CD034A
:104420009093CE03A093CF03B093D0030E94EE20CD
:10443000809101018061809301018091010180627E
:1044400080930101809101018860809301010E94A5
:10445000991F55C00E94EE208091010180648093D5
:104460000101809101018160809301010E94991FE7
:104470008091D3009091D400CC01A0E0B0E0809373
:10448000CD039093CE03A093CF03B093D00337C056
:104490000E94EE208091010180648093010180914F
:1044A00002018068809302010E94991F28C00E9427
:1044B000EE20809101018061809301010E94991F8B
:1044C0001EC00E94EE200E94991F19C00E94EE207B
:1044D000809101018F77809301010E94991F809143
:1044E000CB039091CC03CC01A0E0B0E08093CD034E
:1044F0009093CE03A093CF03B093D0030000CF914D
:10450000DF910895DF93CF9300D0CDB7DEB79A83C4
:10451000898389819A81FC01808191810F900F901C
:10452000CF91DF910895DF93CF9300D000D0CDB726
:10453000DEB79A8389837C836B8389819A812B81FF
:104540003C81FC01318320830F900F900F900F90DE
:10455000CF91DF910895DF93CF9300D0CDB7DEB731
:104560008091880390918903CC01A0E0B0E0BC0168
:10457000CD010E94F425DC01CB0120918E03309106
:104580008F034091900350919103BC01CD010E9493
:10459000AA26DC01CB0120918A0330918B03409144
:1045A0008C0350918D03BC01CD010E94F824DC01E5
:1045B000CB01BC01CD010E94C825DC01CB019A834F
:1045C000898389819A810F900F90CF91DF9108950F
:1045D000DF93CF93CDB7DEB727970FB6F894DEBF42
:1045E0000FBECDBF0E94AB229A83898389819A81B5
:1045F000CC01A0E0B0E02DB73EB72A5030400FB656
:10460000F8943EBF0FBE2DBF2DB73EB72F5F3F4F73
:10461000AE014D5F5F4FF9015183408345E050E0AB
:10462000F9015383428342E953E0F90155834483FE
:10463000F90186839783A087B1870E94F7272DB75A
:104640003EB7265F3F4F0FB6F8943EBF0FBE2DBF5B
:104650008B81682F70E08C81482F50E08D81282F4E
:1046600030E08DB79EB708970FB6F8949EBF0FBE87
:104670008DBF8DB79EB70196E6E9F3E0DC01ED93BF
:10468000FC93FC0173836283DC0115965C934E936B
:104690001497FC01378326830E942A0F2DB73EB75B
:1046A000285F3F4F0FB6F8943EBF0FBE2DBF279631
:1046B0000FB6F894DEBF0FBECDBFCF91DF91089546
:1046C000DF93CF93CDB7DEB727970FB6F894DEBF51
:1046D0000FBECDBF9F838E838E819F81CC01A0E0D2
:1046E000B0E02DB73EB72A5030400FB6F8943EBF29
:1046F0000FBE2DBF2DB73EB72F5F3F4FAE014F5FAF
:104700005F4FF9015183408345E050E0F901538345
:10471000428342E953E0F90155834483F9018683DA
:104720009783A087B1870E94F7272DB73EB7265FF2
:104730003F4F0FB6F8943EBF0FBE2DBF8981682F43
:1047400070E08A81482F50E08B81282F30E08DB7B0
:104750009EB708970FB6F8949EBF0FBE8DBF8DB75A
:104760009EB70196E6E9F3E0DC01ED93FC93FC01D2
:1047700073836283DC0115965C934E931497FC015E
:10478000378326830E942A0F2DB73EB7285F3F4FFD
:104790000FB6F8943EBF0FBE2DBF27960FB6F89404
:1047A000DEBF0FBECDBFCF91DF910895DF93CF93D2
:1047B000CDB7DEB785E490E025E430E0F901208153
:1047C0002F60FC01208383E490E023E430E0F901D2
:1047D00020812D67FC01208389E590E029E530E008
:1047E000F90120812068FC012083CF91DF91089599
:1047F0001F920F920FB60F9211248F939F93AF9336
:10480000BF93DF93CF93CDB7DEB78091BF038D37D2
:1048100009F044C081E08093BE038091B60390917B
:10482000B703A091B803B091B9030097A105B105F2
:1048300099F08091B6039091B703A091B803B0911D
:10484000B9030197A109B1098093B6039093B70307
:10485000A093B803B093B9038091BA039091BB03BE
:10486000A091BC03B091BD030097A105B10599F0DB
:104870008091BA039091BB03A091BC03B091BD039A
:104880000197A109B1098093BA039093BB03A09348
:10489000BC03B093BD031092BF0305C08091BF035A
:1048A0008F5F8093BF03CF91DF91BF91AF919F91B5
:1048B0008F910F900FBE0F901F901895DF93CF939D
:1048C000CDB7DEB780E490E0FC01108289E290E091
:1048D00027E6FC0120838AE290E02AE230E0F90139
:1048E00020812861FC0120838AE290E02AE230E006
:1048F000F90120812068FC01208380E490E020E41D
:1049000030E0F90120812668FC01208388EB94E2E5
:1049100060E070E00E946227CF91DF910895DF93FD
:10492000CF930F92CDB7DEB7898300008BE290E082
:10493000FC018081882F90E0807290700097B1F325
:104940008CE290E02981FC0120830F90CF91DF91D0
:104950000895DF93CF93CDB7DEB78BE290E0FC01F3
:1049600080818CE290E0FC018081CF91DF910895FD
:10497000DF93CF9300D00F92CDB7DEB789837B83CF
:104980006A8300008BE290E0FC018081882F90E038
:10499000807290700097B1F38CE290E02981FC0165
:1049A000208380E090E00F900F900F90CF91DF91E7
:1049B00008951F920F920FB60F9211248F939F9319
:1049C000EF93FF93DF93CF93CDB7DEB78CE290E008
:1049D000FC01808180930301CF91DF91FF91EF91E2
:1049E0009F918F910F900FBE0F901F901895505868
:1049F000BB27AA270ED070C161D130F066D120F05C
:104A000031F49F3F11F41EF456C10EF4E095E7FB1C
:104A10004CC1E92F72D180F3BA176207730784077C
:104A2000950718F071F49EF58AC10EF4E0950B2EEF
:104A3000BA2FA02D0B01B90190010C01CA01A001F0
:104A40001124FF27591B99F0593F50F4503E68F14B
:104A50001A16F040A22F232F342F4427585FF3CF8C
:104A6000469537952795A795F0405395C9F77EF45D
:104A70001F16BA0B620B730B840BBAF09150A1F0A6
:104A8000FF0FBB1F661F771F881FC2F70EC0BA0F2C
:104A9000621F731F841F48F4879577956795B795B4
:104AA000F7959E3F08F0B3CF9395880F08F09927AC
:104AB000EE0F979587950895D4D008F481E0089576
:104AC0000CD00AC102D140F0F9D030F021F45F3FA0
:104AD00019F0EBC0511134C1EEC00FD198F39923F6
:104AE000C9F35523B1F3951B550BBB27AA276217B2
:104AF0007307840738F09F5F5F4F220F331F441FF7
:104B0000AA1FA9F333D00E2E3AF0E0E830D091502E
:104B10005040E695001CCAF729D0FE2F27D0660F1B
:104B2000771F881FBB1F261737074807AB07B0E85A
:104B300009F0BB0B802DBF01FF2793585F4F2AF070
:104B40009E3F510568F0B1C0FBC05F3FECF3983E5B
:104B5000DCF3869577956795B795F7959F5FC9F7CD
:104B6000880F911D9695879597F90895E1E0660F56
:104B7000771F881FBB1F621773078407BA0720F0CF
:104B8000621B730B840BBA0BEE1F88F7E095089538
:104B9000BCD088F09F5790F0B92F9927B751A0F05B
:104BA000D1F0660F771F881F991F1AF0BA95C9F7C1
:104BB00012C0B13081F0C3D0B1E00895C0C0672FFA
:104BC000782F8827B85F39F0B93FCCF38695779571
:104BD0006795B395D9F73EF490958095709561955A
:104BE0007F4F8F4F9F4F0895E89409C097FB3EF485
:104BF00090958095709561957F4F8F4F9F4F99232A
:104C0000A9F0F92F96E9BB279395F69587957795A7
:104C10006795B795F111F8CFFAF4BB0F11F460FF67
:104C20001BC06F5F7F4F8F4F9F4F16C0882311F0BF
:104C300096E911C0772321F09EE8872F762F05C0D3
:104C4000662371F096E8862F70E060E02AF09A956E
:104C5000660F771F881FDAF7880F9695879597F963
:104C60000895990F0008550FAA0BE0E8FEEF1616FD
:104C70001706E807F907C0F012161306E407F50750
:104C800098F0621B730B840B950B39F40A2661F0C4
:104C9000232B242B252B21F408950A2609F4A14067
:104CA000A6958FEF811D811D089597F99F6780E874
:104CB00070E060E008959FEF80EC089500240A946E
:104CC0001616170618060906089500240A941216E7
:104CD0001306140605060895092E0394000C11F41A
:104CE000882352F0BB0F40F4BF2B11F460FF04C0C7
:104CF0006F5F7F4F8F4F9F4F089557FD9058440F20
:104D0000551F59F05F3F71F04795880F97FB991F2A
:104D100061F09F3F79F087950895121613061406E7
:104D2000551FF2CF4695F1DF08C016161706180674
:104D3000991FF1CF86957105610508940895E8944F
:104D4000BB2766277727CB0197F908958ADF08F4F8
:104D50008FEF08950BD0C0CFB1DF28F0B6DF18F089
:104D6000952309F0A2CFA7CF1124EACFC6DFA0F385
:104D7000959FD1F3950F50E0551F629FF001729FF0
:104D8000BB27F00DB11D639FAA27F00DB11DAA1F0F
:104D9000649F6627B00DA11D661F829F2227B00D5C
:104DA000A11D621F739FB00DA11D621F839FA00DE7
:104DB000611D221F749F3327A00D611D231F849F37
:104DC000600D211D822F762F6A2F11249F5750408E
:104DD0008AF0E1F088234AF0EE0FFF1FBB1F661F29
:104DE000771F881F91505040A9F79E3F510570F0E2
:104DF0005CCFA6CF5F3FECF3983EDCF386957795CA
:104E00006795B795F795E7959F5FC1F7FE2B880FDC
:104E1000911D9695879597F90895629FD001739F8C
:104E2000F001829FE00DF11D649FE00DF11D929F46
:104E3000F00D839FF00D749FF00D659FF00D992785
:104E4000729FB00DE11DF91F639FB00DE11DF91FA9
:104E5000BD01CF0111240895AA1BBB1B51E107C05E
:104E6000AA1FBB1FA617B70710F0A61BB70B881FFA
:104E7000991F5A95A9F780959095BC01CD01089589
:104E8000A1E21A2EAA1BBB1BFD010DC0AA1FBB1F4E
:104E9000EE1FFF1FA217B307E407F50720F0A21BC0
:104EA000B30BE40BF50B661F771F881F991F1A942D
:104EB00069F760957095809590959B01AC01BD0157
:104EC000CF0108950F931F93CF93DF938C01EB01D4
:104ED000009711F42097C9F181E090E06EE070E056
:104EE0000E943D2AFC019C01009789F180E88383A0
:104EF000209771F0D387C28781E883838091D103A3
:104F00009091D203009721F4F093D203E093D10360
:104F100001151105E1F01187008783818260838389
:104F20008091D3039091D403009789F4F093D40334
:104F3000E093D3038091D5039091D603009739F481
:104F4000F093D603E093D50302C020E030E0C9011E
:104F5000DF91CF911F910F910895A0E0B0E0E3EBB6
:104F6000F7E20C945B2CFE01359661917191809172
:104F7000D3039091D403AF010E9428282096E2E049
:104F80000C94772CEF92FF920F931F93CF93DF93A4
:104F90008C01E091D303F091D403838181FF1FC082
:104FA000C0E0D0E00AC0DB011896ED91FC911997A2
:104FB0000995009711F0CFEFDFEFF80181918F0194
:104FC0006091D3037091D403882369F7DB011896AD
:104FD000ED91FC9119978AE00995009711F0CFEFB8
:104FE000DFEFCE01CDB7DEB7E6E00C94732CAEE078
:104FF000B0E0EDEFF7E20C94592C0D891E898F89F2
:10500000988D26E02C831A83098397FF02C080E0E5
:1050100090E801979E838D839E01255E3F4FCE01D0
:105020000196698D7A8DA9010E9428284D815E81A3
:1050300057FD0AC02F813885421753070CF49A0197
:10504000020F131FF80110822E96E4E00C94752CC9
:10505000ACE0B0E0EEE2F8E20C944B2C6C011B01EA
:105060008A01FC0117821682838181FFD1C12E0142
:105070000894411C511CF6019381F10193FD859127
:1050800093FF81911F01882309F4BEC1853239F451
:1050900093FD859193FF81911F01853229F490E062
:1050A000B6010E94B12BE7CFEE24FF2420E020328E
:1050B000B0F48B3269F08C3228F4803251F08332B4
:1050C00071F40BC08D3239F0803349F421602CC06B
:1050D0002260246029C0286027C0206125C027FDE8
:1050E0002CC0382F30533A3098F426FF08C08E2D4C
:1050F000880FE82EEE0CEE0CE80EE30E15C08F2D97
:10510000880FF82EFF0CFF0CF80EF30E20620CC077
:105110008E3221F426FD78C1206406C08C3611F44D
:10512000206802C0883649F4F10193FD859193FF10
:1051300081911F01882309F0BACF982F955493309D
:1051400018F09052933028F40C5F1F4FFFE3F9835F
:105150000DC0833631F0833771F0833509F060C0BC
:1051600022C0F801808189830E5F1F4F420171E0E8
:10517000A72EB12C16C062E0662E712C600E711E37
:10518000F8018080918026FF03C06E2D70E002C080
:105190006FEF7FEFC4012C870E94A62B5C01830177
:1051A0002C852F7717C052E0652E712C600E711E72
:1051B000F8018080918026FF03C06E2D70E002C050
:1051C0006FEF7FEFC4012C870E94942B5C012C852C
:1051D0002068830123FD20C008C080E290E0B60172
:1051E0002C870E94B12BFA942C858F2D90E0A81665
:1051F000B90698F311C0F40127FD859127FF81912D
:105200004F0190E0B6012C870E94B12B2C85F11044
:10521000FA940894A108B108A114B10461F7F1C08F
:10522000843611F0893649F527FF08C0F8016081FE
:105230007181828193810C5F1F4F09C0F8016081E9
:105240007181882777FD8095982F0E5F1F4F4FE65D
:10525000B42EB22297FF09C0909580957095619504
:105260007F4F8F4F9F4FF0E8BF2AA2012AE030E026
:105270000E94DD2B782E741845C0853731F43FEE3F
:10528000B32EB2222AE030E025C099EFB92EB22227
:105290008F36C1F0803720F4883509F0B5C00DC0D5
:1052A000803721F0883709F0AFC002C020E1B22A70
:1052B000B4FE0BC084E0B82A08C0B4FE09C0E6E022
:1052C000BE2A06C028E030E005C020E130E002C080
:1052D00020E132E0B7FE08C0F8016081718182816F
:1052E00093810C5F1F4F07C0F8016081718180E0DE
:1052F00090E00E5F1F4FA2010E94DD2B782E7418E4
:10530000FFE7BF22B6FE0BC02EEFB2227E1438F4A8
:10531000B4FE07C0B2FC05C08FEEB82202C0A72CB5
:1053200001C0AE2C8B2D90E0B4FE0DC0FE01E70D48
:10533000F11D2081203319F4E9EEBE2209C0A394A7
:10534000B2FE06C004C086789070009709F0A3945E
:105350008B2C9924B3FC14C0B0FE0FC0AF1428F4FA
:10536000E72CEF0CEA18AF2C08C0E72C06C080E24F
:1053700090E0B6010E94B12BA394AF14C0F304C017
:10538000AF1410F4FA1801C0FF2484FE0FC080E3AC
:1053900090E0B6010E94B12B82FE1FC081FE03C0C7
:1053A00088E590E010C088E790E00DC0C4018678E1
:1053B0009070009791F081FC02C080E201C08BE206
:1053C000B7FC8DE290E0B6010E94B12B06C080E3ED
:1053D00090E0B6010E94B12BEA947E14C0F37A9457
:1053E000F201E70DF11D808190E0B6010E94B12B22
:1053F0007720A9F706C080E290E0B6010E94B12BA9
:10540000FA94FF20C1F737CEF6012681378102C01A
:105410002FEF3FEFC9012C96E2E10C94672CE19944
:10542000FECF9FBB8EBBE09A99278DB30895A6E16E
:10543000B0E044E050E00C943D2CA8E1B0E042E044
:1054400050E00C943D2C262FE199FECF9FBB8EBBE4
:105450002DBB0FB6F894E29AE19A0FBE019608951B
:10546000242F0E94242A252F0E94242A0C94382AB3
:105470000E94232A272F0C94242AEF92FF920F9345
:105480001F93CF93DF93689F8001699F100D789FD2
:10549000100D1124C8010E94612AE82EE7017E0147
:1054A000F92EE701209731F08E2D60E070E0A80121
:1054B0000E949F2B7E01CE01CDB7DEB7E6E00C94B3
:1054C000732CCF93DF938230910510F482E090E04B
:1054D000E091D903F091DA0340E050E020E030E0C1
:1054E00026C06081718168177907E0F06817790735
:1054F00081F4828193812115310531F0D901139610
:105500009C938E9312972BC09093DA038093D903C8
:1055100026C04115510519F06417750718F4AB0141
:10552000E901DF019F0172816381E72FF62F309738
:10553000C1F64115510501F1481B590B4430510585
:1055400080F412968D919C911397209719F09B836C
:105550008A8304C09093DA038093D903FD013296C5
:1055600046C0FD01E40FF51F8193919342505040D6
:1055700011965C934E933BC02091D7033091D80392
:105580002115310541F42091A5033091A6033093F4
:10559000D8032093D7032091A7033091A8032115A6
:1055A000310541F42DB73EB74091A3035091A403B8
:1055B000241B350BE091D703F091D803E217F307D2
:1055C000A0F42E1B3F0B2817390778F0AC014E5F73
:1055D0005F4F2417350748F04E0F5F1F5093D803D5
:1055E0004093D7038193919302C0E0E0F0E0CF01B4
:1055F000DF91CF910895CF93DF93009709F491C085
:10560000FC013297138212826091D9037091DA0300
:105610006115710581F420813181280F391F809136
:10562000D7039091D8038217930799F5F093D80385
:10563000E093D70376C0DB0180E090E002C0CD01AB
:10564000D901AE17BF0748F412962D913C911397DC
:1056500021153105A1F7CD0121C0B383A283EF014C
:10566000499159919E01240F351FA217B30779F470
:105670002D913C911197240F351F2E5F3F4F3183A1
:10568000208312962D913C911397338322830097A8
:1056900029F4F093DA03E093D90343C0DC011396B5
:1056A000FC93EE9312974D915D91A40FB51FEA17ED
:1056B000FB0769F420813181240F351F2E5F3F4F96
:1056C000EC0139832883228133813B832A83E0E004
:1056D000F0E002C0FB01BC01DB0112968D919C91B0
:1056E00013970097B9F79B012E5F3F4F8D919C91C7
:1056F0001197820F931F4091D7035091D8034817F9
:10570000590779F4309729F41092DA031092D903EB
:1057100002C013821282225030403093D80320936B
:10572000D703DF91CF910895FC010590615070403F
:105730000110D8F7809590958E0F9F1F0895DC017A
:1057400001C06D9341505040E0F70895FC01615055
:10575000704001900110D8F7809590958E0F9F1F93
:1057600008950F931F93CF93DF938C01EB018B81EF
:1057700081FF1BC082FF0DC02E813F818C819D81E6
:105780002817390764F4E881F9810193F983E883E4
:1057900006C0E885F985802F0995009731F48E8140
:1057A0009F8101969F838E8302C00FEF1FEFC80178
:1057B000DF91CF911F910F910895FA01AA27283008
:1057C00051F1203181F1E8946F936E7F6E5F7F4FCE
:1057D0008F4F9F4FAF4FB1E03ED0B4E03CD0670F4A
:1057E000781F891F9A1FA11D680F791F8A1F911D9D
:1057F000A11D6A0F711D811D911DA11D20D009F4ED
:1058000068943F912AE0269F11243019305D31932E
:10581000DEF6CF010895462F4770405D4193B3E017
:105820000FD0C9F7F6CF462F4F70405D4A3318F0BE
:10583000495D31FD4052419302D0A9F7EACFB4E06F
:10584000A6959795879577956795BA95C9F7009727
:105850006105710508959B01AC010A2E06945795C8
:10586000479537952795BA95C9F7620F731F841F1F
:10587000951FA01D0895DC01CB01FC01E199FECF2D
:1058800006C0FFBBEEBBE09A31960DB20D924150BF
:105890005040B8F708952F923F924F925F926F92C7
:1058A0007F928F929F92AF92BF92CF92DF92EF92B0
:1058B000FF920F931F93CF93DF93CDB7DEB7CA1B31
:1058C000DB0B0FB6F894DEBF0FBECDBF09942A885C
:1058D000398848885F846E847D848C849B84AA8404
:1058E000B984C884DF80EE80FD800C811B81AA8191
:1058F000B981CE0FD11D0FB6F894DEBF0FBECDBF5C
:08590000ED010895F894FFCFBA
:105908006F666620200D002564203420200D0A00D3
:105918002564203520200D0A002564202036200D1E
:105928000A002564202037200D0A0025642039202C
:10593800200D0A00FED41842452A9C3EFED4184287
:10594800452A9C3E0118B018B00100000000000074
:10595800000000000054696D6572206F76657266FC
:105968006C6F77205B256C755D200D0A00900A0B23
:1059780000100E84036D6167696320747275652079
:105988000D006D61676963206661736C65200D00A9
:1059980020204144524F4E41204372797374616C08
:1059A8000002003001014372797374616C20200099
:1059B80052756E6E696E672020004F666620202043
:1059C800202020005374616E6462792020005265A3
:1059D800636972632E20200044697370656E7320BA
:1059E80020004C6F777072657320200054616E6BD5
:1059F80046756C6C200020202020202020202000CC
:105A080050756D7020202020200052657365740049
:105A18000050026A010100000000000000000000C0
:105A28000000755300000D02820101000000000013
:105A3800000000000000004D4F686D00000D029747
:105A48000100000000000000000000000000526596
:105A580063697263756C6174696F6E2070657269D1
:105A68006F6400002802AE01010000000000000081
:105A78000000000000526563697263756C617469A7
:105A88006F6E2074696D6500002802D50100000062
:105A9800000000000000000000004D656173757291
:105AA800656D656E7420756E69747300002802FA5E
:105AB800010086019D0100000000000000004F70F9
:105AC80074696F6E732000006D021E02000D02C41F
