:100000000C9486030C94EF070C9435070C94A3030F
:100010000C945F260C94A3030C94A3030C94A303E9
:100020000C94A3030C9420070C94A3030C94A30337
:100030000C94A3030C9440270C94A3030C94A303E7
:100040000C94E9030C94A3030C94A3030C94A30352
:100050000C94A3030000C0E0F0F838181838F8F04A
:10006000E0C0000000FFFFFFFF000000000000FFF5
:10007000FFFFFF0000071F3F7FF8E0C0C0E0F87FF0
:100080003F1F0700000000808080C0E0F8F8F8F80B
:10009000000000000000000101010101FFFFFFFF5F
:1000A000000000000000000000000000FFFFFFFF54
:1000B000000000000080E0F0F0783818181878F898
:1000C000F0E0C00000010101010080C0C0E0F87F45
:1000D0003F1F0F00C0F0F8FCFEDFCFC7C3C1C0C098
:1000E000C0C0C00000C0E0F0F83818181838F8F0A8
:1000F000E0C0000000000000000030303078FFFF5A
:10010000EFC78000000C3C7C7CF0E0C0C0E0F07FDA
:100110007F3F0F0000000000000000C0E0F8F8F88A
:10012000F80000000080E0F07C3E0F0701FFFFFFB9
:10013000FF000000070707070606060606FFFFFF89
:10014000FF0606060000F8F8F8F81818181818182E
:100150001800000000003F3F3F1F1C0C0C1C3CF827
:10016000F8F0C000000C3C7C7CF0E0C0C0E0F07F08
:100170007F3F0F0000C0E0F0F83818181838F8F08A
:10018000E0C0000000FFFFFFFF381C0C0C1C3CFC13
:10019000F8F0C00000071F3F7FF8E0C0C0E0F07F2C
:1001A0007F3F0F0000181818181818181818D8F8DA
:1001B000F8F8380000000000000000C0F8FEFF3F23
:1001C0000F0100000000000080F0FEFF7F0F010023
:1001D000000000000000C0F0F0F838181838F8F0FF
:1001E000F0C00000000083CFFFFF7C78787CFFFF29
:1001F000CF830000001F3F7F7FF0E0C0C0E0F07FB2
:100200007F3F1F000080E0F0F07838181838F8F0D1
:10021000E0C00000000F3F7FFFF0E0C0C0E070FFD3
:10022000FFFFFF0000183878F8E0C0C0E0F0FC7F66
:100230003F1F03000000000000000000000000005D
:1002400000000000000000000000000000000000AE
:100250000000000000000000000000E0E0E0E0001E
:100260000000000000000000000000F0F81818185E
:100270003830000000FE2020103E003173636363BD
:100280007F3E00000002728A8A8A0202FA0AFA0A93
:10029000FA0200000000F0204020F000E0301010D2
:1002A00030E0000000000700000017A045A7100084
:1002B000070500000000788484840100FC04F90430
:1002C000F800000000000000C0E0C0800000000056
:1002D0000000000000000000000103078FDEFCF8B2
:1002E0007020000000000000183C1E0F07030100F2
:1002F000000000000000000000000000000080C0BE
:10030000E0C00000000000002070F8FCDE8F070352
:1003100001000000000000000000000103070F1EA4
:100320003C18000000000000000000000000000079
:1003300000000000000000383838383838383838C5
:10034000383800000000000000000000000000003D
:10035000000000000000000000000000000000009D
:10036000000000000000000000000000000000008D
:10037000000000000000000000000000000000007D
:1003800000000000FFFFFFFFFF00FFFFFFFFFFFF78
:1003900000FFFFFFFFFFFF00FFFFFFFFFFFF00FF6A
:1003A000FFFFFFFFFF00FFFFFFFFFFFF00FFFFFF5B
:1003B000FFFFFF00FFFFFFFFFFFF00FFFFFFFFFF4B
:1003C000FF00FFFFFFFFFFFF00FFFFFFFFFFFF003A
:1003D000FFFFFFFFFFFF00FFFFFFFFFFFF00FFFF2B
:1003E000FFFFFFFF00FFFFFFFFFFFF00FFFFFFFF1B
:1003F000FFFF00FFFFFFFFFFFF00FFFFFFFFFFFF0B
:1004000000FFFFFFFFFFFF00FFFFFFFFFFFF00FFF9
:10041000FFFFFFFFFF00FFFFFFFFFFFF00FFFFFFEA
:10042000FFFFFF00FFFFFFFFFFFF00FFFFFFFFFFDA
:10043000FF00FFFFFFFFFFFF00FFFFFFFFFFFF00C9
:10044000FFFFFFFFFFFF00FFFFFFFFFFFF00FFFFBA
:10045000FFFFFFFF00FFFFFFFFFFFF00FFFFFFFFAA
:10046000FFFF00FF0000000000FFFF00004F000042
:1004700000FF000700070000FF147F147F1400FF37
:10048000242A7F2A1200FF231308646200FF3649E2
:1004900055222000FF000503000000FF001C224140
:1004A0000000FF0041221C0000FF14083E08140059
:1004B000FF08083E080800FF503000000000FF0859
:1004C0000808080800FF006060000000FF20100816
:1004D000040200FF3E5149453E00FF40427F40403C
:1004E00000FF426151494600FF2141454B3100FF69
:1004F0001814127F1000FF274545453900FF3C4A7C
:1005000049493000FF017109050300FF3649494997
:100510003600FF064949291E00FF0036360000005C
:10052000FF005636000000FF081422410000FF14AF
:100530001414141400FF004122140800FF0201519A
:10054000090600FF000002050200FF7E1111117E66
:1005500000FF7F4949493600FF3E4141412200FFEB
:100560007F4141221C00FF7F4949494100FF7F092B
:1005700009090100FF3E4149497A00FF7F08080848
:100580007F00FF00417F410000FF2040413F01000C
:10059000FF7F0814224100FF7F4040404000FF7F62
:1005A000020C027F00FF7F0408107F00FF3E4141E4
:1005B000413E00FF7F0909090600FF3E4151215ECF
:1005C00000FF7F0919294600FF264949493200FFEB
:1005D00001017F010100FF3F4040403F00FF1F201D
:1005E00040201F00FF3F4038403F00FF63140814C5
:1005F0006300FF070870080700FF61514945430089
:10060000FF007F41410000FF020408102000FF00AE
:1006100041417F0000FF040201020400FF4040400E
:10062000404000FF000003050000FF2054545478B0
:1006300000FF7F4444443800FF384444444400FFF2
:10064000384444447F00FF385454541800FF0404D5
:100650007E050500FF085454543C00FF7F08040445
:100660007800FF00447D4000FFFF2040443D00FF34
:10067000FF7F10284400FFFF417F4000FFFFFF7C09
:10068000047C047800FF7C0804047800FF384444AC
:10069000443800FF7C1414140800FF081414147C60
:1006A00000FF7C08040400FFFF485454542400FF5A
:1006B00004043F444400FF3C4040207C00FF1C20D9
:1006C00040201C00FF3C4030403C00FF44281028E4
:1006D0004400FF0C5050503C00FF4464544C440014
:1006E000FF083641410000FF000077000000FF00D6
:1006F0004141360800FF08082A1C0800FF081C2A90
:10070000080800FFFFFFFFFFFF00FF0011241FBECE
:10071000CFE5D8E0DEBFCDBF14E0A0E6B0E0E6ED67
:10072000FDE502C005900D92A035B107D9F714E0A0
:10073000A0E5B4E001C01D92A938B107E1F70E941D
:1007400020180C94E92E0C940000DF93CF93CDB7C2
:10075000DEB7F89481E0CF91DF910895DF93CF93D6
:1007600000D0CDB7DEB79A8389838FE590E02981E9
:100770003A81F9012081FC0120830F900F90CF91E5
:10078000DF910895DF93CF93CDB7DEB786E290E097
:1007900026E230E0F90120812760FC01208387E216
:1007A00090E020E4FC01208386E290E026E230E045
:1007B000F90120812868FC01208386E290E026E28E
:1007C00030E0F90120812064FC012083CF91DF918A
:1007D00008951F920F920FB60F921124EF92FF927D
:1007E0000F931F932F933F934F935F936F937F9339
:1007F0008F939F93AF93BF93EF93FF93DF93CF9329
:1008000000D000D0CDB7DEB78FE590E0FC0180814D
:100810008C830E94A5038B8313C084E290E0FC01CB
:100820008081282F30E085E290E0FC018081882FD4
:1008300090E0982F8827822B932B9A8389831B82A1
:100840008B81882351F7CE0104960E94AE038091DC
:100850002E0490912F04CC01A0E0B0E0BC01CD01AA
:100860000E945B28DC01CB01BC01CD0126E636E607
:1008700046E65FE30E941129DC01CB017C018D017A
:1008800089819A81CC01A0E0B0E0BC01CD010E9439
:100890005B28DC01CB01BC01CD012DEC3CEC4CEC28
:1008A0005DE30E941129DC01CB019C01AD01C8016F
:1008B000B7010E945F27DC01CB01BC01CD010E9482
:1008C0002F28DC01CB0190932F0480932E0486E225
:1008D00090E026E230E0F90120812064FC012083D1
:1008E0002496DEBFCDBFCF91DF91FF91EF91BF91F5
:1008F000AF919F918F917F916F915F914F913F91B8
:100900002F911F910F91FF90EF900F900FBE0F90BE
:100910001F9018950F931F93DF93CF93CDB7DEB73A
:1009200060970FB6F894DEBF0FBECDBF85E390E0B1
:10093000FC0180818F8784E390E0FC018081888BBB
:1009400087E390E027E330E0F90120812E7FFC016E
:10095000208388E390E028E330E0F90120812E7FB6
:10096000FC01208384E390E0FC01108285E390E0A9
:100970002FEFFC01208387E390E027E330E0F901CB
:1009800020812160FC01208388E390E028E330E0AF
:10099000F90120812E7FFC01208380E090E0A0E817
:1009A000BFE389839A83AB83BC8369817A818B811E
:1009B0009C8120E030E04AE755E40E941129DC01E7
:1009C000CB018D839E83AF83B88711E06D817E81DB
:1009D0008F81988520E030E040E85FE30E94C327E4
:1009E00088230CF010E0112329F081E090E09A8731
:1009F000898746C011E06D817E818F81988520E0D6
:100A00003FEF4FE757E40E940D2918160CF010E055
:100A1000112361F169817A818B819C8120E030E032
:100A200040E251E40E941129DC01CB01BC01CD015F
:100A30000E942F28DC01CB019A87898712C080E9A8
:100A400091E09C878B878B859C858C01C8010197E1
:100A5000F1F78C011C870B8789859A8501979A8706
:100A6000898789859A85009751F717C06D817E81A6
:100A70008F8198850E942F28DC01CB019A87898776
:100A800089859A859E878D878D859E858C01F80145
:100A90003197F1F78F011E870D8783E390E0FC010A
:100AA0008081809580936A0485E390E02F85FC0126
:100AB000208384E390E02889FC01208380916A04EC
:100AC00060960FB6F894DEBF0FBECDBFCF91DF9119
:100AD0001F910F910895DF93CF9300D00F92CDB760
:100AE000DEB79A8389836B8389819A81FC01918126
:100AF0008B819817D1F089819A81FC0180818230A5
:100B0000A0F089819A812B81FC01218389819A81BE
:100B1000FC01108289819A81FC018181882341F145
:100B200089819A81FC01818124C089819A81FC019B
:100B300091818B81981789F089819A81FC0180814C
:100B4000823058F489819A81FC018081282F2F5F9F
:100B500089819A81FC0120830BC089819A81FC01E3
:100B600091818B81981721F489819A81FC011082EF
:100B700080E00F900F900F90CF91DF910895DF9359
:100B8000CF930F92CDB7DEB719820E948A0480936B
:100B90006A0420916A0480E594E0622F0E946B054C
:100BA00089838981882F90E08430910509F476C08B
:100BB0008530910564F48130910509F4AAC0823032
:100BC000910509F489C0009709F4C1C0A9C080311A
:100BD000910591F18131910524F488309105C9F195
:100BE0009FC08032910599F08034910509F098C03A
:100BF00080915F04882331F481E080935F040E9438
:100C00007623AEC010925F040E947623A9C0809123
:100C10005A04882309F09DC080915F04843031F428
:100C200081E080935F040E9476239AC084E08093E1
:100C30005F040E94762394C080915A04882319F09F
:100C40000E94041A8DC081E080935A040E94F71814
:100C500087C080912401882351F083EB92E0909328
:100C6000C5028093C40280E090E00E947C1A8981D2
:100C7000282F30E000D000D08DB79EB7019640E617
:100C800050E0FC0151834083FC01338322830E94A6
:100C9000142A0F900F900F900F9062C08981282F17
:100CA00030E000D000D08DB79EB7019649E650E005
:100CB000FC0151834083FC01338322830E94142A68
:100CC0000F900F900F900F9080915A04882309F491
:100CD00042C00E94691944C08981282F30E000D0A9
:100CE00000D08DB79EB7019642E750E0FC015183DA
:100CF0004083FC01338322830E94142A0F900F90BB
:100D00000F900F9080915A04882339F10E94351A70
:100D100027C080915A04882311F10E94AD1920C088
:100D20008981282F30E000D000D08DB79EB7019682
:100D30004BE750E0FC0151834083FC013383228365
:100D40000E94142A0F900F900F900F9009C000007E
:100D500007C0000005C0000003C0000001C0000083
:100D60000F90CF91DF910895DF93CF93CDB7DEB78A
:100D7000F89481E0CF91DF910895DF93CF9300D075
:100D8000CDB7DEB79A8389838FE590E029813A81D8
:100D9000F9012081FC0120830F900F90CF91DF910A
:100DA0000895DF93CF93CDB7DEB71092530410921E
:100DB000520480919400882399F48BE590E02BE510
:100DC00030E0F90120812064FC0120838BE590E074
:100DD0002BE530E0F90120812F77FC01208312C040
:100DE0008BE590E02BE530E0F90120812068FC01E3
:100DF00020838BE590E02BE530E0F90120812F7B0B
:100E0000FC01208385E590E025E530E0F9012081B3
:100E10002A60FC0120838FE490E0FC0110828EE4C4
:100E200090E025E0FC01208389E590E029E530E0B1
:100E3000F90120812460FC012083CF91DF91089586
:100E40001F920F920FB60F9211248F93DF93CF93BF
:100E5000CDB7DEB781E08093A500CF91DF918F9170
:100E60000F900FBE0F901F9018951F920F920FB604
:100E70000F921124EF92FF920F931F932F933F93A2
:100E80004F935F936F937F938F939F93AF93BF9392
:100E9000EF93FF93DF93CF9300D0CDB7DEB78FE50D
:100EA00090E0FC0180818A830E94B40689836BC034
:100EB0008CE490E0FC018081918190936C0480939C
:100EC0006B048CE490E0FC011182108280916B0431
:100ED00090916C04893C910508F445C080916B04A5
:100EE00090916C04CC01A0E0B0E0BC01CD010E9467
:100EF0005B28DC01CB01BC01CD012DEC3CEC4CECC2
:100F00005DE30E941129DC01CB017C018D01809100
:100F1000950090919600CC01A0E0B0E0BC01CD011D
:100F20000E945B28DC01CB01BC01CD0126E636E640
:100F300046E65FE30E941129DC01CB019C01AD0173
:100F4000C801B7010E945F27DC01CB01BC01CD01C4
:100F50000E942F28DC01CB0190939600809395008E
:100F6000109255040FC0809155048F5F80935504F3
:100F700080915504853630F01092550410929600F9
:100F80001092950019828981882309F091CFCE01B2
:100F900002960E94BD061092A5008AE590E02AE51F
:100FA00030E0F90120812068FC0120830F900F9030
:100FB000CF91DF91FF91EF91BF91AF919F918F9171
:100FC0007F916F915F914F913F912F911F910F9161
:100FD000FF90EF900F900FBE0F901F9018951F92EB
:100FE0000F920FB60F921124EF92FF920F931F935F
:100FF0002F933F934F935F936F937F938F939F9321
:10100000AF93BF93EF93FF93DF93CF9300D0CDB710
:10101000DEB78FE590E0FC0180818A830E94B406F0
:1010200089836BC08CE490E0FC0180819181909376
:101030006C0480936B048CE490E0FC0111821082BC
:1010400080916B0490916C04893C910508F445C033
:101050008091970090919800CC01A0E0B0E0BC0195
:10106000CD010E945B28DC01CB01BC01CD0120E059
:1010700030E040E05FE30E941129DC01CB017C01FC
:101080008D0180916B0490916C04CC01A0E0B0E0E4
:10109000BC01CD010E945B28DC01CB01BC01CD016C
:1010A00020E030E040E05FE30E941129DC01CB0149
:1010B0009C01AD01C801B7010E945F27DC01CB0193
:1010C000BC01CD010E942F28DC01CB019093980038
:1010D00080939700109255040FC0809155048F5F44
:1010E0008093550480915504853630F01092550454
:1010F000109298001092970019828981882309F034
:1011000091CFCE0102960E94BD061092A5008AE5FD
:1011100090E02AE530E0F90120812064FC01208381
:101120000F900F90CF91DF91FF91EF91BF91AF9111
:101130009F918F917F916F915F914F913F912F91EF
:101140001F910F91FF90EF900F900FBE0F901F9087
:101150001895DF93CF93CDB7DEB78BE590E02BE505
:1011600030E0F90120812F7BFC01208381E090E0B9
:10117000A0E0B0E08093990090939A00A0939B0028
:10118000B0939C0081E0809394008BE590E02BE588
:1011900030E0F90120812068FC012083CF91DF91AC
:1011A0000895DF93CF93CDB7DEB78BE590E02BE5C5
:1011B00030E0F90120812F77FC01208381E090E06D
:1011C000A0E0B0E08093990090939A00A0939B00D8
:1011D000B0939C00109294008BE590E02BE530E0FA
:1011E000F90120812064FC012083CF91DF910895D3
:1011F000DF93CF9300D000D0CDB7DEB780E090E092
:10120000DC0189839A83AB83BC8380919400813015
:1012100071F58091950090919600CC01A0E0B0E02E
:10122000BC01CD010E945B28DC01CB01209188002C
:101230003091890040918A0050918B00BC01CD0112
:101240000E941129DC01CB0120918400309185009E
:101250004091860050918700BC01CD010E945F271C
:10126000DC01CB0189839A83AB83BC832DC0809141
:10127000970090919800CC01A0E0B0E0BC01CD01B6
:101280000E945B28DC01CB012091900030919100FD
:101290004091920050919300BC01CD010E94112910
:1012A000DC01CB0120918C0030918D0040918E00AB
:1012B00050918F00BC01CD010E945F27DC01CB0162
:1012C00089839A83AB83BC8369817A818B819C817A
:1012D0000E942F28DC01CB01BC01CD010F900F90A3
:1012E0000F900F90CF91DF910895DF93CF9300D0AF
:1012F00000D0CDB7DEB70E94F808DC01CB01BC01FD
:10130000CD010E945B28DC01CB0189839A83AB83EA
:10131000BC8329813A814B815C8160E074E284E77F
:1013200099E40E94C727DC01CB0189839A83AB83B0
:10133000BC8389819A81AB81BC81BC01CD010E94B3
:101340002F28DC01CB01BC01CD010F900F900F9035
:101350000F90CF91DF910895DF93CF93CDB7DEB794
:1013600080E090E00E94842C21E08230920709F016
:1013700066C08EEA90E00E94292A82E090E00E94F6
:10138000762C8093540487E090E00E947E2CDC0150
:10139000CB018093300490933104A0933204B09336
:1013A00033048BE090E00E947E2CDC01CB01809323
:1013B000340490933504A0933604B093370483E04B
:1013C00090E00E94842CCC01A0E0B0E02CE330E05F
:1013D00040E050E0BC01CD010E947429DC01CB014A
:1013E0008093A6009093A700A093A800B093A900B3
:1013F00085E090E00E94762C482F50E02CE330E00E
:10140000429FC001439F900D529F900D11249093D5
:10141000AB008093AA0086E090E00E94762C482FD3
:1014200050E02CE330E0429FC001439F900D529F5B
:10143000900D11249093AD008093AC0006C08BEB0F
:1014400090E00E94292A0E94280ACF91DF910895F6
:10145000DF93CF93CDB7DEB780E090E062E071E03C
:101460000E949F2C82E090E060E00E948A2C809194
:10147000A6009091A700A091A800B091A9002CE32C
:1014800030E040E050E0BC01CD010E94A729DA0124
:10149000C9019C0183E090E0B9010E949F2C87E084
:1014A00090E040E050E0BA010E94972C8BE090E081
:1014B00040E050E060E47FE30E94972C8091AC0014
:1014C0009091AD002CE330E0B9010E9493299B017B
:1014D000C901282F85E090E0622F0E948A2C80911C
:1014E000AA009091AB002CE330E0B9010E9493294F
:1014F0009B01C901282F86E090E0622F0E948A2C70
:10150000CF91DF910895DF93CF93CDB7DEB72091D0
:10151000540482E090E0622F0E948A2CCF91DF91E8
:101520000895DF93CF9300D0CDB7DEB78091A600AA
:101530009091A700A091A800B091A9002CE330E001
:1015400040E050E0BC01CD010E94A729DA01C901A9
:101550009A83898383E090E029813A81B9010E94CE
:101560009F2C0F900F90CF91DF910895DF93CF9331
:10157000CDB7DEB720913004309131044091320470
:101580005091330487E090E0BA01A9010E94972CA2
:101590002091340430913504409136045091370441
:1015A0008BE090E0BA01A9010E94972CCF91DF91C6
:1015B0000895DF93CF93CDB7DEB78091AC009091C3
:1015C000AD002CE330E0B9010E9493299B01C901D1
:1015D000282F85E090E0622F0E948A2CCF91DF9126
:1015E0000895DF93CF93CDB7DEB78091AA00909195
:1015F000AB002CE330E0B9010E9493299B01C901A3
:10160000282F86E090E0622F0E948A2CCF91DF91F4
:101610000895DF93CF93CDB7DEB785E090E00E94C9
:10162000762C482F50E02CE330E0429FC001439FCE
:10163000900D529F900D11249093AD008093AC00BB
:10164000CF91DF910895DF93CF93CDB7DEB786E0DA
:1016500090E00E94762C482F50E02CE330E0429F2F
:10166000C001439F900D529F900D11249093AB00A9
:101670008093AA00CF91DF910895DF93CF930F92CB
:10168000CDB7DEB78091570490915804019690939E
:1016900058048093570480915704909158048630E1
:1016A00091050CF46BC080915604282F30E000D0D7
:1016B00000D08DB79EB7019647EE50E0FC015183F4
:1016C0004083FC01338322830E94142A0F900F90E1
:1016D0000F900F90809159048F5F809359048091EF
:1016E0005904898307C089818F5F89838981893003
:1016F00008F0198280915604882F90E02981222FCA
:1017000030E0022E02C0959587950A94E2F7817029
:101710009070009741F38981282F30E000D000D0ED
:101720008DB79EB701964AEF50E0FC01518340838C
:10173000FC01338322830E94142A0F900F900F9094
:101740000F9089818093590481E090E00E94780D88
:1017500029EC30E08981882F90E0880F991FAC0137
:10176000440F551F440F551F840F951F820F931F61
:101770000E94180E10925804109257040F90CF91A7
:10178000DF910895DF93CF9300D000D0CDB7DEB7BF
:101790000E94F808DC01CB0189839A83AB83BC8368
:1017A00089819A81AB81BC81803D27E0920720E04E
:1017B000A20720E0B20778F480919400813031F4E0
:1017C0008091560482608093560405C0809156042F
:1017D0008160809356040F900F900F900F90CF91DF
:1017E000DF9108950F931F93DF93CF93CDB7DEB7AB
:1017F0002E970FB6F894DEBF0FBECDBF8AE390E000
:101800002AE330E0F9012081206FFC01208384E38A
:1018100090E0FC01808184E390E02FEFFC012083C5
:1018200087E390E027E330E0F90120812260FC01AA
:1018300020830E9452178FE30E9403130E943917DE
:101840008FE30E94031380E090E0A0E2B1E489837B
:101850009A83AB83BC8369817A818B819C8120E0F0
:1018600030E04AE753E40E941129DC01CB018D836B
:101870009E83AF83B88711E06D817E818F819885CB
:1018800020E030E040E85FE30E94C32788230CF0AB
:1018900010E0112329F081E090E09A87898746C003
:1018A00011E06D817E818F81988520E03FEF4FE7C9
:1018B00057E40E940D2918160CF010E0112361F175
:1018C00069817A818B819C8120E030E040E251E4A3
:1018D0000E941129DC01CB01BC01CD010E942F28FF
:1018E000DC01CB019A87898712C089E190E09C874F
:1018F0008B878B859C858C01C8010197F1F78C0142
:101900001C870B8789859A8501979A87898789859E
:101910009A85009751F717C06D817E818F819885D8
:101920000E942F28DC01CB019A87898789859A85B7
:101930009E878D878D859E858C01F8013197F1F703
:101940008F011E870D870E94521780EC0E9403139F
:101950000E94391780EC0E9403130E94C10C83E09F
:101960000E94780D8FE091E00E94180E2E960FB61F
:10197000F894DEBF0FBECDBFCF91DF911F910F91C5
:101980000895DF93CF9300D00F92CDB7DEB780914B
:1019900070048B8310927004198217C089810E9491
:1019A000780D1A820CC08A81803419F481E00E947B
:1019B000520D80E00E941B148A818F5F8A838A8186
:1019C00088238CF789818F5F89838981883030F300
:1019D0008B818093700480E00E94780D0F900F90AF
:1019E0000F90CF91DF910895DF93CF9300D00F92A6
:1019F000CDB7DEB789836A834B838981882319F049
:101A00008981813009F58A818830F0F48B818034B6
:101A1000D8F48981882319F40E94521702C00E94C9
:101A20003917898180936D048A81886B80936E0455
:101A30008B81806480936F0480916F040E940313F4
:101A400080916E040E9403130F900F900F90CF911E
:101A5000DF910895DF93CF9300D000D000D0CDB7B1
:101A6000DEB79A8389837C836B835E834D83209169
:101A70006D0489819A81FC01208320916E048B8101
:101A80009C81FC01208320916F048D819E81FC014B
:101A9000208326960FB6F894DEBF0FBECDBFCF9140
:101AA000DF910895DF93CF930F92CDB7DEB789838F
:101AB0008981882319F089818130B1F48981882353
:101AC00019F40E94521702C00E943917898180932D
:101AD0006D0480E480936F0480916E040E94031370
:101AE00080916F040E9403130F90CF91DF910895AE
:101AF000DF93CF930F92CDB7DEB78983898188308A
:101B000038F48981885480936E0480E00E94520DDD
:101B10000F90CF91DF910895DF93CF93CDB7DEB7CC
:101B200080916E048F5F80936E0480916E04803C80
:101B300018F088EB80936E0480E00E94520DCF91E4
:101B4000DF910895DF93CF93CDB7DEB78FEF80930A
:101B50007004CF91DF910895DF93CF93CDB7DEB7B7
:101B600010927004CF91DF9108951F93DF93CF936C
:101B7000CDB7DEB727970FB6F894DEBF0FBECDBF47
:101B80008F8380916D04813021F480916F048C37B4
:101B900018F48F818A3011F40E948C0D8F818A3065
:101BA00009F43CC024E833E08F81882F90E0AC0139
:101BB000440F551F440F551F440F551FBA01681B92
:101BC000790BCB01820F931F9A83898380916D04D7
:101BD000882339F480916F04803819F481E00E94E1
:101BE000520D89819A819C838B8389819A81019688
:101BF0009A8389838B819C81FC0114911D838D8143
:101C00008E838E818F3F49F08E810E941B148091BC
:101C10006F048F5F80936F04D9CF000027960FB6B3
:101C2000F894DEBF0FBECDBFCF91DF911F91089515
:101C3000DF93CF9300D0CDB7DEB79A8389830CC0F2
:101C400089819A81FC01208189819A8101969A83F8
:101C50008983822F0E94B50D89819A81FC01808140
:101C6000882371F70F900F90CF91DF9108950F9314
:101C70001F93DF93CF93CDB7DEB760970FB6F8947D
:101C8000DEBF0FBECDBF6C877D878E879F87488B59
:101C900019828C859D85AE85BF850097A105B1050C
:101CA000C1F419820DC08981882F90E09E012E5FBA
:101CB0003F4F820F931FFC01108289818F5F8983C0
:101CC00099818889981708F061C089818A3058F312
:101CD0005DC0198244C08C859D85AE85BF85009707
:101CE000A105B10549F18981082F10E08C859D85FA
:101CF000AE85BF852AE030E040E050E0BC01CD0178
:101D00000E94A729DC01CB01282FCE010296800F6B
:101D1000911FFC0120838C859D85AE85BF852AE0BF
:101D200030E040E050E0BC01CD010E94A7292C87A3
:101D30003D874E875F8710C088898F3F39F188893A
:101D40008B3020F58981882F90E09E012E5F3F4FD8
:101D5000820F931FFC01108289818F5F8983998193
:101D60008889981708F4B7CF11C08981882F90E02F
:101D700001979E012E5F3F4F820F931FFC018081D0
:101D8000805D0E94B50D8981815089838981882376
:101D900061F760960FB6F894DEBF0FBECDBFCF914E
:101DA000DF911F910F910895DF93CF93CDB7DEB7E9
:101DB00060970FB6F894DEBF0FBECDBF6C877D87EE
:101DC0008E879F87488B19828C859D85AE85BF85C0
:101DD0000097A105B105C1F419820DC08981882F32
:101DE00090E09E012E5F3F4F820F931FFC011082F7
:101DF00089818F5F898399818889981708F072C0DB
:101E000089818A3058F36EC019823BC08C859D85CC
:101E1000AE85BF850097A105B105F1F08981882FB6
:101E200090E02C85422F4F709E012E5F3F4F820F16
:101E3000931FFC0140838C859D85AE85BF8568948A
:101E400013F8B695A795979587951694D1F78C8733
:101E50009D87AE87BF8712C088898F3F09F442C033
:101E600088898B3008F03EC08981882F90E09E01E0
:101E70002E5F3F4F820F931FFC01108289818F5F7D
:101E8000898399818889981708F4C0CF2BC08981EC
:101E9000882F90E001979E012E5F3F4F820F931F86
:101EA000FC0180818A3068F08981882F90E0019759
:101EB0009E012E5F3F4F820F931FFC018081895C42
:101EC0000CC08981882F90E001979E012E5F3F4FC3
:101ED000820F931FFC018081805D0E94B50D898176
:101EE000815089838981882391F660960FB6F89492
:101EF000DEBF0FBECDBFCF91DF910895DF93CF93AB
:101F000000D000D000D0CDB7DEB76A837B838C834E
:101F10009D834E8328C08E81882F90E09C012150A4
:101F2000304081E090E002C0880F991F2A95E2F7C7
:101F30009C01442737FD4095542F8A819B81AC81B9
:101F4000BD8182239323A423B52321E00097A1051B
:101F5000B10509F420E029838981805D0E94B50DD7
:101F60008E8181508E838E818823A9F626960FB6A6
:101F7000F894DEBF0FBECDBFCF91DF910895DF9300
:101F8000CF93CDB7DEB728970FB6F894DEBF0FBE5C
:101F9000CDBF6D837E838F8398876D817E818F8196
:101FA00098850E942F28DC01CB0189839A83AB831B
:101FB000BC8389819A81AB81BC81BC01CD014FEF8B
:101FC0000E94370E8EE20E94B50D69817A818B8165
:101FD0009C810E945B289B01AC016D817E818F8179
:101FE00098850E945E27DC01CB018D839E83AF83A1
:101FF000B8876D817E818F81988520E034E244E747
:1020000059E40E941129DC01CB01BC01CD010E94E1
:102010002F28DC01CB0189839A83AB83BC83898120
:102020009A81AB81BC81BC01CD014FEF0E94370E7C
:1020300028960FB6F894DEBF0FBECDBFCF91DF91CB
:102040000895DF93CF93CDB7DEB768970FB6F894B6
:10205000DEBF0FBECDBFCE014F96988F8F8B8D8D7B
:102060009E8D9A838983BEC189819A81FC0180817A
:1020700089878985853209F0ADC189819A81019668
:102080009A83898389819A81FC01808189878985E6
:10209000803300F189858A33E8F41A8614C08A8572
:1020A000880F982F990F990F980F8985890F805362
:1020B0008A8789819A8101969A83898389819A8105
:1020C000FC01808189878985803338F089858A334E
:1020D00030F304C08FEF8A8701C000008985882F04
:1020E00090E08835910509F4F1C08935910504F532
:1020F0008434910509F470C08534910564F4823408
:10210000910509F419C1833491058CF58532910547
:1021100009F45CC162C18335910509F445C1853577
:10212000910509F4A2C08634910509F424C155C172
:102130008636910509F41FC1873691055CF4833614
:102140009105A9F08436910509F18236910509F4CB
:10215000D7C043C18537910509F470C08837910510
:1021600009F49DC08337910509F41EC136C18F89DA
:10217000988D9C012E5F3F4F388F2F8BFC01808103
:102180009181898789850E94B50D27C18F89988D96
:102190009C012E5F3F4F388F2F8BFC0180819181F6
:1021A0009C838B838B819C81992354F48B819C81AC
:1021B000909581959F4F9C838B838DE20E94B50DF6
:1021C0008B819C81AA2797FDA095BA2FBC01CD01D8
:1021D0004A850E94370E01C18F89988D9C012C5F22
:1021E0003F4F388F2F8BFC0180819181A281B38179
:1021F0008D839E83AF83B8878D819E81AF81B885A3
:10220000BB2394F48D819E81AF81B885B095A09554
:10221000909581959F4FAF4FBF4F8D839E83AF8326
:10222000B8878DE20E94B50D8D819E81AF81B88502
:10223000BC01CD014A850E94370ECFC08F89988D91
:102240009C012E5F3F4F388F2F8BFC018081918145
:102250009C878B878B859C85CC01A0E0B0E0BC017E
:10226000CD014A850E94370EB8C08F89988D9C0198
:102270002C5F3F4F388F2F8BFC0180819181A28191
:10228000B3818D879E87AF87B88B8D859E85AF85FF
:10229000B889BC01CD014A850E94370E9EC08F8946
:1022A000988D9C012E5F3F4F388F2F8BFC018081D2
:1022B00091819C878B878B859C85CC01A0E0B0E0C9
:1022C000BC01CD014A850E94D40E87C08F89988DAC
:1022D0009C012C5F3F4F388F2F8BFC0180819181B7
:1022E000A281B3818D879E87AF87B88B8D859E85B0
:1022F000AF85B889BC01CD014A850E94D40E6DC05E
:102300008F89988D9C012E5F3F4F388F2F8BFC015A
:10231000808191819C878B878A858F3F11F480E132
:102320008A878B859C85CC01A0E0B0E0BC01CD0103
:102330004A850E947E0F51C08F89988D9C012C5F29
:102340003F4F388F2F8BFC0180819181A281B38117
:102350008D879E87AF87B88B8A858F3F11F480E188
:102360008A878D859E85AF85B889BC01CD014A8558
:102370000E947E0F32C08F89988D9C012C5F3F4F49
:10238000388F2F8BFC0180819181A281B381898B51
:102390009A8BAB8BBC8B89899A89AB89BC89BC0130
:1023A000CD010E94BF0F19C08F89988D9C012E5FAF
:1023B0003F4F388F2F8BFC01808191819E8B8D8BBD
:1023C0008D899E890E94180E000007C085E20E9438
:1023D000B50D03C089850E94B50D89819A8101964A
:1023E0009A83898389819A81FC018081882309F0FD
:1023F0003BCE68960FB6F894DEBF0FBECDBFCF912F
:10240000DF910895DF93CF9300D0CDB7DEB7198267
:1024100016C089810E94780D1A820BC08A8180348F
:1024200011F40E94391780E00E941B148A818F5F8B
:102430008A838A81882394F789818F5F8983898140
:10244000883038F380E00E94780D0F900F90CF9184
:10245000DF910895DF93CF93CDB7DEB729970FB6FD
:10246000F894DEBF0FBECDBF88876987888584302A
:1024700008F06FC08985853608F06BC08885829525
:10248000880F807E8B838B81803410F41D8205C081
:1024900081E08D838B8180548B838B81982F985F13
:1024A0008D8160E0492F0E94F40C8985882F90E08F
:1024B000A0E0B0E0BC01CD0143E00E94370E898569
:1024C0008695898789858695869586958E8397E0FA
:1024D0008E81292F281B822F8F8381E0898336C02C
:1024E0008B81982F945F8D816981492F0E94F40C14
:1024F00099818F81981710F41C821AC099818F815D
:102500009817A1F4898587708C838C81882F90E03F
:1025100028E030E0281B390B8FEF90E0022E02C03C
:10252000880F991F0A94E2F78C8302C08FEF8C8387
:102530001A8206C08C810E941B148A818F5F8A8355
:102540008A818C30B8F389818F5F89838981883053
:1025500038F229960FB6F894DEBF0FBECDBFCF91EB
:10256000DF910895DF93CF9300D000D0CDB7DEB7D1
:102570008B836C838B81880F8F5F8A838B81843000
:10258000D8F58C818536C0F580E06A8140E00E94F4
:10259000F40C19820CC08981803419F481E00E9406
:1025A000520D8FEF0E941B1489818F5F898399815F
:1025B0008C81981780F38C8189830CC08981803449
:1025C00019F481E00E94520D80E00E941B14898161
:1025D0008F5F89838981843688F381E06A814EE642
:1025E0000E94F40C8C81882F90E0A0E0B0E0BC0148
:1025F000CD0143E00E94370E0F900F900F900F9087
:10260000CF91DF9108950F931F93DF93CF93CDB7B1
:10261000DEB769970FB6F894DEBF0FBECDBF898FC6
:102620000E94361585E390E0298DFC0120838BE321
:1026300090E02BE330E0F90120812F77FC0120832B
:102640008BE390E02BE330E0F90120812F7BFC014C
:1026500020838BE390E02BE330E0F90120812062BE
:10266000FC01208380E090E0A0E0B0E489839A83BD
:10267000AB83BC8369817A818B819C812BEA3AEAA6
:102680004AEA5EE30E941129DC01CB018D839E831F
:10269000AF83B88711E06D817E818F81988520E0BE
:1026A00030E040E85FE30E94C32788230CF010E08D
:1026B000112319F081E08987A3C011E06D817E812B
:1026C0008F81988520E030E04FE753E40E940D2988
:1026D00018160CF010E0112309F489C069817A8181
:1026E0008B819C8120E030E04AE754E40E94C727B8
:1026F000DC01CB018A879B87AC87BD876A857B8598
:102700008C859D8520E030E04AE753E40E94112942
:10271000DC01CB018E879F87A88BB98B11E06E857A
:102720007F858889998920E030E040E85FE30E9456
:10273000C32788230CF010E0112329F081E090E0FA
:102740009B8B8A8B46C011E06E857F85888999892D
:1027500020E03FEF4FE757E40E940D2918160CF0D8
:1027600010E0112361F16A857B858C859D8520E0D1
:1027700030E040E251E40E941129DC01CB01BC01B0
:10278000CD010E942F28DC01CB019B8B8A8B12C0CC
:1027900089E190E09D8B8C8B8C899D898C01C8018F
:1027A0000197F1F78C011D8B0C8B8A899B8901970E
:1027B0009B8B8A8B8A899B89009751F728C06E85ED
:1027C0007F85888999890E942F28DC01CB019B8B0A
:1027D0008A8B8A899B899F8B8E8B8E899F898C019E
:1027E000F8013197F1F78F011F8B0E8B10C06D81AF
:1027F0007E818F8198850E942F28DC01CB018987FB
:102800008985888F888D182F1A95F1F7188F8BE39B
:1028100090E02BE330E0F90120812F7DFC01208343
:1028200069960FB6F894DEBF0FBECDBFCF91DF9192
:102830001F910F9108950F931F93DF93CF93CDB7FF
:10284000DEB769970FB6F894DEBF0FBECDBF898F94
:102850000E94361585E390E030917004298D23277E
:10286000FC0120838BE390E02BE330E0F901208131
:102870002068FC0120838BE390E02BE330E0F9013A
:1028800020812F7BFC0120838BE390E02BE330E061
:10289000F90120812062FC01208380E090E0A0E02B
:1028A000B0E489839A83AB83BC8369817A818B810D
:1028B0009C812BEA3AEA4AEA5EE30E941129DC0194
:1028C000CB018D839E83AF83B88711E06D817E81BC
:1028D0008F81988520E030E040E85FE30E94C327C5
:1028E00088230CF010E0112319F081E08987A3C040
:1028F00011E06D817E818F81988520E030E04FE787
:1029000053E40E940D2918160CF010E0112309F46D
:1029100089C069817A818B819C8120E030E04AE71F
:1029200054E40E94C727DC01CB018A879B87AC87D0
:10293000BD876A857B858C859D8520E030E04AE7F0
:1029400053E40E941129DC01CB018E879F87A88B5D
:10295000B98B11E06E857F858889998920E030E008
:1029600040E85FE30E94C32788230CF010E01123A6
:1029700029F081E090E09B8B8A8B46C011E06E8548
:102980007F858889998920E03FEF4FE757E40E94CF
:102990000D2918160CF010E0112361F16A857B8572
:1029A0008C859D8520E030E040E251E40E941129B1
:1029B000DC01CB01BC01CD010E942F28DC01CB0141
:1029C0009B8B8A8B12C089E190E09D8B8C8B8C89CC
:1029D0009D898C01C8010197F1F78C011D8B0C8B2F
:1029E0008A899B8901979B8B8A8B8A899B8900970F
:1029F00051F728C06E857F85888999890E942F2884
:102A0000DC01CB019B8B8A8B8A899B899F8B8E8B68
:102A10008E899F898C01F8013197F1F78F011F8B07
:102A20000E8B10C06D817E818F8198850E942F282A
:102A3000DC01CB0189878985888F888D182F1A95AD
:102A4000F1F7188F8BE390E02BE330E0F901208160
:102A50002F7DFC01208369960FB6F894DEBF0FBE70
:102A6000CDBFCF91DF911F910F9108950F931F93C9
:102A7000DF93CF93CDB7DEB7E1970FB6F894DEBF03
:102A80000FBECDBF84E390E024E330E0F901208164
:102A90002F77FC0120838BE390E02BE330E0F901FA
:102AA00020812F77FC0120838BE390E02BE330E043
:102AB000F90120812064FC0120838BE390E02BE36B
:102AC00030E0F90120812F7DFC01208380E090E03F
:102AD000A0E0B0E48A839B83AC83BD836A817B8161
:102AE0008C819D812BEA3AEA4AEA5EE30E94112931
:102AF000DC01CB018E839F83A887B98711E06E81AB
:102B00007F818885998520E030E040E85FE30E947E
:102B1000C32788230CF010E0112319F081E08A8785
:102B2000A3C011E06E817F818885998520E030E027
:102B30004FE753E40E940D2918160CF010E0112302
:102B400009F489C06A817B818C819D8120E030E01D
:102B50004AE754E40E94C727DC01CB018B879C879E
:102B6000AD87BE876B857C858D859E8520E030E0B6
:102B70004AE753E40E941129DC01CB018F87988B2F
:102B8000A98BBA8B11E06F85788989899A8920E0B1
:102B900030E040E85FE30E94C32788230CF010E098
:102BA000112329F081E090E09C8B8B8B46C011E0D3
:102BB0006F85788989899A8920E03FEF4FE757E44C
:102BC0000E940D2918160CF010E0112361F16B859D
:102BD0007C858D859E8520E030E040E251E40E94B6
:102BE0001129DC01CB01BC01CD010E942F28DC01A1
:102BF000CB019C8B8B8B12C089E190E09E8B8D8BDF
:102C00008D899E898C01C8010197F1F78C011E8B7B
:102C10000D8B8B899C8901979C8B8B8B8B899C89D5
:102C2000009751F728C06F85788989899A890E9411
:102C30002F28DC01CB019C8B8B8B8B899C89988FF7
:102C40008F8B8F89988D8C01F8013197F1F78F0167
:102C5000188F0F8B10C06E817F81888599850E94A7
:102C60002F28DC01CB018A878A85898F898D182FCF
:102C70001A95F1F7198F8BE390E02BE330E0F9011F
:102C800020812062FC01208380E090E0A0E0B0E49D
:102C90008A8F9B8FAC8FBD8F6A8D7B8D8C8D9D8D28
:102CA0002BEA3AEA4AEA5EE30E941129DC01CB01F1
:102CB0008E8F9F8FA8A3B9A311E06E8D7F8D88A101
:102CC00099A120E030E040E85FE30E94C327882319
:102CD0000CF010E0112319F081E08AA3A3C011E0E9
:102CE0006E8D7F8D88A199A120E030E04FE753E4FD
:102CF0000E940D2918160CF010E0112309F489C068
:102D00006A8D7B8D8C8D9D8D20E030E04AE754E408
:102D10000E94C727DC01CB018BA39CA3ADA3BEA35C
:102D20006BA17CA18DA19EA120E030E04AE753E495
:102D30000E941129DC01CB018FA398A7A9A7BAA7EC
:102D400011E06FA178A589A59AA520E030E040E8C0
:102D50005FE30E94C32788230CF010E0112329F0C1
:102D600081E090E09CA78BA746C011E06FA178A5F9
:102D700089A59AA520E03FEF4FE757E40E940D296F
:102D800018160CF010E0112361F16BA17CA18DA14C
:102D90009EA120E030E040E251E40E941129DC01D4
:102DA000CB01BC01CD010E942F28DC01CB019CA7E7
:102DB0008BA712C089E190E09EA78DA78DA59EA547
:102DC0008C01C8010197F1F78C011EA70DA78BA5F7
:102DD0009CA501979CA78BA78BA59CA5009751F755
:102DE00028C06FA178A589A59AA50E942F28DC018B
:102DF000CB019CA78BA78BA59CA598AB8FA78FA574
:102E000098A98C01F8013197F1F78F0118AB0FA742
:102E100010C06E8D7F8D88A199A10E942F28DC01A2
:102E2000CB018AA38AA189AB89A9182F1A95F1F73A
:102E300019AB83E390E0FC018081881F8827881FFD
:102E400089838981882309F038CE84E390E024E3E4
:102E500030E0F90120812068FC012083E1960FB663
:102E6000F894DEBF0FBECDBFCF91DF911F910F91C0
:102E70000895DF93CF93CDB7DEB78BE390E02BE3DC
:102E800030E0F90120812061FC01208388E390E09B
:102E900028E330E0F90120812D7FFC012083CF91D0
:102EA000DF910895DF93CF93CDB7DEB788E390E04D
:102EB00028E330E0F90120812260FC0120838BE3CC
:102EC00090E02BE330E0F90120812F7EFC0120838C
:102ED000CF91DF910895EF92FF920F931F93DF93AD
:102EE000CF93CDB7DEB72B970FB6F894DEBF0FBEEA
:102EF000CDBF8B8780916F048C8380916E048B8310
:102F00001A8624E530E08B85682F70E040E350E0BE
:102F1000649FC001659F900D749F900D1124820FD6
:102F2000931F9A83898301C000008A858F5F8A87F7
:102F300089819A819E838D8389819A8101969A8362
:102F400089838D819E818C01F801E590F4908F0139
:102F5000F886EF821E830D838F8198858987898506
:102F60000E941B148A85803370F48A858F708823B1
:102F7000D9F68B818F5F8B838C810E9403138B81A9
:102F80000E940313D2CF00002B960FB6F894DEBF39
:102F90000FBECDBFCF91DF911F910F91FF90EF90AA
:102FA0000895DF93CF93CDB7DEB781E062E040E3D1
:102FB0000E94F40C8BE00E946B17CF91DF91089573
:102FC000DF93CF93CDB7DEB781E062E040E30E94AC
:102FD000F40C8CE00E946B17CF91DF910895DF9382
:102FE000CF93CDB7DEB787E390E027E330E0F90178
:102FF00020812F79FC01208388E390E028E330E0F2
:10300000F90120812066FC012083CF91DF91089592
:10301000DF93CF93CDB7DEB786E390E0FC018081EC
:103020008072CF91DF910895DF93CF93CDB7DEB754
:1030300086E390E0FC0180818074CF91DF91089558
:10304000DF93CF9300D0CDB7DEB778940E94E02114
:103050000E94F20B0E94C2210E94C2030E94C52658
:103060000E94D1060E943D260E9490220E94AC0937
:1030700080912001909121010E9439220E94EF1736
:103080001A82198207C00E94BF0589819A81019620
:103090009A83898389819A8121E0843F920798F3FA
:1030A000109224010CC00E94BF05809168048823FF
:1030B00031F01092680480E090E00E947C1A8091C8
:1030C0005B04882381F701C000000E94BF05809146
:1030D00068048823C9F380917B0490917C04A091BB
:1030E0007D04B0917E040097A105B10599F080910F
:1030F0007B0490917C04A0917D04B0917E040197A3
:10310000A109B10980937B0490937C04A0937D0472
:10311000B0937E048091640490916504A09166044C
:10312000B09167040097A105B10599F080916404FE
:1031300090916504A0916604B09167040197A1097C
:10314000B1098093640490936504A0936604B093DE
:1031500067048091750490917604A0917704B091F2
:1031600078040097A105B10599F0809175049091BC
:103170007604A0917704B09178040197A109B10970
:103180008093750490937604A0937704B0937804A9
:10319000109268040E949D2280915604882311F0A9
:1031A0000E943D0B80915A04882321F40E948621BD
:1031B0000E947C1E80912101829586958695837060
:1031C0008170982F81E08927817081708295880FA6
:1031D000880F807C909121019F7B892B8093210116
:1031E00080912001909121010E9439226ECFDF93BE
:1031F000CF930F92CDB7DEB70E94C10C80E00E9442
:10320000780D8091C4029091C502FC018281938166
:103210000E94180E198255C02091C4023091C50237
:103220008981882F90E0880F991F820F931F059640
:10323000FC0180819181009709F43FC08091C40214
:103240009091C502FC01948189819817E9F40E944C
:10325000A20D89818E5F0E94780D2091C402309169
:10326000C5028981882F90E0880F991F820F931FD4
:103270000596FC0180819181FC01828193810E94ED
:10328000180E0E94AC0D1AC089818E5F0E94780DC5
:103290002091C4023091C5028981882F90E0880F67
:1032A000991F820F931F0596FC0180819181FC017B
:1032B000828193810E94180E01C0000089818F5F76
:1032C00089838981853008F4A7CF0F90CF91DF9152
:1032D0000895DF93CF930F92CDB7DEB780915E0450
:1032E000882329F082E090E00E947C1A32C080910D
:1032F000C4029091C502FC0124812F5FFC0124834C
:10330000FC01848189832091C4023091C5028981A6
:10331000882F90E0880F991F820F931F0596FC015C
:1033200080819181009731F48091C4029091C5020F
:10333000FC01148200D08DB79EB7019626EC32E0D6
:10334000FC01318320830E94142A0F900F900E9469
:10335000F7180F90CF91DF910895DF93CF9300D0AE
:10336000CDB7DEB780915E04882329F081E090E03C
:103370000E947C1A44C08091C4029091C502FC0155
:1033800084818A838A810E94F6268A81882369F54E
:10339000198227C02091C4023091C5028981882FEB
:1033A00090E0880F991F820F931F0596FC01808182
:1033B0009181009799F48091C4029091C50229816E
:1033C0002150FC0124838091C4029091C502FC012C
:1033D00084810E94F6260E94F71811C089818F5FB0
:1033E000898389818530B0F20AC08091C4029091AE
:1033F000C5022A812150FC0124830E94F7180F90F6
:103400000F90CF91DF910895DF93CF93CDB7DEB7C3
:1034100080915E04882329F084E090E00E947C1A69
:1034200021C08091C4029091C502FC0180819181EC
:10343000009771F08091C4029091C502FC018081D7
:1034400091819093C5028093C4020E94F7180AC02C
:1034500010925A040E94C10C0E947C1E0E941B21E3
:103460000E948621CF91DF910895DF93CF930F9231
:10347000CDB7DEB780915E04882329F083E090E029
:103480000E947C1A35C08091C4029091C502FC0153
:10349000848189832091C4023091C5028981882F5B
:1034A00090E0880F991F820F931F0596FC01808181
:1034B0009181FC01858196810097B1F02091C40231
:1034C0003091C5028981882F90E0880F991F820F63
:1034D000931F0596FC01808191819093C502809392
:1034E000C4020E94F71804C080E090E00E947C1A99
:1034F0000F90CF91DF910895EF92FF920F931F935A
:10350000DF93CF9300D0CDB7DEB79A8389838091C4
:10351000C4029091C502FC012281338100D000D009
:103520008DB79EB701964AEC52E0FC01518340836F
:10353000FC01338322830E94142A0F900F900F9076
:103540000F908091C4029091C502F2E0833B9F07E7
:1035500009F0E7C080915E04882F90E081309105EA
:1035600099F18230910509F46CC0009709F006C307
:1035700080ED92E00E94292A81E080935A040E9403
:10358000C10C80E00E94780D84ED92E00E94180E3C
:1035900086E00E94780D8AEE92E00E94180E87E085
:1035A0000E94780D82E093E00E94180E80E063E0B4
:1035B00048E20E94F40C0E94B82481E080935E04EB
:1035C00081E080935B04E7C28BE093E00E94292AAC
:1035D00080E063E048E20E94F40C0E94B8248981F4
:1035E0009A818330910509F0CBC20E947B2490938D
:1035F0005D0480935C040E94C10C80E00E94780D01
:1036000084ED92E00E94180E86E00E94780D8FE013
:1036100093E00E94180E87E00E94780D87E293E005
:103620000E94180E80E063E048E20E94F40C809152
:103630005C0490915D040E94302582E080935E04DA
:10364000AAC289819A8182309105E1F08330910587
:1036500079F18130910509F095C280915C049091D7
:103660005D04019690935D0480935C0480E063E0C8
:1036700048E20E94F40C80915C0490915D040E94E9
:10368000302589C280915C0490915D0401979093EC
:103690005D0480935C0480E063E048E20E94F40CE7
:1036A00080915C0490915D040E943025000073C2FB
:1036B000E0903004F0903104009132041091330412
:1036C0000E947B249C0180915C0490915D04A9017F
:1036D000481B590BCA01CC01A0E0B0E0BC01CD01F0
:1036E0000E945B289B01AC01C801B7010E945E27C4
:1036F000DC01CB018093300490933104A093320419
:10370000B093330410925E0410925A0410925B043A
:103710008CE892E09093C5028093C4020E94C10C91
:103720003AC28091C4029091C50252E08F3695074B
:1037300009F580E99AE0ABE0B0E08093A6009093B1
:10374000A700A093A800B093A90010925A048CE897
:1037500092E09093C5028093C4020E94C10C0E9423
:103760007C1E0E941B210E9486218AE393E00E9416
:10377000292A11C28091C4029091C502E2E08C32E4
:103780009E07E1F58091C4029091C502FC018481FD
:103790008823A9F410925A04109254048CE892E001
:1037A0009093C5028093C4020E94830A0E94C10CB8
:1037B0000E947C1E0E941B210E948621ECC18091E8
:1037C000C4029091C502FC018481813009F0E3C1FB
:1037D00081E08093540410925A048CE892E0909314
:1037E000C5028093C4020E94830A0E94C10C0E94F9
:1037F0007C1E0E941B210E948621CDC18091C402A3
:103800009091C502F2E087349F0709F0C4C180910E
:10381000C4029091C502FC018481813009F0CAC0C4
:1038200080915E04882F90E0009729F08130910507
:1038300009F441C0B0C10E94C10C80E00E94780D23
:103840008091C4029091C502FC0187819085FC01A2
:10385000828193810E94180E86E00E94780D8FE08D
:1038600093E00E94180E87E00E94780D8CE493E0AC
:103870000E94180E81E063E045E00E94F40C00D045
:103880008DB79EB7019621E633E0FC01318320839A
:103890000E9421100F900F9080E063E048E20E94A8
:1038A000F40C8091AA009091AB000E94D41D81E09D
:1038B00080935E0470C189819A818230910581F183
:1038C0008330910524F48130910551F064C1833037
:1038D000910509F444C08430910509F456C05BC1D8
:1038E0008091AA009091AB00F8E380349F0708F024
:1038F0004BC18091AA009091AB0006969093AB00CB
:103900008093AA0080E063E048E20E94F40C1092E9
:1039100051048091AA009091AB000E94D41D3BC13C
:103920008091AA009091AB008C33910508F42EC1D0
:103930008091AA009091AB000A979093AB0080937E
:10394000AA0080E063E048E20E94F40C1092510467
:103950008091AA009091AB000E94D41D1CC10E94CE
:10396000F10A10925E0410925A048CE892E090934F
:10397000C5028093C4020E94C10C0E947C1E0E945A
:103980001B210E948621000006C10E94090B109293
:103990005E0410925A048CE892E09093C5028093E2
:1039A000C4020E94C10C0E947C1E0E941B210E9426
:1039B0008621F1C08091C4029091C502FC018481EE
:1039C000823009F0E8C080915E04882F90E0009773
:1039D00029F08130910509F44CC0DDC00E94C10C72
:1039E00080E00E94780D8091C4029091C502FC0194
:1039F00087819085FC01828193810E94180E86E068
:103A00000E94780D8FE093E00E94180E87E00E94DC
:103A1000780D88E693E00E94180E81E067E044E1AB
:103A20000E94F40C8091AC009091AD000E94D41DD6
:103A300081E063E045E00E94F40C00D08DB79EB7B2
:103A4000019621E633E0FC01318320830E9421109E
:103A50000F900F9080E063E048E20E94F40C8091A8
:103A6000AA009091AB000E94D41D81E080935E0477
:103A700092C089819A8182309105B1F1833091059C
:103A800024F48130910551F086C08330910509F40A
:103A90004AC08430910509F45BC07DC08091AA00C2
:103AA0009091AB009C01265030408091AC009091E9
:103AB000AD008217930708F06BC08091AC00909125
:103AC000AD0006969093AD008093AC0080E063E07B
:103AD00048E20E94F40C109251048091AC00909145
:103AE000AD000E94D41D57C08091AC009091AD00F4
:103AF0008C33910508F44EC08091AC009091AD00DC
:103B00000A979093AD008093AC0080E063E048E2B8
:103B10000E94F40C109251048091AC009091AD0081
:103B20000E94D41D38C00E94D90A10925E041092DF
:103B30005A048CE892E09093C5028093C4020E94DC
:103B4000C10C0E947C1E0E941B210E94862123C062
:103B50000E94230B10925E0410925A048CE892E0AB
:103B60009093C5028093C4020E94C10C0E947C1EE7
:103B70000E941B210E94862100000DC000000BC086
:103B8000000009C0000007C0000005C0000003C01D
:103B9000000001C000000F900F90CF91DF911F91A6
:103BA0000F91FF90EF900895DF93CF9300D000D056
:103BB000CDB7DEB79C838B838B819C8120E13EE077
:103BC000B9010E9493299B01C90189838981482FEA
:103BD00050E020E13EE0429FC001439F900D529F84
:103BE000900D11242B813C81A901481B590BCA015E
:103BF0009C838B838B819C812CE330E0B9010E94F4
:103C000093299B01C9018A8389818823B9F4898119
:103C1000282F30E000D000D08DB79EB7019646E740
:103C200053E0FC0151834083FC01338322830E94D3
:103C300021100F900F900F900F9016C08981282FA0
:103C400030E000D000D08DB79EB7019648E753E032
:103C5000FC0151834083FC01338322830E942110A5
:103C60000F900F900F900F908A81882371F400D0ED
:103C70008DB79EB701962BE733E0FC01318320839B
:103C80000E9421100F900F9030C08A818A30B8F4C2
:103C90008A81282F30E000D000D08DB79EB70196E2
:103CA0004FE753E0FC0151834083FC0133832283BF
:103CB0000E9421100F900F900F900F9016C08A81D4
:103CC000282F30E000D000D08DB79EB7019644E891
:103CD00053E0FC0151834083FC01338322830E9423
:103CE00021100F900F900F900F900F900F900F904A
:103CF0000F90CF91DF910895DF93CF93CDB7DEB7CB
:103D00002A970FB6F894DEBF0FBECDBF80E067E004
:103D10004AE00E94F40C0E94B8248091A600909181
:103D2000A700A091A800B091A90081312EE09207D0
:103D300020E0A20720E0B20708F448C08091A60066
:103D40009091A700A091A800B091A9000197A109A6
:103D5000B1098093A6009093A700A093A800B09308
:103D6000A90081E067E044E10E94F40C8091A60084
:103D70009091A700A091A800B091A90020E13EE099
:103D800040E050E0BC01CD010E94A729DA01C90141
:103D900000D000D000D02DB73EB72F5F3F4F48E88E
:103DA00053E0F90151834083F90182839383A48313
:103DB000B5830E9421108DB79EB706960FB6F89472
:103DC0009EBF0FBE8DBF0E94910A17C081E067E0C1
:103DD00044E10E94F40C00D08DB79EB7019620E913
:103DE00033E0FC01318320830E9421100F900F905B
:103DF000809156048460809356048091A5008823A6
:103E000009F0E3C180915404813009F0E9C00E94B7
:103E1000F808DC01CB018B839C83AD83BE8380914A
:103E20009400813089F480E063E041E20E94F40C68
:103E300081E30E94B50D80E064E04EE10E94F40C45
:103E400080E20E94B50D10C080E063E041E20E9474
:103E5000F40C80E20E94B50D80E064E04EE10E9427
:103E6000F40C82E30E94B50D8B819C81AD81BE81F3
:103E70008931F7E49F07F0E0AF07F0E0BF0740F0BB
:103E800088E197E4A0E0B0E08B839C83AD83BE83A0
:103E90008B819C81AD81BE8184369105A105B105E0
:103EA00088F484E690E0A0E0B0E08B839C83AD834F
:103EB000BE8380E062E049E20E94F40C8EE090E074
:103EC0000E946B1781E062E040E10E94F40C8AE0FE
:103ED00090E00E946B178B819C81AD81BE8120E1B7
:103EE00037E240E050E0BC01CD010E94A729DA0191
:103EF000C90189838B819C81AD81BE8120E137E23C
:103F000040E050E0BC01CD010E94A729DC01CB01BB
:103F10008B839C83AD83BE838981882351F080E0AD
:103F200062E044E30E94F40C8981882F90E00E94B3
:103F30006B178B819C81AD81BE8128EE33E040E020
:103F400050E0BC01CD010E94A729DA01C901898393
:103F50008B819C81AD81BE8128EE33E040E050E052
:103F6000BC01CD010E94A729DC01CB018B839C837E
:103F7000AD83BE8381E062E043E00E94F40C89815E
:103F8000882F90E00E946B178B819C81AD81BE8150
:103F900024E630E040E050E0BC01CD010E94A729BA
:103FA000DA01C90189838B819C81AD81BE8124E6C0
:103FB00030E040E050E0BC01CD010E94A729DC01C7
:103FC000CB018B839C83AD83BE8381E062E040E2C2
:103FD0000E94F40C8981882F90E00E946B1722C107
:103FE0000E947509DC01CB018F839887A987BA8766
:103FF00080919400813089F480E063E041E20E9486
:10400000F40C81E30E94B50D80E064E04EE10E9473
:10401000F40C80E20E94B50D10C080E063E041E244
:104020000E94F40C80E20E94B50D80E064E04EE155
:104030000E94F40C82E30E94B50D8F819885A985BA
:10404000BA85803127E2920720E0A20720E0B2077C
:1040500088F08FE097E2A0E0B0E08F839887A9878F
:10406000BA8780E062E04EE10E94F40C8DE090E0BF
:104070000E946B178F819885A985BA858733910532
:10408000A105B10540F487E390E0A0E0B0E08F83A4
:104090009887A987BA8780E062E044E30E94F40C25
:1040A0008AE090E00E946B178F819885A985BA8578
:1040B00028EE33E040E050E0BC01CD010E94A7298A
:1040C000DA01C9018A838F819885A985BA8528EE8E
:1040D00033E040E050E0BC01CD010E94A729DC01A3
:1040E000CB018F839887A987BA8780E062E049E295
:1040F0000E94F40C8A81882F90E00E946B178F81B8
:104100009885A985BA8524E630E040E050E0BC01FE
:10411000CD010E94A729DA01C9018A838F81988580
:10412000A985BA8524E630E040E050E0BC01CD012D
:104130000E94A729DC01CB018F839887A987BA87C2
:1041400081E062E040E00E94F40C8A81882F90E0D8
:104150000E946B178F819885A985BA852AE030E087
:1041600040E050E0BC01CD010E94A729DA01C9015D
:104170008A838F819885A985BA852AE030E040E05E
:1041800050E0BC01CD010E94A729DC01CB018F8347
:104190009887A987BA8781E062E040E10E94F40C29
:1041A0008A81882F90E00E946B178F819885A9855E
:1041B000BA858A8381E062E040E20E94F40C8A8141
:1041C000882F90E00E946B172DC081E062E040E2F2
:1041D0000E94F40C8FE090E00E946B1781E062E097
:1041E00040E10E94F40C8FE090E00E946B1781E0A8
:1041F00062E040E00E94F40C8FE090E00E946B17B8
:1042000080E062E042E30E94F40C80E190E00E94D2
:104210006B1780E062E047E20E94F40C80E190E0DE
:104220000E946B172A960FB6F894DEBF0FBECDBF63
:10423000CF91DF910895DF93CF93CDB7DEB7809113
:104240005F04882F90E083309105A9F184309105B7
:104250004CF481309105F9F08230910524F50097F6
:1042600091F051C086309105B1F18730910524F469
:104270008430910541F147C087309105A1F1883024
:104280009105C9F140C080E00E94780D89E391E07A
:104290000E94180E38C080E00E94780D83E491E0FF
:1042A0000E94180E30C080E00E94780D8FE291E0ED
:1042B0000E94180E28C080E00E94780D8DE491E0E5
:1042C0000E94180E20C080E00E94780D87E591E0E2
:1042D0000E94180E18C080E00E94780D83E491E0DF
:1042E0000E94180E10C080E00E94780D83E491E0D7
:1042F0000E94180E08C080E00E94780D8FE791E0C0
:104300000E94180E0000CF91DF910895DF93CF93A4
:10431000CDB7DEB70E941418882351F081E060E029
:1043200042E10E94F40C8BE691E00E94180E1EC040
:104330000E940818882389F080915F04882369F01F
:1043400086E080935F0481E060E042E10E94F40C2B
:1043500081E691E00E94180E09C081E060E042E130
:104360000E94F40C85E791E00E94180E809154049D
:10437000882319F00E94E01702C00E94D117CF9144
:10438000DF910895DF93CF93CDB7DEB783E590E05B
:1043900023E530E0F90120812967FC01208387E3D0
:1043A00090E027E330E0F90120812860FC012083C0
:1043B0008CE590E025E9FC012083CF91DF91089501
:1043C000DF93CF93CDB7DEB781E390E021E330E018
:1043D000F9012081206EFC01208380E090E00E94A2
:1043E0003922CF91DF910895DF93CF93CDB7DEB718
:1043F00082E390E022E330E0F90120812064FC01B7
:10440000208382E390E022E330E0F90120812F7BDA
:10441000FC012083CF91DF9108951F93DF93CF9309
:1044200000D0CDB7DEB782E390E022E330E0F901BF
:1044300020812068FC01208381E089838981182FF5
:104440001A95F1F7198382E390E022E330E0F90155
:1044500020812F77FC01208381E08A838A81182FB5
:104460001A95F1F71A830F900F90CF91DF911F915A
:104470000895DF93CF9300D00F92CDB7DEB79B8323
:104480008A83198222C08A819B81992354F482E312
:1044900090E022E330E0F90120812062FC012083DA
:1044A00009C082E390E022E330E0F90120812F7D12
:1044B000FC0120830E94F4218A819B81880F991F2F
:1044C0009B838A8389818F5F898389818031D8F238
:1044D0000E940D220F900F900F90CF91DF910895C1
:1044E000DF93CF93CDB7DEB7809120018F7D80938E
:1044F0002001809121018F778093210180912001FB
:104500008F7E80932001809120018F7B80932001FA
:10451000809120018F7780932001CF91DF910895C2
:10452000DF93CF93CDB7DEB70E94C10C10925F042A
:104530000E941B21CF91DF910895DF93CF93CDB7D8
:10454000DEB780915F04882F90E08330910509F4F5
:1045500071C0843091053CF481309105A9F082301E
:104560009105A4F5C0C08630910509F483C0873059
:1045700091050CF4ADC08730910509F48DC08830E9
:10458000910509F493C0AFC089E993E00E94292AFC
:104590000E941418009731F087E080935F040E9416
:1045A0007623A1C00E940818009751F082EB93E097
:1045B0000E94292A86E080935F040E94762393C09C
:1045C00082E080935F040E9476238DC00E941418BD
:1045D000009731F087E080935F040E94762309C042
:1045E0000E940818009729F086E080935F040E94DB
:1045F000762380917B0490917C04A0917D04B091FE
:104600007E040097A105B10529F483E080935F043F
:104610000E9476238091750490917604A09177048E
:10462000B09178040097A105B10509F053C00E942C
:10463000C20B59C080917B0490917C04A0917D04B1
:10464000B0917E040097A105B10529F481E0809323
:104650005F040E9476238091750490917604A09166
:104660007704B09178040097A105B105A9F50E94DF
:10467000C20B39C08CEC93E00E94292A0E940818D2
:10468000009761F586EE93E00E94292A82E08093EC
:104690005F040E94762327C00E941418009701F53A
:1046A00082E080935F040E9476231DC080917B048A
:1046B00090917C04A0917D04B0917E040097A105A7
:1046C000B10581F481E080935F040E9476230BC0E2
:1046D000000009C0000007C0000005C0000003C0C2
:1046E000000001C00000CF91DF910895DF93CF93C8
:1046F000CDB7DEB780915F04882F90E083309105BD
:1047000009F467C0843091054CF48130910501F1C2
:104710008230910514F50097B1F0C1C08630910543
:1047200009F495C0873091052CF48430910509F483
:104730007FC0B5C08730910509F493C088309105DA
:1047400009F494C0ACC00E9470220E941B21A7C033
:104750000E941B210E947022A2C00E94D1082091B9
:10476000AA003091AB008091AC009091AD00A901FE
:10477000481B590BCA01CC01A0E0B0E080937B0438
:1047800090937C04A0937D04B0937E040E947022D9
:1047900080912001806180932001809120018062BE
:1047A00080932001809120018860809320010E94E5
:1047B0001B218091970390919803CC01A0E0B0E079
:1047C0008093750490937604A0937704B093780453
:1047D00066C00E94A9080E94702280912001806416
:1047E00080932001809120018160809320010E94AC
:1047F0001B218091AC009091AD00CC01A0E0B0E015
:1048000080937B0490937C04A0937D04B0937E04FA
:104810008091970390919803CC01A0E0B0E0809341
:10482000750490937604A0937704B093780437C00E
:104830000E947022809120018064809320018091E9
:1048400021018068809321010E941B2128C00E94C1
:104850007022809120018061809320010E941B21A1
:104860001EC00E9470220E941B2119C00E9470224B
:10487000809120018F77809320010E941B218091DD
:10488000790490917A04CC01A0E0B0E080937B049D
:1048900090937C04A0937D04B0937E040000CF919C
:1048A000DF910895DF93CF9300D0CDB7DEB79A8321
:1048B000898389819A81FC01808191810F900F9079
:1048C000CF91DF910895DF93CF9300D000D0CDB783
:1048D000DEB79A8389837C836B8389819A812B815C
:1048E0003C81FC01318320830F900F900F900F903B
:1048F000CF91DF910895DF93CF9300D0CDB7DEB78E
:1049000080912E0490912F04CC01A0E0B0E0BC0176
:10491000CD010E945B28DC01CB0120913404309151
:1049200035044091360450913704BC01CD010E94FA
:104930001129DC01CB0120913004309131044091E8
:10494000320450913304BC01CD010E945F27DC0189
:10495000CB01BC01CD010E942F28DC01CB019A8341
:10496000898389819A810F900F90CF91DF9108956B
:10497000DF93CF93CDB7DEB727970FB6F894DEBF9E
:104980000FBECDBF0E947B249A83898389819A813F
:10499000CC01A0E0B0E02DB73EB72A5030400FB6B2
:1049A000F8943EBF0FBE2DBF2DB73EB72F5F3F4FD0
:1049B000AE014D5F5F4FF9015183408345E050E008
:1049C000F9015383428348E354E0F901558344835A
:1049D000F90186839783A087B1870E945E2A2DB74D
:1049E0003EB7265F3F4F0FB6F8943EBF0FBE2DBFB8
:1049F0008B81682F70E08C81482F50E08D81282FAB
:104A000030E08DB79EB708970FB6F8949EBF0FBEE3
:104A10008DBF8DB79EB70196ECE3F4E0DC01ED931A
:104A2000FC93FC0173836283DC0115965C934E93C7
:104A30001497FC01378326830E9421102DB73EB7BF
:104A4000285F3F4F0FB6F8943EBF0FBE2DBF27968D
:104A50000FB6F894DEBF0FBECDBFCF91DF910895A2
:104A6000DF93CF93CDB7DEB727970FB6F894DEBFAD
:104A70000FBECDBF9F838E838E819F81CC01A0E02E
:104A8000B0E02DB73EB72A5030400FB6F8943EBF85
:104A90000FBE2DBF2DB73EB72F5F3F4FAE014F5F0B
:104AA0005F4FF9015183408345E050E0F9015383A2
:104AB000428348E354E0F90155834483F901868336
:104AC0009783A087B1870E945E2A2DB73EB7265FE5
:104AD0003F4F0FB6F8943EBF0FBE2DBF8981682FA0
:104AE00070E08A81482F50E08B81282F30E08DB70D
:104AF0009EB708970FB6F8949EBF0FBE8DBF8DB7B7
:104B00009EB70196ECE3F4E0DC01ED93FC93FC012D
:104B100073836283DC0115965C934E931497FC01BA
:104B2000378326830E9421102DB73EB7285F3F4F61
:104B30000FB6F8943EBF0FBE2DBF27960FB6F89460
:104B4000DEBF0FBECDBFCF91DF9108950F931F93AE
:104B5000DF93CF93CDB7DEB72A970FB6F894DEBFB9
:104B60000FBECDBF0E947B249A83898389819A815D
:104B700021E0853F920720F084EF91E09A838983BA
:104B800089819A81009711F41A82198289819A8108
:104B900022E330E0B9010E9493299B01C9018B8374
:104BA00089819A8122E330E0B9010E9493298C83A4
:104BB0008B81882F90E0880F991F880F991F8E5F37
:104BC0009B4FFC0180819181A281B3819C018B81EB
:104BD000882F90E00196880F991F880F991F8E5F8C
:104BE0009B4FFC0180819181A281B381A901481B67
:104BF000590BCA019E838D838B81882F90E0880F8B
:104C0000991F880F991F8E5F9B4FFC0100811181B6
:104C1000228133818D819E8142E350E0BA010E945E
:104C20009329AB01BA018C81482F50E0649FC001E9
:104C3000659F900D749F900D1124CC01A0E0B0E011
:104C4000B901A801481B590B6A0B7B0BDB01CA0198
:104C50008F839887A987BA878F819885A985BA8518
:104C6000BC01CD012A960FB6F894DEBF0FBECDBFB2
:104C7000CF91DF911F910F910895DF93CF93CDB71F
:104C8000DEB785E490E025E430E0F90120812F6073
:104C9000FC01208383E490E023E430E0F9012081EB
:104CA0002D67FC01208389E590E029E530E0F901DA
:104CB00020812068FC012083CF91DF9108951F920D
:104CC0000F920FB60F9211248F939F93AF93BF93C0
:104CD000DF93CF93CDB7DEB7809169048D3709F0AC
:104CE00044C081E0809368048091600490916104E5
:104CF000A0916204B09163040097A105B10599F0F9
:104D00008091600490916104A0916204B091630469
:104D10000197A109B1098093600490936104A09365
:104D20006204B09363048091640490916504A0913F
:104D30006604B09167040097A105B10599F08091D0
:104D4000640490916504A0916604B0916704019792
:104D5000A109B1098093640490936504A09366044B
:104D6000B09367041092690405C0809169048F5F55
:104D700080936904CF91DF91BF91AF919F918F9103
:104D80000F900FBE0F901F901895DF93CF93CDB764
:104D9000DEB780E490E0FC01108289E290E027E633
:104DA000FC0120838AE290E02AE230E0F9012081D0
:104DB0002861FC0120838AE290E02AE230E0F901D8
:104DC00020812068FC01208380E490E020E430E032
:104DD000F90120812668FC0120838FE197E260E0E1
:104DE00070E00E94C929CF91DF910895DF93CF939E
:104DF0000F92CDB7DEB7898300008BE290E0FC0113
:104E00008081882F90E0807290700097B1F38CE2DF
:104E100090E02981FC0120830F90CF91DF910895CC
:104E2000DF93CF93CDB7DEB78BE290E0FC018081BA
:104E30008CE290E0FC018081CF91DF910895DF93B7
:104E4000CF9300D00F92CDB7DEB789837B836A837F
:104E500000008BE290E0FC018081882F90E080725E
:104E600090700097B1F38CE290E02981FC012083DF
:104E700080E090E00F900F900F90CF91DF91089518
:104E80001F920F920FB60F9211248F939F93EF935F
:104E9000FF93DF93CF93CDB7DEB78CE290E0FC01B8
:104EA000808180932201CF91DF91FF91EF919F91BB
:104EB0008F910F900FBE0F901F9018955058BB27E1
:104EC000AA270ED070C161D130F066D120F031F444
:104ED0009F3F11F41EF456C10EF4E095E7FB4CC160
:104EE000E92F72D180F3BA17620773078407950719
:104EF00018F071F49EF58AC10EF4E0950B2EBA2FCE
:104F0000A02D0B01B90190010C01CA01A0011124CF
:104F1000FF27591B99F0593F50F4503E68F11A167B
:104F2000F040A22F232F342F4427585FF3CF46950C
:104F300037952795A795F0405395C9F77EF41F162E
:104F4000BA0B620B730B840BBAF09150A1F0FF0FF8
:104F5000BB1F661F771F881FC2F70EC0BA0F621FE4
:104F6000731F841F48F4879577956795B795F795D4
:104F70009E3F08F0B3CF9395880F08F09927EE0F66
:104F8000979587950895D4D008F481E008950CD0C2
:104F90000AC102D140F0F9D030F021F45F3F19F09E
:104FA000EBC0511134C1EEC00FD198F39923C9F36E
:104FB0005523B1F3951B550BBB27AA27621773071F
:104FC000840738F09F5F5F4F220F331F441FAA1FD3
:104FD000A9F333D00E2E3AF0E0E830D09150504093
:104FE000E695001CCAF729D0FE2F27D0660F771F41
:104FF000881FBB1F261737074807AB07B0E809F023
:10500000BB0B802DBF01FF2793585F4F2AF09E3FB7
:10501000510568F0B1C0FBC05F3FECF3983EDCF394
:10502000869577956795B795F7959F5FC9F7880F30
:10503000911D9695879597F90895E1E0660F771F82
:10504000881FBB1F621773078407BA0720F0621B13
:10505000730B840BBA0BEE1F88F7E0950895BCD054
:1050600088F09F5790F0B92F9927B751A0F0D1F051
:10507000660F771F881F991F1AF0BA95C9F712C0DB
:10508000B13081F0C3D0B1E00895C0C0672F782F50
:105090008827B85F39F0B93FCCF386957795679547
:1050A000B395D9F73EF490958095709561957F4FB3
:1050B0008F4F9F4F0895E89409C097FB3EF4909559
:1050C0008095709561957F4F8F4F9F4F9923A9F0E1
:1050D000F92F96E9BB279395F69587957795679570
:1050E000B795F111F8CFFAF4BB0F11F460FF1BC0B4
:1050F0006F5F7F4F8F4F9F4F16C0882311F096E947
:1051000011C0772321F09EE8872F762F05C06623F4
:1051100071F096E8862F70E060E02AF09A95660FAD
:10512000771F881FDAF7880F9695879597F9089566
:10513000990F0008550FAA0BE0E8FEEF16161706A8
:10514000E807F907C0F012161306E407F50798F010
:10515000621B730B840B950B39F40A2661F0232B29
:10516000242B252B21F408950A2609F4A140A695A5
:105170008FEF811D811D089597F99F6780E870E08A
:1051800060E008959FEF80EC089500240A941616BD
:10519000170618060906089500240A941216130625
:1051A000140605060895092E0394000C11F48823B3
:1051B00052F0BB0F40F4BF2B11F460FF04C06F5FCF
:1051C0007F4F8F4F9F4F089557FD9058440F551FA5
:1051D00059F05F3F71F04795880F97FB991F61F079
:1051E0009F3F79F087950895121613061406551FF0
:1051F000F2CF4695F1DF08C0161617061806991F5C
:10520000F1CF86957105610508940895E894BB2750
:1052100066277727CB0197F908958ADF08F48FEF87
:1052200008950BD0C0CFB1DF28F0B6DF18F095237A
:1052300009F0A2CFA7CF1124EACFC6DFA0F3959F34
:10524000D1F3950F50E0551F629FF001729FBB276D
:10525000F00DB11D639FAA27F00DB11DAA1F649F19
:105260006627B00DA11D661F829F2227B00DA11DCC
:10527000621F739FB00DA11D621F839FA00D611D52
:10528000221F749F3327A00D611D231F849F600D73
:10529000211D822F762F6A2F11249F5750408AF0AC
:1052A000E1F088234AF0EE0FFF1FBB1F661F771F38
:1052B000881F91505040A9F79E3F510570F05CCF78
:1052C000A6CF5F3FECF3983EDCF386957795679524
:1052D000B795F795E7959F5FC1F7FE2B880F911D56
:1052E0009695879597F90895629FD001739FF00175
:1052F000829FE00DF11D649FE00DF11D929FF00D66
:10530000839FF00D749FF00D659FF00D9927729F9C
:10531000B00DE11DF91F639FB00DE11DF91FBD0127
:10532000CF0111240895AA1BBB1B51E107C0AA1F7E
:10533000BB1FA617B70710F0A61BB70B881F991F36
:105340005A95A9F780959095BC01CD010895A1E2E9
:105350001A2EAA1BBB1BFD010DC0AA1FBB1FEE1FEF
:10536000FF1FA217B307E407F50720F0A21BB30B3A
:10537000E40BF50B661F771F881F991F1A9469F7B6
:1053800060957095809590959B01AC01BD01CF0112
:1053900008950F931F93CF93DF938C01EB01009738
:1053A00011F42097C9F181E090E06EE070E00E9476
:1053B000A42CFC019C01009789F180E8838320974D
:1053C00071F0D387C28781E8838380917F049091B5
:1053D0008004009721F4F0938004E0937F0401158A
:1053E0001105E1F0118700878381826083838091BA
:1053F000810490918204009789F4F0938204E093F1
:1054000081048091830490918404009739F4F0938F
:105410008404E093830402C020E030E0C901DF91FE
:10542000CF911F910F910895A0E0B0E0EAE1FAE278
:105430000C94C22EFE013596619171918091810488
:1054400090918204AF010E948F2A2096E2E00C9492
:10545000DE2EEF92FF920F931F93CF93DF938C0179
:10546000E0918104F0918204838181FF1FC0C0E03C
:10547000D0E00AC0DB011896ED91FC9119970995CF
:10548000009711F0CFEFDFEFF80181918F0160916C
:10549000810470918204882369F7DB011896ED91ED
:1054A000FC9119978AE00995009711F0CFEFDFEF93
:1054B000CE01CDB7DEB7E6E00C94DA2EAEE0B0E078
:1054C000E4E6FAE20C94C02E0D891E898F89988D2E
:1054D00026E02C831A83098397FF02C080E090E8BE
:1054E00001979E838D839E01255E3F4FCE010196DD
:1054F000698D7A8DA9010E948F2A4D815E8157FDA9
:105500000AC02F813885421753070CF49A01020F05
:10551000131FF80110822E96E4E00C94DC2EACE010
:10552000B0E0E5E9FAE20C94B22E6C011B018A01AD
:10553000FC0117821682838181FFD1C12E0108945C
:10554000411C511CF6019381F10193FD859193FF5C
:1055500081911F01882309F4BEC1853239F493FD7E
:10556000859193FF81911F01853229F490E0B60166
:105570000E94182EE7CFEE24FF2420E02032B0F462
:105580008B3269F08C3228F4803251F0833271F41E
:105590000BC08D3239F0803349F421602CC0226079
:1055A000246029C0286027C0206125C027FD2CC0A9
:1055B000382F30533A3098F426FF08C08E2D880FCC
:1055C000E82EEE0CEE0CE80EE30E15C08F2D880FC2
:1055D000F82EFF0CFF0CF80EF30E20620CC08E327A
:1055E00021F426FD78C1206406C08C3611F42068B1
:1055F00002C0883649F4F10193FD859193FF8191B2
:105600001F01882309F0BACF982F9554933018F0D2
:105610009052933028F40C5F1F4FFFE3F9830DC0C5
:10562000833631F0833771F0833509F060C022C0D2
:10563000F801808189830E5F1F4F420171E0A72E20
:10564000B12C16C062E0662E712C600E711EF8013E
:105650008080918026FF03C06E2D70E002C06FEF46
:105660007FEFC4012C870E940D2E5C0183012C85E5
:105670002F7717C052E0652E712C600E711EF80155
:105680008080918026FF03C06E2D70E002C06FEF16
:105690007FEFC4012C870E94FB2D5C012C852068C4
:1056A000830123FD20C008C080E290E0B6012C8772
:1056B0000E94182EFA942C858F2D90E0A816B9061A
:1056C00098F311C0F40127FD859127FF81914F01C7
:1056D00090E0B6012C870E94182E2C85F110FA94C8
:1056E0000894A108B108A114B10461F7F1C084368F
:1056F00011F0893649F527FF08C0F80160817181F2
:10570000828193810C5F1F4F09C0F8016081718114
:10571000882777FD8095982F0E5F1F4F4FE6B42E98
:10572000B22297FF09C090958095709561957F4F43
:105730008F4F9F4FF0E8BF2AA2012AE030E00E947D
:10574000442E782E741845C0853731F43FEEB32EC1
:10575000B2222AE030E025C099EFB92EB2228F366E
:10576000C1F0803720F4883509F0B5C00DC080370E
:1057700021F0883709F0AFC002C020E1B22AB4FEA0
:105780000BC084E0B82A08C0B4FE09C0E6E0BE2A17
:1057900006C028E030E005C020E130E002C020E192
:1057A00032E0B7FE08C0F801608171818281938187
:1057B0000C5F1F4F07C0F8016081718180E090E0AD
:1057C0000E5F1F4FA2010E94442E782E7418FFE72F
:1057D000BF22B6FE0BC02EEFB2227E1438F4B4FE08
:1057E00007C0B2FC05C08FEEB82202C0A72C01C0D2
:1057F000AE2C8B2D90E0B4FE0DC0FE01E70DF11D27
:105800002081203319F4E9EEBE2209C0A394B2FE30
:1058100006C004C086789070009709F0A3948B2C82
:105820009924B3FC14C0B0FE0FC0AF1428F4E72CC9
:10583000EF0CEA18AF2C08C0E72C06C080E290E01D
:10584000B6010E94182EA394AF14C0F304C0AF1485
:1058500010F4FA1801C0FF2484FE0FC080E390E02A
:10586000B6010E94182E82FE1FC081FE03C088E58B
:1058700090E010C088E790E00DC0C4018678907079
:10588000009791F081FC02C080E201C08BE2B7FC7E
:105890008DE290E0B6010E94182E06C080E390E0F1
:1058A000B6010E94182EEA947E14C0F37A94F20195
:1058B000E70DF11D808190E0B6010E94182E77203F
:1058C000A9F706C080E290E0B6010E94182EFA9473
:1058D000FF20C1F737CEF6012681378102C02FEFB6
:1058E0003FEFC9012C96E2E10C94CE2EE199FECF58
:1058F0009FBB8EBBE09A99278DB30895A6E1B0E0D7
:1059000044E050E00C94A42EA8E1B0E042E050E066
:105910000C94A42E262FE199FECF9FBB8EBB2DBBEE
:105920000FB6F894E29AE19A0FBE01960895242FDB
:105930000E948B2C252F0E948B2C0C949F2C0E9454
:105940008A2C272F0C948B2CEF92FF920F931F938E
:10595000CF93DF93689F8001699F100D789F100D92
:105960001124C8010E94C82CE82EE7017E01F92EFF
:10597000E701209731F08E2D60E070E0A8010E94D1
:10598000062E7E01CE01CDB7DEB7E6E00C94DA2E0E
:10599000CF93DF938230910510F482E090E0E091A4
:1059A0008704F091880440E050E020E030E026C019
:1059B0006081718168177907E0F06817790781F4D1
:1059C000828193812115310531F0D90113969C9381
:1059D0008E9312972BC0909388048093870426C0DF
:1059E0004115510519F06417750718F4AB01E90169
:1059F000DF019F0172816381E72FF62F3097C1F697
:105A00004115510501F1481B590B4430510580F4F3
:105A100012968D919C911397209719F09B838A83FE
:105A200004C09093880480938704FD01329646C099
:105A3000FD01E40FF51F8193919342505040119660
:105A40005C934E933BC020918504309186042115D0
:105A5000310541F420914B0430914C04309386047D
:105A60002093850420914D0430914E042115310579
:105A700041F42DB73EB74091490450914A04241B8C
:105A8000350BE0918504F0918604E217F307A0F44A
:105A90002E1B3F0B2817390778F0AC014E5F5F4F84
:105AA0002417350748F04E0F5F1F5093860440932C
:105AB00085048193919302C0E0E0F0E0CF01DF9193
:105AC000CF910895CF93DF93009709F491C0FC0123
:105AD0003297138212826091870470918804611555
