:100000000C9486030C9411080C9453070C94A303CE
:100010000C94862B0C94A3030C94A3030C94A303BD
:100020000C94A3030C943E070C94A3030C94A30319
:100030000C94A3030C94672C0C94A3030C94A303BB
:100040000C94E9030C94A3030C94A3030C94A30352
:100050000C94A3030000C0E0F0F838181838F8F04A
:10006000E0C0000000FFFFFFFF000000000000FFF5
:10007000FFFFFF0000071F3F7FF8E0C0C0E0F87FF0
:100080003F1F0700000000808080C0E0F8F8F8F80B
:10009000000000000000000101010101FFFFFFFF5F
:1000A000000000000000000000000000FFFFFFFF54
:1000B000000000000080E0F0F0783818181878F898
:1000C000F0E0C00000010101010080C0E0F0F87F15
:1000D0003F1F0F00E0F0F8FCFEDFCFC7C3C1C0C078
:1000E000C0C0C00000C0E0F0F83818181838F8F0A8
:1000F000E0C0000000000000000030303078FFFF5A
:10010000EFC78000000C3C7C7CF0E0C0C0E0F07FDA
:100110007F3F0F0000000000000000C0E0F8F8F88A
:10012000F80000000080E0F07C3E0F0701FFFFFFB9
:10013000FF000000070707070606060606FFFFFF89
:10014000FF0606060000F8F8F8F81818181818182E
:100150001800000000003F3F3F1F1C0C0C1C3CF827
:10016000F8F0C000000C3C7C7CF0E0C0C0E0F07F08
:100170007F3F0F0000C0E0F0F83818181838F8F08A
:10018000E0C0000000FFFFFFFF381C0C0C1C3CFC13
:10019000F8F0C00000071F3F7FF8E0C0C0E0F07F2C
:1001A0007F3F0F0000181818181818181818D8F8DA
:1001B000F8F8380000000000000000C0F8FEFF3F23
:1001C0000F0100000000000000F0FEFFFF0F010023
:1001D000000000000000C0F0F0F838181838F8F0FF
:1001E000F0C00000000083CFFFFF7C78787CFFFF29
:1001F000CF830000001F3F7F7FF0E0C0C0E0F07FB2
:100200007F3F1F000080E0F0F07838181838F8F0D1
:10021000E0C00000000F3F7FFFF0E0C0C0E070FFD3
:10022000FFFFFF0000183878F8E0C0C0E0F0FC7F66
:100230003F1F03000000000000000000000000005D
:1002400000E0E0E00000000000000000000000000E
:1002500000E0E0E0E0000000000000E0E0E0E0E0BE
:10026000E0E0E00000000000000000F0F8181818BE
:100270003830000000FE2020103E003173636363BD
:100280007F3E00000002728A8A8A0202FA0AFA0A93
:10029000FA0200000000F0204020F000E0301010D2
:1002A00030E0000000000700000017A045A7100084
:1002B000070500000000788484840100FC04F90430
:1002C000F800000000000000C0E0C0800000000056
:1002D0000000000000000000000103078FDEFCF8B2
:1002E0007020000000000000183C1E0F07030100F2
:1002F000000000000000000000000000000080C0BE
:10030000E0C00000000000002070F8FCDE8F070352
:1003100001000000000000000000000103070F1EA4
:100320003C18000000000000000000000000000079
:1003300000000000000000383838383838383838C5
:10034000383800000000000000000000000000003D
:10035000000000000000000000000000000000009D
:10036000000000000000000000000000000000008D
:10037000000000000000000000000000000000007D
:1003800000000000FFFFFFFFFF00FFFFFFFFFFFF78
:1003900000FFFFFFFFFFFF00FFFFFFFFFFFF00FF6A
:1003A000FFFFFFFFFF00FFFFFFFFFFFF00FFFFFF5B
:1003B000FFFFFF00FFFFFFFFFFFF00FFFFFFFFFF4B
:1003C000FF00FFFFFFFFFFFF00FFFFFFFFFFFF003A
:1003D000FFFFFFFFFFFF00FFFFFFFFFFFF00FFFF2B
:1003E000FFFFFFFF00FFFFFFFFFFFF00FFFFFFFF1B
:1003F000FFFF00FFFFFFFFFFFF00FFFFFFFFFFFF0B
:1004000000FFFFFFFFFFFF00FFFFFFFFFFFF00FFF9
:10041000FFFFFFFFFF00FFFFFFFFFFFF00FFFFFFEA
:10042000FFFFFF00FFFFFFFFFFFF00FFFFFFFFFFDA
:10043000FF00FFFFFFFFFFFF00FFFFFFFFFFFF00C9
:10044000FFFFFFFFFFFF00FFFFFFFFFFFF00FFFFBA
:10045000FFFFFFFF00FFFFFFFFFFFF00FFFFFFFFAA
:10046000FFFF00FF0000000000FFFF00004F000042
:1004700000FF000700070000FF147F147F1400FF37
:10048000242A7F2A1200FF231308646200FF3649E2
:1004900055222000FF000503000000FF001C224140
:1004A0000000FF0041221C0000FF14083E08140059
:1004B000FF08083E080800FF503000000000FF0859
:1004C0000808080800FF006060000000FF20100816
:1004D000040200FF3E5149453E00FF40427F40403C
:1004E00000FF426151494600FF2141454B3100FF69
:1004F0001814127F1000FF274545453900FF3C4A7C
:1005000049493000FF017109050300FF3649494997
:100510003600FF064949291E00FF0036360000005C
:10052000FF005636000000FF081422410000FF14AF
:100530001414141400FF004122140800FF0201519A
:10054000090600FF000002050200FF7E1111117E66
:1005500000FF7F4949493600FF3E4141412200FFEB
:100560007F4141221C00FF7F4949494100FF7F092B
:1005700009090100FF3E4149497A00FF7F08080848
:100580007F00FF00417F410000FF2040413F01000C
:10059000FF7F0814224100FF7F4040404000FF7F62
:1005A000020C027F00FF7F0408107F00FF3E4141E4
:1005B000413E00FF7F0909090600FF3E4151215ECF
:1005C00000FF7F0919294600FF264949493200FFEB
:1005D00001017F010100FF3F4040403F00FF1F201D
:1005E00040201F00FF3F4038403F00FF63140814C5
:1005F0006300FF070870080700FF61514945430089
:10060000FF007F41410000FF020408102000FF00AE
:1006100041417F0000FF040201020400FF4040400E
:10062000404000FF000003050000FF2054545478B0
:1006300000FF7F4444443800FF384444444400FFF2
:10064000384444447F00FF385454541800FF0404D5
:100650007E050500FF085454543C00FF7F08040445
:100660007800FF00447D4000FFFF2040443D00FF34
:10067000FF7F10284400FFFF417F4000FFFFFF7C09
:10068000047C047800FF7C0804047800FF384444AC
:10069000443800FF7C1414140800FF081414147C60
:1006A00000FF7C08040400FFFF485454542400FF5A
:1006B00004043F444400FF3C4040207C00FF1C20D9
:1006C00040201C00FF3C4030403C00FF44281028E4
:1006D0004400FF0C5050503C00FF4464544C440014
:1006E000FF083641410000FF000077000000FF00D6
:1006F0004141360800FF08082A1C0800FF081C2A90
:10070000080800FFFFFFFFFFFF00FF0011241FBECE
:10071000CFE5D8E0DEBFCDBF13E0A0E6B0E0E2ED6C
:10072000F7E602C005900D92A637B107D9F713E09E
:10073000A6E7B3E001C01D92A33CB107E1F70E9418
:100740006B1A0C94E7330C940000DF93CF93CDB772
:10075000DEB7F89481E0CF91DF910895DF93CF93D6
:1007600000D0CDB7DEB79A8389838FE590E02981E9
:100770003A81F9012081FC0120830F900F90CF91E5
:10078000DF910895DF93CF93CDB7DEB786E290E097
:1007900026E230E0F90120812760FC01208387E216
:1007A00090E020E4FC01208386E290E026E230E045
:1007B000F90120812868FC01208386E290E026E28E
:1007C00030E0F90120812064FC012083CF91DF918A
:1007D00008951F920F920FB60F921124EF92FF927D
:1007E0000F931F932F933F934F935F936F937F9339
:1007F0008F939F93AF93BF93EF93FF93DF93CF9329
:1008000000D000D0CDB7DEB78FE590E0FC0180814D
:100810008C830E94A5038B8313C084E290E0FC01CB
:100820008081282F30E085E290E0FC018081882FD4
:1008300090E0982F8827822B932B9A8389831B82A1
:100840008B81882351F7CE0104960E94AE0387E284
:1008500090E0FC018081882F90E08034910529F0A0
:100860008134910509F447C08CC087E290E021E40F
:10087000FC01208380913E0390913F03CC01A0E0D6
:10088000B0E0BC01CD010E94822DDC01CB01BC0196
:10089000CD012DEC3CEC4CE45FE30E94382EDC01F2
:1008A000CB017C018D0189819A81CC01A0E0B0E06F
:1008B000BC01CD010E94822DDC01CB01BC01CD0128
:1008C0002DEC3CEC4CE45EE30E94382EDC01CB01C5
:1008D0009C01AD01C801B7010E94862CDC01CB014F
:1008E000BC01CD010E94562DDC01CB0190933F034A
:1008F00080933E0346C087E290E020E4FC01208321
:1009000080910C0390910D03CC01A0E0B0E0BC01FC
:10091000CD010E94822DDC01CB01BC01CD0120E084
:1009200030E040E05FE30E94382EDC01CB017C0127
:100930008D0189819A81CC01A0E0B0E0BC01CD019C
:100940000E94822DDC01CB01BC01CD0120E030E012
:1009500040E05FE30E94382EDC01CB019C01AD0139
:10096000C801B7010E94862CDC01CB01BC01CD017E
:100970000E94562DDC01CB0190930D0380930C0354
:10098000000086E290E026E230E0F9012081206458
:10099000FC0120832496DEBFCDBFCF91DF91FF9174
:1009A000EF91BF91AF919F918F917F916F915F91E7
:1009B0004F913F912F911F910F91FF90EF900F90CA
:1009C0000FBE0F901F901895DF93CF930F92CDB766
:1009D000DEB7898387E290E027E230E0F9012081E9
:1009E000322F307E29812F71232BFC01208386E258
:1009F00090E026E230E0F90120812064FC012083B0
:100A0000000086E290E0FC018081882F90E08071F8
:100A100090700097B1F386E290E026E230E0F901B1
:100A200020812061FC01208384E290E0FC01808130
:100A300091810F90CF91DF9108950F931F93DF93D2
:100A4000CF93CDB7DEB760970FB6F894DEBF0FBE79
:100A5000CDBF85E390E0FC0180818F8784E390E047
:100A6000FC018081888B87E390E027E330E0F90187
:100A700020812E7FFC01208388E390E028E330E092
:100A8000F90120812E7FFC01208384E390E0FC01AA
:100A9000108285E390E02FEFFC01208387E390E054
:100AA00027E330E0F90120812160FC01208388E305
:100AB00090E028E330E0F90120812E7FFC012083C3
:100AC00080E090E0A0E8BFE389839A83AB83BC8396
:100AD00069817A818B819C8120E030E04AE755E48E
:100AE0000E94382EDC01CB018D839E83AF83B887B3
:100AF00011E06D817E818F81988520E030E040E8B3
:100B00005FE30E94EA2C88230CF010E0112329F007
:100B100081E090E09A87898746C011E06D817E81EF
:100B20008F81988520E03FEF4FE757E40E94342EF5
:100B300018160CF010E0112361F169817A818B8124
:100B40009C8120E030E040E251E40E94382EDC013C
:100B5000CB01BC01CD010E94562DDC01CB019A874F
:100B6000898712C080E991E09C878B878B859C8563
:100B70008C01C8010197F1F78C011C870B878985CF
:100B80009A8501979A87898789859A85009751F771
:100B900017C06D817E818F8198850E94562DDC0162
:100BA000CB019A87898789859A859E878D878D85D0
:100BB0009E858C01F8013197F1F78F011E870D8713
:100BC00083E390E0FC01808180958093A40385E31A
:100BD00090E02F85FC01208384E390E02889FC01CC
:100BE00020838091A40360960FB6F894DEBF0FBEF9
:100BF000CDBFCF91DF911F910F910895DF93CF93D8
:100C000000D00F92CDB7DEB79A8389836B83898139
:100C10009A81FC0191818B819817D1F089819A8109
:100C2000FC0180818230A0F089819A812B81FC01B6
:100C3000218389819A81FC01108289819A81FC013A
:100C40008181882341F189819A81FC01818124C0BD
:100C500089819A81FC0191818B81981789F0898122
:100C60009A81FC018081823058F489819A81FC014B
:100C70008081282F2F5F89819A81FC0120830BC0FE
:100C800089819A81FC0191818B81981721F4898156
:100C90009A81FC01108280E00F900F900F90CF910D
:100CA000DF910895DF93CF930F92CDB7DEB719820E
:100CB0000E941D058093A4032091A40386E793E07E
:100CC000622F0E94FE05898380910B01882319F011
:100CD0008981887089838981882F90E0843091058B
:100CE00009F461C0853091054CF48130910509F417
:100CF00068C08230910509F45DC077C080319105EC
:100D0000B9F1813191052CF48830910509F43DC089
:100D10006CC08032910599F08034910509F058C07B
:100D200080919903882331F481E0809399030E9494
:100D3000D0285BC0109299030E94D02856C08091A1
:100D40008003882309F046C080919903843031F4F0
:100D500081E0809399030E94D02847C08091990335
:100D60008823D1F184E0809399030E94D0283DC06C
:100D700080918003882319F00E949E1C36C081E078
:100D8000809380030E94431B30C080910B01882315
:100D900029F18EE492E09093600280935F0280E0FC
:100DA0000E94231D22C0809180038823C9F00E94E5
:100DB000121C1BC0809180038823A1F00E94DE1CBE
:100DC00014C080918003882379F00E94481C0DC0D4
:100DD00000000BC0000009C0000007C0000005C0F3
:100DE000000003C0000001C000000F90CF91DF9110
:100DF0000895DF93CF93CDB7DEB7F89481E0CF911C
:100E0000DF910895DF93CF9300D0CDB7DEB79A83FB
:100E100089838FE590E029813A81F9012081FC01E5
:100E200020830F900F90CF91DF910895DF93CF93A0
:100E3000CDB7DEB710927903109278030E940809AB
:100E400085E590E025E530E0F90120812A60FC018C
:100E500020838FE490E0FC0110828EE490E025E096
:100E6000FC01208389E590E029E530E0F90120814B
:100E70002460FC012083CF91DF9108951F920F928F
:100E80000FB60F9211248F93DF93CF93CDB7DEB7B8
:100E900081E080938300CF91DF918F910F900FBEFF
:100EA0000F901F9018951F920F920FB60F9211245A
:100EB000EF92FF920F931F932F933F934F935F9364
:100EC0006F937F938F939F93AF93BF93EF93FF9312
:100ED000DF93CF9300D0CDB7DEB78FE590E0FC0174
:100EE00080818A830E94F90689836FC08CE490E038
:100EF000FC01808191819093A6038093A5038CE4EB
:100F000090E0FC011182108280916000282F30E077
:100F10008091A5039091A6032817390708F045C0D2
:100F20008091A5039091A603CC01A0E0B0E0BC01A4
:100F3000CD010E94822DDC01CB01BC01CD012DEC45
:100F40003CEC4CEC5DE30E94382EDC01CB017C01D3
:100F50008D018091740090917500CC01A0E0B0E00B
:100F6000BC01CD010E94822DDC01CB01BC01CD0171
:100F700026E636E646E65FE30E94382EDC01CB012A
:100F80009C01AD01C801B7010E94862CDC01CB0198
:100F9000BC01CD010E94562DDC01CB019093750060
:100FA0008093740010927B030FC080917B038F5F4E
:100FB00080937B0380917B03853630F010927B0316
:100FC000109275001092740019828981882309F0AB
:100FD0008DCFCE0102960E940207109283008AE50F
:100FE00090E02AE530E0F90120812068FC012083AF
:100FF0000F900F90CF91DF91FF91EF91BF91AF9143
:101000009F918F917F916F915F914F913F912F9120
:101010001F910F91FF90EF900F900FBE0F901F90B8
:1010200018951F920F920FB60F921124EF92FF9214
:101030000F931F932F933F934F935F936F937F93E0
:101040008F939F93AF93BF93EF93FF93DF93CF93D0
:1010500000D0CDB7DEB78FE590E0FC0180818A83B8
:101060000E94F90689836FC08CE490E0FC018081C6
:1010700091819093A6038093A5038CE490E0FC01FA
:101080001182108280916000282F30E08091A503AA
:101090009091A6032817390708F045C08091720087
:1010A00090917300CC01A0E0B0E0BC01CD010E94A2
:1010B000822DDC01CB01BC01CD012AE939E949E9E6
:1010C0005EE30E94382EDC01CB017C018D01809112
:1010D000A5039091A603CC01A0E0B0E0BC01CD0136
:1010E0000E94822DDC01CB01BC01CD0123E333E35F
:1010F00043E35FE30E94382EDC01CB019C01AD018C
:10110000C801B7010E94862CDC01CB01BC01CD01D6
:101110000E94562DDC01CB019093730080937200E6
:1011200010927B030FC080917B038F5F80937B03C2
:1011300080917B03853630F010927B031092730010
:101140001092720019828981882309F08DCFCE0117
:1011500002960E940207109283008AE590E02AE539
:1011600030E0F90120812064FC0120830F900F9072
:10117000CF91DF91FF91EF91BF91AF919F918F91AF
:101180007F916F915F914F913F912F911F910F919F
:10119000FF90EF900F900FBE0F901F901895DF9368
:1011A000CF93CDB7DEB78BE590E02BE530E0F901CA
:1011B00020812F77FC0120838BE590E02BE530E048
:1011C000F90120812064FC0120838091CD008823D7
:1011D00019F487E080937A001092CD0081E080932B
:1011E000710080918003882381F480E063E041E214
:1011F0000E94990E82E30E945A0F80E064E04EE163
:101200000E94990E80E20E945A0FCF91DF910895BB
:10121000DF93CF93CDB7DEB78BE590E02BE530E0E1
:10122000F90120812F7BFC0120838BE590E02BE5E9
:1012300030E0F90120812068FC0120838091CC00FE
:10124000882319F487E080937A001092CC001092E2
:10125000710080918003882381F480E063E041E2A3
:101260000E94990E80E20E945A0F80E064E04EE1F5
:101270000E94990E83E30E945A0FCF91DF91089547
:10128000EF92FF920F931F93DF93CF9300D000D084
:10129000CDB7DEB780E090E0DC0189839A83AB8331
:1012A000BC8380917100813009F0C5C080917200CB
:1012B00090917300009729F481E090E0A0E0B0E005
:1012C000A4C180917A0061E0882309F060E08091F8
:1012D0007200909173009C01329522952F70232704
:1012E0003F702327409172005091730080917600E7
:1012F00090917700FA01E81BF90BCF0199231CF4B8
:10130000909581959F4F41E02817390708F040E0FC
:10131000862F84238823B1F180917200909173000D
:10132000CC01A0E0B0E0BC01CD010E94822DDC0127
:10133000CB0120916500309166004091670050918B
:101340006800BC01CD010E94382EDC01CB01209148
:101350006100309162004091630050916400BC01D3
:10136000CD010E94862CDC01CB0189839A83AB835B
:10137000BC8380917200909173009093770080936A
:10138000760036C080917A00882329F080917A0017
:10139000815080937A008091760090917700CC0103
:1013A000A0E0B0E0BC01CD010E94822DDC01CB01A8
:1013B000209165003091660040916700509168006F
:1013C000BC01CD010E94382EDC01CB0120916100CF
:1013D000309162004091630050916400BC01CD01E6
:1013E0000E94862CDC01CB0189839A83AB83BC836A
:1013F00069817A818B819C8120E038E04EE856E457
:101400000E94382EDC01CB017C018D010E94CD2A87
:10141000DC01CB01BC01CD010E94822D9B01AC01FE
:10142000C801B7010E94EE2CDC01CB0189839A83AD
:10143000AB83BC83E2C080E061E045E00E94990E8E
:101440008091740090917500CC01A0E0B0E0BC01E7
:10145000CD014AE00E94DC0F8091740090917500EC
:10146000009729F481E090E0A0E0B0E0CEC0809148
:101470007A0061E0882309F060E080917400909127
:1014800075009C01329522952F7023273F702327EA
:10149000409174005091750080917800909179008E
:1014A000FA01E81BF90BCF0199231CF49095819563
:1014B0009F4F41E02817390708F040E0862F84232A
:1014C000882309F44DC0209174003091750000D03C
:1014D00000D08DB79EB7019644E850E0FC015183DF
:1014E0004083FC01338322830E94472F0F900F908B
:1014F0000F900F908091740090917500CC01A0E046
:10150000B0E0BC01CD010E94822DDC01CB01209115
:101510006D0030916E0040916F0050917000BC01E1
:10152000CD010E94382EDC01CB0120916900309161
:101530006A0040916B0050916C00BC01CD010E948B
:10154000862CDC01CB0189839A83AB83BC83809199
:1015500074009091750090937900809378004DC04D
:1015600080917A00882329F080917A0081508093BD
:101570007A00209174003091750000D000D08DB7B2
:101580009EB7019641EA50E0FC0151834083FC0183
:10159000338322830E94472F0F900F900F900F905C
:1015A0008091780090917900CC01A0E0B0E0BC017E
:1015B000CD010E94822DDC01CB0120916D00309184
:1015C0006E0040916F0050917000BC01CD010E94EF
:1015D000382EDC01CB012091690030916A004091E6
:1015E0006B0050916C00BC01CD010E94862CDC0187
:1015F000CB0189839A83AB83BC8369817A818B8198
:101600009C810E94562DDC01CB01BC01CD010F90C5
:101610000F900F900F90CF91DF911F910F91FF903E
:10162000EF900895DF93CF9300D000D0CDB7DEB711
:101630000E944009DC01CB01BC01CD010E94822D3A
:10164000DC01CB0189839A83AB83BC8329813A81F6
:101650004B815C8160E074E284E799E40E94EE2CA7
:10166000DC01CB0189839A83AB83BC8389819A8116
:10167000AB81BC81BC01CD010E94562DDC01CB01A8
:1016800000D000D000D02DB73EB72F5F3F4F4EEBBC
:1016900050E0F90151834083F90182839383A4834D
:1016A000B5830E94472F8DB79EB706960FB6F89464
:1016B0009EBF0FBE8DBF89819A81AB81BC81BC0169
:1016C000CD010E94562DDC01CB01BC01CD010F9054
:1016D0000F900F900F90CF91DF910895DF93CF93EC
:1016E000CDB7DEB780E090E00E94823121E0823009
:1016F0009207E1F582E090E00E94743180937A03D2
:1017000087E090E00E947C31DC01CB0180934003B4
:1017100090934103A0934203B09343038BE090E086
:101720000E947C31DC01CB018093440390934503FC
:10173000A0934603B093470383E090E00E94823178
:10174000CC01A0E0B0E02CE330E040E050E0BC0190
:10175000CD010E949B2EDC01CB018093CE009093A3
:10176000CF00A093D000B093D10002C00E94BB0B69
:10177000CF91DF910895DF93CF93CDB7DEB780E0AF
:1017800090E062E071E00E949D3182E090E060E0D4
:101790000E9488318091CE009091CF00A091D0001E
:1017A000B091D1002CE330E040E050E0BC01CD012D
:1017B0000E94DA2EDA01C9019C0183E090E0B901B0
:1017C0000E949D3187E090E040E050E0BA010E9425
:1017D00095318BE090E040E050E060E47FE30E94D0
:1017E0009531CF91DF910895DF93CF93CDB7DEB7D9
:1017F00020917A0382E090E0622F0E948831CF919D
:10180000DF910895DF93CF9300D0CDB7DEB78091FD
:10181000CE009091CF00A091D000B091D1002CE3E8
:1018200030E040E050E0BC01CD010E94DA2EDA0148
:10183000C9019A83898383E090E029813A81B901C3
:101840000E949D310F900F90CF91DF910895DF930B
:10185000CF93CDB7DEB72091400330914103409143
:1018600042035091430387E090E0BA01A9010E942E
:1018700095312091440330914503409146035091A6
:1018800047038BE090E0BA01A9010E94953183E003
:101890000E941D0F8091440390914503A09146033F
:1018A000B0914703BC01CD010E94641184E00E9405
:1018B0001D0F8091400390914103A0914203B0918C
:1018C0004303BC01CD010E946411CF91DF910895C3
:1018D000DF93CF93CDB7DEB787E090E00E947C31F5
:1018E000DC01CB018093400390934103A09342031A
:1018F000B09343038BE090E00E947C31DC01CB018C
:101900008093440390934503A0934603B093470309
:10191000CF91DF910895DF93CF930F92CDB7DEB7CC
:1019200080917D0390917E03019690937E03809336
:101930007D0380917D0390917E03863091050CF4A8
:101940003EC080917F038F5F80937F0380917F03F0
:10195000898307C089818F5F89838981893008F0F5
:10196000198280917C03882F90E02981222F30E01A
:10197000022E02C0959587950A94E2F781709070C7
:10198000009741F3898180937F0381E090E00E947A
:101990001D0F22ED30E08981882F90E0880F991F7C
:1019A000AC01440F551F440F551F840F951F820F24
:1019B000931F0E94BD0F10927E0310927D030F9023
:1019C000CF91DF910895DF93CF9300D000D0CDB7B2
:1019D000DEB70E944009DC01CB0189839A83AB8387
:1019E000BC8389819A81AB81BC81803D27E09207CD
:1019F00020E0A20720E0B20748F480917100813016
:101A000029F480917C03816080937C030F900F9078
:101A10000F900F90CF91DF9108950F931F93DF9355
:101A2000CF93CDB7DEB76D970FB6F894DEBF0FBE7C
:101A3000CDBF8AE390E02AE330E0F9012081206FF6
:101A4000FC01208384E390E0FC01808184E390E04A
:101A50002FEFFC01208387E390E027E330E0F901DA
:101A600020812260FC0120830E9416198FE30E94CE
:101A7000C5140E94FD188FE30E94C51480E090E019
:101A8000A0E2B1E48A839B83AC83BD836A817B81BE
:101A90008C819D8120E030E04AE753E40E94382E9B
:101AA000DC01CB018E839F83A887B98711E06E810B
:101AB0007F818885998520E030E040E85FE30E94DF
:101AC000EA2C88230CF010E0112329F081E090E04B
:101AD0009B878A8746C011E06E817F8188859985C2
:101AE00020E03FEF4FE757E40E94342E18160CF029
:101AF00010E0112361F16A817B818C819D8120E05E
:101B000030E040E251E40E94382EDC01CB01BC0100
:101B1000CD010E94562DDC01CB019B878A8712C024
:101B200089E190E09D878C878C859D858C01C8011B
:101B30000197F1F78C011D870C878A859B8501979A
:101B40009B878A878A859B85009751F717C06E818E
:101B50007F81888599850E94562DDC01CB019B876A
:101B60008A878A859B859F878E878E859F858C0136
:101B7000F8013197F1F78F011F870E870E94161920
:101B800080EC0E94C5140E94FD1880EC0E94C514D0
:101B90000E94660E83E00E941D0F80EF90E00E947D
:101BA000BD0F81E0898383C080E090E0A0E2B1E4D2
:101BB000888B998BAA8BBB8B688979898A899B8949
:101BC00020E030E04AE753E40E94382EDC01CB01EC
:101BD0008C8B9D8BAE8BBF8B11E06C897D898E8940
:101BE0009F8920E030E040E85FE30E94EA2C8823F0
:101BF0000CF010E0112329F081E090E0998F888F9C
:101C000046C011E06C897D898E899F8920E03FEF75
:101C10004FE757E40E94342E18160CF010E0112301
:101C200061F1688979898A899B8920E030E040E206
:101C300051E40E94382EDC01CB01BC01CD010E9491
:101C4000562DDC01CB01998F888F12C089E190E07D
:101C50009B8F8A8F8A8D9B8D8C01C8010197F1F72C
:101C60008C011B8F0A8F888D998D0197998F888F92
:101C7000888D998D009751F717C06C897D898E8961
:101C80009F890E94562DDC01CB01998F888F888D0A
:101C9000998D9D8F8C8F8C8D9D8D8C01F801319746
:101CA000F1F78F011D8F0C8F89818F5F8983898167
:101CB0008F3F09F079CF6D960FB6F894DEBF0FBE57
:101CC000CDBFCF91DF911F910F910895DF93CF93F7
:101CD00000D00F92CDB7DEB78091AA038B8310920C
:101CE000AA03198217C089810E941D0F1A820CC095
:101CF0008A81803419F481E00E94F70E80E00E940E
:101D0000DD158A818F5F8A838A8188238CF7898198
:101D10008F5F89838981883030F38B818093AA0318
:101D200080E00E941D0F0F900F900F90CF91DF91D8
:101D30000895DF93CF9300D00F92CDB7DEB789839C
:101D40006A834B838981882319F08981813009F561
:101D50008A818830F0F48B818034D8F4898188239B
:101D600019F40E94161902C00E94FD1889818093FF
:101D7000A7038A81886B8093A8038B8180648093FA
:101D8000A9038091A9030E94C5148091A8030E9411
:101D9000C5140F900F900F90CF91DF910895DF93AE
:101DA000CF9300D000D000D0CDB7DEB79A8389831F
:101DB0007C836B835E834D832091A70389819A8105
:101DC000FC0120832091A8038B819C81FC0120834E
:101DD0002091A9038D819E81FC01208326960FB658
:101DE000F894DEBF0FBECDBFCF91DF910895DF9392
:101DF000CF930F92CDB7DEB789838981882319F0FD
:101E000089818130B1F48981882319F40E941619DF
:101E100002C00E94FD1889818093A70380E480930B
:101E2000A9038091A8030E94C5148091A9030E9470
:101E3000C5140F90CF91DF910895DF93CF930F9248
:101E4000CDB7DEB789838981883038F48981885499
:101E50008093A80380E00E94F70E0F90CF91DF914E
:101E60000895DF93CF93CDB7DEB78091A8038F5F3E
:101E70008093A8038091A803803C18F088EB80939E
:101E8000A80380E00E94F70ECF91DF910895DF93C1
:101E9000CF93CDB7DEB78FEF8093AA03CF91DF91B9
:101EA0000895DF93CF93CDB7DEB71092AA03CF91F9
:101EB000DF9108951F93DF93CF93CDB7DEB72797B8
:101EC0000FB6F894DEBF0FBECDBF8F838091A703FE
:101ED000813021F48091A9038C3718F48F818A30E6
:101EE00011F40E94310F8F818A3009F43CC024E83C
:101EF00033E08F81882F90E0AC01440F551F440FD1
:101F0000551F440F551FBA01681B790BCB01820F77
:101F1000931F9A8389838091A703882339F4809142
:101F2000A903803819F481E00E94F70E89819A8113
:101F30009C838B8389819A8101969A8389838B8183
:101F40009C81FC0114911D838D818E838E818F3F36
:101F500049F08E810E94DD158091A9038F5F8093E7
:101F6000A903D9CF000027960FB6F894DEBF0FBEA5
:101F7000CDBFCF91DF911F910895DF93CF9300D014
:101F8000CDB7DEB79A8389830CC089819A81FC0121
:101F9000208189819A8101969A838983822F0E9468
:101FA0005A0F89819A81FC018081882371F70F90F3
:101FB0000F90CF91DF9108950F931F93DF93CF93ED
:101FC000CDB7DEB760970FB6F894DEBF0FBECDBFBA
:101FD0006C877D878E879F87488B19828C859D852E
:101FE000AE85BF850097A105B105C1F419820DC06A
:101FF0008981882F90E09E012E5F3F4F820F931FB3
:10200000FC01108289818F5F898399818889981763
:1020100008F061C089818A3058F35DC0198244C0DC
:102020008C859D85AE85BF850097A105B10549F1D9
:102030008981082F10E08C859D85AE85BF852AE0BB
:1020400030E040E050E0BC01CD010E94DA2EDC011E
:10205000CB01282FCE010296800F911FFC01208317
:102060008C859D85AE85BF852AE030E040E050E05C
:10207000BC01CD010E94DA2E2C873D874E875F87F9
:1020800010C088898F3F39F188898B3020F589818C
:10209000882F90E09E012E5F3F4F820F931FFC011F
:1020A000108289818F5F898399818889981708F4C4
:1020B000B7CF11C08981882F90E001979E012E5FD4
:1020C0003F4F820F931FFC018081805D0E945A0F59
:1020D0008981815089838981882361F760960FB651
:1020E000F894DEBF0FBECDBFCF91DF911F910F914E
:1020F0000895DF93CF93CDB7DEB760970FB6F8940E
:10210000DEBF0FBECDBF6C877D878E879F87488BD4
:1021100019828C859D85AE85BF850097A105B10587
:10212000C1F419820DC08981882F90E09E012E5F35
:102130003F4F820F931FFC01108289818F5F89833B
:1021400099818889981708F072C089818A3058F37C
:102150006EC019823BC08C859D85AE85BF8500977A
:10216000A105B105F1F08981882F90E02C85422FDF
:102170004F709E012E5F3F4F820F931FFC014083E3
:102180008C859D85AE85BF85689413F8B695A79517
:10219000979587951694D1F78C879D87AE87BF87D3
:1021A00012C088898F3F09F442C088898B3008F0BB
:1021B0003EC08981882F90E09E012E5F3F4F820FA5
:1021C000931FFC01108289818F5F8983998188899F
:1021D000981708F4C0CF2BC08981882F90E0019711
:1021E0009E012E5F3F4F820F931FFC0180818A303A
:1021F00068F08981882F90E001979E012E5F3F4F04
:10220000820F931FFC018081895C0CC08981882F1B
:1022100090E001979E012E5F3F4F820F931FFC01BC
:102220008081805D0E945A0F8981815089838981D4
:10223000882391F660960FB6F894DEBF0FBECDBF2F
:10224000CF91DF910895DF93CF9300D000D000D0DD
:10225000CDB7DEB76A837B838C839D834E8328C092
:102260008E81882F90E09C012150304081E090E0E9
:1022700002C0880F991F2A95E2F79C01442737FD79
:102280004095542F8A819B81AC81BD818223932309
:10229000A423B52321E00097A105B10509F420E0AE
:1022A00029838981805D0E945A0F8E8181508E839F
:1022B0008E818823A9F626960FB6F894DEBF0FBE4E
:1022C000CDBFCF91DF9108951F93DF93CF93CDB70B
:1022D000DEB728970FB6F894DEBF0FBECDBF6D8373
:1022E0007E838F83988711E06D817E818F819885B1
:1022F00020E030E0A9010E94EA2C88230CF010E0D5
:10230000112361F08DE20E945A0F8D819E81AF8171
:10231000B885BF778D839E83AF83B8876D817E81BB
:102320008F8198850E94562DDC01CB0189839A8389
:10233000AB83BC8389819A81AB81BC81BC01CD0117
:102340004FEF0E94DC0F8EE20E945A0F69817A8162
:102350008B819C810E94822D9B01AC016D817E81CD
:102360008F8198850E94852CDC01CB018D839E8313
:10237000AF83B8876D817E818F81988520E034E2BC
:1023800044E759E40E94382EDC01CB01BC01CD01A9
:102390000E94562DDC01CB0189839A83AB83BC83D9
:1023A00089819A81AB81BC81BC01CD014FEF0E9434
:1023B000DC0F28960FB6F894DEBF0FBECDBFCF91CD
:1023C000DF911F910895DF93CF93CDB7DEB7689764
:1023D0000FB6F894DEBF0FBECDBFCE014F96988FDB
:1023E0008F8B8D8D9E8D9A838983BEC189819A81C1
:1023F000FC01808189878985853209F0ADC1898199
:102400009A8101969A83898389819A81FC018081CE
:1024100089878985803300F189858A33E8F41A86B3
:1024200014C08A85880F982F990F990F980F898566
:10243000890F80538A8789819A8101969A8389833B
:1024400089819A81FC01808189878985803338F070
:1024500089858A3330F304C08FEF8A8701C000007A
:102460008985882F90E08835910509F4F1C0893578
:10247000910504F58434910509F470C08534910503
:1024800064F48234910509F419C1833491058CF503
:102490008532910509F45CC162C18335910509F467
:1024A00045C18535910509F4A2C08634910509F42A
:1024B00024C155C18636910509F41FC1873691059F
:1024C0005CF483369105A9F08436910509F18236D2
:1024D000910509F4D7C043C18537910509F470C04F
:1024E0008837910509F49DC08337910509F41EC111
:1024F00036C18F89988D9C012E5F3F4F388F2F8B6F
:10250000FC0180819181898789850E945A0F27C1AA
:102510008F89988D9C012E5F3F4F388F2F8BFC0148
:10252000808191819C838B838B819C81992354F43E
:102530008B819C81909581959F4F9C838B838DE2AD
:102540000E945A0F8B819C81AA2797FDA095BA2FD4
:10255000BC01CD014A850E94DC0F01C18F89988D95
:102560009C012C5F3F4F388F2F8BFC018081918124
:10257000A281B3818D839E83AF83B8878D819E8135
:10258000AF81B885BB2394F48D819E81AF81B885DE
:10259000B095A095909581959F4FAF4FBF4F8D837C
:1025A0009E83AF83B8878DE20E945A0F8D819E81F2
:1025B000AF81B885BC01CD014A850E94DC0FCFC038
:1025C0008F89988D9C012E5F3F4F388F2F8BFC0198
:1025D000808191819C878B878B859C85CC01A0E035
:1025E000B0E0BC01CD014A850E94DC0FB8C08F89E4
:1025F000988D9C012C5F3F4F388F2F8BFC01808181
:102600009181A281B3818D879E87AF87B88B8D859D
:102610009E85AF85B889BC01CD014A850E94DC0F3B
:102620009EC08F89988D9C012E5F3F4F388F2F8BD6
:10263000FC01808191819C878B878B859C85CC0157
:10264000A0E0B0E0BC01CD014A850E94791087C0AE
:102650008F89988D9C012C5F3F4F388F2F8BFC0109
:1026600080819181A281B3818D879E87AF87B88B4E
:102670008D859E85AF85B889BC01CD014A850E94B4
:1026800079106DC08F89988D9C012E5F3F4F388FD8
:102690002F8BFC01808191819C878B878A858F3F5E
:1026A00011F480E18A878B859C85CC01A0E0B0E0A5
:1026B000BC01CD014A850E94231151C08F89988D9C
:1026C0009C012C5F3F4F388F2F8BFC0180819181C3
:1026D000A281B3818D879E87AF87B88B8A858F3F14
:1026E00011F480E18A878D859E85AF85B889BC010C
:1026F000CD014A850E94231132C08F89988D9C019B
:102700002C5F3F4F388F2F8BFC0180819181A281FC
:10271000B381898B9A8BAB8BBC8B89899A89AB8966
:10272000BC89BC01CD010E94641119C08F89988DAC
:102730009C012E5F3F4F388F2F8BFC018081918150
:102740009E8B8D8B8D899E890E94BD0F000007C0D6
:1027500085E20E945A0F03C089850E945A0F898121
:102760009A8101969A83898389819A81FC0180816B
:10277000882309F03BCE68960FB6F894DEBF0FBEF3
:10278000CDBFCF91DF910895DF93CF9300D0CDB728
:10279000DEB7198216C089810E941D0F1A820BC0F4
:1027A0008A81803411F40E94FD1880E00E94DD15BA
:1027B0008A818F5F8A838A81882394F789818F5FDA
:1027C00089838981883038F380E00E941D0F0F9043
:1027D0000F90CF91DF910895DF93CF93CDB7DEB700
:1027E00029970FB6F894DEBF0FBECDBF88876987E3
:1027F0008885843008F06FC08985853608F06BC005
:1028000088858295880F807E8B838B81803410F43D
:102810001D8205C081E08D838B8180548B838B81E9
:10282000982F985F8D8160E0492F0E94990E8985CD
:10283000882F90E0A0E0B0E0BC01CD0143E00E9411
:10284000DC0F898586958987898586958695869505
:102850008E8397E08E81292F281B822F8F8381E022
:10286000898336C08B81982F945F8D816981492F30
:102870000E94990E99818F81981710F41C821AC0BA
:1028800099818F819817A1F4898587708C838C81B9
:10289000882F90E028E030E0281B390B8FEF90E084
:1028A000022E02C0880F991F0A94E2F78C8302C09F
:1028B0008FEF8C831A8206C08C810E94DD158A817D
:1028C0008F5F8A838A818C30B8F389818F5F898397
:1028D0008981883038F229960FB6F894DEBF0FBE92
:1028E000CDBFCF91DF910895DF93CF9300D000D07B
:1028F000CDB7DEB78B836C838B81880F8F5F8A8324
:102900008B818430D8F58C818536C0F580E06A8172
:1029100040E00E94990E19820CC08981803419F41C
:1029200081E00E94F70E8FEF0E94DD1589818F5F95
:10293000898399818C81981780F38C8189830CC05D
:102940008981803419F481E00E94F70E80E00E94B2
:10295000DD1589818F5F89838981843688F381E0E1
:102960006A814EE60E94990E8C81882F90E0A0E04B
:10297000B0E0BC01CD0143E00E94DC0F0F900F904E
:102980000F900F90CF91DF9108950F931F93DF93D6
:10299000CF93CDB7DEB769970FB6F894DEBF0FBE01
:1029A000CDBF898F0E94F81685E390E0298DFC0148
:1029B00020838BE390E02BE330E0F90120812F7737
:1029C000FC0120838BE390E02BE330E0F9012081D0
:1029D0002F7BFC0120838BE390E02BE330E0F901B7
:1029E00020812062FC01208380E090E0A0E0B0E440
:1029F00089839A83AB83BC8369817A818B819C8133
:102A00002BEA3AEA4AEA5EE30E94382EDC01CB0167
:102A10008D839E83AF83B88711E06D817E818F8126
:102A2000988520E030E040E85FE30E94EA2C8823AC
:102A30000CF010E0112319F081E08987A3C011E0A8
:102A40006D817E818F81988520E030E04FE753E4EF
:102A50000E94342E18160CF010E0112309F489C0DE
:102A600069817A818B819C8120E030E04AE754E4DF
:102A70000E94EE2CDC01CB018A879B87AC87BD8747
:102A80006A857B858C859D8520E030E04AE753E4AC
:102A90000E94382EDC01CB018E879F87A88BB98BD3
:102AA00011E06E857F858889998920E030E040E8D3
:102AB0005FE30E94EA2C88230CF010E0112329F038
:102AC00081E090E09B8B8A8B46C011E06E857F850C
:102AD0008889998920E03FEF4FE757E40E94342E20
:102AE00018160CF010E0112361F16A857B858C8546
:102AF0009D8520E030E040E251E40E94382EDC0168
:102B0000CB01BC01CD010E94562DDC01CB019B8B7A
:102B10008A8B12C089E190E09D8B8C8B8C899D897A
:102B20008C01C8010197F1F78C011D8B0C8B8A89F0
:102B30009B8901979B8B8A8B8A899B89009751F788
:102B400028C06E857F85888999890E94562DDC0171
:102B5000CB019B8B8A8B8A899B899F8B8E8B8E89DD
:102B60009F898C01F8013197F1F78F011F8B0E8B34
:102B700010C06D817E818F8198850E94562DDC0169
:102B8000CB0189878985888F888D182F1A95F1F751
:102B9000188F8BE390E02BE330E0F90120812F7D4B
:102BA000FC01208369960FB6F894DEBF0FBECDBF3F
:102BB000CF91DF911F910F9108950F931F93DF9392
:102BC000CF93CDB7DEB769970FB6F894DEBF0FBECF
:102BD000CDBF898F0E94F81685E390E03091AA035B
:102BE000298D2327FC0120838BE390E02BE330E049
:102BF000F90120812068FC0120838BE390E02BE326
:102C000030E0F90120812F7BFC0120838BE390E0F1
:102C10002BE330E0F90120812062FC01208380E079
:102C200090E0A0E0B0E489839A83AB83BC836981A0
:102C30007A818B819C812BEA3AEA4AEA5EE30E9420
:102C4000382EDC01CB018D839E83AF83B88711E0E2
:102C50006D817E818F81988520E030E040E85FE3E0
:102C60000E94EA2C88230CF010E0112319F081E077
:102C70008987A3C011E06D817E818F81988520E0D6
:102C800030E04FE753E40E94342E18160CF010E0A9
:102C9000112309F489C069817A818B819C8120E0AC
:102CA00030E04AE754E40E94EE2CDC01CB018A8735
:102CB0009B87AC87BD876A857B858C859D8520E059
:102CC00030E04AE753E40E94382EDC01CB018E87C6
:102CD0009F87A88BB98B11E06E857F85888999893C
:102CE00020E030E040E85FE30E94EA2C88230CF00B
:102CF00010E0112329F081E090E09B8B8A8B46C085
:102D000011E06E857F858889998920E03FEF4FE744
:102D100057E40E94342E18160CF010E0112361F1D4
:102D20006A857B858C859D8520E030E040E251E41A
:102D30000E94382EDC01CB01BC01CD010E94562D32
:102D4000DC01CB019B8B8A8B12C089E190E09D8BCB
:102D50008C8B8C899D898C01C8010197F1F78C01BE
:102D60001D8B0C8B8A899B8901979B8B8A8B8A8907
:102D70009B89009751F728C06E857F85888999893E
:102D80000E94562DDC01CB019B8B8A8B8A899B8903
:102D90009F8B8E8B8E899F898C01F8013197F1F77B
:102DA0008F011F8B0E8B10C06D817E818F81988566
:102DB0000E94562DDC01CB0189878985888F888DFB
:102DC000182F1A95F1F7188F8BE390E02BE330E082
:102DD000F90120812F7DFC01208369960FB6F894BC
:102DE000DEBF0FBECDBFCF91DF911F910F91089530
:102DF0000F931F93DF93CF93CDB7DEB7E2970FB654
:102E0000F894DEBF0FBECDBF8AE0898384E390E0F3
:102E100024E330E0F90120812F77FC0120838BE34C
:102E200090E02BE330E0F90120812F77FC01208333
:102E30008BE390E02BE330E0F90120812064FC017A
:102E400020838BE390E02BE330E0F90120812F7D9C
:102E5000FC01208380E090E0A0E0B0E48B839C83C1
:102E6000AD83BE836B817C818D819E812BEA3AEAA2
:102E70004AEA5EE30E94382EDC01CB018F839887FB
:102E8000A987BA8711E06F81788589859A8520E0C6
:102E900030E040E85FE30E94EA2C88230CF010E069
:102EA000112319F081E08B87A3C011E06F81788531
:102EB00089859A8520E030E04FE753E40E94342E64
:102EC00018160CF010E0112309F489C06B817C8185
:102ED0008D819E8120E030E04AE754E40E94EE2C90
:102EE000DC01CB018C879D87AE87BF876C857D8594
:102EF0008E859F8520E030E04AE753E40E94382E1B
:102F0000DC01CB01888B998BAA8BBB8B11E0688984
:102F100079898A899B8920E030E040E85FE30E945C
:102F2000EA2C88230CF010E0112329F081E090E0D6
:102F30009D8B8C8B46C011E0688979898A899B8931
:102F400020E03FEF4FE757E40E94342E18160CF0B4
:102F500010E0112361F16C857D858E859F8520E0D1
:102F600030E040E251E40E94382EDC01CB01BC018C
:102F7000CD010E94562DDC01CB019D8B8C8B12C0A4
:102F800089E190E09F8B8E8B8E899F898C01C8018F
:102F90000197F1F78C011F8B0E8B8C899D8901970E
:102FA0009D8B8C8B8C899D89009751F728C06889EF
:102FB00079898A899B890E94562DDC01CB019D8BE2
:102FC0008C8B8C899D89998F888F888D998D8C01A8
:102FD000F8013197F1F78F01198F088F10C06F81B9
:102FE000788589859A850E94562DDC01CB018B87D7
:102FF0008B858A8F8A8D182F1A95F1F71A8F8BE39C
:1030000090E02BE330E0F90120812062FC01208375
:1030100080E090E0A0E0B0E48B8F9C8FAD8FBE8FFE
:103020006B8D7C8D8D8D9E8D2BEA3AEA4AEA5EE3AC
:103030000E94382EDC01CB018F8F98A3A9A3BAA3DD
:1030400011E06F8D78A189A19AA120E030E040E8DD
:103050005FE30E94EA2C88230CF010E0112319F0A2
:1030600081E08BA3A3C011E06F8D78A189A19AA103
:1030700020E030E04FE753E40E94342E18160CF0A5
:1030800010E0112309F489C06B8D7C8D8D8D9E8D90
:1030900020E030E04AE754E40E94EE2CDC01CB0152
:1030A0008CA39DA3AEA3BFA36CA17DA18EA19FA164
:1030B00020E030E04AE753E40E94382EDC01CB01E7
:1030C00088A799A7AAA7BBA711E068A579A58AA593
:1030D0009BA520E030E040E85FE30E94EA2C8823D3
:1030E0000CF010E0112329F081E090E09DA78CA75F
:1030F00046C011E068A579A58AA59BA520E03FEF11
:103100004FE757E40E94342E18160CF010E01123FC
:1031100061F16CA17DA18EA19FA120E030E040E291
:1031200051E40E94382EDC01CB01BC01CD010E948C
:10313000562DDC01CB019DA78CA712C089E190E040
:103140009FA78EA78EA59FA58C01C8010197F1F7B7
:103150008C011FA70EA78CA59DA501979DA78CA7E5
:103160008CA59DA5009751F728C068A579A58AA5CB
:103170009BA50E94562DDC01CB019DA78CA78CA599
:103180009DA599AB88AB88A999A98C01F8013197C5
:10319000F1F78F0119AB08AB10C06F8D78A189A131
:1031A0009AA10E94562DDC01CB018BA38BA18AAB87
:1031B0008AA9182F1A95F1F71AAB83E390E0FC0166
:1031C0008081881F8827881F8A838A81882309F045
:1031D00038CE84E390E024E330E0F90120812068D8
:1031E000FC012083E2960FB6F894DEBF0FBECDBF80
:1031F000CF91DF911F910F910895DF93CF93CDB7BA
:10320000DEB78BE390E02BE330E0F9012081206111
:10321000FC01208388E390E028E330E0F90120817D
:103220002D7FFC012083CF91DF910895DF93CF9311
:10323000CDB7DEB788E390E028E330E0F9012081E4
:103240002260FC0120838BE390E02BE330E0F90166
:1032500020812F7EFC012083CF91DF910895EF9292
:10326000FF920F931F93DF93CF93CDB7DEB7609795
:103270000FB6F894DEBF0FBECDBF888B8091A90337
:103280008D838091A8038B831F861C8224E530E008
:103290008889682F70E040E350E0649FC001659F1B
:1032A000900D749F900D1124820F931F9A83898330
:1032B00088898A30B1F501C000008F858F5F8F87C4
:1032C00089819A819F838E8389819A8101969A83CD
:1032D00089838E819F818C01F801E590F4908F01A4
:1032E000F986E8861F830E83888599858A878A8573
:1032F0000E94DD158F85883108F068C08F8596E0C3
:10330000692F0E94BA2E892F8823B1F68B818F5F97
:103310008B838D810E94C5148B810E94C514CDCFF3
:1033200000008F858F5F8F8789819A819C878B872B
:1033300089819A8101969A8389838B859C858C01EA
:10334000F801E590F4908F01FE86ED861C870B87CF
:103350008D859E858A878A850E94DD158091A903C7
:103360008F5F8093A9038091A90391E0803809F0D1
:1033700090E02091A70381E0222309F080E08923D7
:10338000882329F081E00E94F70E81E08C838F85ED
:103390008033F0F48F858F70882309F0C1CF8B8143
:1033A0008F5F8B838C81882321F080E00E94F70E51
:1033B0001C828D818093A9038B818093A8038D81CA
:1033C0000E94C5148B810E94C514ABCF000001C0C0
:1033D000000060960FB6F894DEBF0FBECDBFCF9150
:1033E000DF911F910F91FF90EF900895DF93CF939E
:1033F000CDB7DEB781E062E040E30E94990E8BE03A
:103400000E942F19CF91DF910895DF93CF93CDB70D
:10341000DEB781E062E040E30E94990E8CE00E94FA
:103420002F19CF91DF910895DF93CF93CDB7DEB7FA
:1034300087E390E027E330E0F90120812F79FC0158
:10344000208388E390E028E330E0F90120812066C2
:10345000FC01208381E390E021E330E0F901208149
:103460002E7FFC01208382E390E022E330E0F9012B
:1034700020812160FC012083CF91DF910895DF93AB
:10348000CF93CDB7DEB786E390E0FC0180818072F8
:10349000CF91DF910895DF93CF93CDB7DEB786E369
:1034A00090E0FC0180818074CF91DF910895DF93DB
:1034B000CF93CDB7DEB780E390E0FC018081882F09
:1034C00090E08170907021E0009709F020E0822F59
:1034D000CF91DF910895DF93CF9300D0CDB7DEB7C2
:1034E00078940E94F52680910701909108010E942E
:1034F0004E270E940D0D0E9473260E94EC2B0E9405
:10350000C2030E94642B0E946E0B0E94141A1A823E
:10351000198207C00E94520689819A8101969A8376
:10352000898389819A8121E0843F920798F31092E0
:103530000B010BC00E9452068091A203882329F040
:103540001092A20380E00E94231D809181038823B2
:1035500089F70E94A5270E94160701C000000E945B
:1035600052068091A2038823C9F30E949426809179
:10357000B5039091B603A091B703B091B80300973B
:10358000A105B10599F08091B5039091B603A09182
:10359000B703B091B8030197A109B1098093B503AE
:1035A0009093B603A093B703B093B80380919E03A2
:1035B00090919F03A091A003B091A1030097A10552
:1035C000B10599F080919E0390919F03A091A00373
:1035D000B091A1030197A109B10980939E03909333
:1035E0009F03A093A003B093A1038091AF03909198
:1035F000B003A091B103B091B2030097A105B1054A
:1036000099F08091AF039091B003A091B103B09174
:10361000B2030197A109B1098093AF039093B0035E
:10362000A093B103B093B2031092A2030E94B627F5
:1036300080917C03882311F00E948B0C8091800381
:10364000882321F40E9438260E94DA208091080104
:1036500082958695869583708170982F81E0892761
:10366000817081708295880F880F807C909108010D
:103670009F7B892B8093080180910701909108011D
:103680000E944E276CCFDF93CF930F92CDB7DEB75A
:1036900020915F02309160028091850390918603B2
:1036A0002817390709F041C080915F0290916002AC
:1036B000FC0184818E5F0E941D0F0E94470F2091A4
:1036C0005F023091600280915F0290916002FC0184
:1036D0008481882F90E0880F991F820F931F059691
:1036E000FC0180819181FC01828193810E94BD0F48
:1036F0000E94510F809107038E5F0E941D0F209141
:103700005F023091600280910703882F90E0880F5C
:10371000991F820F931F0596FC0180819181FC0106
:10372000828193810E94BD0F69C00E94660E80E075
:103730000E941D0F80915F0290916002FC018281C6
:1037400093810E94BD0F198255C020915F02309174
:1037500060028981882F90E0880F991F820F931F44
:103760000596FC0180819181009709F43FC080910A
:103770005F0290916002FC01948189819817E9F4BD
:103780000E94470F89818E5F0E941D0F20915F026A
:10379000309160028981882F90E0880F991F820FF5
:1037A000931F0596FC0180819181FC0182819381A8
:1037B0000E94BD0F0E94510F1AC089818E5F0E9426
:1037C0001D0F20915F02309160028981882F90E067
:1037D000880F991F820F931F0596FC0180819181AC
:1037E000FC01828193810E94BD0F01C0000089818C
:1037F0008F5F89838981853008F4A7CF80915F022C
:1038000090916002909386038093850380915F027C
:1038100090916002FC018481809307030F90CF9107
:10382000DF910895DF93CF930F92CDB7DEB78091EC
:103830008403882321F082E00E94231D25C080910B
:103840005F0290916002FC0124812F5FFC012483C0
:10385000FC018481898320915F023091600289811B
:10386000882F90E0880F991F820F931F0596FC0107
:1038700080819181009731F480915F029091600284
:10388000FC0114820E94431B0F90CF91DF91089599
:10389000DF93CF9300D0CDB7DEB780918403882328
:1038A00021F081E00E94231D44C080915F0290912D
:1038B0006002FC0184818A838A810E941D2C8A8196
:1038C000882369F5198227C020915F023091600238
:1038D0008981882F90E0880F991F820F931F05968A
:1038E000FC0180819181009799F480915F02909111
:1038F000600229812150FC01248380915F02909114
:103900006002FC0184810E941D2C0E94431B11C097
:1039100089818F5F898389818530B0F20AC0809167
:103920005F02909160022A812150FC0124830E9451
:10393000431B0F900F90CF91DF910895DF93CF93AA
:10394000CDB7DEB780918403882321F084E00E9404
:10395000231D31C080915F0290916002FC01808143
:103960009181009771F080915F0290916002FC015B
:10397000808191819093600280935F020E94431B3B
:103980001AC087E292E09093600280935F021092E7
:10399000860310928503109280030E94660E0E9497
:1039A000DA2024EC35E280919903882F90E0F90128
:1039B00009950E943826CF91DF910895DF93CF9328
:1039C0000F92CDB7DEB780918403882321F083E086
:1039D0000E94231D34C080915F0290916002FC011F
:1039E0008481898320915F02309160028981882FD0
:1039F00090E0880F991F820F931F0596FC0180812C
:103A00009181FC01858196810097B1F020915F0240
:103A1000309160028981882F90E0880F991F820F72
:103A2000931F0596FC0180819181909360028093A1
:103A30005F020E94431B03C080E00E94231D0F9081
:103A4000CF91DF910895EF92FF920F931F93DF9331
:103A5000CF930F92CDB7DEB7898310928603109271
:103A6000850380915F029091600222E08E3492077C
:103A700009F049C28981843099F41092810310922F
:103A8000840387E292E09093600280935F02109239
:103A90008603109285030E94660E10928003DAC29C
:103AA00080918403882F90E08230910509F496C0BC
:103AB000833091053CF4009791F08130910509F431
:103AC0003FC0C8C28430910509F455C184309105C6
:103AD0000CF4FCC08530910509F4A1C1BBC281E0A2
:103AE000809380030E94660E80E00E941D0F81E695
:103AF00092E00E94BD0F81E00E941D0F87E792E0D7
:103B00000E94BD0F86E00E941D0F88E892E00E948F
:103B1000BD0F87E00E941D0F80EA92E00E94BD0F5A
:103B200080E063E048E20E94990E0E94CB290E9447
:103B3000122A81E08093840381E0809381038AC20A
:103B400080E063E048E20E94990E0E94CB290E9427
:103B5000122A8981833009F076C280913E039091C8
:103B60003F03CC01A0E0B0E0BC01CD010E94822D5A
:103B7000DC01CB018093870390938803A093890392
:103B8000B0938A030E94CB2990938303809382038E
:103B90000E94660E80E00E941D0F81E692E00E9466
:103BA000BD0F86E00E941D0F89EA92E00E94BD0FC2
:103BB00087E00E941D0F81EC92E00E94BD0F80E023
:103BC00063E048E20E94990E809182039091830302
:103BD0000E94122A82E0809384033CC28981882F4C
:103BE00090E082309105E1F08330910571F18130F0
:103BF000910509F02AC28091820390918303019676
:103C0000909383038093820380E063E048E20E9404
:103C1000990E80918203909183030E94122A55C0CD
:103C20008091820390918303019790938303809303
:103C3000820380E063E048E20E94990E8091820353
:103C4000909183030E94122A40C080918203909138
:103C50008303CC01A0E0B0E0BC01CD010E94822D25
:103C6000DC01CB0180938B0390938C03A0938D0395
:103C7000B0938E030E94660E80E00E941D0F81E6C5
:103C800092E00E94BD0F81E00E941D0F84ED92E042
:103C90000E94BD0F86E00E941D0F88E892E00E94FE
:103CA000BD0F87E00E941D0F80EA92E00E94BD0FC9
:103CB00080E063E048E20E94990E0E94CB290E94B6
:103CC000122A83E0809384030000C4C180E063E093
:103CD00048E20E94990E0E94CB290E94122A8981F3
:103CE000833009F0B4C180913E0390913F03CC0131
:103CF000A0E0B0E0BC01CD010E94822DDC01CB012F
:103D000080938F0390939003A0939103B0939203B9
:103D10000E94CB2990938303809382030E94660EB6
:103D200080E00E941D0F81E692E00E94BD0F81E0BD
:103D30000E941D0F84ED92E00E94BD0F86E00E945C
:103D40001D0F89EA92E00E94BD0F87E00E941D0FBF
:103D500081EC92E00E94BD0F80E063E048E20E94A7
:103D6000990E80918203909183030E94122A84E02D
:103D7000809384036FC18981882F90E08230910500
:103D8000E1F08330910571F18130910509F061C155
:103D90008091820390918303019690938303809393
:103DA000820380E063E048E20E94990E80918203E2
:103DB000909183030E94122A30C0809182039091D7
:103DC00083030197909383038093820380E063E0F1
:103DD00048E20E94990E80918203909183030E9491
:103DE000122A1BC08091820390918303CC01A0E032
:103DF000B0E0BC01CD010E94822DDC01CB0180939B
:103E0000930390939403A0939503B09396030E9419
:103E1000660E85E080938403000000001BC1809142
:103E2000930390919403A0919503B09196032091F0
:103E30008B0330918C0340918D0350918E03BC0114
:103E4000CD010E94852CDC01CB017C018D0180918C
:103E50008F0390919003A0919103B09192032091D0
:103E60008703309188034091890350918A03BC01F4
:103E7000CD010E94852CDC01CB019C01AD01C80164
:103E8000B7010E94EE2CDC01CB0180934403909398
:103E90004503A0934603B0934703E0908B03F09053
:103EA0008C0300918D0310918E03809144039091B7
:103EB0004503A0914603B0914703209187033091B9
:103EC00088034091890350918A03BC01CD010E946F
:103ED000382EDC01CB019C01AD01C801B7010E9465
:103EE000852CDC01CB018093400390934103A09388
:103EF0004203B09343030E94270C0E94680C84E0A5
:103F00000E94231DA7C080915F0290916002E2E0B1
:103F10008A309E0719F588E398E0ABE0B0E0809323
:103F2000CE009093CF00A093D000B093D100109218
:103F3000800387E292E09093600280935F020E9488
:103F4000660E0E94DA2024EC35E280919903882FD6
:103F500090E0F90109950E9438267CC080915F02AB
:103F600090916002F1E0873C9F0709F073C0809157
:103F70005F0290916002FC0184818823D9F4109241
:103F8000800310927A0387E292E09093600280931C
:103F90005F020E94F40B0E94660E0E94DA2024EC5D
:103FA00035E280919903882F90E0F90109950E94EC
:103FB000382623C080915F0290916002FC018481C9
:103FC0008130D9F481E080937A031092800387E2F4
:103FD00092E09093600280935F020E94F40B0E9433
:103FE000660E0E94DA2024EC35E280919903882F36
:103FF00090E0F90109950E94382680917100813086
:1040000089F480E063E041E20E94990E81E30E941E
:104010005A0F80E064E04EE10E94990E80E20E9417
:104020005A0F18C080E063E041E20E94990E80E2DE
:104030000E945A0F80E064E04EE10E94990E82E3F4
:104040000E945A0F07C0000005C0000003C0000016
:1040500001C000000F90CF91DF911F910F91FF9051
:10406000EF900895DF93CF9300D000D0CDB7DEB7A7
:104070009C838B838B819C8120E13EE0B9010E946F
:10408000C62E9B01C90189838981482F50E020E118
:104090003EE0429FC001439F900D529F900D11241E
:1040A0002B813C81A901481B590BCA019C838B833E
:1040B0008B819C812CE330E0B9010E94C62E9B01CC
:1040C000C9018A8389818823B9F48981282F30E046
:1040D00000D000D08DB79EB7019646EE52E0FC01AD
:1040E00051834083FC01338322830E94E3110F90AC
:1040F0000F900F900F9016C08981282F30E000D0CC
:1041000000D08DB79EB7019648EE52E0FC01518376
:104110004083FC01338322830E94E3110F900F90B0
:104120000F900F908A81882371F400D08DB79EB7CD
:1041300001962BEE32E0FC01318320830E94E311D3
:104140000F900F9030C08A818A30B8F48A81282F6E
:1041500030E000D000D08DB79EB701964FEE52E010
:10416000FC0151834083FC01338322830E94E311CD
:104170000F900F900F900F9016C08A81282F30E07B
:1041800000D000D08DB79EB7019644EF52E0FC01FD
:1041900051834083FC01338322830E94E3110F90FB
:1041A0000F900F900F900F900F900F900F90CF9156
:1041B000DF910895DF93CF93CDB7DEB764970FB645
:1041C000F894DEBF0FBECDBF80E067E04AE00E94FA
:1041D000990E0E94CB290E94122A8091CE009091C4
:1041E000CF00A091D000B091D10081312EE0920794
:1041F00020E0A20720E0B20708F44CC080919903A8
:10420000823099F48091CE009091CF00A091D0009F
:10421000B091D1000197A109B1098093CE0090938C
:10422000CF00A093D000B093D10081E067E044E1DB
:104230000E94990E8091CE009091CF00A091D00065
:10424000B091D10020E13EE040E050E0BC01CD0162
:104250000E94DA2EDA01C90100D000D000D02DB7BB
:104260003EB72F5F3F4F48EF52E0F9015183408343
:10427000F90182839383A483B5830E94E3118DB7F0
:104280009EB706960FB6F8949EBF0FBE8DBF0E94D4
:10429000020C17C081E067E044E10E94990E00D053
:1042A0008DB79EB7019620E033E0FC013183208377
:1042B0000E94E3110F900F9080917C0384608093A3
:1042C0007C0380918300882309F028C480917100C9
:1042D000882309F013C280E065E042E00E94990E55
:1042E00083E60E945A0F80917A03813009F00AC157
:1042F0000E944009DC01CB018D839E83AF83B88788
:104300008D819E81AF81B8858A309105A105B10567
:10431000B0F58AE090E0A0E0B0E08D839E83AF83AB
:10432000B88780E062E04DE20E94990E80E190E063
:104330000E942F1980E062E04CE30E94990E8EE00B
:1043400090E00E942F1981E062E04CE00E94990EFB
:1043500080E090E00E942F1981E062E04BE10E9432
:10436000990E8AE090E00E942F1981E062E040E21D
:104370000E94990E82E090E00E942F19FCC381E018
:1043800062E04AE00E94990E8AE090E00E942F19B4
:104390008D819E81AF81B88520E137E240E050E019
:1043A000BC01CD010E94DA2EDA01C90189838D8119
:1043B0009E81AF81B88520E137E240E050E0BC014A
:1043C000CD010E94DA2EDC01CB018D839E83AF8369
:1043D000B8878981882359F080E062E04AE20E9430
:1043E000990E8981882F90E00E942F1909C080E0E2
:1043F00062E04AE20E94990E80E190E00E942F194B
:104400008D819E81AF81B88528EE33E040E050E099
:10441000BC01CD010E94DA2EDA01C90189838D81A8
:104420009E81AF81B88528EE33E040E050E0BC01CA
:10443000CD010E94DA2EDC01CB018D839E83AF83F8
:10444000B88780E062E04AE30E94990E8981882F54
:1044500090E00E942F198D819E81AF81B88524E65E
:1044600030E040E050E0BC01CD010E94DA2EDA01DC
:10447000C90189838D819E81AF81B88524E630E0B2
:1044800040E050E0BC01CD010E94DA2EDC01CB01FE
:104490008D839E83AF83B88781E062E040E10E9414
:1044A000990E8981882F90E00E942F198D819E811D
:1044B000AF81B8852AE030E040E050E0BC01CD019A
:1044C0000E94DA2EDA01C90189838D819E81AF8134
:1044D000B8852AE030E040E050E0BC01CD010E9408
:1044E000DA2EDC01CB018D839E83AF83B88781E018
:1044F00062E040E20E94990E8981882F90E00E943C
:104500002F1939C30E94120BDC01CB0189879A87CE
:10451000AB87BC8789859A85AB85BC858134FCE9EE
:104520009F07F0E0AF07F0E0BF0770F180E062E0C6
:1045300044E30E94990E80E190E00E942F1980E0F0
:1045400062E049E20E94990E80E190E00E942F19FA
:1045500081E062E041E00E94990E8DE090E00E94CF
:104560002F1981E062E040E10E94990E84E090E022
:104570000E942F1981E062E040E20E94990E80E0E3
:1045800090E00E942F19F7C289859A85AB85BC857A
:1045900020E137E240E050E0BC01CD010E94DA2E7C
:1045A000DA01C9018A8389859A85AB85BC8520E1BA
:1045B00037E240E050E0BC01CD010E94DA2EDC0180
:1045C000CB0189879A87AB87BC878A81882359F07A
:1045D00080E062E04AE20E94990E8A81882F90E092
:1045E0000E942F1909C080E062E04AE20E94990E01
:1045F00080E190E00E942F1989859A85AB85BC8562
:1046000028EE33E040E050E0BC01CD010E94DA2EFC
:10461000DA01C9018A8389859A85AB85BC8528EE34
:1046200033E040E050E0BC01CD010E94DA2EDC0115
:10463000CB0189879A87AB87BC8780E062E040E046
:104640000E94990E8A81882F90E00E942F198985F7
:104650009A85AB85BC8524E630E040E050E0BC01A3
:10466000CD010E94DA2EDA01C9018A8389859A85F3
:10467000AB85BC8524E630E040E050E0BC01CD01D4
:104680000E94DA2EDC01CB0189879A87AB87BC8731
:1046900081E062E040E10E94990E8A81882F90E0DB
:1046A0000E942F1989859A85AB85BC852AE030E068
:1046B00040E050E0BC01CD010E94DA2EDA01C901D0
:1046C0008A8389859A85AB85BC852AE030E040E005
:1046D00050E0BC01CD010E94DA2EDC01CB018987BC
:1046E0009A87AB87BC8781E062E040E20E94990E26
:1046F0008A81882F90E00E942F193DC280917A0311
:10470000813009F01EC10E944009DC01CB018D8778
:104710009E87AF87B88B8D859E85AF85B8898D358F
:1047200024E4920720E0A20720E0B20740F088E1ED
:1047300097E4A0E0B0E08D879E87AF87B88B8D852A
:104740009E85AF85B889883C9105A105B105B0F576
:1047500088EC90E0A0E0B0E08D879E87AF87B88BB3
:1047600080E062E04DE20E94990E80E190E00E94BC
:104770002F1980E062E04CE30E94990E8EE090E0F9
:104780000E942F1981E062E04CE00E94990E80E0C7
:1047900090E00E942F1981E062E04BE10E94990EA7
:1047A0008AE090E00E942F1981E062E040E20E94DE
:1047B000990E82E090E00E942F19DDC181E062E055
:1047C0004AE00E94990E8AE090E00E942F198D85A0
:1047D0009E85AF85B88920E137E240E050E0BC011A
:1047E000CD010E94DA2EDA01C9018B838D859E8569
:1047F000AF85B88920E137E240E050E0BC01CD014F
:104800000E94DA2EDC01CB018D879E87AF87B88BA3
:104810008B81882359F080E062E04AE20E94990E81
:104820008B81882F90E00E942F1909C080E062E000
:104830004AE20E94990E80E190E00E942F198D8536
:104840009E85AF85B88928EE33E040E050E0BC019A
:10485000CD010E94DA2EDA01C9018B838D859E85F8
:10486000AF85B88928EE33E040E050E0BC01CD01CF
:104870000E94DA2EDC01CB018D879E87AF87B88B33
:1048800080E062E04AE30E94990E8B81882F90E0DD
:104890000E942F198D859E85AF85B88924E630E06A
:1048A00040E050E0BC01CD010E94DA2EDA01C901DE
:1048B0008B838D859E85AF85B88924E630E040E006
:1048C00050E0BC01CD010E94DA2EDC01CB018D87C6
:1048D0009E87AF87B88B81E062E040E10E94990E2D
:1048E0008B81882F90E00E942F198D859E85AF8542
:1048F000B8892AE030E040E050E0BC01CD010E94E0
:10490000DA2EDA01C9018B838D859E85AF85B88942
:104910002AE030E040E050E0BC01CD010E94DA2EF8
:10492000DC01CB018D879E87AF87B88B81E062E089
:1049300040E20E94990E8B81882F90E00E942F19EF
:104940001AC10E94120BDC01CB01898B9A8BAB8BB5
:10495000BC8B89899A89AB89BC8987339105A1056C
:10496000B10540F487E390E0A0E0B0E0898B9A8B3A
:10497000AB8BBC8B89899A89AB89BC898938E3E187
:104980009E07E0E0AE07E0E0BE0770F180E062E085
:1049900044E30E94990E80E190E00E942F1980E08C
:1049A00062E049E20E94990E80E190E00E942F1996
:1049B00081E062E041E00E94990E80E190E00E9477
:1049C0002F1981E062E040E10E94990E8DE090E0B5
:1049D0000E942F1981E062E040E20E94990E85E07A
:1049E00090E00E942F19C7C080E062E04AE30E9475
:1049F000990E8AE090E00E942F1989899A89AB89E3
:104A0000BC8928EE33E040E050E0BC01CD010E94BB
:104A1000DA2EDA01C9018C8389899A89AB89BC892C
:104A200028EE33E040E050E0BC01CD010E94DA2ED8
:104A3000DC01CB01898B9A8BAB8BBC8B80E062E075
:104A400049E20E94990E8C81882F90E00E942F19D4
:104A500089899A89AB89BC8924E630E040E050E03E
:104A6000BC01CD010E94DA2EDA01C9018C8389894B
:104A70009A89AB89BC8924E630E040E050E0BC0173
:104A8000CD010E94DA2EDC01CB01898B9A8BAB8B96
:104A9000BC8B81E062E040E00E94990E8C81882FFF
:104AA00090E00E942F1989899A89AB89BC892AE0F4
:104AB00030E040E050E0BC01CD010E94DA2EDA0186
:104AC000C9018C8389899A89AB89BC892AE030E045
:104AD00040E050E0BC01CD010E94DA2EDC01CB01A8
:104AE000898B9A8BAB8BBC8B81E062E040E10E94AA
:104AF000990E8C81882F90E00E942F1989899A89BC
:104B0000AB89BC898C8381E062E040E20E94990E0F
:104B10008C81882F90E00E942F192DC081E062E0E7
:104B200040E20E94990E8FE090E00E942F1981E0F0
:104B300062E040E10E94990E8FE090E00E942F1900
:104B400081E062E040E00E94990E8FE090E00E94D8
:104B50002F1980E062E042E30E94990E80E190E02C
:104B60000E942F1980E062E047E20E94990E80E1E6
:104B700090E00E942F1964960FB6F894DEBF0FBE26
:104B8000CDBFCF91DF910895DF93CF930F92CDB733
:104B9000DEB7898380918003882309F064C089810E
:104BA000882F90E083309105A9F1843091054CF471
:104BB00081309105F9F08230910524F5009791F04C
:104BC00053C086309105B1F18730910524F48430CB
:104BD000910541F149C087309105A1F188309105D7
:104BE000C9F142C080E00E941D0F80E291E00E9466
:104BF000BD0F3AC080E00E941D0F8AE291E00E9442
:104C0000BD0F32C080E00E941D0F86E191E00E943E
:104C1000BD0F2AC080E00E941D0F84E391E00E9436
:104C2000BD0F22C080E00E941D0F8EE391E00E9424
:104C3000BD0F1AC080E00E941D0F8AE291E00E9421
:104C4000BD0F12C080E00E941D0F8AE291E00E9419
:104C5000BD0F0AC080E00E941D0F86E691E00E9411
:104C6000BD0F000001C000000F90CF91DF910895AB
:104C7000DF93CF93CDB7DEB780918003882379F59A
:104C80000E944B1A882351F081E060E04CE00E94C2
:104C9000990E82E591E00E94BD0F17C080919903A3
:104CA000863051F481E060E04CE00E94990E88E487
:104CB00091E00E94BD0F09C081E060E04CE00E94DD
:104CC000990E8CE591E00E94BD0F80917A038823B4
:104CD00019F00E94051A04C00E94F61901C00000D4
:104CE000CF91DF910895DF93CF93CDB7DEB783E502
:104CF00090E023E530E0F90120812967FC01208361
:104D000087E390E027E330E0F90120812860FC018F
:104D100020838CE590E02091080330910903FC0189
:104D20002083CF91DF910895DF93CF93CDB7DEB786
:104D300080910A0390910B039C01285F3F4F809163
:104D40000C0390910D032817390700F58091970304
:104D50008F5F80939703109298038091970384301C
:104D600008F440C080910803909109030196909344
:104D7000090380930803109297038CE590E020913B
:104D8000080330910903FC0120832CC080910A03A1
:104D900090910B039C012850304080910C0390911E
:104DA0000D0382179307F0F41092970380919803F4
:104DB0008F5F8093980380919803843098F080915E
:104DC00008039091090301979093090380930803C6
:104DD000109298038CE590E020910803309109032C
:104DE000FC012083CF91DF910895DF93CF93CDB75E
:104DF000DEB781E390E021E330E0F9012081206E0D
:104E0000FC01208380E090E00E944E27CF91DF914B
:104E10000895DF93CF93CDB7DEB782E390E022E32E
:104E200030E0F90120812064FC01208382E390E0DE
:104E300022E330E0F90120812F7BFC012083CF9118
:104E4000DF9108951F93DF93CF9300D0CDB7DEB7E6
:104E500082E390E022E330E0F90120812068FC0148
:104E6000208381E089838981182F1A95F1F71983AE
:104E700082E390E022E330E0F90120812F77FC010A
:104E8000208381E08A838A81182F1A95F1F71A838B
:104E90000F900F90CF91DF911F910895DF93CF93E3
:104EA00000D00F92CDB7DEB79B838A83198222C0D0
:104EB0008A819B81992354F482E390E022E330E0DD
:104EC000F90120812062FC01208309C082E390E087
:104ED00022E330E0F90120812F7DFC0120830E9434
:104EE00009278A819B81880F991F9B838A838981E7
:104EF0008F5F898389818031D8F20E9422270F90A9
:104F00000F900F90CF91DF910895DF93CF93CDB79E
:104F1000DEB7809107018F7D8093070180910801A2
:104F20008F7780930801809107018F7E809307011E
:104F3000809107018F7B80930701809107018F7714
:104F400080930701CF91DF910895DF93CF93CDB781
:104F5000DEB70E94660E1092990380919903882F04
:104F600090E00E94C425CF91DF910895DF93CF9305
:104F7000CDB7DEB780919903882F90E084309105FA
:104F800009F408C1853091053CF481309105C9F0E0
:104F90008230910589F101C18730910509F489C0FA
:104FA000883091052CF48630910509F467C0F5C06E
:104FB0008830910509F4B1C08930910509F4BFC06A
:104FC000ECC00E944B1A882329F482E08093990355
:104FD0000E94D0280E94571A882339F00E94CF08D7
:104FE00084E090E00E94C425D8C00E94080981E0B6
:104FF00090E00E94C425D1C00E944B1A8823A9F0DA
:105000008091100390911103CC01A0E0B0E0809357
:105010009E0390939F03A093A003B093A10389E004
:10502000809399030E94D02809C00E943F1A8823C8
:1050300029F086E0809399030E94D0288091AF03E5
:105040009091B003A091B103B091B2030097A10574
:10505000B10511F40E94E30C0E94571A882339F01D
:105060000E94CF0884E090E00E94C42596C00E9470
:10507000080982E090E00E94C4258FC00E943F1A78
:10508000882329F482E0809399030E94D0280E940B
:10509000571A882339F00E94CF0884E090E00E94DC
:1050A000C4257BC00E94080986E090E00E94C425C8
:1050B00074C00E944B1A882391F480919E039091B2
:1050C0009F03A091A003B091A1030097A105B10592
:1050D00091F482E0809399030E94D0280CC08AE06A
:1050E00090E0A0E0B0E080939E0390939F03A09394
:1050F000A003B093A1030E94571A882339F00E949D
:10510000CF0884E090E00E94C42547C00E940809AF
:1051100087E090E00E94C42540C08091B503909143
:10512000B603A091B703B091B8030097A105B105EC
:1051300099F581E0809399030E94D0282EC0809138
:105140009E0390919F03A091A003B091A1030097AB
:10515000A105B10569F40E944B1A882321F087E06C
:105160008093990303C082E0809399030E94D02822
:105170000E94571A882339F00E94CF0884E090E0FB
:105180000E94C4250AC00E94080982E090E00E94A3
:10519000C42503C0000001C00000CF91DF91089535
:1051A000DF93CF93CDB7DEB780919903882F90E03E
:1051B0008430910509F481C0853091054CF481302B
:1051C000910501F182309105B1F1009791F0B7C0DE
:1051D0008730910509F48DC0883091052CF4863014
:1051E000910509F478C0ABC08830910509F48AC0F4
:1051F000A6C00E94852780919903882F90E00E9485
:10520000C4259DC01092B5031092B6031092B70347
:105210001092B80310929E0310929F031092A00365
:105220001092A10380919903882F90E00E94C425D9
:105230000E94852784C00E944B1A882331F087E0A2
:10524000809399030E94D0287AC00E943F1A882335
:1052500031F086E0809399030E94D02870C00E94AC
:1052600008090E94852780910701806180930701CA
:10527000809107018062809307018091070180641B
:1052800080930701809107018860809307018091D6
:105290009903882F90E00E94C42580910E0390917D
:1052A0000F03CC01A0E0B0E08093AF039093B00374
:1052B000A093B103B093B20342C00E94CF08809183
:1052C000080180688093080180919903882F90E0FD
:1052D0000E94C42534C00E94852780910701806107
:1052E0008093070180919903882F90E00E94C42544
:1052F00026C00E94852780919903882F90E00E9404
:10530000C4251DC00E948527809107018F77809357
:10531000070180919903882F90E00E94C425809115
:10532000B3039091B403CC01A0E0B0E08093B50347
:105330009093B603A093B703B093B8030000CF9146
:10534000DF910895DF93CF9300D0CDB7DEB79A8376
:10535000898389819A81FC01808191810F900F90CE
:10536000CF91DF910895DF93CF9300D000D0CDB7D8
:10537000DEB79A8389837C836B8389819A812B81B1
:105380003C81FC01318320830F900F900F900F9090
:10539000CF91DF910895DF93CF9300D0CDB7DEB7E3
:1053A00080913E0390913F03CC01A0E0B0E0BC01AE
:1053B000CD010E94822DDC01CB012091440330916C
:1053C00045034091460350914703BC01CD010E9423
:1053D000382EDC01CB0120914003309141034091F4
:1053E000420350914303BC01CD010E94862CDC0195
:1053F000CB01BC01CD010E94562DDC01CB019A836B
:10540000898389819A8122E08F3E920720F08AEF7A
:1054100090E09A83898389819A810F900F90CF9130
:10542000DF910895DF93CF93CDB7DEB727970FB6FF
:10543000F894DEBF0FBECDBF9F838E838E819F8188
:10544000CC01A0E0B0E02DB73EB72A5030400FB6F7
:10545000F8943EBF0FBE2DBF2DB73EB72F5F3F4F15
:10546000AE014F5F5F4FF9015183408345E050E04B
:10547000F9015383428348E453E0F901558344839F
:10548000F90186839783A087B1870E945C2F2DB78F
:105490003EB7265F3F4F0FB6F8943EBF0FBE2DBFFD
:1054A0008E819F818436910580F18981682F70E01B
:1054B0008A81482F50E08B81282F30E08DB79EB72E
:1054C00008970FB6F8949EBF0FBE8DBF8DB79EB7DD
:1054D0000196ECE4F3E0DC01ED93FC93FC017383B3
:1054E0006283DC0115965C934E931497FC0137831D
:1054F00026830E94E3112DB73EB7285F3F4F0FB6BA
:10550000F8943EBF0FBE2DBF3FC08E819F818A3071
:10551000910520F18981482F50E08A81282F30E0C1
:1055200000D000D000D08DB79EB7019669E573E03A
:10553000DC016D937C93FC0153834283DC0115965F
:105540003C932E9314970E94E311EDB7FEB7369665
:105550000FB6F894FEBF0FBEEDBF16C08981282F8D
:1055600030E000D000D08DB79EB7019645E653E0FD
:10557000DC014D935C93FC01338322830E94E31191
:105580000F900F900F900F9027960FB6F894DEBFF4
:105590000FBECDBFCF91DF9108950F931F93DF937F
:1055A000CF93CDB7DEB72A970FB6F894DEBF0FBE04
:1055B000CDBF0E94CB299A83898389819A8121E07A
:1055C000853F920720F084EF91E09A838983898157
:1055D0009A81009711F41A82198289819A8122E3B3
:1055E00030E0B9010E94C62E9B01C9018B838981DD
:1055F0009A8122E330E0B9010E94C62E8C838B8110
:10560000882F90E0880F991F880F991F8E5E9C4FFE
:10561000FC0180819181A281B3819C018B81882FC3
:1056200090E00196880F991F880F991F8E5E9C4FFE
:10563000FC0180819181A281B381A901481B590B92
:10564000CA019E838D838B81882F90E0880F991FDC
:10565000880F991F8E5E9C4FFC0100811181228171
:1056600033818D819E8142E350E0BA010E94C62EB3
:10567000AB01BA018C81482F50E0649FC001659F47
:10568000900D749F900D1124CC01A0E0B0E0B90101
:10569000A801481B590B6A0B7B0BDB01CA018F83E6
:1056A0009887A987BA878F819885A985BA85BC0113
:1056B000CD012A960FB6F894DEBF0FBECDBFCF91B5
:1056C000DF911F910F910895DF93CF93CDB7DEB790
:1056D00085E490E025E430E0F90120812F60FC01B1
:1056E000208383E490E023E430E0F90120812D67FA
:1056F000FC01208389E590E029E530E0F901208173
:105700002068FC012083CF91DF9108951F920F92B2
:105710000FB60F9211248F939F93AF93BF93DF9394
:10572000CF93CDB7DEB78091A3038D3709F044C086
:1057300081E08093A20380919A0390919B03A091B2
:105740009C03B0919D030097A105B10599F080914C
:105750009A0390919B03A0919C03B0919D030197A4
:10576000A109B10980939A0390939B03A0939C0392
:10577000B0939D0380919E0390919F03A091A003FD
:10578000B091A1030097A105B10599F080919E0306
:1057900090919F03A091A003B091A1030197A1094B
:1057A000B10980939E0390939F03A093A003B093AD
:1057B000A1031092A30305C08091A3038F5F809380
:1057C000A303CF91DF91BF91AF919F918F910F90E4
:1057D0000FBE0F901F901895DF93CF93CDB7DEB714
:1057E00080E490E0FC01108289E290E027E6FC0171
:1057F00020838AE290E02AE230E0F90120812861EA
:10580000FC0120838AE290E02AE230E0F901208165
:105810002068FC01208380E490E020E430E0F9017E
:1058200020812668FC01208386E49CE260E070E031
:105830000E94FC2ECF91DF910895DF93CF930F92BA
:10584000CDB7DEB7898300008BE290E0FC01808158
:10585000882F90E0807290700097B1F38CE290E016
:105860002981FC0120830F90CF91DF910895DF9370
:10587000CF93CDB7DEB78BE290E0FC0180818CE264
:1058800090E0FC018081CF91DF910895DF93CF9369
:1058900000D00F92CDB7DEB789837B836A83000087
:1058A0008BE290E0FC018081882F90E08072907004
:1058B0000097B1F38CE290E02981FC01208380E025
:1058C00090E00F900F900F90CF91DF9108951F926D
:1058D0000F920FB60F9211248F939F93EF93FF9324
:1058E000DF93CF93CDB7DEB78CE290E0FC018081EF
:1058F00080930901CF91DF91FF91EF919F918F915B
:105900000F900FBE0F901F9018955058BB27AA27D5
:105910000ED070C161D130F066D120F031F49F3FDC
:1059200011F41EF456C10EF4E095E7FB4CC1E92FCB
:1059300072D180F3BA17620773078407950718F0CE
:1059400071F49EF58AC10EF4E0950B2EBA2FA02DAE
:105950000B01B90190010C01CA01A0011124FF271C
:10596000591B99F0593F50F4503E68F11A16F04017
:10597000A22F232F342F4427585FF3CF4695379516
:105980002795A795F0405395C9F77EF41F16BA0BDB
:10599000620B730B840BBAF09150A1F0FF0FBB1F89
:1059A000661F771F881FC2F70EC0BA0F621F731FD2
:1059B000841F48F4879577956795B795F7959E3F2F
:1059C00008F0B3CF9395880F08F09927EE0F9795BD
:1059D00087950895D4D008F481E008950CD00AC1C9
:1059E00002D140F0F9D030F021F45F3F19F0EBC064
:1059F000511134C1EEC00FD198F39923C9F3552347
:105A0000B1F3951B550BBB27AA27621773078407B1
:105A100038F09F5F5F4F220F331F441FAA1FA9F367
:105A200033D00E2E3AF0E0E830D091505040E69559
:105A3000001CCAF729D0FE2F27D0660F771F881FBA
:105A4000BB1F261737074807AB07B0E809F0BB0BA9
:105A5000802DBF01FF2793585F4F2AF09E3F5105CD
:105A600068F0B1C0FBC05F3FECF3983EDCF3869575
:105A700077956795B795F7959F5FC9F7880F911D43
:105A80009695879597F90895E1E0660F771F881F2F
:105A9000BB1F621773078407BA0720F0621B730BE2
:105AA000840BBA0BEE1F88F7E0950895BCD088F000
:105AB0009F5790F0B92F9927B751A0F0D1F0660FFA
:105AC000771F881F991F1AF0BA95C9F712C0B13015
:105AD00081F0C3D0B1E00895C0C0672F782F882728
