:100000000C9486030C9415080C9416070C94A30307
:100010000C942D280C94A3030C94A3030C94A30319
:100020000C94A3030C9401070C94A3030C94A30356
:100030000C94A3030C940E290C94A3030C94A30317
:100040000C94E9030C94A3030C94A3030C94A30352
:100050000C94A3030000C0E0F0F838181838F8F04A
:10006000E0C0000000FFFFFFFF000000000000FFF5
:10007000FFFFFF0000071F3F7FF8E0C0C0E0F87FF0
:100080003F1F0700000000808080C0E0F8F8F8F80B
:10009000000000000000000101010101FFFFFFFF5F
:1000A000000000000000000000000000FFFFFFFF54
:1000B000000000000080E0F0F0783818181878F898
:1000C000F0E0C00000010101010080C0E0F0F87F15
:1000D0003F1F0F00E0F0F8FCFEDFCFC7C3C1C0C078
:1000E000C0C0C00000C0E0F0F83818181838F8F0A8
:1000F000E0C0000000000000000030303078FFFF5A
:10010000EFC78000000C3C7C7CF0E0C0C0E0F07FDA
:100110007F3F0F0000000000000000C0E0F8F8F88A
:10012000F80000000080E0F07C3E0F0701FFFFFFB9
:10013000FF000000070707070606060606FFFFFF89
:10014000FF0606060000F8F8F8F81818181818182E
:100150001800000000003F3F3F1F1C0C0C1C3CF827
:10016000F8F0C000000C3C7C7CF0E0C0C0E0F07F08
:100170007F3F0F0000C0E0F0F83818181838F8F08A
:10018000E0C0000000FFFFFFFF381C0C0C1C3CFC13
:10019000F8F0C00000071F3F7FF8E0C0C0E0F07F2C
:1001A0007F3F0F0000181818181818181818D8F8DA
:1001B000F8F8380000000000000000C0F8FEFF3F23
:1001C0000F0100000000000000F0FEFFFF0F010023
:1001D000000000000000C0F0F0F838181838F8F0FF
:1001E000F0C00000000083CFFFFF7C78787CFFFF29
:1001F000CF830000001F3F7F7FF0E0C0C0E0F07FB2
:100200007F3F1F000080E0F0F07838181838F8F0D1
:10021000E0C00000000F3F7FFFF0E0C0C0E070FFD3
:10022000FFFFFF0000183878F8E0C0C0E0F0FC7F66
:100230003F1F03000000000000000000000000005D
:1002400000E0E0E00000000000000000000000000E
:1002500000E0E0E0E0000000000000E0E0E0E0E0BE
:10026000E0E0E00000000000000000F0F8181818BE
:100270003830000000FE2020103E003173636363BD
:100280007F3E00000002728A8A8A0202FA0AFA0A93
:10029000FA0200000000F0204020F000E0301010D2
:1002A00030E0000000000700000017A045A7100084
:1002B000070500000000788484840100FC04F90430
:1002C000F800000000000000C0E0C0800000000056
:1002D0000000000000000000000103078FDEFCF8B2
:1002E0007020000000000000183C1E0F07030100F2
:1002F000000000000000000000000000000080C0BE
:10030000E0C00000000000002070F8FCDE8F070352
:1003100001000000000000000000000103070F1EA4
:100320003C18000000000000000000000000000079
:1003300000000000000000383838383838383838C5
:10034000383800000000000000000000000000003D
:10035000000000000000000000000000000000009D
:10036000000000000000000000000000000000008D
:10037000000000000000000000000000000000007D
:1003800000000000FFFFFFFFFF00FFFFFFFFFFFF78
:1003900000FFFFFFFFFFFF00FFFFFFFFFFFF00FF6A
:1003A000FFFFFFFFFF00FFFFFFFFFFFF00FFFFFF5B
:1003B000FFFFFF00FFFFFFFFFFFF00FFFFFFFFFF4B
:1003C000FF00FFFFFFFFFFFF00FFFFFFFFFFFF003A
:1003D000FFFFFFFFFFFF00FFFFFFFFFFFF00FFFF2B
:1003E000FFFFFFFF00FFFFFFFFFFFF00FFFFFFFF1B
:1003F000FFFF00FFFFFFFFFFFF00FFFFFFFFFFFF0B
:1004000000FFFFFFFFFFFF00FFFFFFFFFFFF00FFF9
:10041000FFFFFFFFFF00FFFFFFFFFFFF00FFFFFFEA
:10042000FFFFFF00FFFFFFFFFFFF00FFFFFFFFFFDA
:10043000FF00FFFFFFFFFFFF00FFFFFFFFFFFF00C9
:10044000FFFFFFFFFFFF00FFFFFFFFFFFF00FFFFBA
:10045000FFFFFFFF00FFFFFFFFFFFF00FFFFFFFFAA
:10046000FFFF00FF0000000000FFFF00004F000042
:1004700000FF000700070000FF147F147F1400FF37
:10048000242A7F2A1200FF231308646200FF3649E2
:1004900055222000FF000503000000FF001C224140
:1004A0000000FF0041221C0000FF14083E08140059
:1004B000FF08083E080800FF503000000000FF0859
:1004C0000808080800FF006060000000FF20100816
:1004D000040200FF3E5149453E00FF40427F40403C
:1004E00000FF426151494600FF2141454B3100FF69
:1004F0001814127F1000FF274545453900FF3C4A7C
:1005000049493000FF017109050300FF3649494997
:100510003600FF064949291E00FF0036360000005C
:10052000FF005636000000FF081422410000FF14AF
:100530001414141400FF004122140800FF0201519A
:10054000090600FF000002050200FF7E1111117E66
:1005500000FF7F4949493600FF3E4141412200FFEB
:100560007F4141221C00FF7F4949494100FF7F092B
:1005700009090100FF3E4149497A00FF7F08080848
:100580007F00FF00417F410000FF2040413F01000C
:10059000FF7F0814224100FF7F4040404000FF7F62
:1005A000020C027F00FF7F0408107F00FF3E4141E4
:1005B000413E00FF7F0909090600FF3E4151215ECF
:1005C00000FF7F0919294600FF264949493200FFEB
:1005D00001017F010100FF3F4040403F00FF1F201D
:1005E00040201F00FF3F4038403F00FF63140814C5
:1005F0006300FF070870080700FF61514945430089
:10060000FF007F41410000FF020408102000FF00AE
:1006100041417F0000FF040201020400FF4040400E
:10062000404000FF000003050000FF2054545478B0
:1006300000FF7F4444443800FF384444444400FFF2
:10064000384444447F00FF385454541800FF0404D5
:100650007E050500FF085454543C00FF7F08040445
:100660007800FF00447D4000FFFF2040443D00FF34
:10067000FF7F10284400FFFF417F4000FFFFFF7C09
:10068000047C047800FF7C0804047800FF384444AC
:10069000443800FF7C1414140800FF081414147C60
:1006A00000FF7C08040400FFFF485454542400FF5A
:1006B00004043F444400FF3C4040207C00FF1C20D9
:1006C00040201C00FF3C4030403C00FF44281028E4
:1006D0004400FF0C5050503C00FF4464544C440014
:1006E000FF083641410000FF000077000000FF00D6
:1006F0004141360800FF08082A1C0800FF081C2A90
:10070000080800FFFFFFFFFFFF00FF0011241FBECE
:10071000CFE5D8E0DEBFCDBF14E0A0E6B0E0EAE868
:10072000F1E602C005900D92A03CB107D9F714E0A4
:10073000A0ECB4E001C01D92A93FB107E1F70E940F
:10074000F7180C94C3300C940000DF93CF93CDB70F
:10075000DEB7F89481E0CF91DF910895DF93CF93D6
:1007600000D0CDB7DEB79A8389838FE590E02981E9
:100770003A81F9012081FC0120830F900F90CF91E5
:10078000DF910895DF93CF93CDB7DEB786E290E097
:1007900026E230E0F90120812760FC01208387E216
:1007A00090E020E4FC01208386E290E026E230E045
:1007B000F90120812868FC01208386E290E026E28E
:1007C00030E0F90120812064FC012083CF91DF918A
:1007D00008951F920F920FB60F921124EF92FF927D
:1007E0000F931F932F933F934F935F936F937F9339
:1007F0008F939F93AF93BF93EF93FF93DF93CF9329
:1008000000D000D0CDB7DEB78FE590E0FC0180814D
:100810008C830E94A5038B8313C084E290E0FC01CB
:100820008081282F30E085E290E0FC018081882FD4
:1008300090E0982F8827822B932B9A8389831B82A1
:100840008B81882351F7CE0104960E94AE038091DC
:100850009F049091A004CC01A0E0B0E0BC01CD01C8
:100860000E94292ADC01CB01BC01CD0126E636E637
:1008700046E65FE30E94DF2ADC01CB017C018D01AB
:1008800089819A81CC01A0E0B0E0BC01CD010E9439
:10089000292ADC01CB01BC01CD012DEC3CEC4CEC58
:1008A0005DE30E94DF2ADC01CB019C01AD01C801A0
:1008B000B7010E942D29DC01CB01BC01CD010E94B2
:1008C000FD29DC01CB019093A00480939F0486E274
:1008D00090E026E230E0F90120812064FC012083D1
:1008E0002496DEBFCDBFCF91DF91FF91EF91BF91F5
:1008F000AF919F918F917F916F915F914F913F91B8
:100900002F911F910F91FF90EF900F900FBE0F90BE
:100910001F9018950F931F93DF93CF93CDB7DEB73A
:1009200060970FB6F894DEBF0FBECDBF85E390E0B1
:10093000FC0180818F8784E390E0FC018081888BBB
:1009400087E390E027E330E0F90120812E7FFC016E
:10095000208388E390E028E330E0F90120812E7FB6
:10096000FC01208384E390E0FC01108285E390E0A9
:100970002FEFFC01208387E390E027E330E0F901CB
:1009800020812160FC01208388E390E028E330E0AF
:10099000F90120812E7FFC01208380E090E0A0E817
:1009A000BFE389839A83AB83BC8369817A818B811E
:1009B0009C8120E030E04AE755E40E94DF2ADC0118
:1009C000CB018D839E83AF83B88711E06D817E81DB
:1009D0008F81988520E030E040E85FE30E94912914
:1009E00088230CF010E0112329F081E090E09A8731
:1009F000898746C011E06D817E818F81988520E0D6
:100A00003FEF4FE757E40E94DB2A18160CF010E086
:100A1000112361F169817A818B819C8120E030E032
:100A200040E251E40E94DF2ADC01CB01BC01CD0190
:100A30000E94FD29DC01CB019A87898712C080E9D9
:100A400091E09C878B878B859C858C01C8010197E1
:100A5000F1F78C011C870B8789859A8501979A8706
:100A6000898789859A85009751F717C06D817E81A6
:100A70008F8198850E94FD29DC01CB019A878987A7
:100A800089859A859E878D878D859E858C01F80145
:100A90003197F1F78F011E870D8783E390E0FC010A
:100AA000808180958093DA0485E390E02F85FC01B6
:100AB000208384E390E02889FC0120838091DA047C
:100AC00060960FB6F894DEBF0FBECDBFCF91DF9119
:100AD0001F910F910895DF93CF9300D00F92CDB760
:100AE000DEB79A8389836B8389819A81FC01918126
:100AF0008B819817D1F089819A81FC0180818230A5
:100B0000A0F089819A812B81FC01218389819A81BE
:100B1000FC01108289819A81FC018181882341F145
:100B200089819A81FC01818124C089819A81FC019B
:100B300091818B81981789F089819A81FC0180814C
:100B4000823058F489819A81FC018081282F2F5F9F
:100B500089819A81FC0120830BC089819A81FC01E3
:100B600091818B81981721F489819A81FC011082EF
:100B700080E00F900F900F90CF91DF910895DF9359
:100B8000CF930F92CDB7DEB719820E948A0480936B
:100B9000DA042091DA0480EC94E0622F0E946B0565
:100BA00089838981882F90E08430910509F47CC085
:100BB0008530910564F48130910509F4B0C082302C
:100BC000910509F48FC0009709F4C7C0AFC0803108
:100BD0009105C1F1813191052CF48830910509F41A
:100BE0003EC0A4C08032910599F08034910509F08F
:100BF0009DC08091CF04882331F481E08093CF049D
:100C00000E940B25B5C01092CF040E940B25B0C0E6
:100C10008091CA04882309F0A2C08091CF04843057
:100C200031F481E08093CF040E940B25A1C0809114
:100C3000CF04882309F495C084E08093CF040E94F8
:100C40000B2596C08091CA04882319F00E94DB1AF4
:100C50008FC081E08093CA040E94CE1989C0809120
:100C60002401882351F083EB92E09093C502809396
:100C7000C40280E090E00E94531B8981282F30E05D
:100C800000D000D08DB79EB7019640E650E0FC0141
:100C900051834083FC01338322830E94EE2B0F900B
:100CA0000F900F900F9064C08981282F30E000D002
:100CB00000D08DB79EB7019649E650E0FC01518304
:100CC0004083FC01338322830E94EE2B0F900F9010
:100CD0000F900F908091CA04882309F444C00E94A9
:100CE000401A46C08981282F30E000D000D08DB74F
:100CF0009EB7019642E750E0FC0151834083FC011E
:100D0000338322830E94EE2B0F900F900F900F9051
:100D10008091CA04882349F10E940C1B29C080914C
:100D2000CA04882321F10E94841A22C08981282FB5
:100D300030E000D000D08DB79EB701964BE750E071
:100D4000FC0151834083FC01338322830E94EE2BFC
:100D50000F900F900F900F900BC0000009C0000083
:100D600007C0000005C0000003C0000001C0000073
:100D70000F90CF91DF910895DF93CF93CDB7DEB77A
:100D8000F89481E0CF91DF910895DF93CF9300D065
:100D9000CDB7DEB79A8389838FE590E029813A81C8
:100DA000F9012081FC0120830F900F90CF91DF91FA
:100DB0000895DF93CF93CDB7DEB71092C30410929E
:100DC000C2040E94370985E590E025E530E0F9018D
:100DD00020812A60FC0120838FE490E0FC011082D6
:100DE0008EE490E025E0FC01208389E590E029E590
:100DF00030E0F90120812460FC012083CF91DF9154
:100E000008951F920F920FB60F9211248F93DF93C4
:100E1000CF93CDB7DEB781E08093A500CF91DF916E
:100E20008F910F900FBE0F901F9018951F920F92E9
:100E30000FB60F921124EF92FF920F931F932F93EF
:100E40003F934F935F936F937F938F939F93AF9352
:100E5000BF93EF93FF93DF93CF9300D0CDB7DEB76F
:100E60008091990090919A00A0919B00B0919C0074
:100E70000097A105B10549F01092990010929A00CF
:100E800010929B0010929C00B7C08FE590E0FC018F
:100E900080818A830E94BC06898396C08CE490E09E
:100EA000FC01808191819093DC048093DB048CE4CD
:100EB00090E0FC01118210828091DB049091DC04AF
:100EC000893C910508F470C08091990090919A0036
:100ED000A0919B00B0919C000097A105B105F9F08D
:100EE0008091990090919A00A0919B00B0919C00F4
:100EF0000197A109B1098093990090939A00A0935A
:100F00009B00B0939C008AE590E02AE530E0F9016F
:100F100020812068FC01208300E010E05BC080910C
:100F2000DB049091DC04CC01A0E0B0E0BC01CD0179
:100F30000E94292ADC01CB01BC01CD012DEC3CEC47
:100F40004CEC5DE30E94DF2ADC01CB017C018D01CA
:100F50008091970090919800CC01A0E0B0E0BC0196
:100F6000CD010E94292ADC01CB01BC01CD0126E67E
:100F700036E646E65FE30E94DF2ADC01CB019C01F6
:100F8000AD01C801B7010E942D29DC01CB01BC01D4
:100F9000CD010E94FD29DC01CB0190939800809344
:100FA00097001092C5040FC08091C5048F5F809395
:100FB000C5048091C504853630F01092C5041092A6
:100FC00098001092970019828981882309F066CFD2
:100FD00001E010E0CE0102960E94C5060130110525
:100FE00059F41092A5008AE590E02AE530E0F90175
:100FF00020812068FC0120830F900F90CF91DF911A
:10100000FF91EF91BF91AF919F918F917F916F91E0
:101010005F914F913F912F911F910F91FF90EF9012
:101020000F900FBE0F901F9018951F920F920FB642
:101030000F921124EF92FF920F931F932F933F93E0
:101040004F935F936F937F938F939F93AF93BF93D0
:10105000EF93FF93DF93CF9300D0CDB7DEB78FE54B
:1010600090E0FC0180818A830E94BC06898396C03F
:101070008CE490E0FC01808191819093DC0480936A
:10108000DB048CE490E0FC01118210828091DB048F
:101090009091DC04893C910508F470C0809199001E
:1010A00090919A00A0919B00B0919C000097A1059F
:1010B000B105F9F08091990090919A00A0919B0060
:1010C000B0919C000197A109B10980939900909378
:1010D0009A00A0939B00B0939C008AE590E02AE5DB
:1010E00030E0F90120812064FC01208300E010E061
:1010F0005BC08091950090919600CC01A0E0B0E09B
:10110000BC01CD010E94292ADC01CB01BC01CD012B
:101110002DEC3CEC4CEC5DE30E94DF2ADC01CB01C2
:101120007C018D018091DB049091DC04CC01A0E076
:10113000B0E0BC01CD010E94292ADC01CB01BC0139
:10114000CD0126E636E646E65FE30E94DF2ADC01B3
:10115000CB019C01AD01C801B7010E942D29DC0122
:10116000CB01BC01CD010E94FD29DC01CB01909394
:101170009600809395001092C5040FC08091C5041D
:101180008F5F8093C5048091C504853630F010923E
:10119000C5041092960010929500198289818823C7
:1011A00009F066CF01E010E0CE0102960E94C5066C
:1011B0000130110559F41092A5008AE590E02AE566
:1011C00030E0F90120812064FC0120830F900F9012
:1011D000CF91DF91FF91EF91BF91AF919F918F914F
:1011E0007F916F915F914F913F912F911F910F913F
:1011F000FF90EF900F900FBE0F901F901895DF9308
:10120000CF93CDB7DEB78BE590E02BE530E0F90169
:1012100020812F77FC01208384E090E0A0E0B0E003
:101220008093990090939A00A0939B00B0939C00A8
:1012300081E08093940080E063E041E20E946A0DC7
:1012400081E30E942B0E80E064E04EE10E946A0D73
:1012500080E20E942B0E8BE590E02BE530E0F90157
:1012600020812064FC012083CF91DF910895DF93DA
:10127000CF93CDB7DEB78BE590E02BE530E0F901F9
:1012800020812F7BFC01208384E090E0A0E0B0E08F
:101290008093990090939A00A0939B00B0939C0038
:1012A0001092940080E063E041E20E946A0D80E2C7
:1012B0000E942B0E80E064E04EE10E946A0D82E302
:1012C0000E942B0E8BE590E02BE530E0F9012081A8
:1012D0002068FC012083CF91DF910895DF93CF93A5
:1012E00000D000D0CDB7DEB780E090E0DC0189838C
:1012F0009A83AB83BC8380919400813071F5809197
:10130000950090919600CC01A0E0B0E0BC01CD0129
:101310000E94292ADC01CB012091880030918900AC
:1013200040918A0050918B00BC01CD010E94DF2AC0
:10133000DC01CB0120918400309185004091860032
:1013400050918700BC01CD010E942D29DC01CB0109
:1013500089839A83AB83BC832DC080919700909141
:101360009800CC01A0E0B0E0BC01CD010E94292A88
:10137000DC01CB01209190003091910040919200CE
:1013800050919300BC01CD010E94DF2ADC01CB010A
:1013900020918C0030918D0040918E0050918F00F3
:1013A000BC01CD010E942D29DC01CB0189839A83E8
:1013B000AB83BC8369817A818B819C810E94FD29EA
:1013C000DC01CB01BC01CD010F900F900F900F906D
:1013D000CF91DF910895DF93CF9300D000D0CDB7A8
:1013E000DEB70E946E09DC01CB01BC01CD010E9479
:1013F000292ADC01CB0189839A83AB83BC832981B1
:101400003A814B815C8160E074E284E799E40E9458
:101410009529DC01CB0189839A83AB83BC838981C5
:101420009A81AB81BC81BC01CD010E94FD29DC0108
:10143000CB01BC01CD010F900F900F900F90CF9179
:10144000DF910895DF93CF93CDB7DEB780E090E0D2
:101450000E945E2E21E08230920709F066C08EEA7B
:1014600090E00E94032C82E090E00E94502E809336
:10147000C40487E090E00E94582EDC01CB018093E9
:10148000A1049093A204A093A304B093A4048BE0BE
:1014900090E00E94582EDC01CB018093A50490932C
:1014A000A604A093A704B093A80483E090E00E9450
:1014B0005E2ECC01A0E0B0E02CE330E040E050E054
:1014C000BC01CD010E94422BDC01CB018093A60020
:1014D0009093A700A093A800B093A90085E090E0A6
:1014E0000E94502E482F50E02CE330E0429FC00174
:1014F000439F900D529F900D11249093AB008093C9
:10150000AA0086E090E00E94502E482F50E02CE385
:1015100030E0429FC001439F900D529F900D1124D7
:101520009093AD008093AC0006C08BEB90E00E94DE
:10153000032C0E949E0ACF91DF910895DF93CF93F1
:10154000CDB7DEB780E090E062E071E00E94792ED6
:1015500082E090E060E00E94642E8091A60090916D
:10156000A700A091A800B091A9002CE330E040E0D2
:1015700050E0BC01CD010E94812BDA01C9019C0120
:1015800083E090E0B9010E94792E87E090E040E08E
:1015900050E0BA010E94712E8BE090E040E050E0F4
:1015A00060E47FE30E94712E8091AC009091AD00C9
:1015B0002CE330E0B9010E946D2B9B01C901282F5B
:1015C00085E090E0622F0E94642E8091AA009091A5
:1015D000AB002CE330E0B9010E946D2B9B01C901E7
:1015E000282F86E090E0622F0E94642ECF91DF9139
:1015F0000895DF93CF93CDB7DEB72091C40482E086
:1016000090E0622F0E94642ECF91DF910895DF93C6
:10161000CF9300D0CDB7DEB78091A6009091A70000
:10162000A091A800B091A9002CE330E040E050E088
:10163000BC01CD010E94812BDA01C9019A83898303
:1016400083E090E029813A81B9010E94792E0F90C0
:101650000F90CF91DF910895DF93CF93CDB7DEB791
:101660002091A1043091A2044091A3045091A404BC
:1016700087E090E0BA01A9010E94712E2091A50493
:101680003091A6044091A7045091A8048BE090E00B
:10169000BA01A9010E94712ECF91DF910895DF93C5
:1016A000CF93CDB7DEB78091AC009091AD002CE325
:1016B00030E0B9010E946D2B9B01C901282F85E004
:1016C00090E0622F0E94642ECF91DF910895DF9306
:1016D000CF93CDB7DEB78091AA009091AB002CE3F9
:1016E00030E0B9010E946D2B9B01C901282F86E0D3
:1016F00090E0622F0E94642ECF91DF910895DF93D6
:10170000CF93CDB7DEB785E090E00E94502E482FF2
:1017100050E02CE330E0429FC001439F900D529F68
:10172000900D11249093AD008093AC00CF91DF9188
:101730000895DF93CF93CDB7DEB786E090E00E94A7
:10174000502E482F50E02CE330E0429FC001439FD1
:10175000900D529F900D11249093AB008093AA009E
:10176000CF91DF910895DF93CF930F92CDB7DEB77E
:101770008091C7049091C80401969093C804809307
:10178000C7048091C7049091C804863091050CF479
:101790006BC08091C604282F30E000D000D08DB7F8
:1017A0009EB7019647EE50E0FC0151834083FC0157
:1017B000338322830E94EE2B0F900F900F900F9097
:1017C0008091C9048F5F8093C9048091C904898383
:1017D00007C089818F5F89838981893008F01982E8
:1017E0008091C604882F90E02981222F30E0022EBC
:1017F00002C0959587950A94E2F7817090700097E2
:1018000041F38981282F30E000D000D08DB79EB7FA
:1018100001964AEF50E0FC0151834083FC01338381
:1018200022830E94EE2B0F900F900F900F908981D2
:101830008093C90481E090E00E94EE0D29EC30E035
:101840008981882F90E0880F991FAC01440F551FA4
:10185000440F551F840F951F820F931F0E948E0EF9
:101860001092C8041092C7040F90CF91DF91089591
:10187000DF93CF9300D000D0CDB7DEB70E946E09C2
:10188000DC01CB0189839A83AB83BC8389819A81F4
:10189000AB81BC81803D27E0920720E0A20720E0D9
:1018A000B20778F480919400813031F48091C604BD
:1018B00082608093C60405C08091C60481608093D5
:1018C000C6040F900F900F900F90CF91DF91089565
:1018D0000F931F93DF93CF93CDB7DEB72E970FB63D
:1018E000F894DEBF0FBECDBF8AE390E02AE330E07C
:1018F000F9012081206FFC01208384E390E0FC014A
:10190000808184E390E02FEFFC01208387E390E067
:1019100027E330E0F90120812260FC0120830E944E
:10192000C8178FE30E9479130E94AF178FE30E94BC
:10193000791380E090E0A0E2B1E489839A83AB83DD
:10194000BC8369817A818B819C8120E030E04AE709
:1019500053E40E94DF2ADC01CB018D839E83AF8399
:10196000B88711E06D817E818F81988520E030E01D
:1019700040E85FE30E94912988230CF010E01123D6
:1019800029F081E090E09A87898746C011E06D8157
:101990007E818F81988520E03FEF4FE757E40E94DA
:1019A000DB2A18160CF010E0112361F169817A81AD
:1019B0008B819C8120E030E040E251E40E94DF2AEC
:1019C000DC01CB01BC01CD010E94FD29DC01CB0172
:1019D0009A87898712C089E190E09C878B878B85E5
:1019E0009C858C01C8010197F1F78C011C870B873E
:1019F00089859A8501979A87898789859A8500972D
:101A000051F717C06D817E818F8198850E94FD29D5
:101A1000DC01CB019A87898789859A859E878D8786
:101A20008D859E858C01F8013197F1F78F011E8716
:101A30000D870E94C81780EC0E9479130E94AF178F
:101A400080EC0E9479130E94370D83E00E94EE0D16
:101A50008FE091E00E948E0E2E960FB6F894DEBFB6
:101A60000FBECDBFCF91DF911F910F910895DF93EE
:101A7000CF9300D00F92CDB7DEB78091E0048B8377
:101A80001092E004198217C089810E94EE0D1A821B
:101A90000CC08A81803419F481E00E94C80D80E076
:101AA0000E9491148A818F5F8A838A8188238CF7B0
:101AB00089818F5F89838981883030F38B8180931E
:101AC000E00480E00E94EE0D0F900F900F90CF91F8
:101AD000DF910895DF93CF9300D00F92CDB7DEB79B
:101AE00089836A834B838981882319F089818130B6
:101AF00009F58A818830F0F48B818034D8F48981AB
:101B0000882319F40E94C81702C00E94AF17898168
:101B10008093DD048A81886B8093DE048B818064EE
:101B20008093DF048091DF040E9479138091DE04AA
:101B30000E9479130F900F900F90CF91DF9108952D
:101B4000DF93CF9300D000D000D0CDB7DEB79A831B
:101B500089837C836B835E834D832091DD0489813F
:101B60009A81FC0120832091DE048B819C81FC0101
:101B700020832091DF048D819E81FC0120832696A5
:101B80000FB6F894DEBF0FBECDBFCF91DF910895A1
:101B9000DF93CF930F92CDB7DEB7898389818823F6
:101BA00019F089818130B1F48981882319F40E9468
:101BB000C81702C00E94AF1789818093DD0480E4BA
:101BC0008093DF048091DE040E9479138091DF040A
:101BD0000E9479130F90CF91DF910895DF93CF93F7
:101BE0000F92CDB7DEB789838981883038F4898137
:101BF00088548093DE0480E00E94C80D0F90CF913E
:101C0000DF910895DF93CF93CDB7DEB78091DE04E7
:101C10008F5F8093DE048091DE04803C18F088EBB7
:101C20008093DE0480E00E94C80DCF91DF9108957B
:101C3000DF93CF93CDB7DEB78FEF8093E004CF91E2
:101C4000DF910895DF93CF93CDB7DEB71092E00414
:101C5000CF91DF9108951F93DF93CF93CDB7DEB778
:101C600027970FB6F894DEBF0FBECDBF8F8380914C
:101C7000DD04813021F48091DF048C3718F48F81EA
:101C80008A3011F40E94020E8F818A3009F43CC020
:101C900024E833E08F81882F90E0AC01440F551F7A
:101CA000440F551F440F551FBA01681B790BCB0118
:101CB000820F931F9A8389838091DD04882339F4EE
:101CC0008091DF04803819F481E00E94C80D898179
:101CD0009A819C838B8389819A8101969A838983D7
:101CE0008B819C81FC0114911D838D818E838E815B
:101CF0008F3F49F08E810E9491148091DF048F5FA5
:101D00008093DF04D9CF000027960FB6F894DEBF8A
:101D10000FBECDBFCF91DF911F910895DF93CF9379
:101D200000D0CDB7DEB79A8389830CC089819A81B0
:101D3000FC01208189819A8101969A838983822F6F
:101D40000E942B0E89819A81FC018081882371F782
:101D50000F900F90CF91DF9108950F931F93DF9312
:101D6000CF93CDB7DEB760970FB6F894DEBF0FBE46
:101D7000CDBF6C877D878E879F87488B19828C8526
:101D80009D85AE85BF850097A105B105C1F4198277
:101D90000DC08981882F90E09E012E5F3F4F820FFA
:101DA000931FFC01108289818F5F898399818889C3
:101DB000981708F061C089818A3058F35DC0198294
:101DC00044C08C859D85AE85BF850097A105B10572
:101DD00049F18981082F10E08C859D85AE85BF85EE
:101DE0002AE030E040E050E0BC01CD010E94812BB0
:101DF000DC01CB01282FCE010296800F911FFC0140
:101E000020838C859D85AE85BF852AE030E040E04B
:101E100050E0BC01CD010E94812B2C873D874E876D
:101E20005F8710C088898F3F39F188898B3020F512
:101E30008981882F90E09E012E5F3F4F820F931F74
:101E4000FC01108289818F5F898399818889981725
:101E500008F4B7CF11C08981882F90E001979E01C7
:101E60002E5F3F4F820F931FFC018081805D0E9497
:101E70002B0E8981815089838981882361F760963F
:101E80000FB6F894DEBF0FBECDBFCF91DF911F918B
:101E90000F910895DF93CF93CDB7DEB760970FB65C
:101EA000F894DEBF0FBECDBF6C877D878E879F877E
:101EB000488B19828C859D85AE85BF850097A105CD
:101EC000B105C1F419820DC08981882F90E09E016F
:101ED0002E5F3F4F820F931FFC01108289818F5F1D
:101EE000898399818889981708F072C089818A301E
:101EF00058F36EC019823BC08C859D85AE85BF8529
:101F00000097A105B105F1F08981882F90E02C851B
:101F1000422F4F709E012E5F3F4F820F931FFC0197
:101F200040838C859D85AE85BF85689413F8B695F2
:101F3000A795979587951694D1F78C879D87AE873F
:101F4000BF8712C088898F3F09F442C088898B30CF
:101F500008F03EC08981882F90E09E012E5F3F4FA0
:101F6000820F931FFC01108289818F5F8983998181
:101F70008889981708F4C0CF2BC08981882F90E0FA
:101F800001979E012E5F3F4F820F931FFC018081BE
:101F90008A3068F08981882F90E001979E012E5F3A
:101FA0003F4F820F931FFC018081895C0CC08981A7
:101FB000882F90E001979E012E5F3F4F820F931F65
:101FC000FC018081805D0E942B0E89818150898374
:101FD0008981882391F660960FB6F894DEBF0FBE14
:101FE000CDBFCF91DF910895DF93CF9300D000D084
:101FF00000D0CDB7DEB76A837B838C839D834E830D
:1020000028C08E81882F90E09C012150304081E0D3
:1020100090E002C0880F991F2A95E2F79C0144279F
:1020200037FD4095542F8A819B81AC81BD818223ED
:102030009323A423B52321E00097A105B10509F45A
:1020400020E029838981805D0E942B0E8E81815042
:102050008E838E818823A9F626960FB6F894DEBF6C
:102060000FBECDBFCF91DF910895DF93CF93CDB752
:10207000DEB728970FB6F894DEBF0FBECDBF6D83D5
:102080007E838F8398876D817E818F8198850E9462
:10209000FD29DC01CB0189839A83AB83BC838981D1
:1020A0009A81AB81BC81BC01CD014FEF0E94AD0E86
:1020B0008EE20E942B0E69817A818B819C810E9425
:1020C000292A9B01AC016D817E818F8198850E94B8
:1020D0002C29DC01CB018D839E83AF83B8876D8172
:1020E0007E818F81988520E034E244E759E40E94A4
:1020F000DF2ADC01CB01BC01CD010E94FD29DC01FE
:10210000CB0189839A83AB83BC8389819A81AB811C
:10211000BC81BC01CD014FEF0E94AD0E28960FB6D9
:10212000F894DEBF0FBECDBFCF91DF910895DF934E
:10213000CF93CDB7DEB768970FB6F894DEBF0FBE6A
:10214000CDBFCE014F96988F8F8B8D8D9E8D9A83AC
:102150008983BEC189819A81FC01808189878985B3
:10216000853209F0ADC189819A8101969A8389836C
:1021700089819A81FC01808189878985803300F17A
:1021800089858A33E8F41A8614C08A85880F982FC7
:10219000990F990F980F8985890F80538A878981B4
:1021A0009A8101969A83898389819A81FC01808131
:1021B00089878985803338F089858A3330F304C074
:1021C0008FEF8A8701C000008985882F90E08835CD
:1021D000910509F4F1C08935910504F58434910520
:1021E00009F470C08534910564F48234910509F4D2
:1021F00019C1833491058CF58532910509F45CC1D0
:1022000062C18335910509F445C18535910509F40D
:10221000A2C08634910509F424C155C186369105C2
:1022200009F41FC1873691055CF483369105A9F046
:102230008436910509F18236910509F4D7C043C16E
:102240008537910509F470C08837910509F49DC060
:102250008337910509F41EC136C18F89988D9C0181
:102260002E5F3F4F388F2F8BFC01808191818987B2
:1022700089850E942B0E27C18F89988D9C012E5F26
:102280003F4F388F2F8BFC01808191819C838B8302
:102290008B819C81992354F48B819C8190958195AD
:1022A0009F4F9C838B838DE20E942B0E8B819C81A0
:1022B000AA2797FDA095BA2FBC01CD014A850E949F
:1022C000AD0E01C18F89988D9C012C5F3F4F388FD7
:1022D0002F8BFC0180819181A281B3818D839E83AC
:1022E000AF83B8878D819E81AF81B885BB2394F47D
:1022F0008D819E81AF81B885B095A095909581958F
:102300009F4FAF4FBF4F8D839E83AF83B8878DE2C2
:102310000E942B0E8D819E81AF81B885BC01CD01BD
:102320004A850E94AD0ECFC08F89988D9C012E5F8B
:102330003F4F388F2F8BFC01808191819C878B8749
:102340008B859C85CC01A0E0B0E0BC01CD014A8525
:102350000E94AD0EB8C08F89988D9C012C5F3F4FB5
:10236000388F2F8BFC0180819181A281B3818D8771
:102370009E87AF87B88B8D859E85AF85B889BC0158
:10238000CD014A850E94AD0E9EC08F89988D9C011B
:102390002E5F3F4F388F2F8BFC01808191819C876E
:1023A0008B878B859C85CC01A0E0B0E0BC01CD0182
:1023B0004A850E944A0F87C08F89988D9C012C5FA7
:1023C0003F4F388F2F8BFC0180819181A281B38197
:1023D0008D879E87AF87B88B8D859E85AF85B889A1
:1023E000BC01CD014A850E944A0F6DC08F89988D2E
:1023F0009C012E5F3F4F388F2F8BFC018081918194
:102400009C878B878A858F3F11F480E18A878B8533
:102410009C85CC01A0E0B0E0BC01CD014A850E94C2
:10242000F40F51C08F89988D9C012C5F3F4F388FDE
:102430002F8BFC0180819181A281B3818D879E8742
:10244000AF87B88B8A858F3F11F480E18A878D85AD
:102450009E85AF85B889BC01CD014A850E94F40FE5
:1024600032C08F89988D9C012C5F3F4F388F2F8B06
:10247000FC0180819181A281B381898B9A8BAB8B86
:10248000BC8B89899A89AB89BC89BC01CD010E942A
:10249000351019C08F89988D9C012E5F3F4F388F62
:1024A0002F8BFC01808191819E8B8D8B8D899E89E4
:1024B0000E948E0E000007C085E20E942B0E03C012
:1024C00089850E942B0E89819A8101969A8389833E
:1024D00089819A81FC018081882309F03BCE68962E
:1024E0000FB6F894DEBF0FBECDBFCF91DF91089538
:1024F000DF93CF9300D0CDB7DEB7198216C08981A4
:102500000E94EE0D1A820BC08A81803411F40E9461
:10251000AF1780E00E9491148A818F5F8A838A813D
:10252000882394F789818F5F89838981883038F384
:1025300080E00E94EE0D0F900F90CF91DF910895F3
:10254000DF93CF93CDB7DEB729970FB6F894DEBFF0
:102550000FBECDBF888769878885843008F06FC03B
:102560008985853608F06BC088858295880F807EC6
:102570008B838B81803410F41D8205C081E08D83B4
:102580008B8180548B838B81982F985F8D8160E045
:10259000492F0E946A0D8985882F90E0A0E0B0E065
:1025A000BC01CD0143E00E94AD0E898586958987E7
:1025B00089858695869586958E8397E08E81292FCD
:1025C000281B822F8F8381E0898336C08B81982FCF
:1025D000945F8D816981492F0E946A0D99818F8155
:1025E000981710F41C821AC099818F819817A1F452
:1025F000898587708C838C81882F90E028E030E07B
:10260000281B390B8FEF90E0022E02C0880F991F14
:102610000A94E2F78C8302C08FEF8C831A8206C083
:102620008C810E9491148A818F5F8A838A818C3089
:10263000B8F389818F5F89838981883038F2299640
:102640000FB6F894DEBF0FBECDBFCF91DF910895D6
:10265000DF93CF9300D000D0CDB7DEB78B836C83F0
:102660008B81880F8F5F8A838B818430D8F58C8132
:102670008536C0F580E06A8140E00E946A0D1982CB
:102680000CC08981803419F481E00E94C80D8FEF5D
:102690000E94911489818F5F898399818C81981719
:1026A00080F38C8189830CC08981803419F481E0A6
:1026B0000E94C80D80E00E94911489818F5F8983F8
:1026C0008981843688F381E06A814EE60E946A0D32
:1026D0008C81882F90E0A0E0B0E0BC01CD0143E008
:1026E0000E94AD0E0F900F900F900F90CF91DF9141
:1026F00008950F931F93DF93CF93CDB7DEB76997FC
:102700000FB6F894DEBF0FBECDBF898F0E94AC1507
:1027100085E390E0298DFC0120838BE390E02BE39F
:1027200030E0F90120812F77FC0120838BE390E0DA
:102730002BE330E0F90120812F7BFC0120838BE328
:1027400090E02BE330E0F90120812062FC0120833E
:1027500080E090E0A0E0B0E489839A83AB83BC83FF
:1027600069817A818B819C812BEA3AEA4AEA5EE3AD
:102770000E94DF2ADC01CB018D839E83AF83B88763
:1027800011E06D817E818F81988520E030E040E806
:102790005FE30E94912988230CF010E0112319F0C7
:1027A00081E08987A3C011E06D817E818F8198854A
:1027B00020E030E04FE753E40E94DB2A18160CF0CB
:1027C00010E0112309F489C069817A818B819C8191
:1027D00020E030E04AE754E40E949529DC01CB0177
:1027E0008A879B87AC87BD876A857B858C859D851D
:1027F00020E030E04AE753E40E94DF2ADC01CB010D
:102800008E879F87A88BB98B11E06E857F8588891D
:10281000998920E030E040E85FE30E949129882315
:102820000CF010E0112329F081E090E09B8B8A8B63
:1028300046C011E06E857F858889998920E03FEF49
:102840004FE757E40E94DB2A18160CF010E0112322
:1028500061F16A857B858C859D8520E030E040E2D2
:1028600051E40E94DF2ADC01CB01BC01CD010E94B2
:10287000FD29DC01CB019B8B8A8B12C089E190E0A2
:102880009D8B8C8B8C899D898C01C8010197F1F7F8
:102890008C011D8B0C8B8A899B8901979B8B8A8B62
:1028A0008A899B89009751F728C06E857F85888922
:1028B00099890E94FD29DC01CB019B8B8A8B8A8937
:1028C0009B899F8B8E8B8E899F898C01F801319714
:1028D000F1F78F011F8B0E8B10C06D817E818F8170
:1028E00098850E94FD29DC01CB0189878985888F25
:1028F000888D182F1A95F1F7188F8BE390E02BE352
:1029000030E0F90120812F7DFC01208369960FB60C
:10291000F894DEBF0FBECDBFCF91DF911F910F9115
:1029200008950F931F93DF93CF93CDB7DEB76997C9
:102930000FB6F894DEBF0FBECDBF898F0E94AC15D5
:1029400085E390E03091E004298D2327FC0120836A
:102950008BE390E02BE330E0F90120812068FC015B
:1029600020838BE390E02BE330E0F90120812F7B83
:10297000FC0120838BE390E02BE330E0F901208120
:102980002062FC01208380E090E0A0E0B0E4898335
:102990009A83AB83BC8369817A818B819C812BEA8A
:1029A0003AEA4AEA5EE30E94DF2ADC01CB018D832A
:1029B0009E83AF83B88711E06D817E818F8198857A
:1029C00020E030E040E85FE30E94912988230CF08A
:1029D00010E0112319F081E08987A3C011E06D8117
:1029E0007E818F81988520E030E04FE753E40E949C
:1029F000DB2A18160CF010E0112309F489C0698154
:102A00007A818B819C8120E030E04AE754E40E9487
:102A10009529DC01CB018A879B87AC87BD876A85B6
:102A20007B858C859D8520E030E04AE753E40E9459
:102A3000DF2ADC01CB018E879F87A88BB98B11E041
:102A40006E857F858889998920E030E040E85FE3E2
:102A50000E94912988230CF010E0112329F081E0D5
:102A600090E09B8B8A8B46C011E06E857F858889BC
:102A7000998920E03FEF4FE757E40E94DB2A1816C0
:102A80000CF010E0112361F16A857B858C859D85B2
:102A900020E030E040E251E40E94DF2ADC01CB017B
:102AA000BC01CD010E94FD29DC01CB019B8B8A8BEF
:102AB00012C089E190E09D8B8C8B8C899D898C0163
:102AC000C8010197F1F78C011D8B0C8B8A899B89BA
:102AD00001979B8B8A8B8A899B89009751F728C025
:102AE0006E857F85888999890E94FD29DC01CB014B
:102AF0009B8B8A8B8A899B899F8B8E8B8E899F89E2
:102B00008C01F8013197F1F78F011F8B0E8B10C0EC
:102B10006D817E818F8198850E94FD29DC01CB012A
:102B200089878985888F888D182F1A95F1F7188FD6
:102B30008BE390E02BE330E0F90120812F7DFC0155
:102B4000208369960FB6F894DEBF0FBECDBFCF913C
:102B5000DF911F910F9108950F931F93DF93CF93F0
:102B6000CDB7DEB7E1970FB6F894DEBF0FBECDBF8D
:102B700084E390E024E330E0F90120812F77FC0129
:102B800020838BE390E02BE330E0F90120812F7765
:102B9000FC0120838BE390E02BE330E0F9012081FE
:102BA0002064FC0120838BE390E02BE330E0F9010B
:102BB00020812F7DFC01208380E090E0A0E0B0E444
:102BC0008A839B83AC83BD836A817B818C819D8159
:102BD0002BEA3AEA4AEA5EE30E94DF2ADC01CB01F3
:102BE0008E839F83A887B98711E06E817F81888556
:102BF000998520E030E040E85FE30E949129882336
:102C00000CF010E0112319F081E08A87A3C011E0D5
:102C10006E817F818885998520E030E04FE753E41D
:102C20000E94DB2A18160CF010E0112309F489C069
:102C30006A817B818C819D8120E030E04AE754E409
:102C40000E949529DC01CB018B879C87AD87BE87CD
:102C50006B857C858D859E8520E030E04AE753E4D6
:102C60000E94DF2ADC01CB018F87988BA98BBA8B5E
:102C700011E06F85788989899A8920E030E040E801
:102C80005FE30E94912988230CF010E0112329F0C2
:102C900081E090E09C8B8B8B46C011E06F8578893A
:102CA00089899A8920E03FEF4FE757E40E94DB2AA9
:102CB00018160CF010E0112361F16B857C858D8571
:102CC0009E8520E030E040E251E40E94DF2ADC01F2
:102CD000CB01BC01CD010E94FD29DC01CB019C8B05
:102CE0008B8B12C089E190E09E8B8D8B8D899E89A4
:102CF0008C01C8010197F1F78C011E8B0D8B8B891C
:102D00009C8901979C8B8B8B8B899C89009751F7B1
:102D100028C06F85788989899A890E94FD29DC01FC
:102D2000CB019C8B8B8B8B899C89988F8F8B8F8908
:102D3000988D8C01F8013197F1F78F01188F0F8B67
:102D400010C06E817F81888599850E94FD29DC01F4
:102D5000CB018A878A85898F898D182F1A95F1F77B
:102D6000198F8BE390E02BE330E0F90120812062A2
:102D7000FC01208380E090E0A0E0B0E48A8F9B8F8C
:102D8000AC8FBD8F6A8D7B8D8C8D9D8D2BEA3AEA41
:102D90004AEA5EE30E94DF2ADC01CB018E8F9F8F1F
:102DA000A8A3B9A311E06E8D7F8D88A199A120E021
:102DB00030E040E85FE30E94912988230CF010E0A6
:102DC000112319F081E08AA3A3C011E06E8D7F8DDD
:102DD00088A199A120E030E04FE753E40E94DB2A6C
:102DE00018160CF010E0112309F489C06A8D7B8D50
:102DF0008C8D9D8D20E030E04AE754E40E949529B7
:102E0000DC01CB018BA39CA3ADA3BEA36BA17CA1D2
:102E10008DA19EA120E030E04AE753E40E94DF2A22
:102E2000DC01CB018FA398A7A9A7BAA711E06FA1D6
:102E300078A589A59AA520E030E040E85FE30E94EC
:102E4000912988230CF010E0112329F081E090E013
:102E50009CA78BA746C011E06FA178A589A59AA56C
:102E600020E03FEF4FE757E40E94DB2A18160CF0F2
:102E700010E0112361F16BA17CA18DA19EA120E046
:102E800030E040E251E40E94DF2ADC01CB01BC01CA
:102E9000CD010E94FD29DC01CB019CA78BA712C0AC
:102EA00089E190E09EA78DA78DA59EA58C01C80104
:102EB0000197F1F78C011EA70DA78BA59CA5019783
:102EC0009CA78BA78BA59CA5009751F728C06FA145
:102ED00078A589A59AA50E94FD29DC01CB019CA7B4
:102EE0008BA78BA59CA598AB8FA78FA598A98C01C4
:102EF000F8013197F1F78F0118AB0FA710C06E8D55
:102F00007F8D88A199A10E94FD29DC01CB018AA3B4
:102F10008AA189AB89A9182F1A95F1F719AB83E318
:102F200090E0FC018081881F8827881F8983898120
:102F3000882309F038CE84E390E024E330E0F901FF
:102F400020812068FC012083E1960FB6F894DEBF53
:102F50000FBECDBFCF91DF911F910F910895DF93E9
:102F6000CF93CDB7DEB78BE390E02BE330E0F901F0
:102F700020812061FC01208388E390E028E330E099
:102F8000F90120812D7FFC012083CF91DF910895ED
:102F9000DF93CF93CDB7DEB788E390E028E330E04E
:102FA000F90120812260FC0120838BE390E02BE378
:102FB00030E0F90120812F7EFC012083CF91DF9149
:102FC0000895EF92FF920F931F93DF93CF93CDB7A6
:102FD000DEB760970FB6F894DEBF0FBECDBF888B0B
:102FE0008091DF048D838091DE048B831F861C8299
:102FF00024E530E08889682F70E040E350E0649F6A
:10300000C001659F900D749F900D1124820F931F36
:103010009A83898388898A30B1F501C000008F8541
:103020008F5F8F8789819A819F838E8389819A811F
:1030300001969A8389838E819F818C01F801E590A6
:10304000F4908F01F986E8861F830E838885998521
:103050008A878A850E9491148F85883108F068C01C
:103060008F8596E0692F0E94612B892F8823B1F606
:103070008B818F5F8B838D810E9479138B810E945E
:103080007913CDCF00008F858F5F8F8789819A81DB
:103090009C878B8789819A8101969A8389838B8506
:1030A0009C858C01F801E590F4908F01FE86ED86F9
:1030B0001C870B878D859E858A878A850E9491143F
:1030C0008091DF048F5F8093DF048091DF0491E0C3
:1030D000803809F090E02091DD0481E0222309F09E
:1030E00080E08923882329F081E00E94C80D81E0D7
:1030F0008C838F858033F0F48F858F70882309F05F
:10310000C1CF8B818F5F8B838C81882321F080E0FE
:103110000E94C80D1C828D818093DF048B81809377
:10312000DE048D810E9479138B810E947913ABCFCD
:10313000000001C0000060960FB6F894DEBF0FBE1D
:10314000CDBFCF91DF911F910F91FF90EF90089528
:10315000DF93CF93CDB7DEB781E062E040E30E941A
:103160006A0D8BE00E94E117CF91DF910895DF9304
:10317000CF93CDB7DEB781E062E040E30E946A0DF5
:103180008CE00E94E117CF91DF910895DF93CF93F8
:10319000CDB7DEB787E390E027E330E0F901208187
:1031A0002F79FC01208388E390E028E330E0F901E7
:1031B00020812066FC012083CF91DF910895DF9369
:1031C000CF93CDB7DEB786E390E0FC0180818072BB
:1031D000CF91DF910895DF93CF93CDB7DEB786E32C
:1031E00090E0FC0180818074CF91DF910895DF939E
:1031F000CF9300D0CDB7DEB778940E9406230E940B
:10320000680C0E94E8220E94C2030E9493280E9438
:103210000B280E94B6230E94220A809120019091DF
:1032200021010E945F230E94C6181A82198207C0DA
:103230000E94BF0589819A8101969A838983898139
:103240009A8121E0843F920798F3109224010CC0E8
:103250000E94BF058091D804882331F01092D804D1
:1032600080E090E00E94531B8091CB04882381F77B
:103270000E94D90601C000000E94BF058091D804B9
:103280008823C9F38091EB049091EC04A091ED04A4
:10329000B091EE040097A105B10599F08091EB047F
:1032A0009091EC04A091ED04B091EE040197A10976
:1032B000B1098093EB049093EC04A093ED04B093D8
:1032C000EE048091D4049091D504A091D604B091DD
:1032D000D7040097A105B10599F08091D40490918D
:1032E000D504A091D604B091D7040197A109B109E2
:1032F0008093D4049093D504A093D604B093D704BC
:103300008091E5049091E604A091E704B091E8046F
:103310000097A105B10599F08091E5049091E6042C
:10332000A091E704B091E8040197A109B109809345
:10333000E5049093E604A093E704B093E8041092A8
:10334000D8040E94C3238091C604882311F00E94F0
:10335000B30B8091CA04882321F40E94B3220E94F7
:10336000781F809121018295869586958370817062
:10337000982F81E08927817081708295880F880F4E
:10338000807C909121019F7B892B809321018091EA
:103390002001909121010E945F236ECFDF93CF9394
:1033A0000F92CDB7DEB70E94370D80E00E94EE0D80
:1033B0008091C4029091C502FC01828193810E9498
:1033C0008E0E198255C02091C4023091C5028981A8
:1033D000882F90E0880F991F820F931F0596FC019C
:1033E00080819181009709F43FC08091C40290913F
:1033F000C502FC01948189819817E9F40E94180E96
:1034000089818E5F0E94EE0D2091C4023091C50229
:103410008981882F90E0880F991F820F931F05964E
:10342000FC0180819181FC01828193810E948E0E3A
:103430000E94220E1AC089818E5F0E94EE0D20919B
:10344000C4023091C5028981882F90E0880F991FAE
:10345000820F931F0596FC0180819181FC0182817E
:1034600093810E948E0E01C0000089818F5F898345
:103470008981853008F4A7CF0F90CF91DF9108950F
:10348000DF93CF930F92CDB7DEB78091CE04882320
:1034900029F082E090E00E94531B32C08091C40268
:1034A0009091C502FC0124812F5FFC012483FC0163
:1034B000848189832091C4023091C5028981882F3B
:1034C00090E0880F991F820F931F0596FC01808161
:1034D0009181009731F48091C4029091C502FC0162
:1034E000148200D08DB79EB7019626EC32E0FC0125
:1034F000318320830E94EE2B0F900F900E94CE19F3
:103500000F90CF91DF910895DF93CF9300D0CDB787
:10351000DEB78091CE04882329F081E090E00E94FC
:10352000531B44C08091C4029091C502FC01848168
:103530008A838A810E94C4288A81882369F5198236
:1035400027C02091C4023091C5028981882F90E064
:10355000880F991F820F931F0596FC01808191812E
:10356000009799F48091C4029091C502298121505D
:10357000FC0124838091C4029091C502FC018481E6
:103580000E94C4280E94CE1911C089818F5F89834F
:1035900089818530B0F20AC08091C4029091C50241
:1035A0002A812150FC0124830E94CE190F900F9094
:1035B000CF91DF910895DF93CF93CDB7DEB78091A0
:1035C000CE04882329F084E090E00E94531B21C0A0
:1035D0008091C4029091C502FC0180819181009785
:1035E00071F08091C4029091C502FC0180819181AB
:1035F0009093C5028093C4020E94CE190AC0109213
:10360000CA040E94370D0E94781F0E9448220E941F
:10361000B322CF91DF910895DF93CF930F92CDB76F
:10362000DEB78091CE04882329F083E090E00E94E9
:10363000531B35C08091C4029091C502FC01848166
:1036400089832091C4023091C5028981882F90E03E
:10365000880F991F820F931F0596FC01808191812D
:10366000FC01858196810097B1F02091C4023091D0
:10367000C5028981882F90E0880F991F820F931FC0
:103680000596FC01808191819093C5028093C402CC
:103690000E94CE1904C080E090E00E94531B0F905E
:1036A000CF91DF910895EF92FF920F931F93DF93D5
:1036B000CF9300D0CDB7DEB79A8389838091C402BF
:1036C0009091C502FC012281338100D000D08DB7DA
:1036D0009EB701964AEC52E0FC0151834083FC0105
:1036E000338322830E94EE2B0F900F900F900F9048
:1036F0008091C4029091C502F2E0833B9F0709F0DC
:10370000E7C08091CE04882F90E08130910599F137
:103710008230910509F46CC0009709F02BC380ED4D
:1037200092E00E94032C81E08093CA040E94370D2E
:1037300080E00E94EE0D84ED92E00E948E0E86E005
:103740000E94EE0D8AEE92E00E948E0E87E00E94AB
:10375000EE0D82E093E00E948E0E80E063E048E28E
:103760000E946A0D0E94862681E08093CE0481E04B
:103770008093CB040CC38BE093E00E94032C80E089
:1037800063E048E20E946A0D0E94862689819A8140
:103790008330910509F0F0C20E9449269093CD0430
:1037A0008093CC040E94370D80E00E94EE0D84EDE2
:1037B00092E00E948E0E86E00E94EE0D8FE093E074
:1037C0000E948E0E87E00E94EE0D87E293E00E9439
:1037D0008E0E80E063E048E20E946A0D8091CC0486
:1037E0009091CD040E94FE2682E08093CE04CFC249
:1037F00089819A8182309105E1F08330910579F1D8
:103800008130910509F0BAC28091CC049091CD0429
:1038100001969093CD048093CC0480E063E048E26D
:103820000E946A0D8091CC049091CD040E94FE26E6
:10383000AEC28091CC049091CD0401979093CD04B9
:103840008093CC0480E063E048E20E946A0D80919E
:10385000CC049091CD040E94FE26000098C2E09016
:10386000A104F090A2040091A3041091A4040E946A
:1038700049269C018091CC049091CD04A901481B5C
:10388000590BCA01CC01A0E0B0E0BC01CD010E94FF
:10389000292A9B01AC01C801B7010E942C29DC0137
:1038A000CB018093A1049093A204A093A304B093AE
:1038B000A4041092CE041092CA041092CB048CE897
:1038C00092E09093C5028093C4020E94370D5FC2BC
:1038D0008091C4029091C50252E08F36950709F598
:1038E00080E99AE0ABE0B0E08093A6009093A70057
:1038F000A093A800B093A9001092CA048CE892E0AB
:103900009093C5028093C4020E94370D0E94781FD5
:103910000E9448220E94B3228AE393E00E94032C73
:1039200036C28091C4029091C502E2E08C329E07BB
:1039300009F060C08091C4029091C502FC018481AD
:103940008823A9F41092CA041092C4048CE892E06F
:103950009093C5028093C4020E94F90A0E94370D19
:103960000E94781F0E9448220E94B3221DC08091AD
:10397000C4029091C502FC0184818130A9F481E0E8
:103980008093C4041092CA048CE892E09093C5021C
:103990008093C4020E94F90A0E94370D0E94781F8A
:1039A0000E9448220E94B32280919400813089F4C1
:1039B00080E063E041E20E946A0D81E30E942B0EE9
:1039C00080E064E04EE10E946A0D80E20E942B0ECE
:1039D000DEC180E063E041E20E946A0D80E20E9465
:1039E0002B0E80E064E04EE10E946A0D82E30E94AB
:1039F0002B0ECDC18091C4029091C502F2E08734B4
:103A00009F0709F0C4C18091C4029091C502FC01D6
:103A10008481813009F0CAC08091CE04882F90E063
:103A2000009729F08130910509F441C0B0C10E948E
:103A3000370D80E00E94EE0D8091C4029091C50286
:103A4000FC0187819085FC01828193810E948E0E0A
:103A500086E00E94EE0D8FE093E00E948E0E87E0DC
:103A60000E94EE0D8CE493E00E948E0E81E063E0F4
:103A700045E00E946A0D00D08DB79EB7019621E601
:103A800033E0FC01318320830E9497100F900F9048
:103A900080E063E048E20E946A0D8091AA00909164
:103AA000AB000E94D01E81E08093CE0470C189815A
:103AB0009A818230910581F18330910524F481301F
:103AC000910551F064C18330910509F444C08430FC
:103AD000910509F456C05BC18091AA009091AB009A
:103AE000F8E380349F0708F04BC18091AA009091C1
:103AF000AB0006969093AB008093AA0080E063E051
:103B000048E20E946A0D1092C1048091AA0090912F
:103B1000AB000E94D01E3BC18091AA009091AB00E7
:103B20008C33910508F42EC18091AA009091AB00CE
:103B30000A979093AB008093AA0080E063E048E28C
:103B40000E946A0D1092C1048091AA009091AB006E
:103B50000E94D01E1CC10E94670B1092CE041092CE
:103B6000CA048CE892E09093C5028093C4020E943C
:103B7000370D0E94781F0E9448220E94B322000045
:103B800006C10E947F0B1092CE041092CA048CE8EA
:103B900092E09093C5028093C4020E94370D0E9468
:103BA000781F0E9448220E94B322F1C08091C40273
:103BB0009091C502FC018481823009F0E8C08091B7
:103BC000CE04882F90E0009729F08130910509F408
:103BD0004CC0DDC00E94370D80E00E94EE0D809148
:103BE000C4029091C502FC0187819085FC0182810D
:103BF00093810E948E0E86E00E94EE0D8FE093E08E
:103C00000E948E0E87E00E94EE0D88E693E00E94EF
:103C10008E0E81E067E044E10E946A0D8091AA0067
:103C20009091AB000E94D01E81E063E045E00E94CD
:103C30006A0D00D08DB79EB7019621E633E0FC01F6
:103C4000318320830E9497100F900F9080E063E0F3
:103C500048E20E946A0D8091AC009091AD000E94F4
:103C6000D01E81E08093CE0492C089819A818230F7
:103C70009105B1F18330910524F48130910551F023
:103C800086C08330910509F44AC08430910509F457
:103C90005BC07DC08091AA009091AB009C01265032
:103CA00030408091AC009091AD008217930708F0EE
:103CB0006BC08091AC009091AD0006969093AD00E2
:103CC0008093AC0080E063E048E20E946A0D1092AD
:103CD000C1048091AC009091AD000E94D01E57C0ED
:103CE0008091AC009091AD008C33910508F44EC0EA
:103CF0008091AC009091AD000A979093AD008093B5
:103D0000AC0080E063E048E20E946A0D1092C104BA
:103D10008091AC009091AD000E94D01E38C00E94EE
:103D20004F0B1092CE041092CA048CE892E090934C
:103D3000C5028093C4020E94370D0E94781F0E9422
:103D400048220E94B32223C00E94990B1092CE04F5
:103D50001092CA048CE892E09093C5028093C4024A
:103D60000E94370D0E94781F0E9448220E94B322B1
:103D700000000DC000000BC0000009C0000007C01B
:103D8000000005C0000003C0000001C000000F904B
:103D90000F90CF91DF911F910F91FF90EF900895B9
:103DA000DF93CF9300D000D0CDB7DEB79C838B8359
:103DB0008B819C8120E13EE0B9010E946D2B9B012B
:103DC000C90189838981482F50E020E13EE0429F6C
:103DD000C001439F900D529F900D11242B813C8177
:103DE000A901481B590BCA019C838B838B819C8141
:103DF0002CE330E0B9010E946D2B9B01C9018A833D
:103E000089818823B9F48981282F30E000D000D03F
:103E10008DB79EB7019646E753E0FC01518340837E
:103E2000FC01338322830E9497100F900F900F9014
:103E30000F9016C08981282F30E000D000D08DB7B8
:103E40009EB7019648E753E0FC0151834083FC0193
:103E5000338322830E9497100F900F900F900F9042
:103E60008A81882371F400D08DB79EB701962BE725
:103E700033E0FC01318320830E9497100F900F9054
:103E800030C08A818A30B8F48A81282F30E000D08F
:103E900000D08DB79EB701964FE753E0FC015183E8
:103EA0004083FC01338322830E9497100F900F9070
:103EB0000F900F9016C08A81282F30E000D000D0DC
:103EC0008DB79EB7019644E853E0FC0151834083CF
:103ED000FC01338322830E9497100F900F900F9064
:103EE0000F900F900F900F900F90CF91DF9108954A
:103EF000DF93CF93CDB7DEB72A970FB6F894DEBF26
:103F00000FBECDBF80E067E04AE00E946A0D0E94CC
:103F100086268091A6009091A700A091A800B0915C
:103F2000A90081312EE0920720E0A20720E0B2072D
:103F300008F44CC08091CF04823099F48091A6009F
:103F40009091A700A091A800B091A9000197A109A4
:103F5000B1098093A6009093A700A093A800B09306
:103F6000A90081E067E044E10E946A0D8091A6000B
:103F70009091A700A091A800B091A90020E13EE097
:103F800040E050E0BC01CD010E94812BDA01C90163
:103F900000D000D000D02DB73EB72F5F3F4F48E88C
:103FA00053E0F90151834083F90182839383A48311
:103FB000B5830E9497108DB79EB706960FB6F894FA
:103FC0009EBF0FBE8DBF0E94070B17C081E067E048
:103FD00044E10E946A0D00D08DB79EB7019620E99A
:103FE00033E0FC01318320830E9497100F900F90E3
:103FF0008091C60484608093C6048091A5008823C4
:1040000009F010C28091C404813009F01EC10E94E1
:104010006E09DC01CB018B839C83AD83BE838B81D6
:104020009C81AD81BE818931F7E49F07F0E0AF0745
:10403000F0E0BF0740F088E197E4A0E0B0E08B83B8
:104040009C83AD83BE838B819C81AD81BE81843690
:104050009105A105B105B0F584E690E0A0E0B0E0DF
:104060008B839C83AD83BE8380E062E04AE20E9442
:104070006A0D80E190E00E94E11780E062E04CE38D
:104080000E946A0D8EE090E00E94E11781E062E0FC
:104090004CE00E946A0D80E090E00E94E11781E010
:1040A00062E04CE10E946A0D8AE090E00E94E11714
:1040B00081E062E040E20E946A0D81E090E00E94AF
:1040C000E117DDC181E062E04AE00E946A0D8AE00A
:1040D00090E00E94E1178B819C81AD81BE8120E13F
:1040E00037E240E050E0BC01CD010E94812BDA01B3
:1040F000C90189838B819C81AD81BE8120E137E23A
:1041000040E050E0BC01CD010E94812BDC01CB01DD
:104110008B839C83AD83BE838981882359F080E0A3
:1041200062E04AE20E946A0D8981882F90E00E9435
:10413000E11709C080E062E04AE20E946A0D80E176
:1041400090E00E94E1178B819C81AD81BE8128EEB9
:1041500033E040E050E0BC01CD010E94812BDA0148
:10416000C90189838B819C81AD81BE8128EE33E0BA
:1041700040E050E0BC01CD010E94812BDC01CB016D
:104180008B839C83AD83BE8380E062E04AE30E9420
:104190006A0D8981882F90E00E94E1178B819C81B4
:1041A000AD81BE8124E630E040E050E0BC01CD01AD
:1041B0000E94812BDA01C90189838B819C81AD81A9
:1041C000BE8124E630E040E050E0BC01CD010E9419
:1041D000812BDC01CB018B839C83AD83BE8381E08B
:1041E00062E040E10E946A0D8981882F90E00E9480
:1041F000E1178B819C81AD81BE812AE030E040E0F7
:1042000050E0BC01CD010E94812BDA01C9018983F4
:104210008B819C81AD81BE812AE030E040E050E09E
:10422000BC01CD010E94812BDC01CB018B839C83DF
:10423000AD83BE8381E062E040E20E946A0D898125
:10424000882F90E00E94E1171AC10E94EB09DC015F
:10425000CB018F839887A987BA878F819885A98595
:10426000BA8587339105A105B10540F487E390E055
:10427000A0E0B0E08F839887A987BA878F8198855F
:10428000A985BA85803127E2920720E0A20720E0C5
:10429000B20770F180E062E044E30E946A0D80E1C1
:1042A00090E00E94E11780E062E049E20E946A0D1E
:1042B00080E190E00E94E11781E062E041E00E942D
:1042C0006A0D8DE090E00E94E11781E062E040E13C
:1042D0000E946A0D81E090E00E94E11781E062E0B7
:1042E00040E20E946A0D80E090E00E94E117C7C0A2
:1042F00080E062E04AE30E946A0D8AE090E00E945A
:10430000E1178F819885A985BA8528EE33E040E0D2
:1043100050E0BC01CD010E94812BDA01C9018A83E2
:104320008F819885A985BA8528EE33E040E050E07A
:10433000BC01CD010E94812BDC01CB018F839887CA
:10434000A987BA8780E062E049E20E946A0D8A810B
:10435000882F90E00E94E1178F819885A985BA8502
:1043600024E630E040E050E0BC01CD010E94812B0A
:10437000DA01C9018A838F819885A985BA8524E6E7
:1043800030E040E050E0BC01CD010E94812BDC0117
:10439000CB018F839887A987BA8781E062E040E0EC
:1043A0000E946A0D8A81882F90E00E94E1178F8118
:1043B0009885A985BA852AE030E040E050E0BC014C
:1043C000CD010E94812BDA01C9018A838F819885F2
:1043D000A985BA852AE030E040E050E0BC01CD017B
:1043E0000E94812BDC01CB018F839887A987BA8734
:1043F00081E062E040E10E946A0D8A81882F90E0AE
:104400000E94E1178F819885A985BA858A8381E00A
:1044100062E040E20E946A0D8A81882F90E00E944B
:10442000E1172DC081E062E040E20E946A0D8FE05A
:1044300090E00E94E11781E062E040E10E946A0D95
:104440008FE090E00E94E11781E062E040E00E948E
:104450006A0D8FE090E00E94E11780E062E042E3A5
:104460000E946A0D80E190E00E94E11780E062E026
:1044700047E20E946A0D80E190E00E94E1172A96CF
:104480000FB6F894DEBF0FBECDBFCF91DF91089578
:10449000DF93CF93CDB7DEB78091CF04882F90E024
:1044A00083309105A9F1843091054CF48130910558
:1044B000F9F08230910524F5009791F051C08630D3
:1044C0009105B1F18730910524F48430910541F1D3
:1044D00047C087309105A1F188309105C9F140C0EE
:1044E00080E00E94EE0D89E391E00E948E0E38C0BC
:1044F00080E00E94EE0D83E491E00E948E0E30C0B9
:1045000080E00E94EE0D8FE291E00E948E0E28C0A6
:1045100080E00E94EE0D8DE491E00E948E0E20C09E
:1045200080E00E94EE0D87E591E00E948E0E18C09B
:1045300080E00E94EE0D83E491E00E948E0E10C098
:1045400080E00E94EE0D83E491E00E948E0E08C090
:1045500080E00E94EE0D8FE791E00E948E0E000039
:10456000CF91DF910895DF93CF93CDB7DEB70E944F
:10457000EB18882351F081E060E042E10E946A0D6F
:104580008BE691E00E948E0E17C08091CF0486309A
:1045900051F481E060E042E10E946A0D81E691E021
:1045A0000E948E0E09C081E060E042E10E946A0D27
:1045B00085E791E00E948E0E8091C404882319F053
:1045C0000E94B71802C00E94A818CF91DF910895E9
:1045D000DF93CF93CDB7DEB783E590E023E530E0FE
:1045E000F90120812967FC01208387E390E027E31C
:1045F00030E0F90120812860FC0120838CE590E007
:1046000025E9FC012083CF91DF910895DF93CF93BB
:10461000CDB7DEB781E390E021E330E0F9012081FE
:10462000206EFC01208380E090E00E945F23CF9108
:10463000DF910895DF93CF93CDB7DEB782E390E0AB
:1046400022E330E0F90120812064FC01208382E331
:1046500090E022E330E0F90120812F7BFC012083F0
:10466000CF91DF9108951F93DF93CF9300D0CDB703
:10467000DEB782E390E022E330E0F9012081206898
:10468000FC01208381E089838981182F1A95F1F735
:10469000198382E390E022E330E0F90120812F7753
:1046A000FC01208381E08A838A81182F1A95F1F713
:1046B0001A830F900F90CF91DF911F910895DF9390
:1046C000CF9300D00F92CDB7DEB79B838A83198238
:1046D00022C08A819B81992354F482E390E022E3F3
:1046E00030E0F90120812062FC01208309C082E3CF
:1046F00090E022E330E0F90120812F7DFC0120834E
:104700000E941A238A819B81880F991F9B838A8329
:1047100089818F5F898389818031D8F20E94332318
:104720000F900F900F90CF91DF910895DF93CF936B
:10473000CDB7DEB7809120018F7D809320018091DD
:1047400021018F7780932101809120018F7E8093BA
:104750002001809120018F7B809320018091200196
:104760008F7780932001CF91DF910895DF93CF93CE
:10477000CDB7DEB70E94370D1092CF040E944822B9
:10478000CF91DF910895DF93CF93CDB7DEB78091BE
:10479000CF04882F90E08430910509F42AC1853038
:1047A00091057CF48130910509F1823091050CF47A
:1047B00022C182309105E1F18330910509F4A6C050
:1047C00027C18730910509F4D5C0883091052CF4B4
:1047D0008630910509F4BBC01BC18830910509F4EE
:1047E000E4C08930910509F4F2C012C18BE993E06D
:1047F0000E94032C0E94EB18009731F087E0809311
:10480000CF040E940B2504C10E94DF18009751F0CD
:1048100084EB93E00E94032C86E08093CF040E94F7
:104820000B25F6C082E08093CF040E940B25F0C0D8
:104830008EEC93E00E94032C0E94EB180097A9F0E5
:104840008091990390919A03CC01A0E0B0E080930D
:10485000D4049093D504A093D604B093D70489E0F0
:104860008093CF040E940B250DC00E94DF18009793
:1048700049F084EE93E00E94032C86E08093CF04FD
:104880000E940B258091EB049091EC04A091ED0423
:10489000B091EE0400D000D000D02DB73EB72F5F0E
:1048A0003F4F4EEF53E0F90151834083F90182837A
:1048B0009383A483B5830E94EE2B8DB79EB7069693
:1048C0000FB6F8949EBF0FBE8DBF8091EB04909100
:1048D000EC04A091ED04B091EE040097A105B105A0
:1048E00029F483E08093CF040E940B258091E50496
:1048F0009091E604A091E704B091E8040097A10527
:10490000B10509F07AC00E94380C82C08091EB0496
:104910009091EC04A091ED04B091EE040097A105F4
:10492000B10529F481E08093CF040E940B2580918A
:10493000E5049091E604A091E704B091E8040097A3
:10494000A105B10509F05BC00E94380C61C085E18A
:1049500094E00E94032C0E94DF18009709F051C0D8
:104960008FE294E00E94032C82E08093CF040E94A7
:104970000B254EC00E94EB18009729F482E080932B
:10498000CF040E940B258091EB049091EC04A09140
:10499000ED04B091EE040097A105B105A1F583E007
:1049A0008093CF040E940B2533C08091EB0490913B
:1049B000EC04A091ED04B091EE040097A105B105BF
:1049C00021F581E08093CF040E940B2521C08091C6
:1049D000D4049091D504A091D604B091D704009747
:1049E000A105B105A1F487E08093CF040E940B25B7
:1049F0000FC000000DC000000BC0000009C0000087
:104A000007C0000005C0000003C0000001C0000096
:104A1000CF91DF910895DF93CF93CDB7DEB780912B
:104A2000CF04282F30E000D000D08DB79EB701967C
:104A30004BE454E0FC0151834083FC013383228327
:104A40000E94EE2B0F900F900F900F908091CF044B
:104A5000882F90E08430910509F4B6C08530910527
:104A60008CF48130910521F1823091051CF400977E
:104A7000D1F0E3C08230910501F18330910509F452
:104A800074C0DBC08730910509F4B9C08830910546
:104A90002CF48630910509F4A8C0CFC08830910568
:104AA00009F4B2C0CAC00E9496230E944822C5C021
:104AB0000E9448220E949623C0C00E94EB180097D3
:104AC00031F087E08093CF040E940B25B6C00E948E
:104AD000DF18009751F084EE93E00E94032C86E0EB
:104AE0008093CF040E940B25A8C00E943709209113
:104AF000AA003091AB008091AC009091AD00A9016B
:104B0000481B590BCA01CC01A0E0B0E08093EB0434
:104B10009093EC04A093ED04B093EE040E949623CE
:104B2000809120018061809320018091200180622A
:104B300080932001809120018860809320010E9451
:104B400048228091970390919803CC01A0E0B0E0B7
:104B50008093E5049093E604A093E704B093E804FF
:104B600086E594E00E94032C68C00E94FF080E9422
:104B70009623809120018064809320018091200100
:104B80008160809320010E9448228091AC00909126
:104B9000AD00CC01A0E0B0E08093EB049093EC0476
:104BA000A093ED04B093EE04809197039091980345
:104BB000CC01A0E0B0E08093E5049093E604A093DC
:104BC000E704B093E80439C00E94FF080E949623CE
:104BD0008091200180648093200180912101806870
:104BE000809321010E94482228C00E949623809130
:104BF00020018061809320010E9448221EC00E94F3
:104C000096230E94482219C00E9496238091200179
:104C10008F77809320010E9448228091E90490912F
:104C2000EA04CC01A0E0B0E08093EB049093EC04A4
:104C3000A093ED04B093EE040000CF91DF910895AE
:104C4000DF93CF9300D0CDB7DEB79A838983898174
:104C50009A81FC01808191810F900F90CF91DF911B
:104C60000895DF93CF9300D000D0CDB7DEB79A83FD
:104C700089837C836B8389819A812B813C81FC01B0
:104C8000318320830F900F900F900F90CF91DF9181
:104C90000895DF93CF9300D0CDB7DEB780919F0406
:104CA0009091A004CC01A0E0B0E0BC01CD010E9435
:104CB000292ADC01CB012091A5043091A604409162
:104CC000A7045091A804BC01CD010E94DF2ADC0199
:104CD000CB012091A1043091A2044091A3045091F2
:104CE000A404BC01CD010E942D29DC01CB01BC0133
:104CF000CD010E94FD29DC01CB019A838983898142
:104D00009A810F900F90CF91DF910895DF93CF9309
:104D1000CDB7DEB727970FB6F894DEBF0FBECDBF75
:104D20000E9449269A83898389819A81CC01A0E0D7
:104D3000B0E02DB73EB72A5030400FB6F8943EBFD2
:104D40000FBE2DBF2DB73EB72F5F3F4FAE014D5F5A
:104D50005F4FF9015183408345E050E0F9015383EF
:104D6000428349EA54E0F90155834483F90186837B
:104D70009783A087B1870E94382C2DB73EB7265F56
:104D80003F4F0FB6F8943EBF0FBE2DBF8B81682FEB
:104D900070E08C81482F50E08D81282F30E08DB756
:104DA0009EB708970FB6F8949EBF0FBE8DBF8DB704
:104DB0009EB70196EDEAF4E0DC01ED93FC93FC0173
:104DC00073836283DC0115965C934E931497FC0108
:104DD000378326830E9497102DB73EB7285F3F4F39
:104DE0000FB6F8943EBF0FBE2DBF27960FB6F894AE
:104DF000DEBF0FBECDBFCF91DF910895DF93CF937C
:104E0000CDB7DEB727970FB6F894DEBF0FBECDBF84
:104E10009F838E838E819F81CC01A0E0B0E02DB76F
:104E20003EB72A5030400FB6F8943EBF0FBE2DBF9C
:104E30002DB73EB72F5F3F4FAE014F5F5F4FF90178
:104E40005183408345E050E0F9015383428349EAAE
:104E500054E0F90155834483F90186839783A08741
:104E6000B1870E94382C2DB73EB7265F3F4F0FB653
:104E7000F8943EBF0FBE2DBF8981682F70E08A81F4
:104E8000482F50E08B81282F30E08DB79EB70897D0
:104E90000FB6F8949EBF0FBE8DBF8DB79EB701961B
:104EA000EDEAF4E0DC01ED93FC93FC017383628393
:104EB000DC0115965C934E931497FC01378326838F
:104EC0000E9497102DB73EB7285F3F4F0FB6F8945A
:104ED0003EBF0FBE2DBF27960FB6F894DEBF0FBEA4
:104EE000CDBFCF91DF9108950F931F93DF93CF93A1
:104EF000CDB7DEB72A970FB6F894DEBF0FBECDBF91
:104F00000E9449269A83898389819A8121E0853F7D
:104F1000920720F084EF91E09A83898389819A81B6
:104F2000009711F41A82198289819A8122E330E074
:104F3000B9010E946D2B9B01C9018B8389819A81E4
:104F400022E330E0B9010E946D2B8C838B81882F86
:104F500090E0880F991F880F991F8D589B4FFC0177
:104F600080819181A281B3819C018B81882F90E007
:104F70000196880F991F880F991F8D589B4FFC0130
:104F800080819181A281B381A901481B590BCA017B
:104F90009E838D838B81882F90E0880F991F880FC7
:104FA000991F8D589B4FFC01008111812281338113
:104FB0008D819E8142E350E0BA010E946D2BAB01CE
:104FC000BA018C81482F50E0649FC001659F900D0D
:104FD000749F900D1124CC01A0E0B0E0B901A801AC
:104FE000481B590B6A0B7B0BDB01CA018F83988727
:104FF000A987BA878F819885A985BA85BC01CD011B
:105000002A960FB6F894DEBF0FBECDBFCF91DF91C9
:105010001F910F910895DF93CF93CDB7DEB785E44D
:1050200090E025E430E0F90120812F60FC0120832D
:1050300083E490E023E430E0F90120812D67FC0156
:10504000208389E590E029E530E0F901208120689E
:10505000FC012083CF91DF9108951F920F920FB62C
:105060000F9211248F939F93AF93BF93DF93CF93AE
:10507000CDB7DEB78091D9048D3709F044C081E007
:105080008093D8048091D0049091D104A091D2044F
:10509000B091D3040097A105B10599F08091D00497
:1050A0009091D104A091D204B091D3040197A109A9
:1050B000B1098093D0049093D104A093D204B0930B
:1050C000D3048091D4049091D504A091D604B091DA
:1050D000D7040097A105B10599F08091D40490916F
:1050E000D504A091D604B091D7040197A109B109C4
:1050F0008093D4049093D504A093D604B093D7049E
:105100001092D90405C08091D9048F5F8093D9048F
:10511000CF91DF91BF91AF919F918F910F900FBE73
:105120000F901F901895DF93CF93CDB7DEB780E433
:1051300090E0FC01108289E290E027E6FC012083E8
:105140008AE290E02AE230E0F90120812861FC0146
:1051500020838AE290E02AE230E0F9012081206891
:10516000FC01208380E490E020E430E0F90120811C
:105170002668FC0120838DEE98E260E070E00E94DA
:10518000A32BCF91DF910895DF93CF930F92CDB7EB
:10519000DEB7898300008BE290E0FC018081882FDC
:1051A00090E0807290700097B1F38CE290E02981DA
:1051B000FC0120830F90CF91DF910895DF93CF936F
:1051C000CDB7DEB78BE290E0FC0180818CE290E00D
:1051D000FC018081CF91DF910895DF93CF9300D0C0
:1051E0000F92CDB7DEB789837B836A8300008BE2A1
:1051F00090E0FC018081882F90E080729070009791
:10520000B1F38CE290E02981FC01208380E090E002
:105210000F900F900F90CF91DF9108951F920F92F2
:105220000FB60F9211248F939F93EF93FF93DF9309
:10523000CF93CDB7DEB78CE290E0FC018081809304
:105240002201CF91DF91FF91EF919F918F910F906C
:105250000FBE0F901F9018955058BB27AA270ED04D
:1052600070C161D130F066D120F031F49F3F11F46C
:105270001EF456C10EF4E095E7FB4CC1E92F72D144
:1052800080F3BA17620773078407950718F071F463
:105290009EF58AC10EF4E0950B2EBA2FA02D0B01BE
:1052A000B90190010C01CA01A0011124FF27591B6B
:1052B00099F0593F50F4503E68F11A16F040A22F71
:1052C000232F342F4427585FF3CF469537952795E2
:1052D000A795F0405395C9F77EF41F16BA0B620BE1
:1052E000730B840BBAF09150A1F0FF0FBB1F661F28
:1052F000771F881FC2F70EC0BA0F621F731F841F6B
:1053000048F4879577956795B795F7959E3F08F090
:10531000B3CF9395880F08F09927EE0F979587954F
:105320000895D4D008F481E008950CD00AC102D1C8
:1053300040F0F9D030F021F45F3F19F0EBC051118B
:1053400034C1EEC00FD198F39923C9F35523B1F3BB
:10535000951B550BBB27AA2762177307840738F0E4
:105360009F5F5F4F220F331F441FAA1FA9F333D043
:105370000E2E3AF0E0E830D091505040E695001CF7
:10538000CAF729D0FE2F27D0660F771F881FBB1FB3
:10539000261737074807AB07B0E809F0BB0B802D8D
:1053A000BF01FF2793585F4F2AF09E3F510568F0D9
:1053B000B1C0FBC05F3FECF3983EDCF38695779578
:1053C0006795B795F7959F5FC9F7880F911D9695DB
:1053D000879597F90895E1E0660F771F881FBB1F37
:1053E000621773078407BA0720F0621B730B840BE4
:1053F000BA0BEE1F88F7E0950895BCD088F09F5750
:1054000090F0B92F9927B751A0F0D1F0660F771F10
:10541000881F991F1AF0BA95C9F712C0B13081F0F0
:10542000C3D0B1E00895C0C0672F782F8827B85F38
:1054300039F0B93FCCF3869577956795B395D9F751
:105440003EF490958095709561957F4F8F4F9F4F5B
:105450000895E89409C097FB3EF490958095709567
:1054600061957F4F8F4F9F4F9923A9F0F92F96E9B0
:10547000BB279395F695879577956795B795F11125
:10548000F8CFFAF4BB0F11F460FF1BC06F5F7F4FC2
:105490008F4F9F4F16C0882311F096E911C07723D4
:1054A00021F09EE8872F762F05C0662371F096E8DD
:1054B000862F70E060E02AF09A95660F771F881FAC
:1054C000DAF7880F9695879597F90895990F000850
:1054D000550FAA0BE0E8FEEF16161706E807F907C6
:1054E000C0F012161306E407F50798F0621B730B61
:1054F000840B950B39F40A2661F0232B242B252BE2
:1055000021F408950A2609F4A140A6958FEF811D84
:10551000811D089597F99F6780E870E060E0089525
:105520009FEF80EC089500240A94161617061806BB
:105530000906089500240A94121613061406050697
:105540000895092E0394000C11F4882352F0BB0F28
:1055500040F4BF2B11F460FF04C06F5F7F4F8F4F8B
:105560009F4F089557FD9058440F551F59F05F3FC6
:1055700071F04795880F97FB991F61F09F3F79F075
:1055800087950895121613061406551FF2CF4695F7
:10559000F1DF08C0161617061806991FF1CF869579
:1055A0007105610508940895E894BB27662777275D
:1055B000CB0197F908958ADF08F48FEF08950BD097
:1055C000C0CFB1DF28F0B6DF18F0952309F0A2CFE5
:1055D000A7CF1124EACFC6DFA0F3959FD1F3950F93
:1055E00050E0551F629FF001729FBB27F00DB11D67
:1055F000639FAA27F00DB11DAA1F649F6627B00DF7
:10560000A11D661F829F2227B00DA11D621F739FDF
:10561000B00DA11D621F839FA00D611D221F749FED
:105620003327A00D611D231F849F600D211D822F34
:10563000762F6A2F11249F5750408AF0E1F088237B
:105640004AF0EE0FFF1FBB1F661F771F881F915088
:105650005040A9F79E3F510570F05CCFA6CF5F3F49
:10566000ECF3983EDCF3869577956795B795F795BB
:10567000E7959F5FC1F7FE2B880F911D9695879543
:1056800097F90895629FD001739FF001829FE00D0A
:10569000F11D649FE00DF11D929FF00D839FF00DB1
:1056A000749FF00D659FF00D9927729FB00DE11D5D
:1056B000F91F639FB00DE11DF91FBD01CF0111243A
:1056C0000895991B79E004C0991F961708F0961B5E
:1056D000881F7A95C9F780950895AA1BBB1B51E1D5
:1056E00007C0AA1FBB1FA617B70710F0A61BB70B52
:1056F000881F991F5A95A9F780959095BC01CD01F7
:105700000895A1E21A2EAA1BBB1BFD010DC0AA1F02
:10571000BB1FEE1FFF1FA217B307E407F50720F01A
:10572000A21BB30BE40BF50B661F771F881F991F95
:105730001A9469F760957095809590959B01AC01DE
:10574000BD01CF0108950F931F93CF93DF938C0179
:10575000EB01009711F42097C9F181E090E06EE031
:1057600070E00E947E2EFC019C01009789F180E888
:105770008383209771F0D387C28781E883838091E8
:10578000EF049091F004009721F4F093F004E0937B
:10579000EF0401151105E1F0118700878381826014
:1057A00083838091F1049091F204009789F4F0933F
:1057B000F204E093F1048091F3049091F4040097D3
:1057C00039F4F093F404E093F30402C020E030E0F5
:1057D000C901DF91CF911F910F910895A0E0B0E032
:1057E000E4EFFBE20C949C30FE01359661917191DF
:1057F0008091F1049091F204AF010E94692C2096EF
:10580000E2E00C94B830EF92FF920F931F93CF9386
:10581000DF938C01E091F104F091F204838181FF28
:105820001FC0C0E0D0E00AC0DB011896ED91FC91EA
:1058300019970995009711F0CFEFDFEFF8018191EB
:105840008F016091F1047091F204882369F7DB0104
:105850001896ED91FC9119978AE00995009711F03F
:10586000CFEFDFEFCE01CDB7DEB7E6E00C94B4307A
:10587000AEE0B0E0EEE3FCE20C949A300D891E89B4
:105880008F89988D26E02C831A83098397FF02C0A5
:1058900080E090E801979E838D839E01255E3F4FB7
:1058A000CE010196698D7A8DA9010E94692C4D81E6
:1058B0005E8157FD0AC02F813885421753070CF4CB
:1058C0009A01020F131FF80110822E96E4E00C9447
:1058D000B630ACE0B0E0EFE6FCE20C948C306C014A
:1058E0001B018A01FC0117821682838181FFD1C1CD
:1058F0002E010894411C511CF6019381F10193FD86
:10590000859193FF81911F01882309F4BEC18532DF
:1059100039F493FD859193FF81911F01853229F41C
:1059200090E0B6010E94F22FE7CFEE24FF2420E0A2
:105930002032B0F48B3269F08C3228F4803251F08E
:10594000833271F40BC08D3239F0803349F4216019
:105950002CC02260246029C0286027C0206125C097
:1059600027FD2CC0382F30533A3098F426FF08C05A
:105970008E2D880FE82EEE0CEE0CE80EE30E15C00F
:105980008F2D880FF82EFF0CFF0CF80EF30E2062FF
:105990000CC08E3221F426FD78C1206406C08C36FE
:1059A00011F4206802C0883649F4F10193FD859115
:1059B00093FF81911F01882309F0BACF982F955446
:1059C000933018F09052933028F40C5F1F4FFFE390
:1059D000F9830DC0833631F0833771F0833509F0D8
:1059E00060C022C0F801808189830E5F1F4F420191
:1059F00071E0A72EB12C16C062E0662E712C600EED
:105A0000711EF8018080918026FF03C06E2D70E02A
:105A100002C06FEF7FEFC4012C870E94E72F5C016B
:105A200083012C852F7717C052E0652E712C600EF4
:105A3000711EF8018080918026FF03C06E2D70E0FA
:105A400002C06FEF7FEFC4012C870E94D52F5C014D
:105A50002C852068830123FD20C008C080E290E0EF
:105A6000B6012C870E94F22FFA942C858F2D90E09E
:105A7000A816B90698F311C0F40127FD859127FFF8
:105A800081914F0190E0B6012C870E94F22F2C8566
:105A9000F110FA940894A108B108A114B10461F7B7
:105AA000F1C0843611F0893649F527FF08C0F801A6
:105AB00060817181828193810C5F1F4F09C0F80161
:105AC00060817181882777FD8095982F0E5F1F4F29
:105AD0004FE6B42EB22297FF09C09095809570953D
