:100000000C9486030C947C080C94C2070C94A303F4
:100010000C94802B0C94A3030C94A3030C94A303C3
:100020000C94A3030C94AD070C94A3030C94A303AA
:100030000C94A3030C94612C0C94A3030C94A303C1
:100040000C94E9030C94A3030C94A3030C94A30352
:100050000C94A3030000C0E0F0F838181838F8F04A
:10006000E0C0000000FFFFFFFF000000000000FFF5
:10007000FFFFFF0000071F3F7FF8E0C0C0E0F87FF0
:100080003F1F0700000000808080C0E0F8F8F8F80B
:10009000000000000000000101010101FFFFFFFF5F
:1000A000000000000000000000000000FFFFFFFF54
:1000B000000000000080E0F0F0783818181878F898
:1000C000F0E0C00000010101010080C0E0F0F87F15
:1000D0003F1F0F00E0F0F8FCFEDFCFC7C3C1C0C078
:1000E000C0C0C00000C0E0F0F83818181838F8F0A8
:1000F000E0C0000000000000000030303078FFFF5A
:10010000EFC78000000C3C7C7CF0E0C0C0E0F07FDA
:100110007F3F0F0000000000000000C0E0F8F8F88A
:10012000F80000000080E0F07C3E0F0701FFFFFFB9
:10013000FF000000070707070606060606FFFFFF89
:10014000FF0606060000F8F8F8F81818181818182E
:100150001800000000003F3F3F1F1C0C0C1C3CF827
:10016000F8F0C000000C3C7C7CF0E0C0C0E0F07F08
:100170007F3F0F0000C0E0F0F83818181838F8F08A
:10018000E0C0000000FFFFFFFF381C0C0C1C3CFC13
:10019000F8F0C00000071F3F7FF8E0C0C0E0F07F2C
:1001A0007F3F0F0000181818181818181818D8F8DA
:1001B000F8F8380000000000000000C0F8FEFF3F23
:1001C0000F0100000000000000F0FEFFFF0F010023
:1001D000000000000000C0F0F0F838181838F8F0FF
:1001E000F0C00000000083CFFFFF7C78787CFFFF29
:1001F000CF830000001F3F7F7FF0E0C0C0E0F07FB2
:100200007F3F1F000080E0F0F07838181838F8F0D1
:10021000E0C00000000F3F7FFFF0E0C0C0E070FFD3
:10022000FFFFFF0000183878F8E0C0C0E0F0FC7F66
:100230003F1F03000000000000000000000000005D
:1002400000E0E0E00000000000000000000000000E
:1002500000E0E0E0E0000000000000E0E0E0E0E0BE
:10026000E0E0E00000000000000000F0F8181818BE
:100270003830000000FE2020103E003173636363BD
:100280007F3E00000002728A8A8A0202FA0AFA0A93
:10029000FA0200000000F0204020F000E0301010D2
:1002A00030E0000000000700000017A045A7100084
:1002B000070500000000788484840100FC04F90430
:1002C000F800000000000000C0E0C0800000000056
:1002D0000000000000000000000103078FDEFCF8B2
:1002E0007020000000000000183C1E0F07030100F2
:1002F000000000000000000000000000000080C0BE
:10030000E0C00000000000002070F8FCDE8F070352
:1003100001000000000000000000000103070F1EA4
:100320003C18000000000000000000000000000079
:1003300000000000000000383838383838383838C5
:10034000383800000000000000000000000000003D
:10035000000000000000000000000000000000009D
:10036000000000000000000000000000000000008D
:10037000000000000000000000000000000000007D
:1003800000000000FFFFFFFFFF00FFFFFFFFFFFF78
:1003900000FFFFFFFFFFFF00FFFFFFFFFFFF00FF6A
:1003A000FFFFFFFFFF00FFFFFFFFFFFF00FFFFFF5B
:1003B000FFFFFF00FFFFFFFFFFFF00FFFFFFFFFF4B
:1003C000FF00FFFFFFFFFFFF00FFFFFFFFFFFF003A
:1003D000FFFFFFFFFFFF00FFFFFFFFFFFF00FFFF2B
:1003E000FFFFFFFF00FFFFFFFFFFFF00FFFFFFFF1B
:1003F000FFFF00FFFFFFFFFFFF00FFFFFFFFFFFF0B
:1004000000FFFFFFFFFFFF00FFFFFFFFFFFF00FFF9
:10041000FFFFFFFFFF00FFFFFFFFFFFF00FFFFFFEA
:10042000FFFFFF00FFFFFFFFFFFF00FFFFFFFFFFDA
:10043000FF00FFFFFFFFFFFF00FFFFFFFFFFFF00C9
:10044000FFFFFFFFFFFF00FFFFFFFFFFFF00FFFFBA
:10045000FFFFFFFF00FFFFFFFFFFFF00FFFFFFFFAA
:10046000FFFF00FF0000000000FFFF00004F000042
:1004700000FF000700070000FF147F147F1400FF37
:10048000242A7F2A1200FF231308646200FF3649E2
:1004900055222000FF000503000000FF001C224140
:1004A0000000FF0041221C0000FF14083E08140059
:1004B000FF08083E080800FF503000000000FF0859
:1004C0000808080800FF006060000000FF20100816
:1004D000040200FF3E5149453E00FF40427F40403C
:1004E00000FF426151494600FF2141454B3100FF69
:1004F0001814127F1000FF274545453900FF3C4A7C
:1005000049493000FF017109050300FF3649494997
:100510003600FF064949291E00FF0036360000005C
:10052000FF005636000000FF081422410000FF14AF
:100530001414141400FF004122140800FF0201519A
:10054000090600FF000002050200FF7E1111117E66
:1005500000FF7F4949493600FF3E4141412200FFEB
:100560007F4141221C00FF7F4949494100FF7F092B
:1005700009090100FF3E4149497A00FF7F08080848
:100580007F00FF00417F410000FF2040413F01000C
:10059000FF7F0814224100FF7F4040404000FF7F62
:1005A000020C027F00FF7F0408107F00FF3E4141E4
:1005B000413E00FF7F0909090600FF3E4151215ECF
:1005C00000FF7F0919294600FF264949493200FFEB
:1005D00001017F010100FF3F4040403F00FF1F201D
:1005E00040201F00FF3F4038403F00FF63140814C5
:1005F0006300FF070870080700FF61514945430089
:10060000FF007F41410000FF020408102000FF00AE
:1006100041417F0000FF040201020400FF4040400E
:10062000404000FF000003050000FF2054545478B0
:1006300000FF7F4444443800FF384444444400FFF2
:10064000384444447F00FF385454541800FF0404D5
:100650007E050500FF085454543C00FF7F08040445
:100660007800FF00447D4000FFFF2040443D00FF34
:10067000FF7F10284400FFFF417F4000FFFFFF7C09
:10068000047C047800FF7C0804047800FF384444AC
:10069000443800FF7C1414140800FF081414147C60
:1006A00000FF7C08040400FFFF485454542400FF5A
:1006B00004043F444400FF3C4040207C00FF1C20D9
:1006C00040201C00FF3C4030403C00FF44281028E4
:1006D0004400FF0C5050503C00FF4464544C440014
:1006E000FF083641410000FF000077000000FF00D6
:1006F0004141360800FF08082A1C0800FF081C2A90
:10070000080800FFFFFFFFFFFF00FF0011241FBECE
:10071000CFE5D8E0DEBFCDBF14E0A0E6B0E0E0E377
:10072000F8E602C005900D92A232B107D9F714E0A5
:10073000A2E2B4E001C01D92AD36B107E1F70E941C
:10074000D01A0C9416340C940000DF93CF93CDB7DD
:10075000DEB7F89481E0CF91DF910895DF93CF93D6
:1007600000D0CDB7DEB79A8389838FE590E02981E9
:100770003A81F9012081FC0120830F900F90CF91E5
:10078000DF910895DF93CF93CDB7DEB786E290E097
:1007900026E230E0F90120812760FC01208387E216
:1007A00090E020E4FC01208386E290E026E230E045
:1007B000F90120812868FC01208386E290E026E28E
:1007C00030E0F90120812064FC012083CF91DF918A
:1007D00008951F920F920FB60F921124EF92FF927D
:1007E0000F931F932F933F934F935F936F937F9339
:1007F0008F939F93AF93BF93EF93FF93DF93CF9329
:1008000000D000D0CDB7DEB78FE590E0FC0180814D
:100810008C830E94A5038B8313C084E290E0FC01CB
:100820008081282F30E085E290E0FC018081882FD4
:1008300090E0982F8827822B932B9A8389831B82A1
:100840008B81882351F7CE0104960E94AE0387E284
:1008500090E0FC018081882F90E08034910529F0A0
:100860008134910509F447C08CC087E290E021E40F
:10087000FC0120838091EA039091EB03CC01A0E07E
:10088000B0E0BC01CD010E947C2DDC01CB01BC019C
:10089000CD0126E636E646E65FE30E94322EDC0115
:1008A000CB017C018D0189819A81CC01A0E0B0E06F
:1008B000BC01CD010E947C2DDC01CB01BC01CD012E
:1008C0002DEC3CEC4CEC5DE30E94322EDC01CB01C4
:1008D0009C01AD01C801B7010E94802CDC01CB0155
:1008E000BC01CD010E94502DDC01CB019093EB03A4
:1008F0008093EA0346C087E290E020E4FC01208375
:100900008091B8039091B903CC01A0E0B0E0BC01A4
:10091000CD010E947C2DDC01CB01BC01CD0120E08A
:1009200030E040E05FE30E94322EDC01CB017C012D
:100930008D0189819A81CC01A0E0B0E0BC01CD019C
:100940000E947C2DDC01CB01BC01CD0120E030E018
:1009500040E05FE30E94322EDC01CB019C01AD013F
:10096000C801B7010E94802CDC01CB01BC01CD0184
:100970000E94502DDC01CB019093B9038093B80302
:10098000000086E290E026E230E0F9012081206458
:10099000FC0120832496DEBFCDBFCF91DF91FF9174
:1009A000EF91BF91AF919F918F917F916F915F91E7
:1009B0004F913F912F911F910F91FF90EF900F90CA
:1009C0000FBE0F901F901895DF93CF930F92CDB766
:1009D000DEB7898387E290E027E230E0F9012081E9
:1009E000322F307E29812F71232BFC01208386E258
:1009F00090E026E230E0F90120812064FC012083B0
:100A0000000086E290E0FC018081882F90E08071F8
:100A100090700097B1F386E290E026E230E0F901B1
:100A200020812061FC01208384E290E0FC01808130
:100A300091810F90CF91DF9108950F931F93DF93D2
:100A4000CF93CDB7DEB760970FB6F894DEBF0FBE79
:100A5000CDBF85E390E0FC0180818F8784E390E047
:100A6000FC018081888B87E390E027E330E0F90187
:100A700020812E7FFC01208388E390E028E330E092
:100A8000F90120812E7FFC01208384E390E0FC01AA
:100A9000108285E390E02FEFFC01208387E390E054
:100AA00027E330E0F90120812160FC01208388E305
:100AB00090E028E330E0F90120812E7FFC012083C3
:100AC00080E090E0A0E8BFE389839A83AB83BC8396
:100AD00069817A818B819C8120E030E04AE755E48E
:100AE0000E94322EDC01CB018D839E83AF83B887B9
:100AF00011E06D817E818F81988520E030E040E8B3
:100B00005FE30E94E42C88230CF010E0112329F00D
:100B100081E090E09A87898746C011E06D817E81EF
:100B20008F81988520E03FEF4FE757E40E942E2EFB
:100B300018160CF010E0112361F169817A818B8124
:100B40009C8120E030E040E251E40E94322EDC0142
:100B5000CB01BC01CD010E94502DDC01CB019A8755
:100B6000898712C080E991E09C878B878B859C8563
:100B70008C01C8010197F1F78C011C870B878985CF
:100B80009A8501979A87898789859A85009751F771
:100B900017C06D817E818F8198850E94502DDC0168
:100BA000CB019A87898789859A859E878D878D85D0
:100BB0009E858C01F8013197F1F78F011E870D8713
:100BC00083E390E0FC018081809580934E0485E36F
:100BD00090E02F85FC01208384E390E02889FC01CC
:100BE000208380914E0460960FB6F894DEBF0FBE4E
:100BF000CDBFCF91DF911F910F910895DF93CF93D8
:100C000000D00F92CDB7DEB79A8389836B83898139
:100C10009A81FC0191818B819817D1F089819A8109
:100C2000FC0180818230A0F089819A812B81FC01B6
:100C3000218389819A81FC01108289819A81FC013A
:100C40008181882341F189819A81FC01818124C0BD
:100C500089819A81FC0191818B81981789F0898122
:100C60009A81FC018081823058F489819A81FC014B
:100C70008081282F2F5F89819A81FC0120830BC0FE
:100C800089819A81FC0191818B81981721F4898156
:100C90009A81FC01108280E00F900F900F90CF910D
:100CA000DF910895DF93CF930F92CDB7DEB719820E
:100CB0000E941D0580934E0420914E0482E294E030
:100CC000622F0E94FE0589838981882F90E08430FD
:100CD000910509F47BC08530910564F4813091055C
:100CE00009F4B0C08230910509F48EC0009709F470
:100CF000DEC0C6C080319105C1F1813191052CF46F
:100D00008830910509F43EC0BBC08032910599F04E
:100D10008034910509F0B4C080914304882331F4F4
:100D200081E0809343040E947628CEC01092430451
:100D30000E947628C9C080912C04882309F0B9C08C
:100D400080914304843031F481E0809343040E9415
:100D50007628BAC080914304882309F4ACC084E0AB
:100D6000809343040E947628AFC080912C0488238E
:100D700019F00E94B31CA8C081E080932C040E944B
:100D8000A81BA2C080912401882349F083EB92E044
:100D90009093C5028093C40280E00E942E1D898139
:100DA000282F30E000D000D08DB79EB7019640E6E6
:100DB00050E0FC0151834083FC01338322830E9475
:100DC000412F0F900F900F900F907EC08981282F98
:100DD00030E000D000D08DB79EB7019649E650E0D4
:100DE000FC0151834083FC01338322830E94412F05
:100DF0000F900F900F900F9080912C04882309F48E
:100E00005CC00E941A1C60C08981282F30E000D08D
:100E100000D08DB79EB7019642E750E0FC015183A8
:100E20004083FC01338322830E94412F0F900F9057
:100E30000F900F9080912C04882309F440C00E94E9
:100E4000E91C42C080912C04882311F00E945D1C93
:100E500080912C048823A9F580914304803231F4D9
:100E600081E0809343040E9476282EC08091430441
:100E7000882349F180E2809343040E94762824C0AD
:100E80008981282F30E000D000D08DB79EB7019621
:100E90004BE750E0FC0151834083FC013383228304
:100EA0000E94412F0F900F900F900F900DC00000E7
:100EB0000BC0000009C0000007C0000005C0000012
:100EC00003C0000001C000000F90CF91DF91089592
:100ED000DF93CF93CDB7DEB7F89481E0CF91DF9168
:100EE0000895DF93CF9300D0CDB7DEB79A8389837F
:100EF0008FE590E029813A81F9012081FC0120836E
:100F00000F900F90CF91DF910895DF93CF93CDB7DE
:100F1000DEB710922504109224040E946F0985E523
:100F200090E025E530E0F90120812A60FC01208372
:100F30008FE490E0FC0110828EE490E025E0FC015B
:100F4000208389E590E029E530E0F90120812460E3
:100F5000FC012083CF91DF9108951F920F920FB66D
:100F60000F9211248F93DF93CF93CDB7DEB781E03B
:100F70008093A600CF91DF918F910F900FBE0F90BD
:100F80001F9018951F920F920FB60F921124EF9297
:100F9000FF920F931F932F933F934F935F936F9302
:100FA0007F938F939F93AF93BF93EF93FF93DF93C1
:100FB000CF9300D0CDB7DEB78FE590E0FC01808104
:100FC0008A830E94680789836BC08CE490E0FC01EF
:100FD000808191819093500480934F048CE490E041
:100FE000FC011182108280914F0490915004813550
:100FF000910508F445C080914F0490915004CC01B4
:10100000A0E0B0E0BC01CD010E947C2DDC01CB0151
:10101000BC01CD012DEC3CEC4CEC5DE30E94322E8A
:10102000DC01CB017C018D018091970090919800AB
:10103000CC01A0E0B0E0BC01CD010E947C2DDC0120
:10104000CB01BC01CD0126E636E646E65FE30E9411
:10105000322EDC01CB019C01AD01C801B7010E9419
:10106000802CDC01CB01BC01CD010E94502DDC01A4
:10107000CB019093980080939700109227040FC0A3
:10108000809127048F5F8093270480912704853601
:1010900030F0109227041092980010929700198255
:1010A0008981882309F091CFCE0102960E947107B1
:1010B0001092A6008AE590E02AE530E0F90120814F
:1010C0002068FC0120830F900F90CF91DF91FF915A
:1010D000EF91BF91AF919F918F917F916F915F91B0
:1010E0004F913F912F911F910F91FF90EF900F9093
:1010F0000FBE0F901F9018951F920F920FB60F9270
:101100001124EF92FF920F931F932F933F934F93CE
:101110005F936F937F938F939F93AF93BF93EF935F
:10112000FF93DF93CF9300D0CDB7DEB78FE590E08C
:10113000FC0180818A830E94680789836BC08CE4EC
:1011400090E0FC01808191819093500480934F0442
:101150008CE490E0FC011182108280914F04909108
:1011600050048536910508F445C080919500909112
:101170009600CC01A0E0B0E0BC01CD010E947C2D26
:10118000DC01CB01BC01CD012AE939E949E95EE383
:101190000E94322EDC01CB017C018D0180914F0435
:1011A00090915004CC01A0E0B0E0BC01CD010E94C0
:1011B0007C2DDC01CB01BC01CD0123E333E343E310
:1011C0005FE30E94322EDC01CB019C01AD01C8011E
:1011D000B7010E94802CDC01CB01BC01CD010E9433
:1011E000502DDC01CB0190939600809395001092D6
:1011F00027040FC0809127048F5F8093270480917C
:101200002704853630F01092270410929600109231
:10121000950019828981882309F091CFCE01029629
:101220000E9471071092A6008AE590E02AE530E05E
:10123000F90120812064FC0120830F900F90CF9151
:10124000DF91FF91EF91BF91AF919F918F917F912E
:101250006F915F914F913F912F911F910F91FF904F
:10126000EF900F900FBE0F901F901895DF93CF93C4
:10127000CDB7DEB78BE590E02BE530E0F9012081BA
:101280002F77FC0120838BE590E02BE530E0F9011E
:1012900020812064FC0120838091A800882319F418
:1012A00087E080939D001092A80081E080939400D5
:1012B00080912C04882381F480E063E041E20E9465
:1012C000340F81E30E94F50F80E064E04EE10E945C
:1012D000340F80E20E94F50FCF91DF910895DF93E4
:1012E000CF93CDB7DEB78BE590E02BE530E0F90189
:1012F00020812F7BFC0120838BE590E02BE530E003
:10130000F90120812068FC0120838091A7008823B7
:1013100019F487E080939D001092A700109294002A
:1013200080912C04882381F480E063E041E20E94F4
:10133000340F80E20E94F50F80E064E04EE10E94ED
:10134000340F82E30E94F50FCF91DF910895EF9261
:10135000FF920F931F93DF93CF93CDB7DEB72897FC
:101360000FB6F894DEBF0FBECDBF80E090E0DC0189
:1013700089839A83AB83BC8380919400813009F088
:1013800098C080919D0061E0882309F060E0809121
:101390009500909196009C01329522952F702327FD
:1013A0003F702327409195005091960080919900BD
:1013B00090919A00FA01E81BF90BCF0199231CF4D4
:1013C000909581959F4F41E02817390708F040E03C
:1013D000862F84238823B1F1809195009091960007
:1013E000CC01A0E0B0E0BC01CD010E947C2DDC016D
:1013F000CB01209188003091890040918A00509162
:101400008B00BC01CD010E94322EDC01CB0120916A
:101410008400309185004091860050918700BC0186
:10142000CD010E94802CDC01CB0189839A83AB83A0
:10143000BC83809195009091960090939A00809340
:101440009900CEC080919D00882329F080919D0055
:10145000815080939D008091990090919A00CC01D9
:10146000A0E0B0E0BC01CD010E947C2DDC01CB01ED
:10147000209188003091890040918A0050918B0022
:10148000BC01CD010E94322EDC01CB0120918400F1
:10149000309185004091860050918700BC01CD01BC
:1014A0000E94802CDC01CB0189839A83AB83BC83AF
:1014B00097C080919D0061E0882309F060E08091F1
:1014C0009700909198009C01329522952F702327C8
:1014D0003F702327409197005091980080919B0086
:1014E00090919C00FA01E81BF90BCF0199231CF4A1
:1014F000909581959F4F41E02817390708F040E00B
:10150000862F84238823B1F18091970090919800D1
:10151000CC01A0E0B0E0BC01CD010E947C2DDC013B
:10152000CB01209190003091910040919200509118
:101530009300BC01CD010E94322EDC01CB01209131
:101540008C0030918D0040918E0050918F00BC0135
:10155000CD010E94802CDC01CB0189839A83AB836F
:10156000BC83809197009091980090939C00809309
:101570009B0036C080919D00882329F080919D00BA
:10158000815080939D0080919B0090919C00CC01A4
:10159000A0E0B0E0BC01CD010E947C2DDC01CB01BC
:1015A00020919000309191004091920050919300D1
:1015B000BC01CD010E94322EDC01CB0120918C00B8
:1015C00030918D0040918E0050918F00BC01CD0173
:1015D0000E94802CDC01CB0189839A83AB83BC837E
:1015E00069817A818B819C8120E038E04EE856E465
:1015F0000E94322EDC01CB017C018D010E94C72AA2
:10160000DC01CB01BC01CD010E947C2D9B01AC0112
:10161000C801B7010E94E82CDC01CB01BC01CD015F
:101620000E94502DDC01CB018D839E83AF83B88750
:1016300069817A818B819C810E94502DDC01CB01D4
:10164000BC01CD0128960FB6F894DEBF0FBECDBF0A
:10165000CF91DF911F910F91FF90EF900895DF934D
:10166000CF9300D000D0CDB7DEB70E94A709DC0130
:10167000CB01BC01CD010E947C2DDC01CB01898313
:101680009A83AB83BC8329813A814B815C8160E082
:1016900074E284E799E40E94E82CDC01CB018983A1
:1016A0009A83AB83BC8389819A81AB81BC81BC0165
:1016B000CD010E94502DDC01CB01BC01CD010F906A
:1016C0000F900F900F90CF91DF910895DF93CF93FC
:1016D000CDB7DEB780E090E00E94B13121E08230EA
:1016E000920709F066C081EB90E00E94562F82E0DD
:1016F00090E00E94A3318093260487E090E00E944E
:10170000AB31DC01CB018093EC039093ED03A0930C
:10171000EE03B093EF038BE090E00E94AB31DC016D
:10172000CB018093F0039093F103A093F203B09365
:10173000F30383E090E00E94B131CC01A0E0B0E07F
:101740002CE330E040E050E0BC01CD010E94952E3A
:10175000DC01CB018093A9009093AA00A093AB0079
:10176000B093AC0085E090E00E94A331482F50E098
:101770002CE330E0429FC001439F900D529F900D9B
:1017800011249093AE008093AD0086E090E00E941B
:10179000A331482F50E02CE330E0429FC001439F2B
:1017A000900D529F900D11249093B0008093AF0044
:1017B00002C00E94DE0BCF91DF910895DF93CF939B
:1017C000CDB7DEB780E090E062E071E00E94CC31FE
:1017D00082E090E060E00E94B7318091A900909192
:1017E000AA00A091AB00B091AC002CE330E040E047
:1017F00050E0BC01CD010E94D42EDA01C9019C0148
:1018000083E090E0B9010E94CC3187E090E040E0B5
:1018100050E0BA010E94C4318BE090E040E050E01B
:1018200060E47FE30E94C4318091AF009091B000EA
:101830002CE330E0B9010E94C02E9B01C901282F82
:1018400085E090E0622F0E94B7318091AD009091C9
:10185000AE002CE330E0B9010E94C02E9B01C9010B
:10186000282F86E090E0622F0E94B731CF91DF9160
:101870000895DF93CF93CDB7DEB72091260482E0A1
:1018800090E0622F0E94B731CF91DF910895DF93EE
:10189000CF9300D0CDB7DEB78091A9009091AA0078
:1018A000A091AB00B091AC002CE330E040E050E000
:1018B000BC01CD010E94D42EDA01C9019A8389832B
:1018C00083E090E029813A81B9010E94CC310F90E8
:1018D0000F90CF91DF910895DF93CF93CDB7DEB70F
:1018E0002091EC033091ED034091EE035091EF0312
:1018F00087E090E0BA01A9010E94C4312091F00371
:101900003091F1034091F2035091F3038BE090E0AA
:10191000BA01A9010E94C431CF91DF910895DF93EC
:10192000CF93CDB7DEB78091AF009091B0002CE39C
:1019300030E0B9010E94C02E9B01C901282F85E02B
:1019400090E0622F0E94B731CF91DF910895DF932D
:10195000CF93CDB7DEB78091AD009091AE002CE370
:1019600030E0B9010E94C02E9B01C901282F86E0FA
:1019700090E0622F0E94B731CF91DF910895DF93FD
:10198000CF93CDB7DEB786E090E00E94A331482F19
:1019900050E02CE330E0429FC001439F900D529FE6
:1019A000900D11249093AE008093AD00CF91DF9104
:1019B0000895DF93CF93CDB7DEB785E090E00E9426
:1019C000A331482F50E02CE330E0429FC001439FF9
:1019D000900D529F900D11249093B0008093AF0012
:1019E000CF91DF910895DF93CF930F92CDB7DEB7FC
:1019F0008091290490912A04019690932A0480935F
:101A000029048091290490912A04863091050CF4D0
:101A10006BC080912804282F30E000D000D08DB713
:101A20009EB701964CED50E0FC0151834083FC01D0
:101A3000338322830E94412F0F900F900F900F90BD
:101A400080912B048F5F80932B0480912B048983DA
:101A500007C089818F5F89838981893008F0198265
:101A600080912804882F90E02981222F30E0022ED7
:101A700002C0959587950A94E2F78170907000975F
:101A800041F38981282F30E000D000D08DB79EB778
:101A900001964FEE50E0FC0151834083FC013383FB
:101AA00022830E94412F0F900F900F900F908981F9
:101AB00080932B0481E090E00E94B80F2EEB30E081
:101AC0008981882F90E0880F991FAC01440F551F22
:101AD000440F551F840F951F820F931F0E945C10A7
:101AE00010922A04109229040F90CF91DF9108954B
:101AF000DF93CF9300D000D0CDB7DEB70E94A70907
:101B0000DC01CB0189839A83AB83BC8389819A8171
:101B1000AB81BC81803D27E0920720E0A20720E056
:101B2000B20778F480919400813031F480912804D8
:101B300082608093280405C080912804816080938E
:101B400028040F900F900F900F90CF91DF91089580
:101B50000F931F93DF93CF93CDB7DEB76D970FB67B
:101B6000F894DEBF0FBECDBF8AE390E02AE330E0F9
:101B7000F9012081206FFC01208384E390E0FC01C7
:101B8000808184E390E02FEFFC01208387E390E0E5
:101B900027E330E0F90120812260FC0120830E94CC
:101BA000A1198FE30E9447150E9488198FE30E94B4
:101BB000471580E090E0A0E2B1E48A839B83AC8388
:101BC000BD836A817B818C819D8120E030E04AE782
:101BD00053E40E94322EDC01CB018E839F83A887C1
:101BE000B98711E06E817F818885998520E030E09A
:101BF00040E85FE30E94E42C88230CF010E01123FE
:101C000029F081E090E09B878A8746C011E06E81D1
:101C10007F818885998520E03FEF4FE757E40E9458
:101C20002E2E18160CF010E0112361F16A817B81D1
:101C30008C819D8120E030E040E251E40E94322E10
:101C4000DC01CB01BC01CD010E94502DDC01CB0198
:101C50009B878A8712C089E190E09D878C878C855D
:101C60009D858C01C8010197F1F78C011D870C87B8
:101C70008A859B8501979B878A878A859B850097A4
:101C800051F717C06E817F81888599850E94502DFC
:101C9000DC01CB019B878A878A859B859F878E87FE
:101CA0008E859F858C01F8013197F1F78F011F8791
:101CB0000E870E94A11980EC0E9447150E94881986
:101CC00080EC0E9447150E94010F83E00E94B80F2C
:101CD00084E091E00E945C1081E0898383C080E011
:101CE00090E0A0E2B1E4888B998BAA8BBB8B6889CA
:101CF00079898A899B8920E030E04AE753E40E9491
:101D0000322EDC01CB018C8B9D8BAE8BBF8B11E017
:101D10006C897D898E899F8920E030E040E85FE30F
:101D20000E94E42C88230CF010E0112329F081E0BC
:101D300090E0998F888F46C011E06C897D898E89EB
:101D40009F8920E03FEF4FE757E40E942E2E1816A0
:101D50000CF010E0112361F1688979898A899B89E7
:101D600020E030E040E251E40E94322EDC01CB0161
:101D7000BC01CD010E94502DDC01CB01998F888FD1
:101D800012C089E190E09B8F8A8F8A8D9B8D8C0198
:101D9000C8010197F1F78C011B8F0A8F888D998DEF
:101DA0000197998F888F888D998D009751F717C06B
:101DB0006C897D898E899F890E94502DDC01CB0121
:101DC000998F888F888D998D9D8F8C8F8C8D9D8D0F
:101DD0008C01F8013197F1F78F011D8F0C8F8981EC
:101DE0008F5F898389818F3F09F079CF6D960FB618
:101DF000F894DEBF0FBECDBFCF91DF911F910F9141
:101E00000895DF93CF9300D00F92CDB7DEB78091C6
:101E100054048B8310925404198217C089810E9444
:101E2000B80F1A820CC08A81803419F481E00E94B4
:101E3000920F80E00E945F168A818F5F8A838A8179
:101E400088238CF789818F5F89838981883030F37B
:101E50008B818093540480E00E94B80F0F900F9004
:101E60000F90CF91DF910895DF93CF9300D00F9221
:101E7000CDB7DEB789836A834B838981882319F0C4
:101E80008981813009F58A818830F0F48B81803432
:101E9000D8F48981882319F40E94A11902C00E94F4
:101EA00088198981809351048A81886B80935204B8
:101EB0008B81806480935304809153040E94471562
:101EC000809152040E9447150F900F900F90CF9170
:101ED000DF910895DF93CF9300D000D000D0CDB72D
:101EE000DEB79A8389837C836B835E834D832091E5
:101EF000510489819A81FC012083209152048B81B5
:101F00009C81FC012083209153048D819E81FC01E2
:101F1000208326960FB6F894DEBF0FBECDBFCF91BB
:101F2000DF910895DF93CF930F92CDB7DEB789830A
:101F30008981882319F089818130B1F489818823CE
:101F400019F40E94A11902C00E9488198981809306
:101F5000510480E480935304809152040E944715F9
:101F6000809153040E9447150F90CF91DF910895FF
:101F7000DF93CF930F92CDB7DEB789838981883005
:101F800038F4898188548093520480E00E94920F33
:101F90000F90CF91DF910895DF93CF93CDB7DEB748
:101FA000809152048F5F8093520480915204803C50
:101FB00018F088EB8093520480E00E94920FCF913A
:101FC000DF910895DF93CF93CDB7DEB78FEF809386
:101FD0005404CF91DF910895DF93CF93CDB7DEB74F
:101FE00010925404CF91DF9108951F93DF93CF9304
:101FF000CDB7DEB727970FB6F894DEBF0FBECDBFC3
:102000008F838BE191E00E94562F809151048130A3
:1020100021F4809153048C3718F48F818A3011F4A5
:102020000E94CC0F8F818A3009F43CC024E833E051
:102030008F81882F90E0AC01440F551F440F551F2E
:10204000440F551FBA01681B790BCB01820F931FF8
:102050009A83898380915104882339F480915304B1
:10206000803819F481E00E94920F89819A819C83C3
:102070008B8389819A8101969A8389838B819C8144
:10208000FC0114911D838D818E838E818F3F49F0D9
:102090008E810E945F16809153048F5F809353045A
:1020A000D9CF000027960FB6F894DEBF0FBECDBF84
:1020B000CF91DF911F910895DF93CF9300D0CDB7DB
:1020C000DEB79A8389830CC089819A81FC012081C3
:1020D00089819A8101969A838983822F0E94F50FC4
:1020E00089819A81FC018081882371F70F900F907C
:1020F000CF91DF9108950F931F93DF93CF93CDB7C7
:10210000DEB760970FB6F894DEBF0FBECDBF6C8709
:102110007D878E879F87488B19828C859D85AE85AC
:10212000BF850097A105B105C1F419820DC0898151
:10213000882F90E09E012E5F3F4F820F931FFC017E
:10214000108289818F5F898399818889981708F027
:1021500061C089818A3058F35DC0198244C08C8582
:102160009D85AE85BF850097A105B10549F189819F
:10217000082F10E08C859D85AE85BF852AE030E074
:1021800040E050E0BC01CD010E94D42EDC01CB0127
:10219000282FCE010296800F911FFC0120838C8591
:1021A0009D85AE85BF852AE030E040E050E0BC016F
:1021B000CD010E94D42E2C873D874E875F8710C0AB
:1021C00088898F3F39F188898B3020F58981882F64
:1021D00090E09E012E5F3F4F820F931FFC01108203
:1021E00089818F5F898399818889981708F4B7CF8F
:1021F00011C08981882F90E001979E012E5F3F4F8B
:10220000820F931FFC018081805D0E94F50F898100
:10221000815089838981882361F760960FB6F8948D
:10222000DEBF0FBECDBFCF91DF911F910F910895FB
:10223000DF93CF93CDB7DEB760970FB6F894DEBFCC
:102240000FBECDBF6C877D878E879F87488B198295
:102250008C859D85AE85BF850097A105B105C1F42C
:1022600019820DC08981882F90E09E012E5F3F4F1B
:10227000820F931FFC01108289818F5F898399816E
:102280008889981708F072C089818A3058F36EC027
:1022900019823BC08C859D85AE85BF850097A105C1
:1022A000B105F1F08981882F90E02C85422F4F7085
:1022B0009E012E5F3F4F820F931FFC0140838C8550
:1022C0009D85AE85BF85689413F8B695A7959795BB
:1022D00087951694D1F78C879D87AE87BF8712C0EC
:1022E00088898F3F09F442C088898B3008F03EC04E
:1022F0008981882F90E09E012E5F3F4F820F931FB0
:10230000FC01108289818F5F898399818889981760
:1023100008F4C0CF2BC08981882F90E001979E01DF
:102320002E5F3F4F820F931FFC0180818A3068F03F
:102330008981882F90E001979E012E5F3F4F820F89
:10234000931FFC018081895C0CC08981882F90E0FB
:1023500001979E012E5F3F4F820F931FFC018081EA
:10236000805D0E94F50F898181508983898188234E
:1023700091F660960FB6F894DEBF0FBECDBFCF9139
:10238000DF910895DF93CF9300D000D000D0CDB778
:10239000DEB76A837B838C839D834E8328C08E81C6
:1023A000882F90E09C012150304081E090E002C0F5
:1023B000880F991F2A95E2F79C01442737FD409525
:1023C000542F8A819B81AC81BD8182239323A423D6
:1023D000B52321E00097A105B10509F420E0298388
:1023E0008981805D0E94F50F8E8181508E838E8160
:1023F0008823A9F626960FB6F894DEBF0FBECDBF90
:10240000CF91DF910895DF93CF93CDB7DEB72897B3
:102410000FB6F894DEBF0FBECDBF6D837E838F8372
:1024200098876D817E818F8198850E94502DDC0177
:10243000CB0189839A83AB83BC8389819A81AB81E9
:10244000BC81BC01CD014FEF0E947B108EE20E9447
:10245000F50F69817A818B819C810E947C2D9B0183
:10246000AC016D817E818F8198850E947F2CDC017B
:10247000CB018D839E83AF83B8876D817E818F81F1
:10248000988520E034E244E759E40E94322EDC01D2
:10249000CB01BC01CD010E94502DDC01CB01898311
:1024A0009A83AB83BC8389819A81AB81BC81BC0157
:1024B000CD014FEF0E947B1028960FB6F894DEBF37
:1024C0000FBECDBFCF91DF910895DF93CF93CDB7EE
:1024D000DEB768970FB6F894DEBF0FBECDBFCE0152
:1024E0004F96988F8F8B8D8D9E8D9A838983BEC1D9
:1024F00089819A81FC01808189878985853209F0EB
:10250000ADC189819A8101969A83898389819A8153
:10251000FC01808189878985803300F189858A3330
:10252000E8F41A8614C08A85880F982F990F990F9E
:10253000980F8985890F80538A8789819A810196AE
:102540009A83898389819A81FC0180818987898521
:10255000803338F089858A3330F304C08FEF8A875F
:1025600001C000008985882F90E08835910509F425
:10257000F1C08935910504F58434910509F470C0E2
:102580008534910564F48234910509F419C18334CA
:1025900091058CF58532910509F45CC162C18335E2
:1025A000910509F445C18535910509F4A2C0863429
:1025B000910509F424C155C18636910509F41FC15E
:1025C000873691055CF483369105A9F08436910530
:1025D00009F18236910509F4D7C043C185379105C9
:1025E00009F470C08837910509F49DC083379105BF
:1025F00009F41EC136C18F89988D9C012E5F3F4F13
:10260000388F2F8BFC0180819181898789850E9479
:10261000F50F27C18F89988D9C012E5F3F4F388F12
:102620002F8BFC01808191819C838B838B819C818A
:10263000992354F48B819C81909581959F4F9C8325
:102640008B838DE20E94F50F8B819C81AA2797FDD9
:10265000A095BA2FBC01CD014A850E947B1001C113
:102660008F89988D9C012C5F3F4F388F2F8BFC01F9
:1026700080819181A281B3818D839E83AF83B8874E
:102680008D819E81AF81B885BB2394F48D819E811D
:10269000AF81B885B095A095909581959F4FAF4F2C
:1026A000BF4F8D839E83AF83B8878DE20E94F50F65
:1026B0008D819E81AF81B885BC01CD014A850E9484
:1026C0007B10CFC08F89988D9C012E5F3F4F388F34
:1026D0002F8BFC01808191819C878B878B859C85CA
:1026E000CC01A0E0B0E0BC01CD014A850E947B1086
:1026F000B8C08F89988D9C012C5F3F4F388F2F8BEE
:10270000FC0180819181A281B3818D879E87AF87F3
:10271000B88B8D859E85AF85B889BC01CD014A8572
:102720000E947B109EC08F89988D9C012E5F3F4F29
:10273000388F2F8BFC01808191819C878B878B85C3
:102740009C85CC01A0E0B0E0BC01CD014A850E948F
:10275000181187C08F89988D9C012C5F3F4F388F4F
:102760002F8BFC0180819181A281B3818D879E870F
:10277000AF87B88B8D859E85AF85B889BC01CD01AB
:102780004A850E9418116DC08F89988D9C012E5F1B
:102790003F4F388F2F8BFC01808191819C878B87E5
:1027A0008A858F3F11F480E18A878B859C85CC01D7
:1027B000A0E0B0E0BC01CD014A850E94C21151C029
:1027C0008F89988D9C012C5F3F4F388F2F8BFC0198
:1027D00080819181A281B3818D879E87AF87B88BDD
:1027E0008A858F3F11F480E18A878D859E85AF852C
:1027F000B889BC01CD014A850E94C21132C08F89BF
:10280000988D9C012C5F3F4F388F2F8BFC0180816E
:102810009181A281B381898B9A8BAB8BBC8B898987
:102820009A89AB89BC89BC01CD010E94031219C0F1
:102830008F89988D9C012E5F3F4F388F2F8BFC0125
:10284000808191819E8B8D8B8D899E890E945C10E9
:10285000000007C085E20E94F50F03C089850E9431
:10286000F50F89819A8101969A83898389819A815A
:10287000FC018081882309F03BCE68960FB6F8945E
:10288000DEBF0FBECDBFCF91DF910895DF93CF9311
:1028900000D0CDB7DEB7198216C089810E94B80F6B
:1028A0001A820BC08A81803411F40E94881980E05A
:1028B0000E945F168A818F5F8A838A81882394F7BA
:1028C00089818F5F89838981883038F380E00E9415
:1028D000B80F0F900F90CF91DF910895DF93CF93B2
:1028E000CDB7DEB729970FB6F894DEBF0FBECDBFC8
:1028F000888769878885843008F06FC08985853628
:1029000008F06BC088858295880F807E8B838B81D1
:10291000803410F41D8205C081E08D838B8180544A
:102920008B838B81982F985F8D8160E0492F0E9467
:10293000340F8985882F90E0A0E0B0E0BC01CD0184
:1029400043E00E947B1089858695898789858695D5
:10295000869586958E8397E08E81292F281B822F5E
:102960008F8381E0898336C08B81982F945F8D811E
:102970006981492F0E94340F99818F81981710F433
:102980001C821AC099818F819817A1F4898587705C
:102990008C838C81882F90E028E030E0281B390B55
:1029A0008FEF90E0022E02C0880F991F0A94E2F781
:1029B0008C8302C08FEF8C831A8206C08C810E94A8
:1029C0005F168A818F5F8A838A818C30B8F3898110
:1029D0008F5F89838981883038F229960FB6F89401
:1029E000DEBF0FBECDBFCF91DF910895DF93CF93B0
:1029F00000D000D0CDB7DEB78B836C838B81880F7E
:102A00008F5F8A838B818430D8F58C818536C0F5C1
:102A100080E06A8140E00E94340F19820CC08981F5
:102A2000803419F481E00E94920F8FEF0E945F16AC
:102A300089818F5F898399818C81981780F38C813C
:102A400089830CC08981803419F481E00E94920F3F
:102A500080E00E945F1689818F5F89838981843637
:102A600088F381E06A814EE60E94340F8C81882FC2
:102A700090E0A0E0B0E0BC01CD0143E00E947B10FB
:102A80000F900F900F900F90CF91DF9108950F93BB
:102A90001F93DF93CF93CDB7DEB769970FB6F89446
:102AA000DEBF0FBECDBF898F0E947A1785E390E00D
:102AB000298DFC0120838BE390E02BE330E0F901CA
:102AC00020812F77FC0120838BE390E02BE330E023
:102AD000F90120812F7BFC0120838BE390E02BE325
:102AE00030E0F90120812062FC01208380E090E049
:102AF000A0E0B0E489839A83AB83BC8369817A8147
:102B00008B819C812BEA3AEA4AEA5EE30E94322EEC
:102B1000DC01CB018D839E83AF83B88711E06D818B
:102B20007E818F81988520E030E040E85FE30E945D
:102B3000E42C88230CF010E0112319F081E0898740
:102B4000A3C011E06D817E818F81988520E030E007
:102B50004FE753E40E942E2E18160CF010E01123BC
:102B600009F489C069817A818B819C8120E030E001
:102B70004AE754E40E94E82CDC01CB018A879B875A
:102B8000AC87BD876A857B858C859D8520E030E09C
:102B90004AE753E40E94322EDC01CB018E879F87E7
:102BA000A88BB98B11E06E857F858889998920E093
:102BB00030E040E85FE30E94E42C88230CF010E052
:102BC000112329F081E090E09B8B8A8B46C011E0B5
:102BD0006E857F858889998920E03FEF4FE757E42C
:102BE0000E942E2E18160CF010E0112361F16A8558
:102BF0007B858C859D8520E030E040E251E40E9499
:102C0000322EDC01CB01BC01CD010E94502DDC0134
:102C1000CB019B8B8A8B12C089E190E09D8B8C8BC2
:102C20008C899D898C01C8010197F1F78C011D8B5E
:102C30000C8B8A899B8901979B8B8A8B8A899B89BC
:102C4000009751F728C06E857F85888999890E94F1
:102C5000502DDC01CB019B8B8A8B8A899B899F8BB2
:102C60008E8B8E899F898C01F8013197F1F78F0146
:102C70001F8B0E8B10C06D817E818F8198850E9485
:102C8000502DDC01CB0189878985888F888D182F8D
:102C90001A95F1F7188F8BE390E02BE330E0F90100
:102CA00020812F7DFC01208369960FB6F894DEBF4A
:102CB0000FBECDBFCF91DF911F910F9108950F935C
:102CC0001F93DF93CF93CDB7DEB769970FB6F89414
:102CD000DEBF0FBECDBF898F0E947A1785E390E0DB
:102CE00030915404298D2327FC0120838BE390E04D
:102CF0002BE330E0F90120812068FC0120838BE385
:102D000090E02BE330E0F90120812F7BFC01208350
:102D10008BE390E02BE330E0F90120812062FC019D
:102D2000208380E090E0A0E0B0E489839A83AB83C5
:102D3000BC8369817A818B819C812BEA3AEA4AEAD9
:102D40005EE30E94322EDC01CB018D839E83AF8334
:102D5000B88711E06D817E818F81988520E030E019
:102D600040E85FE30E94E42C88230CF010E011237C
:102D700019F081E08987A3C011E06D817E818F8188
:102D8000988520E030E04FE753E40E942E2E18167D
:102D90000CF010E0112309F489C069817A818B81DC
:102DA0009C8120E030E04AE754E40E94E82CDC01FA
:102DB000CB018A879B87AC87BD876A857B858C859D
:102DC0009D8520E030E04AE753E40E94322EDC018A
:102DD000CB018E879F87A88BB98B11E06E857F858D
:102DE0008889998920E030E040E85FE30E94E42C84
:102DF00088230CF010E0112329F081E090E09B8BF8
:102E00008A8B46C011E06E857F858889998920E08C
:102E10003FEF4FE757E40E942E2E18160CF010E0FB
:102E2000112361F16A857B858C859D8520E030E0EA
:102E300040E251E40E94322EDC01CB01BC01CD0105
:102E40000E94502DDC01CB019B8B8A8B12C089E143
:102E500090E09D8B8C8B8C899D898C01C80101979A
:102E6000F1F78C011D8B0C8B8A899B8901979B8BB9
:102E70008A8B8A899B89009751F728C06E857F8548
:102E8000888999890E94502DDC01CB019B8B8A8B0C
:102E90008A899B899F8B8E8B8E899F898C01F801F3
:102EA0003197F1F78F011F8B0E8B10C06D817E81E2
:102EB0008F8198850E94502DDC01CB0189878985FF
:102EC000888F888D182F1A95F1F7188F8BE390E073
:102ED0002BE330E0F90120812F7DFC0120836996EE
:102EE0000FB6F894DEBF0FBECDBFCF91DF911F911B
:102EF0000F9108950F931F93DF93CF93CDB7DEB754
:102F0000E2970FB6F894DEBF0FBECDBF8AE089838B
:102F100084E390E024E330E0F90120812F77FC0185
:102F200020838BE390E02BE330E0F90120812F77C1
:102F3000FC0120838BE390E02BE330E0F90120815A
:102F40002064FC01208389818150898389818823C1
:102F500009F4C9C18BE390E02BE330E0F901208153
:102F60002F7DFC01208380E090E0A0E0B0E48B8323
:102F70009C83AD83BE836B817C818D819E812BEA96
:102F80003AEA4AEA5EE30E94322EDC01CB018F83EB
:102F90009887A987BA8711E06F81788589859A8596
:102FA00020E030E040E85FE30E94E42C88230CF04E
:102FB00010E0112319F081E08B87A3C011E06F812D
:102FC000788589859A8520E030E04FE753E40E94B8
:102FD0002E2E18160CF010E0112309F489C06B8115
:102FE0007C818D819E8120E030E04AE754E40E949C
:102FF000E82CDC01CB018C879D87AE87BF876C8571
:103000007D858E859F8520E030E04AE753E40E946D
:10301000322EDC01CB01888B998BAA8BBB8B11E004
:10302000688979898A899B8920E030E040E85FE3FC
:103030000E94E42C88230CF010E0112329F081E099
:1030400090E09D8B8C8B46C011E0688979898A89D4
:103050009B8920E03FEF4FE757E40E942E2E181681
:103060000CF010E0112361F16C857D858E859F85C4
:1030700020E030E040E251E40E94322EDC01CB013E
:10308000BC01CD010E94502DDC01CB019D8B8C8BAE
:1030900012C089E190E09F8B8E8B8E899F898C0175
:1030A000C8010197F1F78C011F8B0E8B8C899D89CC
:1030B00001979D8B8C8B8C899D89009751F728C037
:1030C000688979898A899B890E94502DDC01CB010E
:1030D0009D8B8C8B8C899D89998F888F888D998DFC
:1030E0008C01F8013197F1F78F01198F088F10C00B
:1030F0006F81788589859A850E94502DDC01CB01EE
:103100008B878B858A8F8A8D182F1A95F1F71A8FE6
:103110008BE390E02BE330E0F90120812062FC0199
:10312000208380E090E0A0E0B0E48B8F9C8FAD8F97
:10313000BE8F6B8D7C8D8D8D9E8D2BEA3AEA4AEA8F
:103140005EE30E94322EDC01CB018F8F98A3A9A3EE
:10315000BAA311E06F8D78A189A19AA120E030E097
:1031600040E85FE30E94E42C88230CF010E0112378
:1031700019F081E08BA3A3C011E06F8D78A189A124
:103180009AA120E030E04FE753E40E942E2E18165B
:103190000CF010E0112309F489C06B8D7C8D8D8DAE
:1031A0009E8D20E030E04AE754E40E94E82CDC01E8
:1031B000CB018CA39DA3AEA3BFA36CA17DA18EA1C7
:1031C0009FA120E030E04AE753E40E94322EDC0168
:1031D000CB0188A799A7AAA7BBA711E068A579A5E5
:1031E0008AA59BA520E030E040E85FE30E94E42C44
:1031F00088230CF010E0112329F081E090E09DA7D6
:103200008CA746C011E068A579A58AA59BA520E0FA
:103210003FEF4FE757E40E942E2E18160CF010E0F7
:10322000112361F16CA17DA18EA19FA120E030E06E
:1032300040E251E40E94322EDC01CB01BC01CD0101
:103240000E94502DDC01CB019DA78CA712C089E103
:1032500090E09FA78EA78EA59FA58C01C80101971E
:10326000F1F78C011FA70EA78CA59DA501979DA71F
:103270008CA78CA59DA5009751F728C068A579A5B6
:103280008AA59BA50E94502DDC01CB019DA78CA790
:103290008CA59DA599AB88AB88A999A98C01F8014B
:1032A0003197F1F78F0119AB08AB10C06F8D78A182
:1032B00089A19AA10E94502DDC01CB018BA38BA187
:1032C0008AAB8AA9182F1A95F1F71AAB83E390E01D
:1032D000FC018081881F8827881F8A838A81882330
:1032E00009F031CE01C0000084E390E024E330E037
:1032F000F90120812068FC012083E2960FB6F89442
:10330000DEBF0FBECDBFCF91DF911F910F9108950A
:10331000DF93CF93CDB7DEB78BE390E02BE330E0C4
:10332000F90120812061FC01208388E390E028E3FB
:1033300030E0F90120812D7FFC012083CF91DF91C6
:103340000895DF93CF93CDB7DEB788E390E028E30D
:1033500030E0F90120812260FC0120838BE390E0C2
:103360002BE330E0F90120812F7EFC012083CF91F7
:10337000DF910895EF92FF920F931F93DF93CF9306
:10338000CDB7DEB760970FB6F894DEBF0FBECDBFE6
:10339000888B809153048D83809152048B831F8688
:1033A0001C8224E530E08889682F70E040E350E01B
:1033B000649FC001659F900D749F900D1124820F32
:1033C000931F9A83898388898A30B1F501C00000F0
:1033D0008F858F5F8F8789819A819F838E83898173
:1033E0009A8101969A8389838E819F818C01F8014D
:1033F000E590F4908F01F986E8861F830E83888517
:1034000099858A878A850E945F168F85883108F0A2
:1034100068C08F8596E0692F0E94B42E892F88237B
:10342000B1F68B818F5F8B838D810E9447158B81D5
:103430000E944715CDCF00008F858F5F8F878981D0
:103440009A819C878B8789819A8101969A83898347
:103450008B859C858C01F801E590F4908F01FE86A8
:10346000ED861C870B878D859E858A878A850E94BD
:103470005F16809153048F5F8093530480915304AF
:1034800091E0803809F090E02091510481E02223FE
:1034900009F080E08923882329F081E00E94920FBF
:1034A00081E08C838F858033F0F48F858F70882343
:1034B00009F0C1CF8B818F5F8B838C81882321F0B2
:1034C00080E00E94920F1C828D81809353048B8137
:1034D000809352048D810E9447158B810E9447156D
:1034E000ABCF000001C0000060960FB6F894DEBFBD
:1034F0000FBECDBFCF91DF911F910F91FF90EF9045
:103500000895DF93CF93CDB7DEB781E062E040E36B
:103510000E94340F8BE00E94BA19CF91DF91089579
:10352000DF93CF93CDB7DEB781E062E040E30E9446
:10353000340F8CE00E94BA19CF91DF910895DF9388
:10354000CF93CDB7DEB787E390E027E330E0F90112
:1035500020812F79FC01208388E390E028E330E08C
:10356000F90120812066FC012083CF91DF9108952D
:10357000DF93CF93CDB7DEB786E390E0FC01808187
:103580008072CF91DF910895DF93CF93CDB7DEB7EF
:1035900086E390E0FC0180818074CF91DF910895F3
:1035A000DF93CF9300D0CDB7DEB778940E94782612
:1035B00080912001909121010E94D1260E94A80DA6
:1035C0000E94F6250E94E62B0E94C2030E945E2BF9
:1035D0000E94660B0E949F1A1A82198207C00E94DD
:1035E000520689819A8101969A83898389819A8179
:1035F00021E0843F920798F3109224010BC00E94AF
:10360000520680914C04882329F010924C0480E0EB
:103610000E942E1D80912D04882389F70E9428275F
:103620000E94850701C000000E94520680914C0450
:103630008823C9F30E94172680915F04909160044B
:10364000A0916104B09162040097A105B10599F0C1
:1036500080915F0490916004A0916104B091620434
:103660000197A109B10980935F0490936004A0932E
:103670006104B09362048091480490914904A09140
:103680004A04B0914B040097A105B10599F08091CF
:10369000480490914904A0914A04B0914B040197C9
:1036A000A109B1098093480490934904A0934A0466
:1036B000B0934B048091590490915A04A0915B04FB
:1036C000B0915C040097A105B10599F0809159046F
:1036D00090915A04A0915B04B0915C040197A109F8
:1036E000B1098093590490935A04A0935B04B0935A
:1036F0005C0410924C040E9439278091280488238E
:1037000011F00E94F30C80912C04882321F40E9474
:10371000BB250E9475228091210182958695869510
:1037200083708170982F81E08927817081708295E4
:10373000880F880F807C909121019F7B892B80933B
:10374000210180912001909121010E94D1266CCF0E
:10375000DF93CF930F92CDB7DEB70E94010F80E0C9
:103760000E94B80F8091C4029091C502FC01828131
:1037700093810E945C10198255C02091C40230913F
:10378000C5028981882F90E0880F991F820F931FAF
:103790000596FC0180819181009709F43FC08091DA
:1037A000C4029091C502FC01948189819817E9F4C3
:1037B0000E94E20F89818E5F0E94B80F2091C4029F
:1037C0003091C5028981882F90E0880F991F820F60
:1037D000931F0596FC0180819181FC018281938178
:1037E0000E945C100E94EC0F1AC089818E5F0E94BB
:1037F000B80F2091C4023091C5028981882F90E0D2
:10380000880F991F820F931F0596FC01808191817B
:10381000FC01828193810E945C1001C000008981BB
:103820008F5F89838981853008F4A7CF0F90CF916E
:10383000DF910895DF93CF930F92CDB7DEB78091DC
:103840003004882321F082E00E942E1D32C0809136
:10385000C4029091C502FC0124812F5FFC012483E6
:10386000FC01848189832091C4023091C502898141
:10387000882F90E0880F991F820F931F0596FC01F7
:1038800080819181009731F48091C4029091C502AA
:10389000FC01148200D08DB79EB7019626EC32E071
:1038A000FC01318320830E94412F0F900F900E94D2
:1038B000A81B0F90CF91DF910895DF93CF9300D095
:1038C000CDB7DEB780913004882321F081E00E94DB
:1038D0002E1D44C08091C4029091C502FC018481D8
:1038E0008A838A810E94172C8A81882369F519822C
:1038F00027C02091C4023091C5028981882F90E0B1
:10390000880F991F820F931F0596FC01808191817A
:10391000009799F48091C4029091C50229812150A9
:10392000FC0124838091C4029091C502FC01848132
:103930000E94172C0E94A81B11C089818F5F898368
:1039400089818530B0F20AC08091C4029091C5028D
:103950002A812150FC0124830E94A81B0F900F9004
:10396000CF91DF910895DF93CF93CDB7DEB78091EC
:103970003004882321F084E00E942E1D27C080910E
:10398000C4029091C502FC0180819181009771F081
:103990008091C4029091C502FC0180819181909335
:1039A000C5028093C4020E94A81B10C010922C0470
:1039B0000E94010F0E94752227E435E280914304A2
:1039C000882F90E0F90109950E94BB25CF91DF91E6
:1039D0000895DF93CF930F92CDB7DEB78091300477
:1039E000882321F083E00E942E1D34C08091C40200
:1039F0009091C502FC01848189832091C402309199
:103A0000C5028981882F90E0880F991F820F931F2C
:103A10000596FC0180819181FC018581968100974A
:103A2000B1F02091C4023091C5028981882F90E0C5
:103A3000880F991F820F931F0596FC018081918149
:103A40009093C5028093C4020E94A81B03C080E02B
:103A50000E942E1D0F90CF91DF910895EF92FF925B
:103A60000F931F93DF93CF930F92CDB7DEB7898368
:103A70008091C4029091C50222E0833B920709F035
:103A800048C28981843049F410922D041092300488
:103A90000E94010F10922C0478C480913004882F6A
:103AA00090E08230910509F49EC0833091053CF48A
:103AB000009791F08130910509F443C066C48430C9
:103AC000910509F45DC1843091050CF404C1853081
:103AD000910509F4A9C159C48AEC92E00E94562FBD
:103AE00081E080932C040E94010F80E00E94B80FB7
:103AF0008EEC92E00E945C1081E00E94B80F84EE90
:103B000092E00E945C1086E00E94B80F85EF92E080
:103B10000E945C1087E00E94B80F8DE093E00E9445
:103B20005C1080E063E048E20E94340F0E94C529E7
:103B30000E940C2A81E08093300481E080932D0460
:103B400024C486E193E00E94562F80E063E048E2BF
:103B50000E94340F0E94C5290E940C2A898183305B
:103B600009F004C48091EA039091EB03CC01A0E03A
:103B7000B0E0BC01CD010E947C2DDC01CB01809323
:103B8000310490933204A0933304B09334040E9420
:103B9000C52990932F0480932E040E94010F80E08A
:103BA0000E94B80F8EEC92E00E945C1086E00E94AA
:103BB000B80F8AE193E00E945C1087E00E94B80F82
:103BC00082E393E00E945C1080E063E048E20E94A0
:103BD000340F80912E0490912F040E940C2A82E0D1
:103BE00080933004D2C38981882F90E08230910580
:103BF000E1F08330910571F18130910509F0B8C38E
:103C000080912E0490912F04019690932F0480931D
:103C10002E0480E063E048E20E94340F80912E047D
:103C200090912F040E940C2A55C080912E049091EF
:103C30002F04019790932F0480932E0480E063E07B
:103C400048E20E94340F80912E0490912F040E942C
:103C50000C2A40C080912E0490912F04CC01A0E04A
:103C6000B0E0BC01CD010E947C2DDC01CB01809332
:103C7000350490933604A0933704B09338040E941F
:103C8000010F80E00E94B80F8EEC92E00E945C1061
:103C900081E00E94B80F85E493E00E945C1086E00A
:103CA0000E94B80F85EF92E00E945C1087E00E94AE
:103CB000B80F8DE093E00E945C1080E063E048E282
:103CC0000E94340F0E94C5290E940C2A83E0809331
:103CD000300400005AC380E063E048E20E94340FE1
:103CE0000E94C5290E940C2A8981833009F042C3B1
:103CF0008091EA039091EB03CC01A0E0B0E0BC011D
:103D0000CD010E947C2DDC01CB018093390490937E
:103D10003A04A0933B04B0933C040E94C5299093BD
:103D20002F0480932E040E94010F80E00E94B80FA0
:103D30008EEC92E00E945C1081E00E94B80F85E456
:103D400093E00E945C1086E00E94B80F8AE193E045
:103D50000E945C1087E00E94B80F82E393E00E940B
:103D60005C1080E063E048E20E94340F80912E04F2
:103D700090912F040E940C2A84E08093300405C3A4
:103D80008981882F90E082309105E1F083309105A0
:103D900071F18130910509F0EFC280912E0490916C
:103DA0002F04019690932F0480932E0480E063E00B
:103DB00048E20E94340F80912E0490912F040E94BB
:103DC0000C2A30C080912E0490912F04019790937B
:103DD0002F0480932E0480E063E048E20E94340FB9
:103DE00080912E0490912F040E940C2A1BC0809178
:103DF0002E0490912F04CC01A0E0B0E0BC01CD01D5
:103E00000E947C2DDC01CB0180933D0490933E0405
:103E1000A0933F04B09340040E94010F85E080937B
:103E2000300400000000B1C280913D0490913E0436
:103E3000A0913F04B09140042091350430913604A4
:103E40004091370450913804BC01CD010E947F2C71
:103E5000DC01CB017C018D018091390490913A0401
:103E6000A0913B04B0913C04209131043091320484
:103E70004091330450913404BC01CD010E947F2C49
:103E8000DC01CB019C01AD01C801B7010E94E82C07
:103E9000DC01CB018093F0039093F103A093F20334
:103EA000B093F303E0903504F090360400913704AA
:103EB000109138048091F0039091F103A091F203E6
:103EC000B091F303209131043091320440913304D6
:103ED00050913404BC01CD010E94322EDC01CB0193
:103EE0009C01AD01C801B7010E947F2CDC01CB0110
:103EF0008093EC039093ED03A093EE03B093EF0354
:103F000010922D040E94010F10922C041092300484
:103F10003CC28091C4029091C502E2E08F369E07B8
:103F200039F588E398E0ABE0B0E08093A900909386
:103F3000AA00A093AB00B093AC0010922C048CE8C4
:103F400092E09093C5028093C4020E94010F0E94E8
:103F5000752227E435E280914304882F90E0F9012F
:103F600009950E94BB2587E593E00E94562F0DC25C
:103F70008091C4029091C502F2E08C329F0709F053
:103F80006CC08091C4029091C502FC018481882399
:103F9000D9F410922C04109226048CE892E09093AD
:103FA000C5028093C4020E94390C0E94010F0E9436
:103FB000752227E435E280914304882F90E0F901CF
:103FC00009950E94BB2523C08091C4029091C5022F
:103FD000FC0184818130D9F481E080932604109221
:103FE0002C048CE892E09093C5028093C4020E9456
:103FF000390C0E94010F0E94752227E435E280915E
:104000004304882F90E0F90109950E94BB25809117
:104010009400813089F480E063E041E20E94340F33
:1040200081E30E94F50F80E064E04EE10E94340FCE
:1040300080E20E94F50FA9C180E063E041E20E94A6
:10404000340F80E20E94F50F80E064E04EE10E94B0
:10405000340F82E30E94F50F98C18091C4029091C1
:10406000C502F2E087349F0709F08FC18091C40236
:104070009091C502FC018481813009F0AFC080912C
:104080003004882F90E0009729F08130910509F4E1
:1040900041C07BC10E94010F80E00E94B80F809157
:1040A000C4029091C502FC0187819085FC01828148
:1040B00093810E945C1086E00E94B80F8AE193E031
:1040C0000E945C1087E00E94B80F89E693E00E948E
:1040D0005C1081E063E045E00E94340F00D08DB7B2
:1040E0009EB701962EE733E0FC01318320830E94C6
:1040F00065120F900F9080E063E048E20E94340F59
:104100008091AD009091AE000E94CD2181E080931E
:1041100030043BC18981882F90E08230910581F184
:104120008330910524F48130910551F02EC1833004
:10413000910509F444C08430910509F448C025C1B3
:104140008091AD009091AE00F8E380349F0708F0B5
:1041500015C18091AD009091AE0006969093AE008F
:104160008093AD0080E063E048E20E94340F10923B
:1041700023048091AD009091AE000E94CD2105C135
:104180008091AD009091AE008C33910508F4F8C099
:104190008091AD009091AE000A979093AE0080930D
:1041A000AD0080E063E048E20E94340F10922304E7
:1041B0008091AD009091AE000E94CD21E6C00E949A
:1041C000A70C109230040E94A81B0000DEC00E94C1
:1041D000BF0C109230040E94A81BD7C08091C4026B
:1041E0009091C502FC018481823009F0CEC080919B
:1041F0003004882F90E0009729F08130910509F470
:104200004CC0C3C00E94010F80E00E94B80F809193
:10421000C4029091C502FC0187819085FC018281D6
:1042200093810E945C1086E00E94B80F8AE193E0BF
:104230000E945C1087E00E94B80F85E893E00E941E
:104240005C1081E067E044E10E94340F8091AD0092
:104250009091AE000E94CD2181E063E045E00E9494
:10426000340F00D08DB79EB701962EE733E0FC01E6
:10427000318320830E9465120F900F9080E063E0ED
:1042800048E20E94340F8091AF009091B0000E94EC
:10429000CD2181E08093300478C08981882F90E01F
:1042A00082309105B1F18330910524F4813091057C
:1042B00051F06BC08330910509F449C084309105F9
:1042C00009F44CC062C08091AD009091AE009C0199
:1042D000265030408091AF009091B0008217930734
:1042E00008F050C08091AF009091B0000696909376
:1042F000B0008093AF0080E063E048E20E94340F9A
:10430000109223048091AF009091B0000E94CD21C3
:104310003CC08091AF009091B0008C339105A0F12A
:104320008091AF009091B0000A979093B000809375
:10433000AF0080E063E048E20E94340F1092230453
:104340008091AF009091B0000E94CD211EC00E94CC
:104350008F0C109230040E94A81B17C00E94D90C29
:10436000109230040E94A81B00000FC000000DC076
:1043700000000BC0000009C0000007C0000005C01D
:10438000000003C0000001C000000F90CF91DF913A
:104390001F910F91FF90EF900895DF93CF9300D07E
:1043A00000D0CDB7DEB79C838B838B819C8120E1CD
:1043B0003EE0B9010E94C02E9B01C9018983898119
:1043C000482F50E020E13EE0429FC001439F900D06
:1043D000529F900D11242B813C81A901481B590B40
:1043E000CA019C838B838B819C812CE330E0B901D3
:1043F0000E94C02E9B01C9018A8389818823B9F458
:104400008981282F30E000D000D08DB79EB701966B
:1044100043E953E0FC0151834083FC013383228351
:104420000E9465120F900F900F900F9016C0898117
:10443000282F30E000D000D08DB79EB7019645E917
:1044400053E0FC0151834083FC01338322830E94AB
:1044500065120F900F900F900F908A81882371F44E
:1044600000D08DB79EB7019628E933E0FC01318377
:1044700020830E9465120F900F9030C08A818A308D
:10448000B8F48A81282F30E000D000D08DB79EB7D5
:1044900001964CE953E0FC0151834083FC013383D6
:1044A00022830E9465120F900F900F900F9016C0FC
:1044B0008A81282F30E000D000D08DB79EB70196BA
:1044C00041EA53E0FC0151834083FC0133832283A2
:1044D0000E9465120F900F900F900F900F900F9009
:1044E0000F900F90CF91DF910895DF93CF93CDB7C9
:1044F000DEB72A970FB6F894DEBF0FBECDBF80E0BF
:1045000067E04AE00E94340F0E94C5290E940C2AED
:104510008091A9009091AA00A091AB00B091AC004D
:1045200081312EE0920720E0A20720E0B20708F4D4
:104530004CC080914304823099F48091A9009091FD
:10454000AA00A091AB00B091AC000197A109B109FC
:104550008093A9009093AA00A093AB00B093AC0005
:1045600081E067E044E10E94340F8091A9009091BE
:10457000AA00A091AB00B091AC0020E13EE040E089
:1045800050E0BC01CD010E94D42EDA01C90100D057
:1045900000D000D02DB73EB72F5F3F4F45EA53E024
:1045A000F90151834083F90182839383A483B58306
:1045B0000E9465128DB79EB706960FB6F8949EBFFF
:1045C0000FBE8DBF0E94470C17C081E067E044E139
:1045D0000E94340F00D08DB79EB701962DEA33E0CC
:1045E000FC01318320830E9465120F900F9080910F
:1045F00028048460809328048091A600882309F011
:1046000010C280912604813009F01EC10E94A709C2
:10461000DC01CB018B839C83AD83BE838B819C812A
:10462000AD81BE818931F7E49F07F0E0AF07F0E08C
:10463000BF0740F088E197E4A0E0B0E08B839C8363
:10464000AD83BE838B819C81AD81BE818436910513
:10465000A105B105B0F584E690E0A0E0B0E08B8361
:104660009C83AD83BE8380E062E04AE20E94340F07
:1046700080E190E00E94BA1980E062E04CE30E9481
:10468000340F8EE090E00E94BA1981E062E04CE0C5
:104690000E94340F80E090E00E94BA1981E062E04D
:1046A0004CE10E94340F8AE090E00E94BA1981E048
:1046B00062E040E20E94340F81E090E00E94BA196B
:1046C000DDC181E062E04AE00E94340F8AE090E0C0
:1046D0000E94BA198B819C81AD81BE8120E137E2B5
:1046E00040E050E0BC01CD010E94D42EDA01C901A6
:1046F00089838B819C81AD81BE8120E137E240E0DE
:1047000050E0BC01CD010E94D42EDC01CB018B8393
:104710009C83AD83BE838981882359F080E062E069
:104720004AE20E94340F8981882F90E00E94BA19D2
:1047300009C080E062E04AE20E94340F80E190E02C
:104740000E94BA198B819C81AD81BE8128EE33E035
:1047500040E050E0BC01CD010E94D42EDA01C90135
:1047600089838B819C81AD81BE8128EE33E040E05E
:1047700050E0BC01CD010E94D42EDC01CB018B8323
:104780009C83AD83BE8380E062E04AE30E94340FE5
:104790008981882F90E00E94BA198B819C81AD811C
:1047A000BE8124E630E040E050E0BC01CD010E9433
:1047B000D42EDA01C90189838B819C81AD81BE81B0
:1047C00024E630E040E050E0BC01CD010E94D42E50
:1047D000DC01CB018B839C83AD83BE8381E062E0EF
:1047E00040E10E94340F8981882F90E00E94BA191D
:1047F0008B819C81AD81BE812AE030E040E050E0B9
:10480000BC01CD010E94D42EDA01C90189838B81BC
:104810009C81AD81BE812AE030E040E050E0BC01E7
:10482000CD010E94D42EDC01CB018B839C83AD8310
:10483000BE8381E062E040E20E94340F8981882FCC
:1048400090E00E94BA191AC10E942F0BDC01CB0123
:104850008F839887A987BA878F819885A985BA851C
:1048600087339105A105B10540F487E390E0A0E00E
:10487000B0E08F839887A987BA878F819885A985AB
:10488000BA85803127E2920720E0A20720E0B20734
:1048900070F180E062E044E30E94340F80E190E038
:1048A0000E94BA1980E062E049E20E94340F80E180
:1048B00090E00E94BA1981E062E041E00E94340F6A
:1048C0008DE090E00E94BA1981E062E040E10E9430
:1048D000340F81E090E00E94BA1981E062E040E28A
:1048E0000E94340F80E090E00E94BA19C7C080E0B7
:1048F00062E04AE30E94340F8AE090E00E94BA1915
:104900008F819885A985BA8528EE33E040E050E094
:10491000BC01CD010E94D42EDA01C9018A838F81A6
:104920009885A985BA8528EE33E040E050E0BC01C7
:10493000CD010E94D42EDC01CB018F839887A987FB
:10494000BA8780E062E049E20E94340F8A81882FB2
:1049500090E00E94BA198F819885A985BA8524E6CE
:1049600030E040E050E0BC01CD010E94D42EDA01DD
:10497000C9018A838F819885A985BA8524E630E0AC
:1049800040E050E0BC01CD010E94D42EDC01CB01FF
:104990008F839887A987BA8781E062E040E00E9410
:1049A000340F8A81882F90E00E94BA198F819885F0
:1049B000A985BA852AE030E040E050E0BC01CD0195
:1049C0000E94D42EDA01C9018A838F819885A98536
:1049D000BA852AE030E040E050E0BC01CD010E9401
:1049E000D42EDC01CB018F839887A987BA8781E019
:1049F00062E040E10E94340F8A81882F90E00E949B
:104A0000BA198F819885A985BA858A8381E062E089
:104A100040E20E94340F8A81882F90E00E94BA19E8
:104A20002DC081E062E040E20E94340F8FE090E010
:104A30000E94BA1981E062E040E10E94340F8FE0E9
:104A400090E00E94BA1981E062E040E00E94340FD9
:104A50008FE090E00E94BA1980E062E042E30E9499
:104A6000340F80E190E00E94BA1980E062E047E2F2
:104A70000E94340F80E190E00E94BA192A960FB686
:104A8000F894DEBF0FBECDBFCF91DF910895DF93C5
:104A9000CF930F92CDB7DEB7898380912C04882302
:104AA00009F064C08981882F90E083309105A9F1D5
:104AB000843091054CF481309105F9F082309105F4
:104AC00024F5009791F053C086309105B1F18730FD
:104AD000910524F48430910541F149C08730910556
:104AE000A1F188309105C9F142C080E00E94B80F61
:104AF00089E391E00E945C103AC080E00E94B80F08
:104B000083E491E00E945C1032C080E00E94B80F04
:104B10008FE291E00E945C102AC080E00E94B80FF2
:104B20008DE491E00E945C1022C080E00E94B80FEA
:104B300087E591E00E945C101AC080E00E94B80FE7
:104B400083E491E00E945C1012C080E00E94B80FE4
:104B500083E491E00E945C100AC080E00E94B80FDC
:104B60008FE791E00E945C10000001C000000F90F0
:104B7000CF91DF910895DF93CF93CDB7DEB78091CA
:104B80002C04882379F50E94C41A882351F081E00F
:104B900060E04CE00E94340F8BE691E00E945C10D4
:104BA00017C080914304863051F481E060E04CE00E
:104BB0000E94340F81E691E00E945C1009C081E000
:104BC00060E04CE00E94340F85E791E00E945C10A9
:104BD00080912604882319F00E94901A04C00E9434
:104BE000811A01C00000CF91DF910895DF93CF9328
:104BF000CDB7DEB783E590E023E530E0F901208111
:104C00002967FC01208387E390E027E330E0F90186
:104C100020812860FC0120838CE590E02091B40382
:104C20003091B503FC012083CF91DF910895DF938C
:104C3000CF93CDB7DEB78091B6039091B7039C01B7
:104C4000285F3F4F8091B8039091B9032817390727
:104C500000F5809141048F5F8093410410924204DB
:104C600080914104843008F440C08091B403909155
:104C7000B50301969093B5038093B4031092410459
:104C80008CE590E02091B4033091B503FC012083C2
:104C90002CC08091B6039091B7039C0128503040FE
:104CA0008091B8039091B90382179307F0F41092A2
:104CB0004104809142048F5F8093420480914204BA
:104CC000843098F08091B4039091B503019790934C
:104CD000B5038093B403109242048CE590E02091D8
:104CE000B4033091B503FC012083CF91DF91089587
:104CF000DF93CF93CDB7DEB781E390E021E330E0DF
:104D0000F9012081206EFC01208380E090E00E9468
:104D1000D126CF91DF910895DF93CF93CDB7DEB742
:104D200082E390E022E330E0F90120812064FC017D
:104D3000208382E390E022E330E0F90120812F7BA1
:104D4000FC012083CF91DF9108951F93DF93CF93D0
:104D500000D0CDB7DEB782E390E022E330E0F90186
:104D600020812068FC01208381E089838981182FBC
:104D70001A95F1F7198382E390E022E330E0F9011C
:104D800020812F77FC01208381E08A838A81182F7C
:104D90001A95F1F71A830F900F90CF91DF911F9121
:104DA0000895DF93CF9300D00F92CDB7DEB79B83EA
:104DB0008A83198222C08A819B81992354F482E3D9
:104DC00090E022E330E0F90120812062FC012083A1
:104DD00009C082E390E022E330E0F90120812F7DD9
:104DE000FC0120830E948C268A819B81880F991F59
:104DF0009B838A8389818F5F898389818031D8F2FF
:104E00000E94A5260F900F900F90CF91DF910895EB
:104E1000DF93CF93CDB7DEB7809120018F7D809354
:104E20002001809121018F778093210180912001C1
:104E30008F7E80932001809120018F7B80932001C1
:104E4000809120018F7780932001CF91DF91089589
:104E5000DF93CF93CDB7DEB70E94010F10924304CA
:104E600080914304882F90E00E944725CF91DF91E5
:104E70000895DF93CF93CDB7DEB780914304882F99
:104E800090E08430910509F41FC18530910584F4C8
:104E90008130910511F1823091050CF417C18230F7
:104EA000910509F441C08330910509F480C01BC10C
:104EB0008730910509F4A7C0883091052CF486301D
:104EC000910509F495C00FC18830910509F4D0C04F
:104ED0008930910509F4DEC006C10E94C41A8823F6
:104EE000E9F02091AD003091AE008091AF0090913B
:104EF000B000A901481B590BCA01CC01A0E0B0E0E9
:104F000080935F0490936004A0936104B093620463
:104F100087E0809343040E947628E5C082E0809376
:104F200043040E947628DFC00E94C41A8823A9F097
:104F30008091BC039091BD03CC01A0E0B0E08093D0
:104F4000480490934904A0934A04B0934B0489E029
:104F5000809343040E94762809C00E94B81A8823CF
:104F600029F086E0809343040E94762880915F04B4
:104F700090916004A0916104B09162040097A10532
:104F8000B10529F483E0809343040E947628809140
:104F9000590490915A04A0915B04B0915C0400976D
:104FA000A105B10509F094C00E94780D9CC08091C4
:104FB0005F0490916004A0916104B0916204009735
:104FC000A105B10529F481E0809343040E9476286D
:104FD0008091590490915A04A0915B04B0915C04B3
:104FE0000097A105B10509F075C00E94780D7BC03E
:104FF0000E94B81A882309F06FC082E080934304AE
:105000000E94762870C00E94C41A882391F480916F
:10501000480490914904A0914A04B0914B04009730
:10502000A105B10591F482E0809343040E947628A3
:105030000CC08AE090E0A0E0B0E080934804909338
:105040004904A0934A04B0934B0480915F0490916B
:105050006004A0916104B09162040097A105B105BC
:1050600009F03CC083E0809343040E9476283BC053
:1050700080915F0490916004A0916104B0916204FA
:105080000097A105B10561F581E0809343040E947A
:10509000762829C08091480490914904A0914A043F
:1050A000B0914B040097A105B105E1F40E94C41A28
:1050B000882321F087E08093430403C082E080933B
:1050C00043040E9476280FC000000DC000000BC0F2
:1050D000000009C0000007C0000005C0000003C0B8
:1050E000000001C00000CF91DF910895DF93CF93BE
:1050F000CDB7DEB780914304882F90E084309105CE
:1051000009F4CEC0853091058CF48130910541F1D0
:10511000823091051CF40097D1F00BC182309105CB
:10512000C1F18330910509F488C003C1873091052E
:1051300009F4D9C0883091052CF48630910509F422
:10514000C4C0F7C08830910509F4D6C0F2C00E94EF
:10515000082780914304882F90E00E944725E9C0EA
:1051600010925F0410926004109261041092620425
:10517000109248041092490410924A0410924B0471
:1051800080914304882F90E00E9447250E940827C1
:10519000D0C00E94C41A882331F087E08093430472
:1051A0000E947628C6C00E94B81A882331F086E093
:1051B000809343040E947628BCC00E946F0920910E
:1051C000AD003091AE008091AF009091B000A90188
:1051D000481B590BCA01CC01A0E0B0E080935F04EA
:1051E00090936004A0936104B09362040E94082726
:1051F0008091200180618093200180912001806254
:10520000809320018091200188608093200180910B
:105210004304882F90E00E9447258091BA03909123
:10522000BB03CC01A0E0B0E08093590490935A04F2
:10523000A0935B04B0935C047CC00E9436090E947A
:1052400008278091200180648093200180912001B3
:1052500081608093200180914304882F90E00E9418
:1052600047258091AF009091B000CC01A0E0B0E064
:1052700080935F0490936004A0936104B0936204F0
:105280008091BA039091BB03CC01A0E0B0E0809381
:10529000590490935A04A0935B04B0935C0449C0F2
:1052A0000E9436090E940827809120018064809323
:1052B0002001809121018068809321018091430425
:1052C000882F90E00E94472534C00E9408278091D3
:1052D000200180618093200180914304882F90E019
:1052E0000E94472526C00E94082780914304882FEA
:1052F00090E00E9447251DC00E9408278091200150
:105300008F778093200180914304882F90E00E9442
:10531000472580915D0490915E04CC01A0E0B0E04F
:1053200080935F0490936004A0936104B09362043F
:105330000000CF91DF910895DF93CF9300D0CDB7D8
:10534000DEB79A83898389819A81FC01808191816A
:105350000F900F90CF91DF910895DF93CF9300D0FE
:1053600000D0CDB7DEB79A8389837C836B83898134
:105370009A812B813C81FC01318320830F900F9017
:105380000F900F90CF91DF910895DF93CF9300D0CE
:10539000CDB7DEB78091EA039091EB03CC01A0E09A
:1053A000B0E0BC01CD010E947C2DDC01CB0120913D
:1053B000F0033091F1034091F2035091F303BC01EB
:1053C000CD010E94322EDC01CB012091EC03309103
:1053D000ED034091EE035091EF03BC01CD010E941B
:1053E000802CDC01CB01BC01CD010E94502DDC01E1
:1053F000CB019A83898389819A8122E08F3E92072B
:1054000020F08AEF90E09A83898389819A810F90B6
:105410000F90CF91DF910895DF93CF93CDB7DEB793
:1054200027970FB6F894DEBF0FBECDBF9F838E8344
:105430008E819F81CC01A0E0B0E02DB73EB72A500D
:1054400030400FB6F8943EBF0FBE2DBF2DB73EB70C
:105450002F5F3F4FAE014F5F5F4FF9015183408394
:1054600045E050E0F9015383428344EF53E0F901F2
:1054700055834483F90186839783A087B1870E946F
:105480008B2F2DB73EB7265F3F4F0FB6F8943EBF28
:105490000FBE2DBF8E819F818436910580F1898159
:1054A000682F70E08A81482F50E08B81282F30E0F0
:1054B0008DB79EB708970FB6F8949EBF0FBE8DBFED
:1054C0008DB79EB70196E8EFF3E0DC01ED93FC9316
:1054D000FC0173836283DC0115965C934E931497F1
:1054E000FC01378326830E9465122DB73EB7285FE3
:1054F0003F4F0FB6F8943EBF0FBE2DBF3FC08E8109
:105500009F818A30910520F18981482F50E08A815E
:10551000282F30E000D000D000D08DB79EB7019684
:1055200065E074E0DC016D937C93FC01538342835E
:10553000DC0115963C932E9314970E946512EDB7EB
:10554000FEB736960FB6F894FEBF0FBEEDBF16C07D
:105550008981282F30E000D000D08DB79EB701960A
:1055600041E154E0DC014D935C93FC0133832283E1
:105570000E9465120F900F900F900F9027960FB614
:10558000F894DEBF0FBECDBFCF91DF9108950F938A
:105590001F93DF93CF93CDB7DEB72A970FB6F8945A
:1055A000DEBF0FBECDBF0E94C5299A838983898142
:1055B0009A8121E0853F920720F084EF91E09A8361
:1055C000898389819A81009711F41A8219828981CD
:1055D0009A8122E330E0B9010E94C02E9B01C901EB
:1055E0008B8389819A8122E330E0B9010E94C02E29
:1055F0008C838B81882F90E0880F991F880F991FCB
:1056000082549C4FFC0180819181A281B3819C01D5
:105610008B81882F90E00196880F991F880F991F22
:1056200082549C4FFC0180819181A281B381A901A8
:10563000481B590BCA019E838D838B81882F90E074
:10564000880F991F880F991F82549C4FFC0100817D
:105650001181228133818D819E8142E350E0BA0124
:105660000E94C02EAB01BA018C81482F50E0649F8C
:10567000C001659F900D749F900D1124CC01A0E096
:10568000B0E0B901A801481B590B6A0B7B0BDB0189
:10569000CA018F839887A987BA878F819885A98542
:1056A000BA85BC01CD012A960FB6F894DEBF0FBEB5
:1056B000CDBFCF91DF911F910F910895DF93CF93CD
:1056C000CDB7DEB785E490E025E430E0F901208134
:1056D0002F60FC01208383E490E023E430E0F901B3
:1056E00020812D67FC01208389E590E029E530E0E9
:1056F000F90120812068FC012083CF91DF9108957A
:105700001F920F920FB60F9211248F939F93AF9316
:10571000BF93DF93CF93CDB7DEB780914D048D3724
:1057200009F044C081E080934C048091440490913E
:105730004504A0914604B09147040097A105B10526
:1057400099F08091440490914504A0914604B09151
:1057500047040197A109B10980934404909345043B
:10576000A0934604B0934704809148049091490463
:10577000A0914A04B0914B040097A105B10599F09E
:105780008091480490914904A0914A04B0914B043F
:105790000197A109B1098093480490934904A0930B
:1057A0004A04B0934B0410924D0405C080914D04FF
:1057B0008F5F80934D04CF91DF91BF91AF919F9107
:1057C0008F910F900FBE0F901F901895DF93CF937E
:1057D000CDB7DEB780E490E0FC01108289E290E072
:1057E00027E6FC0120838AE290E02AE230E0F9011A
:1057F00020812861FC0120838AE290E02AE230E0E7
:10580000F90120812068FC01208380E490E020E4FD
:1058100030E0F90120812668FC01208380E49CE2CD
:1058200060E070E00E94F62ECF91DF910895DF9343
:10583000CF930F92CDB7DEB7898300008BE290E063
:10584000FC018081882F90E0807290700097B1F306
:105850008CE290E02981FC0120830F90CF91DF91B1
:105860000895DF93CF93CDB7DEB78BE290E0FC01D4
:1058700080818CE290E0FC018081CF91DF910895DE
:10588000DF93CF9300D00F92CDB7DEB789837B83B0
:105890006A8300008BE290E0FC018081882F90E019
:1058A000807290700097B1F38CE290E02981FC0146
:1058B000208380E090E00F900F900F90CF91DF91C8
:1058C00008951F920F920FB60F9211248F939F93FA
:1058D000EF93FF93DF93CF93CDB7DEB78CE290E0E9
:1058E000FC01808180932201CF91DF91FF91EF91A4
:1058F0009F918F910F900FBE0F901F901895505849
:10590000BB27AA270ED070C161D130F066D120F03C
:1059100031F49F3F11F41EF456C10EF4E095E7FBFD
:105920004CC1E92F72D180F3BA176207730784075D
:10593000950718F071F49EF58AC10EF4E0950B2ED0
:10594000BA2FA02D0B01B90190010C01CA01A001D1
:105950001124FF27591B99F0593F50F4503E68F12C
:105960001A16F040A22F232F342F4427585FF3CF6D
:10597000469537952795A795F0405395C9F77EF43E
:105980001F16BA0B620B730B840BBAF09150A1F087
:10599000FF0FBB1F661F771F881FC2F70EC0BA0F0D
:1059A000621F731F841F48F4879577956795B79595
:1059B000F7959E3F08F0B3CF9395880F08F099278D
:1059C000EE0F979587950895D4D008F481E0089557
:1059D0000CD00AC102D140F0F9D030F021F45F3F81
:1059E00019F0EBC0511134C1EEC00FD198F39923D7
:1059F000C9F35523B1F3951B550BBB27AA27621793
:105A00007307840738F09F5F5F4F220F331F441FD7
:105A1000AA1FA9F333D00E2E3AF0E0E830D091500F
:105A20005040E695001CCAF729D0FE2F27D0660FFC
:105A3000771F881FBB1F261737074807AB07B0E83B
:105A400009F0BB0B802DBF01FF2793585F4F2AF051
:105A50009E3F510568F0B1C0FBC05F3FECF3983E3C
:105A6000DCF3869577956795B795F7959F5FC9F7AE
:105A7000880F911D9695879597F90895E1E0660F37
:105A8000771F881FBB1F621773078407BA0720F0B0
:105A9000621B730B840BBA0BEE1F88F7E095089519
:105AA000BCD088F09F5790F0B92F9927B751A0F03C
:105AB000D1F0660F771F881F991F1AF0BA95C9F7A2
:105AC00012C0B13081F0C3D0B1E00895C0C0672FDB
:105AD000782F8827B85F39F0B93FCCF38695779552
