:100000000C9486030C94CF070C9415070C94A3034F
:100010000C940E2A0C94A3030C94A3030C94A30336
:100020000C94A3030C9400070C94A3030C94A30357
:100030000C94A3030C94EF2A0C94A3030C94A30335
:100040000C94E9030C94A3030C94A3030C94A30352
:100050000C94A3030000C0E0F0F838181838F8F04A
:10006000E0C0000000FFFFFFFF000000000000FFF5
:10007000FFFFFF0000071F3F7FF8E0C0C0E0F87FF0
:100080003F1F0700000000808080C0E0F8F8F8F80B
:10009000000000000000000101010101FFFFFFFF5F
:1000A000000000000000000000000000FFFFFFFF54
:1000B000000000000080E0F0F0783818181878F898
:1000C000F0E0C00000010101010080C0E0F0F87F15
:1000D0003F1F0F00E0F0F8FCFEDFCFC7C3C1C0C078
:1000E000C0C0C00000C0E0F0F83818181838F8F0A8
:1000F000E0C0000000000000000030303078FFFF5A
:10010000EFC78000000C3C7C7CF0E0C0C0E0F07FDA
:100110007F3F0F0000000000000000C0E0F8F8F88A
:10012000F80000000080E0F07C3E0F0701FFFFFFB9
:10013000FF000000070707070606060606FFFFFF89
:10014000FF0606060000F8F8F8F81818181818182E
:100150001800000000003F3F3F1F1C0C0C1C3CF827
:10016000F8F0C000000C3C7C7CF0E0C0C0E0F07F08
:100170007F3F0F0000C0E0F0F83818181838F8F08A
:10018000E0C0000000FFFFFFFF381C0C0C1C3CFC13
:10019000F8F0C00000071F3F7FF8E0C0C0E0F07F2C
:1001A0007F3F0F0000181818181818181818D8F8DA
:1001B000F8F8380000000000000000C0F8FEFF3F23
:1001C0000F0100000000000000F0FEFFFF0F010023
:1001D000000000000000C0F0F0F838181838F8F0FF
:1001E000F0C00000000083CFFFFF7C78787CFFFF29
:1001F000CF830000001F3F7F7FF0E0C0C0E0F07FB2
:100200007F3F1F000080E0F0F07838181838F8F0D1
:10021000E0C00000000F3F7FFFF0E0C0C0E070FFD3
:10022000FFFFFF0000183878F8E0C0C0E0F0FC7F66
:100230003F1F03000000000000000000000000005D
:1002400000E0E0E00000000000000000000000000E
:1002500000E0E0E0E0000000000000E0E0E0E0E0BE
:10026000E0E0E00000000000000000F0F8181818BE
:100270003830000000FE2020103E003173636363BD
:100280007F3E00000002728A8A8A0202FA0AFA0A93
:10029000FA0200000000F0204020F000E0301010D2
:1002A00030E0000000000700000017A045A7100084
:1002B000070500000000788484840100FC04F90430
:1002C000F800000000000000C0E0C0800000000056
:1002D0000000000000000000000103078FDEFCF8B2
:1002E0007020000000000000183C1E0F07030100F2
:1002F000000000000000000000000000000080C0BE
:10030000E0C00000000000002070F8FCDE8F070352
:1003100001000000000000000000000103070F1EA4
:100320003C18000000000000000000000000000079
:1003300000000000000000383838383838383838C5
:10034000383800000000000000000000000000003D
:10035000000000000000000000000000000000009D
:10036000000000000000000000000000000000008D
:10037000000000000000000000000000000000007D
:1003800000000000FFFFFFFFFF00FFFFFFFFFFFF78
:1003900000FFFFFFFFFFFF00FFFFFFFFFFFF00FF6A
:1003A000FFFFFFFFFF00FFFFFFFFFFFF00FFFFFF5B
:1003B000FFFFFF00FFFFFFFFFFFF00FFFFFFFFFF4B
:1003C000FF00FFFFFFFFFFFF00FFFFFFFFFFFF003A
:1003D000FFFFFFFFFFFF00FFFFFFFFFFFF00FFFF2B
:1003E000FFFFFFFF00FFFFFFFFFFFF00FFFFFFFF1B
:1003F000FFFF00FFFFFFFFFFFF00FFFFFFFFFFFF0B
:1004000000FFFFFFFFFFFF00FFFFFFFFFFFF00FFF9
:10041000FFFFFFFFFF00FFFFFFFFFFFF00FFFFFFEA
:10042000FFFFFF00FFFFFFFFFFFF00FFFFFFFFFFDA
:10043000FF00FFFFFFFFFFFF00FFFFFFFFFFFF00C9
:10044000FFFFFFFFFFFF00FFFFFFFFFFFF00FFFFBA
:10045000FFFFFFFF00FFFFFFFFFFFF00FFFFFFFFAA
:10046000FFFF00FF0000000000FFFF00004F000042
:1004700000FF000700070000FF147F147F1400FF37
:10048000242A7F2A1200FF231308646200FF3649E2
:1004900055222000FF000503000000FF001C224140
:1004A0000000FF0041221C0000FF14083E08140059
:1004B000FF08083E080800FF503000000000FF0859
:1004C0000808080800FF006060000000FF20100816
:1004D000040200FF3E5149453E00FF40427F40403C
:1004E00000FF426151494600FF2141454B3100FF69
:1004F0001814127F1000FF274545453900FF3C4A7C
:1005000049493000FF017109050300FF3649494997
:100510003600FF064949291E00FF0036360000005C
:10052000FF005636000000FF081422410000FF14AF
:100530001414141400FF004122140800FF0201519A
:10054000090600FF000002050200FF7E1111117E66
:1005500000FF7F4949493600FF3E4141412200FFEB
:100560007F4141221C00FF7F4949494100FF7F092B
:1005700009090100FF3E4149497A00FF7F08080848
:100580007F00FF00417F410000FF2040413F01000C
:10059000FF7F0814224100FF7F4040404000FF7F62
:1005A000020C027F00FF7F0408107F00FF3E4141E4
:1005B000413E00FF7F0909090600FF3E4151215ECF
:1005C00000FF7F0919294600FF264949493200FFEB
:1005D00001017F010100FF3F4040403F00FF1F201D
:1005E00040201F00FF3F4038403F00FF63140814C5
:1005F0006300FF070870080700FF61514945430089
:10060000FF007F41410000FF020408102000FF00AE
:1006100041417F0000FF040201020400FF4040400E
:10062000404000FF000003050000FF2054545478B0
:1006300000FF7F4444443800FF384444444400FFF2
:10064000384444447F00FF385454541800FF0404D5
:100650007E050500FF085454543C00FF7F08040445
:100660007800FF00447D4000FFFF2040443D00FF34
:10067000FF7F10284400FFFF417F4000FFFFFF7C09
:10068000047C047800FF7C0804047800FF384444AC
:10069000443800FF7C1414140800FF081414147C60
:1006A00000FF7C08040400FFFF485454542400FF5A
:1006B00004043F444400FF3C4040207C00FF1C20D9
:1006C00040201C00FF3C4030403C00FF44281028E4
:1006D0004400FF0C5050503C00FF4464544C440014
:1006E000FF083641410000FF000077000000FF00D6
:1006F0004141360800FF08082A1C0800FF081C2A90
:10070000080800FFFFFFFFFFFF00FF0011241FBECE
:10071000CFE5D8E0DEBFCDBF14E0A0E6B0E0ECE46A
:10072000F5E602C005900D92A63BB107D9F714E09B
:10073000A6EBB4E001C01D92AF3FB107E1F70E9404
:10074000AE190C94A4320C940000DF93CF93CDB774
:10075000DEB7F89481E0CF91DF910895DF93CF93D6
:1007600000D0CDB7DEB79A8389838FE590E02981E9
:100770003A81F9012081FC0120830F900F90CF91E5
:10078000DF910895DF93CF93CDB7DEB786E290E097
:1007900026E230E0F90120812760FC01208387E216
:1007A00090E020E4FC01208386E290E026E230E045
:1007B000F90120812868FC01208386E290E026E28E
:1007C00030E0F90120812064FC012083CF91DF918A
:1007D00008951F920F920FB60F921124EF92FF927D
:1007E0000F931F932F933F934F935F936F937F9339
:1007F0008F939F93AF93BF93EF93FF93DF93CF9329
:1008000000D000D0CDB7DEB78FE590E0FC0180814D
:100810008C830E94A5038B8313C084E290E0FC01CB
:100820008081282F30E085E290E0FC018081882FD4
:1008300090E0982F8827822B932B9A8389831B82A1
:100840008B81882351F7CE0104960E94AE038091DC
:100850007E0490917F04CC01A0E0B0E0BC01CD010A
:100860000E940A2CDC01CB01BC01CD0126E636E654
:1008700046E65FE30E94C02CDC01CB017C018D01C8
:1008800089819A81CC01A0E0B0E0BC01CD010E9439
:100890000A2CDC01CB01BC01CD012DEC3CEC4CEC75
:1008A0005DE30E94C02CDC01CB019C01AD01C801BD
:1008B000B7010E940E2BDC01CB01BC01CD010E94CF
:1008C000DE2BDC01CB0190937F0480937E0486E2D3
:1008D00090E026E230E0F90120812064FC012083D1
:1008E0002496DEBFCDBFCF91DF91FF91EF91BF91F5
:1008F000AF919F918F917F916F915F914F913F91B8
:100900002F911F910F91FF90EF900F900FBE0F90BE
:100910001F9018950F931F93DF93CF93CDB7DEB73A
:1009200060970FB6F894DEBF0FBECDBF85E390E0B1
:10093000FC0180818F8784E390E0FC018081888BBB
:1009400087E390E027E330E0F90120812E7FFC016E
:10095000208388E390E028E330E0F90120812E7FB6
:10096000FC01208384E390E0FC01108285E390E0A9
:100970002FEFFC01208387E390E027E330E0F901CB
:1009800020812160FC01208388E390E028E330E0AF
:10099000F90120812E7FFC01208380E090E0A0E817
:1009A000BFE389839A83AB83BC8369817A818B811E
:1009B0009C8120E030E04AE755E40E94C02CDC0135
:1009C000CB018D839E83AF83B88711E06D817E81DB
:1009D0008F81988520E030E040E85FE30E94722B31
:1009E00088230CF010E0112329F081E090E09A8731
:1009F000898746C011E06D817E818F81988520E0D6
:100A00003FEF4FE757E40E94BC2C18160CF010E0A3
:100A1000112361F169817A818B819C8120E030E032
:100A200040E251E40E94C02CDC01CB01BC01CD01AD
:100A30000E94DE2BDC01CB019A87898712C080E9F6
:100A400091E09C878B878B859C858C01C8010197E1
:100A5000F1F78C011C870B8789859A8501979A8706
:100A6000898789859A85009751F717C06D817E81A6
:100A70008F8198850E94DE2BDC01CB019A878987C4
:100A800089859A859E878D878D859E858C01F80145
:100A90003197F1F78F011E870D8783E390E0FC010A
:100AA000808180958093E00485E390E02F85FC01B0
:100AB000208384E390E02889FC0120838091E00476
:100AC00060960FB6F894DEBF0FBECDBFCF91DF9119
:100AD0001F910F910895DF93CF9300D00F92CDB760
:100AE000DEB79A8389836B8389819A81FC01918126
:100AF0008B819817D1F089819A81FC0180818230A5
:100B0000A0F089819A812B81FC01218389819A81BE
:100B1000FC01108289819A81FC018181882341F145
:100B200089819A81FC01818124C089819A81FC019B
:100B300091818B81981789F089819A81FC0180814C
:100B4000823058F489819A81FC018081282F2F5F9F
:100B500089819A81FC0120830BC089819A81FC01E3
:100B600091818B81981721F489819A81FC011082EF
:100B700080E00F900F900F90CF91DF910895DF9359
:100B8000CF930F92CDB7DEB719820E948A0480936B
:100B9000E0042091E00486EB94E0622F0E946B0554
:100BA00089838981882F90E08430910509F47BC086
:100BB0008530910564F48130910509F4AFC082302D
:100BC000910509F48EC0009709F4C6C0AEC080310B
:100BD0009105C1F1813191052CF48830910509F41A
:100BE0003EC0A3C08032910599F08034910509F090
:100BF0009CC08091D504882331F481E08093D50492
:100C00000E940527B4C01092D5040E940527AFC0EA
:100C10008091C004882309F0A1C08091D50484305C
:100C200031F481E08093D5040E940527A0C0809113
:100C3000D504882309F494C084E08093D5040E94ED
:100C4000052795C08091C004882319F00E948F1B4E
:100C50008EC081E08093C0040E94841A88C0809175
:100C60003801882349F087EC92E09093D902809371
:100C7000D80280E00E94041C8981282F30E000D037
:100C800000D08DB79EB7019640E650E0FC0151833D
:100C90004083FC01338322830E94CF2D0F900F905D
:100CA0000F900F9064C08981282F30E000D000D0D1
:100CB0008DB79EB7019649E650E0FC015183408311
:100CC000FC01338322830E94CF2D0F900F900F9051
:100CD0000F908091C004882309F444C00E94F61A42
:100CE00046C08981282F30E000D000D08DB79EB754
:100CF000019642E750E0FC0151834083FC013383BD
:100D000022830E94CF2D0F900F900F900F90809113
:100D1000C004882349F10E94BF1B29C08091C004F0
:100D2000882321F10E94391B22C08981282F30E0BD
:100D300000D000D08DB79EB701964BE750E0FC0184
:100D400051834083FC01338322830E94CF2D0F9077
:100D50000F900F900F900BC0000009C0000007C05B
:100D6000000005C0000003C0000001C000000F909B
:100D7000CF91DF910895DF93CF93CDB7DEB7F8948D
:100D800081E0CF91DF910895DF93CF9300D0CDB76D
:100D9000DEB79A8389838FE590E029813A81F90152
:100DA0002081FC0120830F900F90CF91DF91089557
:100DB000DF93CF93CDB7DEB71092B9041092B80489
:100DC0000E94BE0885E590E025E530E0F90120812C
:100DD0002A60FC0120838FE490E0FC0110828EE405
:100DE00090E025E0FC01208389E590E029E530E0F2
:100DF000F90120812460FC012083CF91DF910895C7
:100E00001F920F920FB60F9211248F93DF93CF93FF
:100E1000CDB7DEB781E08093A600CF91DF918F91AF
:100E20000F900FBE0F901F9018951F920F920FB644
:100E30000F921124EF92FF920F931F932F933F93E2
:100E40004F935F936F937F938F939F93AF93BF93D2
:100E5000EF93FF93DF93CF9300D0CDB7DEB78FE54D
:100E600090E0FC0180818A830E94BB0689836BC06D
:100E70008CE490E0FC01808191819093E204809366
:100E8000E1048CE490E0FC01118210828091E10485
:100E90009091E2048135910508F445C08091E10408
:100EA0009091E204CC01A0E0B0E0BC01CD010E9431
:100EB0000A2CDC01CB01BC01CD012DEC3CEC4CEC4F
:100EC0005DE30E94C02CDC01CB017C018D0180918F
:100ED000970090919800CC01A0E0B0E0BC01CD015A
:100EE0000E940A2CDC01CB01BC01CD0126E636E6CE
:100EF00046E65FE30E94C02CDC01CB019C01AD0102
:100F0000C801B7010E940E2BDC01CB01BC01CD0151
:100F10000E94DE2BDC01CB01909398008093970018
:100F20001092BB040FC08091BB048F5F8093BB0401
:100F30008091BB04853630F01092BB04109298006B
:100F40001092970019828981882309F091CFCE01F0
:100F500002960E94C4061092A6008AE590E02AE557
:100F600030E0F90120812068FC0120830F900F9070
:100F7000CF91DF91FF91EF91BF91AF919F918F91B1
:100F80007F916F915F914F913F912F911F910F91A1
:100F9000FF90EF900F900FBE0F901F9018951F922B
:100FA0000F920FB60F921124EF92FF920F931F939F
:100FB0002F933F934F935F936F937F938F939F9361
:100FC000AF93BF93EF93FF93DF93CF9300D0CDB751
:100FD000DEB78FE590E0FC0180818A830E94BB062A
:100FE00089836BC08CE490E0FC01808191819093B7
:100FF000E2048093E1048CE490E0FC011182108211
:101000008091E1049091E2048536910508F445C091
:101010008091950090919600CC01A0E0B0E0BC01D9
:10102000CD010E940A2CDC01CB01BC01CD012AE9D3
:1010300039E949E95EE30E94C02CDC01CB017C0167
:101040008D018091E1049091E204CC01A0E0B0E038
:10105000BC01CD010E940A2CDC01CB01BC01CD01F9
:1010600023E333E343E35FE30E94C02CDC01CB01C5
:101070009C01AD01C801B7010E940E2BDC01CB0120
:10108000BC01CD010E94DE2BDC01CB0190939600C8
:10109000809395001092BB040FC08091BB048F5FBA
:1010A0008093BB048091BB04853630F01092BB0462
:1010B000109296001092950019828981882309F078
:1010C00091CFCE0102960E94C4061092A6008AE536
:1010D00090E02AE530E0F90120812064FC012083C2
:1010E0000F900F90CF91DF91FF91EF91BF91AF9152
:1010F0009F918F917F916F915F914F913F912F9130
:101100001F910F91FF90EF900F900FBE0F901F90C7
:101110001895DF93CF93CDB7DEB78BE590E02BE545
:1011200030E0F90120812F77FC0120838BE590E0EE
:101130002BE530E0F90120812064FC0120838091BF
:10114000B900882319F487E080939D001092B900BC
:1011500081E08093940080E063E041E20E94210EF0
:1011600081E30E94E20E80E064E04EE10E94210EE5
:1011700080E20E94E20ECF91DF910895DF93CF933A
:10118000CDB7DEB78BE590E02BE530E0F9012081AB
:101190002F7BFC0120838BE590E02BE530E0F9010B
:1011A00020812068FC0120838091B800882319F4F5
:1011B00087E080939D001092B80080919D00282FB9
:1011C00030E000D000D08DB79EB7019647EA50E0DE
:1011D000FC0151834083FC01338322830E94CF2D85
:1011E0000F900F900F900F901092940080E063E0AA
:1011F00041E20E94210E80E20E94E20E80E064E063
:101200004EE10E94210E82E30E94E20ECF91DF9117
:101210000895EF92FF920F931F93DF93CF93CDB773
:10122000DEB728970FB6F894DEBF0FBECDBF80E0C3
:1012300090E0DC0189839A83AB83BC8380E061E02A
:101240004AE00E94210E8091970090919800CC0175
:10125000A0E0B0E0BC01CD0146E00E94640F8091A7
:101260009400813009F098C080919D0061E088234E
:1012700009F060E080919500909196009C01329574
:1012800022952F7023273F7023274091950050917E
:1012900096008091990090919A00FA01E81BF90B51
:1012A000CF0199231CF4909581959F4F41E0281719
:1012B000390708F040E0862F84238823B1F180911C
:1012C000950090919600CC01A0E0B0E0BC01CD016A
:1012D0000E940A2CDC01CB0120918800309189000A
:1012E00040918A0050918B00BC01CD010E94C02C1E
:1012F000DC01CB0120918400309185004091860073
:1013000050918700BC01CD010E940E2BDC01CB0166
:1013100089839A83AB83BC838091950090919600DA
:1013200090939A0080939900CEC080919D0088236D
:1013300029F080919D00815080939D0080919900BB
:1013400090919A00CC01A0E0B0E0BC01CD010E94D8
:101350000A2CDC01CB01209188003091890040915A
:101360008A0050918B00BC01CD010E94C02CDC0191
:10137000CB012091840030918500409186005091EE
:101380008700BC01CD010E940E2BDC01CB018983BB
:101390009A83AB83BC8397C080919D0061E08823D2
:1013A00009F060E080919700909198009C0132953F
:1013B00022952F7023273F7023274091970050914B
:1013C000980080919B0090919C00FA01E81BF90B1A
:1013D000CF0199231CF4909581959F4F41E02817E8
:1013E000390708F040E0862F84238823B1F18091EB
:1013F000970090919800CC01A0E0B0E0BC01CD0135
:101400000E940A2CDC01CB012091900030919100C8
:101410004091920050919300BC01CD010E94C02CDC
:10142000DC01CB0120918C0030918D0040918E0029
:1014300050918F00BC01CD010E940E2BDC01CB012D
:1014400089839A83AB83BC838091970090919800A5
:1014500090939C0080939B0036C080919D008823D0
:1014600029F080919D00815080939D0080919B0088
:1014700090919C00CC01A0E0B0E0BC01CD010E94A5
:101480000A2CDC01CB012091900030919100409119
:10149000920050919300BC01CD010E94C02CDC0150
:1014A000CB0120918C0030918D0040918E005091A5
:1014B0008F00BC01CD010E940E2BDC01CB01898382
:1014C0009A83AB83BC8369817A818B819C8120E084
:1014D00038E04EE856E40E94C02CDC01CB017C01D0
:1014E0008D010E945529DC01CB01BC01CD010E9478
:1014F0000A2C9B01AC01C801B7010E94762BDC01CC
:10150000CB01BC01CD010E94DE2BDC01CB018D8320
:101510009E83AF83B88769817A818B819C810E9489
:10152000DE2BDC01CB01BC01CD0128960FB6F8946F
:10153000DEBF0FBECDBFCF91DF911F910F91FF9006
:10154000EF900895DF93CF9300D000D0CDB7DEB7F2
:101550000E940909DC01CB01BC01CD010E940A2CCB
:10156000DC01CB0189839A83AB83BC8329813A81D7
:101570004B815C8160E074E284E799E40E94762B01
:10158000DC01CB0189839A83AB83BC8389819A81F7
:10159000AB81BC81BC01CD010E94DE2BDC01CB0103
:1015A000BC01CD010F900F900F900F90CF91DF9164
:1015B0000895DF93CF93CDB7DEB780E090E00E942F
:1015C0003F3021E08230920709F066C082EC90E063
:1015D0000E94E42D82E090E00E9431308093BA04B2
:1015E00087E090E00E943930DC01CB0180938004D9
:1015F00090938104A0938204B09383048BE090E0E5
:101600000E943930DC01CB018093840490938504DF
:10161000A0938604B093870483E090E00E943F305B
:10162000CC01A0E0B0E02CE330E040E050E0BC01B1
:10163000CD010E94232DDC01CB018093BA00909351
:10164000BB00A093BC00B093BD0085E090E00E9479
:101650003130482F50E02CE330E0429FC001439FDF
:10166000900D529F900D11249093BF008093BE0067
:1016700086E090E00E943130482F50E02CE330E0CB
:10168000429FC001439F900D529F900D1124909353
:10169000C1008093C00006C08FEC90E00E94E42D52
:1016A0000E94550BCF91DF910895DF93CF93CDB773
:1016B000DEB780E090E062E071E00E945A3082E0A4
:1016C00090E060E00E9445308091BA009091BB00AC
:1016D000A091BC00B091BD002CE330E040E050E0B0
:1016E000BC01CD010E94622DDA01C9019C0183E099
:1016F00090E0B9010E945A3087E090E040E050E06D
:10170000BA010E9452308BE090E040E050E060E48B
:101710007FE30E9452308091C0009091C1002CE381
:1017200030E0B9010E944E2D9B01C901282F85E0B0
:1017300090E0622F0E9445308091BE009091BF00E2
:101740002CE330E0B9010E944E2D9B01C901282FE6
:1017500086E090E0622F0E944530CF91DF9108959E
:10176000DF93CF93CDB7DEB72091BA0482E090E04B
:10177000622F0E944530CF91DF910895DF93CF9380
:1017800000D0CDB7DEB78091BA009091BB00A09198
:10179000BC00B091BD002CE330E040E050E0BC0163
:1017A000CD010E94622DDA01C9019A83898383E009
:1017B00090E029813A81B9010E945A300F900F9030
:1017C000CF91DF910895DF93CF93CDB7DEB720910E
:1017D000800430918104409182045091830487E019
:1017E00090E0BA01A9010E94523020918404309106
:1017F000850440918604509187048BE090E0BA0103
:10180000A9010E945230CF91DF910895DF93CF93C9
:10181000CDB7DEB78091C0009091C1002CE330E0DD
:10182000B9010E944E2D9B01C901282F85E090E04F
:10183000622F0E944530CF91DF910895DF93CF93BF
:10184000CDB7DEB78091BE009091BF002CE330E0B1
:10185000B9010E944E2D9B01C901282F86E090E01E
:10186000622F0E944530CF91DF910895DF93CF938F
:10187000CDB7DEB786E090E00E943130482F50E0CF
:101880002CE330E0429FC001439F900D529F900D8A
:1018900011249093BF008093BE00CF91DF910895F3
:1018A000DF93CF93CDB7DEB785E090E00E94313073
:1018B000482F50E02CE330E0429FC001439F900D41
:1018C000529F900D11249093C1008093C000CF913E
:1018D000DF910895DF93CF930F92CDB7DEB780915C
:1018E000BD049091BE0401969093BE048093BD0404
:1018F0008091BD049091BE04863091050CF46BC0BC
:101900008091BC04282F30E000D000D08DB79EB766
:1019100001964BEF50E0FC0151834083FC0133837F
:1019200022830E94CF2D0F900F900F900F908091E7
:10193000BF048F5F8093BF048091BF04898307C079
:1019400089818F5F89838981893008F0198280912C
:10195000BC04882F90E02981222F30E0022E02C0A3
:10196000959587950A94E2F781709070009741F3FE
:101970008981282F30E000D000D08DB79EB7019626
:101980004EE051E0FC0151834083FC01338322830C
:101990000E94CF2D0F900F900F900F908981809310
:1019A000BF0481E090E00E94A50E2DED30E089811A
:1019B000882F90E0880F991FAC01440F551F440FEA
:1019C000551F840F951F820F931F0E94450F109281
:1019D000BE041092BD040F90CF91DF910895DF9364
:1019E000CF9300D000D0CDB7DEB70E940909DC014B
:1019F000CB0189839A83AB83BC8389819A81AB8134
:101A0000BC81803D27E0920720E0A20720E0B207DA
:101A100078F480919400813031F48091BC0482602C
:101A20008093BC0405C08091BC0481608093BC0499
:101A30000F900F900F900F90CF91DF9108950F931B
:101A40001F93DF93CF93CDB7DEB72E970FB6F894E1
:101A5000DEBF0FBECDBF8AE390E02AE330E0F9019C
:101A60002081206FFC01208384E390E0FC018081D1
:101A700084E390E02FEFFC01208387E390E027E3ED
:101A800030E0F90120812260FC0120830E947F1850
:101A90008FE30E9430140E9466188FE30E94301476
:101AA00080E090E0A0E2B1E489839A83AB83BC83B9
:101AB00069817A818B819C8120E030E04AE753E4A0
:101AC0000E94C02CDC01CB018D839E83AF83B8873D
:101AD00011E06D817E818F81988520E030E040E8C3
:101AE0005FE30E94722B88230CF010E0112329F091
:101AF00081E090E09A87898746C011E06D817E8100
:101B00008F81988520E03FEF4FE757E40E94BC2C7F
:101B100018160CF010E0112361F169817A818B8134
:101B20009C8120E030E040E251E40E94C02CDC01C6
:101B3000CB01BC01CD010E94DE2BDC01CB019A87D9
:101B4000898712C089E190E09C878B878B859C8573
:101B50008C01C8010197F1F78C011C870B878985DF
:101B60009A8501979A87898789859A85009751F781
:101B700017C06D817E818F8198850E94DE2BDC01EC
:101B8000CB019A87898789859A859E878D878D85E0
:101B90009E858C01F8013197F1F78F011E870D8723
:101BA0000E947F1880EC0E9430140E94661880EC1E
:101BB0000E9430140E94EE0D83E00E94A50E83E285
:101BC00091E00E94450F2E960FB6F894DEBF0FBE2F
:101BD000CDBFCF91DF911F910F910895DF93CF93E8
:101BE00000D00F92CDB7DEB78091E6048B831092C0
:101BF000E604198217C089810E94A50E1A820CC0C2
:101C00008A81803419F481E00E947F0E80E00E9476
:101C100048158A818F5F8A838A8188238CF789811E
:101C20008F5F89838981883030F38B818093E604CC
:101C300080E00E94A50E0F900F900F90CF91DF9142
:101C40000895DF93CF9300D00F92CDB7DEB789838D
:101C50006A834B838981882319F08981813009F552
:101C60008A818830F0F48B818034D8F4898188238C
:101C700019F40E947F1802C00E946618898180931F
:101C8000E3048A81886B8093E4048B818064809371
:101C9000E5048091E5040E9430148091E4040E94E0
:101CA00030140F900F900F90CF91DF910895DF9334
:101CB000CF9300D000D000D0CDB7DEB79A83898310
:101CC0007C836B835E834D832091E30489819A81B9
:101CD000FC0120832091E4048B819C81FC01208302
:101CE0002091E5048D819E81FC01208326960FB60C
:101CF000F894DEBF0FBECDBFCF91DF910895DF9383
:101D0000CF930F92CDB7DEB789838981882319F0ED
:101D100089818130B1F48981882319F40E947F1868
:101D200002C00E94661889818093E30480E4809356
:101D3000E5048091E4040E9430148091E5040E943F
:101D400030140F90CF91DF910895DF93CF930F92CE
:101D5000CDB7DEB789838981883038F4898188548A
:101D60008093E40480E00E947F0E0F90CF91DF917A
:101D70000895DF93CF93CDB7DEB78091E4048F5FF2
:101D80008093E4048091E404803C18F088EB809315
:101D9000E40480E00E947F0ECF91DF910895DF93ED
:101DA000CF93CDB7DEB78FEF8093E604CF91DF916D
:101DB0000895DF93CF93CDB7DEB71092E604CF91AD
:101DC000DF9108951F93DF93CF93CDB7DEB72797A9
:101DD0000FB6F894DEBF0FBECDBF8F838091E304B2
:101DE000813021F48091E5048C3718F48F818A309A
:101DF00011F40E94B90E8F818A3009F43CC024E8A6
:101E000033E08F81882F90E0AC01440F551F440FC1
:101E1000551F440F551FBA01681B790BCB01820F68
:101E2000931F9A8389838091E304882339F48091F6
:101E3000E504803819F481E00E947F0E89819A813F
:101E40009C838B8389819A8101969A8389838B8174
:101E50009C81FC0114911D838D818E838E818F3F27
:101E600049F08E810E9448158091E5048F5F809330
:101E7000E504D9CF000027960FB6F894DEBF0FBE59
:101E8000CDBFCF91DF911F910895DF93CF9300D005
:101E9000CDB7DEB79A8389830CC089819A81FC0112
:101EA000208189819A8101969A838983822F0E9459
:101EB000E20E89819A81FC018081882371F70F905D
:101EC0000F90CF91DF9108950F931F93DF93CF93DE
:101ED000CDB7DEB760970FB6F894DEBF0FBECDBFAB
:101EE0006C877D878E879F87488B19828C859D851F
:101EF000AE85BF850097A105B105C1F419820DC05B
:101F00008981882F90E09E012E5F3F4F820F931FA3
:101F1000FC01108289818F5F898399818889981754
:101F200008F061C089818A3058F35DC0198244C0CD
:101F30008C859D85AE85BF850097A105B10549F1CA
:101F40008981082F10E08C859D85AE85BF852AE0AC
:101F500030E040E050E0BC01CD010E94622DDC0188
:101F6000CB01282FCE010296800F911FFC01208308
:101F70008C859D85AE85BF852AE030E040E050E04D
:101F8000BC01CD010E94622D2C873D874E875F8763
:101F900010C088898F3F39F188898B3020F589817D
:101FA000882F90E09E012E5F3F4F820F931FFC0110
:101FB000108289818F5F898399818889981708F4B5
:101FC000B7CF11C08981882F90E001979E012E5FC5
:101FD0003F4F820F931FFC018081805D0E94E20EC3
:101FE0008981815089838981882361F760960FB642
:101FF000F894DEBF0FBECDBFCF91DF911F910F913F
:102000000895DF93CF93CDB7DEB760970FB6F894FE
:10201000DEBF0FBECDBF6C877D878E879F87488BC5
:1020200019828C859D85AE85BF850097A105B10578
:10203000C1F419820DC08981882F90E09E012E5F26
:102040003F4F820F931FFC01108289818F5F89832C
:1020500099818889981708F072C089818A3058F36D
:102060006EC019823BC08C859D85AE85BF8500976B
:10207000A105B105F1F08981882F90E02C85422FD0
:102080004F709E012E5F3F4F820F931FFC014083D4
:102090008C859D85AE85BF85689413F8B695A79508
:1020A000979587951694D1F78C879D87AE87BF87C4
:1020B00012C088898F3F09F442C088898B3008F0AC
:1020C0003EC08981882F90E09E012E5F3F4F820F96
:1020D000931FFC01108289818F5F89839981888990
:1020E000981708F4C0CF2BC08981882F90E0019702
:1020F0009E012E5F3F4F820F931FFC0180818A302B
:1021000068F08981882F90E001979E012E5F3F4FF4
:10211000820F931FFC018081895C0CC08981882F0C
:1021200090E001979E012E5F3F4F820F931FFC01AD
:102130008081805D0E94E20E89818150898389813E
:10214000882391F660960FB6F894DEBF0FBECDBF20
:10215000CF91DF910895DF93CF9300D000D000D0CE
:10216000CDB7DEB76A837B838C839D834E8328C083
:102170008E81882F90E09C012150304081E090E0DA
:1021800002C0880F991F2A95E2F79C01442737FD6A
:102190004095542F8A819B81AC81BD8182239323FA
:1021A000A423B52321E00097A105B10509F420E09F
:1021B00029838981805D0E94E20E8E8181508E8309
:1021C0008E818823A9F626960FB6F894DEBF0FBE3F
:1021D000CDBFCF91DF910895DF93CF93CDB7DEB719
:1021E00028970FB6F894DEBF0FBECDBF6D837E83F8
:1021F0008F8398876D817E818F8198850E94DE2BE9
:10220000DC01CB0189839A83AB83BC8389819A816A
:10221000AB81BC81BC01CD014FEF0E94640F8EE207
:102220000E94E20E69817A818B819C810E940A2C36
:102230009B01AC016D817E818F8198850E940D2B61
:10224000DC01CB018D839E83AF83B8876D817E8156
:102250008F81988520E034E244E759E40E94C02C45
:10226000DC01CB01BC01CD010E94DE2BDC01CB01E6
:1022700089839A83AB83BC8389819A81AB81BC813A
:10228000BC01CD014FEF0E94640F28960FB6F89461
:10229000DEBF0FBECDBFCF91DF910895DF93CF9307
:1022A000CDB7DEB768970FB6F894DEBF0FBECDBFCF
:1022B000CE014F96988F8F8B8D8D9E8D9A838983BB
:1022C000BEC189819A81FC01808189878985853297
:1022D00009F0ADC189819A8101969A8389838981A8
:1022E0009A81FC01808189878985803300F1898505
:1022F0008A33E8F41A8614C08A85880F982F990FBC
:10230000990F980F8985890F80538A8789819A81CF
:1023100001969A83898389819A81FC0180818987CA
:102320008985803338F089858A3330F304C08FEF94
:102330008A8701C000008985882F90E08835910543
:1023400009F4F1C08935910504F58434910509F447
:1023500070C08534910564F48234910509F419C183
:10236000833491058CF58532910509F45CC162C115
:102370008335910509F445C18535910509F4A2C05D
:102380008634910509F424C155C18636910509F4B6
:102390001FC1873691055CF483369105A9F0843618
:1023A000910509F18236910509F4D7C043C18537FB
:1023B000910509F470C08837910509F49DC08337F1
:1023C000910509F41EC136C18F89988D9C012E5F3D
:1023D0003F4F388F2F8BFC018081918189878985C0
:1023E0000E94E20E27C18F89988D9C012E5F3F4F7E
:1023F000388F2F8BFC01808191819C838B838B8113
:102400009C81992354F48B819C81909581959F4F59
:102410009C838B838DE20E94E20E8B819C81AA2794
:1024200097FDA095BA2FBC01CD014A850E94640F8B
:1024300001C18F89988D9C012C5F3F4F388F2F8B66
:10244000FC0180819181A281B3818D839E83AF83C2
:10245000B8878D819E81AF81B885BB2394F48D812F
:102460009E81AF81B885B095A095909581959F4F3D
:10247000AF4FBF4F8D839E83AF83B8878DE20E949D
:10248000E20E8D819E81AF81B885BC01CD014A8568
:102490000E94640FCFC08F89988D9C012E5F3F4FA3
:1024A000388F2F8BFC01808191819C878B878B8556
:1024B0009C85CC01A0E0B0E0BC01CD014A850E9422
:1024C000640FB8C08F89988D9C012C5F3F4F388F67
:1024D0002F8BFC0180819181A281B3818D879E87A2
:1024E000AF87B88B8D859E85AF85B889BC01CD013E
:1024F0004A850E94640F9EC08F89988D9C012E5F33
:102500003F4F388F2F8BFC01808191819C878B8777
:102510008B859C85CC01A0E0B0E0BC01CD014A8553
:102520000E94011087C08F89988D9C012C5F3F4FBE
:10253000388F2F8BFC0180819181A281B3818D879F
:102540009E87AF87B88B8D859E85AF85B889BC0186
:10255000CD014A850E9401106DC08F89988D9C0124
:102560002E5F3F4F388F2F8BFC01808191819C879C
:102570008B878A858F3F11F480E18A878B859C85C4
:10258000CC01A0E0B0E0BC01CD014A850E94AB10B7
:1025900051C08F89988D9C012C5F3F4F388F2F8BB6
:1025A000FC0180819181A281B3818D879E87AF8755
:1025B000B88B8A858F3F11F480E18A878D859E854F
:1025C000AF85B889BC01CD014A850E94AB1032C0ED
:1025D0008F89988D9C012C5F3F4F388F2F8BFC018A
:1025E00080819181A281B381898B9A8BAB8BBC8BCB
:1025F00089899A89AB89BC89BC01CD010E94EC1004
:1026000019C08F89988D9C012E5F3F4F388F2F8B7B
:10261000FC01808191819E8B8D8B8D899E890E948A
:10262000450F000007C085E20E94E20E03C08985C5
:102630000E94E20E89819A8101969A838983898119
:102640009A81FC018081882309F03BCE68960FB601
:10265000F894DEBF0FBECDBFCF91DF910895DF9319
:10266000CF9300D0CDB7DEB7198216C089810E9402
:10267000A50E1A820BC08A81803411F40E9466185C
:1026800080E00E9448158A818F5F8A838A8188232F
:1026900094F789818F5F89838981883038F380E05E
:1026A0000E94A50E0F900F90CF91DF910895DF93B8
:1026B000CF93CDB7DEB729970FB6F894DEBF0FBE24
:1026C000CDBF888769878885843008F06FC0898589
:1026D000853608F06BC088858295880F807E8B8355
:1026E0008B81803410F41D8205C081E08D838B8145
:1026F00080548B838B81982F985F8D8160E0492F68
:102700000E94210E8985882F90E0A0E0B0E0BC01F6
:10271000CD0143E00E94640F89858695898789856C
:102720008695869586958E8397E08E81292F281B26
:10273000822F8F8381E0898336C08B81982F945FAD
:102740008D816981492F0E94210E99818F8198176F
:1027500010F41C821AC099818F819817A1F4898581
:1027600087708C838C81882F90E028E030E0281BD4
:10277000390B8FEF90E0022E02C0880F991F0A9448
:10278000E2F78C8302C08FEF8C831A8206C08C81A3
:102790000E9448158A818F5F8A838A818C30B8F3C2
:1027A00089818F5F89838981883038F229960FB6B5
:1027B000F894DEBF0FBECDBFCF91DF910895DF93B8
:1027C000CF9300D000D0CDB7DEB78B836C838B81E5
:1027D000880F8F5F8A838B818430D8F58C81853612
:1027E000C0F580E06A8140E00E94210E19820CC091
:1027F0008981803419F481E00E947F0E8FEF0E945E
:10280000481589818F5F898399818C81981780F31E
:102810008C8189830CC08981803419F481E00E9405
:102820007F0E80E00E94481589818F5F89838981AE
:10283000843688F381E06A814EE60E94210E8C8105
:10284000882F90E0A0E0B0E0BC01CD0143E00E9401
:10285000640F0F900F900F900F90CF91DF9108951C
:102860000F931F93DF93CF93CDB7DEB769970FB662
:10287000F894DEBF0FBECDBF898F0E94631685E33B
:1028800090E0298DFC0120838BE390E02BE330E086
:10289000F90120812F77FC0120838BE390E02BE36B
:1028A00030E0F90120812F7BFC0120838BE390E055
:1028B0002BE330E0F90120812062FC01208380E0DD
:1028C00090E0A0E0B0E489839A83AB83BC83698104
:1028D0007A818B819C812BEA3AEA4AEA5EE30E9484
:1028E000C02CDC01CB018D839E83AF83B88711E0C0
:1028F0006D817E818F81988520E030E040E85FE344
:102900000E94722B88230CF010E0112319F081E053
:102910008987A3C011E06D817E818F81988520E039
:1029200030E04FE753E40E94BC2C18160CF010E086
:10293000112309F489C069817A818B819C8120E00F
:1029400030E04AE754E40E94762BDC01CB018A8711
:102950009B87AC87BD876A857B858C859D8520E0BC
:1029600030E04AE753E40E94C02CDC01CB018E87A3
:102970009F87A88BB98B11E06E857F85888999899F
:1029800020E030E040E85FE30E94722B88230CF0E7
:1029900010E0112329F081E090E09B8B8A8B46C0E8
:1029A00011E06E857F858889998920E03FEF4FE7A8
:1029B00057E40E94BC2C18160CF010E0112361F1B2
:1029C0006A857B858C859D8520E030E040E251E47E
:1029D0000E94C02CDC01CB01BC01CD010E94DE2B8A
:1029E000DC01CB019B8B8A8B12C089E190E09D8B2F
:1029F0008C8B8C899D898C01C8010197F1F78C0122
:102A00001D8B0C8B8A899B8901979B8B8A8B8A896A
:102A10009B89009751F728C06E857F8588899989A1
:102A20000E94DE2BDC01CB019B8B8A8B8A899B89E0
:102A30009F8B8E8B8E899F898C01F8013197F1F7DE
:102A40008F011F8B0E8B10C06D817E818F819885C9
:102A50000E94DE2BDC01CB0189878985888F888DD8
:102A6000182F1A95F1F7188F8BE390E02BE330E0E5
:102A7000F90120812F7DFC01208369960FB6F8941F
:102A8000DEBF0FBECDBFCF91DF911F910F91089593
:102A90000F931F93DF93CF93CDB7DEB769970FB630
:102AA000F894DEBF0FBECDBF898F0E94631685E309
:102AB00090E03091E604298D2327FC0120838BE3ED
:102AC00090E02BE330E0F90120812068FC012083B5
:102AD0008BE390E02BE330E0F90120812F7BFC01B8
:102AE00020838BE390E02BE330E0F901208120622A
:102AF000FC01208380E090E0A0E0B0E489839A8329
:102B0000AB83BC8369817A818B819C812BEA3AEA11
:102B10004AEA5EE30E94C02CDC01CB018D839E83D8
:102B2000AF83B88711E06D817E818F81988520E029
:102B300030E040E85FE30E94722B88230CF010E045
:102B4000112319F081E08987A3C011E06D817E8196
:102B50008F81988520E030E04FE753E40E94BC2C41
:102B600018160CF010E0112309F489C069817A81EC
:102B70008B819C8120E030E04AE754E40E94762B70
:102B8000DC01CB018A879B87AC87BD876A857B8503
:102B90008C859D8520E030E04AE753E40E94C02CFC
:102BA000DC01CB018E879F87A88BB98B11E06E85E6
:102BB0007F858889998920E030E040E85FE30E94C2
:102BC000722B88230CF010E0112329F081E090E0B3
:102BD0009B8B8A8B46C011E06E857F858889998999
:102BE00020E03FEF4FE757E40E94BC2C18160CF092
:102BF00010E0112361F16A857B858C859D8520E03D
:102C000030E040E251E40E94C02CDC01CB01BC0169
:102C1000CD010E94DE2BDC01CB019B8B8A8B12C085
:102C200089E190E09D8B8C8B8C899D898C01C801FA
:102C30000197F1F78C011D8B0C8B8A899B89019779
:102C40009B8B8A8B8A899B89009751F728C06E8558
:102C50007F85888999890E94DE2BDC01CB019B8BC3
:102C60008A8B8A899B899F8B8E8B8E899F898C0109
:102C7000F8013197F1F78F011F8B0E8B10C06D811A
:102C80007E818F8198850E94DE2BDC01CB018987B4
:102C90008985888F888D182F1A95F1F7188F8BE307
:102CA00090E02BE330E0F90120812F7DFC012083AF
:102CB00069960FB6F894DEBF0FBECDBFCF91DF91FE
:102CC0001F910F9108950F931F93DF93CF93CDB76B
:102CD000DEB7E1970FB6F894DEBF0FBECDBF84E339
:102CE00090E024E330E0F90120812F77FC0120837C
:102CF0008BE390E02BE330E0F90120812F77FC019A
:102D000020838BE390E02BE330E0F9012081206405
:102D1000FC0120838BE390E02BE330E0F90120817C
:102D20002F7DFC01208380E090E0A0E0B0E48A8366
:102D30009B83AC83BD836A817B818C819D812BEADF
:102D40003AEA4AEA5EE30E94C02CDC01CB018E83A2
:102D50009F83A887B98711E06E817F8188859985D7
:102D600020E030E040E85FE30E94722B88230CF003
:102D700010E0112319F081E08A87A3C011E06E8171
:102D80007F818885998520E030E04FE753E40E94F9
:102D9000BC2C18160CF010E0112309F489C06A81CC
:102DA0007B818C819D8120E030E04AE754E40E94E1
:102DB000762BDC01CB018B879C87AD87BE876B852B
:102DC0007C858D859E8520E030E04AE753E40E94B3
:102DD000C02CDC01CB018F87988BA98BBA8B11E0BB
:102DE0006F85788989899A8920E030E040E85FE33F
:102DF0000E94722B88230CF010E0112329F081E04F
:102E000090E09C8B8B8B46C011E06F857889898917
:102E10009A8920E03FEF4FE757E40E94BC2C181638
:102E20000CF010E0112361F16B857C858D859E850A
:102E300020E030E040E251E40E94C02CDC01CB01F4
:102E4000BC01CD010E94DE2BDC01CB019C8B8B8B66
:102E500012C089E190E09E8B8D8B8D899E898C01BB
:102E6000C8010197F1F78C011E8B0D8B8B899C8912
:102E700001979C8B8B8B8B899C89009751F728C07D
:102E80006F85788989899A890E94DE2BDC01CB01C4
:102E90009C8B8B8B8B899C89988F8F8B8F89988D3E
:102EA0008C01F8013197F1F78F01188F0F8B10C04B
:102EB0006E817F81888599850E94DE2BDC01CB01A4
:102EC0008A878A85898F898D182F1A95F1F7198F2E
:102ED0008BE390E02BE330E0F90120812062FC01DC
:102EE000208380E090E0A0E0B0E48A8F9B8FAC8FDD
:102EF000BD8F6A8D7B8D8C8D9D8D2BEA3AEA4AEAD7
:102F00005EE30E94C02CDC01CB018E8F9F8FA8A3B3
:102F1000B9A311E06E8D7F8D88A199A120E030E0EA
:102F200040E85FE30E94722B88230CF010E011232D
:102F300019F081E08AA3A3C011E06E8D7F8D88A176
:102F400099A120E030E04FE753E40E94BC2C181612
:102F50000CF010E0112309F489C06A8D7B8D8C8DF3
:102F60009D8D20E030E04AE754E40E94762BDC019E
:102F7000CB018BA39CA3ADA3BEA36BA17CA18DA110
:102F80009EA120E030E04AE753E40E94C02CDC011F
:102F9000CB018FA398A7A9A7BAA711E06FA178A525
:102FA00089A59AA520E030E040E85FE30E94722BFB
:102FB00088230CF010E0112329F081E090E09CA719
:102FC0008BA746C011E06FA178A589A59AA520E03E
:102FD0003FEF4FE757E40E94BC2C18160CF010E0AE
:102FE000112361F16BA17CA18DA19EA120E030E0B5
:102FF00040E251E40E94C02CDC01CB01BC01CD01B8
:103000000E94DE2BDC01CB019CA78BA712C089E1BB
:1030100090E09EA78DA78DA59EA58C01C801019764
:10302000F1F78C011EA70DA78BA59CA501979CA766
:103030008BA78BA59CA5009751F728C06FA178A5F9
:1030400089A59AA50E94DE2BDC01CB019CA78BA74A
:103050008BA59CA598AB8FA78FA598A98C01F8018B
:103060003197F1F78F0118AB0FA710C06E8D7F8DD0
:1030700088A199A10E94DE2BDC01CB018AA38AA141
:1030800089AB89A9182F1A95F1F719AB83E390E062
:10309000FC018081881F8827881F89838981882374
:1030A00009F038CE84E390E024E330E0F901208198
:1030B0002068FC012083E1960FB6F894DEBF0FBEB6
:1030C000CDBFCF91DF911F910F910895DF93CF93E3
:1030D000CDB7DEB78BE390E02BE330E0F901208140
:1030E0002061FC01208388E390E028E330E0F901CF
:1030F00020812D7FFC012083CF91DF910895DF9304
:10310000CF93CDB7DEB788E390E028E330E0F90154
:1031100020812260FC0120838BE390E02BE330E0F0
:10312000F90120812F7EFC012083CF91DF9108954A
:10313000EF92FF920F931F93DF93CF93CDB7DEB73C
:1031400060970FB6F894DEBF0FBECDBF888B80911D
:10315000E5048D838091E4048B831F861C8224E523
:1031600030E08889682F70E040E350E0649FC00140
:10317000659F900D749F900D1124820F931F9A8369
:10318000898388898A30B1F501C000008F858F5FFF
:103190008F8789819A819F838E8389819A81019605
:1031A0009A8389838E819F818C01F801E590F49048
:1031B0008F01F986E8861F830E83888599858A8723
:1031C0008A850E9448158F85883108F068C08F85F0
:1031D00096E0692F0E94422D892F8823B1F68B81BA
:1031E0008F5F8B838D810E9430148B810E943014FD
:1031F000CDCF00008F858F5F8F8789819A819C87D3
:103200008B8789819A8101969A8389838B859C8596
:103210008C01F801E590F4908F01FE86ED861C8705
:103220000B878D859E858A878A850E9448158091A7
:10323000E5048F5F8093E5048091E50491E0803898
:1032400009F090E02091E30481E0222309F080E07E
:103250008923882329F081E00E947F0E81E08C83FE
:103260008F858033F0F48F858F70882309F0C1CF6C
:103270008B818F5F8B838C81882321F080E00E947B
:103280007F0E1C828D818093E5048B818093E40402
:103290008D810E9430148B810E943014ABCF0000CE
:1032A00001C0000060960FB6F894DEBF0FBECDBF20
:1032B000CF91DF911F910F91FF90EF900895DF93D1
:1032C000CF93CDB7DEB781E062E040E30E94210EEC
:1032D0008BE00E949818CF91DF910895DF93CF93F0
:1032E000CDB7DEB781E062E040E30E94210E8CE0C2
:1032F0000E949818CF91DF910895DF93CF93CDB7B7
:10330000DEB787E390E027E330E0F90120812F79F1
:10331000FC01208388E390E028E330E0F90120817C
:103320002066FC012083CF91DF910895DF93CF9336
:10333000CDB7DEB786E390E0FC0180818072CF914B
:10334000DF910895DF93CF93CDB7DEB786E390E0AA
:10335000FC0180818074CF91DF910895DF93CF933A
:1033600000D0CDB7DEB778940E94F9248091340163
:10337000909135010E9452250E941F0D0E94DB246E
:103380000E94C2030E94742A0E94EC290E94D90A5A
:103390000E947D191A82198207C00E94BF05898187
:1033A0009A8101969A83898389819A8121E0843F59
:1033B000920798F3109238010BC00E94BF058091CC
:1033C000DE04882329F01092DE0480E00E94041CB1
:1033D0008091C104882389F70E94A9250E94D806FC
:1033E00001C000000E94BF058091DE048823C9F35C
:1033F0008091F1049091F204A091F304B091F4044F
:103400000097A105B10599F08091F1049091F20423
:10341000A091F304B091F4040197A109B10980933C
:10342000F1049093F204A093F304B093F404809118
:10343000DA049091DB04A091DC04B091DD040097E4
:10344000A105B10599F08091DA049091DB04A09177
:10345000DC04B091DD040197A109B1098093DA047D
:103460009093DB04A093DC04B093DD048091EB0423
:103470009091EC04A091ED04B091EE040097A105A9
:10348000B10599F08091EB049091EC04A091ED04CA
:10349000B091EE040197A109B1098093EB049093D8
:1034A000EC04A093ED04B093EE041092DE040E94AD
:1034B000B6258091BC04882311F00E946A0C80918B
:1034C000C004882321F40E94A6240E9469218091CF
:1034D000350182958695869583708170982F81E05D
:1034E0008927817081708295880F880F807C9091E8
:1034F00035019F7B892B8093350180913401909118
:1035000035010E9452256ECFDF93CF930F92CDB736
:10351000DEB70E94EE0D80E00E94A50E8091D802D9
:103520009091D902FC01828193810E94450F1982FA
:1035300055C02091D8023091D9028981882F90E01E
:10354000880F991F820F931F0596FC01808191813E
:10355000009709F43FC08091D8029091D902FC01F4
:10356000948189819817E9F40E94CF0E89818E5F3A
:103570000E94A50E2091D8023091D9028981882F0E
:1035800090E0880F991F820F931F0596FC018081A0
:103590009181FC01828193810E94450F0E94D90E86
:1035A0001AC089818E5F0E94A50E2091D8023091A9
:1035B000D9028981882F90E0880F991F820F931F6D
:1035C0000596FC0180819181FC01828193810E949A
:1035D000450F01C0000089818F5F89838981853013
:1035E00008F4A7CF0F90CF91DF910895DF93CF9389
:1035F0000F92CDB7DEB78091C404882321F082E01A
:103600000E94041C32C08091D8029091D902FC0122
:1036100024812F5FFC012483FC0184818983209114
:10362000D8023091D9028981882F90E0880F991FA4
:10363000820F931F0596FC0180819181009731F4E0
:103640008091D8029091D902FC01148200D08DB7EC
:103650009EB701962AED32E0FC01318320830E945F
:10366000CF2D0F900F900E94841A0F90CF91DF9171
:103670000895DF93CF9300D0CDB7DEB78091C40417
:10368000882321F081E00E94041C44C08091D8026C
:103690009091D902FC0184818A838A810E94A52AA3
:1036A0008A81882369F5198227C02091D802309138
:1036B000D9028981882F90E0880F991F820F931F6C
:1036C0000596FC0180819181009799F48091D80240
:1036D0009091D90229812150FC0124838091D80244
:1036E0009091D902FC0184810E94A52A0E94841A2B
:1036F00011C089818F5F898389818530B0F20AC0CA
:103700008091D8029091D9022A812150FC01248312
:103710000E94841A0F900F90CF91DF910895DF934C
:10372000CF93CDB7DEB78091C404882321F084E025
:103730000E94041C21C08091D8029091D902FC0102
:1037400080819181009771F08091D8029091D90287
:10375000FC01808191819093D9028093D8020E94CC
:10376000841A0AC01092C0040E94EE0D0E946921C2
:103770000E943B240E94A624CF91DF910895DF93FD
:10378000CF930F92CDB7DEB78091C404882321F088
:1037900083E00E94041C34C08091D8029091D90229
:1037A000FC01848189832091D8023091D9028981DA
:1037B000882F90E0880F991F820F931F0596FC01B8
:1037C00080819181FC01858196810097B1F02091E3
:1037D000D8023091D9028981882F90E0880F991FF3
:1037E000820F931F0596FC01808191819093D902ED
:1037F0008093D8020E94841A03C080E00E94041CB7
:103800000F90CF91DF910895EF92FF920F931F9346
:10381000DF93CF930F92CDB7DEB789838091D80223
:103820009091D902FC012281338100D000D08DB764
:103830009EB701964EED52E0FC0151834083FC019E
:10384000338322830E94CF2D0F900F900F900F9003
:103850008981282F30E000D000D08DB79EB7019627
:1038600044EE52E0FC0151834083FC013383228308
:103870000E94CF2D0F900F900F900F908091D80243
:103880009091D902F2E0873C9F0709F048C28981F4
:10389000843049F41092C1041092C4040E94EE0DC9
:1038A0001092C00466C48091C404882F90E08230D6
:1038B000910509F49EC0833091053CF4009791F086
:1038C0008130910509F443C054C48430910509F452
:1038D0005DC1843091050CF404C18530910509F473
:1038E000A9C147C48CEE92E00E94E42D81E0809350
:1038F000C0040E94EE0D80E00E94A50E80EF92E0D1
:103900000E94450F81E00E94A50E86E093E00E9490
:10391000450F86E00E94A50E87E193E00E94450FC7
:1039200087E00E94A50E8FE293E00E94450F80E0A1
:1039300063E048E20E94210E0E9453280E949A28C8
:1039400081E08093C40481E08093C10412C488E3C1
:1039500093E00E94E42D80E063E048E20E94210EA3
:103960000E9453280E949A288981833009F0F2C36B
:1039700080917E0490917F04CC01A0E0B0E0BC0176
:10398000CD010E940A2CDC01CB018093C5049093E9
:10399000C604A093C704B093C8040E945328909310
:1039A000C3048093C2040E94EE0D80E00E94A50E25
:1039B00080EF92E00E94450F86E00E94A50E8CE306
:1039C00093E00E94450F87E00E94A50E84E593E0F6
:1039D0000E94450F80E063E048E20E94210E809142
:1039E000C2049091C3040E949A2882E08093C40488
:1039F000C0C38981882F90E082309105E1F0833047
:103A0000910571F18130910509F0A6C38091C2043E
:103A10009091C30401969093C3048093C20480E004
:103A200063E048E20E94210E8091C2049091C30499
:103A30000E949A2855C08091C2049091C3040197B6
:103A40009093C3048093C20480E063E048E20E9444
:103A5000210E8091C2049091C3040E949A2840C014
:103A60008091C2049091C304CC01A0E0B0E0BC01FD
:103A7000CD010E940A2CDC01CB018093C9049093F4
:103A8000CA04A093CB04B093CC040E94EE0D80E056
:103A90000E94A50E80EF92E00E94450F81E00E94F7
:103AA000A50E87E693E00E94450F86E00E94A50ED2
:103AB00087E193E00E94450F87E00E94A50E8FE208
:103AC00093E00E94450F80E063E048E20E94210EEF
:103AD0000E9453280E949A2883E08093C404000027
:103AE00048C380E063E048E20E94210E0E94532810
:103AF0000E949A288981833009F030C380917E0426
:103B000090917F04CC01A0E0B0E0BC01CD010E9407
:103B10000A2CDC01CB018093CD049093CE04A093BA
:103B2000CF04B093D0040E9453289093C304809391
:103B3000C2040E94EE0D80E00E94A50E80EF92E08C
:103B40000E94450F81E00E94A50E87E693E00E9447
:103B5000450F86E00E94A50E8CE393E00E94450F7E
:103B600087E00E94A50E84E593E00E94450F80E067
:103B700063E048E20E94210E8091C2049091C30448
:103B80000E949A2884E08093C404F3C28981882F1C
:103B900090E082309105E1F08330910571F1813040
:103BA000910509F0DDC28091C2049091C304019691
:103BB0009093C3048093C20480E063E048E20E94D3
:103BC000210E8091C2049091C3040E949A2830C0B3
:103BD0008091C2049091C30401979093C304809391
:103BE000C20480E063E048E20E94210E8091C2049A
:103BF0009091C3040E949A281BC08091C2049091A6
:103C0000C304CC01A0E0B0E0BC01CD010E940A2CAD
:103C1000DC01CB018093D1049093D204A093D30410
:103C2000B093D4040E94EE0D85E08093C40400009C
:103C300000009FC28091D1049091D204A091D3043E
:103C4000B091D4042091C9043091CA044091CB04AE
:103C50005091CC04BC01CD010E940D2BDC01CB01A5
:103C60007C018D018091CD049091CE04A091CF0470
:103C7000B091D0042091C5043091C6044091C7048E
:103C80005091C804BC01CD010E940D2BDC01CB0179
:103C90009C01AD01C801B7010E94762BDC01CB016C
:103CA0008093840490938504A0938604B093870442
:103CB000E090C904F090CA040091CB041091CC04A8
:103CC0008091840490918504A0918604B09187042A
:103CD0002091C5043091C6044091C7045091C80496
:103CE000BC01CD010E94C02CDC01CB019C01AD01C7
:103CF000C801B7010E940D2BDC01CB018093800429
:103D000090938104A0938204B09383041092C10421
:103D10000E94EE0D1092C0041092C4042AC2809139
:103D2000D8029091D90222E08338920709F580E900
:103D30009AE0ABE0B0E08093BA009093BB00A09310
:103D4000BC00B093BD001092C00480EA92E0909352
:103D5000D9028093D8020E94EE0D0E9469210E9430
:103D60003B240E94A62489E793E00E94E42D01C22F
:103D70008091D8029091D902E2E080349E0709F048
:103D800060C08091D8029091D902FC01848188237F
:103D9000A9F41092C0041092BA0480EA92E09093C1
:103DA000D9028093D8020E94B00B0E94EE0D0E94AF
:103DB00069210E943B240E94A6241DC08091D80244
:103DC0009091D902FC0184818130A9F481E0809333
:103DD000BA041092C00480EA92E09093D9028093D2
:103DE000D8020E94B00B0E94EE0D0E9469210E9431
:103DF0003B240E94A62480919400813089F480E0C5
:103E000063E041E20E94210E81E30E94E20E80E025
:103E100064E04EE10E94210E80E20E94E20EA9C100
:103E200080E063E041E20E94210E80E20E94E20E07
:103E300080E064E04EE10E94210E82E30E94E20EE7
:103E400098C18091D8029091D902F2E08B359F07FA
:103E500009F08FC18091D8029091D902FC01848130
:103E6000813009F0AFC08091C404882F90E00097A2
:103E700029F08130910509F441C07BC10E94EE0D0B
:103E800080E00E94A50E8091D8029091D902FC0199
:103E900087819085FC01828193810E94450F86E095
:103EA0000E94A50E8CE393E00E94450F87E00E94DC
:103EB000A50E8BE893E00E94450F81E063E045E0AA
:103EC0000E94210E00D08DB79EB7019620EA33E004
:103ED000FC01318320830E944E110F900F9080E0EF
:103EE00063E048E20E94210E8091BE009091BF00E5
:103EF0000E94C12081E08093C4043BC18981882F46
:103F000090E08230910581F18330910524F4813075
:103F1000910551F02EC18330910509F444C08430DD
:103F2000910509F448C025C18091BE009091BF0061
:103F3000F8E380349F0708F015C18091BE0090918E
:103F4000BF0006969093BF008093BE0080E063E0C0
:103F500048E20E94210E1092B7048091BE00909119
:103F6000BF000E94C12005C18091BE009091BF009A
:103F70008C33910508F4F8C08091BE009091BF0089
:103F80000A979093BF008093BE0080E063E048E210
:103F90000E94210E1092B7048091BE009091BF0044
:103FA0000E94C120E6C00E941E0C1092C4040E9410
:103FB000841A0000DEC00E94360C1092C4040E94D5
:103FC000841AD7C08091D8029091D902FC018481D3
:103FD000823009F0CEC08091C404882F90E0009711
:103FE00029F08130910509F44CC0C3C00E94EE0D48
:103FF00080E00E94A50E8091D8029091D902FC0128
:1040000087819085FC01828193810E94450F86E023
:104010000E94A50E8CE393E00E94450F87E00E946A
:10402000A50E87EA93E00E94450F81E067E044E136
:104030000E94210E8091BE009091BF000E94C1207D
:1040400081E063E045E00E94210E00D08DB79EB76D
:10405000019620EA33E0FC01318320830E944E1157
:104060000F900F9080E063E048E20E94210E809163
:10407000C0009091C1000E94C12081E08093C404DF
:1040800078C08981882F90E082309105B1F183302A
:10409000910524F48130910551F06BC08330910576
:1040A00009F449C08430910509F44CC062C0809184
:1040B000BE009091BF009C01265030408091C0000E
:1040C0009091C1008217930708F050C08091C00002
:1040D0009091C10006969093C1008093C00080E04B
:1040E00063E048E20E94210E1092B7048091C00064
:1040F0009091C1000E94C1203CC08091C00090916D
:10410000C1008C339105A0F18091C0009091C10055
:104110000A979093C1008093C00080E063E048E27A
:104120000E94210E1092B7048091C0009091C100AE
:104130000E94C1201EC00E94060C1092C4040E945E
:10414000841A17C00E94500C1092C4040E94841A52
:1041500000000FC000000DC000000BC0000009C02F
:10416000000007C0000005C0000003C0000001C03F
:1041700000000F90CF91DF911F910F91FF90EF9072
:104180000895DF93CF9300D000D0CDB7DEB79C83E6
:104190008B838B819C8120E13EE0B9010E944E2DF2
:1041A0009B01C90189838981482F50E020E13EE0CD
:1041B000429FC001439F900D529F900D11242B816F
:1041C0003C81A901481B590BCA019C838B838B81BD
:1041D0009C812CE330E0B9010E944E2D9B01C90166
:1041E0008A8389818823B9F48981282F30E000D01F
:1041F00000D08DB79EB7019645EB53E0FC0151838B
:104200004083FC01338322830E944E110F900F9054
:104210000F900F9016C08981282F30E000D000D079
:104220008DB79EB7019647EB53E0FC015183408365
:10423000FC01338322830E944E110F900F900F9048
:104240000F908A81882371F400D08DB79EB70196B4
:104250002AEB33E0FC01318320830E944E110F9042
:104260000F9030C08A818A30B8F48A81282F30E0DC
:1042700000D000D08DB79EB701964EEB53E0FC0105
:1042800051834083FC01338322830E944E110F909F
:104290000F900F900F9016C08A81282F30E000D029
:1042A00000D08DB79EB7019643EC53E0FC015183DB
:1042B0004083FC01338322830E944E110F900F90A4
:1042C0000F900F900F900F900F900F90CF91DF9164
:1042D0000895DF93CF93CDB7DEB72A970FB6F89442
:1042E000DEBF0FBECDBF80E067E04AE00E94210E36
:1042F0000E9453280E949A288091BA009091BB0096
:10430000A091BC00B091BD0081312EE0920720E069
:10431000A20720E0B20708F44CC08091D504823097
:1043200099F48091BA009091BB00A091BC00B0912B
:10433000BD000197A109B1098093BA009093BB0019
:10434000A093BC00B093BD0081E067E044E10E940F
:10435000210E8091BA009091BB00A091BC00B09159
:10436000BD0020E13EE040E050E0BC01CD010E94F4
:10437000622DDA01C90100D000D000D02DB73EB7C0
:104380002F5F3F4F47EC53E0F90151834083F90120
:1043900082839383A483B5830E944E118DB79EB709
:1043A00006960FB6F8949EBF0FBE8DBF0E94BE0B3F
:1043B00017C081E067E044E10E94210E00D08DB774
:1043C0009EB701962FEC33E0FC01318320830E94DD
:1043D0004E110F900F908091BC0484608093BC04B8
:1043E0008091A600882309F010C28091BA04813020
:1043F00009F01EC10E940909DC01CB018B839C835B
:10440000AD83BE838B819C81AD81BE818931F7E410
:104410009F07F0E0AF07F0E0BF0740F088E197E4C6
:10442000A0E0B0E08B839C83AD83BE838B819C81B5
:10443000AD81BE8184369105A105B105B0F584E654
:1044400090E0A0E0B0E08B839C83AD83BE8380E0EE
:1044500062E04AE20E94210E80E190E00E949818FA
:1044600080E062E04CE30E94210E8EE090E00E942A
:10447000981881E062E04CE00E94210E80E090E01C
:104480000E94981881E062E04CE10E94210E8AE0CF
:1044900090E00E94981881E062E040E20E94210EC4
:1044A00081E090E00E949818DDC181E062E04AE07E
:1044B0000E94210E8AE090E00E9498188B819C81D6
:1044C000AD81BE8120E137E240E050E0BC01CD018A
:1044D0000E94622DDA01C90189838B819C81AD81A3
:1044E000BE8120E137E240E050E0BC01CD010E94F6
:1044F000622DDC01CB018B839C83AD83BE838981DC
:10450000882359F080E062E04AE20E94210E89810E
:10451000882F90E00E94981809C080E062E04AE28B
:104520000E94210E80E190E00E9498188B819C816E
:10453000AD81BE8128EE33E040E050E0BC01CD010A
:104540000E94622DDA01C90189838B819C81AD8132
:10455000BE8128EE33E040E050E0BC01CD010E9476
:10456000622DDC01CB018B839C83AD83BE8380E015
:1045700062E04AE30E94210E8981882F90E00E9428
:1045800098188B819C81AD81BE8124E630E040E0AB
:1045900050E0BC01CD010E94622DDA01C90189837E
:1045A0008B819C81AD81BE8124E630E040E050E00B
:1045B000BC01CD010E94622DDC01CB018B839C8369
:1045C000AD83BE8381E062E040E10E94210E8981DB
:1045D000882F90E00E9498188B819C81AD81BE81CC
:1045E0002AE030E040E050E0BC01CD010E94622DA5
:1045F000DA01C90189838B819C81AD81BE812AE06A
:1046000030E040E050E0BC01CD010E94622DDC01B1
:10461000CB018B839C83AD83BE8381E062E040E26B
:104620000E94210E8981882F90E00E9498181AC15B
:104630000E94A20ADC01CB018F839887A987BA87E1
:104640008F819885A985BA8587339105A105B10524
:1046500040F487E390E0A0E0B0E08F839887A987DB
:10466000BA878F819885A985BA85803127E292071C
:1046700020E0A20720E0B20770F180E062E044E3AE
:104680000E94210E80E190E00E94981880E062E094
:1046900049E20E94210E80E190E00E94981881E09A
:1046A00062E041E00E94210E8DE090E00E949818A7
:1046B00081E062E040E10E94210E81E090E00E94F2
:1046C000981881E062E040E20E94210E80E090E0D4
:1046D0000E949818C7C080E062E04AE30E94210E61
:1046E0008AE090E00E9498188F819885A985BA8504
:1046F00028EE33E040E050E0BC01CD010E94622D85
:10470000DA01C9018A838F819885A985BA8528EE47
:1047100033E040E050E0BC01CD010E94622DDC019D
:10472000CB018F839887A987BA8780E062E049E24E
:104730000E94210E8A81882F90E00E9498188F8114
:104740009885A985BA8524E630E040E050E0BC01B8
:10475000CD010E94622DDA01C9018A838F8198857B
:10476000A985BA8524E630E040E050E0BC01CD01E7
:104770000E94622DDC01CB018F839887A987BA87BD
:1047800081E062E040E00E94210E8A81882F90E063
:104790000E9498188F819885A985BA852AE030E013
:1047A00040E050E0BC01CD010E94622DDA01C90158
:1047B0008A838F819885A985BA852AE030E040E018
:1047C00050E0BC01CD010E94622DDC01CB018F8342
:1047D0009887A987BA8781E062E040E10E94210EB4
:1047E0008A81882F90E00E9498188F819885A985EA
:1047F000BA858A8381E062E040E20E94210E8A81CC
:10480000882F90E00E9498182DC081E062E040E27D
:104810000E94210E8FE090E00E94981881E062E0F3
:1048200040E10E94210E8FE090E00E94981881E004
:1048300062E040E00E94210E8FE090E00E94981814
:1048400080E062E042E30E94210E80E190E00E945D
:10485000981880E062E047E20E94210E80E190E03B
:104860000E9498182A960FB6F894DEBF0FBECDBFEF
:10487000CF91DF910895DF93CF93CDB7DEB78091CD
:10488000D504882F90E083309105A9F184309105FB
:104890004CF481309105F9F08230910524F50097B0
:1048A00091F051C086309105B1F18730910524F423
:1048B0008430910541F147C087309105A1F18830DE
:1048C0009105C9F140C080E00E94A50E8DE491E001
:1048D0000E94450F38C080E00E94A50E87E591E058
:1048E0000E94450F30C080E00E94A50E83E491E055
:1048F0000E94450F28C080E00E94A50E81E691E04D
:104900000E94450F20C080E00E94A50E8BE691E03A
:104910000E94450F18C080E00E94A50E87E591E037
:104920000E94450F10C080E00E94A50E87E591E02F
:104930000E94450F08C080E00E94A50E83E991E027
:104940000E94450F0000CF91DF910895DF93CF9330
:10495000CDB7DEB70E94A219882351F081E060E054
:1049600041E10E94210E8FE791E00E94450F17C0A0
:104970008091D504863051F481E060E041E10E94ED
:10498000210E85E791E00E94450F09C081E060E0BB
:1049900041E10E94210E89E891E00E94450F80913B
:1049A000BA04882319F00E946E1902C00E945F1990
:1049B000CF91DF910895DF93CF93CDB7DEB783E535
:1049C00090E023E530E0F90120812967FC01208394
:1049D00087E390E027E330E0F90120812860FC01C3
:1049E00020838CE590E025E9FC012083CF91DF91C5
:1049F0000895DF93CF93CDB7DEB781E390E021E355
:104A000030E0F9012081206EFC01208380E090E0FD
:104A10000E945225CF91DF910895DF93CF93CDB7B8
:104A2000DEB782E390E022E330E0F90120812064E8
:104A3000FC01208382E390E022E330E0F901208151
:104A40002F7BFC012083CF91DF9108951F93DF938B
:104A5000CF9300D0CDB7DEB782E390E022E330E021
:104A6000F90120812068FC01208381E0898389810C
:104A7000182F1A95F1F7198382E390E022E330E0D2
:104A8000F90120812F77FC01208381E08A838A81CC
:104A9000182F1A95F1F71A830F900F90CF91DF918D
:104AA0001F910895DF93CF9300D00F92CDB7DEB75B
:104AB0009B838A83198222C08A819B81992354F423
:104AC00082E390E022E330E0F90120812062FC01E2
:104AD000208309C082E390E022E330E0F9012081E5
:104AE0002F7DFC0120830E940D258A819B81880FE8
:104AF000991F9B838A8389818F5F89838981803114
:104B0000D8F20E9426250F900F900F90CF91DF9141
:104B10000895DF93CF93CDB7DEB7809134018F7DB9
:104B200080933401809135018F7780933501809196
:104B300034018F7E80933401809134018F7B809388
:104B40003401809134018F7780933401CF91DF91CC
:104B50000895DF93CF93CDB7DEB70E94EE0D10928C
:104B6000D5040E943B24CF91DF910895DF93CF932A
:104B7000CDB7DEB78091D504882F90E084309105C1
:104B800009F431C18530910584F48130910511F12A
:104B9000823091050CF429C18230910509F44BC093
:104BA0008330910509F48AC02DC18730910509F43D
:104BB000B9C0883091052CF48630910509F49FC066
:104BC00021C18830910509F4E2C08930910509F4CA
:104BD000F0C018C10E94A2190097E9F02091BE0010
:104BE0003091BF008091C0009091C100A901481B85
:104BF000590BCA01CC01A0E0B0E08093F10490937E
:104C0000F204A093F304B093F40487E08093D504F6
:104C10000E940527F7C00E949619009731F086E0A0
:104C20008093D5040E940527EDC082E08093D504CF
:104C30000E940527E7C00E94A2190097A9F0809161
:104C4000D8039091D903CC01A0E0B0E08093DA04BE
:104C50009093DB04A093DC04B093DD0489E080939F
:104C6000D5040E94052709C00E949619009729F0D3
:104C700086E08093D5040E9405278091F1049091ED
:104C8000F204A091F304B091F4040097A105B105DA
:104C900029F483E08093D5040E9405278091EB04DA
:104CA0009091EC04A091ED04B091EE040097A10561
:104CB000B10509F09CC00E94EF0CA4C08091F104E2
:104CC0009091F204A091F304B091F4040097A1052F
:104CD000B10529F481E08093D5040E9405278091D5
:104CE000EB049091EC04A091ED04B091EE040097D8
:104CF000A105B10509F07DC00E94EF0C83C08AEDCB
:104D000093E00E94E42D0E949619009709F073C069
:104D100084EF93E00E94E42D82E08093D5040E940A
:104D2000052770C00E94A219009791F48091DA04BF
:104D30009091DB04A091DC04B091DD040097A10503
:104D4000B10591F482E08093D5040E9405270CC040
:104D50008AE090E0A0E0B0E08093DA049093DB0476
:104D6000A093DC04B093DD048091F1049091F204EF
:104D7000A091F304B091F4040097A105B10509F0E6
:104D80003CC083E08093D5040E9405273BC08091FE
:104D9000F1049091F204A091F304B091F40400970F
:104DA000A105B10561F581E08093D5040E94052736
:104DB00029C08091DA049091DB04A091DC04B091C9
:104DC000DD040097A105B105E1F40E94A219009746
:104DD00021F087E08093D50403C082E08093D5045E
:104DE0000E9405270FC000000DC000000BC000008E
:104DF00009C0000007C0000005C0000003C000009B
:104E000001C00000CF91DF910895DF93CF93CDB71C
:104E1000DEB78091D504282F30E000D000D08DB7C8
:104E20009EB7019640E154E0FC0151834083FC01B0
:104E3000338322830E94CF2D0F900F900F900F90FD
:104E40008091D504882F90E08430910509F4C6C084
:104E5000853091058CF48130910521F182309105E6
:104E60001CF40097D1F0F3C08230910581F18330BA
:104E7000910509F484C0EBC08730910509F4C9C0DD
:104E8000883091052CF48630910509F4B8C0DFC054
:104E90008830910509F4C2C0DAC00E9489250E94B9
:104EA0003B24D5C01092F1041092F2041092F30446
:104EB0001092F4041092DA041092DB041092DC04D5
:104EC0001092DD040E943B240E948925C0C00E94EC
:104ED000A219009731F087E08093D5040E9405273E
:104EE000B6C00E949619009751F08BE194E00E94A1
:104EF000E42D86E08093D5040E940527A8C00E9477
:104F0000BE082091BE003091BF008091C0009091FA
:104F1000C100A901481B590BCA01CC01A0E0B0E0B7
:104F20008093F1049093F204A093F304B093F404FB
:104F30000E948925809134018061809334018091A1
:104F400034018062809334018091340188608093C1
:104F500034010E943B248091D6039091D703CC0169
:104F6000A0E0B0E08093EB049093EC04A093ED04F8
:104F7000B093EE0485E394E00E94E42D68C00E94A3
:104F800089080E94892580913401806480933401CE
:104F9000809134018160809334010E943B24809190
:104FA000C0009091C100CC01A0E0B0E08093F1047A
:104FB0009093F204A093F304B093F4048091D60389
:104FC0009091D703CC01A0E0B0E08093EB049093E4
:104FD000EC04A093ED04B093EE0439C00E9489085C
:104FE0000E948925809134018064809334018091EE
:104FF00035018068809335010E943B2428C00E94BF
:105000008925809134018061809334010E943B2482
:105010001EC00E9489250E943B2419C00E94892538
:10502000809134018F77809334010E943B248091DA
:10503000EF049091F004CC01A0E0B0E08093F10483
:105040009093F204A093F304B093F4040000CF9182
:10505000DF910895DF93CF9300D0CDB7DEB79A8369
:10506000898389819A81FC01808191810F900F90C1
:10507000CF91DF910895DF93CF9300D000D0CDB7CB
:10508000DEB79A8389837C836B8389819A812B81A4
:105090003C81FC01318320830F900F900F900F9083
:1050A000CF91DF910895DF93CF9300D0CDB7DEB7D6
:1050B00080917E0490917F04CC01A0E0B0E0BC011F
:1050C000CD010E940A2CDC01CB0120918404309197
:1050D00085044091860450918704BC01CD010E9453
:1050E000C02CDC01CB0120918004309181044091DF
:1050F000820450918304BC01CD010E940E2BDC017F
:10510000CB01BC01CD010E94DE2BDC01CB019A83D7
:10511000898389819A8122E08F3E920720F08AEF6D
:1051200090E09A83898389819A810F900F90CF9123
:10513000DF910895DF93CF93CDB7DEB727970FB6F2
:10514000F894DEBF0FBECDBF9F838E838E819F817B
:10515000CC01A0E0B0E02DB73EB72A5030400FB6EA
:10516000F8943EBF0FBE2DBF2DB73EB72F5F3F4F08
:10517000AE014F5F5F4FF9015183408345E050E03E
:10518000F9015383428348E854E0F901558344838D
:10519000F90186839783A087B1870E94192E2DB7C6
:1051A0003EB7265F3F4F0FB6F8943EBF0FBE2DBFF0
:1051B0008E819F818436910580F18981682F70E00E
:1051C0008A81482F50E08B81282F30E08DB79EB721
:1051D00008970FB6F8949EBF0FBE8DBF8DB79EB7D0
:1051E0000196ECE8F4E0DC01ED93FC93FC017383A1
:1051F0006283DC0115965C934E931497FC01378310
:1052000026830E944E112DB73EB7285F3F4F0FB641
:10521000F8943EBF0FBE2DBF3FC08E819F818A3064
:10522000910520F18981482F50E08A81282F30E0B4
:1052300000D000D000D08DB79EB7019669E974E028
:10524000DC016D937C93FC0153834283DC01159652
:105250003C932E9314970E944E11EDB7FEB73696ED
:105260000FB6F894FEBF0FBEEDBF16C08981282F80
:1052700030E000D000D08DB79EB7019645EA54E0EB
:10528000DC014D935C93FC01338322830E944E1119
:105290000F900F900F900F9027960FB6F894DEBFE7
:1052A0000FBECDBFCF91DF9108950F931F93DF9372
:1052B000CF93CDB7DEB72A970FB6F894DEBF0FBEF7
:1052C000CDBF0E9453289A83898389819A8121E0E6
:1052D000853F920720F084EF91E09A83898389814A
:1052E0009A81009711F41A82198289819A8122E3A6
:1052F00030E0B9010E944E2D9B01C9018B83898149
:105300009A8122E330E0B9010E944E2D8C838B817B
:10531000882F90E0880F991F880F991F8E5A9B4FF6
:10532000FC0180819181A281B3819C018B81882FB6
:1053300090E00196880F991F880F991F8E5A9B4FF6
:10534000FC0180819181A281B381A901481B590B85
:10535000CA019E838D838B81882F90E0880F991FCF
:10536000880F991F8E5A9B4FFC0100811181228169
:1053700033818D819E8142E350E0BA010E944E2D1F
:10538000AB01BA018C81482F50E0649FC001659F3A
:10539000900D749F900D1124CC01A0E0B0E0B901F4
:1053A000A801481B590B6A0B7B0BDB01CA018F83D9
:1053B0009887A987BA878F819885A985BA85BC0106
:1053C000CD012A960FB6F894DEBF0FBECDBFCF91A8
:1053D000DF911F910F910895DF93CF93CDB7DEB783
:1053E00085E490E025E430E0F90120812F60FC01A4
:1053F000208383E490E023E430E0F90120812D67ED
:10540000FC01208389E590E029E530E0F901208165
:105410002068FC012083CF91DF9108951F920F92A5
:105420000FB60F9211248F939F93AF93BF93DF9387
:10543000CF93CDB7DEB78091DF048D3709F044C03C
:1054400081E08093DE048091D6049091D704A091EE
:10545000D804B091D9040097A105B10599F08091C5
:10546000D6049091D704A091D804B091D9040197A3
:10547000A109B1098093D6049093D704A093D804CE
:10548000B093D9048091DA049091DB04A091DC04FC
:10549000B091DD040097A105B10599F08091DA047F
:1054A0009091DB04A091DC04B091DD040197A10987
:1054B000B1098093DA049093DB04A093DC04B093E9
:1054C000DD041092DF0405C08091DF048F5F8093BC
:1054D000DF04CF91DF91BF91AF919F918F910F909A
:1054E0000FBE0F901F901895DF93CF93CDB7DEB707
:1054F00080E490E0FC01108289E290E027E6FC0164
:1055000020838AE290E02AE230E0F90120812861DC
:10551000FC0120838AE290E02AE230E0F901208158
:105520002068FC01208380E490E020E430E0F90171
:1055300020812668FC0120838EEC9AE260E070E016
:105540000E94842DCF91DF910895DF93CF930F9226
:10555000CDB7DEB7898300008BE290E0FC0180814B
:10556000882F90E0807290700097B1F38CE290E009
:105570002981FC0120830F90CF91DF910895DF9363
:10558000CF93CDB7DEB78BE290E0FC0180818CE257
:1055900090E0FC018081CF91DF910895DF93CF935C
:1055A00000D00F92CDB7DEB789837B836A8300007A
:1055B0008BE290E0FC018081882F90E080729070F7
:1055C0000097B1F38CE290E02981FC01208380E018
:1055D00090E00F900F900F90CF91DF9108951F9260
:1055E0000F920FB60F9211248F939F93EF93FF9317
:1055F000DF93CF93CDB7DEB78CE290E0FC018081E2
:1056000080933601CF91DF91FF91EF919F918F9120
:105610000F900FBE0F901F9018955058BB27AA27C8
:105620000ED070C161D130F066D120F031F49F3FCF
:1056300011F41EF456C10EF4E095E7FB4CC1E92FBE
:1056400072D180F3BA17620773078407950718F0C1
:1056500071F49EF58AC10EF4E0950B2EBA2FA02DA1
:105660000B01B90190010C01CA01A0011124FF270F
:10567000591B99F0593F50F4503E68F11A16F0400A
:10568000A22F232F342F4427585FF3CF4695379509
:105690002795A795F0405395C9F77EF41F16BA0BCE
:1056A000620B730B840BBAF09150A1F0FF0FBB1F7C
:1056B000661F771F881FC2F70EC0BA0F621F731FC5
:1056C000841F48F4879577956795B795F7959E3F22
:1056D00008F0B3CF9395880F08F09927EE0F9795B0
:1056E00087950895D4D008F481E008950CD00AC1BC
:1056F00002D140F0F9D030F021F45F3F19F0EBC057
:10570000511134C1EEC00FD198F39923C9F3552339
:10571000B1F3951B550BBB27AA27621773078407A4
:1057200038F09F5F5F4F220F331F441FAA1FA9F35A
:1057300033D00E2E3AF0E0E830D091505040E6954C
:10574000001CCAF729D0FE2F27D0660F771F881FAD
:10575000BB1F261737074807AB07B0E809F0BB0B9C
:10576000802DBF01FF2793585F4F2AF09E3F5105C0
:1057700068F0B1C0FBC05F3FECF3983EDCF3869568
:1057800077956795B795F7959F5FC9F7880F911D36
:105790009695879597F90895E1E0660F771F881F22
:1057A000BB1F621773078407BA0720F0621B730BD5
:1057B000840BBA0BEE1F88F7E0950895BCD088F0F3
:1057C0009F5790F0B92F9927B751A0F0D1F0660FED
:1057D000771F881F991F1AF0BA95C9F712C0B13008
:1057E00081F0C3D0B1E00895C0C0672F782F88271B
:1057F000B85F39F0B93FCCF3869577956795B39547
:10580000D9F73EF490958095709561957F4F8F4FB5
:105810009F4F0895E89409C097FB3EF490958095BA
:10582000709561957F4F8F4F9F4F9923A9F0F92F66
:1058300096E9BB279395F695879577956795B795E4
:10584000F111F8CFFAF4BB0F11F460FF1BC06F5FCA
:105850007F4F8F4F9F4F16C0882311F096E911C0DC
:10586000772321F09EE8872F762F05C0662371F0FD
:1058700096E8862F70E060E02AF09A95660F771F11
:10588000881FDAF7880F9695879597F90895990FED
:105890000008550FAA0BE0E8FEEF16161706E807FA
:1058A000F907C0F012161306E407F50798F0621B1B
:1058B000730B840B950B39F40A2661F0232B242BF0
:1058C000252B21F408950A2609F4A140A6958FEF0F
:1058D000811D811D089597F99F6780E870E060E061
:1058E00008959FEF80EC089500240A941616170679
:1058F00018060906089500240A94121613061406C1
:1059000005060895092E0394000C11F4882352F023
:10591000BB0F40F4BF2B11F460FF04C06F5F7F4FDB
:105920008F4F9F4F089557FD9058440F551F59F0C2
:105930005F3F71F04795880F97FB991F61F09F3F7C
:1059400079F087950895121613061406551FF2CFA5
:105950004695F1DF08C0161617061806991FF1CFF5
:1059600086957105610508940895E894BB2766271C
:105970007727CB0197F908958ADF08F48FEF089510
:105980000BD0C0CFB1DF28F0B6DF18F0952309F0B7
:10599000A2CFA7CF1124EACFC6DFA0F3959FD1F302
:1059A000950F50E0551F629FF001729FBB27F00DCD
:1059B000B11D639FAA27F00DB11DAA1F649F662722
:1059C000B00DA11D661F829F2227B00DA11D621F71
:1059D000739FB00DA11D621F839FA00D611D221F2B
:1059E000749F3327A00D611D231F849F600D211D0F
:1059F000822F762F6A2F11249F5750408AF0E1F0B2
:105A000088234AF0EE0FFF1FBB1F661F771F881FFA
:105A100091505040A9F79E3F510570F05CCFA6CF42
:105A20005F3FECF3983EDCF3869577956795B795E5
:105A3000F795E7959F5FC1F7FE2B880F911D96950F
:105A4000879597F90895629FD001739FF001829F17
:105A5000E00DF11D649FE00DF11D929FF00D839FFD
:105A6000F00D749FF00D659FF00D9927729FB00D9A
:105A7000E11DF91F639FB00DE11DF91FBD01CF01AD
:105A800011240895991B79E004C0991F961708F016
:105A9000961B881F7A95C9F780950895AA1BBB1B92
:105AA00051E107C0AA1FBB1FA617B70710F0A61B1E
:105AB000B70B881F991F5A95A9F780959095BC013F
:105AC000CD010895A1E21A2EAA1BBB1BFD010DC03A
:105AD000AA1FBB1FEE1FFF1FA217B307E407F5079E
