:100000000C9486030C94DC070C9466070C94A303F1
:100010000C94CC2A0C94A3030C94A3030C94A30378
:100020000C94A3030C9451070C94A3030C94A30306
:100030000C94A3030C94AD2B0C94A3030C94A30376
:100040000C94E9030C94A3030C94A3030C94A30352
:100050000C94A3030000C0E0F0F838181838F8F04A
:10006000E0C0000000FFFFFFFF000000000000FFF5
:10007000FFFFFF0000071F3F7FF8E0C0C0E0F87FF0
:100080003F1F0700000000808080C0E0F8F8F8F80B
:10009000000000000000000101010101FFFFFFFF5F
:1000A000000000000000000000000000FFFFFFFF54
:1000B000000000000080E0F0F0783818181878F898
:1000C000F0E0C00000010101010080C0E0F0F87F15
:1000D0003F1F0F00E0F0F8FCFEDFCFC7C3C1C0C078
:1000E000C0C0C00000C0E0F0F83818181838F8F0A8
:1000F000E0C0000000000000000030303078FFFF5A
:10010000EFC78000000C3C7C7CF0E0C0C0E0F07FDA
:100110007F3F0F0000000000000000C0E0F8F8F88A
:10012000F80000000080E0F07C3E0F0701FFFFFFB9
:10013000FF000000070707070606060606FFFFFF89
:10014000FF0606060000F8F8F8F81818181818182E
:100150001800000000003F3F3F1F1C0C0C1C3CF827
:10016000F8F0C000000C3C7C7CF0E0C0C0E0F07F08
:100170007F3F0F0000C0E0F0F83818181838F8F08A
:10018000E0C0000000FFFFFFFF381C0C0C1C3CFC13
:10019000F8F0C00000071F3F7FF8E0C0C0E0F07F2C
:1001A0007F3F0F0000181818181818181818D8F8DA
:1001B000F8F8380000000000000000C0F8FEFF3F23
:1001C0000F0100000000000000F0FEFFFF0F010023
:1001D000000000000000C0F0F0F838181838F8F0FF
:1001E000F0C00000000083CFFFFF7C78787CFFFF29
:1001F000CF830000001F3F7F7FF0E0C0C0E0F07FB2
:100200007F3F1F000080E0F0F07838181838F8F0D1
:10021000E0C00000000F3F7FFFF0E0C0C0E070FFD3
:10022000FFFFFF0000183878F8E0C0C0E0F0FC7F66
:100230003F1F03000000000000000000000000005D
:1002400000E0E0E00000000000000000000000000E
:1002500000E0E0E0E0000000000000E0E0E0E0E0BE
:10026000E0E0E00000000000000000F0F8181818BE
:100270003830000000FE2020103E003173636363BD
:100280007F3E00000002728A8A8A0202FA0AFA0A93
:10029000FA0200000000F0204020F000E0301010D2
:1002A00030E0000000000700000017A045A7100084
:1002B000070500000000788484840100FC04F90430
:1002C000F800000000000000C0E0C0800000000056
:1002D0000000000000000000000103078FDEFCF8B2
:1002E0007020000000000000183C1E0F07030100F2
:1002F000000000000000000000000000000080C0BE
:10030000E0C00000000000002070F8FCDE8F070352
:1003100001000000000000000000000103070F1EA4
:100320003C18000000000000000000000000000079
:1003300000000000000000383838383838383838C5
:10034000383800000000000000000000000000003D
:10035000000000000000000000000000000000009D
:10036000000000000000000000000000000000008D
:10037000000000000000000000000000000000007D
:1003800000000000FFFFFFFFFF00FFFFFFFFFFFF78
:1003900000FFFFFFFFFFFF00FFFFFFFFFFFF00FF6A
:1003A000FFFFFFFFFF00FFFFFFFFFFFF00FFFFFF5B
:1003B000FFFFFF00FFFFFFFFFFFF00FFFFFFFFFF4B
:1003C000FF00FFFFFFFFFFFF00FFFFFFFFFFFF003A
:1003D000FFFFFFFFFFFF00FFFFFFFFFFFF00FFFF2B
:1003E000FFFFFFFF00FFFFFFFFFFFF00FFFFFFFF1B
:1003F000FFFF00FFFFFFFFFFFF00FFFFFFFFFFFF0B
:1004000000FFFFFFFFFFFF00FFFFFFFFFFFF00FFF9
:10041000FFFFFFFFFF00FFFFFFFFFFFF00FFFFFFEA
:10042000FFFFFF00FFFFFFFFFFFF00FFFFFFFFFFDA
:10043000FF00FFFFFFFFFFFF00FFFFFFFFFFFF00C9
:10044000FFFFFFFFFFFF00FFFFFFFFFFFF00FFFFBA
:10045000FFFFFFFF00FFFFFFFFFFFF00FFFFFFFFAA
:10046000FFFF00FF0000000000FFFF00004F000042
:1004700000FF000700070000FF147F147F1400FF37
:10048000242A7F2A1200FF231308646200FF3649E2
:1004900055222000FF000503000000FF001C224140
:1004A0000000FF0041221C0000FF14083E08140059
:1004B000FF08083E080800FF503000000000FF0859
:1004C0000808080800FF006060000000FF20100816
:1004D000040200FF3E5149453E00FF40427F40403C
:1004E00000FF426151494600FF2141454B3100FF69
:1004F0001814127F1000FF274545453900FF3C4A7C
:1005000049493000FF017109050300FF3649494997
:100510003600FF064949291E00FF0036360000005C
:10052000FF005636000000FF081422410000FF14AF
:100530001414141400FF004122140800FF0201519A
:10054000090600FF000002050200FF7E1111117E66
:1005500000FF7F4949493600FF3E4141412200FFEB
:100560007F4141221C00FF7F4949494100FF7F092B
:1005700009090100FF3E4149497A00FF7F08080848
:100580007F00FF00417F410000FF2040413F01000C
:10059000FF7F0814224100FF7F4040404000FF7F62
:1005A000020C027F00FF7F0408107F00FF3E4141E4
:1005B000413E00FF7F0909090600FF3E4151215ECF
:1005C00000FF7F0919294600FF264949493200FFEB
:1005D00001017F010100FF3F4040403F00FF1F201D
:1005E00040201F00FF3F4038403F00FF63140814C5
:1005F0006300FF070870080700FF61514945430089
:10060000FF007F41410000FF020408102000FF00AE
:1006100041417F0000FF040201020400FF4040400E
:10062000404000FF000003050000FF2054545478B0
:1006300000FF7F4444443800FF384444444400FFF2
:10064000384444447F00FF385454541800FF0404D5
:100650007E050500FF085454543C00FF7F08040445
:100660007800FF00447D4000FFFF2040443D00FF34
:10067000FF7F10284400FFFF417F4000FFFFFF7C09
:10068000047C047800FF7C0804047800FF384444AC
:10069000443800FF7C1414140800FF081414147C60
:1006A00000FF7C08040400FFFF485454542400FF5A
:1006B00004043F444400FF3C4040207C00FF1C20D9
:1006C00040201C00FF3C4030403C00FF44281028E4
:1006D0004400FF0C5050503C00FF4464544C440014
:1006E000FF083641410000FF000077000000FF00D6
:1006F0004141360800FF08082A1C0800FF081C2A90
:10070000080800FFFFFFFFFFFF00FF0011241FBECE
:10071000CFE5D8E0DEBFCDBF13E0A0E6B0E0E4E374
:10072000F6E602C005900D92A63AB107D9F713E09C
:10073000A6EAB3E001C01D92A23FB107E1F70E9413
:10074000311A0C9418330C940000DF93CF93CDB77B
:10075000DEB7F89481E0CF91DF910895DF93CF93D6
:1007600000D0CDB7DEB79A8389838FE590E02981E9
:100770003A81F9012081FC0120830F900F90CF91E5
:10078000DF910895DF93CF93CDB7DEB786E290E097
:1007900026E230E0F90120812760FC01208387E216
:1007A00090E020E4FC01208386E290E026E230E045
:1007B000F90120812868FC01208386E290E026E28E
:1007C00030E0F90120812064FC012083CF91DF918A
:1007D00008951F920F920FB60F921124EF92FF927D
:1007E0000F931F932F933F934F935F936F937F9339
:1007F0008F939F93AF93BF93EF93FF93DF93CF9329
:1008000000D000D0CDB7DEB78FE590E0FC0180814D
:100810008C830E94A5038B8313C084E290E0FC01CB
:100820008081282F30E085E290E0FC018081882FD4
:1008300090E0982F8827822B932B9A8389831B82A1
:100840008B81882351F7CE0104960E94AE0387E284
:1008500090E0FC018081882F90E08034910529F0A0
:100860008134910509F447C08CC087E290E021E40F
:10087000FC01208380916E0390916F03CC01A0E076
:10088000B0E0BC01CD010E94C82CDC01CB01BC0151
:10089000CD012DEC3CEC4CE45FE30E947E2DDC01AD
:1008A000CB017C018D0189819A81CC01A0E0B0E06F
:1008B000BC01CD010E94C82CDC01CB01BC01CD01E3
:1008C0002DEC3CEC4CE45EE30E947E2DDC01CB0180
:1008D0009C01AD01C801B7010E94CC2BDC01CB010A
:1008E000BC01CD010E949C2CDC01CB0190936F03D5
:1008F00080936E0346C087E290E020E4FC012083F1
:1009000080913C0390913D03CC01A0E0B0E0BC019C
:10091000CD010E94C82CDC01CB01BC01CD0120E03F
:1009200030E040E05FE30E947E2DDC01CB017C01E2
:100930008D0189819A81CC01A0E0B0E0BC01CD019C
:100940000E94C82CDC01CB01BC01CD0120E030E0CD
:1009500040E05FE30E947E2DDC01CB019C01AD01F4
:10096000C801B7010E94CC2BDC01CB01BC01CD0139
:100970000E949C2CDC01CB0190933D0380933C03AF
:10098000000086E290E026E230E0F9012081206458
:10099000FC0120832496DEBFCDBFCF91DF91FF9174
:1009A000EF91BF91AF919F918F917F916F915F91E7
:1009B0004F913F912F911F910F91FF90EF900F90CA
:1009C0000FBE0F901F901895DF93CF930F92CDB766
:1009D000DEB7898387E290E027E230E0F9012081E9
:1009E000322F307E29812F71232BFC01208386E258
:1009F00090E026E230E0F90120812064FC012083B0
:100A0000000086E290E0FC018081882F90E08071F8
:100A100090700097B1F386E290E026E230E0F901B1
:100A200020812061FC01208384E290E0FC01808130
:100A300091810F90CF91DF9108950F931F93DF93D2
:100A4000CF93CDB7DEB760970FB6F894DEBF0FBE79
:100A5000CDBF85E390E0FC0180818F8784E390E047
:100A6000FC018081888B87E390E027E330E0F90187
:100A700020812E7FFC01208388E390E028E330E092
:100A8000F90120812E7FFC01208384E390E0FC01AA
:100A9000108285E390E02FEFFC01208387E390E054
:100AA00027E330E0F90120812160FC01208388E305
:100AB00090E028E330E0F90120812E7FFC012083C3
:100AC00080E090E0A0E8BFE389839A83AB83BC8396
:100AD00069817A818B819C8120E030E04AE755E48E
:100AE0000E947E2DDC01CB018D839E83AF83B8876E
:100AF00011E06D817E818F81988520E030E040E8B3
:100B00005FE30E94302C88230CF010E0112329F0C1
:100B100081E090E09A87898746C011E06D817E81EF
:100B20008F81988520E03FEF4FE757E40E947A2DB0
:100B300018160CF010E0112361F169817A818B8124
:100B40009C8120E030E040E251E40E947E2DDC01F7
:100B5000CB01BC01CD010E949C2CDC01CB019A870A
:100B6000898712C080E991E09C878B878B859C8563
:100B70008C01C8010197F1F78C011C870B878985CF
:100B80009A8501979A87898789859A85009751F771
:100B900017C06D817E818F8198850E949C2CDC011D
:100BA000CB019A87898789859A859E878D878D85D0
:100BB0009E858C01F8013197F1F78F011E870D8713
:100BC00083E390E0FC01808180958093D30385E3EB
:100BD00090E02F85FC01208384E390E02889FC01CC
:100BE00020838091D30360960FB6F894DEBF0FBECA
:100BF000CDBFCF91DF911F910F910895DF93CF93D8
:100C000000D00F92CDB7DEB79A8389836B83898139
:100C10009A81FC0191818B819817D1F089819A8109
:100C2000FC0180818230A0F089819A812B81FC01B6
:100C3000218389819A81FC01108289819A81FC013A
:100C40008181882341F189819A81FC01818124C0BD
:100C500089819A81FC0191818B81981789F0898122
:100C60009A81FC018081823058F489819A81FC014B
:100C70008081282F2F5F89819A81FC0120830BC0FE
:100C800089819A81FC0191818B81981721F4898156
:100C90009A81FC01108280E00F900F900F90CF910D
:100CA000DF910895DF93CF930F92CDB7DEB719820E
:100CB0000E941D058093D3032091D30386EA93E01D
:100CC000622F0E94FE0589838981882F90E08430FD
:100CD000910509F462C0853091054CF4813091058D
:100CE00009F469C08230910509F45EC091C0803179
:100CF0009105C1F1813191052CF48830910509F4F9
:100D00003EC086C08032910599F08034910509F08B
:100D100070C08091C803882331F481E08093C803B8
:100D20000E94C22775C01092C8030E94C22770C0DB
:100D30008091B103882309F05EC08091C80384309C
:100D400031F481E08093C8030E94C22761C0809182
:100D5000C803882309F451C084E08093C8030E942B
:100D6000C22756C08091B103882319F00E94071C46
:100D70004FC081E08093B1030E94091B49C080915C
:100D8000C6008823E1F185E592E0909367028093A5
:100D9000660280E00E94821C3BC08091B1038823E0
:100DA00081F10E947B1B34C08091B103882359F1EB
:100DB0000E943D1C2DC08091B103882311F00E9438
:100DC000B11B8091B103882301F58091C803803263
:100DD00031F481E08093C8030E94C22719C080913A
:100DE000C8038823A1F080E28093C8030E94C22731
:100DF0000FC000000DC000000BC0000009C00000C3
:100E000007C0000005C0000003C0000001C00000D2
:100E10000F90CF91DF910895DF93CF93CDB7DEB7D9
:100E2000F89481E0CF91DF910895DF93CF9300D0C4
:100E3000CDB7DEB79A8389838FE590E029813A8127
:100E4000F9012081FC0120830F900F90CF91DF9159
:100E50000895DF93CF93CDB7DEB71092A903109218
:100E6000A8030E949A0885E590E025E530E0F901A5
:100E700020812A60FC0120838FE490E0FC01108235
:100E80008EE490E025E0FC01208389E590E029E5EF
:100E900030E0F90120812460FC012083CF91DF91B3
:100EA00008951F920F920FB60F9211248F93DF9324
:100EB000CF93CDB7DEB781E080938200CF91DF91F1
:100EC0008F910F900FBE0F901F9018951F920F9249
:100ED0000FB60F9211242F933F934F935F936F930D
:100EE0007F938F939F93AF93BF93EF93FF93DF9382
:100EF000CF9300D0CDB7DEB78FE590E0FC018081C5
:100F00008A830E940C07898330C08CE490E0FC0146
:100F1000808191819093D5038093D4038CE490E0F9
:100F2000FC01118210828091D4039091D5038D38F9
:100F3000910558F08091D4039091D503909374005B
:100F4000809373001092AB030FC08091AB038F5F4F
:100F50008093AB038091AB03853630F01092AB03E6
:100F6000109274001092730019828981882369F6A7
:100F7000CE0102960E941507109282008AE590E049
:100F80002AE530E0F90120812068FC0120830F90E0
:100F90000F90CF91DF91FF91EF91BF91AF919F9112
:100FA0008F917F916F915F914F913F912F910F9012
:100FB0000FBE0F901F9018951F920F920FB60F92B1
:100FC00011242F933F934F935F936F937F938F934E
:100FD0009F93AF93BF93EF93FF93DF93CF9300D093
:100FE000CDB7DEB78FE590E0FC0180818A830E9457
:100FF0000C0789832EC08CE490E0FC0180819181F4
:101000009093D5038093D4038CE490E0FC0111828B
:1010100010828091D4039091D5038D38910548F0CA
:101020008091D4039091D5039093720080937100C6
:101030000FC08091AB038F5F8093AB038091AB03B4
:10104000853630F01092AB0310927200109271004E
:1010500019828981882379F6CE0102960E941507AC
:101060001092820080E061E04AE00E94850E80914B
:10107000710090917200CC01A0E0B0E0BC01CD0104
:1010800046E00E94C80F8AE590E02AE530E0F901C9
:1010900020812064FC0120830F900F90CF91DF917D
:1010A000FF91EF91BF91AF919F918F917F916F9140
:1010B0005F914F913F912F910F900FBE0F901F9016
:1010C0001895DF93CF93CDB7DEB78BE590E02BE596
:1010D00030E0F90120812F77FC0120838BE590E03F
:1010E0002BE530E0F90120812064FC012083809110
:1010F0008400882319F487E080937900109284009B
:1011000081E0809370008091B103882381F480E0B6
:1011100063E041E20E94850E81E30E94460F80E079
:1011200064E04EE10E94850E80E20E94460FCF915E
:10113000DF910895DF93CF93CDB7DEB78BE590E0D5
:101140002BE530E0F90120812F7BFC0120838BE52A
:1011500090E02BE530E0F90120812068FC0120833C
:1011600080918300882319F487E08093790010929E
:101170008300109270008091B103882381F480E095
:1011800063E041E20E94850E80E20E94460F80E00B
:1011900064E04EE10E94850E82E30E94460FCF91EB
:1011A000DF910895EF92FF920F931F93DF93CF93F8
:1011B00000D000D0CDB7DEB780E090E0DC018983BD
:1011C0009A83AB83BC8380917000813009F0CBC0DF
:1011D00080E061E04AE00E94850E8091710090916C
:1011E0007200CC01A0E0B0E0BC01CD0146E00E945D
:1011F000C80F8091790061E0882309F060E0809158
:101200007100909172009C01329522952F702327D6
:101210003F702327409171005091720080917500BA
:1012200090917600FA01E81BF90BCF0199231CF489
:10123000909581959F4F41E02817390708F040E0CD
:10124000862F84238823B1F18091710090917200E0
:10125000CC01A0E0B0E0BC01CD010E94C82CDC01B3
:10126000CB0120916400309165004091660050915F
:101270006700BC01CD010E947E2DDC01CB012091D5
:101280006000309161004091620050916300BC01A8
:10129000CD010E94CC2BDC01CB0189839A83AB83E7
:1012A000BC8380917100909172009093760080933E
:1012B000750036C080917900882329F080917900EB
:1012C0008150809379008091750090917600CC01D7
:1012D000A0E0B0E0BC01CD010E94C82CDC01CB0134
:1012E0002091640030916500409166005091670044
:1012F000BC01CD010E947E2DDC01CB01209160005C
:10130000309161004091620050916300BC01CD01B9
:101310000E94CC2BDC01CB0189839A83AB83BC83F5
:1013200069817A818B819C8120E038E04EE856E427
:101330000E947E2DDC01CB017C018D010E94132ACD
:10134000DC01CB01BC01CD010E94C82C9B01AC018A
:10135000C801B7010E94342CDC01CB0189839A8338
:10136000AB83BC83A8C080E061E04AE00E94850EA8
:101370008091730090917400CC01A0E0B0E0BC01BA
:10138000CD0146E00E94C80F8091790061E088237A
:1013900009F060E080917300909174009C01329597
:1013A00022952F7023273F7023274091730050917F
:1013B00074008091770090917800FA01E81BF90B96
:1013C000CF0199231CF4909581959F4F41E02817F8
:1013D000390708F040E0862F84238823B1F18091FB
:1013E000730090917400CC01A0E0B0E0BC01CD018D
:1013F0000E94C82CDC01CB0120916C0030916D0063
:1014000040916E0050916F00BC01CD010E947E2D75
:10141000DC01CB01209168003091690040916A00A5
:1014200050916B00BC01CD010E94CC2BDC01CB01A3
:1014300089839A83AB83BC838091730090917400FD
:10144000909378008093770036C08091790088234C
:1014500029F0809179008150809379008091770004
:1014600090917800CC01A0E0B0E0BC01CD010E94D9
:10147000C82CDC01CB0120916C0030916D004091B3
:101480006E0050916F00BC01CD010E947E2DDC01E9
:10149000CB01209168003091690040916A00509121
:1014A0006B00BC01CD010E94CC2BDC01CB018983F8
:1014B0009A83AB83BC8369817A818B819C810E94F2
:1014C0009C2CDC01CB01BC01CD010F900F900F9043
:1014D0000F90CF91DF911F910F91FF90EF900895A2
:1014E000DF93CF9300D000D0CDB7DEB70E94D208F3
:1014F000DC01CB01BC01CD010E94C82CDC01CB0179
:1015000089839A83AB83BC8329813A814B815C8137
:1015100060E074E284E799E40E94342CDC01CB01A2
:1015200089839A83AB83BC8389819A81AB81BC8197
:10153000BC01CD010E949C2CDC01CB01BC01CD0182
:101540000F900F900F900F90CF91DF910895DF9340
:10155000CF93CDB7DEB780E090E00E94B33021E0BA
:101560008230920709F062C082E090E00E94A530CC
:101570008093AA0387E090E00E94AD30DC01CB01AC
:101580008093700390937103A0937203B0937303DD
:101590008BE090E00E94AD30DC01CB0180937403BE
:1015A00090937503A0937603B093770383E090E064
:1015B0000E94B330CC01A0E0B0E02CE330E040E08A
:1015C00050E0BC01CD010E94E12DDC01CB018093F4
:1015D000850090938600A0938700B093880085E0F3
:1015E00090E00E94A530482F50E02CE330E0429F6D
:1015F000C001439F900D529F900D112490938A003B
:101600008093890086E090E00E94A530482F50E04A
:101610002CE330E0429FC001439F900D529F900DFC
:10162000112490938C0080938B0002C00E941B0BAE
:10163000CF91DF910895DF93CF93CDB7DEB780E0F0
:1016400090E062E071E00E94CE3082E090E060E0E5
:101650000E94B9308091850090918600A09187000A
:10166000B09188002CE330E040E050E0BC01CD01B7
:101670000E94202EDA01C9019C0183E090E0B901AB
:101680000E94CE3087E090E040E050E0BA010E9436
:10169000C6308BE090E040E050E060E47FE30E94E1
:1016A000C63080918B0090918C002CE330E0B90122
:1016B0000E940C2E9B01C901282F85E090E0622F2B
:1016C0000E94B9308091890090918A002CE330E02B
:1016D000B9010E940C2E9B01C901282F86E090E0E1
:1016E000622F0E94B930CF91DF910895DF93CF939D
:1016F000CDB7DEB72091AA0382E090E0622F0E946E
:10170000B930CF91DF910895DF93CF9300D0CDB75B
:10171000DEB78091850090918600A0918700B091FE
:1017200088002CE330E040E050E0BC01CD010E9495
:10173000202EDA01C9019A83898383E090E0298110
:101740003A81B9010E94CE300F900F90CF91DF9176
:101750000895DF93CF93CDB7DEB72091700330911A
:101760007103409172035091730387E090E0BA01D6
:10177000A9010E94C63020917403309175034091F5
:101780007603509177038BE090E0BA01A9010E94A3
:10179000C63083E00E94090F809174039091750315
:1017A000A0917603B0917703BC01CD010E94501146
:1017B00084E00E94090F8091700390917103A091C1
:1017C0007203B0917303BC01CD010E945011CF91FF
:1017D000DF910895DF93CF93CDB7DEB780918B0073
:1017E00090918C002CE330E0B9010E940C2E9B01FB
:1017F000C901282F85E090E0622F0E94B930CF9177
:10180000DF910895DF93CF93CDB7DEB78091890044
:1018100090918A002CE330E0B9010E940C2E9B01CC
:10182000C901282F86E090E0622F0E94B930CF9145
:10183000DF910895DF93CF93CDB7DEB786E090E0D8
:101840000E94A530482F50E02CE330E0429FC001B9
:10185000439F900D529F900D112490938A00809386
:101860008900CF91DF910895DF93CF93CDB7DEB795
:1018700085E090E00E94A530482F50E02CE330E056
:10188000429FC001439F900D529F900D1124909351
:101890008C0080938B00CF91DF910895DF93CF93DD
:1018A000CDB7DEB787E090E00E94AD30DC01CB0120
:1018B0008093700390937103A0937203B0937303AA
:1018C0008BE090E00E94AD30DC01CB01809374038B
:1018D00090937503A0937603B0937703CF91DF9134
:1018E0000895DF93CF930F92CDB7DEB78091AE030B
:1018F0009091AF0301969093AF038093AE038091D4
:10190000AE039091AF03863091050CF43EC08091F8
:10191000B0038F5F8093B0038091B003898307C0C9
:1019200089818F5F89838981893008F0198280914C
:10193000AD03882F90E02981222F30E0022E02C0D3
:10194000959587950A94E2F781709070009741F31E
:1019500089818093B00381E090E00E94090F2DE817
:1019600030E08981882F90E0880F991FAC01440FE7
:10197000551F440F551F840F951F820F931F0E9400
:10198000A90F1092AF031092AE030F90CF91DF9189
:101990000895DF93CF9300D000D0CDB7DEB70E947B
:1019A000D208DC01CB0189839A83AB83BC83898114
:1019B0009A81AB81BC81803D27E0920720E0A2079D
:1019C00020E0B20778F480917000813031F480918A
:1019D000AD0382608093AD0305C08091AD0381604B
:1019E0008093AD030F900F900F900F90CF91DF91E8
:1019F00008950F931F93DF93CF93CDB7DEB76D9705
:101A00000FB6F894DEBF0FBECDBF8AE390E02AE3A5
:101A100030E0F9012081206FFC01208384E390E015
:101A2000FC01808184E390E02FEFFC01208387E3B9
:101A300090E027E330E0F90120812260FC0120835F
:101A40000E9402198FE30E94B1140E94E9188FE3EB
:101A50000E94B11480E090E0A0E2B1E48A839B830D
:101A6000AC83BD836A817B818C819D8120E030E0E5
:101A70004AE753E40E947E2DDC01CB018E839F83D5
:101A8000A887B98711E06E817F818885998520E0DC
:101A900030E040E85FE30E94302C88230CF010E037
:101AA000112329F081E090E09B878A8746C011E0EE
:101AB0006E817F818885998520E03FEF4FE757E46D
:101AC0000E947A2D18160CF010E0112361F16A8142
:101AD0007B818C819D8120E030E040E251E40E94D6
:101AE0007E2DDC01CB01BC01CD010E949C2CDC01D0
:101AF000CB019B878A8712C089E190E09D878C8704
:101B00008C859D858C01C8010197F1F78C011D879B
:101B10000C878A859B8501979B878A878A859B8509
:101B2000009751F717C06E817F81888599850E9443
:101B30009C2CDC01CB019B878A878A859B859F87AC
:101B40008E878E859F858C01F8013197F1F78F0183
:101B50001F870E870E94021980EC0E94B1140E9418
:101B6000E91880EC0E94B1140E94520E83E00E949A
:101B7000090F8BEA90E00E94A90F81E0898383C05E
:101B800080E090E0A0E2B1E4888B998BAA8BBB8BBC
:101B9000688979898A899B8920E030E04AE753E4A3
:101BA0000E947E2DDC01CB018C8B9D8BAE8BBF8B7D
:101BB00011E06C897D898E899F8920E030E040E8C2
:101BC0005FE30E94302C88230CF010E0112329F0F1
:101BD00081E090E0998F888F46C011E06C897D8903
:101BE0008E899F8920E03FEF4FE757E40E947A2DCE
:101BF00018160CF010E0112361F1688979898A893F
:101C00009B8920E030E040E251E40E947E2DDC011F
:101C1000CB01BC01CD010E949C2CDC01CB01998F32
:101C2000888F12C089E190E09B8F8A8F8A8D9B8D6F
:101C30008C01C8010197F1F78C011B8F0A8F888DE9
:101C4000998D0197998F888F888D998D009751F77D
:101C500017C06C897D898E899F890E949C2CDC012C
:101C6000CB01998F888F888D998D9D8F8C8F8C8DCE
:101C70009D8D8C01F8013197F1F78F011D8F0C8F2D
:101C800089818F5F898389818F3F09F079CF6D9634
:101C90000FB6F894DEBF0FBECDBFCF91DF911F917D
:101CA0000F910895DF93CF9300D00F92CDB7DEB799
:101CB0008091D9038B831092D903198217C089812F
:101CC0000E94090F1A820CC08A81803419F481E0C5
:101CD0000E94E30E80E00E94C9158A818F5F8A838B
:101CE0008A8188238CF789818F5F898389818830F5
:101CF00030F38B818093D90380E00E94090F0F900D
:101D00000F900F90CF91DF910895DF93CF9300D084
:101D10000F92CDB7DEB789836A834B83898188238D
:101D200019F08981813009F58A818830F0F48B813E
:101D30008034D8F48981882319F40E94021902C0E2
:101D40000E94E91889818093D6038A81886B8093E9
:101D5000D7038B8180648093D8038091D8030E943D
:101D6000B1148091D7030E94B1140F900F900F907F
:101D7000CF91DF910895DF93CF9300D000D000D0B2
:101D8000CDB7DEB79A8389837C836B835E834D8373
:101D90002091D60389819A81FC0120832091D70369
:101DA0008B819C81FC0120832091D8038D819E81B1
:101DB000FC01208326960FB6F894DEBF0FBECDBF80
:101DC000CF91DF910895DF93CF930F92CDB7DEB718
:101DD00089838981882319F089818130B1F48981CF
:101DE000882319F40E94021902C00E94E91889810F
:101DF0008093D60380E48093D8038091D7030E9418
:101E0000B1148091D8030E94B1140F90CF91DF914B
:101E10000895DF93CF930F92CDB7DEB78983898181
:101E2000883038F4898188548093D70380E00E94F9
:101E3000E30E0F90CF91DF910895DF93CF93CDB74D
:101E4000DEB78091D7038F5F8093D7038091D7034C
:101E5000803C18F088EB8093D70380E00E94E30E6B
:101E6000CF91DF910895DF93CF93CDB7DEB78FEF9A
:101E70008093D903CF91DF910895DF93CF93CDB7AE
:101E8000DEB71092D903CF91DF9108951F93DF93AE
:101E9000CF93CDB7DEB727970FB6F894DEBF0FBE4E
:101EA000CDBF8F838091D603813021F48091D803F8
:101EB0008C3718F48F818A3011F40E941D0F8F81A6
:101EC0008A3009F43CC024E833E08F81882F90E009
:101ED000AC01440F551F440F551F440F551FBA0145
:101EE000681B790BCB01820F931F9A8389838091A2
:101EF000D603882339F48091D803803819F481E01F
:101F00000E94E30E89819A819C838B8389819A81C7
:101F100001969A8389838B819C81FC0114911D8396
:101F20008D818E838E818F3F49F08E810E94C915ED
:101F30008091D8038F5F8093D803D9CF0000279674
:101F40000FB6F894DEBF0FBECDBFCF91DF911F91CA
:101F50000895DF93CF9300D0CDB7DEB79A838983FE
:101F60000CC089819A81FC01208189819A81019626
:101F70009A838983822F0E94460F89819A81FC016E
:101F80008081882371F70F900F90CF91DF91089592
:101F90000F931F93DF93CF93CDB7DEB760970FB644
:101FA000F894DEBF0FBECDBF6C877D878E879F877D
:101FB000488B19828C859D85AE85BF850097A105CC
:101FC000B105C1F419820DC08981882F90E09E016E
:101FD0002E5F3F4F820F931FFC01108289818F5F1C
:101FE000898399818889981708F061C089818A302E
:101FF00058F35DC0198244C08C859D85AE85BF8530
:102000000097A105B10549F18981082F10E08C8561
:102010009D85AE85BF852AE030E040E050E0BC0100
:10202000CD010E94202EDC01CB01282FCE0102968B
:10203000800F911FFC0120838C859D85AE85BF8517
:102040002AE030E040E050E0BC01CD010E94202EAB
:102050002C873D874E875F8710C088898F3F39F175
:1020600088898B3020F58981882F90E09E012E5F32
:102070003F4F820F931FFC01108289818F5F8983FC
:1020800099818889981708F4B7CF11C08981882F62
:1020900090E001979E012E5F3F4F820F931FFC013E
:1020A0008081805D0E94460F89818150898389816A
:1020B000882361F760960FB6F894DEBF0FBECDBFE0
:1020C000CF91DF911F910F910895DF93CF93CDB7FB
:1020D000DEB760970FB6F894DEBF0FBECDBF6C873A
:1020E0007D878E879F87488B19828C859D85AE85DD
:1020F000BF850097A105B105C1F419820DC0898182
:10210000882F90E09E012E5F3F4F820F931FFC01AE
:10211000108289818F5F898399818889981708F057
:1021200072C089818A3058F36EC019823BC08C8599
:102130009D85AE85BF850097A105B105F1F0898128
:10214000882F90E02C85422F4F709E012E5F3F4FCD
:10215000820F931FFC0140838C859D85AE85BF85D2
:10216000689413F8B695A795979587951694D1F727
:102170008C879D87AE87BF8712C088898F3F09F4FF
:1021800042C088898B3008F03EC08981882F90E05A
:102190009E012E5F3F4F820F931FFC0110828981A9
:1021A0008F5F898399818889981708F4C0CF2BC0E5
:1021B0008981882F90E001979E012E5F3F4F820F0B
:1021C000931FFC0180818A3068F08981882F90E01C
:1021D00001979E012E5F3F4F820F931FFC0180816C
:1021E000895C0CC08981882F90E001979E012E5F49
:1021F0003F4F820F931FFC018081805D0E94460F3C
:102200008981815089838981882391F660960FB6F0
:10221000F894DEBF0FBECDBFCF91DF910895DF935D
:10222000CF9300D000D000D0CDB7DEB76A837B83D8
:102230008C839D834E8328C08E81882F90E09C01E3
:102240002150304081E090E002C0880F991F2A950C
:10225000E2F79C01442737FD4095542F8A819B81EA
:10226000AC81BD8182239323A423B52321E0009771
:10227000A105B10509F420E029838981805D0E94D0
:10228000460F8E8181508E838E818823A9F62696F3
:102290000FB6F894DEBF0FBECDBFCF91DF9108958A
:1022A0001F93DF93CF93CDB7DEB728970FB6F8947F
:1022B000DEBF0FBECDBF6D837E838F83988711E015
:1022C0006D817E818F81988520E030E0A9010E9498
:1022D000302C88230CF010E0112361F08DE20E9475
:1022E000460F8D819E81AF81B885BF778D839E8398
:1022F000AF83B8876D817E818F8198850E949C2CE9
:10230000DC01CB0189839A83AB83BC8389819A8169
:10231000AB81BC81BC01CD014FEF0E94C80F8EE2A2
:102320000E94460F69817A818B819C810E94C82C12
:102330009B01AC016D817E818F8198850E94CB2BA2
:10234000DC01CB018D839E83AF83B8876D817E8155
:102350008F81988520E034E244E759E40E947E2D85
:10236000DC01CB01BC01CD010E949C2CDC01CB0126
:1023700089839A83AB83BC8389819A81AB81BC8139
:10238000BC01CD014FEF0E94C80F28960FB6F894FC
:10239000DEBF0FBECDBFCF91DF911F910895DF93B8
:1023A000CF93CDB7DEB768970FB6F894DEBF0FBEF8
:1023B000CDBFCE014F96988F8F8B8D8D9E8D9A833A
:1023C0008983BEC189819A81FC0180818987898541
:1023D000853209F0ADC189819A8101969A838983FA
:1023E00089819A81FC01808189878985803300F108
:1023F00089858A33E8F41A8614C08A85880F982F55
:10240000990F990F980F8985890F80538A87898141
:102410009A8101969A83898389819A81FC018081BE
:1024200089878985803338F089858A3330F304C001
:102430008FEF8A8701C000008985882F90E088355A
:10244000910509F4F1C08935910504F584349105AD
:1024500009F470C08534910564F48234910509F45F
:1024600019C1833491058CF58532910509F45CC15D
:1024700062C18335910509F445C18535910509F49B
:10248000A2C08634910509F424C155C18636910550
:1024900009F41FC1873691055CF483369105A9F0D4
:1024A0008436910509F18236910509F4D7C043C1FC
:1024B0008537910509F470C08837910509F49DC0EE
:1024C0008337910509F41EC136C18F89988D9C010F
:1024D0002E5F3F4F388F2F8BFC0180819181898740
:1024E00089850E94460F27C18F89988D9C012E5F98
:1024F0003F4F388F2F8BFC01808191819C838B8390
:102500008B819C81992354F48B819C81909581953A
:102510009F4F9C838B838DE20E94460F8B819C8111
:10252000AA2797FDA095BA2FBC01CD014A850E942C
:10253000C80F01C18F89988D9C012C5F3F4F388F48
:102540002F8BFC0180819181A281B3818D839E8339
:10255000AF83B8878D819E81AF81B885BB2394F40A
:102560008D819E81AF81B885B095A095909581951C
:102570009F4FAF4FBF4F8D839E83AF83B8878DE250
:102580000E94460F8D819E81AF81B885BC01CD012F
:102590004A850E94C80FCFC08F89988D9C012E5FFD
:1025A0003F4F388F2F8BFC01808191819C878B87D7
:1025B0008B859C85CC01A0E0B0E0BC01CD014A85B3
:1025C0000E94C80FB8C08F89988D9C012C5F3F4F27
:1025D000388F2F8BFC0180819181A281B3818D87FF
:1025E0009E87AF87B88B8D859E85AF85B889BC01E6
:1025F000CD014A850E94C80F9EC08F89988D9C018D
:102600002E5F3F4F388F2F8BFC01808191819C87FB
:102610008B878B859C85CC01A0E0B0E0BC01CD010F
:102620004A850E94651087C08F89988D9C012C5F18
:102630003F4F388F2F8BFC0180819181A281B38124
:102640008D879E87AF87B88B8D859E85AF85B8892E
:10265000BC01CD014A850E9465106DC08F89988D9F
:102660009C012E5F3F4F388F2F8BFC018081918121
:102670009C878B878A858F3F11F480E18A878B85C1
:102680009C85CC01A0E0B0E0BC01CD014A850E9450
:102690000F1151C08F89988D9C012C5F3F4F388F4F
:1026A0002F8BFC0180819181A281B3818D879E87D0
:1026B000AF87B88B8A858F3F11F480E18A878D853B
:1026C0009E85AF85B889BC01CD014A850E940F1156
:1026D00032C08F89988D9C012C5F3F4F388F2F8B94
:1026E000FC0180819181A281B381898B9A8BAB8B14
:1026F000BC8B89899A89AB89BC89BC01CD010E94B8
:10270000501119C08F89988D9C012E5F3F4F388FD3
:102710002F8BFC01808191819E8B8D8B8D899E8971
:102720000E94A90F000007C085E20E94460F03C067
:1027300089850E94460F89819A8101969A838983AF
:1027400089819A81FC018081882309F03BCE6896BB
:102750000FB6F894DEBF0FBECDBFCF91DF910895C5
:10276000DF93CF9300D0CDB7DEB7198216C0898131
:102770000E94090F1A820BC08A81803411F40E94D2
:10278000E91880E00E94C9158A818F5F8A838A8157
:10279000882394F789818F5F89838981883038F312
:1027A00080E00E94090F0F900F90CF91DF91089564
:1027B000DF93CF93CDB7DEB729970FB6F894DEBF7E
:1027C0000FBECDBF888769878885843008F06FC0C9
:1027D0008985853608F06BC088858295880F807E54
:1027E0008B838B81803410F41D8205C081E08D8342
:1027F0008B8180548B838B81982F985F8D8160E0D3
:10280000492F0E94850E8985882F90E0A0E0B0E0D6
:10281000BC01CD0143E00E94C80F89858695898758
:1028200089858695869586958E8397E08E81292F5A
:10283000281B822F8F8381E0898336C08B81982F5C
:10284000945F8D816981492F0E94850E99818F81C6
:10285000981710F41C821AC099818F819817A1F4DF
:10286000898587708C838C81882F90E028E030E008
:10287000281B390B8FEF90E0022E02C0880F991FA2
:102880000A94E2F78C8302C08FEF8C831A8206C011
:102890008C810E94C9158A818F5F8A838A818C30DE
:1028A000B8F389818F5F89838981883038F22996CE
:1028B0000FB6F894DEBF0FBECDBFCF91DF91089564
:1028C000DF93CF9300D000D0CDB7DEB78B836C837E
:1028D0008B81880F8F5F8A838B818430D8F58C81C0
:1028E0008536C0F580E06A8140E00E94850E19823D
:1028F0000CC08981803419F481E00E94E30E8FEFCF
:102900000E94C91589818F5F898399818C8198176D
:1029100080F38C8189830CC08981803419F481E033
:102920000E94E30E80E00E94C91589818F5F898330
:102930008981843688F381E06A814EE60E94850EA3
:102940008C81882F90E0A0E0B0E0BC01CD0143E095
:102950000E94C80F0F900F900F900F90CF91DF91B2
:1029600008950F931F93DF93CF93CDB7DEB7699789
:102970000FB6F894DEBF0FBECDBF898F0E94E4165C
:1029800085E390E0298DFC0120838BE390E02BE32D
:1029900030E0F90120812F77FC0120838BE390E068
:1029A0002BE330E0F90120812F7BFC0120838BE3B6
:1029B00090E02BE330E0F90120812062FC012083CC
:1029C00080E090E0A0E0B0E489839A83AB83BC838D
:1029D00069817A818B819C812BEA3AEA4AEA5EE33B
:1029E0000E947E2DDC01CB018D839E83AF83B8874F
:1029F00011E06D817E818F81988520E030E040E894
:102A00005FE30E94302C88230CF010E0112319F0B2
:102A100081E08987A3C011E06D817E818F819885D7
:102A200020E030E04FE753E40E947A2D18160CF0B6
:102A300010E0112309F489C069817A818B819C811E
:102A400020E030E04AE754E40E94342CDC01CB0162
:102A50008A879B87AC87BD876A857B858C859D85AA
:102A600020E030E04AE753E40E947E2DDC01CB01F8
:102A70008E879F87A88BB98B11E06E857F858889AB
:102A8000998920E030E040E85FE30E94302C882301
:102A90000CF010E0112329F081E090E09B8B8A8BF1
:102AA00046C011E06E857F858889998920E03FEFD7
:102AB0004FE757E40E947A2D18160CF010E011230E
:102AC00061F16A857B858C859D8520E030E040E260
:102AD00051E40E947E2DDC01CB01BC01CD010E949E
:102AE0009C2CDC01CB019B8B8A8B12C089E190E08E
:102AF0009D8B8C8B8C899D898C01C8010197F1F786
:102B00008C011D8B0C8B8A899B8901979B8B8A8BEF
:102B10008A899B89009751F728C06E857F858889AF
:102B200099890E949C2CDC01CB019B8B8A8B8A8922
:102B30009B899F8B8E8B8E899F898C01F8013197A1
:102B4000F1F78F011F8B0E8B10C06D817E818F81FD
:102B500098850E949C2CDC01CB0189878985888F10
:102B6000888D182F1A95F1F7188F8BE390E02BE3DF
:102B700030E0F90120812F7DFC01208369960FB69A
:102B8000F894DEBF0FBECDBFCF91DF911F910F91A3
:102B900008950F931F93DF93CF93CDB7DEB7699757
:102BA0000FB6F894DEBF0FBECDBF898F0E94E4162A
:102BB00085E390E03091D903298D2327FC01208300
:102BC0008BE390E02BE330E0F90120812068FC01E9
:102BD00020838BE390E02BE330E0F90120812F7B11
:102BE000FC0120838BE390E02BE330E0F9012081AE
:102BF0002062FC01208380E090E0A0E0B0E48983C3
:102C00009A83AB83BC8369817A818B819C812BEA17
:102C10003AEA4AEA5EE30E947E2DDC01CB018D8315
:102C20009E83AF83B88711E06D817E818F81988507
:102C300020E030E040E85FE30E94302C88230CF075
:102C400010E0112319F081E08987A3C011E06D81A4
:102C50007E818F81988520E030E04FE753E40E9429
:102C60007A2D18160CF010E0112309F489C069813F
:102C70007A818B819C8120E030E04AE754E40E9415
:102C8000342CDC01CB018A879B87AC87BD876A85A2
:102C90007B858C859D8520E030E04AE753E40E94E7
:102CA0007E2DDC01CB018E879F87A88BB98B11E02D
:102CB0006E857F858889998920E030E040E85FE370
:102CC0000E94302C88230CF010E0112329F081E0C1
:102CD00090E09B8B8A8B46C011E06E857F8588894A
:102CE000998920E03FEF4FE757E40E947A2D1816AC
:102CF0000CF010E0112361F16A857B858C859D8540
:102D000020E030E040E251E40E947E2DDC01CB0166
:102D1000BC01CD010E949C2CDC01CB019B8B8A8BDA
:102D200012C089E190E09D8B8C8B8C899D898C01F0
:102D3000C8010197F1F78C011D8B0C8B8A899B8947
:102D400001979B8B8A8B8A899B89009751F728C0B2
:102D50006E857F85888999890E949C2CDC01CB0136
:102D60009B8B8A8B8A899B899F8B8E8B8E899F896F
:102D70008C01F8013197F1F78F011F8B0E8B10C07A
:102D80006D817E818F8198850E949C2CDC01CB0116
:102D900089878985888F888D182F1A95F1F7188F64
:102DA0008BE390E02BE330E0F90120812F7DFC01E3
:102DB000208369960FB6F894DEBF0FBECDBFCF91CA
:102DC000DF911F910F9108950F931F93DF93CF937E
:102DD000CDB7DEB7E2970FB6F894DEBF0FBECDBF1A
:102DE0008AE0898384E390E024E330E0F9012081E4
:102DF0002F77FC0120838BE390E02BE330E0F90197
:102E000020812F77FC0120838BE390E02BE330E0DF
:102E1000F90120812064FC0120838BE390E02BE307
:102E200030E0F90120812F7DFC01208380E090E0DB
:102E3000A0E0B0E48B839C83AD83BE836B817C81F7
:102E40008D819E812BEA3AEA4AEA5EE30E947E2D5A
:102E5000DC01CB018F839887A987BA8711E06F8146
:102E6000788589859A8520E030E040E85FE30E941C
:102E7000302C88230CF010E0112319F081E08B87AF
:102E8000A3C011E06F81788589859A8520E030E0C4
:102E90004FE753E40E947A2D18160CF010E011232E
:102EA00009F489C06B817C818D819E8120E030E0B6
:102EB0004AE754E40E94342CDC01CB018C879D87C7
:102EC000AE87BF876C857D858E859F8520E030E04D
:102ED0004AE753E40E947E2DDC01CB01888B998B5D
:102EE000AA8BBB8B11E0688979898A899B8920E04C
:102EF00030E040E85FE30E94302C88230CF010E0C3
:102F0000112329F081E090E09D8B8C8B46C011E06D
:102F1000688979898A899B8920E03FEF4FE757E4E8
:102F20000E947A2D18160CF010E0112361F16C85C7
:102F30007D858E859F8520E030E040E251E40E944F
:102F40007E2DDC01CB01BC01CD010E949C2CDC015B
:102F5000CB019D8B8C8B12C089E190E09F8B8E8B77
:102F60008E899F898C01C8010197F1F78C011F8B15
:102F70000E8B8C899D8901979D8B8C8B8C899D896B
:102F8000009751F728C0688979898A899B890E94AE
:102F90009C2CDC01CB019D8B8C8B8C899D89998F1E
:102FA000888F888D998D8C01F8013197F1F78F0109
:102FB000198F088F10C06F81788589859A850E9446
:102FC0009C2CDC01CB018B878B858A8F8A8D182FF7
:102FD0001A95F1F71A8F8BE390E02BE330E0F901BB
:102FE00020812062FC01208380E090E0A0E0B0E43A
:102FF0008B8F9C8FAD8FBE8F6B8D7C8D8D8D9E8DBD
:103000002BEA3AEA4AEA5EE30E947E2DDC01CB011C
:103010008F8F98A3A9A3BAA311E06F8D78A189A17E
:103020009AA120E030E040E85FE30E94302C882342
:103030000CF010E0112319F081E08BA3A3C011E084
:103040006F8D78A189A19AA120E030E04FE753E489
:103050000E947A2D18160CF010E0112309F489C093
:103060006B8D7C8D8D8D9E8D20E030E04AE754E4A1
:103070000E94342CDC01CB018CA39DA3AEA3BFA383
:103080006CA17DA18EA19FA120E030E04AE753E42E
:103090000E947E2DDC01CB0188A799A7AAA7BBA718
:1030A00011E068A579A58AA59BA520E030E040E85D
:1030B0005FE30E94302C88230CF010E0112329F0EC
:1030C00081E090E09DA78CA746C011E068A579A596
:1030D0008AA59BA520E03FEF4FE757E40E947A2D99
:1030E00018160CF010E0112361F16CA17DA18EA1E6
:1030F0009FA120E030E040E251E40E947E2DDC01FF
:10310000CB01BC01CD010E949C2CDC01CB019DA711
:103110008CA712C089E190E09FA78EA78EA59FA5DE
:103120008C01C8010197F1F78C011FA70EA78CA590
:103130009DA501979DA78CA78CA59DA5009751F7EC
:1031400028C068A579A58AA59BA50E949C2CDC01B6
:10315000CB019DA78CA78CA59DA599AB88AB88A911
:1031600099A98C01F8013197F1F78F0119AB08ABE0
:1031700010C06F8D78A189A19AA10E949C2CDC01BE
:10318000CB018BA38BA18AAB8AA9182F1A95F1F7D3
:103190001AAB83E390E0FC018081881F8827881F99
:1031A0008A838A81882309F038CE84E390E024E37F
:1031B00030E0F90120812068FC012083E2960FB6FF
:1031C000F894DEBF0FBECDBFCF91DF911F910F915D
:1031D0000895DF93CF93CDB7DEB78BE390E02BE379
:1031E00030E0F90120812061FC01208388E390E038
:1031F00028E330E0F90120812D7FFC012083CF916D
:10320000DF910895DF93CF93CDB7DEB788E390E0E9
:1032100028E330E0F90120812260FC0120838BE368
:1032200090E02BE330E0F90120812F7EFC01208328
:10323000CF91DF910895EF92FF920F931F93DF9349
:10324000CF93CDB7DEB760970FB6F894DEBF0FBE51
:10325000CDBF888B8091D8038D838091D7038B83DA
:103260001F861C8224E530E08889682F70E040E3E7
:1032700050E0649FC001659F900D749F900D1124D4
:10328000820F931F9A83898388898A30B1F501C0A0
:1032900000008F858F5F8F8789819A819F838E83BE
:1032A00089819A8101969A8389838E819F818C017D
:1032B000F801E590F4908F01F986E8861F830E836C
:1032C000888599858A878A850E94C9158F85883166
:1032D00008F068C08F8596E0692F0E94002E892F24
:1032E0008823B1F68B818F5F8B838D810E94B1140F
:1032F0008B810E94B114CDCF00008F858F5F8F87A7
:1033000089819A819C878B8789819A8101969A838A
:1033100089838B859C858C01F801E590F4908F0161
:10332000FE86ED861C870B878D859E858A878A851C
:103330000E94C9158091D8038F5F8093D803809134
:10334000D80391E0803809F090E02091D60381E025
:10335000222309F080E08923882329F081E00E945C
:10336000E30E81E08C838F858033F0F48F858F703E
:10337000882309F0C1CF8B818F5F8B838C81882359
:1033800021F080E00E94E30E1C828D818093D8039F
:103390008B818093D7038D810E94B1148B810E9411
:1033A000B114ABCF000001C0000060960FB6F894D6
:1033B000DEBF0FBECDBFCF91DF911F910F91FF9068
:1033C000EF900895DF93CF93CDB7DEB781E062E051
:1033D00040E30E94850E8BE00E941B19CF91DF9184
:1033E0000895DF93CF93CDB7DEB781E062E040E38D
:1033F0000E94850E8CE00E941B19CF91DF910895E9
:10340000DF93CF93CDB7DEB787E390E027E330E0DB
:10341000F90120812F79FC01208388E390E028E3E3
:1034200030E0F90120812066FC012083CF91DF91FB
:103430000895DF93CF93CDB7DEB786E390E0FC012C
:1034400080818072CF91DF910895DF93CF93CDB7C4
:10345000DEB786E390E0FC0180818074CF91DF913C
:103460000895DF93CF9300D0CDB7DEB778940E9454
:10347000C4258091C2009091C3000E941D260E9425
:10348000F90C0E9442250E94322B0E94C2030E9426
:10349000AA2A0E94A70A0E94001A1A82198207C04B
:1034A0000E94520689819A8101969A838983898133
:1034B0009A8121E0843F920798F31092C6000BC0D6
:1034C0000E9452068091D103882329F01092D103E3
:1034D00080E00E94821C8091B203882389F70E94B9
:1034E00074260E94290701C000000E9452068091A4
:1034F000D1038823C9F30E9463258091E40390914E
:10350000E503A091E603B091E7030097A105B1059B
:1035100099F08091E4039091E503A091E603B091C6
:10352000E7030197A109B1098093E4039093E503B0
:10353000A093E603B093E7038091CD039091CE036F
:10354000A091CF03B091D0030097A105B10599F0E8
:103550008091CD039091CE03A091CF03B091D00381
:103560000197A109B1098093CD039093CE03A09355
:10357000CF03B093D0038091DE039091DF03A0913D
:10358000E003B091E1030097A105B10599F08091A6
:10359000DE039091DF03A091E003B091E103019776
:1035A000A109B1098093DE039093DF03A093E003A8
:1035B000B093E1031092D1030E9485268091AD0360
:1035C000882311F00E94710C8091B103882321F4AB
:1035D0000E9407250E94C1218091C3008295869593
:1035E000869583708170982F81E089278170817022
:1035F0008295880F880F807C9091C3009F7B892BD8
:103600008093C3008091C2009091C3000E941D2648
:103610006CCFDF93CF930F92CDB7DEB70E94520EDF
:1036200080E00E94090F8091660290916702FC0180
:10363000828193810E94A90F198255C02091660250
:10364000309167028981882F90E0880F991F820F3F
:10365000931F0596FC0180819181009709F43FC07A
:103660008091660290916702FC019481898198178C
:10367000E9F40E94330F89818E5F0E94090F209127
:103680006602309167028981882F90E0880F991F28
:10369000820F931F0596FC0180819181FC0182813C
:1036A00093810E94A90F0E943D0F1AC089818E5FED
:1036B0000E94090F20916602309167028981882F4C
:1036C00090E0880F991F820F931F0596FC0180815F
:1036D0009181FC01828193810E94A90F01C00000A9
:1036E00089818F5F89838981853008F4A7CF0F9006
:1036F000CF91DF910895DF93CF930F92CDB7DEB7CF
:103700008091B503882321F082E00E94821C25C0AD
:103710008091660290916702FC0124812F5FFC0179
:103720002483FC01848189832091660230916702A1
:103730008981882F90E0880F991F820F931F05962B
:10374000FC0180819181009731F480916602909113
:103750006702FC0114820E94091B0F90CF91DF9138
:103760000895DF93CF9300D0CDB7DEB78091B50336
:10377000882321F081E00E94821C44C0809166026F
:1037800090916702FC0184818A838A810E94632B65
:103790008A81882369F5198227C0209166023091B9
:1037A00067028981882F90E0880F991F820F931FED
:1037B0000596FC0180819181009799F480916602C1
:1037C0009091670229812150FC0124838091660237
:1037D00090916702FC0184810E94632B0E94091B67
:1037E00011C089818F5F898389818530B0F20AC0D9
:1037F00080916602909167022A812150FC01248306
:103800000E94091B0F900F90CF91DF910895DF93D5
:10381000CF93CDB7DEB78091B503882321F084E044
:103820000E94821C27C08091660290916702FC0171
:1038300080819181009771F080916602909167027A
:10384000FC018081918190936702809366020E94BF
:10385000091B10C01092B1030E94520E0E94C12198
:1038600023E934E28091C803882F90E0F90109959B
:103870000E940725CF91DF910895DF93CF930F9298
:10388000CDB7DEB78091B503882321F083E00E9495
:10389000821C34C08091660290916702FC01848191
:1038A000898320916602309167028981882F90E098
:1038B000880F991F820F931F0596FC0180819181CB
:1038C000FC01858196810097B1F0209166023091CC
:1038D00067028981882F90E0880F991F820F931FBC
:1038E0000596FC0180819181909367028093660226
:1038F0000E94091B03C080E00E94821C0F90CF91A0
:10390000DF910895EF92FF920F931F93DF93CF9370
:103910000F92CDB7DEB789838091660290916702DE
:1039200022E08535920709F044C28981843049F448
:103930001092B2031092B5030E94520E1092B1037E
:1039400070C48091B503882F90E08230910509F40E
:1039500096C0833091053CF4009791F08130910539
:1039600009F43FC05EC48430910509F455C1843028
:1039700091050CF4FCC08530910509F4A1C151C436
:1039800081E08093B1030E94520E80E00E94090FF3
:1039900088E692E00E94A90F81E00E94090F8EE75D
:1039A00092E00E94A90F86E00E94090F8FE892E042
:1039B0000E94A90F87E00E94090F87EA92E00E9407
:1039C000A90F80E063E048E20E94850E0E94112961
:1039D0000E94582981E08093B50381E08093B2036F
:1039E00020C480E063E048E20E94850E0E94112915
:1039F0000E9458298981833009F004C480916E03A4
:103A000090916F03CC01A0E0B0E0BC01CD010E9419
:103A1000C82CDC01CB018093B6039093B703A0932D
:103A2000B803B093B9030E9411299093B403809313
:103A3000B3030E94520E80E00E94090F88E692E0D4
:103A40000E94A90F86E00E94090F80EB92E00E947D
:103A5000A90F87E00E94090F88EC92E00E94A90F4D
:103A600080E063E048E20E94850E8091B30390916C
:103A7000B4030E94582982E08093B503D2C38981A0
:103A8000882F90E082309105E1F08330910571F14B
:103A90008130910509F0B8C38091B3039091B403CC
:103AA00001969093B4038093B30380E063E048E20F
:103AB0000E94850E8091B3039091B4030E9458290F
:103AC00055C08091B3039091B40301979093B403D0
:103AD0008093B30380E063E048E20E94850E80910A
:103AE000B3039091B4030E94582940C08091B3035E
:103AF0009091B403CC01A0E0B0E0BC01CD010E94E4
:103B0000C82CDC01CB018093BA039093BB03A09334
:103B1000BC03B093BD030E94520E80E00E94090FC7
:103B200088E692E00E94A90F81E00E94090F8BEDC8
:103B300092E00E94A90F86E00E94090F8FE892E0B0
:103B40000E94A90F87E00E94090F87EA92E00E9475
:103B5000A90F80E063E048E20E94850E0E941129CF
:103B60000E94582983E08093B50300005AC380E087
:103B700063E048E20E94850E0E9411290E945829A4
:103B80008981833009F042C380916E0390916F0365
:103B9000CC01A0E0B0E0BC01CD010E94C82CDC014A
:103BA000CB018093BE039093BF03A093C003B09357
:103BB000C1030E9411299093B4038093B3030E9420
:103BC000520E80E00E94090F88E692E00E94A90F41
:103BD00081E00E94090F8BED92E00E94A90F86E020
:103BE0000E94090F80EB92E00E94A90F87E00E94DB
:103BF000090F88EC92E00E94A90F80E063E048E2A0
:103C00000E94850E8091B3039091B4030E945829BD
:103C100084E08093B50305C38981882F90E08230CA
:103C20009105E1F08330910571F18130910509F042
:103C3000EFC28091B3039091B40301969093B403C3
:103C40008093B30380E063E048E20E94850E809198
:103C5000B3039091B4030E94582930C08091B303FC
:103C60009091B40301979093B4038093B30380E0E1
:103C700063E048E20E94850E8091B3039091B40303
:103C80000E9458291BC08091B3039091B403CC01CA
:103C9000A0E0B0E0BC01CD010E94C82CDC01CB014A
:103CA0008093C2039093C303A093C403B093C5034E
:103CB0000E94520E85E08093B50300000000B1C25F
:103CC0008091C2039091C303A091C403B091C50336
:103CD0002091BA033091BB034091BC035091BD03C6
:103CE000BC01CD010E94CB2BDC01CB017C018D01FD
:103CF0008091BE039091BF03A091C003B091C10316
:103D00002091B6033091B7034091B8035091B903A5
:103D1000BC01CD010E94CB2BDC01CB019C01AD018C
:103D2000C801B7010E94342CDC01CB0180937403DD
:103D300090937503A0937603B0937703E090BA0352
:103D4000F090BB030091BC031091BD0380917403FC
:103D500090917503A0917603B09177032091B603FB
:103D60003091B7034091B8035091B903BC01CD0124
:103D70000E947E2DDC01CB019C01AD01C801B70181
:103D80000E94CB2BDC01CB018093700390937103D5
:103D9000A0937203B09373030E94A90B0E944E0C70
:103DA0001092B2030E94520E1092B1031092B5030A
:103DB00038C28091660290916702E2E081319E07ED
:103DC00019F588E398E0ABE0B0E08093850090932C
:103DD0008600A0938700B09388001092B1038EE212
:103DE00092E090936702809366020E94520E0E94B6
:103DF000C12123E934E28091C803882F90E0F901C2
:103E000009950E9407250DC2809166029091670274
:103E1000F1E08E3C9F0709F06CC0809166029091A2
:103E20006702FC0184818823D9F41092B1031092B7
:103E3000AA038EE292E090936702809366020E944A
:103E4000760B0E94520E0E94C12123E934E2809138
:103E5000C803882F90E0F90109950E94072523C027
:103E60008091660290916702FC0184818130D9F4CF
:103E700081E08093AA031092B1038EE292E09093C6
:103E80006702809366020E94760B0E94520E0E9487
:103E9000C12123E934E28091C803882F90E0F90121
:103EA00009950E94072580917000813089F480E097
:103EB00063E041E20E94850E81E30E94460F80E0AC
:103EC00064E04EE10E94850E80E20E94460FA9C187
:103ED00080E063E041E20E94850E80E20E94460F8E
:103EE00080E064E04EE10E94850E82E30E94460F6E
:103EF00098C18091660290916702F1E0893E9F0728
:103F000009F08FC18091660290916702FC01848163
:103F1000813009F0AFC08091B503882F90E0009701
:103F200029F08130910509F441C07BC10E94520EF5
:103F300080E00E94090F8091660290916702FC0167
:103F400087819085FC01828193810E94A90F86E080
:103F50000E94090F80EB92E00E94A90F87E00E9467
:103F6000090F8DEE92E00E94A90F81E063E045E029
:103F70000E94850E00D08DB79EB7019622E033E0F7
:103F8000FC01318320830E94CF110F900F9080E0BD
:103F900063E048E20E94850E8091890090918A003A
:103FA0000E94192181E08093B5033BC18981882F4C
:103FB00090E08230910581F18330910524F48130C5
:103FC000910551F02EC18330910509F444C084302D
:103FD000910509F448C025C18091890090918A001B
:103FE000F8E380349F0708F015C180918900909113
:103FF0008A00069690938A008093890080E063E0AF
:1040000048E20E94850E1092A7038091890090914A
:104010008A000E94192105C18091890090918A002F
:104020008C33910508F4F8C08091890090918A0042
:104030000A9790938A008093890080E063E048E2C9
:104040000E94850E1092A7038091890090918A00AA
:104050000E941921E6C00E94020C1092B5030E9432
:10406000091B0000DEC00E941A0C1092B5030E94CA
:10407000091BD7C08091660290916702FC01848180
:10408000823009F0CEC08091B503882F90E0009770
:1040900029F08130910509F44CC0C3C00E94520E32
:1040A00080E00E94090F8091660290916702FC01F6
:1040B00087819085FC01828193810E94A90F86E00F
:1040C0000E94090F80EB92E00E94A90F87E00E94F6
:1040D000090F89E093E00E94A90F81E067E044E1C5
:1040E0000E94850E8091890090918A000E9419217A
:1040F00081E063E045E00E94850E00D08DB79EB759
:10410000019622E033E0FC01318320830E94CF112D
:104110000F900F9080E063E048E20E94850E80914E
:104120008B0090918C000E94192181E08093B5034F
:1041300078C08981882F90E082309105B1F1833079
:10414000910524F48130910551F06BC083309105C5
:1041500009F449C08430910509F44CC062C08091D3
:10416000890090918A009C012650304080918B00FC
:1041700090918C008217930708F050C080918B00BB
:1041800090918C00069690938C0080938B0080E039
:1041900063E048E20E94850E1092A70380918B0095
:1041A00090918C000E9419213CC080918B009091CD
:1041B0008C008C339105A0F180918B0090918C0044
:1041C0000A9790938C0080938B0080E063E048E234
:1041D0000E94850E1092A70380918B0090918C0015
:1041E0000E9419211EC00E94EA0B1092B5030E9482
:1041F000091B17C00E94340C1092B5030E94091BC2
:1042000000000FC000000DC000000BC0000009C07E
:10421000000007C0000005C0000003C0000001C08E
:1042200000000F90CF91DF911F910F91FF90EF90C1
:104230000895DF93CF9300D000D0CDB7DEB79C8335
:104240008B838B819C8120E13EE0B9010E940C2E82
:104250009B01C90189838981482F50E020E13EE01C
:10426000429FC001439F900D529F900D11242B81BE
:104270003C81A901481B590BCA019C838B838B810C
:104280009C812CE330E0B9010E940C2E9B01C901F6
:104290008A8389818823B9F48981282F30E000D06E
:1042A00000D08DB79EB7019647E153E0FC015183E2
:1042B0004083FC01338322830E94CF110F900F9023
:1042C0000F900F9016C08981282F30E000D000D0C9
:1042D0008DB79EB7019649E153E0FC0151834083BD
:1042E000FC01338322830E94CF110F900F900F9017
:1042F0000F908A81882371F400D08DB79EB7019604
:104300002CE133E0FC01318320830E94CF110F9018
:104310000F9030C08A818A30B8F48A81282F30E02B
:1043200000D000D08DB79EB7019640E253E0FC016B
:1043300051834083FC01338322830E94CF110F906D
:104340000F900F900F9016C08A81282F30E000D078
:1043500000D08DB79EB7019645E253E0FC01518332
:104360004083FC01338322830E94CF110F900F9072
:104370000F900F900F900F900F900F90CF91DF91B3
:104380000895DF93CF93CDB7DEB72A970FB6F89491
:10439000DEBF0FBECDBF80E067E04AE00E94850E21
:1043A0000E9411290E9458298091850090918600D1
:1043B000A0918700B091880081312EE0920720E023
:1043C000A20720E0B20708F44CC08091C8038230F5
:1043D00099F48091850090918600A0918700B0911A
:1043E00088000197A109B109809385009093860008
:1043F000A0938700B093880081E067E044E10E94C9
:10440000850E8091850090918600A0918700B091E3
:10441000880020E13EE040E050E0BC01CD010E9478
:10442000202EDA01C90100D000D000D02DB73EB750
:104430002F5F3F4F49E253E0F90151834083F90177
:1044400082839383A483B5830E94CF118DB79EB7D7
:1044500006960FB6F8949EBF0FBE8DBF0E94840BC8
:1044600017C081E067E044E10E94850E00D08DB75F
:104470009EB7019621E333E0FC01318320830E9443
:10448000CF110F900F908091AD0384608093AD03A6
:1044900080918200882309F010C28091AA038130A4
:1044A00009F01EC10E94D208DC01CB018B839C83E2
:1044B000AD83BE838B819C81AD81BE818D35F4E45B
:1044C0009F07F0E0AF07F0E0BF0740F088E197E416
:1044D000A0E0B0E08B839C83AD83BE838B819C8105
:1044E000AD81BE8184369105A105B105B0F584E6A4
:1044F00090E0A0E0B0E08B839C83AD83BE8380E03E
:1045000062E04AE20E94850E80E190E00E941B1961
:1045100080E062E04CE30E94850E8EE090E00E9415
:104520001B1981E062E04CE00E94850E80E090E083
:104530000E941B1981E062E04CE10E94850E8AE036
:1045400090E00E941B1981E062E040E20E94850E2B
:1045500081E090E00E941B19DDC181E062E04AE049
:104560000E94850E8AE090E00E941B198B819C813D
:10457000AD81BE8120E137E240E050E0BC01CD01D9
:104580000E94202EDA01C90189838B819C81AD8133
:10459000BE8120E137E240E050E0BC01CD010E9445
:1045A000202EDC01CB018B839C83AD83BE8389816C
:1045B000882359F080E062E04AE20E94850E8981FA
:1045C000882F90E00E941B1909C080E062E04AE257
:1045D0000E94850E80E190E00E941B198B819C81D6
:1045E000AD81BE8128EE33E040E050E0BC01CD015A
:1045F0000E94202EDA01C90189838B819C81AD81C3
:10460000BE8128EE33E040E050E0BC01CD010E94C5
:10461000202EDC01CB018B839C83AD83BE8380E0A5
:1046200062E04AE30E94850E8981882F90E00E9413
:104630001B198B819C81AD81BE8124E630E040E076
:1046400050E0BC01CD010E94202EDA01C90189830E
:104650008B819C81AD81BE8124E630E040E050E05A
:10466000BC01CD010E94202EDC01CB018B839C83F9
:10467000AD83BE8381E062E040E10E94850E8981C6
:10468000882F90E00E941B198B819C81AD81BE8197
:104690002AE030E040E050E0BC01CD010E94202E35
:1046A000DA01C90189838B819C81AD81BE812AE0B9
:1046B00030E040E050E0BC01CD010E94202EDC0142
:1046C000CB018B839C83AD83BE8381E062E040E2BB
:1046D0000E94850E8981882F90E00E941B191AC1C3
:1046E0000E94700ADC01CB018F839887A987BA8763
:1046F0008F819885A985BA8581349105A105B10579
:1047000040F487E390E0A0E0B0E08F839887A9872A
:10471000BA878F819885A985BA85803127E292076B
:1047200020E0A20720E0B20770F180E062E044E3FD
:104730000E94850E80E190E00E941B1980E062E0FB
:1047400049E20E94850E80E190E00E941B1981E001
:1047500062E041E00E94850E8DE090E00E941B190E
:1047600081E062E040E10E94850E81E090E00E94DD
:104770001B1981E062E040E20E94850E80E090E03B
:104780000E941B19C7C080E062E04AE30E94850EC8
:104790008AE090E00E941B198F819885A985BA85CF
:1047A00028EE33E040E050E0BC01CD010E94202E15
:1047B000DA01C9018A838F819885A985BA8528EE97
:1047C00033E040E050E0BC01CD010E94202EDC012E
:1047D000CB018F839887A987BA8780E062E049E29E
:1047E0000E94850E8A81882F90E00E941B198F817C
:1047F0009885A985BA8524E630E040E050E0BC0108
:10480000CD010E94202EDA01C9018A838F8198850B
:10481000A985BA8524E630E040E050E0BC01CD0136
:104820000E94202EDC01CB018F839887A987BA874D
:1048300081E062E040E00E94850E8A81882F90E04E
:104840000E941B198F819885A985BA852AE030E0DE
:1048500040E050E0BC01CD010E94202EDA01C901E8
:104860008A838F819885A985BA852AE030E040E067
:1048700050E0BC01CD010E94202EDC01CB018F83D2
:104880009887A987BA8781E062E040E10E94850E9F
:104890008A81882F90E00E941B198F819885A985B5
:1048A000BA858A8381E062E040E20E94850E8A81B7
:1048B000882F90E00E941B192DC081E062E040E249
:1048C0000E94850E8FE090E00E941B1981E062E05B
:1048D00040E10E94850E8FE090E00E941B1981E06C
:1048E00062E040E00E94850E8FE090E00E941B197C
:1048F00080E062E042E30E94850E80E190E00E9449
:104900001B1980E062E047E20E94850E80E190E0A2
:104910000E941B192A960FB6F894DEBF0FBECDBFBA
:10492000CF91DF910895DF93CF930F92CDB7DEB78C
:1049300089838091B103882309F064C08981882F1D
:1049400090E083309105A9F1843091054CF48130D9
:104950009105F9F08230910524F5009791F053C04C
:1049600086309105B1F18730910524F484309105AA
:1049700041F149C087309105A1F188309105C9F115
:1049800042C080E00E94090F8BED90E00E94A90FC9
:104990003AC080E00E94090F85EE90E00E94A90FC6
:1049A00032C080E00E94090F81ED90E00E94A90FC3
:1049B0002AC080E00E94090F8FEE90E00E94A90FAC
:1049C00022C080E00E94090F89EF90E00E94A90FA9
:1049D0001AC080E00E94090F85EE90E00E94A90FA6
:1049E00012C080E00E94090F85EE90E00E94A90F9E
:1049F0000AC080E00E94090F81E291E00E94A90FA5
:104A0000000001C000000F90CF91DF910895DF9367
:104A1000CF93CDB7DEB78091B103882379F50E949B
:104A2000251A882351F081E060E04CE00E94850E59
:104A30008DE091E00E94A90F17C08091C8038630D5
:104A400051F481E060E04CE00E94850E83E091E04B
:104A50000E94A90F09C081E060E04CE00E94850E31
:104A600087E191E00E94A90F8091AA03882319F0A1
:104A70000E94F11904C00E94E21901C00000CF9108
:104A8000DF910895DF93CF93CDB7DEB783E590E054
:104A900023E530E0F90120812967FC01208387E3C9
:104AA00090E027E330E0F90120812860FC012083B9
:104AB0008CE590E02091380330913903FC0120838C
:104AC000CF91DF910895DF93CF93CDB7DEB780917B
:104AD0003A0390913B039C01285F3F4F80913C0338
:104AE00090913D032817390700F58091C6038F5F29
:104AF0008093C6031092C7038091C603843008F4E4
:104B000040C0809138039091390301969093390306
:104B1000809338031092C6038CE590E0209138030F
:104B200030913903FC0120832CC080913A0390918D
:104B30003B039C012850304080913C0390913D0301
:104B400082179307F0F41092C6038091C7038F5F1A
:104B50008093C7038091C703843098F08091380315
:104B60009091390301979093390380933803109201
:104B7000C7038CE590E02091380330913903FC01A4
:104B80002083CF91DF910895DF93CF93CDB7DEB728
:104B900081E390E021E330E0F9012081206EFC0107
:104BA000208380E090E00E941D26CF91DF91089540
:104BB000DF93CF93CDB7DEB782E390E022E330E01E
:104BC000F90120812064FC01208382E390E022E34C
:104BD00030E0F90120812F7BFC012083CF91DF9110
:104BE00008951F93DF93CF9300D0CDB7DEB782E354
:104BF00090E022E330E0F90120812068FC0120836D
:104C000081E089838981182F1A95F1F7198382E34E
:104C100090E022E330E0F90120812F77FC0120832E
:104C200081E08A838A81182F1A95F1F71A830F90F1
:104C30000F90CF91DF911F910895DF93CF9300D014
:104C40000F92CDB7DEB79B838A83198222C08A81F7
:104C50009B81992354F482E390E022E330E0F90150
:104C600020812062FC01208309C082E390E022E3DE
:104C700030E0F90120812F7DFC0120830E94D8259E
:104C80008A819B81880F991F9B838A8389818F5F8B
:104C9000898389818031D8F20E94F1250F900F908D
:104CA0000F90CF91DF910895DF93CF93CDB7DEB70B
:104CB0008091C2008F7D8093C2008091C3008F7766
:104CC0008093C3008091C2008F7E8093C200809148
:104CD000C2008F7B8093C2008091C2008F77809347
:104CE000C200CF91DF910895DF93CF93CDB7DEB7A8
:104CF0000E94520E1092C8038091C803882F90E042
:104D00000E949324CF91DF910895DF93CF93CDB785
:104D1000DEB78091C803882F90E08430910509F4B4
:104D20001FC18530910584F48130910511F18230E5
:104D300091050CF417C18230910509F441C083300C
:104D4000910509F480C01BC18730910509F4A7C003
:104D5000883091052CF48630910509F495C00FC177
:104D60008830910509F4D0C08930910509F4DEC07E
:104D700006C10E94251A8823E9F02091890030910C
:104D80008A0080918B0090918C00A901481B590BDF
:104D9000CA01CC01A0E0B0E08093E4039093E50366
:104DA000A093E603B093E70387E08093C8030E94D3
:104DB000C227E5C082E08093C8030E94C227DFC0FB
:104DC0000E94251A8823A9F0809140039091410305
:104DD000CC01A0E0B0E08093CD039093CE03A093EC
:104DE000CF03B093D00389E08093C8030E94C22709
:104DF00009C00E94191A882329F086E08093C8030D
:104E00000E94C2278091E4039091E503A091E603FC
:104E1000B091E7030097A105B10529F483E08093E1
:104E2000C8030E94C2278091DE039091DF03A09106
:104E3000E003B091E1030097A105B10509F094C02A
:104E40000E94C90C9CC08091E4039091E503A0915D
:104E5000E603B091E7030097A105B10529F481E0CD
:104E60008093C8030E94C2278091DE039091DF03E4
:104E7000A091E003B091E1030097A105B10509F00D
:104E800075C00E94C90C7BC00E94191A882309F0C2
:104E90006FC082E08093C8030E94C22770C00E9446
:104EA000251A882391F48091CD039091CE03A0918F
:104EB000CF03B091D0030097A105B10591F482E032
:104EC0008093C8030E94C2270CC08AE090E0A0E053
:104ED000B0E08093CD039093CE03A093CF03B09323
:104EE000D0038091E4039091E503A091E603B09193
:104EF000E7030097A105B10509F03CC083E080936A
:104F0000C8030E94C2273BC08091E4039091E5034F
:104F1000A091E603B091E7030097A105B10561F503
:104F200081E08093C8030E94C22729C08091CD03ED
:104F30009091CE03A091CF03B091D0030097A1052B
:104F4000B105E1F40E94251A882321F087E08093BF
:104F5000C80303C082E08093C8030E94C2270FC029
:104F600000000DC000000BC0000009C0000007C019
:104F7000000005C0000003C0000001C00000CF9188
:104F8000DF910895DF93CF93CDB7DEB78091C8034B
:104F9000882F90E08430910509F4CEC085309105CA
:104FA0008CF48130910541F1823091051CF4009719
:104FB000D1F00BC182309105C1F18330910509F424
:104FC00088C003C18730910509F4D9C088309105A4
:104FD0002CF48630910509F4C4C0F7C088309105DF
:104FE00009F4D6C0F2C00E9454268091C803882FCD
:104FF00090E00E949324E9C01092E4031092E5032C
:105000001092E6031092E7031092CD031092CE03A4
:105010001092CF031092D0038091C803882F90E0A4
:105020000E9493240E945426D0C00E94251A8823EF
:1050300031F087E08093C8030E94C227C6C00E9457
:10504000191A882331F086E08093C8030E94C22792
:10505000BCC00E949A082091890030918A008091FA
:105060008B0090918C00A901481B590BCA01CC01FF
:10507000A0E0B0E08093E4039093E503A093E603FF
:10508000B093E7030E9454268091C2008061809310
:10509000C2008091C20080628093C2008091C200F1
:1050A00088608093C2008091C803882F90E00E949E
:1050B000932480913E0390913F03CC01A0E0B0E0A7
:1050C0008093DE039093DF03A093E003B093E103AA
:1050D0007CC00E9461080E9454268091C2008064B6
:1050E0008093C2008091C20081608093C200809151
:1050F000C803882F90E00E94932480918B009091A8
:105100008C00CC01A0E0B0E08093E4039093E50331
:10511000A093E603B093E70380913E0390913F0391
:10512000CC01A0E0B0E08093DE039093DF03A09376
:10513000E003B093E10349C00E9461080E94542635
:105140008091C20080648093C2008091C300806817
:105150008093C3008091C803882F90E00E9493241D
:1051600034C00E9454268091C20080618093C200A6
:105170008091C803882F90E00E94932426C00E944B
:1051800054268091C803882F90E00E9493241DC06C
:105190000E9454268091C2008F778093C200809134
:1051A000C803882F90E00E9493248091E20390919D
:1051B000E303CC01A0E0B0E08093E4039093E50327
:1051C000A093E603B093E7030000CF91DF91089529
:1051D000DF93CF9300D0CDB7DEB79A8389838981DF
:1051E0009A81FC01808191810F900F90CF91DF9186
:1051F0000895DF93CF9300D000D0CDB7DEB79A8368
:1052000089837C836B8389819A812B813C81FC011A
:10521000318320830F900F900F900F90CF91DF91EB
:105220000895DF93CF9300D0CDB7DEB780916E03A2
:1052300090916F03CC01A0E0B0E0BC01CD010E94D1
:10524000C82CDC01CB01209174033091750340918F
:10525000760350917703BC01CD010E947E2DDC01C5
:10526000CB012091700330917103409172035091F2
:105270007303BC01CD010E94CC2BDC01CB01BC012E
:10528000CD010E949C2CDC01CB019A83898389810A
:105290009A8122E08F3E920720F08AEF90E09A8375
:1052A000898389819A810F900F90CF91DF91089522
:1052B000DF93CF93CDB7DEB727970FB6F894DEBF55
:1052C0000FBECDBF9F838E838E819F81CC01A0E0D6
:1052D000B0E02DB73EB72A5030400FB6F8943EBF2D
:1052E0000FBE2DBF2DB73EB72F5F3F4FAE014F5FB3
:1052F0005F4FF9015183408345E050E0F90153834A
:10530000428348E753E0F90155834483F9018683DA
:105310009783A087B1870E948D2E2DB73EB7265F59
:105320003F4F0FB6F8943EBF0FBE2DBF8E819F81B9
:105330008436910580F18981682F70E08A81482F39
:1053400050E08B81282F30E08DB79EB708970FB6BD
:10535000F8949EBF0FBE8DBF8DB79EB70196ECE748
:10536000F3E0DC01ED93FC93FC0173836283DC01C9
:1053700015965C934E931497FC01378326830E9405
:10538000CF112DB73EB7285F3F4F0FB6F8943EBF01
:105390000FBE2DBF3FC08E819F818A30910520F1C5
:1053A0008981482F50E08A81282F30E000D000D03A
:1053B00000D08DB79EB7019669E873E0DC016D936C
:1053C0007C93FC0153834283DC0115963C932E931E
:1053D00014970E94CF11EDB7FEB736960FB6F8942A
:1053E000FEBF0FBEEDBF16C08981282F30E000D070
:1053F00000D08DB79EB7019645E953E0DC014D938F
:105400005C93FC01338322830E94CF110F900F9095
:105410000F900F9027960FB6F894DEBF0FBECDBF4A
:10542000CF91DF9108950F931F93DF93CF93CDB763
:10543000DEB72A970FB6F894DEBF0FBECDBF0E942D
:1054400011299A83898389819A8121E0853F920776
:1054500020F084EF91E09A83898389819A81009773
:1054600011F41A82198289819A8122E330E0B9010C
:105470000E940C2E9B01C9018B8389819A8122E3B2
:1054800030E0B9010E940C2E8C838B81882F90E034
:10549000880F991F880F991F8E5B9C4FFC0180819C
:1054A0009181A281B3819C018B81882F90E001962C
:1054B000880F991F880F991F8E5B9C4FFC0180817C
:1054C0009181A281B381A901481B590BCA019E8316
:1054D0008D838B81882F90E0880F991F880F991FEB
:1054E0008E5B9C4FFC0100811181228133818D8173
:1054F0009E8142E350E0BA010E940C2EAB01BA013A
:105500008C81482F50E0649FC001659F900D749F6F
:10551000900D1124CC01A0E0B0E0B901A801481B16
:10552000590B6A0B7B0BDB01CA018F839887A98714
:10553000BA878F819885A985BA85BC01CD012A9645
:105540000FB6F894DEBF0FBECDBFCF91DF911F9194
:105550000F910895DF93CF93CDB7DEB785E490E048
:1055600025E430E0F90120812F60FC01208383E4F1
:1055700090E023E430E0F90120812D67FC012083D5
:1055800089E590E029E530E0F90120812068FC01FF
:105590002083CF91DF9108951F920F920FB60F9243
:1055A00011248F939F93AF93BF93DF93CF93CDB786
:1055B000DEB78091D2038D3709F044C081E080933B
:1055C000D1038091C9039091CA03A091CB03B091FC
:1055D000CC030097A105B10599F08091C903909182
:1055E000CA03A091CB03B091CC030197A109B109E3
:1055F0008093C9039093CA03A093CB03B093CC03C9
:105600008091CD039091CE03A091CF03B091D003B0
:105610000097A105B10599F08091CD039091CE033B
:10562000A091CF03B091D0030197A109B109809354
:10563000CD039093CE03A093CF03B093D0031092E9
:10564000D20305C08091D2038F5F8093D203CF91A4
:10565000DF91BF91AF919F918F910F900FBE0F90EF
:105660001F901895DF93CF93CDB7DEB780E490E01D
:10567000FC01108289E290E027E6FC0120838AE2A7
:1056800090E02AE230E0F90120812861FC012083CA
:105690008AE290E02AE230E0F90120812068FC01F2
:1056A000208380E490E020E430E0F9012081266846
:1056B000FC0120838CE89BE260E070E00E94422EB7
:1056C000CF91DF910895DF93CF930F92CDB7DEB7DF
:1056D000898300008BE290E0FC018081882F90E0BC
:1056E000807290700097B1F38CE290E02981FC0108
:1056F00020830F90CF91DF910895DF93CF93CDB7A3
:10570000DEB78BE290E0FC0180818CE290E0FC014E
:105710008081CF91DF910895DF93CF9300D00F92D6
:10572000CDB7DEB789837B836A8300008BE290E08C
:10573000FC018081882F90E0807290700097B1F317
:105740008CE290E02981FC01208380E090E00F90C2
:105750000F900F90CF91DF9108951F920F920FB687
:105760000F9211248F939F93EF93FF93DF93CF9327
:10577000CDB7DEB78CE290E0FC0180818093C4005D
:10578000CF91DF91FF91EF919F918F910F900FBE7D
:105790000F901F9018955058BB27AA270ED070C1A4
:1057A00061D130F066D120F031F49F3F11F41EF446
:1057B00056C10EF4E095E7FB4CC1E92F72D180F39E
:1057C000BA17620773078407950718F071F49EF5FE
:1057D0008AC10EF4E0950B2EBA2FA02D0B01B90152
:1057E00090010C01CA01A0011124FF27591B99F057
:1057F000593F50F4503E68F11A16F040A22F232F63
:10580000342F4427585FF3CF469537952795A795B2
:10581000F0405395C9F77EF41F16BA0B620B730B59
:10582000840BBAF09150A1F0FF0FBB1F661F771FCA
:10583000881FC2F70EC0BA0F621F731F841F48F47F
:10584000879577956795B795F7959E3F08F0B3CF05
:105850009395880F08F09927EE0F979587950895EF
:10586000D4D008F481E008950CD00AC102D140F0F0
:10587000F9D030F021F45F3F19F0EBC0511134C181
:10588000EEC00FD198F39923C9F35523B1F3951BBB
:10589000550BBB27AA2762177307840738F09F5F51
:1058A0005F4F220F331F441FAA1FA9F333D00E2EC0
:1058B0003AF0E0E830D091505040E695001CCAF72D
:1058C00029D0FE2F27D0660F771F881FBB1F2617F2
:1058D00037074807AB07B0E809F0BB0B802DBF01C5
:1058E000FF2793585F4F2AF09E3F510568F0B1C0E3
:1058F000FBC05F3FECF3983EDCF3869577956795A8
:10590000B795F7959F5FC9F7880F911D9695879575
:1059100097F90895E1E0660F771F881FBB1F621794
:1059200073078407BA0720F0621B730B840BBA0B52
:10593000EE1F88F7E0950895BCD088F09F5790F04F
:10594000B92F9927B751A0F0D1F0660F771F881FA4
:10595000991F1AF0BA95C9F712C0B13081F0C3D0BF
:10596000B1E00895C0C0672F782F8827B85F39F05D
:10597000B93FCCF3869577956795B395D9F73EF403
:1059800090958095709561957F4F8F4F9F4F0895AB
:10599000E89409C097FB3EF49095809570956195C9
:1059A0007F4F8F4F9F4F9923A9F0F92F96E9BB277F
:1059B0009395F695879577956795B795F111F8CFFB
:1059C000FAF4BB0F11F460FF1BC06F5F7F4F8F4F66
:1059D0009F4F16C0882311F096E911C0772321F05C
:1059E0009EE8872F762F05C0662371F096E8862FF4
:1059F00070E060E02AF09A95660F771F881FDAF74B
:105A0000880F9695879597F90895990F0008550F77
:105A1000AA0BE0E8FEEF16161706E807F907C0F034
:105A200012161306E407F50798F0621B730B840B3C
:105A3000950B39F40A2661F0232B242B252B21F416
:105A400008950A2609F4A140A6958FEF811D811DB6
:105A5000089597F99F6780E870E060E008959FEFF0
:105A600080EC089500240A941616170618060906F5
:105A7000089500240A9412161306140605060895C4
:105A8000092E0394000C11F4882352F0BB0F40F44C
:105A9000BF2B11F460FF04C06F5F7F4F8F4F9F4F8C
:105AA000089557FD9058440F551F59F05F3F71F00E
:105AB0004795880F97FB991F61F09F3F79F0879575
:105AC0000895121613061406551FF2CF4695F1DFFE
:105AD00008C0161617061806991FF1CF869571058E
