:100000000C9486030C9420080C9466070C94A303AC
:100010000C94652B0C94A3030C94A3030C94A303DE
:100020000C94A3030C9451070C94A3030C94A30306
:100030000C94A3030C94462C0C94A3030C94A303DC
:100040000C94E9030C94A3030C94A3030C94A30352
:100050000C94A3030000C0E0F0F838181838F8F04A
:10006000E0C0000000FFFFFFFF000000000000FFF5
:10007000FFFFFF0000071F3F7FF8E0C0C0E0F87FF0
:100080003F1F0700000000808080C0E0F8F8F8F80B
:10009000000000000000000101010101FFFFFFFF5F
:1000A000000000000000000000000000FFFFFFFF54
:1000B000000000000080E0F0F0783818181878F898
:1000C000F0E0C00000010101010080C0E0F0F87F15
:1000D0003F1F0F00E0F0F8FCFEDFCFC7C3C1C0C078
:1000E000C0C0C00000C0E0F0F83818181838F8F0A8
:1000F000E0C0000000000000000030303078FFFF5A
:10010000EFC78000000C3C7C7CF0E0C0C0E0F07FDA
:100110007F3F0F0000000000000000C0E0F8F8F88A
:10012000F80000000080E0F07C3E0F0701FFFFFFB9
:10013000FF000000070707070606060606FFFFFF89
:10014000FF0606060000F8F8F8F81818181818182E
:100150001800000000003F3F3F1F1C0C0C1C3CF827
:10016000F8F0C000000C3C7C7CF0E0C0C0E0F07F08
:100170007F3F0F0000C0E0F0F83818181838F8F08A
:10018000E0C0000000FFFFFFFF381C0C0C1C3CFC13
:10019000F8F0C00000071F3F7FF8E0C0C0E0F07F2C
:1001A0007F3F0F0000181818181818181818D8F8DA
:1001B000F8F8380000000000000000C0F8FEFF3F23
:1001C0000F0100000000000000F0FEFFFF0F010023
:1001D000000000000000C0F0F0F838181838F8F0FF
:1001E000F0C00000000083CFFFFF7C78787CFFFF29
:1001F000CF830000001F3F7F7FF0E0C0C0E0F07FB2
:100200007F3F1F000080E0F0F07838181838F8F0D1
:10021000E0C00000000F3F7FFFF0E0C0C0E070FFD3
:10022000FFFFFF0000183878F8E0C0C0E0F0FC7F66
:100230003F1F03000000000000000000000000005D
:1002400000E0E0E00000000000000000000000000E
:1002500000E0E0E0E0000000000000E0E0E0E0E0BE
:10026000E0E0E00000000000000000F0F8181818BE
:100270003830000000FE2020103E003173636363BD
:100280007F3E00000002728A8A8A0202FA0AFA0A93
:10029000FA0200000000F0204020F000E0301010D2
:1002A00030E0000000000700000017A045A7100084
:1002B000070500000000788484840100FC04F90430
:1002C000F800000000000000C0E0C0800000000056
:1002D0000000000000000000000103078FDEFCF8B2
:1002E0007020000000000000183C1E0F07030100F2
:1002F000000000000000000000000000000080C0BE
:10030000E0C00000000000002070F8FCDE8F070352
:1003100001000000000000000000000103070F1EA4
:100320003C18000000000000000000000000000079
:1003300000000000000000383838383838383838C5
:10034000383800000000000000000000000000003D
:10035000000000000000000000000000000000009D
:10036000000000000000000000000000000000008D
:10037000000000000000000000000000000000007D
:1003800000000000FFFFFFFFFF00FFFFFFFFFFFF78
:1003900000FFFFFFFFFFFF00FFFFFFFFFFFF00FF6A
:1003A000FFFFFFFFFF00FFFFFFFFFFFF00FFFFFF5B
:1003B000FFFFFF00FFFFFFFFFFFF00FFFFFFFFFF4B
:1003C000FF00FFFFFFFFFFFF00FFFFFFFFFFFF003A
:1003D000FFFFFFFFFFFF00FFFFFFFFFFFF00FFFF2B
:1003E000FFFFFFFF00FFFFFFFFFFFF00FFFFFFFF1B
:1003F000FFFF00FFFFFFFFFFFF00FFFFFFFFFFFF0B
:1004000000FFFFFFFFFFFF00FFFFFFFFFFFF00FFF9
:10041000FFFFFFFFFF00FFFFFFFFFFFF00FFFFFFEA
:10042000FFFFFF00FFFFFFFFFFFF00FFFFFFFFFFDA
:10043000FF00FFFFFFFFFFFF00FFFFFFFFFFFF00C9
:10044000FFFFFFFFFFFF00FFFFFFFFFFFF00FFFFBA
:10045000FFFFFFFF00FFFFFFFFFFFF00FFFFFFFFAA
:10046000FFFF00FF0000000000FFFF00004F000042
:1004700000FF000700070000FF147F147F1400FF37
:10048000242A7F2A1200FF231308646200FF3649E2
:1004900055222000FF000503000000FF001C224140
:1004A0000000FF0041221C0000FF14083E08140059
:1004B000FF08083E080800FF503000000000FF0859
:1004C0000808080800FF006060000000FF20100816
:1004D000040200FF3E5149453E00FF40427F40403C
:1004E00000FF426151494600FF2141454B3100FF69
:1004F0001814127F1000FF274545453900FF3C4A7C
:1005000049493000FF017109050300FF3649494997
:100510003600FF064949291E00FF0036360000005C
:10052000FF005636000000FF081422410000FF14AF
:100530001414141400FF004122140800FF0201519A
:10054000090600FF000002050200FF7E1111117E66
:1005500000FF7F4949493600FF3E4141412200FFEB
:100560007F4141221C00FF7F4949494100FF7F092B
:1005700009090100FF3E4149497A00FF7F08080848
:100580007F00FF00417F410000FF2040413F01000C
:10059000FF7F0814224100FF7F4040404000FF7F62
:1005A000020C027F00FF7F0408107F00FF3E4141E4
:1005B000413E00FF7F0909090600FF3E4151215ECF
:1005C00000FF7F0919294600FF264949493200FFEB
:1005D00001017F010100FF3F4040403F00FF1F201D
:1005E00040201F00FF3F4038403F00FF63140814C5
:1005F0006300FF070870080700FF61514945430089
:10060000FF007F41410000FF020408102000FF00AE
:1006100041417F0000FF040201020400FF4040400E
:10062000404000FF000003050000FF2054545478B0
:1006300000FF7F4444443800FF384444444400FFF2
:10064000384444447F00FF385454541800FF0404D5
:100650007E050500FF085454543C00FF7F08040445
:100660007800FF00447D4000FFFF2040443D00FF34
:10067000FF7F10284400FFFF417F4000FFFFFF7C09
:10068000047C047800FF7C0804047800FF384444AC
:10069000443800FF7C1414140800FF081414147C60
:1006A00000FF7C08040400FFFF485454542400FF5A
:1006B00004043F444400FF3C4040207C00FF1C20D9
:1006C00040201C00FF3C4030403C00FF44281028E4
:1006D0004400FF0C5050503C00FF4464544C440014
:1006E000FF083641410000FF000077000000FF00D6
:1006F0004141360800FF08082A1C0800FF081C2A90
:10070000080800FFFFFFFFFFFF00FF0011241FBECE
:10071000CFE5D8E0DEBFCDBF13E0A0E6B0E0E6E66F
:10072000F7E602C005900D92A63AB107D9F713E09B
:10073000A6EAB3E001C01D92A13FB107E1F70E9414
:10074000AA1A0C94B1330C940000DF93CF93CDB769
:10075000DEB7F89481E0CF91DF910895DF93CF93D6
:1007600000D0CDB7DEB79A8389838FE590E02981E9
:100770003A81F9012081FC0120830F900F90CF91E5
:10078000DF910895DF93CF93CDB7DEB786E290E097
:1007900026E230E0F90120812760FC01208387E216
:1007A00090E020E4FC01208386E290E026E230E045
:1007B000F90120812868FC01208386E290E026E28E
:1007C00030E0F90120812064FC012083CF91DF918A
:1007D00008951F920F920FB60F921124EF92FF927D
:1007E0000F931F932F933F934F935F936F937F9339
:1007F0008F939F93AF93BF93EF93FF93DF93CF9329
:1008000000D000D0CDB7DEB78FE590E0FC0180814D
:100810008C830E94A5038B8313C084E290E0FC01CB
:100820008081282F30E085E290E0FC018081882FD4
:1008300090E0982F8827822B932B9A8389831B82A1
:100840008B81882351F7CE0104960E94AE0387E284
:1008500090E0FC018081882F90E08034910529F0A0
:100860008134910509F447C08CC087E290E021E40F
:10087000FC01208380916E0390916F03CC01A0E076
:10088000B0E0BC01CD010E94612DDC01CB01BC01B7
:10089000CD012DEC3CEC4CE45FE30E94172EDC0113
:1008A000CB017C018D0189819A81CC01A0E0B0E06F
:1008B000BC01CD010E94612DDC01CB01BC01CD0149
:1008C0002DEC3CEC4CE45EE30E94172EDC01CB01E6
:1008D0009C01AD01C801B7010E94652CDC01CB0170
:1008E000BC01CD010E94352DDC01CB0190936F033B
:1008F00080936E0346C087E290E020E4FC012083F1
:1009000080913C0390913D03CC01A0E0B0E0BC019C
:10091000CD010E94612DDC01CB01BC01CD0120E0A5
:1009200030E040E05FE30E94172EDC01CB017C0148
:100930008D0189819A81CC01A0E0B0E0BC01CD019C
:100940000E94612DDC01CB01BC01CD0120E030E033
:1009500040E05FE30E94172EDC01CB019C01AD015A
:10096000C801B7010E94652CDC01CB01BC01CD019F
:100970000E94352DDC01CB0190933D0380933C0315
:10098000000086E290E026E230E0F9012081206458
:10099000FC0120832496DEBFCDBFCF91DF91FF9174
:1009A000EF91BF91AF919F918F917F916F915F91E7
:1009B0004F913F912F911F910F91FF90EF900F90CA
:1009C0000FBE0F901F901895DF93CF930F92CDB766
:1009D000DEB7898387E290E027E230E0F9012081E9
:1009E000322F307E29812F71232BFC01208386E258
:1009F00090E026E230E0F90120812064FC012083B0
:100A0000000086E290E0FC018081882F90E08071F8
:100A100090700097B1F386E290E026E230E0F901B1
:100A200020812061FC01208384E290E0FC01808130
:100A300091810F90CF91DF9108950F931F93DF93D2
:100A4000CF93CDB7DEB760970FB6F894DEBF0FBE79
:100A5000CDBF85E390E0FC0180818F8784E390E047
:100A6000FC018081888B87E390E027E330E0F90187
:100A700020812E7FFC01208388E390E028E330E092
:100A8000F90120812E7FFC01208384E390E0FC01AA
:100A9000108285E390E02FEFFC01208387E390E054
:100AA00027E330E0F90120812160FC01208388E305
:100AB00090E028E330E0F90120812E7FFC012083C3
:100AC00080E090E0A0E8BFE389839A83AB83BC8396
:100AD00069817A818B819C8120E030E04AE755E48E
:100AE0000E94172EDC01CB018D839E83AF83B887D4
:100AF00011E06D817E818F81988520E030E040E8B3
:100B00005FE30E94C92C88230CF010E0112329F028
:100B100081E090E09A87898746C011E06D817E81EF
:100B20008F81988520E03FEF4FE757E40E94132E16
:100B300018160CF010E0112361F169817A818B8124
:100B40009C8120E030E040E251E40E94172EDC015D
:100B5000CB01BC01CD010E94352DDC01CB019A8770
:100B6000898712C080E991E09C878B878B859C8563
:100B70008C01C8010197F1F78C011C870B878985CF
:100B80009A8501979A87898789859A85009751F771
:100B900017C06D817E818F8198850E94352DDC0183
:100BA000CB019A87898789859A859E878D878D85D0
:100BB0009E858C01F8013197F1F78F011E870D8713
:100BC00083E390E0FC01808180958093D20385E3EC
:100BD00090E02F85FC01208384E390E02889FC01CC
:100BE00020838091D20360960FB6F894DEBF0FBECB
:100BF000CDBFCF91DF911F910F910895DF93CF93D8
:100C000000D00F92CDB7DEB79A8389836B83898139
:100C10009A81FC0191818B819817D1F089819A8109
:100C2000FC0180818230A0F089819A812B81FC01B6
:100C3000218389819A81FC01108289819A81FC013A
:100C40008181882341F189819A81FC01818124C0BD
:100C500089819A81FC0191818B81981789F0898122
:100C60009A81FC018081823058F489819A81FC014B
:100C70008081282F2F5F89819A81FC0120830BC0FE
:100C800089819A81FC0191818B81981721F4898156
:100C90009A81FC01108280E00F900F900F90CF910D
:100CA000DF910895DF93CF930F92CDB7DEB719820E
:100CB0000E941D058093D2032091D20386EA93E01F
:100CC000622F0E94FE0589838981882F90E08430FD
:100CD000910509F462C0853091054CF4813091058D
:100CE00009F469C08230910509F45EC091C0803179
:100CF0009105C1F1813191052CF48830910509F4F9
:100D00003EC086C08032910599F08034910509F08B
:100D100070C08091C703882331F481E08093C703BA
:100D20000E945B2875C01092C7030E945B2870C0A8
:100D30008091B003882309F05EC08091C70384309E
:100D400031F481E08093C7030E945B2861C08091E9
:100D5000C703882309F451C084E08093C7030E942D
:100D60005B2856C08091B003882319F00E94801C34
:100D70004FC081E08093B0030E94821B49C08091E4
:100D8000C6008823E1F185E592E0909367028093A5
:100D9000660280E00E94FB1C3BC08091B003882368
:100DA00081F10E94F41B34C08091B003882359F173
:100DB0000E94B61C2DC08091B003882311F00E94C0
:100DC0002A1C8091B003882301F58091C7038032EB
:100DD00031F481E08093C7030E945B2819C08091A1
:100DE000C7038823A1F080E28093C7030E945B2899
:100DF0000FC000000DC000000BC0000009C00000C3
:100E000007C0000005C0000003C0000001C00000D2
:100E10000F90CF91DF910895DF93CF93CDB7DEB7D9
:100E2000F89481E0CF91DF910895DF93CF9300D0C4
:100E3000CDB7DEB79A8389838FE590E029813A8127
:100E4000F9012081FC0120830F900F90CF91DF9159
:100E50000895DF93CF93CDB7DEB71092A903109218
:100E6000A8030E94130985E590E025E530E0F9012B
:100E700020812A60FC0120838FE490E0FC01108235
:100E80008EE490E025E0FC01208389E590E029E5EF
:100E900030E0F90120812460FC012083CF91DF91B3
:100EA00008951F920F920FB60F9211248F93DF9324
:100EB000CF93CDB7DEB781E080938200CF91DF91F1
:100EC0008F910F900FBE0F901F9018951F920F9249
:100ED0000FB60F921124EF92FF920F931F932F934F
:100EE0003F934F935F936F937F938F939F93AF93B2
:100EF000BF93EF93FF93DF93CF9300D0CDB7DEB7CF
:100F00008FE590E0FC0180818A830E940C07898331
:100F10006BC08CE490E0FC01808191819093D403BC
:100F20008093D3038CE490E0FC01118210828091C5
:100F3000D3039091D4038D38910508F445C0809176
:100F4000D3039091D403CC01A0E0B0E0BC01CD016B
:100F50000E94612DDC01CB01BC01CD012DEC3CECEC
:100F60004CEC5DE30E94172EDC01CB017C018D016E
:100F70008091730090917400CC01A0E0B0E0BC01BE
:100F8000CD010E94612DDC01CB01BC01CD0126E623
:100F900036E646E65FE30E94172EDC01CB019C019A
:100FA000AD01C801B7010E94652CDC01CB01BC0179
:100FB000CD010E94352DDC01CB019093740080930C
:100FC00073001092AB030FC08091AB038F5F8093CF
:100FD000AB038091AB03853630F01092AB031092D7
:100FE00074001092730019828981882309F091CFCF
:100FF000CE0102960E941507109282008AE590E0C9
:101000002AE530E0F90120812068FC0120830F905F
:101010000F90CF91DF91FF91EF91BF91AF919F9191
:101020008F917F916F915F914F913F912F911F9180
:101030000F91FF90EF900F900FBE0F901F9018959B
:101040001F920F920FB60F921124EF92FF920F93FF
:101050001F932F933F934F935F936F937F938F9340
:101060009F93AF93BF93EF93FF93DF93CF9300D002
:10107000CDB7DEB78FE590E0FC0180818A830E94C6
:101080000C0789836BC08CE490E0FC018081918126
:101090009093D4038093D3038CE490E0FC011182FD
:1010A00010828091D3039091D4038D38910508F478
:1010B00045C08091710090917200CC01A0E0B0E039
:1010C000BC01CD010E94612DDC01CB01BC01CD0131
:1010D0002AE939E949E95EE30E94172EDC01CB01D8
:1010E0007C018D018091D3039091D403CC01A0E0C9
:1010F000B0E0BC01CD010E94612DDC01CB01BC013F
:10110000CD0123E333E343E35FE30E94172EDC01C9
:10111000CB019C01AD01C801B7010E94652CDC0127
:10112000CB01BC01CD010E94352DDC01CB01909398
:101130007200809371001092AB030FC08091AB03DB
:101140008F5F8093AB038091AB03853630F01092B4
:10115000AB0310927200109271001982898188236A
:1011600009F091CFCE0102960E94150710928200DD
:101170008AE590E02AE530E0F90120812064FC0155
:1011800020830F900F90CF91DF91FF91EF91BF914E
:10119000AF919F918F917F916F915F914F913F910F
:1011A0002F911F910F91FF90EF900F900FBE0F9016
:1011B0001F901895DF93CF93CDB7DEB78BE590E006
:1011C0002BE530E0F90120812F77FC0120838BE5AE
:1011D00090E02BE530E0F90120812064FC012083C0
:1011E00080918400882319F487E08093790010921D
:1011F000840081E0809370008091B003882381F4A3
:1012000080E063E041E20E94FE0E81E30E94BF0F96
:1012100080E064E04EE10E94FE0E80E20E94BF0F7B
:10122000CF91DF910895DF93CF93CDB7DEB78BE5F4
:1012300090E02BE530E0F90120812F7BFC01208339
:101240008BE590E02BE530E0F90120812068FC017E
:10125000208380918300882319F487E080937900AC
:1012600010928300109270008091B003882381F463
:1012700080E063E041E20E94FE0E80E20E94BF0F28
:1012800080E064E04EE10E94FE0E82E30E94BF0F08
:10129000CF91DF910895EF92FF920F931F93DF9309
:1012A000CF9300D000D0CDB7DEB780E090E0DC0176
:1012B00089839A83AB83BC8380917000813009F06D
:1012C000CBC080E061E04AE00E94FE0E8091710098
:1012D00090917200CC01A0E0B0E0BC01CD0146E0ED
:1012E0000E9441108091790061E0882309F060E05C
:1012F00080917100909172009C01329522952F701F
:1013000023273F70232740917100509172008091F4
:10131000750090917600FA01E81BF90BCF01992333
:101320001CF4909581959F4F41E02817390708F0EC
:1013300040E0862F84238823B1F180917100909141
:101340007200CC01A0E0B0E0BC01CD010E94612D93
:10135000DC01CB0120916400309165004091660072
:1013600050916700BC01CD010E94172EDC01CB011A
:1013700020916000309161004091620050916300C3
:10138000BC01CD010E94652CDC01CB0189839A83CD
:10139000AB83BC8380917100909172009093760032
:1013A0008093750036C080917900882329F0809160
:1013B000790081508093790080917500909176003A
:1013C000CC01A0E0B0E0BC01CD010E94612DDC01A8
:1013D000CB012091640030916500409166005091EE
:1013E0006700BC01CD010E94172EDC01CB012091CA
:1013F0006000309161004091620050916300BC0137
:10140000CD010E94652CDC01CB0189839A83AB83DB
:10141000BC8369817A818B819C8120E038E04EE831
:1014200056E40E94172EDC01CB017C018D010E9445
:10143000AC2ADC01CB01BC01CD010E94612D9B01D6
:10144000AC01C801B7010E94CD2CDC01CB0189831E
:101450009A83AB83BC83A8C080E061E04AE00E942D
:10146000FE0E8091730090917400CC01A0E0B0E07A
:10147000BC01CD0146E00E9441108091790061E0FD
:10148000882309F060E080917300909174009C01C2
:10149000329522952F7023273F70232740917300A8
:1014A000509174008091770090917800FA01E81BC8
:1014B000F90BCF0199231CF4909581959F4F41E042
:1014C0002817390708F040E0862F84238823B1F1DC
:1014D0008091730090917400CC01A0E0B0E0BC0159
:1014E000CD010E94612DDC01CB0120916C00309177
:1014F0006D0040916E0050916F00BC01CD010E94C3
:10150000172EDC01CB0120916800309169004091D9
:101510006A0050916B00BC01CD010E94652CDC017A
:10152000CB0189839A83AB83BC83809173009091B4
:101530007400909378008093770036C08091790092
:10154000882329F0809179008150809379008091DF
:10155000770090917800CC01A0E0B0E0BC01CD0113
:101560000E94612DDC01CB0120916C0030916D0057
:1015700040916E0050916F00BC01CD010E94172E6A
:10158000DC01CB01209168003091690040916A0034
:1015900050916B00BC01CD010E94652CDC01CB0198
:1015A00089839A83AB83BC8369817A818B819C8197
:1015B0000E94352DDC01CB01BC01CD010F900F90B5
:1015C0000F900F90CF91DF911F910F91FF90EF90AF
:1015D0000895DF93CF9300D000D0CDB7DEB70E943F
:1015E0004B09DC01CB01BC01CD010E94612DDC0166
:1015F000CB0189839A83AB83BC8329813A814B8158
:101600005C8160E074E284E799E40E94CD2CDC0107
:10161000CB0189839A83AB83BC8389819A81AB8117
:10162000BC81BC01CD010E94352DDC01CB01BC0188
:10163000CD010F900F900F900F90CF91DF910895F3
:10164000DF93CF93CDB7DEB780E090E00E944C31BE
:1016500021E08230920709F062C082E090E00E94AF
:101660003E318093AA0387E090E00E944631DC017E
:10167000CB018093700390937103A0937203B09396
:1016800073038BE090E00E944631DC01CB01809334
:10169000740390937503A0937603B093770383E06C
:1016A00090E00E944C31CC01A0E0B0E02CE330E0AF
:1016B00040E050E0BC01CD010E947A2EDC01CB015C
:1016C0008093850090938600A0938700B093880054
:1016D00085E090E00E943E31482F50E02CE330E05E
:1016E000429FC001439F900D529F900D11249093F3
:1016F0008A008093890086E090E00E943E31482F66
:1017000050E02CE330E0429FC001439F900D529F78
:10171000900D112490938C0080938B0002C00E9446
:10172000940BCF91DF910895DF93CF93CDB7DEB7C0
:1017300080E090E062E071E00E94673182E090E03A
:1017400060E00E9452318091850090918600A091C6
:101750008700B09188002CE330E040E050E0BC010D
:10176000CD010E94B92EDA01C9019C0183E090E00D
:10177000B9010E94673187E090E040E050E0BA0193
:101780000E945F318BE090E040E050E060E47FE356
:101790000E945F3180918B0090918C002CE330E0AF
:1017A000B9010E94A52E9B01C901282F85E090E078
:1017B000622F0E9452318091890090918A002CE31F
:1017C00030E0B9010E94A52E9B01C901282F86E0B7
:1017D00090E0622F0E945231CF91DF910895DF9304
:1017E000CF93CDB7DEB72091AA0382E090E0622FBD
:1017F0000E945231CF91DF910895DF93CF9300D0B3
:10180000CDB7DEB78091850090918600A0918700CA
:10181000B09188002CE330E040E050E0BC01CD0105
:101820000E94B92EDA01C9019A83898383E090E08E
:1018300029813A81B9010E9467310F900F90CF91B1
:10184000DF910895DF93CF93CDB7DEB7209170037A
:1018500030917103409172035091730387E090E0DF
:10186000BA01A9010E945F31209174033091750380
:1018700040917603509177038BE090E0BA01A90183
:101880000E945F3183E00E94820F809174039091E7
:101890007503A0917603B0917703BC01CD010E943E
:1018A000C91184E00E94820F8091700390917103AE
:1018B000A0917203B0917303BC01CD010E94C911C4
:1018C000CF91DF910895DF93CF93CDB7DEB78091AD
:1018D0008B0090918C002CE330E0B9010E94A52E82
:1018E0009B01C901282F85E090E0622F0E945231B0
:1018F000CF91DF910895DF93CF93CDB7DEB780917D
:10190000890090918A002CE330E0B9010E94A52E55
:101910009B01C901282F86E090E0622F0E9452317E
:10192000CF91DF910895DF93CF93CDB7DEB786E0F7
:1019300090E00E943E31482F50E02CE330E0429F7F
:10194000C001439F900D529F900D112490938A00E7
:1019500080938900CF91DF910895DF93CF93CDB726
:10196000DEB785E090E00E943E31482F50E02CE346
:1019700030E0429FC001439F900D529F900D112473
:1019800090938C0080938B00CF91DF910895DF932B
:10199000CF93CDB7DEB787E090E00E944631DC01FF
:1019A000CB018093700390937103A0937203B09363
:1019B00073038BE090E00E944631DC01CB01809301
:1019C000740390937503A0937603B0937703CF913C
:1019D000DF910895DF93CF930F92CDB7DEB780915B
:1019E000AD039091AE0301969093AE038093AD0347
:1019F0008091AD039091AE03863091050CF43EC00A
:101A00008091AF038F5F8093AF038091AF03898391
:101A100007C089818F5F89838981893008F01982A5
:101A20008091AC03882F90E02981222F30E0022E94
:101A300002C0959587950A94E2F78170907000979F
:101A400041F389818093AF0381E090E00E94820F8F
:101A50002DE830E08981882F90E0880F991FAC0134
:101A6000440F551F440F551F840F951F820F931F5E
:101A70000E9422101092AE031092AD030F90CF91EE
:101A8000DF910895DF93CF9300D000D0CDB7DEB7BC
:101A90000E944B09DC01CB0189839A83AB83BC8311
:101AA00089819A81AB81BC81803D27E0920720E04B
:101AB000A20720E0B20778F480917000813031F401
:101AC0008091AC0382608093AC0305C08091AC032D
:101AD00081608093AC030F900F900F900F90CF9187
:101AE000DF9108950F931F93DF93CF93CDB7DEB7A8
:101AF0006D970FB6F894DEBF0FBECDBF8AE390E0BE
:101B00002AE330E0F9012081206FFC01208384E387
:101B100090E0FC01808184E390E02FEFFC012083C2
:101B200087E390E027E330E0F90120812260FC01A7
:101B300020830E947B198FE30E942A150E9462195C
:101B40008FE30E942A1580E090E0A0E2B1E48A834E
:101B50009B83AC83BD836A817B818C819D8120E0E6
:101B600030E04AE753E40E94172EDC01CB018E835C
:101B70009F83A887B98711E06E817F8188859985C9
:101B800020E030E040E85FE30E94C92C88230CF09D
:101B900010E0112329F081E090E09B878A8746C0FE
:101BA00011E06E817F818885998520E03FEF4FE7C6
:101BB00057E40E94132E18160CF010E0112361F167
:101BC0006A817B818C819D8120E030E040E251E49C
:101BD0000E94172EDC01CB01BC01CD010E94352DE6
:101BE000DC01CB019B878A8712C089E190E09D8749
:101BF0008C878C859D858C01C8010197F1F78C013C
:101C00001D870C878A859B8501979B878A878A8594
:101C10009B85009751F717C06E817F8188859985D4
:101C20000E94352DDC01CB019B878A878A859B85A5
:101C30009F878E878E859F858C01F8013197F1F7FC
:101C40008F011F870E870E947B1980EC0E942A1546
:101C50000E94621980EC0E942A150E94CB0E83E03C
:101C60000E94820F8BEA90E00E94221081E089831B
:101C700083C080E090E0A0E2B1E4888B998BAA8BCE
:101C8000BB8B688979898A899B8920E030E04AE7A3
:101C900053E40E94172EDC01CB018C8B9D8BAE8B05
:101CA000BF8B11E06C897D898E899F8920E030E0AF
:101CB00040E85FE30E94C92C88230CF010E0112358
:101CC00029F081E090E0998F888F46C011E06C89FF
:101CD0007D898E899F8920E03FEF4FE757E40E947E
:101CE000132E18160CF010E0112361F16889798920
:101CF0008A899B8920E030E040E251E40E94172E5F
:101D0000DC01CB01BC01CD010E94352DDC01CB01F2
:101D1000998F888F12C089E190E09B8F8A8F8A8D7E
:101D20009B8D8C01C8010197F1F78C011B8F0A8FE5
:101D3000888D998D0197998F888F888D998D0097BF
:101D400051F717C06C897D898E899F890E94352D36
:101D5000DC01CB01998F888F888D998D9D8F8C8F19
:101D60008C8D9D8D8C01F8013197F1F78F011D8FBE
:101D70000C8F89818F5F898389818F3F09F079CFAB
:101D80006D960FB6F894DEBF0FBECDBFCF91DF9139
:101D90001F910F910895DF93CF9300D00F92CDB78D
:101DA000DEB78091D8038B831092D803198217C0B5
:101DB00089810E94820F1A820CC08A81803419F4B2
:101DC00081E00E945C0F80E00E9442168A818F5F52
:101DD0008A838A8188238CF789818F5F89838981AF
:101DE000883030F38B818093D80380E00E94820F8B
:101DF0000F900F900F90CF91DF910895DF93CF93C5
:101E000000D00F92CDB7DEB789836A834B83898177
:101E1000882319F08981813009F58A818830F0F4AE
:101E20008B818034D8F48981882319F40E947B192E
:101E300002C00E94621989818093D5038A81886BD0
:101E40008093D6038B8180648093D7038091D703DE
:101E50000E942A158091D6030E942A150F900F9098
:101E60000F90CF91DF910895DF93CF9300D000D0F2
:101E700000D0CDB7DEB79A8389837C836B835E8382
:101E80004D832091D50389819A81FC012083209183
:101E9000D6038B819C81FC0120832091D7038D8107
:101EA0009E81FC01208326960FB6F894DEBF0FBEFC
:101EB000CDBFCF91DF910895DF93CF930F92CDB730
:101EC000DEB789838981882319F089818130B1F453
:101ED0008981882319F40E947B1902C00E9462192B
:101EE00089818093D50380E48093D7038091D603C2
:101EF0000E942A158091D7030E942A150F90CF9136
:101F0000DF910895DF93CF930F92CDB7DEB789832A
:101F10008981883038F4898188548093D60380E0A1
:101F20000E945C0F0F90CF91DF910895DF93CF93C4
:101F3000CDB7DEB78091D6038F5F8093D6038091B3
:101F4000D603803C18F088EB8093D60380E00E9493
:101F50005C0FCF91DF910895DF93CF93CDB7DEB7BC
:101F60008FEF8093D803CF91DF910895DF93CF93C4
:101F7000CDB7DEB71092D803CF91DF9108951F93AC
:101F8000DF93CF93CDB7DEB727970FB6F894DEBFB8
:101F90000FBECDBF8F838091D503813021F4809116
:101FA000D7038C3718F48F818A3011F40E94960F72
:101FB0008F818A3009F43CC024E833E08F81882F78
:101FC00090E0AC01440F551F440F551F440F551F9F
:101FD000BA01681B790BCB01820F931F9A83898307
:101FE0008091D503882339F48091D703803819F480
:101FF00081E00E945C0F89819A819C838B83898117
:102000009A8101969A8389838B819C81FC0114912A
:102010001D838D818E838E818F3F49F08E810E943A
:1020200042168091D7038F5F8093D703D9CF0000EA
:1020300027960FB6F894DEBF0FBECDBFCF91DF91CC
:102040001F910895DF93CF9300D0CDB7DEB79A8369
:1020500089830CC089819A81FC01208189819A81C0
:1020600001969A838983822F0E94BF0F89819A816A
:10207000FC018081882371F70F900F90CF91DF9141
:1020800008950F931F93DF93CF93CDB7DEB760977B
:102090000FB6F894DEBF0FBECDBF6C877D878E87ED
:1020A0009F87488B19828C859D85AE85BF8500975B
:1020B000A105B105C1F419820DC08981882F90E076
:1020C0009E012E5F3F4F820F931FFC01108289817A
:1020D0008F5F898399818889981708F061C0898109
:1020E0008A3058F35DC0198244C08C859D85AE85C9
:1020F000BF850097A105B10549F18981082F10E03E
:102100008C859D85AE85BF852AE030E040E050E0BB
:10211000BC01CD010E94B92EDC01CB01282FCE01DC
:102120000296800F911FFC0120838C859D85AE85D2
:10213000BF852AE030E040E050E0BC01CD010E94C4
:10214000B92E2C873D874E875F8710C088898F3FC7
:1021500039F188898B3020F58981882F90E09E01A4
:102160002E5F3F4F820F931FFC01108289818F5F8A
:10217000898399818889981708F4B7CF11C089811C
:10218000882F90E001979E012E5F3F4F820F931F93
:10219000FC018081805D0E94BF0F8981815089830D
:1021A0008981882361F760960FB6F894DEBF0FBE71
:1021B000CDBFCF91DF911F910F910895DF93CF9302
:1021C000CDB7DEB760970FB6F894DEBF0FBECDBFB8
:1021D0006C877D878E879F87488B19828C859D852C
:1021E000AE85BF850097A105B105C1F419820DC068
:1021F0008981882F90E09E012E5F3F4F820F931FB1
:10220000FC01108289818F5F898399818889981761
:1022100008F072C089818A3058F36EC019823BC0C1
:102220008C859D85AE85BF850097A105B105F1F030
:102230008981882F90E02C85422F4F709E012E5F60
:102240003F4F820F931FFC0140838C859D85AE8597
:10225000BF85689413F8B695A795979587951694BA
:10226000D1F78C879D87AE87BF8712C088898F3F43
:1022700009F442C088898B3008F03EC08981882FDC
:1022800090E09E012E5F3F4F820F931FFC01108252
:1022900089818F5F898399818889981708F4C0CFD5
:1022A0002BC08981882F90E001979E012E5F3F4FC0
:1022B000820F931FFC0180818A3068F08981882F0A
:1022C00090E001979E012E5F3F4F820F931FFC010C
:1022D0008081895C0CC08981882F90E001979E01E4
:1022E0002E5F3F4F820F931FFC018081805D0E9413
:1022F000BF0F8981815089838981882391F66096F7
:102300000FB6F894DEBF0FBECDBFCF91DF91089519
:10231000DF93CF9300D000D000D0CDB7DEB76A8373
:102320007B838C839D834E8328C08E81882F90E091
:102330009C012150304081E090E002C0880F991F3D
:102340002A95E2F79C01442737FD4095542F8A8156
:102350009B81AC81BD8182239323A423B52321E0FB
:102360000097A105B10509F420E029838981805DEA
:102370000E94BF0F8E8181508E838E818823A9F6A3
:1023800026960FB6F894DEBF0FBECDBFCF91DF917A
:1023900008951F93DF93CF93CDB7DEB728970FB67D
:1023A000F894DEBF0FBECDBF6D837E838F83988789
:1023B00011E06D817E818F81988520E030E0A90158
:1023C0000E94C92C88230CF010E0112361F08DE2EB
:1023D0000E94BF0F8D819E81AF81B885BF778D83AD
:1023E0009E83AF83B8876D817E818F8198850E949F
:1023F000352DDC01CB0189839A83AB83BC83898132
:102400009A81AB81BC81BC01CD014FEF0E9441108C
:102410008EE20E94BF0F69817A818B819C810E942C
:10242000612D9B01AC016D817E818F8198850E9419
:10243000642CDC01CB018D839E83AF83B8876D81D3
:102440007E818F81988520E034E244E759E40E9440
:10245000172EDC01CB01BC01CD010E94352DDC0122
:10246000CB0189839A83AB83BC8389819A81AB81B9
:10247000BC81BC01CD014FEF0E94411028960FB6E0
:10248000F894DEBF0FBECDBFCF91DF911F910895AD
:10249000DF93CF93CDB7DEB768970FB6F894DEBF62
:1024A0000FBECDBFCE014F96988F8F8B8D8D9E8D99
:1024B0009A838983BEC189819A81FC018081898741
:1024C0008985853209F0ADC189819A8101969A8307
:1024D000898389819A81FC018081898789858033FC
:1024E00000F189858A33E8F41A8614C08A85880F3A
:1024F000982F990F990F980F8985890F80538A8794
:1025000089819A8101969A83898389819A81FC01C4
:10251000808189878985803338F089858A3330F3D3
:1025200004C08FEF8A8701C000008985882F90E062
:102530008835910509F4F1C08935910504F5843495
:10254000910509F470C08534910564F482349105D5
:1025500009F419C1833491058CF58532910509F48C
:102560005CC162C18335910509F445C1853591058A
:1025700009F4A2C08634910509F424C155C18636F8
:10258000910509F41FC1873691055CF483369105E6
:10259000A9F08436910509F18236910509F4D7C076
:1025A00043C18537910509F470C08837910509F456
:1025B0009DC08337910509F41EC136C18F89988D5E
:1025C0009C012E5F3F4F388F2F8BFC0180819181C2
:1025D000898789850E94BF0F27C18F89988D9C01AB
:1025E0002E5F3F4F388F2F8BFC01808191819C8320
:1025F0008B838B819C81992354F48B819C81909552
:1026000081959F4F9C838B838DE20E94BF0F8B81AE
:102610009C81AA2797FDA095BA2FBC01CD014A85C0
:102620000E94411001C18F89988D9C012C5F3F4F02
:10263000388F2F8BFC0180819181A281B3818D83A2
:102640009E83AF83B8878D819E81AF81B885BB2380
:1026500094F48D819E81AF81B885B095A0959095B9
:1026600081959F4FAF4FBF4F8D839E83AF83B887B8
:102670008DE20E94BF0F8D819E81AF81B885BC0124
:10268000CD014A850E944110CFC08F89988D9C0151
:102690002E5F3F4F388F2F8BFC01808191819C876B
:1026A0008B878B859C85CC01A0E0B0E0BC01CD017F
:1026B0004A850E944110B8C08F89988D9C012C5F7B
:1026C0003F4F388F2F8BFC0180819181A281B38194
:1026D0008D879E87AF87B88B8D859E85AF85B8899E
:1026E000BC01CD014A850E9441109EC08F89988D02
:1026F0009C012E5F3F4F388F2F8BFC018081918191
:102700009C878B878B859C85CC01A0E0B0E0BC01C9
:10271000CD014A850E94DE1087C08F89988D9C016B
:102720002C5F3F4F388F2F8BFC0180819181A281DC
:10273000B3818D879E87AF87B88B8D859E85AF854A
:10274000B889BC01CD014A850E94DE106DC08F8919
:10275000988D9C012E5F3F4F388F2F8BFC0180811D
:1027600091819C878B878A858F3F11F480E18A87CE
:102770008B859C85CC01A0E0B0E0BC01CD014A85F1
:102780000E94881151C08F89988D9C012C5F3F4F0A
:10279000388F2F8BFC0180819181A281B3818D873D
:1027A0009E87AF87B88B8A858F3F11F480E18A8737
:1027B0008D859E85AF85B889BC01CD014A850E9473
:1027C000881132C08F89988D9C012C5F3F4F388FC4
:1027D0002F8BFC0180819181A281B381898B9A8B9F
:1027E000AB8BBC8B89899A89AB89BC89BC01CD0133
:1027F0000E94C91119C08F89988D9C012E5F3F4F8F
:10280000388F2F8BFC01808191819E8B8D8B8D89E0
:102810009E890E942210000007C085E20E94BF0F1F
:1028200003C089850E94BF0F89819A8101969A838E
:10283000898389819A81FC018081882309F03BCEBC
:1028400068960FB6F894DEBF0FBECDBFCF91DF9173
:102850000895DF93CF9300D0CDB7DEB7198216C0AD
:1028600089810E94820F1A820BC08A81803411F400
:102870000E94621980E00E9442168A818F5F8A83DB
:102880008A81882394F789818F5F89838981883041
:1028900038F380E00E94820F0F900F90CF91DF916C
:1028A0000895DF93CF93CDB7DEB729970FB6F8948D
:1028B000DEBF0FBECDBF888769878885843008F06A
:1028C0006FC08985853608F06BC088858295880F32
:1028D000807E8B838B81803410F41D8205C081E063
:1028E0008D838B8180548B838B81982F985F8D8112
:1028F00060E0492F0E94FE0E8985882F90E0A0E0BD
:10290000B0E0BC01CD0143E00E944110898586956D
:10291000898789858695869586958E8397E08E81B1
:10292000292F281B822F8F8381E0898336C08B81DA
:10293000982F945F8D816981492F0E94FE0E9981A5
:102940008F81981710F41C821AC099818F81981773
:10295000A1F4898587708C838C81882F90E028E092
:1029600030E0281B390B8FEF90E0022E02C0880F59
:10297000991F0A94E2F78C8302C08FEF8C831A822E
:1029800006C08C810E9442168A818F5F8A838A8169
:102990008C30B8F389818F5F89838981883038F2E0
:1029A00029960FB6F894DEBF0FBECDBFCF91DF9151
:1029B0000895DF93CF9300D000D0CDB7DEB78B83DF
:1029C0006C838B81880F8F5F8A838B818430D8F5ED
:1029D0008C818536C0F580E06A8140E00E94FE0E61
:1029E00019820CC08981803419F481E00E945C0F47
:1029F0008FEF0E94421689818F5F898399818C8134
:102A0000981780F38C8189830CC08981803419F4F4
:102A100081E00E945C0F80E00E94421689818F5FF6
:102A200089838981843688F381E06A814EE60E9439
:102A3000FE0E8C81882F90E0A0E0B0E0BC01CD01BB
:102A400043E00E9441100F900F900F900F90CF9194
:102A5000DF9108950F931F93DF93CF93CDB7DEB728
:102A600069970FB6F894DEBF0FBECDBF898F0E9465
:102A70005D1785E390E0298DFC0120838BE390E0D6
:102A80002BE330E0F90120812F77FC0120838BE3D9
:102A900090E02BE330E0F90120812F7BFC012083C3
:102AA0008BE390E02BE330E0F90120812062FC0110
:102AB000208380E090E0A0E0B0E489839A83AB8338
:102AC000BC8369817A818B819C812BEA3AEA4AEA4C
:102AD0005EE30E94172EDC01CB018D839E83AF83C2
:102AE000B88711E06D817E818F81988520E030E08C
:102AF00040E85FE30E94C92C88230CF010E011230A
:102B000019F081E08987A3C011E06D817E818F81FA
:102B1000988520E030E04FE753E40E94132E18160A
:102B20000CF010E0112309F489C069817A818B814E
:102B30009C8120E030E04AE754E40E94CD2CDC0187
:102B4000CB018A879B87AC87BD876A857B858C850F
:102B50009D8520E030E04AE753E40E94172EDC0117
:102B6000CB018E879F87A88BB98B11E06E857F85FF
:102B70008889998920E030E040E85FE30E94C92C11
:102B800088230CF010E0112329F081E090E09B8B6A
:102B90008A8B46C011E06E857F858889998920E0FF
:102BA0003FEF4FE757E40E94132E18160CF010E089
:102BB000112361F16A857B858C859D8520E030E05D
:102BC00040E251E40E94172EDC01CB01BC01CD0193
:102BD0000E94352DDC01CB019B8B8A8B12C089E1D1
:102BE00090E09D8B8C8B8C899D898C01C80101970D
:102BF000F1F78C011D8B0C8B8A899B8901979B8B2C
:102C00008A8B8A899B89009751F728C06E857F85BA
:102C1000888999890E94352DDC01CB019B8B8A8B99
:102C20008A899B899F8B8E8B8E899F898C01F80165
:102C30003197F1F78F011F8B0E8B10C06D817E8154
:102C40008F8198850E94352DDC01CB01898789858C
:102C5000888F888D182F1A95F1F7188F8BE390E0E5
:102C60002BE330E0F90120812F7DFC012083699660
:102C70000FB6F894DEBF0FBECDBFCF91DF911F918D
:102C80000F9108950F931F93DF93CF93CDB7DEB7C6
:102C900069970FB6F894DEBF0FBECDBF898F0E9433
:102CA0005D1785E390E03091D803298D2327FC013F
:102CB00020838BE390E02BE330E0F9012081206852
:102CC000FC0120838BE390E02BE330E0F9012081CD
:102CD0002F7BFC0120838BE390E02BE330E0F901B4
:102CE00020812062FC01208380E090E0A0E0B0E43D
:102CF00089839A83AB83BC8369817A818B819C8130
:102D00002BEA3AEA4AEA5EE30E94172EDC01CB0185
:102D10008D839E83AF83B88711E06D817E818F8123
:102D2000988520E030E040E85FE30E94C92C8823CA
:102D30000CF010E0112319F081E08987A3C011E0A5
:102D40006D817E818F81988520E030E04FE753E4EC
:102D50000E94132E18160CF010E0112309F489C0FC
:102D600069817A818B819C8120E030E04AE754E4DC
:102D70000E94CD2CDC01CB018A879B87AC87BD8765
:102D80006A857B858C859D8520E030E04AE753E4A9
:102D90000E94172EDC01CB018E879F87A88BB98BF1
:102DA00011E06E857F858889998920E030E040E8D0
:102DB0005FE30E94C92C88230CF010E0112329F056
:102DC00081E090E09B8B8A8B46C011E06E857F8509
:102DD0008889998920E03FEF4FE757E40E94132E3E
:102DE00018160CF010E0112361F16A857B858C8543
:102DF0009D8520E030E040E251E40E94172EDC0186
:102E0000CB01BC01CD010E94352DDC01CB019B8B98
:102E10008A8B12C089E190E09D8B8C8B8C899D8977
:102E20008C01C8010197F1F78C011D8B0C8B8A89ED
:102E30009B8901979B8B8A8B8A899B89009751F785
:102E400028C06E857F85888999890E94352DDC018F
:102E5000CB019B8B8A8B8A899B899F8B8E8B8E89DA
:102E60009F898C01F8013197F1F78F011F8B0E8B31
:102E700010C06D817E818F8198850E94352DDC0187
:102E8000CB0189878985888F888D182F1A95F1F74E
:102E9000188F8BE390E02BE330E0F90120812F7D48
:102EA000FC01208369960FB6F894DEBF0FBECDBF3C
:102EB000CF91DF911F910F9108950F931F93DF938F
:102EC000CF93CDB7DEB7E2970FB6F894DEBF0FBE53
:102ED000CDBF8AE0898384E390E024E330E0F90108
:102EE00020812F77FC0120838BE390E02BE330E0FF
:102EF000F90120812F77FC0120838BE390E02BE305
:102F000030E0F90120812064FC0120838BE390E014
:102F10002BE330E0F90120812F7DFC01208380E04C
:102F200090E0A0E0B0E48B839C83AD83BE836B8193
:102F30007C818D819E812BEA3AEA4AEA5EE30E9417
:102F4000172EDC01CB018F839887A987BA8711E000
:102F50006F81788589859A8520E030E040E85FE3DD
:102F60000E94C92C88230CF010E0112319F081E095
:102F70008B87A3C011E06F81788589859A8520E0D1
:102F800030E04FE753E40E94132E18160CF010E0C7
:102F9000112309F489C06B817C818D819E8120E0A1
:102FA00030E04AE754E40E94CD2CDC01CB018C8751
:102FB0009D87AE87BF876C857D858E859F8520E048
:102FC00030E04AE753E40E94172EDC01CB01888BE6
:102FD000998BAA8BBB8B11E0688979898A899B8937
:102FE00020E030E040E85FE30E94C92C88230CF029
:102FF00010E0112329F081E090E09D8B8C8B46C07E
:1030000011E0688979898A899B8920E03FEF4FE741
:1030100057E40E94132E18160CF010E0112361F1F2
:103020006C857D858E859F8520E030E040E251E40F
:103030000E94172EDC01CB01BC01CD010E94352D71
:10304000DC01CB019D8B8C8B12C089E190E09F8BC2
:103050008E8B8E899F898C01C8010197F1F78C01B5
:103060001F8B0E8B8C899D8901979D8B8C8B8C89F6
:103070009D89009751F728C0688979898A899B8939
:103080000E94352DDC01CB019D8B8C8B8C899D8919
:10309000998F888F888D998D8C01F8013197F1F780
:1030A0008F01198F088F10C06F81788589859A8567
:1030B0000E94352DDC01CB018B878B858A8F8A8D11
:1030C000182F1A95F1F71A8F8BE390E02BE330E07D
:1030D000F90120812062FC01208380E090E0A0E0E3
:1030E000B0E48B8F9C8FAD8FBE8F6B8D7C8D8D8D63
:1030F0009E8D2BEA3AEA4AEA5EE30E94172EDC0133
:10310000CB018F8F98A3A9A3BAA311E06F8D78A1EB
:1031100089A19AA120E030E040E85FE30E94C92C39
:1031200088230CF010E0112319F081E08BA3A3C0D9
:1031300011E06F8D78A189A19AA120E030E04FE7DE
:1031400053E40E94132E18160CF010E0112309F41A
:1031500089C06B8D7C8D8D8D9E8D20E030E04AE79F
:1031600054E40E94CD2CDC01CB018CA39DA3AEA323
:10317000BFA36CA17DA18EA19FA120E030E04AE712
:1031800053E40E94172EDC01CB0188A799A7AAA7B8
:10319000BBA711E068A579A58AA59BA520E030E032
:1031A00040E85FE30E94C92C88230CF010E0112353
:1031B00029F081E090E09DA78CA746C011E068A5AA
:1031C00079A58AA59BA520E03FEF4FE757E40E9431
:1031D000132E18160CF010E0112361F16CA17DA1E3
:1031E0008EA19FA120E030E040E251E40E94172E22
:1031F000DC01CB01BC01CD010E94352DDC01CB01EE
:103200009DA78CA712C089E190E09FA78EA78EA5ED
:103210009FA58C01C8010197F1F78C011FA70EA78C
:103220008CA59DA501979DA78CA78CA59DA5009712
:1032300051F728C068A579A58AA59BA50E94352DC0
:10324000DC01CB019DA78CA78CA59DA599AB88AB74
:1032500088A999A98C01F8013197F1F78F0119AB71
:1032600008AB10C06F8D78A189A19AA10E94352D5D
:10327000DC01CB018BA38BA18AAB8AA9182F1A95ED
:10328000F1F71AAB83E390E0FC018081881F882767
:10329000881F8A838A81882309F038CE84E390E0EE
:1032A00024E330E0F90120812068FC012083E296CC
:1032B0000FB6F894DEBF0FBECDBFCF91DF911F9147
:1032C0000F910895DF93CF93CDB7DEB78BE390E0F6
:1032D0002BE330E0F90120812061FC01208388E3A9
:1032E00090E028E330E0F90120812D7FFC0120836C
:1032F000CF91DF910895DF93CF93CDB7DEB788E309
:1033000090E028E330E0F90120812260FC01208375
:103310008BE390E02BE330E0F90120812F7EFC016C
:103320002083CF91DF910895EF92FF920F931F9327
:10333000DF93CF93CDB7DEB760970FB6F894DEBFBB
:103340000FBECDBF888B8091D7038D838091D6032C
:103350008B831F861C8224E530E08889682F70E00B
:1033600040E350E0649FC001659F900D749F900DF5
:103370001124820F931F9A83898388898A30B1F53B
:1033800001C000008F858F5F8F8789819A819F831D
:103390008E8389819A8101969A8389838E819F8108
:1033A0008C01F801E590F4908F01F986E8861F837F
:1033B0000E83888599858A878A850E9442168F8523
:1033C000883108F068C08F8596E0692F0E94992E99
:1033D000892F8823B1F68B818F5F8B838D810E942B
:1033E0002A158B810E942A15CDCF00008F858F5F13
:1033F0008F8789819A819C878B8789819A810196A1
:103400009A8389838B859C858C01F801E590F490E3
:103410008F01FE86ED861C870B878D859E858A87AA
:103420008A850E9442168091D7038F5F8093D703CD
:103430008091D70391E0803809F090E02091D50386
:1034400081E0222309F080E08923882329F081E0AC
:103450000E945C0F81E08C838F858033F0F48F8530
:103460008F70882309F0C1CF8B818F5F8B838C8114
:10347000882321F080E00E945C0F1C828D81809364
:10348000D7038B818093D6038D810E942A158B816F
:103490000E942A15ABCF000001C0000060960FB655
:1034A000F894DEBF0FBECDBFCF91DF911F910F917A
:1034B000FF90EF900895DF93CF93CDB7DEB781E013
:1034C00062E040E30E94FE0E8BE00E949419CF91CF
:1034D000DF910895DF93CF93CDB7DEB781E062E04F
:1034E00040E30E94FE0E8CE00E949419CF91DF9180
:1034F0000895DF93CF93CDB7DEB787E390E027E35E
:1035000030E0F90120812F79FC01208388E390E0ED
:1035100028E330E0F90120812066FC012083CF916F
:10352000DF910895DF93CF93CDB7DEB786E390E0C8
:10353000FC0180818072CF91DF910895DF93CF935A
:10354000CDB7DEB786E390E0FC0180818074CF9137
:10355000DF910895DF93CF9300D0CDB7DEB7789495
:103560000E943D268091C2009091C3000E94962641
:103570000E94720D0E94BB250E94CB2B0E94C203A9
:103580000E94432B0E94200B0E94791A1A821982F2
:1035900007C00E94520689819A8101969A83898385
:1035A00089819A8121E0843F920798F31092C600A6
:1035B0000BC00E9452068091D003882329F01092FC
:1035C000D00380E00E94FB1C8091B103882389F71F
:1035D0000E94ED260E94290701C000000E945206A9
:1035E0008091D0038823C9F30E94DC258091E303F6
:1035F0009091E403A091E503B091E6030097A10543
:10360000B10599F08091E3039091E403A091E50363
:10361000B091E6030197A109B1098093E303909368
:10362000E403A093E503B093E6038091CC0390916B
:10363000CD03A091CE03B091CF030097A105B105B2
:1036400099F08091CC039091CD03A091CE03B091DD
:10365000CF030197A109B1098093CC039093CD03C7
:10366000A093CE03B093CF038091DD039091DE034E
:10367000A091DF03B091E0030097A105B10599F097
:103680008091DD039091DE03A091DF03B091E00310
:103690000197A109B1098093DD039093DE03A09304
:1036A000DF03B093E0031092D0030E94FE268091C6
:1036B000AC03882311F00E94EA0C8091B0038823A8
:1036C00021F40E9480250E943A228091C3008295B5
:1036D0008695869583708170982F81E08927817007
:1036E00081708295880F880F807C9091C3009F7BAA
:1036F000892B8093C3008091C2009091C3000E94E7
:1037000096266CCFDF93CF930F92CDB7DEB70E9492
:10371000CB0E80E00E94820F80916602909167023A
:10372000FC01828193810E942210198255C0209150
:103730006602309167028981882F90E0880F991F77
:10374000820F931F0596FC0180819181009709F4F7
:103750003FC08091660290916702FC01948189814B
:103760009817E9F40E94AC0F89818E5F0E94820F46
:1037700020916602309167028981882F90E0880F3E
:10378000991F820F931F0596FC0180819181FC0196
:10379000828193810E9422100E94B60F1AC08981F3
:1037A0008E5F0E94820F20916602309167028981AC
:1037B000882F90E0880F991F820F931F0596FC01B8
:1037C00080819181FC01828193810E94221001C03D
:1037D000000089818F5F89838981853008F4A7CFB4
:1037E0000F90CF91DF910895DF93CF930F92CDB7D4
:1037F000DEB78091B403882321F082E00E94FB1C95
:1038000025C08091660290916702FC0124812F5FA0
:10381000FC012483FC01848189832091660230911C
:1038200067028981882F90E0880F991F820F931F6C
:103830000596FC0180819181009731F480916602A8
:1038400090916702FC0114820E94821B0F90CF911D
:10385000DF910895DF93CF9300D0CDB7DEB780918D
:10386000B403882321F081E00E94FB1C44C08091B6
:10387000660290916702FC0184818A838A810E949A
:10388000FC2B8A81882369F5198227C02091660262
:10389000309167028981882F90E0880F991F820FED
:1038A000931F0596FC0180819181009799F4809186
:1038B00066029091670229812150FC012483809146
:1038C000660290916702FC0184810E94FC2B0E9499
:1038D000821B11C089818F5F898389818530B0F215
:1038E0000AC080916602909167022A812150FC01F2
:1038F00024830E94821B0F900F90CF91DF91089537
:10390000DF93CF93CDB7DEB78091B403882321F046
:1039100084E00E94FB1C27C08091660290916702A0
:10392000FC0180819181009771F0809166029091F5
:103930006702FC0180819181909367028093660207
:103940000E94821B10C01092B0030E94CB0E0E94F6
:103950003A222CE035E28091C703882F90E0F901EC
:1039600009950E948025CF91DF910895DF93CF9331
:103970000F92CDB7DEB78091B403882321F083E0A6
:103980000E94FB1C34C08091660290916702FC018A
:103990008481898320916602309167028981882F12
:1039A00090E0880F991F820F931F0596FC0180817C
:1039B0009181FC01858196810097B1F0209166028A
:1039C000309167028981882F90E0880F991F820FBC
:1039D000931F0596FC0180819181909367028093EB
:1039E00066020E94821B03C080E00E94FB1C0F90B5
:1039F000CF91DF910895EF92FF920F931F93DF9382
:103A0000CF930F92CDB7DEB78983809166029091F4
:103A1000670222E08535920709F044C2898184302B
:103A200049F41092B1031092B4030E94CB0E10928D
:103A3000B00370C48091B403882F90E08230910568
:103A400009F496C0833091053CF4009791F08130E1
:103A5000910509F43FC05EC48430910509F455C155
:103A6000843091050CF4FCC08530910509F4A1C1A6
:103A700051C481E08093B0030E94CB0E80E00E948D
:103A8000820F88E692E00E94221081E00E94820F5D
:103A90008EE792E00E94221086E00E94820F8FE85B
:103AA00092E00E94221087E00E94820F87EA92E053
:103AB0000E94221080E063E048E20E94FE0E0E9415
:103AC000AA290E94F12981E08093B40381E08093C8
:103AD000B10320C480E063E048E20E94FE0E0E9431
:103AE000AA290E94F1298981833009F004C48091B8
:103AF0006E0390916F03CC01A0E0B0E0BC01CD015A
:103B00000E94612DDC01CB018093B5039093B60335
:103B1000A093B703B093B8030E94AA299093B3036C
:103B20008093B2030E94CB0E80E00E94820F88E651
:103B300092E00E94221086E00E94820F80EB92E0C9
:103B40000E94221087E00E94820F88EC92E00E947F
:103B5000221080E063E048E20E94FE0E8091B203F2
:103B60009091B3030E94F12982E08093B403D2C301
:103B70008981882F90E082309105E1F083309105B2
:103B800071F18130910509F0B8C38091B203909131
:103B9000B30301969093B3038093B20380E063E094
:103BA00048E20E94FE0E8091B2039091B3030E94FE
:103BB000F12955C08091B2039091B303019790937E
:103BC000B3038093B20380E063E048E20E94FE0EFC
:103BD0008091B2039091B3030E94F12940C080917B
:103BE000B2039091B303CC01A0E0B0E0BC01CD01E1
:103BF0000E94612DDC01CB018093B9039093BA033D
:103C0000A093BB03B093BC030E94CB0E80E00E9444
:103C1000820F88E692E00E94221081E00E94820FCB
:103C20008BED92E00E94221086E00E94820F8FE8C6
:103C300092E00E94221087E00E94820F87EA92E0C1
:103C40000E94221080E063E048E20E94FE0E0E9483
:103C5000AA290E94F12983E08093B40300005AC38B
:103C600080E063E048E20E94FE0E0E94AA290E94C2
:103C7000F1298981833009F042C380916E039091CC
:103C80006F03CC01A0E0B0E0BC01CD010E94612D2A
:103C9000DC01CB018093BD039093BE03A093BF03CF
:103CA000B093C0030E94AA299093B3038093B203F8
:103CB0000E94CB0E80E00E94820F88E692E00E9474
:103CC000221081E00E94820F8BED92E00E94221070
:103CD00086E00E94820F80EB92E00E94221087E033
:103CE0000E94820F88EC92E00E94221080E063E044
:103CF00048E20E94FE0E8091B2039091B3030E94AD
:103D0000F12984E08093B40305C38981882F90E072
:103D100082309105E1F08330910571F18130910598
:103D200009F0EFC28091B2039091B3030196909392
:103D3000B3038093B20380E063E048E20E94FE0E8A
:103D40008091B2039091B3030E94F12930C0809119
:103D5000B2039091B30301979093B3038093B2039E
:103D600080E063E048E20E94FE0E8091B2039091F1
:103D7000B3030E94F1291BC08091B2039091B30359
:103D8000CC01A0E0B0E0BC01CD010E94612DDC01BE
:103D9000CB018093C1039093C203A093C303B0935C
:103DA000C4030E94CB0E85E08093B40300000000A2
:103DB000B1C28091C1039091C203A091C303B0919D
:103DC000C4032091B9033091BA034091BB035091D1
:103DD000BC03BC01CD010E94642CDC01CB017C0141
:103DE0008D018091BD039091BE03A091BF03B0915E
:103DF000C0032091B5033091B6034091B7035091B1
:103E0000B803BC01CD010E94642CDC01CB019C01F4
:103E1000AD01C801B7010E94CD2CDC01CB0180931C
:103E2000740390937503A0937603B0937703E090A7
:103E3000B903F090BA030091BB031091BC038091C9
:103E4000740390917503A0917603B091770320914C
:103E5000B5033091B6034091B7035091B803BC014C
:103E6000CD010E94172EDC01CB019C01AD01C801E0
:103E7000B7010E94642CDC01CB0180937003909306
:103E80007103A0937203B09373030E94220C0E94EB
:103E9000C70C1092B1030E94CB0E1092B003109287
:103EA000B40338C28091660290916702E2E08131EA
:103EB0009E0719F588E398E0ABE0B0E080938500B9
:103EC00090938600A0938700B09388001092B0036F
:103ED0008EE292E090936702809366020E94CB0E7E
:103EE0000E943A222CE035E28091C703882F90E0AF
:103EF000F90109950E9480250DC28091660290917A
:103F00006702F1E08E3C9F0709F06CC08091660269
:103F100090916702FC0184818823D9F41092B00348
:103F20001092AA038EE292E0909367028093660259
:103F30000E94EF0B0E94CB0E0E943A222CE035E249
:103F40008091C703882F90E0F90109950E94802590
:103F500023C08091660290916702FC0184818130C8
:103F6000D9F481E08093AA031092B0038EE292E02C
:103F700090936702809366020E94EF0B0E94CB0E23
:103F80000E943A222CE035E28091C703882F90E00E
:103F9000F90109950E94802580917000813089F493
:103FA00080E063E041E20E94FE0E81E30E94BF0FC9
:103FB00080E064E04EE10E94FE0E80E20E94BF0FAE
:103FC000A9C180E063E041E20E94FE0E80E20E940F
:103FD000BF0F80E064E04EE10E94FE0E82E30E948B
:103FE000BF0F98C18091660290916702F1E0893E0F
:103FF0009F0709F08FC18091660290916702FC01D2
:104000008481813009F0AFC08091B403882F90E0A3
:10401000009729F08130910509F441C07BC10E94CD
:10402000CB0E80E00E94820F809166029091670221
:10403000FC0187819085FC01828193810E9422107E
:1040400086E00E94820F80EB92E00E94221087E0BF
:104050000E94820F8DEE92E00E94221081E063E0C8
:1040600045E00E94FE0E00D08DB79EB7019622E07B
:1040700033E0FC01318320830E9448120F900F909F
:1040800080E063E048E20E94FE0E809189009091FA
:104090008A000E94922181E08093B4033BC1898110
:1040A000882F90E08230910581F18330910524F4CE
:1040B0008130910551F02EC18330910509F444C03F
:1040C0008430910509F448C025C180918900909100
:1040D0008A00F8E380349F0708F015C180918900B9
:1040E00090918A00069690938A008093890080E0E0
:1040F00063E048E20E94FE0E1092A70380918900BF
:1041000090918A000E94922105C18091890090912E
:104110008A008C33910508F4F8C080918900909151
:104120008A000A9790938A008093890080E063E078
:1041300048E20E94FE0E1092A703809189009091A0
:104140008A000E949221E6C00E947B0C1092B40368
:104150000E94821B0000DEC00E94930C1092B403E8
:104160000E94821BD7C08091660290916702FC0179
:104170008481823009F0CEC08091B403882F90E012
:10418000009729F08130910509F44CC0C3C00E940A
:10419000CB0E80E00E94820F8091660290916702B0
:1041A000FC0187819085FC01828193810E9422100D
:1041B00086E00E94820F80EB92E00E94221087E04E
:1041C0000E94820F89E093E00E94221081E067E064
:1041D00044E10E94FE0E8091890090918A000E9425
:1041E000922181E063E045E00E94FE0E00D08DB791
:1041F0009EB7019622E033E0FC01318320830E94C8
:1042000048120F900F9080E063E048E20E94FE0E9B
:1042100080918B0090918C000E94922181E080938C
:10422000B40378C08981882F90E082309105B1F184
:104230008330910524F48130910551F06BC08330B7
:10424000910509F449C08430910509F44CC062C05D
:104250008091890090918A009C0126503040809185
:104260008B0090918C008217930708F050C08091CA
:104270008B0090918C00069690938C0080938B001D
:1042800080E063E048E20E94FE0E1092A703809156
:104290008B0090918C000E9492213CC080918B00F9
:1042A00090918C008C339105A0F180918B009091BE
:1042B0008C000A9790938C0080938B0080E063E0E1
:1042C00048E20E94FE0E1092A70380918B0090910D
:1042D0008C000E9492211EC00E94630C1092B403B5
:1042E0000E94821B17C00E94AD0C1092B4030E9462
:1042F000821B00000FC000000DC000000BC00000BA
:1043000009C0000007C0000005C0000003C0000095
:1043100001C000000F90CF91DF911F910F91FF908E
:10432000EF900895DF93CF9300D000D0CDB7DEB7E4
:104330009C838B838B819C8120E13EE0B9010E94AC
:10434000A52E9B01C90189838981482F50E020E176
:104350003EE0429FC001439F900D529F900D11245B
:104360002B813C81A901481B590BCA019C838B837B
:104370008B819C812CE330E0B9010E94A52E9B012A
:10438000C9018A8389818823B9F48981282F30E083
:1043900000D000D08DB79EB7019647E153E0FC01F5
:1043A00051834083FC01338322830E9448120F9083
:1043B0000F900F900F9016C08981282F30E000D009
:1043C00000D08DB79EB7019649E153E0FC015183BF
:1043D0004083FC01338322830E9448120F900F9088
:1043E0000F900F908A81882371F400D08DB79EB70B
:1043F00001962CE133E0FC01318320830E944812B6
:104400000F900F9030C08A818A30B8F48A81282FAB
:1044100030E000D000D08DB79EB7019640E253E067
:10442000FC0151834083FC01338322830E944812A4
:104430000F900F900F900F9016C08A81282F30E0B8
:1044400000D000D08DB79EB7019645E253E0FC0145
:1044500051834083FC01338322830E9448120F90D2
:104460000F900F900F900F900F900F900F90CF9193
:10447000DF910895DF93CF93CDB7DEB72A970FB6BC
:10448000F894DEBF0FBECDBF80E067E04AE00E9437
:10449000FE0E0E94AA290E94F12980918500909128
:1044A0008600A0918700B091880081312EE09207AC
:1044B00020E0A20720E0B20708F44CC08091C703B7
:1044C000823099F48091850090918600A0918700B8
:1044D000B09188000197A109B1098093850090935C
:1044E0008600A0938700B093880081E067E044E1F4
:1044F0000E94FE0E8091850090918600A091870019
:10450000B091880020E13EE040E050E0BC01CD01E8
:104510000E94B92EDA01C90100D000D000D02DB719
:104520003EB72F5F3F4F49E253E0F901518340838B
:10453000F90182839383A483B5830E9448128DB7C7
:104540009EB706960FB6F8949EBF0FBE8DBF0E9411
:10455000FD0B17C081E067E044E10E94FE0E00D031
:104560008DB79EB7019621E333E0FC0131832083B0
:104570000E9448120F900F908091AC03846080934A
:10458000AC0380918200882309F010C28091AA03B5
:10459000813009F01EC10E944B09DC01CB018B83E5
:1045A0009C83AD83BE838B819C81AD81BE818D3523
:1045B000F4E49F07F0E0AF07F0E0BF0740F088E1C8
:1045C00097E4A0E0B0E08B839C83AD83BE838B81B6
:1045D0009C81AD81BE81883C9105A105B105B0F5F6
:1045E00088EC90E0A0E0B0E08B839C83AD83BE8339
:1045F00080E062E04DE20E94FE0E80E190E00E94C9
:10460000941980E062E04CE30E94FE0E8EE090E0A0
:104610000E94941981E062E04CE00E94FE0E80E06E
:1046200090E00E94941981E062E04BE10E94FE0E4E
:104630008AE090E00E94941981E062E040E20E94EA
:10464000FE0E82E090E00E949419DDC181E062E0FC
:104650004AE00E94FE0E8AE090E00E9494198B814D
:104660009C81AD81BE8120E137E240E050E0BC0199
:10467000CD010E94B92EDA01C90189838B819C8109
:10468000AD81BE8120E137E240E050E0BC01CD01C8
:104690000E94B92EDC01CB018B839C83AD83BE834A
:1046A0008981882359F080E062E04AE20E94FE0E90
:1046B0008981882F90E00E94941909C080E062E00F
:1046C0004AE20E94FE0E80E190E00E9494198B81E4
:1046D0009C81AD81BE8128EE33E040E050E0BC011A
:1046E000CD010E94B92EDA01C90189838B819C8199
:1046F000AD81BE8128EE33E040E050E0BC01CD0149
:104700000E94B92EDC01CB018B839C83AD83BE83D9
:1047100080E062E04AE30E94FE0E8981882F90E0EB
:104720000E9494198B819C81AD81BE8124E630E08A
:1047300040E050E0BC01CD010E94B92EDA01C90170
:1047400089838B819C81AD81BE8124E630E040E08D
:1047500050E0BC01CD010E94B92EDC01CB018B835E
:104760009C83AD83BE8381E062E040E10E94FE0E47
:104770008981882F90E00E9494198B819C81AD8162
:10478000BE812AE030E040E050E0BC01CD010E9453
:10479000B92EDA01C90189838B819C81AD81BE81EB
:1047A0002AE030E040E050E0BC01CD010E94B92E8B
:1047B000DC01CB018B839C83AD83BE8381E062E00F
:1047C00040E20E94FE0E8981882F90E00E94941999
:1047D0001AC10E94E90ADC01CB018F839887A9875F
:1047E000BA878F819885A985BA858C339105A105F3
:1047F000B10540F487E390E0A0E0B0E08F839887B4
:10480000A987BA878F819885A985BA85893823E1D8
:10481000920720E0A20720E0B20770F180E062E09A
:1048200044E30E94FE0E80E190E00E94941980E033
:1048300062E049E20E94FE0E80E190E00E9494193D
:1048400081E062E041E00E94FE0E80E190E00E9483
:10485000941981E062E040E10E94FE0E8DE090E05C
:104860000E94941981E062E040E20E94FE0E85E021
:1048700090E00E949419C7C080E062E04AE30E9481
:10488000FE0E8AE090E00E9494198F819885A98598
:10489000BA8528EE33E040E050E0BC01CD010E9433
:1048A000B92EDA01C9018A838F819885A985BA85D5
:1048B00028EE33E040E050E0BC01CD010E94B92E6B
:1048C000DC01CB018F839887A987BA8780E062E0FB
:1048D00049E20E94FE0E8A81882F90E00E9494197E
:1048E0008F819885A985BA8524E630E040E050E0C4
:1048F000BC01CD010E94B92EDA01C9018A838F81E2
:104900009885A985BA8524E630E040E050E0BC01F6
:10491000CD010E94B92EDC01CB018F839887A98736
:10492000BA8781E062E040E00E94FE0E8A81882F13
:1049300090E00E9494198F819885A985BA852AE014
:1049400030E040E050E0BC01CD010E94B92EDA0118
:10495000C9018A838F819885A985BA852AE030E0CC
:1049600040E050E0BC01CD010E94B92EDC01CB013A
:104970008F839887A987BA8781E062E040E10E942F
:10498000FE0E8A81882F90E00E9494198F8198856D
:10499000A985BA858A8381E062E040E20E94FE0E2A
:1049A0008A81882F90E00E9494192DC081E062E0F6
:1049B00040E20E94FE0E8FE090E00E94941981E098
:1049C00062E040E10E94FE0E8FE090E00E949419A8
:1049D00081E062E040E00E94FE0E8FE090E00E94E5
:1049E000941980E062E042E30E94FE0E80E190E0D4
:1049F0000E94941980E062E047E20E94FE0E80E18E
:104A000090E00E9494192A960FB6F894DEBF0FBE6C
:104A1000CDBFCF91DF910895DF93CF930F92CDB7A4
:104A2000DEB789838091B003882309F064C089814F
:104A3000882F90E083309105A9F1843091054CF4E2
:104A400081309105F9F08230910524F5009791F0BD
:104A500053C086309105B1F18730910524F484303C
:104A6000910541F149C087309105A1F18830910548
:104A7000C9F142C080E00E94820F8BED90E00E945D
:104A800022103AC080E00E94820F85EE90E00E94E2
:104A9000221032C080E00E94820F81ED90E00E94DF
:104AA00022102AC080E00E94820F8FEE90E00E94C8
:104AB000221022C080E00E94820F89EF90E00E94C5
:104AC00022101AC080E00E94820F85EE90E00E94C2
:104AD000221012C080E00E94820F85EE90E00E94BA
:104AE00022100AC080E00E94820F81E291E00E94C1
:104AF0002210000001C000000F90CF91DF910895B7
:104B0000DF93CF93CDB7DEB78091B003882379F5DB
:104B10000E949E1A882351F081E060E04CE00E94E0
:104B2000FE0E8DE091E00E94221017C08091C70315
:104B3000863051F481E060E04CE00E94FE0E83E09C
:104B400091E00E94221009C081E060E04CE00E94E8
:104B5000FE0E87E191E00E9422108091AA03882333
:104B600019F00E946A1A04C00E945B1A01C000007A
:104B7000CF91DF910895DF93CF93CDB7DEB783E573
:104B800090E023E530E0F90120812967FC012083D2
:104B900087E390E027E330E0F90120812860FC0101
:104BA00020838CE590E02091380330913903FC019B
:104BB0002083CF91DF910895DF93CF93CDB7DEB7F8
:104BC00080913A0390913B039C01285F3F4F809175
:104BD0003C0390913D032817390700F58091C503E8
:104BE0008F5F8093C5031092C6038091C503843004
:104BF00008F440C080913803909139030196909356
:104C00003903809338031092C5038CE590E020911E
:104C1000380330913903FC0120832CC080913A0382
:104C200090913B039C012850304080913C0390912F
:104C30003D0382179307F0F41092C5038091C603D9
:104C40008F5F8093C6038091C603843098F0809173
:104C50003803909139030197909339038093380377
:104C60001092C6038CE590E020913803309139030F
:104C7000FC012083CF91DF910895DF93CF93CDB7CF
:104C8000DEB781E390E021E330E0F9012081206E7E
:104C9000FC01208380E090E00E949626CF91DF9176
:104CA0000895DF93CF93CDB7DEB782E390E022E3A0
:104CB00030E0F90120812064FC01208382E390E050
:104CC00022E330E0F90120812F7BFC012083CF918A
:104CD000DF9108951F93DF93CF9300D0CDB7DEB758
:104CE00082E390E022E330E0F90120812068FC01BA
:104CF000208381E089838981182F1A95F1F7198320
:104D000082E390E022E330E0F90120812F77FC017B
:104D1000208381E08A838A81182F1A95F1F71A83FC
:104D20000F900F90CF91DF911F910895DF93CF9354
:104D300000D00F92CDB7DEB79B838A83198222C041
:104D40008A819B81992354F482E390E022E330E04E
:104D5000F90120812062FC01208309C082E390E0F8
:104D600022E330E0F90120812F7DFC0120830E94A5
:104D700051268A819B81880F991F9B838A83898111
:104D80008F5F898389818031D8F20E946A260F90D3
:104D90000F900F90CF91DF910895DF93CF93CDB710
:104DA000DEB78091C2008F7D8093C2008091C300E6
:104DB0008F778093C3008091C2008F7E8093C20062
:104DC0008091C2008F7B8093C2008091C2008F7758
:104DD0008093C200CF91DF910895DF93CF93CDB739
:104DE000DEB70E94CB0E1092C7038091C703882FB5
:104DF00090E00E940C25CF91DF910895DF93CF932F
:104E0000CDB7DEB78091C703882F90E0843091053D
:104E100009F43FC18530910584F48130910511F189
:104E2000823091050CF437C18230910509F441C0FC
:104E30008330910509F480C03BC18730910509F4A6
:104E4000C7C0883091052CF48630910509F495C0CF
:104E50002FC18830910509F4F0C08930910509F41B
:104E6000FEC026C10E949E1A8823E9F02091890085
:104E700030918A0080918B0090918C00A901481B91
:104E8000590BCA01CC01A0E0B0E08093E3039093FA
:104E9000E403A093E503B093E60387E08093C703A0
:104EA0000E945B2805C182E08093C7030E945B28B3
:104EB000FFC00E949E1A8823A9F080914003909120
:104EC0004103CC01A0E0B0E08093CC039093CD03EC
:104ED000A093CE03B093CF0389E08093C7030E94D1
:104EE0005B2809C00E94921A882329F086E08093EB
:104EF000C7030E945B288091E3039091E403A09193
:104F0000E503B091E6030097A105B10529F483E01C
:104F10008093C7030E945B288091DD039091DE039C
:104F2000A091DF03B091E0030097A105B10509F05E
:104F3000B4C00E94420DBCC08091E3039091E40391
:104F4000A091E503B091E6030097A105B10529F40E
:104F500081E08093C7030E945B288091DD039091DC
:104F6000DE03A091DF03B091E0030097A105B10536
:104F700009F095C00E94420D9BC00E94921A88239E
:104F800029F482E08093C7030E945B280E949E1A46
:104F9000882309F486C02091890030918A0080918D
:104FA0008B0090918C00A901481B590BCA01CC01C0
:104FB000A0E0B0E08093E3039093E403A093E503C3
:104FC000B093E60387E08093C7030E945B2870C01C
:104FD0000E949E1A882391F48091CC039091CD0376
:104FE000A091CE03B091CF030097A105B10591F434
:104FF00082E08093C7030E945B280CC08AE090E0A7
:10500000A0E0B0E08093CC039093CD03A093CE03B7
:10501000B093CF038091E3039091E403A091E50363
:10502000B091E6030097A105B10509F03CC083E00B
:105030008093C7030E945B283BC08091E30390915B
:10504000E403A091E503B091E6030097A105B10543
:1050500061F581E08093C7030E945B2829C080919D
:10506000CC039091CD03A091CE03B091CF030097D4
:10507000A105B105E1F40E949E1A882321F087E082
:105080008093C70303C082E08093C7030E945B281C
:105090000FC000000DC000000BC0000009C00000E0
:1050A00007C0000005C0000003C0000001C00000F0
:1050B000CF91DF910895DF93CF93CDB7DEB7809185
:1050C000C703882F90E08430910509F4CEC0853065
:1050D00091058CF48130910541F1823091051CF4E9
:1050E0000097D1F00BC182309105C1F18330910559
:1050F00009F488C003C18730910509F4D9C088300C
:1051000091052CF48630910509F4C4C0F7C08830AD
:10511000910509F4D6C0F2C00E94CD268091C70344
:10512000882F90E00E940C25E9C01092E3031092B2
:10513000E4031092E5031092E6031092CC03109260
:10514000CD031092CE031092CF038091C703882F16
:1051500090E00E940C250E94CD26D0C00E949E1A8D
:10516000882331F087E08093C7030E945B28C6C084
:105170000E94921A882331F086E08093C7030E9430
:105180005B28BCC00E9413092091890030918A00DD
:1051900080918B0090918C00A901481B590BCA018A
:1051A000CC01A0E0B0E08093E3039093E403A093EC
:1051B000E503B093E6030E94CD268091C200806192
:1051C0008093C2008091C20080628093C20080916F
:1051D000C20088608093C2008091C703882F90E04E
:1051E0000E940C2580913E0390913F03CC01A0E0EA
:1051F000B0E08093DD039093DE03A093DF03B093D0
:10520000E0037CC00E94DA080E94CD268091C20093
:1052100080648093C2008091C20081608093C2004C
:105220008091C703882F90E00E940C2580918B000D
:1052300090918C00CC01A0E0B0E08093E3039093C8
:10524000E403A093E503B093E60380913E039091BD
:105250003F03CC01A0E0B0E08093DD039093DE0338
:10526000A093DF03B093E00349C00E94DA080E94D4
:10527000CD268091C20080648093C2008091C300DB
:1052800080688093C3008091C703882F90E00E94BC
:105290000C2534C00E94CD268091C200806180938D
:1052A000C2008091C703882F90E00E940C2526C081
:1052B0000E94CD268091C703882F90E00E940C2584
:1052C0001DC00E94CD268091C2008F778093C200BE
:1052D0008091C703882F90E00E940C258091E10304
:1052E0009091E203CC01A0E0B0E08093E3039093BF
:1052F000E403A093E503B093E6030000CF91DF91B0
:105300000895DF93CF9300D0CDB7DEB79A8389831A
:1053100089819A81FC01808191810F900F90CF91BA
:10532000DF910895DF93CF9300D000D0CDB7DEB7E3
:105330009A8389837C836B8389819A812B813C81C9
:10534000FC01318320830F900F900F900F90CF912D
:10535000DF910895DF93CF9300D0CDB7DEB7809172
:105360006E0390916F03CC01A0E0B0E0BC01CD01D1
:105370000E94612DDC01CB012091740330917503F3
:105380004091760350917703BC01CD010E94172E06
:10539000DC01CB01209170033091710340917203C5
:1053A00050917303BC01CD010E94652CDC01CB013F
:1053B000BC01CD010E94352DDC01CB019A8389838C
:1053C00089819A8122E08F3E920720F08AEF90E057
:1053D0009A83898389819A810F900F90CF91DF9171
:1053E0000895DF93CF93CDB7DEB727970FB6F89424
:1053F000DEBF0FBECDBF9F838E838E819F81CC0188
:10540000A0E0B0E02DB73EB72A5030400FB6F89478
:105410003EBF0FBE2DBF2DB73EB72F5F3F4FAE0132
:105420004F5F5F4FF9015183408345E050E0F90140
:105430005383428348E753E0F90155834483F901DC
:1054400086839783A087B1870E94262F2DB73EB70A
:10545000265F3F4F0FB6F8943EBF0FBE2DBF8E8123
:105460009F818436910580F18981682F70E08A815F
:10547000482F50E08B81282F30E08DB79EB70897DA
:105480000FB6F8949EBF0FBE8DBF8DB79EB7019625
:10549000ECE7F3E0DC01ED93FC93FC0173836283A2
:1054A000DC0115965C934E931497FC013783268399
:1054B0000E9448122DB73EB7285F3F4F0FB6F894B1
:1054C0003EBF0FBE2DBF3FC08E819F818A309105A8
:1054D00020F18981482F50E08A81282F30E000D0C8
:1054E00000D000D08DB79EB7019669E873E0DC016B
:1054F0006D937C93FC0153834283DC0115963C93AE
:105500002E9314970E944812EDB7FEB736960FB649
:10551000F894FEBF0FBEEDBF16C08981282F30E082
:1055200000D000D08DB79EB7019645E953E0DC016D
:105530004D935C93FC01338322830E9448120F90A9
:105540000F900F900F9027960FB6F894DEBF0FBE06
:10555000CDBFCF91DF9108950F931F93DF93CF932A
:10556000CDB7DEB72A970FB6F894DEBF0FBECDBF1A
:105570000E94AA299A83898389819A8121E0853FA3
:10558000920720F084EF91E09A83898389819A8140
:10559000009711F41A82198289819A8122E330E0FE
:1055A000B9010E94A52E9B01C9018B8389819A8133
:1055B00022E330E0B9010E94A52E8C838B81882FD5
:1055C00090E0880F991F880F991F8E5B9C4FFC01FC
:1055D00080819181A281B3819C018B81882F90E091
:1055E0000196880F991F880F991F8E5B9C4FFC01B5
:1055F00080819181A281B381A901481B590BCA0105
:105600009E838D838B81882F90E0880F991F880F50
:10561000991F8E5B9C4FFC01008111812281338197
:105620008D819E8142E350E0BA010E94A52EAB011C
:10563000BA018C81482F50E0649FC001659F900D96
:10564000749F900D1124CC01A0E0B0E0B901A80135
:10565000481B590B6A0B7B0BDB01CA018F839887B0
:10566000A987BA878F819885A985BA85BC01CD01A4
:105670002A960FB6F894DEBF0FBECDBFCF91DF9153
:105680001F910F910895DF93CF93CDB7DEB785E4D7
:1056900090E025E430E0F90120812F60FC012083B7
:1056A00083E490E023E430E0F90120812D67FC01E0
:1056B000208389E590E029E530E0F9012081206828
:1056C000FC012083CF91DF9108951F920F920FB6B6
:1056D0000F9211248F939F93AF93BF93DF93CF9338
:1056E000CDB7DEB78091D1038D3709F044C081E09A
:1056F0008093D0038091C8039091C903A091CA03FD
:10570000B091CB030097A105B10599F08091C80332
:105710009091C903A091CA03B091CB030197A1094D
:10572000B1098093C8039093C903A093CA03B093AF
:10573000CB038091CC039091CD03A091CE03B09187
:10574000CF030097A105B10599F08091CC0390910A
:10575000CD03A091CE03B091CF030197A109B10968
:105760008093CC039093CD03A093CE03B093CF034B
:105770001092D10305C08091D1038F5F8093D10334
:10578000CF91DF91BF91AF919F918F910F900FBEFD
:105790000F901F901895DF93CF93CDB7DEB780E4BD
:1057A00090E0FC01108289E290E027E6FC01208372
:1057B0008AE290E02AE230E0F90120812861FC01D0
:1057C00020838AE290E02AE230E0F901208120681B
:1057D000FC01208380E490E020E430E0F9012081A6
:1057E0002668FC01208385E29CE260E070E00E9474
:1057F000DB2ECF91DF910895DF93CF930F92CDB73A
:10580000DEB7898300008BE290E0FC018081882F65
:1058100090E0807290700097B1F38CE290E0298163
:10582000FC0120830F90CF91DF910895DF93CF93F8
:10583000CDB7DEB78BE290E0FC0180818CE290E096
:10584000FC018081CF91DF910895DF93CF9300D049
:105850000F92CDB7DEB789837B836A8300008BE22A
:1058600090E0FC018081882F90E08072907000971A
:10587000B1F38CE290E02981FC01208380E090E08C
:105880000F900F900F90CF91DF9108951F920F927C
:105890000FB60F9211248F939F93EF93FF93DF9393
:1058A000CF93CDB7DEB78CE290E0FC01808180938E
:1058B000C400CF91DF91FF91EF919F918F910F9055
:1058C0000FBE0F901F9018955058BB27AA270ED0D7
:1058D00070C161D130F066D120F031F49F3F11F4F6
:1058E0001EF456C10EF4E095E7FB4CC1E92F72D1CE
:1058F00080F3BA17620773078407950718F071F4ED
:105900009EF58AC10EF4E0950B2EBA2FA02D0B0147
:10591000B90190010C01CA01A0011124FF27591BF4
:1059200099F0593F50F4503E68F11A16F040A22FFA
:10593000232F342F4427585FF3CF4695379527956B
:10594000A795F0405395C9F77EF41F16BA0B620B6A
:10595000730B840BBAF09150A1F0FF0FBB1F661FB1
:10596000771F881FC2F70EC0BA0F621F731F841FF4
:1059700048F4879577956795B795F7959E3F08F01A
:10598000B3CF9395880F08F09927EE0F97958795D9
:105990000895D4D008F481E008950CD00AC102D152
:1059A00040F0F9D030F021F45F3F19F0EBC0511115
:1059B00034C1EEC00FD198F39923C9F35523B1F345
:1059C000951B550BBB27AA2762177307840738F06E
:1059D0009F5F5F4F220F331F441FAA1FA9F333D0CD
:1059E0000E2E3AF0E0E830D091505040E695001C81
:1059F000CAF729D0FE2F27D0660F771F881FBB1F3D
:105A0000261737074807AB07B0E809F0BB0B802D16
:105A1000BF01FF2793585F4F2AF09E3F510568F062
:105A2000B1C0FBC05F3FECF3983EDCF38695779501
:105A30006795B795F7959F5FC9F7880F911D969564
:105A4000879597F90895E1E0660F771F881FBB1FC0
:105A5000621773078407BA0720F0621B730B840B6D
:105A6000BA0BEE1F88F7E0950895BCD088F09F57D9
:105A700090F0B92F9927B751A0F0D1F0660F771F9A
:105A8000881F991F1AF0BA95C9F712C0B13081F07A
:105A9000C3D0B1E00895C0C0672F782F8827B85FC2
:105AA00039F0B93FCCF3869577956795B395D9F7DB
:105AB0003EF490958095709561957F4F8F4F9F4FE5
:105AC0000895E89409C097FB3EF4909580957095F1
:105AD00061957F4F8F4F9F4F9923A9F0F92F96E93A
