:100000000C9486030C94D0070C9416070C94A3034D
:100010000C946C270C94A3030C94A3030C94A303DB
:100020000C94A3030C9401070C94A3030C94A30356
:100030000C94A3030C944D280C94A3030C94A303D9
:100040000C94E9030C94A3030C94A3030C94A30352
:100050000C94A3030000C0E0F0F838181838F8F04A
:10006000E0C0000000FFFFFFFF000000000000FFF5
:10007000FFFFFF0000071F3F7FF8E0C0C0E0F87FF0
:100080003F1F0700000000808080C0E0F8F8F8F80B
:10009000000000000000000101010101FFFFFFFF5F
:1000A000000000000000000000000000FFFFFFFF54
:1000B000000000000080E0F0F0783818181878F898
:1000C000F0E0C00000010101010080C0E0F0F87F15
:1000D0003F1F0F00E0F0F8FCFEDFCFC7C3C1C0C078
:1000E000C0C0C00000C0E0F0F83818181838F8F0A8
:1000F000E0C0000000000000000030303078FFFF5A
:10010000EFC78000000C3C7C7CF0E0C0C0E0F07FDA
:100110007F3F0F0000000000000000C0E0F8F8F88A
:10012000F80000000080E0F07C3E0F0701FFFFFFB9
:10013000FF000000070707070606060606FFFFFF89
:10014000FF0606060000F8F8F8F81818181818182E
:100150001800000000003F3F3F1F1C0C0C1C3CF827
:10016000F8F0C000000C3C7C7CF0E0C0C0E0F07F08
:100170007F3F0F0000C0E0F0F83818181838F8F08A
:10018000E0C0000000FFFFFFFF381C0C0C1C3CFC13
:10019000F8F0C00000071F3F7FF8E0C0C0E0F07F2C
:1001A0007F3F0F0000181818181818181818D8F8DA
:1001B000F8F8380000000000000000C0F8FEFF3F23
:1001C0000F0100000000000000F0FEFFFF0F010023
:1001D000000000000000C0F0F0F838181838F8F0FF
:1001E000F0C00000000083CFFFFF7C78787CFFFF29
:1001F000CF830000001F3F7F7FF0E0C0C0E0F07FB2
:100200007F3F1F000080E0F0F07838181838F8F0D1
:10021000E0C00000000F3F7FFFF0E0C0C0E070FFD3
:10022000FFFFFF0000183878F8E0C0C0E0F0FC7F66
:100230003F1F03000000000000000000000000005D
:1002400000E0E0E00000000000000000000000000E
:1002500000E0E0E0E0000000000000E0E0E0E0E0BE
:10026000E0E0E00000000000000000F0F8181818BE
:100270003830000000FE2020103E003173636363BD
:100280007F3E00000002728A8A8A0202FA0AFA0A93
:10029000FA0200000000F0204020F000E0301010D2
:1002A00030E0000000000700000017A045A7100084
:1002B000070500000000788484840100FC04F90430
:1002C000F800000000000000C0E0C0800000000056
:1002D0000000000000000000000103078FDEFCF8B2
:1002E0007020000000000000183C1E0F07030100F2
:1002F000000000000000000000000000000080C0BE
:10030000E0C00000000000002070F8FCDE8F070352
:1003100001000000000000000000000103070F1EA4
:100320003C18000000000000000000000000000079
:1003300000000000000000383838383838383838C5
:10034000383800000000000000000000000000003D
:10035000000000000000000000000000000000009D
:10036000000000000000000000000000000000008D
:10037000000000000000000000000000000000007D
:1003800000000000FFFFFFFFFF00FFFFFFFFFFFF78
:1003900000FFFFFFFFFFFF00FFFFFFFFFFFF00FF6A
:1003A000FFFFFFFFFF00FFFFFFFFFFFF00FFFFFF5B
:1003B000FFFFFF00FFFFFFFFFFFF00FFFFFFFFFF4B
:1003C000FF00FFFFFFFFFFFF00FFFFFFFFFFFF003A
:1003D000FFFFFFFFFFFF00FFFFFFFFFFFF00FFFF2B
:1003E000FFFFFFFF00FFFFFFFFFFFF00FFFFFFFF1B
:1003F000FFFF00FFFFFFFFFFFF00FFFFFFFFFFFF0B
:1004000000FFFFFFFFFFFF00FFFFFFFFFFFF00FFF9
:10041000FFFFFFFFFF00FFFFFFFFFFFF00FFFFFFEA
:10042000FFFFFF00FFFFFFFFFFFF00FFFFFFFFFFDA
:10043000FF00FFFFFFFFFFFF00FFFFFFFFFFFF00C9
:10044000FFFFFFFFFFFF00FFFFFFFFFFFF00FFFFBA
:10045000FFFFFFFF00FFFFFFFFFFFF00FFFFFFFFAA
:10046000FFFF00FF0000000000FFFF00004F000042
:1004700000FF000700070000FF147F147F1400FF37
:10048000242A7F2A1200FF231308646200FF3649E2
:1004900055222000FF000503000000FF001C224140
:1004A0000000FF0041221C0000FF14083E08140059
:1004B000FF08083E080800FF503000000000FF0859
:1004C0000808080800FF006060000000FF20100816
:1004D000040200FF3E5149453E00FF40427F40403C
:1004E00000FF426151494600FF2141454B3100FF69
:1004F0001814127F1000FF274545453900FF3C4A7C
:1005000049493000FF017109050300FF3649494997
:100510003600FF064949291E00FF0036360000005C
:10052000FF005636000000FF081422410000FF14AF
:100530001414141400FF004122140800FF0201519A
:10054000090600FF000002050200FF7E1111117E66
:1005500000FF7F4949493600FF3E4141412200FFEB
:100560007F4141221C00FF7F4949494100FF7F092B
:1005700009090100FF3E4149497A00FF7F08080848
:100580007F00FF00417F410000FF2040413F01000C
:10059000FF7F0814224100FF7F4040404000FF7F62
:1005A000020C027F00FF7F0408107F00FF3E4141E4
:1005B000413E00FF7F0909090600FF3E4151215ECF
:1005C00000FF7F0919294600FF264949493200FFEB
:1005D00001017F010100FF3F4040403F00FF1F201D
:1005E00040201F00FF3F4038403F00FF63140814C5
:1005F0006300FF070870080700FF61514945430089
:10060000FF007F41410000FF020408102000FF00AE
:1006100041417F0000FF040201020400FF4040400E
:10062000404000FF000003050000FF2054545478B0
:1006300000FF7F4444443800FF384444444400FFF2
:10064000384444447F00FF385454541800FF0404D5
:100650007E050500FF085454543C00FF7F08040445
:100660007800FF00447D4000FFFF2040443D00FF34
:10067000FF7F10284400FFFF417F4000FFFFFF7C09
:10068000047C047800FF7C0804047800FF384444AC
:10069000443800FF7C1414140800FF081414147C60
:1006A00000FF7C08040400FFFF485454542400FF5A
:1006B00004043F444400FF3C4040207C00FF1C20D9
:1006C00040201C00FF3C4030403C00FF44281028E4
:1006D0004400FF0C5050503C00FF4464544C440014
:1006E000FF083641410000FF000077000000FF00D6
:1006F0004141360800FF08082A1C0800FF081C2A90
:10070000080800FFFFFFFFFFFF00FF0011241FBECE
:10071000CFE5D8E0DEBFCDBF14E0A0E6B0E0E8E072
:10072000F0E602C005900D92A83AB107D9F714E09F
:10073000A8EAB4E001C01D92A03EB107E1F70E9413
:1007400082180C9402300C940000DF93CF93CDB745
:10075000DEB7F89481E0CF91DF910895DF93CF93D6
:1007600000D0CDB7DEB79A8389838FE590E02981E9
:100770003A81F9012081FC0120830F900F90CF91E5
:10078000DF910895DF93CF93CDB7DEB786E290E097
:1007900026E230E0F90120812760FC01208387E216
:1007A00090E020E4FC01208386E290E026E230E045
:1007B000F90120812868FC01208386E290E026E28E
:1007C00030E0F90120812064FC012083CF91DF918A
:1007D00008951F920F920FB60F921124EF92FF927D
:1007E0000F931F932F933F934F935F936F937F9339
:1007F0008F939F93AF93BF93EF93FF93DF93CF9329
:1008000000D000D0CDB7DEB78FE590E0FC0180814D
:100810008C830E94A5038B8313C084E290E0FC01CB
:100820008081282F30E085E290E0FC018081882FD4
:1008300090E0982F8827822B932B9A8389831B82A1
:100840008B81882351F7CE0104960E94AE038091DC
:10085000870490918804CC01A0E0B0E0BC01CD01F8
:100860000E946829DC01CB01BC01CD0126E636E6F9
:1008700046E65FE30E941E2ADC01CB017C018D016C
:1008800089819A81CC01A0E0B0E0BC01CD010E9439
:100890006829DC01CB01BC01CD012DEC3CEC4CEC1A
:1008A0005DE30E941E2ADC01CB019C01AD01C80161
:1008B000B7010E946C28DC01CB01BC01CD010E9474
:1008C0003C29DC01CB01909388048093870486E265
:1008D00090E026E230E0F90120812064FC012083D1
:1008E0002496DEBFCDBFCF91DF91FF91EF91BF91F5
:1008F000AF919F918F917F916F915F914F913F91B8
:100900002F911F910F91FF90EF900F900FBE0F90BE
:100910001F9018950F931F93DF93CF93CDB7DEB73A
:1009200060970FB6F894DEBF0FBECDBF85E390E0B1
:10093000FC0180818F8784E390E0FC018081888BBB
:1009400087E390E027E330E0F90120812E7FFC016E
:10095000208388E390E028E330E0F90120812E7FB6
:10096000FC01208384E390E0FC01108285E390E0A9
:100970002FEFFC01208387E390E027E330E0F901CB
:1009800020812160FC01208388E390E028E330E0AF
:10099000F90120812E7FFC01208380E090E0A0E817
:1009A000BFE389839A83AB83BC8369817A818B811E
:1009B0009C8120E030E04AE755E40E941E2ADC01D9
:1009C000CB018D839E83AF83B88711E06D817E81DB
:1009D0008F81988520E030E040E85FE30E94D028D6
:1009E00088230CF010E0112329F081E090E09A8731
:1009F000898746C011E06D817E818F81988520E0D6
:100A00003FEF4FE757E40E941A2A18160CF010E047
:100A1000112361F169817A818B819C8120E030E032
:100A200040E251E40E941E2ADC01CB01BC01CD0151
:100A30000E943C29DC01CB019A87898712C080E99A
:100A400091E09C878B878B859C858C01C8010197E1
:100A5000F1F78C011C870B8789859A8501979A8706
:100A6000898789859A85009751F717C06D817E81A6
:100A70008F8198850E943C29DC01CB019A87898768
:100A800089859A859E878D878D859E858C01F80145
:100A90003197F1F78F011E870D8783E390E0FC010A
:100AA000808180958093C10485E390E02F85FC01CF
:100AB000208384E390E02889FC0120838091C10495
:100AC00060960FB6F894DEBF0FBECDBFCF91DF9119
:100AD0001F910F910895DF93CF9300D00F92CDB760
:100AE000DEB79A8389836B8389819A81FC01918126
:100AF0008B819817D1F089819A81FC0180818230A5
:100B0000A0F089819A812B81FC01218389819A81BE
:100B1000FC01108289819A81FC018181882341F145
:100B200089819A81FC01818124C089819A81FC019B
:100B300091818B81981789F089819A81FC0180814C
:100B4000823058F489819A81FC018081282F2F5F9F
:100B500089819A81FC0120830BC089819A81FC01E3
:100B600091818B81981721F489819A81FC011082EF
:100B700080E00F900F900F90CF91DF910895DF9359
:100B8000CF930F92CDB7DEB719820E948A0480936B
:100B9000C1042091C10488EA94E0622F0E946B0591
:100BA00089838981882F90E08430910509F47CC085
:100BB0008530910564F48130910509F4B0C082302C
:100BC000910509F48FC0009709F4C7C0AFC0803108
:100BD0009105C1F1813191052CF48830910509F41A
:100BE0003EC0A4C08032910599F08034910509F08F
:100BF0009DC08091B604882331F481E08093B604CF
:100C00000E944E24B5C01092B6040E944E24B0C07B
:100C10008091B104882309F0A2C08091B604843089
:100C200031F481E08093B6040E944E24A1C08091EB
:100C3000B604882309F495C084E08093B6040E942A
:100C40004E2496C08091B104882319F00E94661A40
:100C50008FC081E08093B1040E94591989C08091AE
:100C60002501882351F084EB92E09093C602809393
:100C7000C50280E090E00E94DE1A8981282F30E0D2
:100C800000D000D08DB79EB7019640E650E0FC0141
:100C900051834083FC01338322830E942D2B0F90CC
:100CA0000F900F900F9064C08981282F30E000D002
:100CB00000D08DB79EB7019649E650E0FC01518304
:100CC0004083FC01338322830E942D2B0F900F90D1
:100CD0000F900F908091B104882309F444C00E94C2
:100CE000CB1946C08981282F30E000D000D08DB7C5
:100CF0009EB7019642E750E0FC0151834083FC011E
:100D0000338322830E942D2B0F900F900F900F9012
:100D10008091B104882349F10E94971A29C08091DB
:100D2000B104882321F10E940F1A22C08981282F43
:100D300030E000D000D08DB79EB701964BE750E071
:100D4000FC0151834083FC01338322830E942D2BBD
:100D50000F900F900F900F900BC0000009C0000083
:100D600007C0000005C0000003C0000001C0000073
:100D70000F90CF91DF910895DF93CF93CDB7DEB77A
:100D8000F89481E0CF91DF910895DF93CF9300D065
:100D9000CDB7DEB79A8389838FE590E029813A81C8
:100DA000F9012081FC0120830F900F90CF91DF91FA
:100DB0000895DF93CF93CDB7DEB71092AB041092B6
:100DC000AA040E94C20885E590E025E530E0F9011B
:100DD00020812A60FC0120838FE490E0FC011082D6
:100DE0008EE490E025E0FC01208389E590E029E590
:100DF00030E0F90120812460FC012083CF91DF9154
:100E000008951F920F920FB60F9211248F93DF93C4
:100E1000CF93CDB7DEB781E08093A500CF91DF916E
:100E20008F910F900FBE0F901F9018951F920F92E9
:100E30000FB60F921124EF92FF920F931F932F93EF
:100E40003F934F935F936F937F938F939F93AF9352
:100E5000BF93EF93FF93DF93CF9300D0CDB7DEB76F
:100E60008FE590E0FC0180818A830E94BC06898323
:100E70006BC08CE490E0FC01808191819093C3046D
:100E80008093C2048CE490E0FC0111821082809176
:100E9000C2049091C304893C910508F445C0809137
:100EA000C2049091C304CC01A0E0B0E0BC01CD012C
:100EB0000E946829DC01CB01BC01CD012DEC3CEC8A
:100EC0004CEC5DE30E941E2ADC01CB017C018D010C
:100ED0008091950090919600CC01A0E0B0E0BC011B
:100EE000CD010E946829DC01CB01BC01CD0126E6C1
:100EF00036E646E65FE30E941E2ADC01CB019C0138
:100F0000AD01C801B7010E946C28DC01CB01BC0116
:100F1000CD010E943C29DC01CB0190939600809387
:100F200095001092AC040FC08091AC048F5F809349
:100F3000AC048091AC04853630F01092AC04109271
:100F400096001092950019828981882309F091CF2B
:100F5000CE0102960E94C5061092A5008AE590E097
:100F60002AE530E0F90120812068FC0120830F9000
:100F70000F90CF91DF91FF91EF91BF91AF919F9132
:100F80008F917F916F915F914F913F912F911F9121
:100F90000F91FF90EF900F900FBE0F901F9018953C
:100FA0001F920F920FB60F921124EF92FF920F93A0
:100FB0001F932F933F934F935F936F937F938F93E1
:100FC0009F93AF93BF93EF93FF93DF93CF9300D0A3
:100FD000CDB7DEB78FE590E0FC0180818A830E9467
:100FE000BC0689836BC08CE490E0FC018081918118
:100FF0009093C3048093C2048CE490E0FC011182BE
:1010000010828091C2049091C304893C910508F438
:1010100045C08091970090919800CC01A0E0B0E08D
:10102000BC01CD010E946829DC01CB01BC01CD01CE
:1010300020E030E040E05FE30E941E2ADC01CB01AB
:101040007C018D018091C2049091C304CC01A0E089
:10105000B0E0BC01CD010E946829DC01CB01BC01DC
:10106000CD0120E030E040E05FE30E941E2ADC0179
:10107000CB019C01AD01C801B7010E946C28DC01C5
:10108000CB01BC01CD010E943C29DC01CB01909336
:101090009800809397001092AC040FC08091AC042C
:1010A0008F5F8093AC048091AC04853630F0109251
:1010B000AC041092980010929700198289818823BD
:1010C00009F091CFCE0102960E94C5061092A500AC
:1010D0008AE590E02AE530E0F90120812064FC01F6
:1010E00020830F900F90CF91DF91FF91EF91BF91EF
:1010F000AF919F918F917F916F915F914F913F91B0
:101100002F911F910F91FF90EF900F900FBE0F90B6
:101110001F901895DF93CF93CDB7DEB78BE590E0A6
:101120002BE530E0F90120812F7BFC01208381E059
:1011300090E0A0E0B0E08093990090939A00A09393
:101140009B00B0939C0081E08093940080E063E07A
:1011500041E20E94F50C81E30E94B60D80E064E05C
:101160004EE10E94F50C80E20E94B60D8BE590E006
:101170002BE530E0F90120812068FC012083CF912C
:10118000DF910895DF93CF93CDB7DEB78BE590E085
:101190002BE530E0F90120812F77FC01208381E0ED
:1011A00090E0A0E0B0E08093990090939A00A09323
:1011B0009B00B0939C001092940080E063E041E2B9
:1011C0000E94F50C80E20E94B60D80E064E04EE1E2
:1011D0000E94F50C82E30E94B60D8BE590E02BE5B2
:1011E00030E0F90120812064FC012083CF91DF9160
:1011F0000895DF93CF9300D000D0CDB7DEB780E065
:1012000090E0DC0189839A83AB83BC838091940056
:10121000813071F58091950090919600CC01A0E00D
:10122000B0E0BC01CD010E946829DC01CB01209116
:1012300088003091890040918A0050918B00BC0158
:10124000CD010E941E2ADC01CB0120918400309147
:1012500085004091860050918700BC01CD010E941D
:101260006C28DC01CB0189839A83AB83BC832DC0BE
:101270008091970090919800CC01A0E0B0E0BC0173
:10128000CD010E946829DC01CB01209190003091B2
:1012900091004091920050919300BC01CD010E94B9
:1012A0001E2ADC01CB0120918C0030918D004091F1
:1012B0008E0050918F00BC01CD010E946C28DC0192
:1012C000CB0189839A83AB83BC8369817A818B81CB
:1012D0009C810E943C29DC01CB01BC01CD010F9017
:1012E0000F900F900F90CF91DF910895DF93CF93E0
:1012F00000D000D0CDB7DEB70E94F908DC01CB01E9
:10130000BC01CD010E946829DC01CB0189839A834D
:10131000AB83BC8329813A814B815C8160E074E2BC
:1013200084E799E40E94D428DC01CB0189839A8365
:10133000AB83BC8389819A81AB81BC81BC01CD0127
:101340000E943C29DC01CB01BC01CD010F900F9024
:101350000F900F90CF91DF910895DF93CF93CDB78A
:10136000DEB780E090E00E949D2D21E08230920760
:1013700009F066C08FEA90E00E94422B82E090E084
:101380000E948F2D8093A60087E090E00E94972D09
:10139000DC01CB018093890490938A04A0938B0491
:1013A000B0938C048BE090E00E94972DDC01CB0180
:1013B00080938D0490938E04A0938F04B093900437
:1013C00083E090E00E949D2DCC01A0E0B0E02CE3F2
:1013D00030E040E050E0BC01CD010E94812ADC01F8
:1013E000CB018093A7009093A800A093A900B0938D
:1013F000AA0085E090E00E948F2D482F50E02CE35A
:1014000030E0429FC001439F900D529F900D1124E8
:101410009093AC008093AB0086E090E00E948F2D0B
:10142000482F50E02CE330E0429FC001439F900DD5
:10143000529F900D11249093AE008093AD0006C092
:101440008CEB90E00E94422B0E94290ACF91DF9101
:101450000895DF93CF93CDB7DEB780E090E062E0F0
:1014600071E00E94B82D82E090E060E00E94A32D20
:101470008091A7009091A800A091A900B091AA0026
:101480002CE330E040E050E0BC01CD010E94C02AD6
:10149000DA01C9019C0183E090E0B9010E94B82DF6
:1014A00087E090E040E050E0BA010E94B02D8BE070
:1014B00090E040E050E060E47FE30E94B02D809136
:1014C000AD009091AE002CE330E0B9010E94AC2A4F
:1014D0009B01C901282F85E090E0622F0E94A32D77
:1014E0008091AB009091AC002CE330E0B9010E94F8
:1014F000AC2A9B01C901282F86E090E0622F0E9450
:10150000A32DCF91DF910895DF93CF93CDB7DEB7B1
:101510002091A60082E090E0622F0E94A32DCF913F
:10152000DF910895DF93CF9300D0CDB7DEB78091E0
:10153000A7009091A800A091A900B091AA002CE367
:1015400030E040E050E0BC01CD010E94C02ADA0149
:10155000C9019A83898383E090E029813A81B901A6
:101560000E94B82D0F900F90CF91DF910895DF93D7
:10157000CF93CDB7DEB72091890430918A04409192
:101580008B0450918C0487E090E0BA01A9010E947D
:10159000B02D20918D0430918E0440918F04509194
:1015A00090048BE090E0BA01A9010E94B02DCF9188
:1015B000DF910895DF93CF93CDB7DEB78091AD0073
:1015C0009091AE002CE330E0B9010E94AC2A9B015F
:1015D000C901282F85E090E0622F0E94A32DCF91B2
:1015E000DF910895DF93CF93CDB7DEB78091AB0045
:1015F0009091AC002CE330E0B9010E94AC2A9B0131
:10160000C901282F86E090E0622F0E94A32DCF9180
:10161000DF910895DF93CF93CDB7DEB785E090E0FB
:101620000E948F2D482F50E02CE330E0429FC001F4
:10163000439F900D529F900D11249093AE00809384
:10164000AD00CF91DF910895DF93CF93CDB7DEB793
:1016500086E090E00E948F2D482F50E02CE330E090
:10166000429FC001439F900D529F900D1124909373
:10167000AC008093AB00CF91DF910895DF93CF93BF
:101680000F92CDB7DEB78091AE049091AF04019672
:101690009093AF048093AE048091AE049091AF0418
:1016A000863091050CF46BC08091AD04282F30E09A
:1016B00000D000D08DB79EB7019648EE50E0FC01F7
:1016C00051834083FC01338322830E942D2B0F9092
:1016D0000F900F900F908091B0048F5F8093B004B3
:1016E0008091B004898307C089818F5F8983898154
:1016F000893008F019828091AD04882F90E029810B
:10170000222F30E0022E02C0959587950A94E2F7C9
:1017100081709070009741F38981282F30E000D0CC
:1017200000D08DB79EB701964BEF50E0FC0151837E
:101730004083FC01338322830E942D2B0F900F9056
:101740000F900F9089818093B00481E090E00E9417
:10175000790D2AEC30E08981882F90E0880F991F5D
:10176000AC01440F551F440F551F840F951F820F66
:10177000931F0E94190E1092AF041092AE040F90A6
:10178000CF91DF910895DF93CF9300D000D0CDB7F4
:10179000DEB70E94F908DC01CB0189839A83AB8311
:1017A000BC8389819A81AB81BC81803D27E092070F
:1017B00020E0A20720E0B20778F480919400813005
:1017C00031F48091AD0482608093AD0405C08091B6
:1017D000AD0481608093AD040F900F900F900F9037
:1017E000CF91DF9108950F931F93DF93CF93CDB7E0
:1017F000DEB72E970FB6F894DEBF0FBECDBF8AE3DB
:1018000090E02AE330E0F9012081206FFC01208381
:1018100084E390E0FC01808184E390E02FEFFC0101
:10182000208387E390E027E330E0F9012081226004
:10183000FC0120830E9453178FE30E9404130E942F
:101840003A178FE30E94041380E090E0A0E2B1E435
:1018500089839A83AB83BC8369817A818B819C81E4
:1018600020E030E04AE753E40E941E2ADC01CB016D
:101870008D839E83AF83B88711E06D817E818F81D8
:10188000988520E030E040E85FE30E94D02888237C
:101890000CF010E0112329F081E090E09A8789870D
:1018A00046C011E06D817E818F81988520E03FEFF9
:1018B0004FE757E40E941A2A18160CF010E0112383
:1018C00061F169817A818B819C8120E030E040E286
:1018D00051E40E941E2ADC01CB01BC01CD010E9413
:1018E0003C29DC01CB019A87898712C089E190E00D
:1018F0009C878B878B859C858C01C8010197F1F7AC
:101900008C011C870B8789859A8501979A8789871F
:1019100089859A85009751F717C06D817E818F81E7
:1019200098850E943C29DC01CB019A8789878985AB
:101930009A859E878D878D859E858C01F8013197CC
:10194000F1F78F011E870D870E94531780EC0E94CC
:1019500004130E943A1780EC0E9404130E94C20CE8
:1019600083E00E94790D80E191E00E94190E2E968D
:101970000FB6F894DEBF0FBECDBFCF91DF911F91A0
:101980000F910895DF93CF9300D00F92CDB7DEB7BC
:101990008091C7048B831092C704198217C0898174
:1019A0000E94790D1A820CC08A81803419F481E07A
:1019B0000E94530D80E00E941C148A818F5F8A83ED
:1019C0008A8188238CF789818F5F89838981883018
:1019D00030F38B818093C70480E00E94790D0F90D3
:1019E0000F900F90CF91DF910895DF93CF9300D0A8
:1019F0000F92CDB7DEB789836A834B8389818823B1
:101A000019F08981813009F58A818830F0F48B8161
:101A10008034D8F48981882319F40E94531702C0B6
:101A20000E943A1789818093C4048A81886B8093CD
:101A3000C5048B8180648093C6048091C6040E9493
:101A400004138091C5040E9404130F900F900F900F
:101A5000CF91DF910895DF93CF9300D000D000D0D5
:101A6000CDB7DEB79A8389837C836B835E834D8396
:101A70002091C40489819A81FC0120832091C504AE
:101A80008B819C81FC0120832091C6048D819E81E5
:101A9000FC01208326960FB6F894DEBF0FBECDBFA3
:101AA000CF91DF910895DF93CF930F92CDB7DEB73B
:101AB00089838981882319F089818130B1F48981F2
:101AC000882319F40E94531702C00E943A17898193
:101AD0008093C40480E48093C6048091C5040E946E
:101AE00004138091C6040E9404130F90CF91DF91DC
:101AF0000895DF93CF930F92CDB7DEB789838981A5
:101B0000883038F4898188548093C50480E00E942D
:101B1000530D0F90CF91DF910895DF93CF93CDB701
:101B2000DEB78091C5048F5F8093C5048091C504A2
:101B3000803C18F088EB8093C50480E00E94530D30
:101B4000CF91DF910895DF93CF93CDB7DEB78FEFBD
:101B50008093C704CF91DF910895DF93CF93CDB7E2
:101B6000DEB71092C704CF91DF9108951F93DF93E2
:101B7000CF93CDB7DEB727970FB6F894DEBF0FBE71
:101B8000CDBF8F838091C404813021F48091C6043D
:101B90008C3718F48F818A3011F40E948D0D8F815B
:101BA0008A3009F43CC024E833E08F81882F90E02C
:101BB000AC01440F551F440F551F440F551FBA0168
:101BC000681B790BCB01820F931F9A8389838091C5
:101BD000C404882339F48091C604803819F481E064
:101BE0000E94530D89819A819C838B8389819A817C
:101BF00001969A8389838B819C81FC0114911D83BA
:101C00008D818E838E818F3F49F08E810E941C14BE
:101C10008091C6048F5F8093C604D9CF00002796B9
:101C20000FB6F894DEBF0FBECDBFCF91DF911F91ED
:101C30000895DF93CF9300D0CDB7DEB79A83898321
:101C40000CC089819A81FC01208189819A81019649
:101C50009A838983822F0E94B60D89819A81FC0123
:101C60008081882371F70F900F90CF91DF910895B5
:101C70000F931F93DF93CF93CDB7DEB760970FB667
:101C8000F894DEBF0FBECDBF6C877D878E879F87A0
:101C9000488B19828C859D85AE85BF850097A105EF
:101CA000B105C1F419820DC08981882F90E09E0191
:101CB0002E5F3F4F820F931FFC01108289818F5F3F
:101CC000898399818889981708F061C089818A3051
:101CD00058F35DC0198244C08C859D85AE85BF8553
:101CE0000097A105B10549F18981082F10E08C8585
:101CF0009D85AE85BF852AE030E040E050E0BC0124
:101D0000CD010E94C02ADC01CB01282FCE01029612
:101D1000800F911FFC0120838C859D85AE85BF853A
:101D20002AE030E040E050E0BC01CD010E94C02A32
:101D30002C873D874E875F8710C088898F3F39F198
:101D400088898B3020F58981882F90E09E012E5F55
:101D50003F4F820F931FFC01108289818F5F89831F
:101D600099818889981708F4B7CF11C08981882F85
:101D700090E001979E012E5F3F4F820F931FFC0161
:101D80008081805D0E94B60D89818150898389811F
:101D9000882361F760960FB6F894DEBF0FBECDBF03
:101DA000CF91DF911F910F910895DF93CF93CDB71E
:101DB000DEB760970FB6F894DEBF0FBECDBF6C875D
:101DC0007D878E879F87488B19828C859D85AE8500
:101DD000BF850097A105B105C1F419820DC08981A5
:101DE000882F90E09E012E5F3F4F820F931FFC01D2
:101DF000108289818F5F898399818889981708F07B
:101E000072C089818A3058F36EC019823BC08C85BC
:101E10009D85AE85BF850097A105B105F1F089814B
:101E2000882F90E02C85422F4F709E012E5F3F4FF0
:101E3000820F931FFC0140838C859D85AE85BF85F5
:101E4000689413F8B695A795979587951694D1F74A
:101E50008C879D87AE87BF8712C088898F3F09F422
:101E600042C088898B3008F03EC08981882F90E07D
:101E70009E012E5F3F4F820F931FFC0110828981CC
:101E80008F5F898399818889981708F4C0CF2BC008
:101E90008981882F90E001979E012E5F3F4F820F2E
:101EA000931FFC0180818A3068F08981882F90E03F
:101EB00001979E012E5F3F4F820F931FFC0180818F
:101EC000895C0CC08981882F90E001979E012E5F6C
:101ED0003F4F820F931FFC018081805D0E94B60DF1
:101EE0008981815089838981882391F660960FB614
:101EF000F894DEBF0FBECDBFCF91DF910895DF9381
:101F0000CF9300D000D000D0CDB7DEB76A837B83FB
:101F10008C839D834E8328C08E81882F90E09C0106
:101F20002150304081E090E002C0880F991F2A952F
:101F3000E2F79C01442737FD4095542F8A819B810D
:101F4000AC81BD8182239323A423B52321E0009794
:101F5000A105B10509F420E029838981805D0E94F3
:101F6000B60D8E8181508E838E818823A9F62696A8
:101F70000FB6F894DEBF0FBECDBFCF91DF910895AD
:101F8000DF93CF93CDB7DEB728970FB6F894DEBFB7
:101F90000FBECDBF6D837E838F8398876D817E81D9
:101FA0008F8198850E943C29DC01CB0189839A832B
:101FB000AB83BC8389819A81AB81BC81BC01CD019B
:101FC0004FEF0E94380E8EE20E94B60D69817A8131
:101FD0008B819C810E9468299B01AC016D817E816F
:101FE0008F8198850E946B28DC01CB018D839E83B5
:101FF000AF83B8876D817E818F81988520E034E240
:1020000044E759E40E941E2ADC01CB01BC01CD014A
:102010000E943C29DC01CB0189839A83AB83BC837A
:1020200089819A81AB81BC81BC01CD014FEF0E94B7
:10203000380E28960FB6F894DEBF0FBECDBFCF91F5
:10204000DF910895DF93CF93CDB7DEB768970FB6D2
:10205000F894DEBF0FBECDBFCE014F96988F8F8B09
:102060008D8D9E8D9A838983BEC189819A81FC0161
:10207000808189878985853209F0ADC189819A81FE
:1020800001969A83898389819A81FC01808189875D
:102090008985803300F189858A33E8F41A8614C073
:1020A0008A85880F982F990F990F980F8985890F26
:1020B00080538A8789819A8101969A83898389814D
:1020C0009A81FC01808189878985803338F08985F0
:1020D0008A3330F304C08FEF8A8701C000008985FE
:1020E000882F90E08835910509F4F1C08935910574
:1020F00004F58434910509F470C08534910564F4C5
:102100008234910509F419C1833491058CF5853227
:10211000910509F45CC162C18335910509F445C19B
:102120008535910509F4A2C08634910509F424C1CE
:1021300055C18636910509F41FC1873691055CF4B7
:1021400083369105A9F08436910509F1823691050F
:1021500009F4D7C043C18537910509F470C08837A9
:10216000910509F49DC08337910509F41EC136C15C
:102170008F89988D9C012E5F3F4F388F2F8BFC01EC
:1021800080819181898789850E94B60D27C18F89B9
:10219000988D9C012E5F3F4F388F2F8BFC018081E3
:1021A00091819C838B838B819C81992354F48B81B7
:1021B0009C81909581959F4F9C838B838DE20E949B
:1021C000B60D8B819C81AA2797FDA095BA2FBC01E3
:1021D000CD014A850E94380E01C18F89988D9C01DE
:1021E0002C5F3F4F388F2F8BFC0180819181A28122
:1021F000B3818D839E83AF83B8878D819E81AF81AC
:10220000B885BB2394F48D819E81AF81B885B0954C
:10221000A095909581959F4FAF4FBF4F8D839E8323
:10222000AF83B8878DE20E94B60D8D819E81AF810C
:10223000B885BC01CD014A850E94380ECFC08F8978
:10224000988D9C012E5F3F4F388F2F8BFC01808132
:1022500091819C878B878B859C85CC01A0E0B0E029
:10226000BC01CD014A850E94380EB8C08F89988D77
:102270009C012C5F3F4F388F2F8BFC018081918117
:10228000A281B3818D879E87AF87B88B8D859E8510
:10229000AF85B889BC01CD014A850E94380E9EC029
:1022A0008F89988D9C012E5F3F4F388F2F8BFC01BB
:1022B000808191819C878B878B859C85CC01A0E058
:1022C000B0E0BC01CD014A850E94D50E87C08F8940
:1022D000988D9C012C5F3F4F388F2F8BFC018081A4
:1022E0009181A281B3818D879E87AF87B88B8D85C1
:1022F0009E85AF85B889BC01CD014A850E94D50E67
:102300006DC08F89988D9C012E5F3F4F388F2F8B2A
:10231000FC01808191819C878B878A858F3F11F496
:1023200080E18A878B859C85CC01A0E0B0E0BC0170
:10233000CD014A850E947F0F51C08F89988D9C01E5
:102340002C5F3F4F388F2F8BFC0180819181A281C0
:10235000B3818D879E87AF87B88B8A858F3F11F4B5
:1023600080E18A878D859E85AF85B889BC01CD01C6
:102370004A850E947F0F32C08F89988D9C012C5F07
:102380003F4F388F2F8BFC0180819181A281B381D7
:10239000898B9A8BAB8BBC8B89899A89AB89BC89D9
:1023A000BC01CD010E94C00F19C08F89988D9C017E
:1023B0002E5F3F4F388F2F8BFC01808191819E8B48
:1023C0008D8B8D899E890E94190E000007C085E2C1
:1023D0000E94B60D03C089850E94B60D89819A813D
:1023E00001969A83898389819A81FC01808188235F
:1023F00009F03BCE68960FB6F894DEBF0FBECDBF96
:10240000CF91DF910895DF93CF9300D0CDB7DEB7A2
:10241000198216C089810E94790D1A820BC08A81A7
:10242000803411F40E943A1780E00E941C148A81C3
:102430008F5F8A838A81882394F789818F5F89835C
:102440008981883038F380E00E94790D0F900F90D9
:10245000CF91DF910895DF93CF93CDB7DEB7299762
:102460000FB6F894DEBF0FBECDBF88876987888519
:10247000843008F06FC08985853608F06BC0888588
:102480008295880F807E8B838B81803410F41D822F
:1024900005C081E08D838B8180548B838B81982F45
:1024A000985F8D8160E0492F0E94F50C8985882F07
:1024B00090E0A0E0B0E0BC01CD0143E00E94380E06
:1024C00089858695898789858695869586958E8363
:1024D00097E08E81292F281B822F8F8381E08983AB
:1024E00036C08B81982F945F8D816981492F0E941E
:1024F000F50C99818F81981710F41C821AC099816C
:102500008F819817A1F4898587708C838C81882F9F
:1025100090E028E030E0281B390B8FEF90E0022E8E
:1025200002C0880F991F0A94E2F78C8302C08FEFD4
:102530008C831A8206C08C810E941C148A818F5F52
:102540008A838A818C30B8F389818F5F89838981FE
:10255000883038F229960FB6F894DEBF0FBECDBF93
:10256000CF91DF910895DF93CF9300D000D0CDB706
:10257000DEB78B836C838B81880F8F5F8A838B811F
:102580008430D8F58C818536C0F580E06A8140E0E2
:102590000E94F50C19820CC08981803419F481E005
:1025A0000E94530D8FEF0E941C1489818F5F8983D5
:1025B00099818C81981780F38C8189830CC08981E3
:1025C000803419F481E00E94530D80E00E941C14B5
:1025D00089818F5F89838981843688F381E06A816C
:1025E0004EE60E94F50C8C81882F90E0A0E0B0E0D0
:1025F000BC01CD0143E00E94380E0F900F900F9068
:102600000F90CF91DF9108950F931F93DF93CF9396
:10261000CDB7DEB769970FB6F894DEBF0FBECDBF5A
:10262000898F0E94371585E390E0298DFC01208376
:102630008BE390E02BE330E0F90120812F77FC0160
:1026400020838BE390E02BE330E0F90120812F7BA6
:10265000FC0120838BE390E02BE330E0F901208143
:102660002062FC01208380E090E0A0E0B0E4898358
:102670009A83AB83BC8369817A818B819C812BEAAD
:102680003AEA4AEA5EE30E941E2ADC01CB018D830E
:102690009E83AF83B88711E06D817E818F8198859D
:1026A00020E030E040E85FE30E94D02888230CF06F
:1026B00010E0112319F081E08987A3C011E06D813A
:1026C0007E818F81988520E030E04FE753E40E94BF
:1026D0001A2A18160CF010E0112309F489C0698138
:1026E0007A818B819C8120E030E04AE754E40E94AB
:1026F000D428DC01CB018A879B87AC87BD876A859C
:102700007B858C859D8520E030E04AE753E40E947C
:102710001E2ADC01CB018E879F87A88BB98B11E025
:102720006E857F858889998920E030E040E85FE305
:102730000E94D02888230CF010E0112329F081E0BA
:1027400090E09B8B8A8B46C011E06E857F858889DF
:10275000998920E03FEF4FE757E40E941A2A1816A4
:102760000CF010E0112361F16A857B858C859D85D5
:1027700020E030E040E251E40E941E2ADC01CB015F
:10278000BC01CD010E943C29DC01CB019B8B8A8BD3
:1027900012C089E190E09D8B8C8B8C899D898C0186
:1027A000C8010197F1F78C011D8B0C8B8A899B89DD
:1027B00001979B8B8A8B8A899B89009751F728C048
:1027C0006E857F85888999890E943C29DC01CB012F
:1027D0009B8B8A8B8A899B899F8B8E8B8E899F8905
:1027E0008C01F8013197F1F78F011F8B0E8B10C010
:1027F0006D817E818F8198850E943C29DC01CB010F
:1028000089878985888F888D182F1A95F1F7188FF9
:102810008BE390E02BE330E0F90120812F7DFC0178
:10282000208369960FB6F894DEBF0FBECDBFCF915F
:10283000DF911F910F9108950F931F93DF93CF9313
:10284000CDB7DEB769970FB6F894DEBF0FBECDBF28
:10285000898F0E94371585E390E03091C704298D58
:102860002327FC0120838BE390E02BE330E0F90188
:1028700020812068FC0120838BE390E02BE330E093
:10288000F90120812F7BFC0120838BE390E02BE377
:1028900030E0F90120812062FC01208380E090E09B
:1028A000A0E0B0E489839A83AB83BC8369817A8199
:1028B0008B819C812BEA3AEA4AEA5EE30E941E2A57
:1028C000DC01CB018D839E83AF83B88711E06D81DE
:1028D0007E818F81988520E030E040E85FE30E94B0
:1028E000D02888230CF010E0112319F081E08987AB
:1028F000A3C011E06D817E818F81988520E030E05A
:102900004FE753E40E941A2A18160CF010E0112326
:1029100009F489C069817A818B819C8120E030E053
:102920004AE754E40E94D428DC01CB018A879B87C4
:10293000AC87BD876A857B858C859D8520E030E0EE
:102940004AE753E40E941E2ADC01CB018E879F8751
:10295000A88BB98B11E06E857F858889998920E0E5
:1029600030E040E85FE30E94D02888230CF010E0BC
:10297000112329F081E090E09B8B8A8B46C011E007
:102980006E857F858889998920E03FEF4FE757E47E
:102990000E941A2A18160CF010E0112361F16A85C2
:1029A0007B858C859D8520E030E040E251E40E94EB
:1029B0001E2ADC01CB01BC01CD010E943C29DC01B7
:1029C000CB019B8B8A8B12C089E190E09D8B8C8B15
:1029D0008C899D898C01C8010197F1F78C011D8BB1
:1029E0000C8B8A899B8901979B8B8A8B8A899B890F
:1029F000009751F728C06E857F85888999890E9444
:102A00003C29DC01CB019B8B8A8B8A899B899F8B1C
:102A10008E8B8E899F898C01F8013197F1F78F0198
:102A20001F8B0E8B10C06D817E818F8198850E94D7
:102A30003C29DC01CB0189878985888F888D182FF7
:102A40001A95F1F7188F8BE390E02BE330E0F90152
:102A500020812F7DFC01208369960FB6F894DEBF9C
:102A60000FBECDBFCF91DF911F910F9108950F93AE
:102A70001F93DF93CF93CDB7DEB7E1970FB6F894EE
:102A8000DEBF0FBECDBF84E390E024E330E0F90168
:102A900020812F77FC0120838BE390E02BE330E053
:102AA000F90120812F77FC0120838BE390E02BE359
:102AB00030E0F90120812064FC0120838BE390E069
:102AC0002BE330E0F90120812F7DFC01208380E0A1
:102AD00090E0A0E0B0E48A839B83AC83BD836A81ED
:102AE0007B818C819D812BEA3AEA4AEA5EE30E946F
:102AF0001E2ADC01CB018E839F83A887B98711E052
:102B00006E817F818885998520E030E040E85FE331
:102B10000E94D02888230CF010E0112319F081E0E6
:102B20008A87A3C011E06E817F818885998520E026
:102B300030E04FE753E40E941A2A18160CF010E018
:102B4000112309F489C06A817B818C819D8120E0F9
:102B500030E04AE754E40E94D428DC01CB018B87A3
:102B60009C87AD87BE876B857C858D859E8520E0A3
:102B700030E04AE753E40E941E2ADC01CB018F8734
:102B8000988BA98BBA8B11E06F85788989899A898E
:102B900020E030E040E85FE30E94D02888230CF07A
:102BA00010E0112329F081E090E09C8B8B8B46C0D4
:102BB00011E06F85788989899A8920E03FEF4FE796
:102BC00057E40E941A2A18160CF010E0112361F144
:102BD0006B857C858D859E8520E030E040E251E468
:102BE0000E941E2ADC01CB01BC01CD010E943C29C0
:102BF000DC01CB019C8B8B8B12C089E190E09E8B1A
:102C00008D8B8D899E898C01C8010197F1F78C010C
:102C10001E8B0D8B8B899C8901979C8B8B8B8B8951
:102C20009C89009751F728C06F85788989899A898E
:102C30000E943C29DC01CB019C8B8B8B8B899C896E
:102C4000988F8F8B8F89988D8C01F8013197F1F7D0
:102C50008F01188F0F8B10C06E817F8188859985B9
:102C60000E943C29DC01CB018A878A85898F898D66
:102C7000182F1A95F1F7198F8BE390E02BE330E0D2
:102C8000F90120812062FC01208380E090E0A0E037
:102C9000B0E48A8F9B8FAC8FBD8F6A8D7B8D8C8DBE
:102CA0009D8D2BEA3AEA4AEA5EE30E941E2ADC0185
:102CB000CB018E8F9F8FA8A3B9A311E06E8D7F8D5E
:102CC00088A199A120E030E040E85FE30E94D0288D
:102CD00088230CF010E0112319F081E08AA3A3C02F
:102CE00011E06E8D7F8D88A199A120E030E04FE743
:102CF00053E40E941A2A18160CF010E0112309F46C
:102D000089C06A8D7B8D8C8D9D8D20E030E04AE7F7
:102D100054E40E94D428DC01CB018BA39CA3ADA377
:102D2000BEA36BA17CA18DA19EA120E030E04AE76B
:102D300053E40E941E2ADC01CB018FA398A7A9A708
:102D4000BAA711E06FA178A589A59AA520E030E087
:102D500040E85FE30E94D02888230CF010E01123A4
:102D600029F081E090E09CA78BA746C011E06FA1FD
:102D700078A589A59AA520E03FEF4FE757E40E9488
:102D80001A2A18160CF010E0112361F16BA17CA136
:102D90008DA19EA120E030E040E251E40E941E2A75
:102DA000DC01CB01BC01CD010E943C29DC01CB013F
:102DB0009CA78BA712C089E190E09EA78DA78DA547
:102DC0009EA58C01C8010197F1F78C011EA70DA7E4
:102DD0008BA59CA501979CA78BA78BA59CA500976D
:102DE00051F728C06FA178A589A59AA50E943C2912
:102DF000DC01CB019CA78BA78BA59CA598AB8FA7CB
:102E00008FA598A98C01F8013197F1F78F0118ABC4
:102E10000FA710C06E8D7F8D88A199A10E943C29BB
:102E2000DC01CB018AA38AA189AB89A9182F1A9545
:102E3000F1F719AB83E390E0FC018081881F8827BC
:102E4000881F89838981882309F038CE84E390E044
:102E500024E330E0F90120812068FC012083E19621
:102E60000FB6F894DEBF0FBECDBFCF91DF911F919B
:102E70000F910895DF93CF93CDB7DEB78BE390E04A
:102E80002BE330E0F90120812061FC01208388E3FD
:102E900090E028E330E0F90120812D7FFC012083C0
:102EA000CF91DF910895DF93CF93CDB7DEB788E35D
:102EB00090E028E330E0F90120812260FC012083CA
:102EC0008BE390E02BE330E0F90120812F7EFC01C1
:102ED0002083CF91DF910895EF92FF920F931F937C
:102EE000DF93CF93CDB7DEB760970FB6F894DEBF10
:102EF0000FBECDBF888B8091C6048D838091C504A1
:102F00008B831F861C8224E530E08889682F70E05F
:102F100040E350E0649FC001659F900D749F900D49
:102F20001124820F931F9A83898388898A30B1F58F
:102F300001C000008F858F5F8F8789819A819F8371
:102F40008E8389819A8101969A8389838E819F815C
:102F50008C01F801E590F4908F01F986E8861F83D3
:102F60000E83888599858A878A850E941C148F859F
:102F7000883108F068C08F8596E0692F0E94A02AEA
:102F8000892F8823B1F68B818F5F8B838D810E947F
:102F900004138B810E940413CDCF00008F858F5FB7
:102FA0008F8789819A819C878B8789819A810196F5
:102FB0009A8389838B859C858C01F801E590F49038
:102FC0008F01FE86ED861C870B878D859E858A87FF
:102FD0008A850E941C148091C6048F5F8093C6046A
:102FE0008091C60491E0803809F090E02091C404FB
:102FF00081E0222309F080E08923882329F081E001
:103000000E94530D81E08C838F858033F0F48F858F
:103010008F70882309F0C1CF8B818F5F8B838C8168
:10302000882321F080E00E94530D1C828D818093C3
:10303000C6048B818093C5048D810E9404138B810B
:103040000E940413ABCF000001C0000060960FB6D1
:10305000F894DEBF0FBECDBFCF91DF911F910F91CE
:10306000FF90EF900895DF93CF93CDB7DEB781E067
:1030700062E040E30E94F50C8BE00E946C17CF9158
:10308000DF910895DF93CF93CDB7DEB781E062E0A3
:1030900040E30E94F50C8CE00E946C17CF91DF9109
:1030A0000895DF93CF93CDB7DEB787E390E027E3B2
:1030B00030E0F90120812F79FC01208388E390E042
:1030C00028E330E0F90120812066FC012083CF91C4
:1030D000DF910895DF93CF93CDB7DEB786E390E01D
:1030E000FC0180818072CF91DF910895DF93CF93AF
:1030F000CDB7DEB786E390E0FC0180818074CF918C
:10310000DF910895DF93CF9300D0CDB7DEB77894E9
:103110000E949D220E94F30B0E947F220E94C20304
:103120000E94D2270E944A270E944D230E94AD0987
:1031300080912101909122010E94F6220E94511853
:103140001A82198207C00E94BF0589819A8101965F
:103150009A83898389819A8121E0843F920798F339
:10316000109225010CC00E94BF058091BF048823E6
:1031700031F01092BF0480E090E00E94DE1A80914E
:10318000B204882381F70E94D90601C000000E9482
:10319000BF058091BF048823C9F38091D204909128
:1031A000D304A091D404B091D5040097A105B10532
:1031B00099F08091D2049091D304A091D404B0915D
:1031C000D5040197A109B1098093D2049093D30447
:1031D000A093D404B093D5048091BB049091BC0417
:1031E000A091BD04B091BE040097A105B10599F06E
:1031F0008091BB049091BC04A091BD04B091BE0429
:103200000197A109B1098093BB049093BC04A093DA
:10321000BD04B093BE048091CC049091CD04A091E4
:10322000CE04B091CF040097A105B10599F080912B
:10323000CC049091CD04A091CE04B091CF0401971D
:10324000A109B1098093CC049093CD04A093CE043E
:10325000B093CF041092BF040E945A238091AD0412
:10326000882311F00E943E0B8091B104882321F441
:103270000E943E220E94031F809122018295869522
:10328000869583708170982F81E089278170817085
:103290008295880F880F807C909122019F7B892BDB
:1032A0008093220180912101909122010E94F622B7
:1032B0006ECFDF93CF930F92CDB7DEB70E94C20CD3
:1032C00080E00E94790D8091C5029091C602FC01B8
:1032D000828193810E94190E198255C02091C502E6
:1032E0003091C6028981882F90E0880F991F820F44
:1032F000931F0596FC0180819181009709F43FC0DE
:103300008091C5029091C602FC0194818981981731
:10331000E9F40E94A30D89818E5F0E94790D2091AE
:10332000C5023091C6028981882F90E0880F991FCD
:10333000820F931F0596FC0180819181FC0182819F
:1033400093810E94190E0E94AD0D1AC089818E5F73
:103350000E94790D2091C5023091C6028981882F83
:1033600090E0880F991F820F931F0596FC018081C2
:103370009181FC01828193810E94190E01C000009D
:1033800089818F5F89838981853008F4A7CF0F9069
:10339000CF91DF910895DF93CF930F92CDB7DEB732
:1033A0008091B504882329F082E090E00E94DE1A23
:1033B00032C08091C5029091C602FC0124812F5F2A
:1033C000FC012483FC01848189832091C502309112
:1033D000C6028981882F90E0880F991F820F931F62
:1033E0000596FC0180819181009731F48091C5029E
:1033F0009091C602FC01148200D08DB79EB7019651
:1034000027EC32E0FC01318320830E942D2B0F90AA
:103410000F900E9459190F90CF91DF910895DF937B
:10342000CF9300D0CDB7DEB78091B504882329F0C3
:1034300081E090E00E94DE1A44C08091C502909124
:10344000C602FC0184818A838A810E9403288A81C2
:10345000882369F5198227C02091C5023091C602E0
:103460008981882F90E0880F991F820F931F0596FE
:10347000FC0180819181009799F48091C50290911F
:10348000C60229812150FC0124838091C5029091BC
:10349000C602FC0184810E9403280E94591911C0B0
:1034A00089818F5F898389818530B0F20AC08091DC
:1034B000C5029091C6022A812150FC0124830E94FA
:1034C00059190F900F90CF91DF910895DF93CF930B
:1034D000CDB7DEB78091B504882329F084E090E071
:1034E0000E94DE1A21C08091C5029091C602FC01A3
:1034F00080819181009771F08091C5029091C60200
:10350000FC01808191819093C6028093C5020E9444
:1035100059190AC01092B1040E94C20C0E94031FE4
:103520000E94D3210E943E22CF91DF910895DF9324
:10353000CF930F92CDB7DEB78091B504882329F0E1
:1035400083E090E00E94DE1A35C08091C502909120
:10355000C602FC01848189832091C5023091C60294
:103560008981882F90E0880F991F820F931F0596FD
:10357000FC0180819181FC01858196810097B1F0E9
:103580002091C5023091C6028981882F90E0880F72
:10359000991F820F931F0596FC0180819181909362
:1035A000C6028093C5020E94591904C080E090E0D1
:1035B0000E94DE1A0F90CF91DF910895EF92FF9253
:1035C0000F931F93DF93CF9300D0CDB7DEB79A83CD
:1035D00089838091C5029091C602FC0122813381CA
:1035E00000D000D08DB79EB701964BEC52E0FC01A5
:1035F00051834083FC01338322830E942D2B0F9043
:103600000F900F900F908091C5029091C602F2E04A
:10361000843B9F0709F0E7C08091B504882F90E0B4
:103620008130910599F18230910509F46CC00097C1
:1036300009F02BC381ED92E00E94422B81E0809340
:10364000B1040E94C20C80E00E94790D85ED92E0E9
:103650000E94190E86E00E94790D8BEE92E00E9486
:10366000190E87E00E94790D83E093E00E94190E05
:1036700080E063E048E20E94F50C0E94C52581E0ED
:103680008093B50481E08093B2040CC38CE093E096
:103690000E94422B80E063E048E20E94F50C0E9409
:1036A000C52589819A818330910509F0F0C20E9475
:1036B00088259093B4048093B3040E94C20C80E0E8
:1036C0000E94790D85ED92E00E94190E86E00E941D
:1036D000790D80E193E00E94190E87E00E94790D38
:1036E00088E293E00E94190E80E063E048E20E94C5
:1036F000F50C8091B3049091B4040E943D2682E0C1
:103700008093B504CFC289819A8182309105E1F01E
:103710008330910579F18130910509F0BAC2809129
:10372000B3049091B40401969093B4048093B304CD
:1037300080E063E048E20E94F50C8091B304909130
:10374000B4040E943D26AEC28091B3049091B404AB
:1037500001979093B4048093B30480E063E048E25F
:103760000E94F50C8091B3049091B4040E943D2610
:10377000000098C2E0908904F0908A0400918B04C4
:1037800010918C040E9488259C018091B304909133
:10379000B404A901481B590BCA01CC01A0E0B0E058
:1037A000BC01CD010E9468299B01AC01C801B70191
:1037B0000E946B28DC01CB018093890490938A04DA
:1037C000A0938B04B0938C041092B5041092B104B2
:1037D0001092B2048DE892E09093C6028093C502E5
:1037E0000E94C20C5FC28091C5029091C60252E055
:1037F0008037950709F580E99AE0ABE0B0E0809367
:10380000A7009093A800A093A900B093AA001092DB
:10381000B1048DE892E09093C6028093C5020E94A5
:10382000C20C0E94031F0E94D3210E943E228BE300
:1038300093E00E94422B36C28091C5029091C6024D
:10384000E2E08D329E0709F060C08091C502909140
:10385000C602FC0184818823A9F41092B10410925D
:10386000A6008DE892E09093C6028093C5020E9464
:10387000840A0E94C20C0E94031F0E94D3210E944E
:103880003E221DC08091C5029091C602FC01848138
:103890008130A9F481E08093A6001092B1048DE8F4
:1038A00092E09093C6028093C5020E94840A0E940F
:1038B000C20C0E94031F0E94D3210E943E228091CD
:1038C0009400813089F480E063E041E20E94F50CCD
:1038D00081E30E94B60D80E064E04EE10E94F50CA9
:1038E00080E20E94B60DDEC180E063E041E20E940A
:1038F000F50C80E20E94B60D80E064E04EE10E948B
:10390000F50C82E30E94B60DCDC18091C502909165
:10391000C602F2E088349F0709F0C4C18091C50255
:103920009091C602FC018481813009F0CAC0809167
:10393000B504882F90E0009729F08130910509F4B3
:1039400041C0B0C10E94C20C80E00E94790D8091FC
:10395000C5029091C602FC0187819085FC0182819D
:1039600093810E94190E86E00E94790D80E193E018
:103970000E94190E87E00E94790D8DE493E00E9469
:10398000190E81E063E045E00E94F50C00D08DB790
:103990009EB7019622E633E0FC01318320830E942A
:1039A00022100F900F9080E063E048E20E94F50C37
:1039B0008091AB009091AC000E945B1E81E08093EF
:1039C000B50470C189819A818230910581F183307B
:1039D000910524F48130910551F064C18330910543
:1039E00009F444C08430910509F456C05BC180914C
:1039F000AB009091AC00F8E380349F0708F04BC116
:103A00008091AB009091AC0006969093AC008093AF
:103A1000AB0080E063E048E20E94F50C1092A9043C
:103A20008091AB009091AC000E945B1E3BC18091E5
:103A3000AB009091AC008C33910508F42EC18091BD
:103A4000AB009091AC000A979093AC008093AB00D0
:103A500080E063E048E20E94F50C1092A904809196
:103A6000AB009091AC000E945B1E1CC10E94F20A48
:103A70001092B5041092B1048DE892E09093C602C2
:103A80008093C5020E94C20C0E94031F0E94D32192
:103A90000E943E22000006C10E940A0B1092B5044B
:103AA0001092B1048DE892E09093C6028093C50213
:103AB0000E94C20C0E94031F0E94D3210E943E223A
:103AC000F1C08091C5029091C602FC0184818230D0
:103AD00009F0E8C08091B504882F90E0009729F0A4
:103AE0008130910509F44CC0DDC00E94C20C80E019
:103AF0000E94790D8091C5029091C602FC018781D8
:103B00009085FC01828193810E94190E86E00E94BB
:103B1000790D80E193E00E94190E87E00E94790DF3
:103B200089E693E00E94190E81E067E044E10E947B
:103B3000F50C8091AD009091AE000E945B1E81E07B
:103B400063E045E00E94F50C00D08DB79EB701966A
:103B500022E633E0FC01318320830E9422100F9083
:103B60000F9080E063E048E20E94F50C8091AB008A
:103B70009091AC000E945B1E81E08093B50492C0DE
:103B800089819A8182309105B1F18330910524F4C5
:103B90008130910551F086C08330910509F44AC007
:103BA0008430910509F45BC07DC08091AB00909199
:103BB000AC009C01265030408091AD009091AE0049
:103BC0008217930708F06BC08091AD009091AE0012
:103BD00006969093AE008093AD0080E063E048E2EB
:103BE0000E94F50C1092A9048091AD009091AE0056
:103BF0000E945B1E57C08091AD009091AE008C3347
:103C0000910508F44EC08091AD009091AE000A97E6
:103C10009093AE008093AD0080E063E048E20E94A4
:103C2000F50C1092A9048091AD009091AE000E9415
:103C30005B1E38C00E94DA0A1092B5041092B104DB
:103C40008DE892E09093C6028093C5020E94C20C58
:103C50000E94031F0E94D3210E943E2223C00E9483
:103C6000240B1092B5041092B1048DE892E0909369
:103C7000C6028093C5020E94C20C0E94031F0E94CC
:103C8000D3210E943E2200000DC000000BC00000A6
:103C900009C0000007C0000005C0000003C000000C
:103CA00001C000000F900F90CF91DF911F910F91F5
:103CB000FF90EF900895DF93CF9300D000D0CDB761
:103CC000DEB79C838B838B819C8120E13EE0B90130
:103CD0000E94AC2A9B01C90189838981482F50E049
:103CE00020E13EE0429FC001439F900D529F900D06
:103CF00011242B813C81A901481B590BCA019C83CB
:103D00008B838B819C812CE330E0B9010E94AC2A2B
:103D10009B01C9018A8389818823B9F48981282F6D
:103D200030E000D000D08DB79EB7019647E753E052
:103D3000FC0151834083FC01338322830E942210C3
:103D40000F900F900F900F9016C08981282F30E0B0
:103D500000D000D08DB79EB7019649E753E0FC0133
:103D600051834083FC01338322830E9422100F90F1
:103D70000F900F900F908A81882371F400D08DB737
:103D80009EB701962CE733E0FC01318320830E942B
:103D900022100F900F9030C08A818A30B8F48A8147
:103DA000282F30E000D000D08DB79EB7019640E8B4
:103DB00053E0FC0151834083FC01338322830E9442
:103DC00022100F900F900F900F9016C08A81282F0D
:103DD00030E000D000D08DB79EB7019645E853E0A3
:103DE000FC0151834083FC01338322830E94221013
:103DF0000F900F900F900F900F900F900F900F90CB
:103E0000CF91DF910895DF93CF93CDB7DEB72A9797
:103E10000FB6F894DEBF0FBECDBF80E067E04AE08A
:103E20000E94F50C0E94C5258091A7009091A800E2
:103E3000A091A900B091AA0081312EE0920720E064
:103E4000A20720E0B20708F44CC08091B60482308B
:103E500099F48091A7009091A800A091A900B09139
:103E6000AA000197A109B1098093A7009093A80027
:103E7000A093A900B093AA0081E067E044E10E940A
:103E8000F50C8091A7009091A800A091A900B09195
:103E9000AA0020E13EE040E050E0BC01CD010E94DC
:103EA000C02ADA01C90100D000D000D02DB73EB73A
:103EB0002F5F3F4F49E853E0F90151834083F901F7
:103EC00082839383A483B5830E9422108DB79EB70B
:103ED00006960FB6F8949EBF0FBE8DBF0E94920A41
:103EE00017C081E067E044E10E94F50C00D08DB777
:103EF0009EB7019621E933E0FC01318320830E94C3
:103F000022100F900F908091AD0484608093AD04D7
:103F10008091A500882309F010C28091A60081300D
:103F200009F01EC10E94F908DC01CB018B839C8340
:103F3000AD83BE838B819C81AD81BE818931F7E4E5
:103F40009F07F0E0AF07F0E0BF0740F088E197E49B
:103F5000A0E0B0E08B839C83AD83BE838B819C818A
:103F6000AD81BE8184369105A105B105B0F584E629
:103F700090E0A0E0B0E08B839C83AD83BE8380E0C3
:103F800062E04AE20E94F50C80E190E00E946C172A
:103F900080E062E04CE30E94F50C8EE090E00E942D
:103FA0006C1781E062E04CE00E94F50C80E090E04C
:103FB0000E946C1781E062E04CE10E94F50C8AE0FF
:103FC00090E00E946C1781E062E040E20E94F50CF4
:103FD00081E090E00E946C17DDC181E062E04AE080
:103FE0000E94F50C8AE090E00E946C178B819C8106
:103FF000AD81BE8120E137E240E050E0BC01CD015F
:104000000E94C02ADA01C90189838B819C81AD811C
:10401000BE8120E137E240E050E0BC01CD010E94CA
:10402000C02ADC01CB018B839C83AD83BE83898155
:10403000882359F080E062E04AE20E94F50C898111
:10404000882F90E00E946C1709C080E062E04AE28D
:104050000E94F50C80E190E00E946C178B819C819E
:10406000AD81BE8128EE33E040E050E0BC01CD01DF
:104070000E94C02ADA01C90189838B819C81AD81AC
:10408000BE8128EE33E040E050E0BC01CD010E944B
:10409000C02ADC01CB018B839C83AD83BE8380E08F
:1040A00062E04AE30E94F50C8981882F90E00E942B
:1040B0006C178B819C81AD81BE8124E630E040E0AD
:1040C00050E0BC01CD010E94C02ADA01C9018983F8
:1040D0008B819C81AD81BE8124E630E040E050E0E0
:1040E000BC01CD010E94C02ADC01CB018B839C83E3
:1040F000AD83BE8381E062E040E10E94F50C8981DE
:10410000882F90E00E946C178B819C81AD81BE81CD
:104110002AE030E040E050E0BC01CD010E94C02A1E
:10412000DA01C90189838B819C81AD81BE812AE03E
:1041300030E040E050E0BC01CD010E94C02ADC012B
:10414000CB018B839C83AD83BE8381E062E040E240
:104150000E94F50C8981882F90E00E946C171AC18B
:104160000E947609DC01CB018F839887A987BA87E3
:104170008F819885A985BA8587339105A105B105F9
:1041800040F487E390E0A0E0B0E08F839887A987B0
:10419000BA878F819885A985BA85803127E29207F1
:1041A00020E0A20720E0B20770F180E062E044E383
:1041B0000E94F50C80E190E00E946C1780E062E0C4
:1041C00049E20E94F50C80E190E00E946C1781E0CA
:1041D00062E041E00E94F50C8DE090E00E946C17D7
:1041E00081E062E040E10E94F50C81E090E00E94F5
:1041F0006C1781E062E040E20E94F50C80E090E004
:104200000E946C17C7C080E062E04AE30E94F50C90
:104210008AE090E00E946C178F819885A985BA8505
:1042200028EE33E040E050E0BC01CD010E94C02AFE
:10423000DA01C9018A838F819885A985BA8528EE1C
:1042400033E040E050E0BC01CD010E94C02ADC0117
:10425000CB018F839887A987BA8780E062E049E223
:104260000E94F50C8A81882F90E00E946C178F8144
:104270009885A985BA8524E630E040E050E0BC018D
:10428000CD010E94C02ADA01C9018A838F819885F5
:10429000A985BA8524E630E040E050E0BC01CD01BC
:1042A0000E94C02ADC01CB018F839887A987BA8737
:1042B00081E062E040E00E94F50C8A81882F90E066
:1042C0000E946C178F819885A985BA852AE030E015
:1042D00040E050E0BC01CD010E94C02ADA01C901D2
:1042E0008A838F819885A985BA852AE030E040E0ED
:1042F00050E0BC01CD010E94C02ADC01CB018F83BC
:104300009887A987BA8781E062E040E10E94F50CB6
:104310008A81882F90E00E946C178F819885A985EB
:10432000BA858A8381E062E040E20E94F50C8A81CE
:10433000882F90E00E946C172DC081E062E040E27F
:104340000E94F50C8FE090E00E946C1781E062E023
:1043500040E10E94F50C8FE090E00E946C1781E034
:1043600062E040E00E94F50C8FE090E00E946C1744
:1043700080E062E042E30E94F50C80E190E00E9460
:104380006C1780E062E047E20E94F50C80E190E06B
:104390000E946C172A960FB6F894DEBF0FBECDBFF1
:1043A000CF91DF910895DF93CF93CDB7DEB78091A2
:1043B000B604882F90E083309105A9F184309105EF
:1043C0004CF481309105F9F08230910524F5009785
:1043D00091F051C086309105B1F18730910524F4F8
:1043E0008430910541F147C087309105A1F18830B3
:1043F0009105C9F140C080E00E94790D8AE391E007
:104400000E94190E38C080E00E94790D84E491E08A
:104410000E94190E30C080E00E94790D80E391E087
:104420000E94190E28C080E00E94790D8EE491E070
:104430000E94190E20C080E00E94790D88E591E06D
:104440000E94190E18C080E00E94790D84E491E06A
:104450000E94190E10C080E00E94790D84E491E062
:104460000E94190E08C080E00E94790D80E891E05A
:104470000E94190E0000CF91DF910895DF93CF9332
:10448000CDB7DEB70E947618282F30E04091B604F1
:1044900081E090E0473011F080E090E082239323A8
:1044A000009751F081E060E042E10E94F50C8CE65B
:1044B00091E00E94190E17C08091B604863051F425
:1044C00081E060E042E10E94F50C82E691E00E940A
:1044D000190E09C081E060E042E10E94F50C86E718
:1044E00091E00E94190E8091A600882319F00E9485
:1044F000421802C00E943318CF91DF910895DF93D4
:10450000CF93CDB7DEB783E590E023E530E0F90146
:1045100020812967FC01208387E390E027E330E0D6
:10452000F90120812860FC0120838CE590E025E9D9
:10453000FC012083CF91DF910895DF93CF93CDB716
:10454000DEB781E390E021E330E0F9012081206EC5
:10455000FC01208380E090E00E94F622CF91DF9161
:104560000895DF93CF93CDB7DEB782E390E022E3E7
:1045700030E0F90120812064FC01208382E390E097
:1045800022E330E0F90120812F7BFC012083CF91D1
:10459000DF9108951F93DF93CF9300D0CDB7DEB79F
:1045A00082E390E022E330E0F90120812068FC0101
:1045B000208381E089838981182F1A95F1F7198367
:1045C00082E390E022E330E0F90120812F77FC01C3
:1045D000208381E08A838A81182F1A95F1F71A8344
:1045E0000F900F90CF91DF911F910895DF93CF939C
:1045F00000D00F92CDB7DEB79B838A83198222C089
:104600008A819B81992354F482E390E022E330E095
:10461000F90120812062FC01208309C082E390E03F
:1046200022E330E0F90120812F7DFC0120830E94EC
:10463000B1228A819B81880F991F9B838A838981FC
:104640008F5F898389818031D8F20E94CA220F90BE
:104650000F900F90CF91DF910895DF93CF93CDB757
:10466000DEB7809121018F7D80932101809122010D
:104670008F7780932201809121018F7E8093210189
:10468000809121018F7B80932101809121018F777F
:1046900080932101CF91DF910895DF93CF93CDB720
:1046A000DEB70E94C20C1092B6040E94D321CF91B3
:1046B000DF910895DF93CF93CDB7DEB78091B60435
:1046C000882F90E08330910509F479C084309105FA
:1046D0003CF481309105A9F082309105A4F5DBC04E
:1046E0008630910509F48CC0873091050CF4C8C060
:1046F0008730910509F497C08830910509F4AEC060
:10470000CAC08AE993E00E94422B0E947618009763
:1047100031F087E08093B6040E944E24BCC00E9412
:104720006A18009751F083EB93E00E94422B86E0D9
:104730008093B6040E944E24AEC082E08093B604FB
:104740000E944E24A8C08DEC93E00E94422B0E9450
:104750007618009731F087E08093B6040E944E24CB
:104760000DC00E946A18009749F083EE93E00E9402
:10477000422B86E08093B6040E944E248091D2049E
:104780009091D304A091D404B091D5040097A105D1
:10479000B10529F483E08093B6040E944E248091F1
:1047A000CC049091CD04A091CE04B091CF04009799
:1047B000A105B10509F066C00E94C30B6CC08091D1
:1047C000D2049091D304A091D404B091D504009761
:1047D000A105B10529F481E08093B6040E944E241E
:1047E0008091CC049091CD04A091CE04B091CF04DF
:1047F0000097A105B10509F047C00E94C30B4BC04B
:104800008DEF93E00E94422B0E946A18009709F0F6
:104810003DC087E194E00E94422B82E08093B60481
:104820000E944E2438C00E947618009729F482E036
:104830008093B6040E944E248091D2049091D304B8
:10484000A091D404B091D5040097A105B10501F55C
:1048500083E08093B6040E944E241DC08091D20450
:104860009091D304A091D404B091D5040097A105F0
:10487000B10581F481E08093B6040E944E240BC000
:10488000000009C0000007C0000005C0000003C010
:10489000000001C00000CF91DF910895DF93CF9316
:1048A000CDB7DEB78091B604282F30E000D000D01D
:1048B0008DB79EB7019643E354E0FC0151834083DA
:1048C000FC01338322830E942D2B0F900F900F90B9
:1048D0000F908091B604882F90E08330910509F401
:1048E00083C0843091054CF48130910501F1823010
:1048F000910514F50097B1F0DFC08630910509F4F9
:10490000B3C0873091052CF48430910509F49BC025
:10491000D3C08730910509F4B1C08830910509F4FE
:10492000B2C0CAC00E942D230E94D321C5C00E94DC
:10493000D3210E942D23C0C00E947618009731F029
:1049400087E08093B6040E944E24B6C00E946A1885
:10495000009751F083EE93E00E94422B86E0809313
:10496000B6040E944E24A8C00E94C2082091AB0049
:104970003091AC008091AD009091AE00A901481B30
:10498000590BCA01CC01A0E0B0E08093D20490930F
:10499000D304A093D404B093D5040E942D23809116
:1049A00021018061809321018091210180628093A7
:1049B0002101809121018860809321010E94D321EF
:1049C0008091980390919903CC01A0E0B0E080938E
:1049D000CC049093CD04A093CE04B093CF048EE387
:1049E00094E00E94422B68C00E948A080E942D23F6
:1049F0008091210180648093210180912101816057
:104A0000809321010E94D3218091AD009091AE004E
:104A1000CC01A0E0B0E08093D2049093D304A093A3
:104A2000D404B093D5048091980390919903CC015C
:104A3000A0E0B0E08093CC049093CD04A093CE048A
:104A4000B093CF0439C00E948A080E942D23809120
:104A500021018064809321018091220180688093EC
:104A600022010E94D32128C00E942D238091210180
:104A70008061809321010E94D3211EC00E942D23BA
:104A80000E94D32119C00E942D23809121018F778C
:104A9000809321010E94D3218091D0049091D10470
:104AA000CC01A0E0B0E08093D2049093D304A09313
:104AB000D404B093D5040000CF91DF910895DF9323
:104AC000CF9300D0CDB7DEB79A83898389819A814D
:104AD000FC01808191810F900F90CF91DF9108951B
:104AE000DF93CF9300D000D0CDB7DEB79A83898310
:104AF0007C836B8389819A812B813C81FC0131838A
:104B000020830F900F900F900F90CF91DF91089519
:104B1000DF93CF9300D0CDB7DEB78091870490911B
:104B20008804CC01A0E0B0E0BC01CD010E9468295E
:104B3000DC01CB0120918D0430918E0440918F04D3
:104B400050919004BC01CD010E941E2ADC01CB01D2
:104B50002091890430918A0440918B0450918C04F7
:104B6000BC01CD010E946C28DC01CB01BC01CD0150
:104B70000E943C29DC01CB019A83898389819A8137
:104B80000F900F90CF91DF910895DF93CF93CDB722
:104B9000DEB727970FB6F894DEBF0FBECDBF0E94D9
:104BA00088259A83898389819A81CC01A0E0B0E02D
:104BB0002DB73EB72A5030400FB6F8943EBF0FBE17
:104BC0002DBF2DB73EB72F5F3F4FAE014D5F5F4FFB
:104BD000F9015183408345E050E0F901538342835A
:104BE00041E954E0F90155834483F90186839783B1
:104BF000A087B1870E94772B2DB73EB7265F3F4F26
:104C00000FB6F8943EBF0FBE2DBF8B81682F70E0AA
:104C10008C81482F50E08D81282F30E08DB79EB7D2
:104C200008970FB6F8949EBF0FBE8DBF8DB79EB785
:104C30000196E5E9F4E0DC01ED93FC93FC0173835C
:104C40006283DC0115965C934E931497FC013783C5
:104C500026830E9422102DB73EB7285F3F4F0FB624
:104C6000F8943EBF0FBE2DBF27960FB6F894DEBF57
:104C70000FBECDBFCF91DF910895DF93CF93CDB716
:104C8000DEB727970FB6F894DEBF0FBECDBF9F8368
:104C90008E838E819F81CC01A0E0B0E02DB73EB71E
:104CA0002A5030400FB6F8943EBF0FBE2DBF2DB72F
:104CB0003EB72F5F3F4FAE014F5F5F4FF90151830A
:104CC000408345E050E0F9015383428341E954E0D9
:104CD000F90155834483F90186839783A087B187BF
:104CE0000E94772B2DB73EB7265F3F4F0FB6F89443
:104CF0003EBF0FBE2DBF8981682F70E08A81482F8B
:104D000050E08B81282F30E08DB79EB708970FB603
:104D1000F8949EBF0FBE8DBF8DB79EB70196E5E993
:104D2000F4E0DC01ED93FC93FC0173836283DC010E
:104D300015965C934E931497FC01378326830E944B
:104D400022102DB73EB7285F3F4F0FB6F8943EBFF5
:104D50000FBE2DBF27960FB6F894DEBF0FBECDBF96
:104D6000CF91DF9108950F931F93DF93CF93CDB72A
:104D7000DEB72A970FB6F894DEBF0FBECDBF0E94F4
:104D800088259A83898389819A8121E0853F9207CA
:104D900020F084EF91E09A83898389819A8100973A
:104DA00011F41A82198289819A8122E330E0B901D3
:104DB0000E94AC2A9B01C9018B8389819A8122E3DD
:104DC00030E0B9010E94AC2A8C838B81882F90E05F
:104DD000880F991F880F991F855A9B4FFC0180816E
:104DE0009181A281B3819C018B81882F90E00196F3
:104DF000880F991F880F991F855A9B4FFC0180814E
:104E00009181A281B381A901481B590BCA019E83DC
:104E10008D838B81882F90E0880F991F880F991FB1
:104E2000855A9B4FFC0100811181228133818D8144
:104E30009E8142E350E0BA010E94AC2AAB01BA0164
:104E40008C81482F50E0649FC001659F900D749F36
:104E5000900D1124CC01A0E0B0E0B901A801481BDD
:104E6000590B6A0B7B0BDB01CA018F839887A987DB
:104E7000BA878F819885A985BA85BC01CD012A960C
:104E80000FB6F894DEBF0FBECDBFCF91DF911F915B
:104E90000F910895DF93CF93CDB7DEB785E490E00F
:104EA00025E430E0F90120812F60FC01208383E4B8
:104EB00090E023E430E0F90120812D67FC0120839C
:104EC00089E590E029E530E0F90120812068FC01C6
:104ED0002083CF91DF9108951F920F920FB60F920A
:104EE00011248F939F93AF93BF93DF93CF93CDB74D
:104EF000DEB78091C0048D3709F044C081E0809313
:104F0000BF048091B7049091B804A091B904B09106
:104F1000BA040097A105B10599F08091B70490916A
:104F2000B804A091B904B091BA040197A109B109DC
:104F30008093B7049093B804A093B904B093BA04D3
:104F40008091BB049091BC04A091BD04B091BE04BB
:104F50000097A105B10599F08091BB049091BC0424
:104F6000A091BD04B091BE040197A109B10980933D
:104F7000BB049093BC04A093BD04B093BE041092F4
:104F8000C00405C08091C0048F5F8093C004CF919E
:104F9000DF91BF91AF919F918F910F900FBE0F90B6
:104FA0001F901895DF93CF93CDB7DEB780E490E0E4
:104FB000FC01108289E290E027E6FC0120838AE26E
:104FC00090E02AE230E0F90120812861FC01208391
:104FD0008AE290E02AE230E0F90120812068FC01B9
:104FE000208380E490E020E430E0F901208126680D
:104FF000FC0120838CE298E260E070E00E94E22AEB
:10500000CF91DF910895DF93CF930F92CDB7DEB7A5
:10501000898300008BE290E0FC018081882F90E082
:10502000807290700097B1F38CE290E02981FC01CE
:1050300020830F90CF91DF910895DF93CF93CDB769
:10504000DEB78BE290E0FC0180818CE290E0FC0115
:105050008081CF91DF910895DF93CF9300D00F929D
:10506000CDB7DEB789837B836A8300008BE290E053
:10507000FC018081882F90E0807290700097B1F3DE
:105080008CE290E02981FC01208380E090E00F9089
:105090000F900F90CF91DF9108951F920F920FB64E
:1050A0000F9211248F939F93EF93FF93DF93CF93EE
:1050B000CDB7DEB78CE290E0FC01808180932301C4
:1050C000CF91DF91FF91EF919F918F910F900FBE44
:1050D0000F901F9018955058BB27AA270ED070C16B
:1050E00061D130F066D120F031F49F3F11F41EF40D
:1050F00056C10EF4E095E7FB4CC1E92F72D180F365
:10510000BA17620773078407950718F071F49EF5C4
:105110008AC10EF4E0950B2EBA2FA02D0B01B90118
:1051200090010C01CA01A0011124FF27591B99F01D
:10513000593F50F4503E68F11A16F040A22F232F29
:10514000342F4427585FF3CF469537952795A79579
:10515000F0405395C9F77EF41F16BA0B620B730B20
:10516000840BBAF09150A1F0FF0FBB1F661F771F91
:10517000881FC2F70EC0BA0F621F731F841F48F446
:10518000879577956795B795F7959E3F08F0B3CFCC
:105190009395880F08F09927EE0F979587950895B6
:1051A000D4D008F481E008950CD00AC102D140F0B7
:1051B000F9D030F021F45F3F19F0EBC0511134C148
:1051C000EEC00FD198F39923C9F35523B1F3951B82
:1051D000550BBB27AA2762177307840738F09F5F18
:1051E0005F4F220F331F441FAA1FA9F333D00E2E87
:1051F0003AF0E0E830D091505040E695001CCAF7F4
:1052000029D0FE2F27D0660F771F881FBB1F2617B8
:1052100037074807AB07B0E809F0BB0B802DBF018B
:10522000FF2793585F4F2AF09E3F510568F0B1C0A9
:10523000FBC05F3FECF3983EDCF38695779567956E
:10524000B795F7959F5FC9F7880F911D969587953C
:1052500097F90895E1E0660F771F881FBB1F62175B
:1052600073078407BA0720F0621B730B840BBA0B19
:10527000EE1F88F7E0950895BCD088F09F5790F016
:10528000B92F9927B751A0F0D1F0660F771F881F6B
:10529000991F1AF0BA95C9F712C0B13081F0C3D086
:1052A000B1E00895C0C0672F782F8827B85F39F024
:1052B000B93FCCF3869577956795B395D9F73EF4CA
:1052C00090958095709561957F4F8F4F9F4F089572
:1052D000E89409C097FB3EF4909580957095619590
:1052E0007F4F8F4F9F4F9923A9F0F92F96E9BB2746
:1052F0009395F695879577956795B795F111F8CFC2
:10530000FAF4BB0F11F460FF1BC06F5F7F4F8F4F2C
:105310009F4F16C0882311F096E911C0772321F022
:105320009EE8872F762F05C0662371F096E8862FBA
:1053300070E060E02AF09A95660F771F881FDAF711
:10534000880F9695879597F90895990F0008550F3E
:10535000AA0BE0E8FEEF16161706E807F907C0F0FB
:1053600012161306E407F50798F0621B730B840B03
:10537000950B39F40A2661F0232B242B252B21F4DD
:1053800008950A2609F4A140A6958FEF811D811D7D
:10539000089597F99F6780E870E060E008959FEFB7
:1053A00080EC089500240A941616170618060906BC
:1053B000089500240A94121613061406050608958B
:1053C000092E0394000C11F4882352F0BB0F40F413
:1053D000BF2B11F460FF04C06F5F7F4F8F4F9F4F53
:1053E000089557FD9058440F551F59F05F3F71F0D5
:1053F0004795880F97FB991F61F09F3F79F087953C
:105400000895121613061406551FF2CF4695F1DFC4
:1054100008C0161617061806991FF1CF8695710554
:10542000610508940895E894BB2766277727CB0188
:1054300097F908958ADF08F48FEF08950BD0C0CF55
:10544000B1DF28F0B6DF18F0952309F0A2CFA7CF7F
:105450001124EACFC6DFA0F3959FD1F3950F50E05A
:10546000551F629FF001729FBB27F00DB11D639F16
:10547000AA27F00DB11DAA1F649F6627B00DA11DBC
:10548000661F829F2227B00DA11D621F739FB00D62
:10549000A11D621F839FA00D611D221F749F3327D2
:1054A000A00D611D231F849F600D211D822F762F6B
:1054B0006A2F11249F5750408AF0E1F088234AF068
:1054C000EE0FFF1FBB1F661F771F881F91505040B4
:1054D000A9F79E3F510570F05CCFA6CF5F3FECF37C
:1054E000983EDCF3869577956795B795F795E795A0
:1054F0009F5FC1F7FE2B880F911D9695879597F9B1
:105500000895629FD001739FF001829FE00DF11D0D
:10551000649FE00DF11D929FF00D839FF00D749F2D
:10552000F00D659FF00D9927729FB00DE11DF91FD9
:10553000639FB00DE11DF91FBD01CF011124089536
:10554000991B79E004C0991F961708F0961B881FD5
:105550007A95C9F780950895AA1BBB1B51E107C036
:10556000AA1FBB1FA617B70710F0A61BB70B881FF3
:10557000991F5A95A9F780959095BC01CD01089582
:10558000A1E21A2EAA1BBB1BFD010DC0AA1FBB1F47
:10559000EE1FFF1FA217B307E407F50720F0A21BB9
:1055A000B30BE40BF50B661F771F881F991F1A9426
:1055B00069F760957095809590959B01AC01BD0150
:1055C000CF0108950F931F93CF93DF938C01EB01CD
:1055D000009711F42097C9F181E090E06EE070E04F
:1055E0000E94BD2DFC019C01009789F180E8838316
:1055F000209771F0D387C28781E883838091D60496
:105600009091D704009721F4F093D704E093D60447
:1056100001151105E1F01187008783818260838382
:105620008091D8049091D904009789F4F093D9041B
:10563000E093D8048091DA049091DB04009739F468
:10564000F093DB04E093DA0402C020E030E0C9010B
:10565000DF91CF911F910F910895A0E0B0E0E3E3B7
:10566000FBE20C94DB2FFE013596619171918091E4
:10567000D8049091D904AF010E94A82B2096E2E0B3
:105680000C94F72FEF92FF920F931F93CF93DF931A
:105690008C01E091D804F091D904838181FF1FC06F
:1056A000C0E0D0E00AC0DB011896ED91FC9119979B
:1056B0000995009711F0CFEFDFEFF80181918F018D
:1056C0006091D8047091D904882369F7DB0118969A
:1056D000ED91FC9119978AE00995009711F0CFEFB1
:1056E000DFEFCE01CDB7DEB7E6E00C94F32FAEE0EE
:1056F000B0E0EDE7FBE20C94D92F0D891E898F896C
:10570000988D26E02C831A83098397FF02C080E0DE
:1057100090E801979E838D839E01255E3F4FCE01C9
:105720000196698D7A8DA9010E94A82B4D815E8119
:1057300057FD0AC02F813885421753070CF49A0190
:10574000020F131FF80110822E96E4E00C94F52F3F
:10575000ACE0B0E0EEEAFBE20C94CB2F6C011B0155
:105760008A01FC0117821682838181FFD1C12E013B
:105770000894411C511CF6019381F10193FD859120
:1057800093FF81911F01882309F4BEC1853239F44A
:1057900093FD859193FF81911F01853229F490E05B
:1057A000B6010E94312FE7CFEE24FF2420E0203203
:1057B000B0F48B3269F08C3228F4803251F08332AD
:1057C00071F40BC08D3239F0803349F421602CC064
:1057D0002260246029C0286027C0206125C027FDE1
:1057E0002CC0382F30533A3098F426FF08C08E2D45
:1057F000880FE82EEE0CEE0CE80EE30E15C08F2D90
:10580000880FF82EFF0CFF0CF80EF30E20620CC070
:105810008E3221F426FD78C1206406C08C3611F446
:10582000206802C0883649F4F10193FD859193FF09
:1058300081911F01882309F0BACF982F9554933096
:1058400018F09052933028F40C5F1F4FFFE3F98358
:105850000DC0833631F0833771F0833509F060C0B5
:1058600022C0F801808189830E5F1F4F420171E0E1
:10587000A72EB12C16C062E0662E712C600E711E30
:10588000F8018080918026FF03C06E2D70E002C079
:105890006FEF7FEFC4012C870E94262F5C018301EC
:1058A0002C852F7717C052E0652E712C600E711E6B
:1058B000F8018080918026FF03C06E2D70E002C049
:1058C0006FEF7FEFC4012C870E94142F5C012C85A1
:1058D0002068830123FD20C008C080E290E0B6016B
:1058E0002C870E94312FFA942C858F2D90E0A816DA
:1058F000B90698F311C0F40127FD859127FF819126
:105900004F0190E0B6012C870E94312F2C85F110B9
:10591000FA940894A108B108A114B10461F7F1C088
:10592000843611F0893649F527FF08C0F8016081F7
:105930007181828193810C5F1F4F09C0F8016081E2
:105940007181882777FD8095982F0E5F1F4F4FE656
:10595000B42EB22297FF09C09095809570956195FD
:105960007F4F8F4F9F4FF0E8BF2AA2012AE030E01F
:105970000E945D2F782E741845C0853731F43FEEB4
:10598000B32EB2222AE030E025C099EFB92EB22220
:105990008F36C1F0803720F4883509F0B5C00DC0CE
:1059A000803721F0883709F0AFC002C020E1B22A69
:1059B000B4FE0BC084E0B82A08C0B4FE09C0E6E01B
:1059C000BE2A06C028E030E005C020E130E002C079
:1059D00020E132E0B7FE08C0F80160817181828168
:1059E00093810C5F1F4F07C0F8016081718180E0D7
:1059F00090E00E5F1F4FA2010E945D2F782E741859
:105A0000FFE7BF22B6FE0BC02EEFB2227E1438F4A1
:105A1000B4FE07C0B2FC05C08FEEB82202C0A72CAE
:105A200001C0AE2C8B2D90E0B4FE0DC0FE01E70D41
:105A3000F11D2081203319F4E9EEBE2209C0A394A0
:105A4000B2FE06C004C086789070009709F0A39457
:105A50008B2C9924B3FC14C0B0FE0FC0AF1428F4F3
:105A6000E72CEF0CEA18AF2C08C0E72C06C080E248
:105A700090E0B6010E94312FA394AF14C0F304C08C
:105A8000AF1410F4FA1801C0FF2484FE0FC080E3A5
:105A900090E0B6010E94312F82FE1FC081FE03C03C
:105AA00088E590E010C088E790E00DC0C4018678DA
:105AB0009070009791F081FC02C080E201C08BE2FF
:105AC000B7FC8DE290E0B6010E94312F06C080E362
:105AD00090E0B6010E94312FEA947E14C0F37A94CC
