:100000000C9426030C94E9070C941A070C944303F0
:100010000C9494230C9443030C9443030C944303D7
:100020000C9443030C94DB060C9443030C9443039D
:100030000C9443030C9475240C9443030C944303D5
:100040000C9489030C9443030C9443030C944303D2
:100050000C9443030000C0E0F0F838181838F8F0AA
:10006000E0C0000000FFFFFFFF000000000000FFF5
:10007000FFFFFF0000071F3F7FF8E0C0C0E0F87FF0
:100080003F1F0700000000808080C0E0F8F8F8F80B
:10009000000000000000000101010101FFFFFFFF5F
:1000A000000000000000000000000000FFFFFFFF54
:1000B000000000000080E0F0F0783818181878F898
:1000C000F0E0C00000010101010080C0C0E0F87F45
:1000D0003F1F0F00C0F0F8FCFEDFCFC7C3C1C0C098
:1000E000C0C0C00000C0E0F0F83818181838F8F0A8
:1000F000E0C0000000000000000030303078FFFF5A
:10010000EFC78000000C3C7C7CF0E0C0C0E0F07FDA
:100110007F3F0F0000000000000000C0E0F8F8F88A
:10012000F80000000080E0F07C3E0F0701FFFFFFB9
:10013000FF000000070707070606060606FFFFFF89
:10014000FF0606060000F8F8F8F81818181818182E
:100150001800000000003F3F3F1F1C0C0C1C3CF827
:10016000F8F0C000000C3C7C7CF0E0C0C0E0F07F08
:100170007F3F0F000000C0E0F0F83818181838F87A
:10018000F0E0C00000FEFFFFFF391C0C0C1C3CFC23
:10019000F8F0C00000071F3F7FF8E0C0C0E0F07F2C
:1001A0007F3F0F0000181818181818181818D8F8DA
:1001B000F8F8380000000000000000C0F8FEFF3F23
:1001C0000F0100000000000080F0FEFF7F0F010023
:1001D000000000000000C0F0F0F838181838F8F0FF
:1001E000F0C00000000083CFFFFF7C78787CFFFF29
:1001F000CF830000001F3F7F7FF0E0C0C0E0F07FB2
:100200007F3F1F000080E0F0F07838181838F8F0D1
:10021000E0C00000000F3F7FFFF0E0C0C0E070FFD3
:10022000FFFFFF0000183878F8E0C0C0E0F0FC7F66
:100230003F1F03000000000000000000000000005D
:1002400000000000000000000000000000000000AE
:100250000000000000000000000000E0E0E0E0001E
:1002600000000000008000000080007CFEC6C6C6C2
:10027000CE8C000000BF8888848F808C9C989898D2
:100280009F8F000000001C22222200003E023E023E
:100290003E0000000000FC081008FC0078CC0404BC
:1002A000CC7800000000010000004528112944001E
:1002B0000101000000001E21212100003F013E013C
:1002C0003E000000FFFFFFFFFF00FFFFFFFFFFFFFB
:1002D00000FFFFFFFFFFFF00FFFFFFFFFFFF00FF2B
:1002E000FFFFFFFFFF00FFFFFFFFFFFF00FFFFFF1C
:1002F000FFFFFF00FFFFFFFFFFFF00FFFFFFFFFF0C
:10030000FF00FFFFFFFFFFFF00FFFFFFFFFFFF00FA
:10031000FFFFFFFFFFFF00FFFFFFFFFFFF00FFFFEB
:10032000FFFFFFFF00FFFFFFFFFFFF00FFFFFFFFDB
:10033000FFFF00FFFFFFFFFFFF00FFFFFFFFFFFFCB
:1003400000FFFFFFFFFFFF00FFFFFFFFFFFF00FFBA
:10035000FFFFFFFFFF00FFFFFFFFFFFF00FFFFFFAB
:10036000FFFFFF00FFFFFFFFFFFF00FFFFFFFFFF9B
:10037000FF00FFFFFFFFFFFF00FFFFFFFFFFFF008A
:10038000FFFFFFFFFFFF00FFFFFFFFFFFF00FFFF7B
:10039000FFFFFFFF00FFFFFFFFFFFF00FFFFFFFF6B
:1003A000FFFF00FF0000000000FFFF00004F000003
:1003B00000FF000700070000FF147F147F1400FFF8
:1003C000242A7F2A1200FF231308646200FF3649A3
:1003D00055222000FF000503000000FF001C224101
:1003E0000000FF0041221C0000FF14083E0814001A
:1003F000FF08083E080800FF503000000000FF081A
:100400000808080800FF006060000000FF201008D6
:10041000040200FF3E5149453E00FF40427F4040FC
:1004200000FF426151494600FF2141454B3100FF29
:100430001814127F1000FF274545453900FF3C4A3C
:1004400049493000FF017109050300FF3649494958
:100450003600FF064949291E00FF0036360000001D
:10046000FF005636000000FF081422410000FF1470
:100470001414141400FF004122140800FF0201515B
:10048000090600FF000002050200FF7E1111117E27
:1004900000FF7F4949493600FF3E4141412200FFAC
:1004A0007F4141221C00FF7F4949494100FF7F09EC
:1004B00009090100FF3E4149497A00FF7F08080809
:1004C0007F00FF00417F410000FF2040413F0100CD
:1004D000FF7F0814224100FF7F4040404000FF7F23
:1004E000020C027F00FF7F0408107F00FF3E4141A5
:1004F000413E00FF7F0909090600FF3E4151215E90
:1005000000FF7F0919294600FF264949493200FFAB
:1005100001017F010100FF3F4040403F00FF1F20DD
:1005200040201F00FF3F4038403F00FF6314081485
:100530006300FF070870080700FF61514945430049
:10054000FF007F41410000FF020408102000FF006F
:1005500041417F0000FF040201020400FF404040CF
:10056000404000FF000003050000FF205454547871
:1005700000FF7F4444443800FF384444444400FFB3
:10058000384444447F00FF385454541800FF040496
:100590007E050500FF085454543C00FF7F08040406
:1005A0007800FF00447D4000FFFF2040443D00FFF5
:1005B000FF7F10284400FFFF417F4000FFFFFF7CCA
:1005C000047C047800FF7C0804047800FF3844446D
:1005D000443800FF7C1414140800FF081414147C21
:1005E00000FF7C08040400FFFF485454542400FF1B
:1005F00004043F444400FF3C4040207C00FF1C209A
:1006000040201C00FF3C4030403C00FF44281028A4
:100610004400FF0C5050503C00FF4464544C4400D4
:10062000FF083641410000FF000077000000FF0096
:100630004141360800FF08082A1C0800FF081C2A50
:10064000080800FFFFFFFFFFFF00FF0011241FBE8F
:10065000CFE5D8E0DEBFCDBF13E0A0E6B0E0E0E438
:10066000F8E502C005900D92A43CB107D9F713E05C
:10067000A4ECB3E001C01D92AF3EB107E1F70E94C8
:100680006E170C941E2C0C940000DF93CF93CDB703
:10069000DEB7F89481E0CF91DF910895DF93CF9397
:1006A00000D0CDB7DEB79A8389838FE590E02981AA
:1006B0003A81F9012081FC0120830F900F90CF91A6
:1006C000DF910895DF93CF93CDB7DEB786E290E058
:1006D00026E230E0F90120812760FC01208387E2D7
:1006E00090E020E4FC01208386E290E026E230E006
:1006F000F90120812868FC01208386E290E026E24F
:1007000030E0F90120812064FC012083CF91DF914A
:1007100008951F920F920FB60F921124EF92FF923D
:100720000F931F932F933F934F935F936F937F93F9
:100730008F939F93AF93BF93EF93FF93DF93CF93E9
:1007400000D000D0CDB7DEB78FE590E0FC0180810E
:100750008C830E9445038B8313C084E290E0FC01EC
:100760008081282F30E085E290E0FC018081882F95
:1007700090E0982F8827822B932B9A8389831B8262
:100780008B81882351F7CE0104960E944E038091FD
:10079000A3039091A403CC01A0E0B0E0BC01CD0183
:1007A0000E949025DC01CB01BC01CD0126E636E696
:1007B00046E65FE30E944626DC01CB017C018D0109
:1007C00089819A81CC01A0E0B0E0BC01CD010E94FA
:1007D0009025DC01CB01BC01CD012DEC3CEC4CECB7
:1007E0005DE30E944626DC01CB019C01AD01C801FE
:1007F000B7010E949424DC01CB01BC01CD010E9411
:100800006425DC01CB019093A4038093A30386E2CB
:1008100090E026E230E0F90120812064FC01208391
:100820002496DEBFCDBFCF91DF91FF91EF91BF91B5
:10083000AF919F918F917F916F915F914F913F9178
:100840002F911F910F91FF90EF900F900FBE0F907F
:100850001F9018950F931F93DF93CF93CDB7DEB7FB
:1008600060970FB6F894DEBF0FBECDBF85E390E072
:10087000FC0180818F8784E390E0FC018081888B7C
:1008800087E390E027E330E0F90120812E7FFC012F
:10089000208388E390E028E330E0F90120812E7F77
:1008A000FC01208384E390E0FC01108285E390E06A
:1008B0002FEFFC01208387E390E027E330E0F9018C
:1008C00020812160FC01208388E390E028E330E070
:1008D000F90120812E7FFC01208380E090E0A0E8D8
:1008E000BFE389839A83AB83BC8369817A818B81DF
:1008F0009C8120E030E04AE755E40E944626DC0176
:10090000CB018D839E83AF83B88711E06D817E819B
:100910008F81988520E030E040E85FE30E94F82472
:1009200088230CF010E0112329F081E090E09A87F1
:10093000898746C011E06D817E818F81988520E096
:100940003FEF4FE757E40E94422618160CF010E0E4
:10095000112361F169817A818B819C8120E030E0F3
:1009600040E251E40E944626DC01CB01BC01CD01EE
:100970000E946425DC01CB019A87898712C080E937
:1009800091E09C878B878B859C858C01C8010197A2
:10099000F1F78C011C870B8789859A8501979A87C7
:1009A000898789859A85009751F717C06D817E8167
:1009B0008F8198850E946425DC01CB019A87898705
:1009C00089859A859E878D878D859E858C01F80106
:1009D0003197F1F78F011E870D8783E390E0FC01CB
:1009E000808180958093DA0385E390E02F85FC0178
:1009F000208384E390E02889FC0120838091DA033E
:100A000060960FB6F894DEBF0FBECDBFCF91DF91D9
:100A10001F910F910895DF93CF9300D00F92CDB720
:100A2000DEB79A8389836B8389819A81FC019181E6
:100A30008B819817D1F089819A81FC018081823065
:100A4000A0F089819A812B81FC01218389819A817F
:100A5000FC01108289819A81FC018181882341F106
:100A600089819A81FC01818124C089819A81FC015C
:100A700091818B81981789F089819A81FC0180810D
:100A8000823058F489819A81FC018081282F2F5F60
:100A900089819A81FC0120830BC089819A81FC01A4
:100AA00091818B81981721F489819A81FC011082B0
:100AB00080E00F900F900F90CF91DF910895DF931A
:100AC000CF930F92CDB7DEB719820E942A0480938C
:100AD000DA032091DA0384EC93E0622F0E940B0585
:100AE00089838981882F90E08430910509F493C02F
:100AF0008530910564F48130910509F4C7C08230D6
:100B0000910509F4A6C0009709F4DEC0C6C0803183
:100B10009105C9F1813191052CF48830910509F4D2
:100B200055C0BBC080329105B9F08034910509F001
:100B3000B4C08091CF03882331F481E08093CF0348
:100B40000E948721C8C01092CF030E94872180E6AF
:100B500090E00E945E27BFC08981282F30E000D03E
:100B600000D08DB79EB7019647E650E0FC01518357
:100B70004083FC01338322830E9449270F900F900A
:100B80000F900F90A8C08981282F30E000D000D0AE
:100B90008DB79EB7019640E750E0FC01518340833A
:100BA000FC01338322830E9449270F900F900F90FE
:100BB0000F908091CA03882319F00E94ED188BC012
:100BC00081E08093CA030E94E01785C080913001C4
:100BD000882351F08FEB92E09093D1028093D00262
:100BE00080E090E00E9465198981282F30E000D0D4
:100BF00000D08DB79EB7019649E750E0FC015183C4
:100C00004083FC01338322830E9449270F900F9079
:100C10000F900F9060C08981282F30E000D000D065
:100C20008DB79EB7019642E850E0FC0151834083A6
:100C3000FC01338322830E9449270F900F900F906D
:100C40000F908091CA03882309F440C00E94521873
:100C500042C08981282F30E000D000D08DB79EB7E8
:100C600001964BE850E0FC0151834083FC01338343
:100C700022830E9449270F900F900F900F90809130
:100C8000CA03882329F10E941E1925C08091CA0336
:100C9000882301F10E9496181EC08981282F30E018
:100CA00000D000D08DB79EB7019644E950E0FC011A
:100CB00051834083FC01338322830E9449270F9094
:100CC0000F900F900F9007C0000005C0000003C0F8
:100CD000000001C000000F90CF91DF910895DF93D5
:100CE000CF93CDB7DEB7F89481E0CF91DF9108952F
:100CF000DF93CF9300D0CDB7DEB79A8389838FE59A
:100D000090E029813A81F9012081FC0120830F9034
:100D10000F90CF91DF910895DF93CF93CDB7DEB7DA
:100D20001092C7031092C6038091AD00882399F4F6
:100D30008BE590E02BE530E0F90120812064FC0197
:100D400020838BE590E02BE530E0F90120812F77BF
:100D5000FC01208312C08BE590E02BE530E0F90127
:100D600020812068FC0120838BE590E02BE530E0BA
:100D7000F90120812F7BFC01208385E590E025E5AA
:100D800030E0F90120812A60FC0120838FE490E0AB
:100D9000FC0110828EE490E025E0FC01208389E5CF
:100DA00090E029E530E0F90120812460FC012083F6
:100DB000CF91DF9108951F920F920FB60F921124D9
:100DC0002F933F934F935F936F937F938F939F9353
:100DD000AF93BF93EF93FF93DF93CF93CDB7DEB77E
:100DE0002091C6033091C70300D000D08DB79EB7C5
:100DF00001964EEB50E0FC0151834083FC013383AC
:100E000022830E9449270F900F900F900F90CF914F
:100E1000DF91FF91EF91BF91AF919F918F917F9162
:100E20006F915F914F913F912F910F900FBE0F9057
:100E30001F9018951F920F920FB60F921124EF92E8
:100E4000FF920F931F932F933F934F935F936F9353
:100E50007F938F939F93AF93BF93EF93FF93DF9312
:100E6000CF9300D0CDB7DEB78FE590E0FC01808155
:100E70008A830E946F06898382C08CE490E0FC0123
:100E8000808191819093DC038093DB038CE490E07C
:100E9000FC01118210828091DB039091DC03893C7C
:100EA000910508F445C08091DB039091DC03CC01EF
:100EB000A0E0B0E0BC01CD010E949025DC01CB0197
:100EC000BC01CD012DEC3CEC4CEC5DE30E944626D0
:100ED000DC01CB017C018D018091AE009091AF00CF
:100EE000CC01A0E0B0E0BC01CD010E949025DC0166
:100EF000CB01BC01CD0126E636E646E65FE30E9463
:100F00004626DC01CB019C01AD01C801B7010E945E
:100F10009424DC01CB01BC01CD010E946425DC01DD
:100F2000CB019093AF008093AE001092C90326C00E
:100F30008091C9038F5F8093C9038091C90385366F
:100F4000E8F08091C903282F30E000D000D08DB7A1
:100F50009EB7019646ED50E0FC0151834083FC01B1
:100F6000338322830E9449270F900F900F900F9098
:100F70001092C9031092AF001092AE0019828981BD
:100F8000882309F07ACFCE0102960E9478068AE57E
:100F900090E02AE530E0F90120812068FC012083FF
:100FA0000F900F90CF91DF91FF91EF91BF91AF9193
:100FB0009F918F917F916F915F914F913F912F9171
:100FC0001F910F91FF90EF900F900FBE0F901F9009
:100FD00018951F920F920FB60F921124EF92FF9265
:100FE0000F931F932F933F934F935F936F937F9331
:100FF0008F939F93AF93BF93EF93FF93DF93CF9321
:1010000000D0CDB7DEB78FE590E0FC0180818A8308
:101010000E946F06898382C08CE490E0FC0180818D
:1010200091819093DC038093DB038CE490E0FC01DE
:10103000118210828091DB039091DC03893C910541
:1010400008F445C08091B0009091B100CC01A0E0BF
:10105000B0E0BC01CD010E949025DC01CB01BC01B8
:10106000CD0120E030E040E05FE30E944626DC0155
:10107000CB017C018D018091DB039091DC03CC01DD
:10108000A0E0B0E0BC01CD010E949025DC01CB01C5
:10109000BC01CD0120E030E040E05FE30E94462645
:1010A000DC01CB019C01AD01C801B7010E94942471
:1010B000DC01CB01BC01CD010E946425DC01CB0128
:1010C0009093B1008093B0001092C90326C0809124
:1010D000C9038F5F8093C9038091C9038536E8F007
:1010E0008091C903282F30E000D000D08DB79EB783
:1010F000019646ED50E0FC0151834083FC013383AF
:1011000022830E9449270F900F900F900F9010920A
:10111000C9031092B1001092B0001982898188230E
:1011200009F07ACFCE0102960E9478068AE590E017
:101130002AE530E0F90120812064FC0120830F9032
:101140000F90CF91DF91FF91EF91BF91AF919F9160
:101150008F917F916F915F914F913F912F911F914F
:101160000F91FF90EF900F900FBE0F901F9018956A
:10117000DF93CF93CDB7DEB78BE590E02BE530E082
:10118000F90120812F7BFC01208381E090E0A0E029
:10119000B0E08093B2009093B300A093B400B093FA
:1011A000B50081E08093AD008BE590E02BE530E069
:1011B000F90120812068FC012083CF91DF910895FF
:1011C000DF93CF93CDB7DEB78BE590E02BE530E032
:1011D000F90120812F77FC01208381E090E0A0E0DD
:1011E000B0E08093B2009093B300A093B400B093AA
:1011F000B5001092AD008BE590E02BE530E0F901F1
:1012000020812064FC012083CF91DF910895DF933A
:10121000CF93CDB7DEB728970FB6F894DEBF0FBED9
:10122000CDBF2091AE003091AF0000D000D08DB77F
:101230009EB701964AEE50E0FC0151834083FC01C9
:10124000338322830E9449270F900F900F900F90B5
:101250008091AD008130B1F58091AE009091AF00EA
:10126000CC01A0E0B0E0BC01CD010E949025DC01E2
:10127000CB012091A1003091A2004091A300509198
:10128000A400BC01CD010E944626DC01CB012091C7
:101290009D0030919E0040919F005091A000BC01A4
:1012A000CD010E949424DC01CB0189839A83AB8316
:1012B000BC8369817A818B819C810E946425DC01D9
:1012C000CB0135C08091B0009091B100CC01A0E07D
:1012D000B0E0BC01CD010E949025DC01CB01209142
:1012E000A9003091AA004091AB005091AC00BC0124
:1012F000CD010E944626DC01CB012091A500309152
:10130000A6004091A7005091A800BC01CD010E9409
:101310009424DC01CB018D839E83AF83B8876D81DC
:101320007E818F8198850E946425DC01CB01BC0100
:10133000CD0128960FB6F894DEBF0FBECDBFCF917A
:10134000DF910895DF93CF9300D000D0CDB7DEB703
:101350000E940709DC01CB01BC01CD010E94902550
:10136000DC01CB0189839A83AB83BC8329813A81D9
:101370004B815C8160E074E284E799E40E94FC2484
:10138000DC01CB0189839A83AB83BC8389819A81F9
:10139000AB81BC81BC01CD010E946425DC01CB0185
:1013A000BC01CD010F900F900F900F90CF91DF9166
:1013B0000895DF93CF93CDB7DEB780E090E00E9431
:1013C000B92921E08230920709F066C080E091E0FF
:1013D0000E945E2782E090E00E94AB298093C803C0
:1013E00087E090E00E94B329DC01CB018093A50344
:1013F0009093A603A093A703B093A8038BE090E07B
:101400000E94B329DC01CB018093A9039093AA0326
:10141000A093AB03B093AC0383E090E00E94B929A2
:10142000CC01A0E0B0E02CE330E040E050E0BC01B3
:10143000CD010E94A926DC01CB018093F800909396
:10144000F900A093FA00B093FB0085E090E00E94C1
:10145000AB29482F50E02CE330E0429FC001439F6E
:10146000900D529F900D11249093FD008093FC00ED
:1014700086E090E00E94AB29482F50E02CE330E05A
:10148000429FC001439F900D529F900D1124909355
:10149000FF008093FE0006C08DE091E00E945E2771
:1014A0000E94550ACF91DF910895DF93CF93CDB776
:1014B000DEB780E090E062E071E00E94D42982E033
:1014C00090E060E00E94BF2983E090E068EA7FE25C
:1014D0000E94D42987E090E040E050E0BA010E94E9
:1014E000CC298BE090E040E050E060E47FE30E9494
:1014F000CC2985E090E06FE00E94BF2986E090E073
:1015000064E10E94BF29CF91DF910895DF93CF93CB
:10151000CDB7DEB72091C80382E090E0622F0E9431
:10152000BF29CF91DF910895DF93CF9300D0CDB73E
:10153000DEB78091F8009091F900A091FA00B09187
:10154000FB002CE330E040E050E0BC01CD010E9404
:10155000DC26DA01C9019A83898383E090E029813E
:101560003A81B9010E94D4290F900F90CF91DF9159
:101570000895DF93CF93CDB7DEB72091A5033091C7
:10158000A6034091A7035091A80387E090E0BA0119
:10159000A9010E94CC292091A9033091AA0340916E
:1015A000AB035091AC038BE090E0BA01A9010E941B
:1015B000CC29CF91DF910895DF93CF93CDB7DEB7DC
:1015C0008091FC009091FD002CE330E0B9010E9475
:1015D000C8269B01C901282F85E090E0622F0E9458
:1015E000BF29CF91DF910895DF93CF93CDB7DEB7B9
:1015F0008091FE009091FF002CE330E0B9010E9441
:10160000C8269B01C901282F86E090E0622F0E9426
:10161000BF29CF91DF910895DF93CF93CDB7DEB788
:1016200085E090E00E94AB29482F50E02CE330E0A9
:10163000429FC001439F900D529F900D11249093A3
:10164000FD008093FC00CF91DF910895DF93CF934D
:10165000CDB7DEB786E090E00E94AB29482F50E07E
:101660002CE330E0429FC001439F900D529F900DAC
:1016700011249093FF008093FE00CF91DF91089595
:101680000F931F93DF93CF93CDB7DEB72E970FB68F
:10169000F894DEBF0FBECDBF8AE390E02AE330E0CE
:1016A000F9012081206FFC01208384E390E0FC019C
:1016B000808184E390E02FEFFC01208387E390E0BA
:1016C00027E330E0F90120812260FC0120830E94A1
:1016D000A0168FE30E9451120E9487168FE30E948A
:1016E000511280E090E0A0E2B1E489839A83AB8359
:1016F000BC8369817A818B819C8120E030E04AE75C
:1017000053E40E944626DC01CB018D839E83AF8388
:10171000B88711E06D817E818F81988520E030E06F
:1017200040E85FE30E94F82488230CF010E01123C6
:1017300029F081E090E09A87898746C011E06D81A9
:101740007E818F81988520E03FEF4FE757E40E942C
:10175000422618160CF010E0112361F169817A819C
:101760008B819C8120E030E040E251E40E944626DB
:10177000DC01CB01BC01CD010E946425DC01CB0161
:101780009A87898712C089E190E09C878B878B8537
:101790009C858C01C8010197F1F78C011C870B8790
:1017A00089859A8501979A87898789859A8500977F
:1017B00051F717C06D817E818F8198850E946425C5
:1017C000DC01CB019A87898789859A859E878D87D9
:1017D0008D859E858C01F8013197F1F78F011E8769
:1017E0000D870E94A01680EC0E9451120E9487165D
:1017F00080EC0E9451120E940F0C83E00E94C60CE4
:101800008BE191E00E94660D2E960FB6F894DEBF34
:101810000FBECDBFCF91DF911F910F910895DF9340
:10182000CF9300D00F92CDB7DEB78091E0038B83CA
:101830001092E003198217C089810E94C60C1A8297
:101840000CC08A81803419F481E00E94A00C80E0F1
:101850000E9469138A818F5F8A838A8188238CF72B
:1018600089818F5F89838981883030F38B81809370
:10187000E00380E00E94C60C0F900F900F90CF9174
:10188000DF910895DF93CF9300D00F92CDB7DEB7ED
:1018900089836A834B838981882319F08981813008
:1018A00009F58A818830F0F48B818034D8F48981FD
:1018B000882319F40E94A01602C00E94871689810D
:1018C0008093DD038A81886B8093DE038B81806443
:1018D0008093DF038091DF030E9451128091DE0329
:1018E0000E9451120F900F900F90CF91DF910895A9
:1018F000DF93CF9300D000D000D0CDB7DEB79A836E
:1019000089837C836B835E834D832091DD03898192
:101910009A81FC0120832091DE038B819C81FC0154
:1019200020832091DF038D819E81FC0120832696F8
:101930000FB6F894DEBF0FBECDBFCF91DF910895F3
:10194000DF93CF930F92CDB7DEB789838981882348
:1019500019F089818130B1F48981882319F40E94BA
:10196000A01602C00E94871689818093DD0380E45F
:101970008093DF038091DE030E9451128091DF0388
:101980000E9451120F90CF91DF910895DF93CF9372
:101990000F92CDB7DEB789838981883038F4898189
:1019A00088548093DE0380E00E94A00C0F90CF91BA
:1019B000DF910895DF93CF93CDB7DEB78091DE033B
:1019C0008F5F8093DE038091DE03803C18F088EB0C
:1019D0008093DE0380E00E94A00CCF91DF910895F8
:1019E000DF93CF93CDB7DEB78FEF8093E003CF9136
:1019F000DF910895DF93CF93CDB7DEB71092E00368
:101A0000CF91DF9108951F93DF93CF93CDB7DEB7CA
:101A100027970FB6F894DEBF0FBECDBF8F8380919E
:101A2000DD03813021F48091DF038C3718F48F813E
:101A30008A3011F40E94DA0C8F818A3009F43CC09C
:101A400024EC32E08F81882F90E0AC01440F551FC9
:101A5000440F551F440F551FBA01681B790BCB016A
:101A6000820F931F9A8389838091DD03882339F441
:101A70008091DF03803819F481E00E94A00C8981F5
:101A80009A819C838B8389819A8101969A83898329
:101A90008B819C81FC0114911D838D818E838E81AD
:101AA0008F3F49F08E810E9469138091DF038F5F21
:101AB0008093DF03D9CF000027960FB6F894DEBFDE
:101AC0000FBECDBFCF91DF911F910895DF93CF93CC
:101AD00000D0CDB7DEB79A8389830CC089819A8103
:101AE000FC01208189819A8101969A838983822FC2
:101AF0000E94030D89819A81FC018081882371F7FE
:101B00000F900F90CF91DF9108950F931F93DF9364
:101B1000CF93CDB7DEB760970FB6F894DEBF0FBE98
:101B2000CDBF6C877D878E879F87488B19828C8578
:101B30009D85AE85BF850097A105B105C1F41982C9
:101B40000DC08981882F90E09E012E5F3F4F820F4C
:101B5000931FFC01108289818F5F89839981888915
:101B6000981708F061C089818A3058F35DC01982E6
:101B700044C08C859D85AE85BF850097A105B105C4
:101B800049F18981082F10E08C859D85AE85BF8540
:101B90002AE030E040E050E0BC01CD010E94DC26AC
:101BA000DC01CB01282FCE010296800F911FFC0192
:101BB00020838C859D85AE85BF852AE030E040E09E
:101BC00050E0BC01CD010E94DC262C873D874E876A
:101BD0005F8710C088898F3F39F188898B3020F565
:101BE0008981882F90E09E012E5F3F4F820F931FC7
:101BF000FC01108289818F5F898399818889981778
:101C000008F4B7CF11C08981882F90E001979E0119
:101C10002E5F3F4F820F931FFC018081805D0E94E9
:101C2000030D8981815089838981882361F76096BA
:101C30000FB6F894DEBF0FBECDBFCF91DF911F91DD
:101C40000F910895DF93CF93CDB7DEB760970FB6AE
:101C5000F894DEBF0FBECDBF6C877D878E879F87D0
:101C6000488B19828C859D85AE85BF850097A1051F
:101C7000B105C1F419820DC08981882F90E09E01C1
:101C80002E5F3F4F820F931FFC01108289818F5F6F
:101C9000898399818889981708F072C089818A3070
:101CA00058F36EC019823BC08C859D85AE85BF857B
:101CB0000097A105B105F1F08981882F90E02C856E
:101CC000422F4F709E012E5F3F4F820F931FFC01EA
:101CD00040838C859D85AE85BF85689413F8B69545
:101CE000A795979587951694D1F78C879D87AE8792
:101CF000BF8712C088898F3F09F442C088898B3022
:101D000008F03EC08981882F90E09E012E5F3F4FF2
:101D1000820F931FFC01108289818F5F89839981D3
:101D20008889981708F4C0CF2BC08981882F90E04C
:101D300001979E012E5F3F4F820F931FFC01808110
:101D40008A3068F08981882F90E001979E012E5F8C
:101D50003F4F820F931FFC018081895C0CC08981F9
:101D6000882F90E001979E012E5F3F4F820F931FB7
:101D7000FC018081805D0E94030D898181508983EF
:101D80008981882391F660960FB6F894DEBF0FBE66
:101D9000CDBFCF91DF910895DF93CF9300D000D0D6
:101DA00000D0CDB7DEB76A837B838C839D834E835F
:101DB00028C08E81882F90E09C012150304081E026
:101DC00090E002C0880F991F2A95E2F79C014427F2
:101DD00037FD4095542F8A819B81AC81BD81822340
:101DE0009323A423B52321E00097A105B10509F4AD
:101DF00020E029838981805D0E94030D8E818150BE
:101E00008E838E818823A9F626960FB6F894DEBFBE
:101E10000FBECDBFCF91DF910895DF93CF93CDB7A4
:101E2000DEB728970FB6F894DEBF0FBECDBF6D8327
:101E30007E838F8398876D817E818F8198850E94B4
:101E40006425DC01CB0189839A83AB83BC838981C0
:101E50009A81AB81BC81BC01CD014FEF0E94850D01
:101E60008EE20E94030D69817A818B819C810E94A0
:101E700090259B01AC016D817E818F8198850E94A8
:101E80009324DC01CB018D839E83AF83B8876D8162
:101E90007E818F81988520E034E244E759E40E94F6
:101EA0004626DC01CB01BC01CD010E946425DC018A
:101EB000CB0189839A83AB83BC8389819A81AB816F
:101EC000BC81BC01CD014FEF0E94850D28960FB655
:101ED000F894DEBF0FBECDBFCF91DF910895DF93A1
:101EE000CF93CDB7DEB768970FB6F894DEBF0FBEBD
:101EF000CDBFCE014F96988F8F8B8D8D9E8D9A83FF
:101F00008983BEC189819A81FC0180818987898505
:101F1000853209F0ADC189819A8101969A838983BE
:101F200089819A81FC01808189878985803300F1CC
:101F300089858A33E8F41A8614C08A85880F982F19
:101F4000990F990F980F8985890F80538A87898106
:101F50009A8101969A83898389819A81FC01808183
:101F600089878985803338F089858A3330F304C0C6
:101F70008FEF8A8701C000008985882F90E088351F
:101F8000910509F4F1C08935910504F58434910572
:101F900009F470C08534910564F48234910509F424
:101FA00019C1833491058CF58532910509F45CC122
:101FB00062C18335910509F445C18535910509F460
:101FC000A2C08634910509F424C155C18636910515
:101FD00009F41FC1873691055CF483369105A9F099
:101FE0008436910509F18236910509F4D7C043C1C1
:101FF0008537910509F470C08837910509F49DC0B3
:102000008337910509F41EC136C18F89988D9C01D3
:102010002E5F3F4F388F2F8BFC0180819181898704
:1020200089850E94030D27C18F89988D9C012E5FA1
:102030003F4F388F2F8BFC01808191819C838B8354
:102040008B819C81992354F48B819C8190958195FF
:102050009F4F9C838B838DE20E94030D8B819C811B
:10206000AA2797FDA095BA2FBC01CD014A850E94F1
:10207000850D01C18F89988D9C012C5F3F4F388F52
:102080002F8BFC0180819181A281B3818D839E83FE
:10209000AF83B8878D819E81AF81B885BB2394F4CF
:1020A0008D819E81AF81B885B095A09590958195E1
:1020B0009F4FAF4FBF4F8D839E83AF83B8878DE215
:1020C0000E94030D8D819E81AF81B885BC01CD0139
:1020D0004A850E94850DCFC08F89988D9C012E5F07
:1020E0003F4F388F2F8BFC01808191819C878B879C
:1020F0008B859C85CC01A0E0B0E0BC01CD014A8578
:102100000E94850DB8C08F89988D9C012C5F3F4F30
:10211000388F2F8BFC0180819181A281B3818D87C3
:102120009E87AF87B88B8D859E85AF85B889BC01AA
:10213000CD014A850E94850D9EC08F89988D9C0196
:102140002E5F3F4F388F2F8BFC01808191819C87C0
:102150008B878B859C85CC01A0E0B0E0BC01CD01D4
:102160004A850E94220E87C08F89988D9C012C5F22
:102170003F4F388F2F8BFC0180819181A281B381E9
:102180008D879E87AF87B88B8D859E85AF85B889F3
:10219000BC01CD014A850E94220E6DC08F89988DA9
:1021A0009C012E5F3F4F388F2F8BFC0180819181E6
:1021B0009C878B878A858F3F11F480E18A878B8586
:1021C0009C85CC01A0E0B0E0BC01CD014A850E9415
:1021D000CC0E51C08F89988D9C012C5F3F4F388F5A
:1021E0002F8BFC0180819181A281B3818D879E8795
:1021F000AF87B88B8A858F3F11F480E18A878D8500
:102200009E85AF85B889BC01CD014A850E94CC0E60
:1022100032C08F89988D9C012C5F3F4F388F2F8B58
:10222000FC0180819181A281B381898B9A8BAB8BD8
:10223000BC8B89899A89AB89BC89BC01CD010E947C
:102240000D0F19C08F89988D9C012E5F3F4F388FDD
:102250002F8BFC01808191819E8B8D8B8D899E8936
:102260000E94660D000007C085E20E94030D03C0B6
:1022700089850E94030D89819A8101969A838983B9
:1022800089819A81FC018081882309F03BCE689680
:102290000FB6F894DEBF0FBECDBFCF91DF9108958A
:1022A000DF93CF9300D0CDB7DEB7198216C08981F6
:1022B0000E94C60C1A820BC08A81803411F40E94DD
:1022C000871680E00E9469138A818F5F8A838A81E2
:1022D000882394F789818F5F89838981883038F3D7
:1022E00080E00E94C60C0F900F90CF91DF9108956F
:1022F000DF93CF93CDB7DEB729970FB6F894DEBF43
:102300000FBECDBF888769878885843008F06FC08D
:102310008985853608F06BC088858295880F807E18
:102320008B838B81803410F41D8205C081E08D8306
:102330008B8180548B838B81982F985F8D8160E097
:10234000492F0E94420C8985882F90E0A0E0B0E0E0
:10235000BC01CD0143E00E94850D89858695898762
:1023600089858695869586958E8397E08E81292F1F
:10237000281B822F8F8381E0898336C08B81982F21
:10238000945F8D816981492F0E94420C99818F81D0
:10239000981710F41C821AC099818F819817A1F4A4
:1023A000898587708C838C81882F90E028E030E0CD
:1023B000281B390B8FEF90E0022E02C0880F991F67
:1023C0000A94E2F78C8302C08FEF8C831A8206C0D6
:1023D0008C810E9469138A818F5F8A838A818C3005
:1023E000B8F389818F5F89838981883038F2299693
:1023F0000FB6F894DEBF0FBECDBFCF91DF91089529
:10240000DF93CF9300D000D0CDB7DEB78B836C8342
:102410008B81880F8F5F8A838B818430D8F58C8184
:102420008536C0F580E06A8140E00E94420C198246
:102430000CC08981803419F481E00E94A00C8FEFD8
:102440000E94691389818F5F898399818C81981794
:1024500080F38C8189830CC08981803419F481E0F8
:102460000E94A00C80E00E94691389818F5F89839C
:102470008981843688F381E06A814EE60E94420CAD
:102480008C81882F90E0A0E0B0E0BC01CD0143E05A
:102490000E94850D0F900F900F900F90CF91DF91BC
:1024A00008950F931F93DF93CF93CDB7DEB769974E
:1024B0000FB6F894DEBF0FBECDBF898F0E94841483
:1024C00085E390E0298DFC0120838BE390E02BE3F2
:1024D00030E0F90120812F77FC0120838BE390E02D
:1024E0002BE330E0F90120812F7BFC0120838BE37B
:1024F00090E02BE330E0F90120812062FC01208391
:1025000080E090E0A0E0B0E489839A83AB83BC8351
:1025100069817A818B819C812BEA3AEA4AEA5EE3FF
:102520000E944626DC01CB018D839E83AF83B88752
:1025300011E06D817E818F81988520E030E040E858
:102540005FE30E94F82488230CF010E0112319F0B7
:1025500081E08987A3C011E06D817E818F8198859C
:1025600020E030E04FE753E40E94422618160CF0BA
:1025700010E0112309F489C069817A818B819C81E3
:1025800020E030E04AE754E40E94FC24DC01CB0167
:102590008A879B87AC87BD876A857B858C859D856F
:1025A00020E030E04AE753E40E944626DC01CB01FC
:1025B0008E879F87A88BB98B11E06E857F85888970
:1025C000998920E030E040E85FE30E94F824882306
:1025D0000CF010E0112329F081E090E09B8B8A8BB6
:1025E00046C011E06E857F858889998920E03FEF9C
:1025F0004FE757E40E94422618160CF010E0112312
:1026000061F16A857B858C859D8520E030E040E224
:1026100051E40E944626DC01CB01BC01CD010E94A1
:102620006425DC01CB019B8B8A8B12C089E190E091
:102630009D8B8C8B8C899D898C01C8010197F1F74A
:102640008C011D8B0C8B8A899B8901979B8B8A8BB4
:102650008A899B89009751F728C06E857F85888974
:1026600099890E946425DC01CB019B8B8A8B8A8926
:102670009B899F8B8E8B8E899F898C01F801319766
:10268000F1F78F011F8B0E8B10C06D817E818F81C2
:1026900098850E946425DC01CB0189878985888F14
:1026A000888D182F1A95F1F7188F8BE390E02BE3A4
:1026B00030E0F90120812F7DFC01208369960FB65F
:1026C000F894DEBF0FBECDBFCF91DF911F910F9168
:1026D00008950F931F93DF93CF93CDB7DEB769971C
:1026E0000FB6F894DEBF0FBECDBF898F0E94841451
:1026F00085E390E03091E003298D2327FC012083BE
:102700008BE390E02BE330E0F90120812068FC01AD
:1027100020838BE390E02BE330E0F90120812F7BD5
:10272000FC0120838BE390E02BE330E0F901208172
:102730002062FC01208380E090E0A0E0B0E4898387
:102740009A83AB83BC8369817A818B819C812BEADC
:102750003AEA4AEA5EE30E944626DC01CB018D8319
:102760009E83AF83B88711E06D817E818F819885CC
:1027700020E030E040E85FE30E94F82488230CF07A
:1027800010E0112319F081E08987A3C011E06D8169
:102790007E818F81988520E030E04FE753E40E94EE
:1027A000422618160CF010E0112309F489C0698143
:1027B0007A818B819C8120E030E04AE754E40E94DA
:1027C000FC24DC01CB018A879B87AC87BD876A85A7
:1027D0007B858C859D8520E030E04AE753E40E94AC
:1027E0004626DC01CB018E879F87A88BB98B11E031
:1027F0006E857F858889998920E030E040E85FE335
:102800000E94F82488230CF010E0112329F081E0C5
:1028100090E09B8B8A8B46C011E06E857F8588890E
:10282000998920E03FEF4FE757E40E9442261816AF
:102830000CF010E0112361F16A857B858C859D8504
:1028400020E030E040E251E40E944626DC01CB016A
:10285000BC01CD010E946425DC01CB019B8B8A8BDE
:1028600012C089E190E09D8B8C8B8C899D898C01B5
:10287000C8010197F1F78C011D8B0C8B8A899B890C
:1028800001979B8B8A8B8A899B89009751F728C077
:102890006E857F85888999890E946425DC01CB013A
:1028A0009B8B8A8B8A899B899F8B8E8B8E899F8934
:1028B0008C01F8013197F1F78F011F8B0E8B10C03F
:1028C0006D817E818F8198850E946425DC01CB011A
:1028D00089878985888F888D182F1A95F1F7188F29
:1028E0008BE390E02BE330E0F90120812F7DFC01A8
:1028F000208369960FB6F894DEBF0FBECDBFCF918F
:10290000DF911F910F9108950F931F93DF93CF9342
:10291000CDB7DEB7E1970FB6F894DEBF0FBECDBFDF
:1029200084E390E024E330E0F90120812F77FC017B
:1029300020838BE390E02BE330E0F90120812F77B7
:10294000FC0120838BE390E02BE330E0F901208150
:102950002064FC0120838BE390E02BE330E0F9015D
:1029600020812F7DFC01208380E090E0A0E0B0E496
:102970008A839B83AC83BD836A817B818C819D81AB
:102980002BEA3AEA4AEA5EE30E944626DC01CB01E2
:102990008E839F83A887B98711E06E817F818885A8
:1029A000998520E030E040E85FE30E94F824882326
:1029B0000CF010E0112319F081E08A87A3C011E028
:1029C0006E817F818885998520E030E04FE753E470
:1029D0000E94422618160CF010E0112309F489C059
:1029E0006A817B818C819D8120E030E04AE754E45C
:1029F0000E94FC24DC01CB018B879C87AD87BE87BE
:102A00006B857C858D859E8520E030E04AE753E428
:102A10000E944626DC01CB018F87988BA98BBA8B4D
:102A200011E06F85788989899A8920E030E040E853
:102A30005FE30E94F82488230CF010E0112329F0B2
:102A400081E090E09C8B8B8B46C011E06F8578898C
:102A500089899A8920E03FEF4FE757E40E94422698
:102A600018160CF010E0112361F16B857C858D85C3
:102A70009E8520E030E040E251E40E944626DC01E1
:102A8000CB01BC01CD010E946425DC01CB019C8BF4
:102A90008B8B12C089E190E09E8B8D8B8D899E89F6
:102AA0008C01C8010197F1F78C011E8B0D8B8B896E
:102AB0009C8901979C8B8B8B8B899C89009751F704
:102AC00028C06F85788989899A890E946425DC01EC
:102AD000CB019C8B8B8B8B899C89988F8F8B8F895B
:102AE000988D8C01F8013197F1F78F01188F0F8BBA
:102AF00010C06E817F81888599850E946425DC01E4
:102B0000CB018A878A85898F898D182F1A95F1F7CD
:102B1000198F8BE390E02BE330E0F90120812062F4
:102B2000FC01208380E090E0A0E0B0E48A8F9B8FDE
:102B3000AC8FBD8F6A8D7B8D8C8D9D8D2BEA3AEA93
:102B40004AEA5EE30E944626DC01CB018E8F9F8F0E
:102B5000A8A3B9A311E06E8D7F8D88A199A120E073
:102B600030E040E85FE30E94F82488230CF010E096
:102B7000112319F081E08AA3A3C011E06E8D7F8D2F
:102B800088A199A120E030E04FE753E40E9442265B
:102B900018160CF010E0112309F489C06A8D7B8DA2
:102BA0008C8D9D8D20E030E04AE754E40E94FC24A7
:102BB000DC01CB018BA39CA3ADA3BEA36BA17CA125
:102BC0008DA19EA120E030E04AE753E40E94462612
:102BD000DC01CB018FA398A7A9A7BAA711E06FA129
:102BE00078A589A59AA520E030E040E85FE30E943F
:102BF000F82488230CF010E0112329F081E090E004
:102C00009CA78BA746C011E06FA178A589A59AA5BE
:102C100020E03FEF4FE757E40E94422618160CF0E1
:102C200010E0112361F16BA17CA18DA19EA120E098
:102C300030E040E251E40E944626DC01CB01BC01B9
:102C4000CD010E946425DC01CB019CA78BA712C09B
:102C500089E190E09EA78DA78DA59EA58C01C80156
:102C60000197F1F78C011EA70DA78BA59CA50197D5
:102C70009CA78BA78BA59CA5009751F728C06FA197
:102C800078A589A59AA50E946425DC01CB019CA7A3
:102C90008BA78BA59CA598AB8FA78FA598A98C0116
:102CA000F8013197F1F78F0118AB0FA710C06E8DA7
:102CB0007F8D88A199A10E946425DC01CB018AA3A4
:102CC0008AA189AB89A9182F1A95F1F719AB83E36B
:102CD00090E0FC018081881F8827881F8983898173
:102CE000882309F038CE84E390E024E330E0F90152
:102CF00020812068FC012083E1960FB6F894DEBFA6
:102D00000FBECDBFCF91DF911F910F910895DF933B
:102D1000CF93CDB7DEB78BE390E02BE330E0F90142
:102D200020812061FC01208388E390E028E330E0EB
:102D3000F90120812D7FFC012083CF91DF9108953F
:102D4000DF93CF93CDB7DEB788E390E028E330E0A0
:102D5000F90120812260FC0120838BE390E02BE3CA
:102D600030E0F90120812F7EFC012083CF91DF919B
:102D70000895EF92FF920F931F93DF93CF93CDB7F8
:102D8000DEB72B970FB6F894DEBF0FBECDBF8B8793
:102D90008091DF038C838091DE038B831A8624E588
:102DA00030E08B85682F70E040E350E0649FC00105
:102DB000659F900D749F900D1124820F931F9A832D
:102DC000898301C000008A858F5F8A8789819A8103
:102DD0009E838D8389819A8101969A8389838D81CF
:102DE0009E818C01F801E590F4908F01F886EF82C6
:102DF0001E830D838F819885898789850E94691339
:102E00008A85803370F48A858F708823D9F68B8108
:102E10008F5F8B838C810E9451128B810E94511293
:102E2000D2CF00002B960FB6F894DEBF0FBECDBFF9
:102E3000CF91DF911F910F91FF90EF900895DF9355
:102E4000CF93CDB7DEB781E062E040E30E94420C51
:102E50008BE00E94B916CF91DF910895DF93CF9355
:102E6000CDB7DEB781E062E040E30E94420C8CE027
:102E70000E94B916CF91DF910895DF93CF93CDB71C
:102E8000DEB787E390E027E330E0F90120812F7976
:102E9000FC01208388E390E028E330E0F901208101
:102EA0002066FC012083CF91DF910895DF93CF93BB
:102EB000CDB7DEB786E390E0FC0180818072CF91D0
:102EC000DF910895DF93CF93CDB7DEB786E390E02F
:102ED000FC0180818074CF91DF910895DF93CF93BF
:102EE00000D0CDB7DEB778940E9455200E94400BE9
:102EF0000E9437200E9462030E94FA230E948C06DF
:102F00000E9472230E9405210E94D90980912C0100
:102F100090912D010E94AE201A82198207C00E9452
:102F20005F0589819A8101969A83898389819A8133
:102F300021E0843F920798F3109230010CC00E9468
:102F40005F058091D803882331F01092D80380E088
:102F500090E00E9465198091CB03882381F701C01E
:102F600000000E945F058091D8038823C9F3109266
:102F7000D8030E9412218091CA03882321F40E9461
:102F8000FB1F0E94651D80912D0182958695869577
:102F900083708170982F81E089278170817082957C
:102FA000880F880F807C90912D019F7B892B8093C7
:102FB0002D0180912C0190912D010E94AE20D1CF46
:102FC000DF93CF930F92CDB7DEB70E940F0C80E056
:102FD0000E94C60C8091D0029091D102FC018281A6
:102FE00093810E94660D198255C02091D0023091C4
:102FF000D1028981882F90E0880F991F820F931F3B
:103000000596FC0180819181009709F43FC0809171
:10301000D0029091D102FC01948189819817E9F442
:103020000E94F00C89818E5F0E94C60C2091D00214
:103030003091D1028981882F90E0880F991F820FEB
:10304000931F0596FC0180819181FC01828193810F
:103050000E94660D0E94FA0C1AC089818E5F0E9440
:10306000C60C2091D0023091D1028981882F90E046
:10307000880F991F820F931F0596FC018081918113
:10308000FC01828193810E94660D01C0000089814C
:103090008F5F89838981853008F4A7CF0F90CF9106
:1030A000DF910895DF93CF930F92CDB7DEB7809174
:1030B000CE03882329F082E090E00E94651932C097
:1030C0008091D0029091D102FC0124812F5FFC01FC
:1030D0002483FC01848189832091D0023091D10224
:1030E0008981882F90E0880F991F820F931F059682
:1030F000FC0180819181009731F48091D002909100
:10310000D102FC01148200D08DB79EB7019622ED4A
:1031100032E0FC01318320830E9449270F900F90F9
:103120000E94E0170F90CF91DF910895DF93CF9326
:1031300000D0CDB7DEB78091CE03882329F081E09F
:1031400090E00E94651944C08091D0029091D10214
:10315000FC0184818A838A810E942B248A818823AE
:1031600069F5198227C02091D0023091D10289815E
:10317000882F90E0880F991F820F931F0596FC01FE
:1031800080819181009799F48091D0029091D10231
:1031900029812150FC0124838091D0029091D10299
:1031A000FC0184810E942B240E94E01711C08981B8
:1031B0008F5F898389818530B0F20AC08091D00207
:1031C0009091D1022A812150FC0124830E94E017B2
:1031D0000F900F90CF91DF910895DF93CF93CDB7EC
:1031E000DEB78091CE03882329F084E090E00E942E
:1031F000651921C08091D0029091D102FC0180819B
:103200009181009771F08091D0029091D102FC01E0
:10321000808191819093D1028093D0020E94E01727
:103220000AC01092CA030E940F0C0E94651D0E94E2
:10323000901F0E94FB1FCF91DF910895DF93CF93E2
:103240000F92CDB7DEB78091CE03882329F083E0BB
:1032500090E00E94651935C08091D0029091D10212
:10326000FC01848189832091D0023091D10289812F
:10327000882F90E0880F991F820F931F0596FC01FD
:1032800080819181FC01858196810097B1F0209128
:10329000D0023091D1028981882F90E0880F991F48
:1032A000820F931F0596FC01808191819093D1023A
:1032B0008093D0020E94E01704C080E090E00E945A
:1032C00065190F90CF91DF910895EF92FF920F93C0
:1032D0001F93DF93CF9300D0CDB7DEB79A83898356
:1032E0008091D0029091D102FC012281338100D0E3
:1032F00000D08DB79EB7019646ED52E0FC01518398
:103300004083FC01338322830E9449270F900F9052
:103310000F900F908091D0029091D102F2E08F3BFC
:103320009F0709F0E7C08091CE03882F90E081309D
:10333000910599F18230910509F46CC0009709F06C
:1033400006C38CED92E00E945E2781E08093CA0361
:103350000E940F0C80E00E94C60C80EE92E00E945A
:10336000660D86E00E94C60C86EF92E00E94660D14
:1033700087E00E94C60C8EE093E00E94660D80E01C
:1033800063E048E20E94420C0E94842281E0809324
:10339000CE0381E08093CB03E7C287E193E00E94F4
:1033A0005E2780E063E048E20E94420C0E94842293
:1033B00089819A818330910509F0CBC20E9447220E
:1033C0009093CD038093CC030E940F0C80E00E9469
:1033D000C60C80EE92E00E94660D86E00E94C60C4C
:1033E0008BE193E00E94660D87E00E94C60C83E3A8
:1033F00093E00E94660D80E063E048E20E94420C88
:103400008091CC039091CD030E94FC2282E08093B6
:10341000CE03AAC289819A8182309105E1F083307E
:10342000910579F18130910509F095C28091CC0325
:103430009091CD0301969093CD038093CC0380E0CF
:1034400063E048E20E94420C8091CC039091CD034E
:103450000E94FC2289C28091CC039091CD030197F8
:103460009093CD038093CC0380E063E048E20E9418
:10347000420C8091CC039091CD030E94FC2200006D
:1034800073C2E090A503F090A6030091A7031091EA
:10349000A8030E9447229C018091CC039091CD0308
:1034A000A901481B590BCA01CC01A0E0B0E0BC0146
:1034B000CD010E9490259B01AC01C801B7010E947B
:1034C0009324DC01CB018093A5039093A603A093E2
:1034D000A703B093A8031092CE031092CA031092D0
:1034E000CB0388E992E09093D1028093D0020E94AE
:1034F0000F0C3AC28091D0029091D10252E08B37EA
:10350000950709F580E99AE0ABE0B0E08093F80018
:103510009093F900A093FA00B093FB001092CA03B5
:1035200088E992E09093D1028093D0020E940F0C20
:103530000E94651D0E94901F0E94FB1F86E493E07D
:103540000E945E2711C28091D0029091D102E2E0E8
:1035500088339E07E1F58091D0029091D102FC0161
:1035600084818823A9F41092CA031092C80388E9C1
:1035700092E09093D1028093D0020E94860A0E942A
:103580000F0C0E94651D0E94901F0E94FB1FECC142
:103590008091D0029091D102FC018481813009F0A8
:1035A000E3C181E08093C8031092CA0388E992E0E6
:1035B0009093D1028093D0020E94860A0E940F0C41
:1035C0000E94651D0E94901F0E94FB1FCDC180912B
:1035D000D0029091D102F2E083359F0709F0C4C177
:1035E0008091D0029091D102FC018481813009F058
:1035F000CAC08091CE03882F90E0009729F08130D7
:10360000910509F441C0B0C10E940F0C80E00E94F6
:10361000C60C8091D0029091D102FC0187819085E7
:10362000FC01828193810E94660D86E00E94C60C97
:103630008BE193E00E94660D87E00E94C60C88E54E
:1036400093E00E94660D81E063E045E00E94420C39
:1036500000D08DB79EB701962DE633E0FC01318393
:1036600020830E946F0F0F900F9080E063E048E28C
:103670000E94420C8091FC009091FD000E94BD1CB4
:1036800081E08093CE0370C189819A818230910557
:1036900081F18330910524F48130910551F064C1AA
:1036A0008330910509F444C08430910509F456C073
:1036B0005BC18091FC009091FD00F8E380349F078E
:1036C00008F04BC18091FC009091FD00069690930C
:1036D000FD008093FC0080E063E048E20E94420C21
:1036E0001092C5038091FC009091FD000E94BD1CCA
:1036F0003BC18091FC009091FD008C33910508F452
:103700002EC18091FC009091FD000A979093FD00DE
:103710008093FC0080E063E048E20E94420C10923B
:10372000C5038091FC009091FD000E94BD1C1CC14E
:103730000E94F40A1092CE031092CA0388E992E024
:103740009093D1028093D0020E940F0C0E94651DBD
:103750000E94901F0E94FB1F000006C10E940C0BDC
:103760001092CE031092CA0388E992E09093D1029E
:103770008093D0020E940F0C0E94651D0E94901F32
:103780000E94FB1FF1C08091D0029091D102FC01F8
:103790008481823009F0E8C08091CE03882F90E0C8
:1037A000009729F08130910509F44CC0DDC00E94DA
:1037B0000F0C80E00E94C60C8091D0029091D10243
:1037C000FC0187819085FC01828193810E94660DB6
:1037D00086E00E94C60C8BE193E00E94660D87E0B4
:1037E0000E94C60C84E793E00E94660D81E067E0CA
:1037F00044E10E94420C8091FC009091FD000E94E7
:10380000BD1C81E063E045E00E94420C00D08DB712
:103810009EB701962DE633E0FC01318320830E94A0
:103820006F0F0F900F9080E063E048E20E94420C1F
:103830008091FE009091FF000E94BD1C81E080936A
:10384000CE0392C089819A8182309105B1F1833093
:10385000910524F48130910551F086C083309105A3
:1038600009F44AC08430910509F45BC07DC08091A1
:10387000FC009091FD009C01265030408091FE009C
:103880009091FF008217930708F06BC08091FE00B3
:103890009091FF0006969093FF008093FE0080E0D9
:1038A00063E048E20E94420C1092C5038091FE0042
:1038B0009091FF000E94BD1C57C08091FE00909126
:1038C000FF008C33910508F44EC08091FE0090916A
:1038D000FF000A979093FF008093FE0080E063E072
:1038E00048E20E94420C1092C5038091FE00909124
:1038F000FF000E94BD1C38C00E94DC0A1092CE035B
:103900001092CA0388E992E09093D1028093D0028A
:103910000E940F0C0E94651D0E94901F0E94FB1FB9
:1039200023C00E94260B1092CE031092CA0388E98E
:1039300092E09093D1028093D0020E940F0C0E94DB
:10394000651D0E94901F0E94FB1F00000DC000001B
:103950000BC0000009C0000007C0000005C0000047
:1039600003C0000001C000000F900F90CF91DF91C5
:103970001F910F91FF90EF900895DF93CF9300D0A8
:1039800000D0CDB7DEB79C838B838B819C8120E1F7
:103990003EE0B9010E94C8269B01C9018983898143
:1039A000482F50E020E13EE0429FC001439F900D30
:1039B000529F900D11242B813C81A901481B590B6A
:1039C000CA019C838B838B819C812CE330E0B901FD
:1039D0000E94C8269B01C9018A8389818823B9F482
:1039E0008981282F30E000D000D08DB79EB7019696
:1039F00042E853E0FC0151834083FC01338322837E
:103A00000E946F0F0F900F900F900F9016C089813A
:103A1000282F30E000D000D08DB79EB7019644E843
:103A200053E0FC0151834083FC01338322830E94D5
:103A30006F0F0F900F900F900F908A81882371F471
:103A400000D08DB79EB7019627E833E0FC013183A3
:103A500020830E946F0F0F900F9030C08A818A30B0
:103A6000B8F48A81282F30E000D000D08DB79EB7FF
:103A700001964BE853E0FC0151834083FC01338302
:103A800022830E946F0F0F900F900F900F9016C01F
:103A90008A81282F30E000D000D08DB79EB70196E4
:103AA00040E953E0FC0151834083FC0133832283CE
:103AB0000E946F0F0F900F900F900F900F900F902C
:103AC0000F900F90CF91DF910895DF93CF93CDB7F3
:103AD000DEB72A970FB6F894DEBF0FBECDBF80E0E9
:103AE00067E04AE00E94420C0E9484228091F80024
:103AF0009091F900A091FA00B091FB0081312EE085
:103B0000920720E0A20720E0B20708F446C08091A7
:103B1000F8009091F900A091FA00B091FB00019794
:103B2000A109B1098093F8009093F900A093FA00DD
:103B3000B093FB0081E067E044E10E94420C809179
:103B4000F8009091F900A091FA00B091FB0020E1FB
:103B50003EE040E050E0BC01CD010E94DC26DA01ED
:103B6000C90100D000D000D02DB73EB72F5F3F4F26
:103B700044E953E0F90151834083F901828393833F
:103B8000A483B5830E946F0F8DB79EB706960FB6BC
:103B9000F8949EBF0FBE8DBF12C081E067E044E184
:103BA0000E94420C00D08DB79EB701962CE933E0FD
:103BB000FC01318320830E946F0F0F900F90809142
:103BC000C803813009F0BEC00E940709DC01CB01A7
:103BD0008B839C83AD83BE838B819C81AD81BE81B1
:103BE0008931F7E49F07F0E0AF07F0E0BF0740F04E
:103BF00088E197E4A0E0B0E08B839C83AD83BE8333
:103C00008B819C81AD81BE81883E23E0920720E0BC
:103C1000A20720E0B20740F488EE93E0A0E0B0E015
:103C20008B839C83AD83BE8381E062E040E10E9490
:103C3000420C8AE090E00E94B9168B819C81AD8194
:103C4000BE8120E137E240E050E0BC01CD010E949E
:103C5000DC26DA01C90189838B819C81AD81BE811B
:103C600020E137E240E050E0BC01CD010E94DC26BB
:103C7000DC01CB018B839C83AD83BE838981882348
:103C800051F080E062E044E30E94420C8981882F79
:103C900090E00E94B9168B819C81AD81BE8128EE97
:103CA00033E040E050E0BC01CD010E94DC26DA01A7
:103CB000C90189838B819C81AD81BE8128EE33E06F
:103CC00040E050E0BC01CD010E94DC26DC01CB01CC
:103CD0008B839C83AD83BE8381E062E040E00E94E1
:103CE000420C8981882F90E00E94B9168B819C81BB
:103CF000AD81BE8124E630E040E050E0BC01CD0162
:103D00000E94DC26DA01C90189838B819C81AD8107
:103D1000BE8124E630E040E050E0BC01CD010E94CD
:103D2000DC26DC01CB018B839C83AD83BE8381E0E9
:103D300062E040E20E94420C8981882F90E00E945C
:103D4000B916E5C00E94A209DC01CB018F839887D8
:103D5000A987BA878F819885A985BA8500D000D0B8
:103D600000D02DB73EB72F5F3F4F44E853E0F90135
:103D700051834083F90182839383A483B5830E9496
:103D800049278DB79EB706960FB6F8949EBF0FBE13
:103D90008DBF8F819885A985BA858031E7E29E071E
:103DA000E0E0AE07E0E0BE0740F08FE097E2A0E081
:103DB000B0E08F839887A987BA878F819885A98576
:103DC000BA8587339105A105B10540F487E390E0FA
:103DD000A0E0B0E08F839887A987BA8780E062E08F
:103DE00044E30E94420C8AE090E00E94B9168F8161
:103DF0009885A985BA8528EE33E040E050E0BC0103
:103E0000CD010E94DC26DA01C9018A838F81988561
:103E1000A985BA8528EE33E040E050E0BC01CD0131
:103E20000E94DC26DC01CB018F839887A987BA87A3
:103E300080E062E049E20E94420C8A81882F90E093
:103E40000E94B9168F819885A985BA8524E630E04D
:103E500040E050E0BC01CD010E94DC26DA01C9013E
:103E60008A838F819885A985BA8524E630E040E071
:103E700050E0BC01CD010E94DC26DC01CB018F8328
:103E80009887A987BA8781E062E040E00E94420CEF
:103E90008A81882F90E00E94B9168F819885A98524
:103EA000BA852AE030E040E050E0BC01CD010E943C
:103EB000DC26DA01C9018A838F819885A985BA85B4
:103EC0002AE030E040E050E0BC01CD010E94DC2659
:103ED000DC01CB018F839887A987BA8781E062E0F4
:103EE00040E10E94420C8A81882F90E00E94B9161E
:103EF0008F819885A985BA858A8381E062E040E256
:103F00000E94420C8A81882F90E00E94B9162A965E
:103F10000FB6F894DEBF0FBECDBFCF91DF910895ED
:103F2000DF93CF93CDB7DEB78091CF03882F90E09A
:103F300083309105A9F1843091054CF481309105CD
:103F4000F9F08230910524F5009791F051C0863048
:103F50009105B1F18730910524F48430910541F148
:103F600047C087309105A1F188309105C9F140C063
:103F700080E00E94C60C85E491E00E94660D38C086
:103F800080E00E94C60C8FE491E00E94660D30C074
:103F900080E00E94C60C8BE391E00E94660D28C071
:103FA00080E00E94C60C89E591E00E94660D20C069
:103FB00080E00E94C60C8BE391E00E94660D18C061
:103FC00080E00E94C60C8FE491E00E94660D10C054
:103FD00080E00E94C60C8FE491E00E94660D08C04C
:103FE00080E00E94C60C8BE891E00E94660D000004
:103FF000CF91DF910895DF93CF93CDB7DEB70E94C5
:104000006217882351F081E060E042E10E94420C97
:1040100087E791E00E94660D1EC00E945617882314
:1040200089F08091CF03882369F086E08093CF03E5
:1040300081E060E042E10E94420C8DE691E00E9446
:10404000660D09C081E060E042E10E94420C81E817
:1040500091E00E94660D8091C803882319F00E94A8
:104060002E1702C00E941F17CF91DF910895DF9392
:10407000CF93CDB7DEB783E590E023E530E0F901DB
:1040800020812967FC01208387E390E027E330E06B
:10409000F90120812860FC0120838CE590E025E96E
:1040A000FC012083CF91DF910895DF93CF93CDB7AB
:1040B000DEB781E390E021E330E0F9012081206E5A
:1040C000FC01208380E090E00E94AE20CF91DF9140
:1040D0000895DF93CF93CDB7DEB782E390E022E37C
:1040E00030E0F90120812064FC01208382E390E02C
:1040F00022E330E0F90120812F7BFC012083CF9166
:10410000DF9108951F93DF93CF9300D0CDB7DEB733
:1041100082E390E022E330E0F90120812068FC0195
:10412000208381E089838981182F1A95F1F71983FB
:1041300082E390E022E330E0F90120812F77FC0157
:10414000208381E08A838A81182F1A95F1F71A83D8
:104150000F900F90CF91DF911F910895DF93CF9330
:1041600000D00F92CDB7DEB79B838A83198222C01D
:104170008A819B81992354F482E390E022E330E02A
:10418000F90120812062FC01208309C082E390E0D4
:1041900022E330E0F90120812F7DFC0120830E9481
:1041A00069208A819B81880F991F9B838A838981DB
:1041B0008F5F898389818031D8F20E9482200F909D
:1041C0000F900F90CF91DF910895DF93CF93CDB7EC
:1041D000DEB780912C018F7D80932C0180912D0181
:1041E0008F7780932D0180912C018F7E80932C01FD
:1041F00080912C018F7B80932C0180912C018F77F3
:1042000080932C01CF91DF910895DF93CF93CDB7A9
:10421000DEB70E940F0C1092CF030E94901FCF9127
:10422000DF910895DF93CF93CDB7DEB78091CF03B1
:10423000882F90E08430910509F45BC085309105AA
:104240005CF48130910599F0823091050CF453C0F3
:104250008230910531F158C086309105B1F1863038
:1042600091050CF44AC087309105C9F14DC00E94F8
:104270006217009731F087E08093CF030E94872177
:1042800043C00E945617009731F086E08093CF0319
:104290000E94872139C082E08093CF030E9487214A
:1042A00033C00E946217009731F087E08093CF03FC
:1042B0000E94872129C00E945617009701F186E0CD
:1042C0008093CF030E9487211FC00E94561700973A
:1042D000C1F482E08093CF030E94872115C00E9421
:1042E0006217009781F482E08093CF030E948721B8
:1042F0000BC0000009C0000007C0000005C000009E
:1043000003C0000001C00000CF91DF910895DF934A
:10431000CF93CDB7DEB78091CF03882F90E0843064
:10432000910509F460C0853091058CF481309105C8
:1043300019F1823091051CF40097C9F07CC08230DD
:104340009105F9F08330910509F43EC074C08630C0
:10435000910509F457C0863091053CF187309105ED
:1043600009F45AC08830910509F45BC064C00E940A
:10437000E5200E94901F5FC00E94901F0E94E520D0
:104380005AC00E94E52080912C01806180932C010D
:1043900080912C01806280932C0180912C01886097
:1043A00080932C010E94901F46C00E94E5208091BE
:1043B0002C01806480932C0180912C01816080937A
:1043C0002C010E94901F37C00E94E52080912C0193
:1043D000806480932C0180912C01816080932C015A
:1043E0000E94901F28C00E94E52080912C018064CB
:1043F00080932C0180912D01806880932D010E9473
:10440000901F19C00E94E52080912C01806180934B
:104410002C010E94901F0FC00E94E5200E94901F57
:104420000AC00E94E52080912C018F7780932C0197
:104430000E94901F0000CF91DF910895DF93CF93EA
:1044400000D0CDB7DEB79A83898389819A81FC0138
:10445000808191810F900F90CF91DF910895DF932C
:10446000CF9300D000D0CDB7DEB79A8389837C8309
:104470006B8389819A812B813C81FC01318320836C
:104480000F900F900F900F90CF91DF910895DF93D1
:10449000CF9300D0CDB7DEB78091A3039091A40352
:1044A000CC01A0E0B0E0BC01CD010E949025DC0170
:1044B000CB012091A9033091AA034091AB03509105
:1044C000AC03BC01CD010E944626DC01CB0120914A
:1044D000A5033091A6034091A7035091A803BC0106
:1044E000CD010E949424DC01CB01BC01CD010E94CE
:1044F0006425DC01CB019A83898389819A810F909D
:104500000F90CF91DF910895DF93CF93CDB7DEB7B2
:1045100027970FB6F894DEBF0FBECDBF0E9447228B
:104520009A83898389819A81CC01A0E0B0E02DB77C
:104530003EB72A5030400FB6F8943EBF0FBE2DBF95
:104540002DB73EB72F5F3F4FAE014D5F5F4FF90173
:104550005183408345E050E0F901538342834DEAA3
:1045600053E0F90155834483F90186839783A0873B
:10457000B1870E9493272DB73EB7265F3F4F0FB6F6
:10458000F8943EBF0FBE2DBF8B81682F70E08C81E9
:10459000482F50E08D81282F30E08DB79EB70897C7
:1045A0000FB6F8949EBF0FBE8DBF8DB79EB7019614
:1045B000E1EBF3E0DC01ED93FC93FC017383628398
:1045C000DC0115965C934E931497FC013783268388
:1045D0000E946F0F2DB73EB7285F3F4F0FB6F8947C
:1045E0003EBF0FBE2DBF27960FB6F894DEBF0FBE9D
:1045F000CDBFCF91DF910895DF93CF93CDB7DEB7D5
:1046000027970FB6F894DEBF0FBECDBF9F838E8372
:104610008E819F81CC01A0E0B0E02DB73EB72A503B
:1046200030400FB6F8943EBF0FBE2DBF2DB73EB73A
:104630002F5F3F4FAE014F5F5F4FF90151834083C2
:1046400045E050E0F901538342834DEA53E0F9011C
:1046500055834483F90186839783A087B1870E949D
:1046600093272DB73EB7265F3F4F0FB6F8943EBF56
:104670000FBE2DBF8981682F70E08A81482F50E0DE
:104680008B81282F30E08DB79EB708970FB6F8942E
:104690009EBF0FBE8DBF8DB79EB70196E1EBF3E0D5
:1046A000DC01ED93FC93FC0173836283DC011596BE
:1046B0005C934E931497FC01378326830E946F0FFF
:1046C0002DB73EB7285F3F4F0FB6F8943EBF0FBEE1
:1046D0002DBF27960FB6F894DEBF0FBECDBFCF918A
:1046E000DF910895DF93CF93CDB7DEB785E490E0F7
:1046F00025E430E0F90120812F60FC01208383E470
:1047000090E023E430E0F90120812D67FC01208353
:1047100089E590E029E530E0F90120812068FC017D
:104720002083CF91DF9108951F920F920FB60F92C1
:1047300011248F939F93AF93BF93DF93CF93CDB704
:10474000DEB78091D9038D3709F044C081E08093B2
:10475000D8038091D0039091D103A091D203B0915E
:10476000D3030097A105B10599F08091D0039091F2
:10477000D103A091D203B091D3030197A109B1094C
:104780008093D0039093D103A093D203B093D3032B
:104790008091D4039091D503A091D603B091D70313
:1047A0000097A105B10599F08091D4039091D503AC
:1047B000A091D603B091D7030197A109B1098093C5
:1047C000D4039093D503A093D603B093D70310924C
:1047D000D90305C08091D9038F5F8093D903CF910E
:1047E000DF91BF91AF919F918F910F900FBE0F906E
:1047F0001F901895DF93CF93CDB7DEB780E490E09C
:10480000FC01108289E290E027E6FC0120838AE225
:1048100090E02AE230E0F90120812861FC01208348
:104820008AE290E02AE230E0F90120812068FC0170
:10483000208380E490E020E430E0F90120812668C4
:10484000FC01208384E594E260E070E00E94FE2693
:10485000CF91DF910895DF93CF930F92CDB7DEB75D
:10486000898300008BE290E0FC018081882F90E03A
:10487000807290700097B1F38CE290E02981FC0186
:1048800020830F90CF91DF910895DF93CF93CDB721
:10489000DEB78BE290E0FC0180818CE290E0FC01CD
:1048A0008081CF91DF910895DF93CF9300D00F9255
:1048B000CDB7DEB789837B836A8300008BE290E00B
:1048C000FC018081882F90E0807290700097B1F396
:1048D0008CE290E02981FC01208380E090E00F9041
:1048E0000F900F90CF91DF9108951F920F920FB606
:1048F0000F9211248F939F93EF93FF93DF93CF93A6
:10490000CDB7DEB78CE290E0FC01808180932E0170
:10491000CF91DF91FF91EF919F918F910F900FBEFB
:104920000F901F9018955058BB27AA270ED070C122
:1049300061D130F066D120F031F49F3F11F41EF4C4
:1049400056C10EF4E095E7FB4CC1E92F72D180F31C
:10495000BA17620773078407950718F071F49EF57C
:104960008AC10EF4E0950B2EBA2FA02D0B01B901D0
:1049700090010C01CA01A0011124FF27591B99F0D5
:10498000593F50F4503E68F11A16F040A22F232FE1
:10499000342F4427585FF3CF469537952795A79531
:1049A000F0405395C9F77EF41F16BA0B620B730BD8
:1049B000840BBAF09150A1F0FF0FBB1F661F771F49
:1049C000881FC2F70EC0BA0F621F731F841F48F4FE
:1049D000879577956795B795F7959E3F08F0B3CF84
:1049E0009395880F08F09927EE0F9795879508956E
:1049F000D4D008F481E008950CD00AC102D140F06F
:104A0000F9D030F021F45F3F19F0EBC0511134C1FF
:104A1000EEC00FD198F39923C9F35523B1F3951B39
:104A2000550BBB27AA2762177307840738F09F5FCF
:104A30005F4F220F331F441FAA1FA9F333D00E2E3E
:104A40003AF0E0E830D091505040E695001CCAF7AB
:104A500029D0FE2F27D0660F771F881FBB1F261770
:104A600037074807AB07B0E809F0BB0B802DBF0143
:104A7000FF2793585F4F2AF09E3F510568F0B1C061
:104A8000FBC05F3FECF3983EDCF386957795679526
:104A9000B795F7959F5FC9F7880F911D96958795F4
:104AA00097F90895E1E0660F771F881FBB1F621713
:104AB00073078407BA0720F0621B730B840BBA0BD1
:104AC000EE1F88F7E0950895BCD088F09F5790F0CE
:104AD000B92F9927B751A0F0D1F0660F771F881F23
:104AE000991F1AF0BA95C9F712C0B13081F0C3D03E
:104AF000B1E00895C0C0672F782F8827B85F39F0DC
:104B0000B93FCCF3869577956795B395D9F73EF481
:104B100090958095709561957F4F8F4F9F4F089529
:104B2000E89409C097FB3EF4909580957095619547
:104B30007F4F8F4F9F4F9923A9F0F92F96E9BB27FD
:104B40009395F695879577956795B795F111F8CF79
:104B5000FAF4BB0F11F460FF1BC06F5F7F4F8F4FE4
:104B60009F4F16C0882311F096E911C0772321F0DA
:104B70009EE8872F762F05C0662371F096E8862F72
:104B800070E060E02AF09A95660F771F881FDAF7C9
:104B9000880F9695879597F90895990F0008550FF6
:104BA000AA0BE0E8FEEF16161706E807F907C0F0B3
:104BB00012161306E407F50798F0621B730B840BBB
:104BC000950B39F40A2661F0232B242B252B21F495
:104BD00008950A2609F4A140A6958FEF811D811D35
:104BE000089597F99F6780E870E060E008959FEF6F
:104BF00080EC089500240A94161617061806090674
:104C0000089500240A941216130614060506089542
:104C1000092E0394000C11F4882352F0BB0F40F4CA
:104C2000BF2B11F460FF04C06F5F7F4F8F4F9F4F0A
:104C3000089557FD9058440F551F59F05F3F71F08C
:104C40004795880F97FB991F61F09F3F79F08795F3
:104C50000895121613061406551FF2CF4695F1DF7C
:104C600008C0161617061806991FF1CF869571050C
:104C7000610508940895E894BB2766277727CB0140
:104C800097F908958ADF08F48FEF08950BD0C0CF0D
:104C9000B1DF28F0B6DF18F0952309F0A2CFA7CF37
:104CA0001124EACFC6DFA0F3959FD1F3950F50E012
:104CB000551F629FF001729FBB27F00DB11D639FCE
:104CC000AA27F00DB11DAA1F649F6627B00DA11D74
:104CD000661F829F2227B00DA11D621F739FB00D1A
:104CE000A11D621F839FA00D611D221F749F33278A
:104CF000A00D611D231F849F600D211D822F762F23
:104D00006A2F11249F5750408AF0E1F088234AF01F
:104D1000EE0FFF1FBB1F661F771F881F915050406B
:104D2000A9F79E3F510570F05CCFA6CF5F3FECF333
:104D3000983EDCF3869577956795B795F795E79557
:104D40009F5FC1F7FE2B880F911D9695879597F968
:104D50000895629FD001739FF001829FE00DF11DC5
:104D6000649FE00DF11D929FF00D839FF00D749FE5
:104D7000F00D659FF00D9927729FB00DE11DF91F91
:104D8000639FB00DE11DF91FBD01CF0111240895EE
:104D9000AA1BBB1B51E107C0AA1FBB1FA617B70761
:104DA00010F0A61BB70B881F991F5A95A9F780957D
:104DB0009095BC01CD010895A1E21A2EAA1BBB1B40
:104DC000FD010DC0AA1FBB1FEE1FFF1FA217B307D7
:104DD000E407F50720F0A21BB30BE40BF50B661FED
:104DE000771F881F991F1A9469F7609570958095B1
:104DF00090959B01AC01BD01CF0108950F931F93C6
:104E0000CF93DF938C01EB01009711F42097C9F148
:104E100081E090E06EE070E00E94D929FC019C01E5
:104E2000009789F180E88383209771F0D387C28748
:104E300081E883838091E5039091E603009721F454
:104E4000F093E603E093E50301151105E1F0118706
:104E500000878381826083838091E7039091E803D8
:104E6000009789F4F093E803E093E7038091E90366
:104E70009091EA03009739F4F093EA03E093E90391
:104E800002C020E030E0C901DF91CF911F910F9166
:104E90000895A0E0B0E0EFE4F7E20C94F72BFE01F8
:104EA0003596619171918091E7039091E803AF018C
:104EB0000E94C4272096E2E00C94132CEF92FF92FC
:104EC0000F931F93CF93DF938C01E091E703F09151
:104ED000E803838181FF1FC0C0E0D0E00AC0DB018E
:104EE0001896ED91FC9119970995009711F0CFEF65
:104EF000DFEFF80181918F016091E7037091E80382
:104F0000882369F7DB011896ED91FC9119978AE0E7
:104F10000995009711F0CFEFDFEFCE01CDB7DEB7E7
:104F2000E6E00C940F2CAEE0B0E0E9E9F7E20C9477
:104F3000F52B0D891E898F89988D26E02C831A8385
:104F4000098397FF02C080E090E801979E838D83DC
:104F50009E01255E3F4FCE010196698D7A8DA90194
:104F60000E94C4274D815E8157FD0AC02F8138857C
:104F7000421753070CF49A01020F131FF801108215
:104F80002E96E4E00C94112CACE0B0E0EAECF7E2F1
:104F90000C94E72B6C011B018A01FC01178216821D
:104FA000838181FFD1C12E010894411C511CF6015F
:104FB0009381F10193FD859193FF81911F018823D6
:104FC00009F4BEC1853239F493FD859193FF819137
:104FD0001F01853229F490E0B6010E944D2BE7CFE6
:104FE000EE24FF2420E02032B0F48B3269F08C32C2
:104FF00028F4803251F0833271F40BC08D3239F0D5
:10500000803349F421602CC02260246029C02860CC
:1050100027C0206125C027FD2CC0382F30533A30DF
:1050200098F426FF08C08E2D880FE82EEE0CEE0CAB
:10503000E80EE30E15C08F2D880FF82EFF0CFF0C25
:10504000F80EF30E20620CC08E3221F426FD78C1DA
:10505000206406C08C3611F4206802C0883649F4FA
:10506000F10193FD859193FF81911F01882309F040
:10507000BACF982F9554933018F09052933028F46B
:105080000C5F1F4FFFE3F9830DC0833631F0833788
:1050900071F0833509F060C022C0F80180818983F6
:1050A0000E5F1F4F420171E0A72EB12C16C062E0C7
:1050B000662E712C600E711EF8018080918026FF93
:1050C00003C06E2D70E002C06FEF7FEFC4012C872C
:1050D0000E94422B5C0183012C852F7717C052E080
:1050E000652E712C600E711EF8018080918026FF64
:1050F00003C06E2D70E002C06FEF7FEFC4012C87FC
:105100000E94302B5C012C852068830123FD20C088
:1051100008C080E290E0B6012C870E944D2BFA94E3
:105120002C858F2D90E0A816B90698F311C0F401D4
:1051300027FD859127FF81914F0190E0B6012C87D3
:105140000E944D2B2C85F110FA940894A108B10807
:10515000A114B10461F7F1C0843611F0893649F524
:1051600027FF08C0F80160817181828193810C5F03
:105170001F4F09C0F80160817181882777FD8095F4
:10518000982F0E5F1F4F4FE6B42EB22297FF09C033
:1051900090958095709561957F4F8F4F9F4FF0E868
:1051A000BF2AA2012AE030E00E94792B782E7418E1
:1051B00045C0853731F43FEEB32EB2222AE030E00D
:1051C00025C099EFB92EB2228F36C1F0803720F476
:1051D000883509F0B5C00DC0803721F0883709F057
:1051E000AFC002C020E1B22AB4FE0BC084E0B82AEE
:1051F00008C0B4FE09C0E6E0BE2A06C028E030E0E0
:1052000005C020E130E002C020E132E0B7FE08C076
:10521000F80160817181828193810C5F1F4F07C00B
:10522000F8016081718180E090E00E5F1F4FA20164
:105230000E94792B782E7418FFE7BF22B6FE0BC0B0
:105240002EEFB2227E1438F4B4FE07C0B2FC05C0C3
:105250008FEEB82202C0A72C01C0AE2C8B2D90E09F
:10526000B4FE0DC0FE01E70DF11D2081203319F4BD
:10527000E9EEBE2209C0A394B2FE06C004C086783F
:105280009070009709F0A3948B2C9924B3FC14C060
:10529000B0FE0FC0AF1428F4E72CEF0CEA18AF2CC7
:1052A00008C0E72C06C080E290E0B6010E944D2BBA
:1052B000A394AF14C0F304C0AF1410F4FA1801C0E3
:1052C000FF2484FE0FC080E390E0B6010E944D2BC6
:1052D00082FE1FC081FE03C088E590E010C088E711
:1052E00090E00DC0C40186789070009791F081FC29
:1052F00002C080E201C08BE2B7FC8DE290E0B60113
:105300000E944D2B06C080E390E0B6010E944D2B19
:10531000EA947E14C0F37A94F201E70DF11D8081C6
:1053200090E0B6010E944D2B7720A9F706C080E2DD
:1053300090E0B6010E944D2BFA94FF20C1F737CEC2
:10534000F6012681378102C02FEF3FEFC9012C966D
:10535000E2E10C94032CE199FECF9FBB8EBBE09A57
:1053600099278DB30895A6E1B0E044E050E00C9495
:10537000D92BA8E1B0E042E050E00C94D92B262FC5
:10538000E199FECF9FBB8EBB2DBB0FB6F894E29A7E
:10539000E19A0FBE01960895242F0E94C029252F5F
:1053A0000E94C0290C94D4290E94BF29272F0C9455
:1053B000C029EF92FF920F931F93CF93DF93689FC3
:1053C0008001699F100D789F100D1124C8010E9463
:1053D000FD29E82EE7017E01F92EE701209731F043
:1053E0008E2D60E070E0A8010E943B2B7E01CE0173
:1053F000CDB7DEB7E6E00C940F2CCF93DF9382306D
:10540000910510F482E090E0E091ED03F091EE035D
:1054100040E050E020E030E026C0608171816817F4
:105420007907E0F06817790781F48281938121156B
:10543000310531F0D90113969C938E9312972BC0AE
:105440009093EE038093ED0326C04115510519F0AA
:105450006417750718F4AB01E901DF019F01728140
:105460006381E72FF62F3097C1F64115510501F101
:10547000481B590B4430510580F412968D919C9134
:105480001397209719F09B838A8304C09093EE03AF
:105490008093ED03FD01329646C0FD01E40FF51F38
:1054A000819391934250504011965C934E933BC030
:1054B0002091EB033091EC032115310541F420914B
:1054C000C0033091C1033093EC032093EB03209190
:1054D000C2033091C3032115310541F42DB73EB706
:1054E0004091BE035091BF03241B350BE091EB03A9
:1054F000F091EC03E217F307A0F42E1B3F0B2817E3
:10550000390778F0AC014E5F5F4F2417350748F03C
:105510004E0F5F1F5093EC034093EB0381939193E5
:1055200002C0E0E0F0E0CF01DF91CF910895CF938A
:10553000DF93009709F491C0FC0132971382128225
:105540006091ED037091EE036115710581F4208186
:105550003181280F391F8091EB039091EC03821762
:10556000930799F5F093EC03E093EB0376C0DB012E
:1055700080E090E002C0CD01D901AE17BF0748F42A
:1055800012962D913C91139721153105A1F7CD016C
:1055900021C0B383A283EF01499159919E01240F49
:1055A000351FA217B30779F42D913C911197240F61
:1055B000351F2E5F3F4F3183208312962D913C91F2
:1055C000139733832283009729F4F093EE03E0933B
:1055D000ED0343C0DC011396FC93EE9312974D91BB
:1055E0005D91A40FB51FEA17FB0769F42081318193
:1055F000240F351F2E5F3F4FEC0139832883228112
:1056000033813B832A83E0E0F0E002C0FB01BC0170
:10561000DB0112968D919C9113970097B9F79B012E
:105620002E5F3F4F8D919C911197820F931F409158
:10563000EB035091EC034817590779F4309729F49C
:105640001092EE031092ED0302C0138212822250D8
:1056500030403093EC032093EB03DF91CF9108951A
:10566000FC010590615070400110D8F7809590952D
:105670008E0F9F1F0895DC0101C06D934150504073
:10568000E0F70895FC016150704001900110D8F7D7
:10569000809590958E0F9F1F08950F931F93CF9322
:1056A000DF938C01EB018B8181FF1BC082FF0DC05A
:1056B0002E813F818C819D812817390764F4E88110
:1056C000F9810193F983E88306C0E885F985802F85
:1056D0000995009731F48E819F8101969F838E8377
:1056E00002C00FEF1FEFC801DF91CF911F910F9103
:1056F0000895FA01AA27283051F1203181F1E89468
:105700006F936E7F6E5F7F4F8F4F9F4FAF4FB1E0B4
:105710003ED0B4E03CD0670F781F891F9A1FA11DAF
:10572000680F791F8A1F911DA11D6A0F711D811DB0
:10573000911DA11D20D009F468943F912AE0269F75
:1057400011243019305D3193DEF6CF010895462FD4
:105750004770405D4193B3E00FD0C9F7F6CF462FB5
:105760004F70405D4A3318F0495D31FD405241931E
:1057700002D0A9F7EACFB4E0A695979587957795DB
:105780006795BA95C9F700976105710508959B0162
:10579000AC010A2E06945795479537952795BA95EB
:1057A000C9F7620F731F841F951FA01D0895DC01A8
:1057B000CB01FC01E199FECF06C0FFBBEEBBE09A36
:1057C00031960DB20D9241505040B8F708952F9286
:1057D0003F924F925F926F927F928F929F92AF9281
:1057E000BF92CF92DF92EF92FF920F931F93CF93CE
:1057F000DF93CDB7DEB7CA1BDB0B0FB6F894DEBF65
:105800000FBECDBF09942A88398848885F846E848A
:105810007D848C849B84AA84B984C884DF80EE80D4
:10582000FD800C811B81AA81B981CE0FD11D0FB6DD
:10583000F894DEBF0FBECDBFED010895F894FFCF01
:105840006F666620200D002564203320200D0A009D
:105850002564203420200D0A002564203520200DE9
:105860000A002564202036200D0A002564202037F8
:10587000200D0A002564203920200D0A00FED418CE
:1058800042452A9C3EFED41842452A9C3E0118B04F
:1058900018B0010000000000000000000000546982
:1058A0006D6572206F766572666C6F77205B256C14
:1058B000755D200D0A004469727479207761746502
:1058C00072205B25755D200D0A0047315F6F75748E
:1058D00020257520200D0A00900A0B00100E84036D
:1058E0006D616769632074727565200D006D616775
:1058F0006963206661736C65200D0020204144526D
:105900004F4E41204372797374616C000200300184
:10591000014372797374616C20200052756E6E6958
:105920006E672020004F6666202020202020005334
:1059300074616E6462792020005265636972632E1F
:1059400020200044697370656E732020004C6F77CF
:105950007072657320200054616E6B46756C6C200C
:10596000002020202020202020200050756D702055
:105970002020202000526573657400007B02950191
:10598000010000000000000000000000007553004E
:10599000003802AD0101000000000000000000001E
:1059A00000004D4F686D00003802C2010000000089
:1059B000000000000000000000526563697263751A
:1059C0006C6174696F6E20706572696F640000535A
:1059D00002D90101000000000000000000000000EA
:1059E000526563697263756C6174696F6E20746966
:1059F0006D6500005302000200000000000000007E
:105A000000000000004D6561737572656D656E7410
:105A100020756E69747300005302250200B101C83D
:105A20000100000000000000004F7074696F6E7389
:105A300020000098024902003802EF011402000021
:105A40000000000052657365742066696C746572AD
:105A500020636F756E746572200000980264020006
:105A60009C01000000000000000000004D61696E14
:105A7000206D656E7520000000008C02007B0253D3
:105A800002000000000000000043616C6962726166
:105A900074652054656D706572617475726500007F
:105AA00000A902010000000000000000000000004A
:105AB0009802717765002573200D0A0030200D00D3
:105AC00043616C6962726174652074656D706572A2
:105AD0006174757265005761697420666F72207316
