:100000000C9426030C9498050C941A050C94430345
:100010000C9445130C9443030C9443030C94430336
:100020000C9443030C94E4040C9443030C94430396
:100030000C9443030C94C3130C9443030C94430398
:100040000C944F030C9443030C9443030C9443030C
:100050000C9443030000C0E0F0F838181838F8F0AA
:10006000E0C0000000FFFFFFFF000000000000FFF5
:10007000FFFFFF0000071F3F7FF8E0C0C0E0F87FF0
:100080003F1F0700000000808080C0E0F8F8F8F80B
:10009000000000000000000101010101FFFFFFFF5F
:1000A000000000000000000000000000FFFFFFFF54
:1000B000000000000080E0F0F0783818181878F898
:1000C000F0E0C00000010101010080C0C0E0F87F45
:1000D0003F1F0F00C0F0F8FCFEDFCFC7C3C1C0C098
:1000E000C0C0C00000C0E0F0F83818181838F8F0A8
:1000F000E0C0000000000000000030303078FFFF5A
:10010000EFC78000000C3C7C7CF0E0C0C0E0F07FDA
:100110007F3F0F0000000000000000C0E0F8F8F88A
:10012000F80000000080E0F07C3E0F0701FFFFFFB9
:10013000FF000000070707070606060606FFFFFF89
:10014000FF0606060000F8F8F8F81818181818182E
:100150001800000000003F3F3F1F1C0C0C1C3CF827
:10016000F8F0C000000C3C7C7CF0E0C0C0E0F07F08
:100170007F3F0F000000C0E0F0F83818181838F87A
:10018000F0E0C00000FEFFFFFF391C0C0C1C3CFC23
:10019000F8F0C00000071F3F7FF8E0C0C0E0F07F2C
:1001A0007F3F0F0000181818181818181818D8F8DA
:1001B000F8F8380000000000000000C0F8FEFF3F23
:1001C0000F0100000000000080F0FEFF7F0F010023
:1001D000000000000000C0F0F0F838181838F8F0FF
:1001E000F0C00000000083CFFFFF7C78787CFFFF29
:1001F000CF830000001F3F7F7FF0E0C0C0E0F07FB2
:100200007F3F1F000080E0F0F07838181838F8F0D1
:10021000E0C00000000F3F7FFFF0E0C0C0E070FFD3
:10022000FFFFFF0000183878F8E0C0C0E0F0FC7F66
:100230003F1F03000000000000000000000000005D
:1002400000000000000000000000000000000000AE
:100250000000000000000000000000E0E0E0E0001E
:1002600000000000008000000080007CFEC6C6C6C2
:10027000CE8C000000BF8888848F808C9C989898D2
:100280009F8F000000001C22222200003E023E023E
:100290003E0000000000FC081008FC0078CC0404BC
:1002A000CC7800000000010000004528112944001E
:1002B0000101000000001E21212100003F013E013C
:1002C0003E000000FFFFFFFFFF00FFFFFFFFFFFFFB
:1002D00000FFFFFFFFFFFF00FFFFFFFFFFFF00FF2B
:1002E000FFFFFFFFFF00FFFFFFFFFFFF00FFFFFF1C
:1002F000FFFFFF00FFFFFFFFFFFF00FFFFFFFFFF0C
:10030000FF00FFFFFFFFFFFF00FFFFFFFFFFFF00FA
:10031000FFFFFFFFFFFF00FFFFFFFFFFFF00FFFFEB
:10032000FFFFFFFF00FFFFFFFFFFFF00FFFFFFFFDB
:10033000FFFF00FFFFFFFFFFFF00FFFFFFFFFFFFCB
:1003400000FFFFFFFFFFFF00FFFFFFFFFFFF00FFBA
:10035000FFFFFFFFFF00FFFFFFFFFFFF00FFFFFFAB
:10036000FFFFFF00FFFFFFFFFFFF00FFFFFFFFFF9B
:10037000FF00FFFFFFFFFFFF00FFFFFFFFFFFF008A
:10038000FFFFFFFFFFFF00FFFFFFFFFFFF00FFFF7B
:10039000FFFFFFFF00FFFFFFFFFFFF00FFFFFFFF6B
:1003A000FFFF00FF0000000000FFFF00004F000003
:1003B00000FF000700070000FF147F147F1400FFF8
:1003C000242A7F2A1200FF231308646200FF3649A3
:1003D00055222000FF000503000000FF001C224101
:1003E0000000FF0041221C0000FF14083E0814001A
:1003F000FF08083E080800FF503000000000FF081A
:100400000808080800FF006060000000FF201008D6
:10041000040200FF3E5149453E00FF40427F4040FC
:1004200000FF426151494600FF2141454B3100FF29
:100430001814127F1000FF274545453900FF3C4A3C
:1004400049493000FF017109050300FF3649494958
:100450003600FF064949291E00FF0036360000001D
:10046000FF005636000000FF081422410000FF1470
:100470001414141400FF004122140800FF0201515B
:10048000090600FF000002050200FF7E1111117E27
:1004900000FF7F4949493600FF3E4141412200FFAC
:1004A0007F4141221C00FF7F4949494100FF7F09EC
:1004B00009090100FF3E4149497A00FF7F08080809
:1004C0007F00FF00417F410000FF2040413F0100CD
:1004D000FF7F0814224100FF7F4040404000FF7F23
:1004E000020C027F00FF7F0408107F00FF3E4141A5
:1004F000413E00FF7F0909090600FF3E4151215E90
:1005000000FF7F0919294600FF264949493200FFAB
:1005100001017F010100FF3F4040403F00FF1F20DD
:1005200040201F00FF3F4038403F00FF6314081485
:100530006300FF070870080700FF61514945430049
:10054000FF007F41410000FF020408102000FF006F
:1005500041417F0000FF040201020400FF404040CF
:10056000404000FF000003050000FF205454547871
:1005700000FF7F4444443800FF384444444400FFB3
:10058000384444447F00FF385454541800FF040496
:100590007E050500FF085454543C00FF7F08040406
:1005A0007800FF00447D4000FFFF2040443D00FFF5
:1005B000FF7F10284400FFFF417F4000FFFFFF7CCA
:1005C000047C047800FF7C0804047800FF3844446D
:1005D000443800FF7C1414140800FF081414147C21
:1005E00000FF7C08040400FFFF485454542400FF1B
:1005F00004043F444400FF3C4040207C00FF1C209A
:1006000040201C00FF3C4030403C00FF44281028A4
:100610004400FF0C5050503C00FF4464544C4400D4
:10062000FF083641410000FF000077000000FF0096
:100630004141360800FF08082A1C0800FF081C2A50
:10064000080800FFFFFFFFFFFF00FF0011241FBE8F
:10065000CFE5D8E0DEBFCDBF13E0A0E6B0E0E6E92D
:10066000F5E302C005900D92A839B107D9F713E060
:10067000A8E9B3E001C01D92A23CB107E1F70E94D6
:10068000F00B0C94C91A0C94000086B1876086B9EF
:1006900080E487B986B1886886B9369A08951F9232
:1006A0000F920FB60F921124CF92DF92EF92FF922A
:1006B0000F931F932F933F934F935F936F937F936A
:1006C0008F939F93AF93BF93EF93FF938FB7F8945C
:1006D00014B105B18FBF609187037091880380E0EA
:1006E00090E00E94631426E636E646E65FE30E9449
:1006F000F1146B017C01902F80E0612F70E0682B7A
:10070000792B80E090E00E9463142DEC3CEC4CECE3
:100710005DE30E94F1149B01AC01C701B6010E9488
:10072000D3130E9437147093880360938703369A1B
:10073000FF91EF91BF91AF919F918F917F916F91B9
:100740005F914F913F912F911F910F91FF90EF90EB
:10075000DF90CF900F900FBE0F901F901895DF93F2
:10076000CF9300D00F92CDB7DEB7198285B38A83BD
:1007700084B38B83B898C09814BA8FEF85BBB89AAE
:10078000C0988FE99FE00197F1F700C0000083B3A4
:1007900080958093AD038A8185BB8B8184BB8091DA
:1007A000AD038093AD038091AD03909199039817A9
:1007B00079F090919803923058F0809399031092B9
:1007C0009803809199038823B9F08091990315C00B
:1007D00090919903981751F090919803923030F4CA
:1007E000809198038F5F8093980306C0909199033E
:1007F000981711F41092980380E0898389818430DE
:1008000009F46FC0853050F4813009F4A4C0813000
:1008100008F4BEC0823009F0A5C080C0803139F133
:10082000813120F4883009F09DC044C08032B1F09D
:10083000803409F097C08091A203882331F481E0CD
:100840008093A2030E949A11A3C01092A2030E9457
:100850009A1180E690E00E9409169AC0298100D082
:1008600000D0EDB7FEB7319687E690E083C02981CE
:1008700000D000D0EDB7FEB7319680E790E0ADB77D
:10088000BEB712969C938E931197228313820E9477
:10089000F4150F900F900F900F9080919D03882377
:1008A00019F00E94241174C081E080939D030E947E
:1008B000500C6EC08091FA00882351F08AE593E0D5
:1008C00090936C0380936B0380E090E00E94230E72
:1008D000298100D000D0EDB7FEB7319689E790E0CE
:1008E00049C0298100D000D0EDB7FEB7319682E82B
:1008F00090E0ADB7BEB712969C938E93119722836A
:1009000013820E94F4150F900F900F900F9080911A
:100910009D038823E9F10E94F7103AC0298100D095
:1009200000D0EDB7FEB731968BE890E0ADB7BEB71B
:1009300012969C938E931197228313820E94F41532
:100940000F900F900F900F9080919D03882301F1DD
:100950000E94A2101DC080919D038823C9F00E94AF
:10096000C81016C0298100D000D0EDB7FEB731966F
:1009700084E990E0ADB7BEB712969C938E93119721
:10098000228313820E94F4150F900F900F900F9006
:100990000F900F900F90CF91DF91089510929B03CD
:1009A00010929A031092B5008BB780688BBF8BB7FB
:1009B0008F7B8BBF85B78A6085BF1FBC84E08EBDEF
:1009C00089B7846089BF08951F920F920FB60F9266
:1009D00011242F933F934F935F936F937F938F9344
:1009E0009F93AF93BF93EF93FF9380919A0390915E
:1009F0009B0300D000D02DE930E0EDB7FEB7328385
:100A00002183948383830E94F4150F900F900F909D
:100A10000F90FF91EF91BF91AF919F918F917F9137
:100A20006F915F914F913F912F910F900FBE0F905B
:100A30001F9018951F920F920FB60F921124EF92EC
:100A4000FF920F931F932F933F934F935F936F9357
:100A50007F938F939F93AF93BF93CF93DF93EF9346
:100A6000FF93F8948091BA009091BB00A091BC00D4
:100A7000B091BD0081309105A105B10559F41092E6
:100A8000BA001092BB001092BC001092BD001DBCB9
:100A90001CBC33C08CB59DB59093AF038093AE035F
:100AA0001DBC1CBC6091B6007091B700C091AE0334
:100AB000D091AF0380E090E00E94631420E030E02A
:100AC00040E05FE30E94F1147B018C01BE0180E0F5
:100AD00090E00E94631420E030E040E05FE30E9479
:100AE000F1149B01AC01C801B7010E94D3130E940D
:100AF00037147093B7006093B6008AB780688ABFD6
:100B00007894FF91EF91DF91CF91BF91AF919F9139
:100B10008F917F916F915F914F913F912F911F9195
:100B20000F91FF90EF900F900FBE0F901F901895B0
:100B30001F920F920FB60F921124EF92FF920F9314
:100B40001F932F933F934F935F936F937F938F9355
:100B50009F93AF93BF93CF93DF93EF93FF938091D6
:100B6000BA009091BB00A091BC00B091BD00813053
:100B70009105A105B10579F41092BA001092BB005D
:100B80001092BC001092BD0010929B0310929A0329
:100B90001DBC1CBC48C04FB7F8948CB59DB5909354
:100BA000AF038093AE031DBC1CBC2091AE033091FB
:100BB000AF0380919A0390919B03820F931F9093B0
:100BC000AF038093AE0310929B0310929A034FBF22
:100BD0006091B8007091B900C091AE03D091AF039D
:100BE00080E090E00E94631426E636E646E65FE386
:100BF0000E94F1147B018C01BE0180E090E00E9414
:100C000063142DEC3CEC4CEC5DE30E94F1149B0171
:100C1000AC01C801B7010E94D3130E94371470932E
:100C2000B9006093B8008AB780688ABFFF91EF91DE
:100C3000DF91CF91BF91AF919F918F917F916F91F4
:100C40005F914F913F912F911F910F91FF90EF90E6
:100C50000F900FBE0F901F901895FC018BB78F7BE4
:100C60008BBF21E030E040E050E0258336834783AE
:100C7000508781E080838BB780688BBF0895FC012B
:100C80008BB78F778BBF21E030E040E050E02583C9
:100C900036834783508710828BB780648BBF08955B
:100CA00080E090E062E071E00E947F1882E090E0D6
:100CB00060E00E946A1883E090E068EA7FE20E94A8
:100CC0007F1887E090E040E050E0BA010E9477187A
:100CD0008BE090E040E050E060E47FE30E94771812
:100CE00085E090E06FE00E946A1886E090E064E1A1
:100CF0000E946A1808951F9380E090E00E94641893
:100D000021E08230920709F04FC082EC90E00E940F
:100D1000091682E090E00E94561880939C0387E0B9
:100D200090E00E945E186093890370938A03809319
:100D30008B0390938C038BE090E00E945E1860938D
:100D40008D0370938E0380938F039093900383E0C1
:100D500090E00E946418BC0180E090E02CE330E059
:100D600040E050E00E9454156093DD007093DE0077
:100D70008093DF009093E00085E090E00E94561899
:100D80001CE3819FC00111249093E2008093E10055
:100D900086E090E00E945618819FC0011124909334
:100DA000E4008093E30006C08FEC90E00E940916F7
:100DB0000E9450061F91089560919C0382E090E08C
:100DC0000E946A1808956091DD007091DE008091A4
:100DD000DF009091E0002CE330E040E050E00E9422
:100DE000871583E090E0B9010E947F180895409133
:100DF000890350918A0360918B0370918C0387E083
:100E000090E00E94771840918D0350918E0360917D
:100E10008F03709190038BE090E00E947718089503
:100E20008091E1009091E2006CE370E00E94731504
:100E300085E090E00E946A1808958091E300909107
:100E4000E4006CE370E00E94731586E090E00E947D
:100E50006A18089585E090E00E9456189CE3899FE7
:100E6000C00111249093E2008093E100089586E090
:100E700090E00E9456189CE3899FC0011124909332
:100E8000E4008093E3000895DC9AC1980895C19A24
:100E9000DC980895A798DF98DE9ADD9800C0DD9A67
:100EA00000C09F99FACFA79A0895DF93CF930F922E
:100EB000CDB7DEB789830E944A079091B303898139
:100EC000982795BBDF9ADE98DD9A00C0DD980F90D9
:100ED000CF91DF910895DF93CF930F92CDB7DEB717
:100EE00089830E944A07898185BBDF98DE98DD9A55
:100EF00000C0DD980F90CF91DF9108950F931F935D
:100F0000DF93CF930F92CDB7DEB7182F062F823025
:100F1000E8F46830D8F44034C8F4882321F44983D5
:100F20000E94470703C049830E94440749811093E8
:100F3000B003086B0093B103842F80648093B203E5
:100F40000E946B078091B1030E946B070F90CF91B5
:100F5000DF911F910F9108952091B003FC01208330
:100F60008091B103FB0180838091B203FA018083F9
:100F700008951F93182F8230A0F4882319F40E943B
:100F8000470702C00E9444071093B00380E4809397
:100F9000B2038091B1030E946B078091B2030E945B
:100FA0006B071F910895883030F488548093B10303
:100FB00080E00E94B9070895FF920F931F93F0906D
:100FC000B3031092B30310E0812F0E94D30700E017
:100FD00005C0003419F481E00E94B90780E00E9446
:100FE00055070F5F0038A9F71F5F183069F7F092B7
:100FF000B30380E00E94D3071F910F91FF900895E3
:101000008091B1038F5F8093B103803C18F088EB2F
:101010008093B10380E00E94B90708958FEF809319
:10102000B30308951092B30308950F931F93DF93B2
:10103000CF930F92CDB7DEB79091B003913021F4EA
:101040009091B2039C3710F48A3031F489830E9466
:10105000000889818A30F9F097E0899F8001112486
:101060000C531D4F8091B003882339F48091B20353
:10107000803819F481E00E94B907F80184918F3F0C
:1010800051F00F5F1F4F0E9455078091B2038F5F91
:101090008093B203E7CF0F90CF91DF911F910F9113
:1010A0000895EF92FF92CF93DF93E82EE7017E0140
:1010B000F92EE70102C00E94150889918823D9F70B
:1010C000DF91CF91FF90EF9008958AB3806F8ABB34
:1010D00084B38FEF84BBB99A0E9447078FE30E94C5
:1010E0006B070E9444078FE30E946B0783EC99E033
:1010F0000197F1F700C000000E94470780EC0E94B2
:101100006B070E94440780EC0E946B070E94DC077B
:1011100083E00E94D30785EE90E00E945108089575
:10112000AF92BF92CF92DF92EF92FF920F931F93F5
:10113000DF93CF93CDB7DEB72A970FB6F894DEBF13
:101140000FBECDBFE42E8E010F5F1F4F61157105DD
:101150008105910539F0FF242AE0A22EB12CC12C83
:10116000D12C21C0F801FF2402C01192F394FE1487
:1011700028F52F2D2A30C9F721C061157105810589
:10118000910549F0A60195010E948715F801608339
:10119000B901CA0105C0FE2DFB3080F4F8011082B0
:1011A000F3940F5F1F4FFE1440F308C0FE01EF0DD4
:1011B000F11D8081805D0E941508FA94FF20B1F72F
:1011C0002A960FB6F894DEBF0FBECDBFCF91DF9148
:1011D0001F910F91FF90EF90DF90CF90BF90AF9055
:1011E00008951F93DF93CF93CDB7DEB72A970FB63D
:1011F000F894DEBF0FBECDBFFE01319661157105BB
:101200008105910511F010E01EC010E002C011929E
:101210001F5F141738F51A30D1F724C06115710516
:101220008105910559F0262F2F70208334E0969583
:101230008795779567953A95D1F703C04B3090F431
:1012400010821F5F3196141748F30CC0FE01E10FA6
:10125000F11D80818A3010F0895C01C0805D0E94A0
:1012600015081150112391F72A960FB6F894DEBF96
:101270000FBECDBFCF91DF911F910895DF92EF9206
:10128000FF920F931F93CF93DF937B018C01D42E9A
:10129000C1E0D0E01EC02D2D30E021503040CE0105
:1012A00002C0880F991F2A95E2F79C01442737FD59
:1012B0004095542F2E213F214023512381E02115B9
:1012C00031054105510509F480E0805D0E94150853
:1012D000DA94DD2001F7DF91CF911F910F91FF90FC
:1012E000EF90DF900895AF92BF92CF92DF92EF928E
:1012F000FF920F931F937B018C010E9437145B01B7
:101300006C014FEF0E9490088EE20E941508B50113
:10131000C6010E9463149B01AC01C801B7010E9481
:10132000D21320E034E244E759E40E94F1140E9411
:1013300037144FEF0E9490081F910F91FF90EF908C
:10134000DF90CF90BF90AF900895AF92BF92CF92B1
:10135000DF92EF92FF920F931F93DF93CF9300D012
:10136000CDB7DEB79E012F5E3F4F9F858889092F3D
:10137000182F0EC1853209F003C10F5F1F4FF8010E
:101380008081982F90539A3090F440E00BC0842FC6
:10139000880F482F440F440F480F490F0F5F1F4F0E
:1013A000F8018081982F90539A3088F301C04FEF55
:1013B000883509F499C08935C0F4843409F452C0E1
:1013C000853448F4823409F4AAC0833428F5853280
:1013D00009F0DCC0CDC0833509F4BEC0853509F401
:1013E0006BC0863409F0D2C0AAC0863609F4A7C003
:1013F000873640F4833681F08436C1F0823609F0B6
:10140000C5C07FC0853709F44CC0883709F461C076
:10141000833709F0BBC0A0C042E0E42EF12CE20EFD
:10142000F31EF90180810E941508A0C092E0C92E28
:10143000D12CC20ED31EF901E080F180F7FE09C065
:10144000F094E194F108F3948DE249830E94150829
:101450004981B701882777FD8095982F0E949008D1
:10146000960194C084E0A82EB12CA20EB31EF901FF
:10147000C080D180E280F380F7FE0DC0F094E0944C
:10148000D094C094C11CD11CE11CF11C8DE2498395
:101490000E9415084981C701B6010E949008950174
:1014A00075C0B2E0EB2EF12CE20EF31EF901608163
:1014B000718180E090E00AC0A4E0EA2EF12CE20EF7
:1014C000F31EF90160817181828193810E949008ED
:1014D0004DC0F2E0EF2EF12CE20EF31EF901608117
:1014E000718180E090E00AC0E4E0EE2EF12CE20E83
:1014F000F31EF90160817181828193810E94F1085C
:1015000035C072E0E72EF12CE20EF31EF901608186
:1015100071814F3F09F440E180E090E00DC064E04C
:10152000E62EF12CE20EF31EF901608171818281B9
:1015300093814F3F09F440E10E943E0917C054E0F7
:10154000E52EF12CE20EF31EF9016081718182819A
:1015500093810E9473090AC042E0E42EF12CE20E4E
:10156000F31EF901808191810E94510897010EC0FC
:1015700085E229833A830E94150829813A8106C0B1
:1015800029833A830E9415083A8129810F5F1F4FF2
:10159000F8018081882309F0EDCE0F900F90CF9154
:1015A000DF911F910F91FF90EF90DF90CF90BF9050
:1015B000AF9008950F931F9310E0812F0E94D307DF
:1015C00000E004C0003411F40E94440780E00E944F
:1015D00055070F5F0038B1F71F5F183071F780E0D3
:1015E0000E94D3071F910F910895DF92EF92FF920F
:1015F0000F931F93DF93CF9300D0CDB7DEB7F62EB6
:10160000843008F052C0653608F04FC0182F12958C
:10161000110F107E103418F0105401E001C000E0EA
:10162000412F485F802F60E00E947E072F2D30E021
:1016300040E050E0CA01B90143E00E949008F694EE
:101640008F2D86958695869557E0E52EE81A87E0DA
:10165000F822E8E0F0E0EF19F1092FEF30E002C0E6
:10166000220F331FEA95E2F7D22EFF24F394145F82
:10167000802F6F2D412F0E947E07FE1420F0FE1454
:1016800021F02FEF03C020E001C02D2D90E0822F2C
:1016900029839A830E9455079A819F5F29819C30F4
:1016A000B1F7F3949F2D983019F70F900F90CF91C9
:1016B000DF911F910F91FF90EF90DF900895FF92BF
:1016C0000F931F93162F843098F5653688F5082FF1
:1016D000000F0F5F80E0602F40E00E947E07FF2434
:1016E0000AC08F2D803419F481E00E94B9078FEF72
:1016F0000E945507F394F116A0F3F12E0AC08F2D26
:10170000803419F481E00E94B90780E00E945507F7
:10171000F3948F2D843698F381E0602F4EE60E947B
:101720007E07612F70E080E090E043E00E94900827
:101730001F910F91FF900895EF92FF920F931F93C7
:10174000DF93CF930F92CDB7DEB7E090B203F09066
:10175000B103198200E3809F800111240C5A1F4FAE
:1017600089818F5F8983F8010F5F1F4F2591349125
:10177000822F0E9455078981803358F489818F70A8
:1017800079F7F3948E2D0E946B078F2D0E946B07C3
:10179000E7CF0F90CF91DF911F910F91FF90EF90C6
:1017A000089581E062E040E30E947E078BE00E94A2
:1017B0009C0B089581E062E040E30E947E078CE08C
:1017C0000E949C0B089587B38F7987BB88B380668E
:1017D00088BB089586B38072089586B38074089597
:1017E0001F93CF93DF9378940E9471110E94650834
:1017F0000E9447110E9445030E94AB130E94CE0431
:101800000E943B130E9493110E947B068091F60078
:101810009091F7000E945A11C4EFD1E00E94AF03EB
:101820002197E1F71092FA000CC00E94AF0380915B
:10183000AB03882331F01092AB0380E090E00E946C
:10184000230E80919E03882381F711E00E94AF034D
:101850008091AB038823D1F31092AB030E94F9115E
:1018600080919D03882321F40E94F10D0E94220D96
:101870008091F70082958695869581708127829563
:10188000880F880F807C9091F7009F7B982B909316
:10189000F7008091F6009091F7000E945A11D6CF80
:1018A000DF93CF930F92CDB7DEB70E94DC0780E0C5
:1018B0000E94D307E0916B03F0916C0382819381C6
:1018C0000E945108198246C0A0916B03B0916C032D
:1018D000E981F0E0EE0FFF1FEA0FFB1F8581968183
:1018E0000097A9F1998114968C9114979817D1F4C7
:1018F0000E940E0889818E5F0E94D3078981E09142
:101900006B03F0916C0390E0880F991FE80FF91FAB
:101910000580F681E02D828193810E9451080E940A
:10192000120815C089818E5F0E94D3078981E091DA
:101930006B03F0916C0390E0880F991FE80FF91F7B
:101940000580F681E02D828193810E945108898172
:101950008F5F89838981853008F4B6CF0F90CF914E
:10196000DF9108950F931F939C01E0E1FEE0BF011A
:101970000E947315462F70E06E9FC0016F9F900DFF
:101980007E9F900D1124B901681B790BCB016CE38C
:1019900070E00E947315062F442379F400D000D024
:1019A0008BEF90E0ADB7BEB712969C938E931197D4
:1019B00014961C921E9213970FC000D000D0EDB762
:1019C000FEB731968DEF90E0ADB7BEB712969C93FF
:1019D0008E931197428313820E94A5090F900F9056
:1019E0000F900F90002361F400D080E091E0EDB7FC
:1019F000FEB7928381830E94A5090F900F901FC0AC
:101A00000A3040F400D000D0EDB7FEB7319684E044
:101A100091E007C000D000D0EDB7FEB7319689E065
:101A200091E0ADB7BEB712969C938E931197028347
:101A300013820E94A5090F900F900F900F901F9195
:101A40000F91089580E067E04AE00E947E070E94BF
:101A50008F128091DD009091DE00A091DF00B091A7
:101A6000E00081312EE0920720E0A20720E0B207DB
:101A700008F440C08091DD009091DE00A091DF006D
:101A8000B091E0000197A109B1098093DD00909326
:101A9000DE00A093DF00B093E00081E067E044E166
:101AA0000E947E076091DD007091DE008091DF0072
:101AB0009091E00000D000D000D02DE031E0EDB7F3
:101AC000FEB73283218320E13EE040E050E00E94F7
:101AD0008715EDB7FEB723833483458356830E9471
:101AE000A5098DB79EB706960FB6F8949EBF0FBE98
:101AF0008DBF10C081E067E044E10E947E0700D006
:101B000085E191E0EDB7FEB7928381830E94A5093C
:101B10000F900F9080E062E044E30E947E078AE02D
:101B200090E00E949C0B80E062E049E20E947E0708
:101B300080E090E00E949C0B81E062E040E00E9427
:101B40007E0780E090E00E949C0B81E062E040E133
:101B50000E947E0785E090E00E949C0B81E062E09D
:101B600040E20E947E0785E090E00E949C0B089571
:101B70008091A2038330C9F0843028F4813009F1C8
:101B80008230C8F40CC08630E1F0873018F484301D
:101B900039F511C08730A9F0883011F51AC080E0FE
:101BA0000E94D30780EE91E011C080E00E94D3072D
:101BB00084EF91E00BC080E00E94D30786ED91E0B6
:101BC00005C080E00E94D3078AEE91E00E94510890
:101BD000089580E00E94D30786E292E00E945108B7
:101BE00008950E94ED0B882341F081E060E042E11E
:101BF0000E947E0782E192E01AC00E94EA0B8823CD
:101C000079F08091A203882359F086E08093A203A3
:101C100081E060E042E10E947E0788E092E007C038
:101C200081E060E042E10E947E078CE192E00E9448
:101C3000510880919C03882319F00E94DA0B0895C3
:101C40000E94D10B0895EF92FF920F931F937C0196
:101C500000D000D08CE191E0EDB7FEB79283818394
:101C6000E0916B03F0916C0382819381EDB7FEB735
:101C7000948383830E94F415E0916B03F0916C03CD
:101C80000F900F900F900F9023E0EA35F20709F0C4
:101C9000CAC08091A103813081F1813020F082306F
:101CA00009F04BC264C082E291E00E94091611E083
:101CB00010939D030E94DC0780E00E94D30786E218
:101CC00091E00E94510886E00E94D3078CE391E0E6
:101CD0000E94510887E00E94D30784E591E00E94AA
:101CE000510880E063E048E20E947E070E948F1264
:101CF0001093A10310939E0320C28DE591E00E94F2
:101D0000091680E063E048E20E947E070E948F127D
:101D100083E0E816F10409F010C20E943812909393
:101D2000A00380939F030E94DC0780E00E94D307FA
:101D300086E291E00E94510886E00E94D30781E686
:101D400091E00E94510887E00E94D30789E791E063
:101D50000E94510880E063E048E20E947E07809183
:101D60009F039091A0030E94E61282E084C1E2E00A
:101D7000EE16F10479F0F3E0EF16F10401F121E041
:101D8000E216F10409F0D9C180919F039091A0035C
:101D9000019605C080919F039091A00301979093B5
:101DA000A00380939F0380E063E048E20E947E07E7
:101DB00080919F039091A0030E94E612BEC1E09023
:101DC0008903F0908A0300918B0310918C030E9489
:101DD000381220919F033091A003BC01621B730B4A
:101DE00080E090E00E9463149B01AC01C801B70140
:101DF0000E94D2139B01AC012093890330938A0384
:101E000040938B0350938C031092A10310929D0377
:101E100010929E0383E393E090936C0380936B0393
:101E20000E94DC078AC183E0E631F80709F580E902
:101E30009AE0ABE0B0E08093DD009093DE00A093E9
:101E4000DF00B093E00010929D0383E393E0909352
:101E50006C0380936B030E94DC070E94220D0E949A
:101E6000B80D0E94F10D8CE891E00E94091665C141
:101E700022E0E33DF207C1F48481882329F4109223
:101E80009D0310929C0307C0813009F056C18093D6
:101E90009C0310929D0383E393E090936C038093E3
:101EA0006B030E94DC0641C182E0EE3EF80709F0B8
:101EB00044C11481113009F08EC08091A1038823A0
:101EC00021F0813009F039C13CC00E94DC0780E07C
:101ED0000E94D307E0916B03F0916C030780F085BB
:101EE000E02D828193810E94510886E00E94D307F1
:101EF00081E691E00E94510887E00E94D3078EE9B5
:101F000091E00E94510881E063E045E00E947E0775
:101F100000D083EB91E0EDB7FEB7928381830E94FE
:101F2000A5090F900F9080E063E048E20E947E07D1
:101F30008091E1009091E2000E94B20C1093A10305
:101F4000FCC0F2E0EF16F10419F123E0E216F1040F
:101F500034F481E0E816F10409F0EFC00AC0E3E0D0
:101F6000EE16F10491F1F4E0EF16F10409F0E5C08A
:101F70002FC08091E1009091E20028E38034920725
:101F800008F0DBC08091E1009091E20006960DC060
:101F90008091E1009091E2008C33910508F4CDC06E
:101FA0008091E1009091E2000A979093E200809383
:101FB000E10080E063E048E20E947E07109299030E
:101FC0008091E1009091E2009EC00E941D07A3C095
:101FD0000E942A07A0C0123009F0AFC08091A1036F
:101FE000882321F0813009F0A8C048C00E94DC0796
:101FF00080E00E94D307E0916B03F0916C030780AF
:10200000F085E02D828193810E94510886E00E9434
:10201000D30781E691E00E94510887E00E94D30730
:102020008AEB91E00E94510881E067E044E10E9460
:102030007E078091E1009091E2000E94B20C81E065
:1020400063E045E00E947E0700D083EB91E0EDB7AE
:10205000FEB7928381830E94A5090F900F9080E0C4
:1020600063E048E20E947E078091E3009091E400E3
:102070000E94B20C81E08093A1035FC0F2E0EF16F2
:10208000F10431F123E0E216F10434F481E0E816C2
:10209000F10409F052C00AC0E3E0EE16F104B1F118
:1020A000F4E0EF16F10409F048C033C02091E300DA
:1020B0003091E4008091E1009091E20006972817AA
:1020C0003907D8F58091E3009091E40006960CC0A2
:1020D0008091E3009091E4008C33910570F1809140
:1020E000E3009091E4000A979093E4008093E3006A
:1020F00080E063E048E20E947E071092990380919D
:10210000E3009091E4000E94B20C17C00E941007F7
:1021100002C00E9437071092A10310929D0383E32F
:1021200093E090936C0380936B030E94DC070E9402
:10213000220D0E94B80D0E94F10D1F910F91FF908A
:10214000EF9008958091A103882319F083E090E037
:102150001CC0A0916B03B0916C031496EC91149782
:10216000F0E0EE0FFF1FEA0FFB1F0580F681E02D68
:1021700085819681009739F0F0936C03E0936B03AF
:102180000E94500C089580E090E00E94230E089574
:102190001F938091A103882329F081E090E00E94A1
:1021A000230E23C0E0916B03F0916C031481812F07
:1021B0000E94BC13E0916B03F0916C03112389F42E
:1021C000DF01159680E02D913D912115310529F40F
:1021D000815084830E94BC1306C08F5F853099F7BD
:1021E00004C0115014830E94500C1F9108958091D7
:1021F000A103882329F082E090E00E94230E089535
:10220000A0916B03B0916C031496EC911497EF5F5F
:102210001496EC931497F0E0EE0FFF1FEA0FFB1FEC
:1022200085819681009711F414961C9200D088EC59
:1022300091E0EDB7FEB7928381830E94F4150F9071
:102240000F900E94500C08958091A103882329F0DB
:1022500084E090E00E94230E0895E0916B03F091DA
:102260006C0380819181009739F090936C03809387
:102270006B030E94500C089510929D030E94DC078E
:102280000E94220D0E94B80D0E94F10D089583B79F
:10229000896783BFBB9A85E98CBF0895969A969803
:1022A0000895979A81E0982F9A95F1F797988A95D3
:1022B000F1F708951F93CF93DF93EC0110E1D7FF5F
:1022C00002C0959A01C095980E944E11115019F0C4
:1022D000CC0FDD1FF4CF0E945111DF91CF911F91E0
:1022E000089581B3806E81BB80E090E00E945A1116
:1022F00008958091F6008F7D8093F6008091F7001D
:102300008F778093F7008091F6008F7E8093F600A0
:102310008091F6008F7B8093F6008091F6008F7796
:102320008093F60008950E94DC071092A2030E9499
:10233000B80D08958091A2038430B9F1853058F426
:10234000813099F0813008F445C0823099F08330B3
:1023500009F04EC01FC08630A9F18630D8F0873012
:10236000C9F1883009F044C03AC00E94B80D0E94FB
:10237000791108950E9479118091F600806180930F
:10238000F6008091F60080628093F6008091F6005E
:1023900088601DC00E9479118091F600806480934E
:1023A000F6008091F600816012C00E947911809140
:1023B000F60080648093F6008091F7008068809337
:1023C000F7000AC00E9479118091F6008061809325
:1023D000F60002C00E9479110E94B80D08950E9473
:1023E00079118091F6008F778093F6000E94B80DE6
:1023F00008958091A203823099F0833018F48130DF
:1024000071F505C08630C1F0873049F51FC00E94C4
:10241000ED0B009749F40E94EA0B009789F00AC07F
:102420000E94ED0B009711F087E00BC00E94EA0BB1
:102430000097A9F086E005C00E94EA0B009779F4A6
:1024400082E08093A2030E949A1108950E94ED0BEE
:10245000009729F482E08093A2030E949A110895C4
:10246000FC01808191810895FC017183608308954E
:10247000AF92BF92CF92DF92EF92FF920F931F9392
:10248000DF93CF9300D0CDB7DEB760918703709113
:102490008803E0908D03F0908E0300918F031091DC
:1024A0009003A0908903B0908A03C0908B03D090D2
:1024B0008C0380E090E00E946314A80197010E94C1
:1024C000F114A60195010E94D3130E94371400D085
:1024D00000D0EDB7FEB731962DE633E0ADB7BEB70D
:1024E00012963C932E9311976283738369837A8348
:1024F0000E94F4150F900F900F900F906981862F16
:102500007A81972F0F900F90CF91DF911F910F91AC
:10251000FF90EF90DF90CF90BF90AF900895DF9342
:10252000CF9300D000D00F92CDB7DEB70E94381203
:102530002DB73EB72A5030400FB6F8943EBF0FBEBD
:102540002DBFEDB7FEB731969E012F5F3F4FADB760
:10255000BEB712963C932E93119725E030E033835B
:10256000228326E733E035832483A0E0B0E086832E
:102570009783A087B1870E943E160F900F90EDB70A
:10258000FEB731968AE793E0ADB7BEB712969C933B
:102590008E9311978981828313828A818483158225
:1025A0008B81868317820E94A5092DB73EB7285FCD
:1025B0003F4F0FB6F8943EBF0FBE2DBF0F900F9048
:1025C0000F900F900F90CF91DF910895DF93CF93ED
:1025D00000D000D00F92CDB7DEB72DB73EB72A504E
:1025E00030400FB6F8943EBF0FBE2DBFEDB7FEB71B
:1025F00031969E012F5F3F4FADB7BEB712963C9309
:102600002E93119725E030E03383228326E733E0D1
:1026100035832483A0E0B0E086839783A087B187C9
:102620000E943E160F900F90EDB7FEB731968AE7E5
:1026300093E0ADB7BEB712969C938E9311978981A4
:10264000828313828A81848315828B818683178299
:102650000E94A5092DB73EB7285F3F4F0FB6F894EB
:102660003EBF0FBE2DBF0F900F900F900F900F9099
:10267000CF91DF91089585B58F6085BD83B58D6756
:1026800083BD89B7806889BF08951F920F920FB6E6
:102690000F9211248F939F93AF93BF938091AC03BC
:1026A0008D3709F044C081E08093AB038091A30390
:1026B0009091A403A091A503B091A6030097A10552
:1026C000B10599F08091A3039091A403A091A50373
:1026D000B091A6030197A109B1098093A303909338
:1026E000A403A093A503B093A6038091A7039091A0
:1026F000A803A091A903B091AA030097A105B10571
:1027000099F08091A7039091A803A091A903B0919B
:10271000AA030197A109B1098093A7039093A80385
:10272000A093A903B093AA031092AC0305C08091B3
:10273000AC038F5F8093AC03BF91AF919F918F915A
:102740000F900FBE0F901F9018955D9BFECF8CB918
:1027500080E090E0089510BC87E689B98AB188616D
:102760008AB9579A80B5866880BD85EA93E160E0B2
:1027700070E00E94A91508955D9BFECF8CB9089565
:102780008BB18CB108951F920F920FB60F92112446
:102790008F938CB18093F8008F910F900FBE0F90A4
:1027A0001F9018955058BB27AA270ED0E0C0D1D053
:1027B00030F0D6D020F031F49F3F11F41EF4C6C0A3
:1027C0000EF4E095E7FBBCC0E92FE2D080F3BA1726
:1027D000620773078407950718F071F49EF5FAC035
:1027E0000EF4E0950B2EBA2FA02D0B01B90190012C
:1027F0000C01CA01A0011124FF27591B99F0593F70
:1028000050F4503E68F11A16F040A22F232F342FB7
:102810004427585FF3CF469537952795A795F04005
:102820005395C9F77EF41F16BA0B620B730B840B1A
:10283000BAF09150A1F0FF0FBB1F661F771F881FD2
:10284000C2F70EC0BA0F621F731F841F48F487952A
:1028500077956795B795F7959E3F08F0B3CF939519
:10286000880F08F09927EE0F97958795089598D0CF
:1028700088F09F5790F0B92F9927B751A0F0D1F069
:10288000660F771F881F991F1AF0BA95C9F712C0F3
:10289000B13081F09FD0B1E008959CC0672F782FB0
:1028A0008827B85F39F0B93FCCF38695779567955F
:1028B000B395D9F73EF490958095709561957F4FCB
:1028C0008F4F9F4F0895E89409C097FB3EF4909571
:1028D0008095709561957F4F8F4F9F4F9923A9F0F9
:1028E000F92F96E9BB279395F69587957795679588
:1028F000B795F111F8CFFAF4BB0F11F460FF1BC0CC
:102900006F5F7F4F8F4F9F4F16C0882311F096E95E
:1029100011C0772321F09EE8872F762F05C066230C
:1029200071F096E8862F70E060E02AF09A95660FC5
:10293000771F881FDAF7880F9695879597F908957E
:1029400097F99F6780E870E060E008959FEF80EC62
:10295000089500240A941616170618060906089505
:1029600000240A9412161306140605060895092E6B
:102970000394000C11F4882352F0BB0F40F4BF2BDA
:1029800011F460FF04C06F5F7F4F8F4F9F4F08951A
:1029900057FD9058440F551F59F05F3F71F0479510
:1029A000880F97FB991F61F09F3F79F087950895F5
:1029B000121613061406551FF2CF4695F1DF08C014
:1029C000161617061806991FF1CF86957105610531
:1029D00008940895E894BB2766277727CB0197F9D9
:1029E00008950BD0C4CFB5DF28F0BADF18F09523D7
:1029F00009F0A6CFABCF1124EECFCADFA0F3959F8D
:102A0000D1F3950F50E0551F629FF001729FBB27D5
:102A1000F00DB11D639FAA27F00DB11DAA1F649F81
:102A20006627B00DA11D661F829F2227B00DA11D34
:102A3000621F739FB00DA11D621F839FA00D611DBA
:102A4000221F749F3327A00D611D231F849F600DDB
:102A5000211D822F762F6A2F11249F5750408AF014
:102A6000E1F088234AF0EE0FFF1FBB1F661F771FA0
:102A7000881F91505040A9F79E3F510570F060CFDC
:102A8000AACF5F3FECF3983EDCF386957795679588
:102A9000B795F795E7959F5FC1F7FE2B880F911DBE
:102AA0009695879597F90895629FD001739FF001DD
:102AB000829FE00DF11D649FE00DF11D929FF00DCE
:102AC000839FF00D749FF00D659FF00D9927729F05
:102AD000B00DE11DF91F639FB00DE11DF91FBD0190
:102AE000CF0111240895AA1BBB1B51E107C0AA1FE7
:102AF000BB1FA617B70710F0A61BB70B881F991F9F
:102B00005A95A9F780959095BC01CD010895A1E251
:102B10001A2EAA1BBB1BFD010DC0AA1FBB1FEE1F57
:102B2000FF1FA217B307E407F50720F0A21BB30BA2
:102B3000E40BF50B661F771F881F991F1A9469F71E
:102B400060957095809590959B01AC01BD01CF017A
:102B500008950F931F93CF93DF938C01EB010097A0
:102B600011F42097C9F181E090E06EE070E00E94DE
:102B70008418FC019C01009789F180E883832097E9
:102B800071F0D387C28781E883838091B8039091E5
:102B9000B903009721F4F093B903E093B80301154A
:102BA0001105E1F011870087838182608383809122
:102BB000BA039091BB03009789F4F093BB03E093B1
:102BC000BA038091BC039091BD03009739F4F09350
:102BD000BD03E093BC0302C020E030E0C901DF91F7
:102BE000CF911F910F910895A0E0B0E0EAEFF5E1D9
:102BF0000C94A21AFE013596619171918091BA03ED
:102C00009091BB03AF010E946F162096E2E00C94F6
:102C1000BE1AEF92FF920F931F93CF93DF938C0115
:102C2000E091BA03F091BB03838181FF1FC0C0E034
:102C3000D0E00AC0DB011896ED91FC911997099537
:102C4000009711F0CFEFDFEFF80181918F016091D4
:102C5000BA037091BB03882369F7DB011896ED91E5
:102C6000FC9119978AE00995009711F0CFEFDFEFFB
:102C7000CE01CDB7DEB7E6E00C94BA1AAEE0B0E014
:102C8000E4E4F6E10C94A01A0D891E898F89988DD1
:102C900026E02C831A83098397FF02C080E090E826
:102CA00001979E838D839E01255E3F4FCE01019645
:102CB000698D7A8DA9010E946F164D815E8157FD45
:102CC0000AC02F813885421753070CF49A01020F6E
:102CD000131FF80110822E96E4E00C94BC1AACE0AD
:102CE000B0E0E5E7F6E10C94921A6C011B018A0151
:102CF000FC0117821682838181FFD1C12E010894C5
:102D0000411C511CF6019381F10193FD859193FFC4
:102D100081911F01882309F4BEC1853239F493FDE6
:102D2000859193FF81911F01853229F490E0B601CE
:102D30000E94F819E7CFEE24FF2420E02032B0F4FF
:102D40008B3269F08C3228F4803251F0833271F486
:102D50000BC08D3239F0803349F421602CC02260E1
:102D6000246029C0286027C0206125C027FD2CC011
:102D7000382F30533A3098F426FF08C08E2D880F34
:102D8000E82EEE0CEE0CE80EE30E15C08F2D880F2A
:102D9000F82EFF0CFF0CF80EF30E20620CC08E32E2
:102DA00021F426FD78C1206406C08C3611F4206819
:102DB00002C0883649F4F10193FD859193FF81911A
:102DC0001F01882309F0BACF982F9554933018F03B
:102DD0009052933028F40C5F1F4FFFE3F9830DC02E
:102DE000833631F0833771F0833509F060C022C03B
:102DF000F801808189830E5F1F4F420171E0A72E89
:102E0000B12C16C062E0662E712C600E711EF801A6
:102E10008080918026FF03C06E2D70E002C06FEFAE
:102E20007FEFC4012C870E94ED195C0183012C8582
:102E30002F7717C052E0652E712C600E711EF801BD
:102E40008080918026FF03C06E2D70E002C06FEF7E
:102E50007FEFC4012C870E94DB195C012C85206860
:102E6000830123FD20C008C080E290E0B6012C87DA
:102E70000E94F819FA942C858F2D90E0A816B906B7
:102E800098F311C0F40127FD859127FF81914F012F
:102E900090E0B6012C870E94F8192C85F110FA9465
:102EA0000894A108B108A114B10461F7F1C08436F7
:102EB00011F0893649F527FF08C0F801608171815A
:102EC000828193810C5F1F4F09C0F801608171817D
:102ED000882777FD8095982F0E5F1F4F4FE6B42E01
:102EE000B22297FF09C090958095709561957F4FAC
:102EF0008F4F9F4FF0E8BF2AA2012AE030E00E94E6
:102F0000241A782E741845C0853731F43FEEB32E5D
:102F1000B2222AE030E025C099EFB92EB2228F36D6
:102F2000C1F0803720F4883509F0B5C00DC0803776
:102F300021F0883709F0AFC002C020E1B22AB4FE08
:102F40000BC084E0B82A08C0B4FE09C0E6E0BE2A7F
:102F500006C028E030E005C020E130E002C020E1FA
:102F600032E0B7FE08C0F8016081718182819381EF
:102F70000C5F1F4F07C0F8016081718180E090E015
:102F80000E5F1F4FA2010E94241A782E7418FFE7CB
:102F9000BF22B6FE0BC02EEFB2227E1438F4B4FE70
:102FA00007C0B2FC05C08FEEB82202C0A72C01C03A
:102FB000AE2C8B2D90E0B4FE0DC0FE01E70DF11D8F
:102FC0002081203319F4E9EEBE2209C0A394B2FE99
:102FD00006C004C086789070009709F0A3948B2CEB
:102FE0009924B3FC14C0B0FE0FC0AF1428F4E72C32
:102FF000EF0CEA18AF2C08C0E72C06C080E290E086
:10300000B6010E94F819A394AF14C0F304C0AF1422
:1030100010F4FA1801C0FF2484FE0FC080E390E092
:10302000B6010E94F81982FE1FC081FE03C088E528
:1030300090E010C088E790E00DC0C40186789070E1
:10304000009791F081FC02C080E201C08BE2B7FCE6
:103050008DE290E0B6010E94F81906C080E390E08E
:10306000B6010E94F819EA947E14C0F37A94F20132
:10307000E70DF11D808190E0B6010E94F8197720DC
:10308000A9F706C080E290E0B6010E94F819FA9410
:10309000FF20C1F737CEF6012681378102C02FEF1E
:1030A0003FEFC9012C96E2E10C94AE1AE199FECFF4
:1030B0009FBB8EBBE09A99278DB30895A6E1B0E03F
:1030C00044E050E00C94841AA8E1B0E042E050E003
:1030D0000C94841A262FE199FECF9FBB8EBB2DBB8B
:1030E0000FB6F894E29AE19A0FBE01960895242F44
:1030F0000E946B18252F0E946B180C947F180E9459
:103100006A18272F0C946B18EF92FF920F931F935E
:10311000CF93DF93689F8001699F100D789F100DFA
:103120001124C8010E94A818E82EE7017E01F92E9B
:10313000E701209731F08E2D60E070E0A8010E9439
:10314000E6197E01CE01CDB7DEB7E6E00C94BA1ADF
:10315000CF93DF938230910510F482E090E0E0910C
:10316000C003F091C10340E050E020E030E026C011
:103170006081718168177907E0F06817790781F439
:10318000828193812115310531F0D90113969C93E9
:103190008E9312972BC09093C1038093C00326C0D7
:1031A0004115510519F06417750718F4AB01E901D1
:1031B000DF019F0172816381E72FF62F3097C1F6FF
:1031C0004115510501F1481B590B4430510580F45C
:1031D00012968D919C911397209719F09B838A8367
:1031E00004C09093C1038093C003FD01329646C092
:1031F000FD01E40FF51F81939193425050401196C9
:103200005C934E933BC02091BE033091BF032115C8
:10321000310541F420919303309194033093BF031F
:103220002093BE032091950330919603211531051B
:1032300041F42DB73EB74091910350919203241B66
:10324000350BE091BE03F091BF03E217F307A0F442
:103250002E1B3F0B2817390778F0AC014E5F5F4FEC
:103260002417350748F04E0F5F1F5093BF0340935C
:10327000BE038193919302C0E0E0F0E0CF01DF91C3
:10328000CF910895CF93DF93009709F491C0FC018B
:103290003297138212826091C0037091C10361154D
:1032A000710581F420813181280F391F8091BE037F
:1032B0009091BF038217930799F5F093BF03E093B2
:1032C000BE0376C0DB0180E090E002C0CD01D901F1
:1032D000AE17BF0748F412962D913C911397211514
:1032E0003105A1F7CD0121C0B383A283EF0149913C
:1032F00059919E01240F351FA217B30779F42D9120
:103300003C911197240F351F2E5F3F4F318320834F
:1033100012962D913C91139733832283009729F4C1
:10332000F093C103E093C00343C0DC011396FC9308
:10333000EE9312974D915D91A40FB51FEA17FB070D
:1033400069F420813181240F351F2E5F3F4FEC013E
:1033500039832883228133813B832A83E0E0F0E0B4
:1033600002C0FB01BC01DB0112968D919C91139769
:103370000097B9F79B012E5F3F4F8D919C9111975C
:10338000820F931F4091BE035091BF034817590706
:1033900079F4309729F41092C1031092C00302C04F
:1033A00013821282225030403093BF032093BE0319
:1033B000DF91CF910895FC0105906150704001109C
:1033C000D8F7809590958E0F9F1F0895DC0101C05E
:1033D0006D9341505040E0F70895FC0161507040FA
:1033E00001900110D8F7809590958E0F9F1F08953A
:1033F0000F931F93CF93DF938C01EB018B8181FFA0
:103400001BC082FF0DC02E813F818C819D812817BA
:10341000390764F4E881F9810193F983E88306C0F0
:10342000E885F985802F0995009731F48E819F8179
:1034300001969F838E8302C00FEF1FEFC801DF91BB
:10344000CF911F910F910895FA01AA27283051F1C9
:10345000203181F1E8946F936E7F6E5F7F4F8F4FC5
:103460009F4FAF4FB1E03ED0B4E03CD0670F781F24
:10347000891F9A1FA11D680F791F8A1F911DA11D09
:103480006A0F711D811D911DA11D20D009F4689442
:103490003F912AE0269F11243019305D3193DEF6EA
:1034A000CF010895462F4770405D4193B3E00FD0A0
:1034B000C9F7F6CF462F4F70405D4A3318F0495D8B
:1034C00031FD4052419302D0A9F7EACFB4E0A6956E
:1034D0009795879577956795BA95C9F70097610590
:1034E000710508959B01AC010A2E069457954795E6
:1034F00037952795BA95C9F7620F731F841F951FDB
:10350000A01D0895DC01CB01FC01E199FECF06C0AE
:10351000FFBBEEBBE09A31960DB20D924150504088
:10352000B8F708952F923F924F925F926F927F92D9
:103530008F929F92AF92BF92CF92DF92EF92FF92C3
:103540000F931F93CF93DF93CDB7DEB7CA1BDB0B6F
:103550000FB6F894DEBF0FBECDBF09942A88398814
:1035600048885F846E847D848C849B84AA84B9841B
:10357000C884DF80EE80FD800C811B81AA81B98127
:10358000CE0FD11D0FB6F894DEBF0FBECDBFED013B
:063590000895F894FFCF3E
:103596006F666620200D002564203320200D0A006A
:1035A6002564203420200D0A002564203520200DB6
:1035B6000A002564202036200D0A002564202037C5
:1035C600200D0A002564203920200D0A0054696D5B
:1035D6006572206F766572666C6F77205B256C75F9
:1035E6005D200D0A000018B018B0010000000000B0
:1035F60000006D616769632074727565200D006D4A
:1036060061676963206661736C65200D00900A0B23
:1036160000100E840320204144524F4E4120437235
:10362600797374616C00020030010130002564007A
:103636003A3030003A302564003A2564002575207A
:103646006820202000302068202020002573200DCF
:103656000A0030200D0043616C6962726174652056
:1036660074656D7065726174757265005761697411
:1036760020666F7220737461626C65207265616486
:10368600696E67005072657373204F4B0031200DD1
:103696000055736520557020616E6420446F776E07
:1036A60020627574746F6E7300746F207365742076
:1036B60074656D70657261747572650062656861C6
:1036C600762072657365742066696C740D004D61B1
:1036D60078696D756D20706572696F643A20343A49
:1036E6003030005B483A4D4D5D004D6178696D752F
:1036F6006D2074696D653A00717765004372797360
:1037060074616C20200052756E6E696E6720200011
:103716004F6666202020202020005374616E64626C
:10372600792020005265636972632E202000446967
:103736007370656E732020004C6F7770726573200E
:10374600200054616E6B46756C6C20002020202092
:1037560020202020200050756D7020202020200081
:103766005265736574000016033002010000000004
:10377600000000000000000075530000D30248025C
:10378600010000000000000000000000004D4F682E
:103796006D0000D3025D0200000000000000000082
:1037A60000000000526563697263756C6174696F2D
:1037B6006E20706572696F640000EE02740201008B
:1037C60000000000000000000000005265636972FE
:1037D60063756C6174696F6E2074696D650000EEC7
:1037E600029B020000000000000000000000000034
:1037F6004D6561737572656D656E7420756E69745D
:10380600730000EE02C002004C02630200000000DA
:10381600000000004F7074696F6E73200000330360
:10382600E40200D3028A02AF020000000000005248
:10383600657365742066696C74657220636F756E56
:103846007465722000003303FF0200370200000097
:10385600000000000000004D61696E206D656E7508
:1038660020000000002703001603EE0200000000FF
:103876000000000043616C696272617465205465E2
:103886006D70657261747572650000004403010015
:103896000000000000000000000000330365312036
:1038A6002575200D0A00256C7500256325632E25D8
:1038B600634043202020000000000000000000407C
:0838C6003F2000C203000000D6
:00000001FF
