:100000000C9486030C94D8070C941A070C94A30341
:100010000C94532B0C94A3030C94A3030C94A303F0
:100020000C94A3030C9405070C94A3030C94A30352
:100030000C94A3030C94342C0C94A3030C94A303EE
:100040000C94E9030C94A3030C94A3030C94A30352
:100050000C94A3030000C0E0F0F838181838F8F04A
:10006000E0C0000000FFFFFFFF000000000000FFF5
:10007000FFFFFF0000071F3F7FF8E0C0C0E0F87FF0
:100080003F1F0700000000808080C0E0F8F8F8F80B
:10009000000000000000000101010101FFFFFFFF5F
:1000A000000000000000000000000000FFFFFFFF54
:1000B000000000000080E0F0F0783818181878F898
:1000C000F0E0C00000010101010080C0E0F0F87F15
:1000D0003F1F0F00E0F0F8FCFEDFCFC7C3C1C0C078
:1000E000C0C0C00000C0E0F0F83818181838F8F0A8
:1000F000E0C0000000000000000030303078FFFF5A
:10010000EFC78000000C3C7C7CF0E0C0C0E0F07FDA
:100110007F3F0F0000000000000000C0E0F8F8F88A
:10012000F80000000080E0F07C3E0F0701FFFFFFB9
:10013000FF000000070707070606060606FFFFFF89
:10014000FF0606060000F8F8F8F81818181818182E
:100150001800000000003F3F3F1F1C0C0C1C3CF827
:10016000F8F0C000000C3C7C7CF0E0C0C0E0F07F08
:100170007F3F0F0000C0E0F0F83818181838F8F08A
:10018000E0C0000000FFFFFFFF381C0C0C1C3CFC13
:10019000F8F0C00000071F3F7FF8E0C0C0E0F07F2C
:1001A0007F3F0F0000181818181818181818D8F8DA
:1001B000F8F8380000000000000000C0F8FEFF3F23
:1001C0000F0100000000000000F0FEFFFF0F010023
:1001D000000000000000C0F0F0F838181838F8F0FF
:1001E000F0C00000000083CFFFFF7C78787CFFFF29
:1001F000CF830000001F3F7F7FF0E0C0C0E0F07FB2
:100200007F3F1F000080E0F0F07838181838F8F0D1
:10021000E0C00000000F3F7FFFF0E0C0C0E070FFD3
:10022000FFFFFF0000183878F8E0C0C0E0F0FC7F66
:100230003F1F03000000000000000000000000005D
:1002400000E0E0E00000000000000000000000000E
:1002500000E0E0E0E0000000000000E0E0E0E0E0BE
:10026000E0E0E00000000000000000F0F8181818BE
:100270003830000000FE2020103E003173636363BD
:100280007F3E00000002728A8A8A0202FA0AFA0A93
:10029000FA0200000000F0204020F000E0301010D2
:1002A00030E0000000000700000017A045A7100084
:1002B000070500000000788484840100FC04F90430
:1002C000F800000000000000C0E0C0800000000056
:1002D0000000000000000000000103078FDEFCF8B2
:1002E0007020000000000000183C1E0F07030100F2
:1002F000000000000000000000000000000080C0BE
:10030000E0C00000000000002070F8FCDE8F070352
:1003100001000000000000000000000103070F1EA4
:100320003C18000000000000000000000000000079
:1003300000000000000000383838383838383838C5
:10034000383800000000000000000000000000003D
:10035000000000000000000000000000000000009D
:10036000000000000000000000000000000000008D
:10037000000000000000000000000000000000007D
:1003800000000000FFFFFFFFFF00FFFFFFFFFFFF78
:1003900000FFFFFFFFFFFF00FFFFFFFFFFFF00FF6A
:1003A000FFFFFFFFFF00FFFFFFFFFFFF00FFFFFF5B
:1003B000FFFFFF00FFFFFFFFFFFF00FFFFFFFFFF4B
:1003C000FF00FFFFFFFFFFFF00FFFFFFFFFFFF003A
:1003D000FFFFFFFFFFFF00FFFFFFFFFFFF00FFFF2B
:1003E000FFFFFFFF00FFFFFFFFFFFF00FFFFFFFF1B
:1003F000FFFF00FFFFFFFFFFFF00FFFFFFFFFFFF0B
:1004000000FFFFFFFFFFFF00FFFFFFFFFFFF00FFF9
:10041000FFFFFFFFFF00FFFFFFFFFFFF00FFFFFFEA
:10042000FFFFFF00FFFFFFFFFFFF00FFFFFFFFFFDA
:10043000FF00FFFFFFFFFFFF00FFFFFFFFFFFF00C9
:10044000FFFFFFFFFFFF00FFFFFFFFFFFF00FFFFBA
:10045000FFFFFFFF00FFFFFFFFFFFF00FFFFFFFFAA
:10046000FFFF00FF0000000000FFFF00004F000042
:1004700000FF000700070000FF147F147F1400FF37
:10048000242A7F2A1200FF231308646200FF3649E2
:1004900055222000FF000503000000FF001C224140
:1004A0000000FF0041221C0000FF14083E08140059
:1004B000FF08083E080800FF503000000000FF0859
:1004C0000808080800FF006060000000FF20100816
:1004D000040200FF3E5149453E00FF40427F40403C
:1004E00000FF426151494600FF2141454B3100FF69
:1004F0001814127F1000FF274545453900FF3C4A7C
:1005000049493000FF017109050300FF3649494997
:100510003600FF064949291E00FF0036360000005C
:10052000FF005636000000FF081422410000FF14AF
:100530001414141400FF004122140800FF0201519A
:10054000090600FF000002050200FF7E1111117E66
:1005500000FF7F4949493600FF3E4141412200FFEB
:100560007F4141221C00FF7F4949494100FF7F092B
:1005700009090100FF3E4149497A00FF7F08080848
:100580007F00FF00417F410000FF2040413F01000C
:10059000FF7F0814224100FF7F4040404000FF7F62
:1005A000020C027F00FF7F0408107F00FF3E4141E4
:1005B000413E00FF7F0909090600FF3E4151215ECF
:1005C00000FF7F0919294600FF264949493200FFEB
:1005D00001017F010100FF3F4040403F00FF1F201D
:1005E00040201F00FF3F4038403F00FF63140814C5
:1005F0006300FF070870080700FF61514945430089
:10060000FF007F41410000FF020408102000FF00AE
:1006100041417F0000FF040201020400FF4040400E
:10062000404000FF000003050000FF2054545478B0
:1006300000FF7F4444443800FF384444444400FFF2
:10064000384444447F00FF385454541800FF0404D5
:100650007E050500FF085454543C00FF7F08040445
:100660007800FF00447D4000FFFF2040443D00FF34
:10067000FF7F10284400FFFF417F4000FFFFFF7C09
:10068000047C047800FF7C0804047800FF384444AC
:10069000443800FF7C1414140800FF081414147C60
:1006A00000FF7C08040400FFFF485454542400FF5A
:1006B00004043F444400FF3C4040207C00FF1C20D9
:1006C00040201C00FF3C4030403C00FF44281028E4
:1006D0004400FF0C5050503C00FF4464544C440014
:1006E000FF083641410000FF000077000000FF00D6
:1006F0004141360800FF08082A1C0800FF081C2A90
:10070000080800FFFFFFFFFFFF00FF0011241FBECE
:10071000CFE5D8E0DEBFCDBF13E0A0E6B0E0ECE669
:10072000F7E602C005900D92A837B107D9F713E09C
:10073000A8E7B3E001C01D92A73CB107E1F70E9412
:100740004E1A0C94B4330C940000DF93CF93CDB7C2
:10075000DEB7F89481E0CF91DF910895DF93CF93D6
:1007600000D0CDB7DEB79A8389838FE590E02981E9
:100770003A81F9012081FC0120830F900F90CF91E5
:10078000DF910895DF93CF93CDB7DEB786E290E097
:1007900026E230E0F90120812760FC01208387E216
:1007A00090E020E4FC01208386E290E026E230E045
:1007B000F90120812868FC01208386E290E026E28E
:1007C00030E0F90120812064FC012083CF91DF918A
:1007D00008951F920F920FB60F921124EF92FF927D
:1007E0000F931F932F933F934F935F936F937F9339
:1007F0008F939F93AF93BF93EF93FF93DF93CF9329
:1008000000D000D0CDB7DEB78FE590E0FC0180814D
:100810008C830E94A5038B8313C084E290E0FC01CB
:100820008081282F30E085E290E0FC018081882FD4
:1008300090E0982F8827822B932B9A8389831B82A1
:100840008B81882351F7CE0104960E94AE0387E284
:1008500090E0FC018081882F90E08034910529F0A0
:100860008134910509F447C08CC087E290E021E40F
:10087000FC0120838091400390914103CC01A0E0D2
:10088000B0E0BC01CD010E944F2DDC01CB01BC01C9
:10089000CD012DEC3CEC4CE45FE30E94052EDC0125
:1008A000CB017C018D0189819A81CC01A0E0B0E06F
:1008B000BC01CD010E944F2DDC01CB01BC01CD015B
:1008C0002DEC3CEC4CE45EE30E94052EDC01CB01F8
:1008D0009C01AD01C801B7010E94532CDC01CB0182
:1008E000BC01CD010E94232DDC01CB01909341037B
:1008F0008093400346C087E290E020E4FC0120831F
:1009000080910E0390910F03CC01A0E0B0E0BC01F8
:10091000CD010E944F2DDC01CB01BC01CD0120E0B7
:1009200030E040E05FE30E94052EDC01CB017C015A
:100930008D0189819A81CC01A0E0B0E0BC01CD019C
:100940000E944F2DDC01CB01BC01CD0120E030E045
:1009500040E05FE30E94052EDC01CB019C01AD016C
:10096000C801B7010E94532CDC01CB01BC01CD01B1
:100970000E94232DDC01CB0190930F0380930E0383
:10098000000086E290E026E230E0F9012081206458
:10099000FC0120832496DEBFCDBFCF91DF91FF9174
:1009A000EF91BF91AF919F918F917F916F915F91E7
:1009B0004F913F912F911F910F91FF90EF900F90CA
:1009C0000FBE0F901F9018950F931F93DF93CF9337
:1009D000CDB7DEB760970FB6F894DEBF0FBECDBFC0
:1009E00085E390E0FC0180818F8784E390E0FC0147
:1009F0008081888B87E390E027E330E0F901208154
:100A00002E7FFC01208388E390E028E330E0F901A9
:100A100020812E7FFC01208384E390E0FC01108282
:100A200085E390E02FEFFC01208387E390E027E34C
:100A300030E0F90120812160FC01208388E390E00F
:100A400028E330E0F90120812E7FFC01208380E043
:100A500090E0A0E8BFE389839A83AB83BC8369817C
:100A60007A818B819C8120E030E04AE755E40E9446
:100A7000052EDC01CB018D839E83AF83B88711E007
:100A80006D817E818F81988520E030E040E85FE3D2
:100A90000E94B72C88230CF010E0112329F081E08C
:100AA00090E09A87898746C011E06D817E818F81B1
:100AB000988520E03FEF4FE757E40E94012E18167B
:100AC0000CF010E0112361F169817A818B819C81A6
:100AD00020E030E040E251E40E94052EDC01CB0131
:100AE000BC01CD010E94232DDC01CB019A878987AF
:100AF00012C080E991E09C878B878B859C858C0157
:100B0000C8010197F1F78C011C870B8789859A85AD
:100B100001979A87898789859A85009751F717C029
:100B20006D817E818F8198850E94232DDC01CB0110
:100B30009A87898789859A859E878D878D859E85E9
:100B40008C01F8013197F1F78F011E870D8783E340
:100B500090E0FC01808180958093A80385E390E07C
:100B60002F85FC01208384E390E02889FC01208309
:100B70008091A80360960FB6F894DEBF0FBECDBF7C
:100B8000CF91DF911F910F910895DF93CF9300D004
:100B90000F92CDB7DEB79A8389836B8389819A815F
:100BA000FC0191818B819817D1F089819A81FC0198
:100BB00080818230A0F089819A812B81FC01218380
:100BC00089819A81FC01108289819A81FC0181814D
:100BD000882341F189819A81FC01818124C0898126
:100BE0009A81FC0191818B81981789F089819A8182
:100BF000FC018081823058F489819A81FC018081D6
:100C0000282F2F5F89819A81FC0120830BC0898165
:100C10009A81FC0191818B81981721F489819A81B5
:100C2000FC01108280E00F900F900F90CF91DF9128
:100C30000895DF93CF930F92CDB7DEB719820E944C
:100C4000E4048093A8032091A80388E793E0622F2F
:100C50000E94C505898380910D01882319F089813F
:100C6000887089838981882F90E08430910509F408
:100C700061C0853091054CF48130910509F468C05C
:100C80008230910509F45DC077C080319105B9F1DA
:100C9000813191052CF48830910509F43DC06CC078
:100CA0008032910599F08034910509F058C0809107
:100CB0009D03882331F481E080939D030E949D2849
:100CC0005BC010929D030E949D2856C080918403B2
:100CD000882309F046C080919D03843031F481E07F
:100CE00080939D030E949D2847C080919D03882387
:100CF000D1F184E080939D030E949D283DC08091A6
:100D00008403882319F00E94811C36C081E08093FF
:100D100084030E94261B30C080910D01882329F195
:100D200080E592E0909362028093610280E00E94ED
:100D3000061D22C0809184038823C9F00E94F51B00
:100D40001BC0809184038823A1F00E94C11C14C0A1
:100D500080918403882379F00E942B1C0DC0000031
:100D60000BC0000009C0000007C0000005C0000063
:100D700003C0000001C000000F90CF91DF910895E3
:100D8000DF93CF93CDB7DEB7F89481E0CF91DF91B9
:100D90000895DF93CF9300D0CDB7DEB79A838983D0
:100DA0008FE590E029813A81F9012081FC012083BF
:100DB0000F900F90CF91DF910895DF93CF93CDB730
:100DC000DEB710927200109271000E94FC0885E557
:100DD00090E025E530E0F90120812A60FC012083C4
:100DE0008FE490E0FC0110828EE490E025E0FC01AD
:100DF000208389E590E029E530E0F9012081246035
:100E0000FC012083CF91DF9108951F920F920FB6BE
:100E10000F9211248F93DF93CF93CDB7DEB781E08C
:100E200080938500CF91DF918F910F900FBE0F902F
:100E30001F9018951F920F920FB60F921124EF92E8
:100E4000FF920F931F932F933F934F935F936F9353
:100E50007F938F939F93AF93BF93EF93FF93DF9312
:100E6000CF9300D0CDB7DEB78FE590E0FC01808155
:100E70008A830E94C00689836FC08CE490E0FC01E5
:100E8000808191819093AA038093A9038CE490E0E0
:100E9000FC011182108280916000282F30E0809147
:100EA000A9039091AA032817390708F045C080913B
:100EB000A9039091AA03CC01A0E0B0E0BC01CD0150
:100EC0000E944F2DDC01CB01BC01CD012DEC3CEC8F
:100ED0004CEC5DE30E94052EDC01CB017C018D0111
:100EE0008091760090917700CC01A0E0B0E0BC0149
:100EF000CD010E944F2DDC01CB01BC01CD0126E6C6
:100F000036E646E65FE30E94052EDC01CB019C013C
:100F1000AD01C801B7010E94532CDC01CB01BC011B
:100F2000CD010E94232DDC01CB01909377008093AB
:100F3000760010927B030FC080917B038F5F8093BC
:100F40007B0380917B03853630F010927B031092F7
:100F500077001092760019828981882309F08DCF5D
:100F6000CE0102960E94C906109285008AE590E0A3
:100F70002AE530E0F90120812068FC0120830F90F0
:100F80000F90CF91DF91FF91EF91BF91AF919F9122
:100F90008F917F916F915F914F913F912F911F9111
:100FA0000F91FF90EF900F900FBE0F901F9018952C
:100FB0001F920F920FB60F921124EF92FF920F9390
:100FC0001F932F933F934F935F936F937F938F93D1
:100FD0009F93AF93BF93EF93FF93DF93CF9300D093
:100FE000CDB7DEB78FE590E0FC0180818A830E9457
:100FF000C00689836FC08CE490E0FC018081918100
:101000009093AA038093A9038CE490E0FC011182E1
:10101000108280916000282F30E08091A903909188
:10102000AA032817390708F045C0809174009091F1
:101030007500CC01A0E0B0E0BC01CD010E944F2DB5
:10104000DC01CB01BC01CD012AE939E949E95EE3C4
:101050000E94052EDC01CB017C018D018091A9034A
:101060009091AA03CC01A0E0B0E0BC01CD010E94A8
:101070004F2DDC01CB01BC01CD0123E333E343E37E
:101080005FE30E94052EDC01CB019C01AD01C8018C
:10109000B7010E94532CDC01CB01BC01CD010E94A1
:1010A000232DDC01CB019093750080937400109286
:1010B0007B030FC080917B038F5F80937B038091C4
:1010C0007B03853630F010927B03109275001092EE
:1010D000740019828981882309F08DCFCE01029690
:1010E0000E94C906109285008AE590E02AE530E06A
:1010F000F90120812064FC0120830F900F90CF9193
:10110000DF91FF91EF91BF91AF919F918F917F916F
:101110006F915F914F913F912F911F910F91FF9090
:10112000EF900F900FBE0F901F901895EF92FF92C7
:101130000F931F93DF93CF93CDB7DEB78BE590E08E
:101140002BE530E0F90120812F77FC0120838BE52E
:1011500090E02BE530E0F90120812064FC01208340
:101160008091CF00882341F187E080937C0080E06C
:1011700062E040E00E947C0E80917C0390917D03B0
:10118000A0917E03B0917F037C018D01BC01CD0154
:1011900020E030E040E85FE30E94532CDC01CB010B
:1011A00080937C0390937D03A0937E03B0937F0391
:1011B000C801B7010E9447111092CF0081E08093CF
:1011C000730080918403882381F480E063E041E22E
:1011D0000E947C0E82E30E943D0F80E064E04EE1BD
:1011E0000E947C0E80E20E943D0FCF91DF911F9103
:1011F0000F91FF90EF900895DF93CF93CDB7DEB7B7
:101200008BE590E02BE530E0F90120812F7BFC019C
:1012100020838BE590E02BE530E0F9012081206808
:10122000FC0120838091CE00882319F487E080930D
:101230007C001092CE00109273008091840388236A
:1012400081F480E063E041E20E947C0E80E20E9433
:101250003D0F80E064E04EE10E947C0E83E30E943B
:101260003D0FCF91DF910895EF92FF920F931F935F
:10127000DF93CF9300D000D0CDB7DEB780E090E011
:10128000DC0189839A83AB83BC83809173008130B6
:1012900009F0C5C08091740090917500009729F401
:1012A00081E090E0A0E0B0E093C180917C0061E03B
:1012B000882309F060E080917400909175009C0192
:1012C000329522952F7023273F7023274091740079
:1012D000509175008091780090917900FA01E81B97
:1012E000F90BCF0199231CF4909581959F4F41E014
:1012F0002817390708F040E0862F84238823B1F1AE
:101300008091740090917500CC01A0E0B0E0BC0128
:10131000CD010E944F2DDC01CB0120916500309161
:1013200066004091670050916800BC01CD010E94A9
:10133000052EDC01CB0120916100309162004091CB
:10134000630050916400BC01CD010E94532CDC016C
:10135000CB0189839A83AB83BC8380917400909185
:101360007500909379008093780036C080917C005E
:10137000882329F080917C00815080937C008091AB
:10138000780090917900CC01A0E0B0E0BC01CD01E3
:101390000E944F2DDC01CB01209165003091660049
:1013A0004091670050916800BC01CD010E94052E5C
:1013B000DC01CB012091610030916200409163001B
:1013C00050916400BC01CD010E94532CDC01CB0183
:1013D00089839A83AB83BC8369817A818B819C8169
:1013E00020E038E04EE856E40E94052EDC01CB01F7
:1013F0007C018D010E949A2ADC01CB01BC01CD0148
:101400000E944F2D9B01AC01C801B7010E94BB2C6B
:10141000DC01CB0189839A83AB83BC83D1C08091EB
:10142000760090917700009729F481E090E0A0E0A9
:10143000B0E0CEC080917C0061E0882309F060E0DC
:1014400080917600909177009C01329522952F70C3
:1014500023273F7023274091760050917700809199
:101460007A0090917B00FA01E81BF90BCF019923D8
:101470001CF4909581959F4F41E02817390708F09B
:1014800040E0862F8423882309F44DC02091760004
:101490003091770000D000D08DB79EB7019646E816
:1014A00050E0FC0151834083FC01338322830E947E
:1014B000142F0F900F900F900F90809176009091C5
:1014C0007700CC01A0E0B0E0BC01CD010E944F2D1F
:1014D000DC01CB0120916D0030916E0040916F00D6
:1014E00050917000BC01CD010E94052EDC01CB01A2
:1014F0002091690030916A0040916B0050916C001E
:10150000BC01CD010E94532CDC01CB0189839A835D
:10151000AB83BC83809176009091770090937B00A1
:1015200080937A004DC080917C00882329F08091BF
:101530007C00815080937C00209176003091770070
:1015400000D000D08DB79EB7019643EA50E0FC0171
:1015500051834083FC01338322830E94142F0F9018
:101560000F900F900F9080917A0090917B00CC01AA
:10157000A0E0B0E0BC01CD010E944F2DDC01CB0109
:1015800020916D0030916E0040916F00509170007D
:10159000BC01CD010E94052EDC01CB012091690028
:1015A00030916A0040916B0050916C00BC01CD01FC
:1015B0000E94532CDC01CB0189839A83AB83BC83CB
:1015C00069817A818B819C810E94232DDC01CB0172
:1015D000BC01CD010F900F900F900F90CF91DF9134
:1015E0001F910F91FF90EF900895DF93CF9300D05C
:1015F00000D0CDB7DEB70E943409DC01CB01BC01BD
:10160000CD010E944F2DDC01CB0189839A83AB83EE
:10161000BC8329813A814B815C8160E074E284E77C
:1016200099E40E94BB2CDC01CB0189839A83AB83B4
:10163000BC8389819A81AB81BC81BC01CD010E94B0
:10164000232DDC01CB0100D000D000D02DB73EB758
:101650002F5F3F4F40EC50E0F90151834083F90187
:1016600082839383A483B5830E94142F8DB79EB782
:1016700006960FB6F8949EBF0FBE8DBF89819A81E2
:10168000AB81BC81BC01CD010E94232DDC01CB01CB
:10169000BC01CD010F900F900F900F90CF91DF9173
:1016A0000895DF93CF93CDB7DEB780E090E00E943E
:1016B0004F3121E082309207E1F582E090E00E9414
:1016C000413180937A0387E090E00E944931DC0148
:1016D000CB018093420390934303A0934403B093C0
:1016E00045038BE090E00E944931DC01CB018093FF
:1016F000460390934703A0934803B093490383E0C4
:1017000090E00E944F31CC01A0E0B0E02CE330E04B
:1017100040E050E0BC01CD010E94682EDC01CB010D
:101720008093D0009093D100A093D200B093D300C7
:1017300002C00E949E0BCF91DF910895DF93CF935B
:10174000CDB7DEB780E090E062E071E00E946A31E0
:1017500082E090E060E00E9455318091D00090914D
:10176000D100A091D200B091D3002CE330E040E052
:1017700050E0BC01CD010E94A72EDA01C9019C01F5
:1017800083E090E0B9010E946A3187E090E040E098
:1017900050E0BA010E9462318BE090E040E050E0FE
:1017A00060E47FE30E946231CF91DF910895DF937F
:1017B000CF93CDB7DEB720917A0382E090E0622F1D
:1017C0000E945531CF91DF910895DF93CF9300D0E0
:1017D000CDB7DEB78091D0009091D100A091D2001A
:1017E000B091D3002CE330E040E050E0BC01CD01EB
:1017F0000E94A72EDA01C9019A83898383E090E0D1
:1018000029813A81B9010E946A310F900F90CF91DE
:10181000DF910895DF93CF93CDB7DEB720914203D8
:1018200030914303409144035091450387E090E099
:10183000BA01A9010E946231209146033091470309
:1018400040914803509149038BE090E0BA01A9010F
:101850000E94623183E00E94000F809146039091C4
:101860004703A0914803B0914903BC01CD010E94F8
:10187000471184E00E94000F80914203909143033E
:10188000A0914403B0914503BC01CD010E944711D2
:10189000CF91DF910895DF93CF93CDB7DEB787E087
:1018A00090E00E944931DC01CB0180934203909388
:1018B0004303A0934403B09345038BE090E00E9460
:1018C0004931DC01CB018093460390934703A093F9
:1018D0004803B0934903CF91DF910895DF93CF93ED
:1018E0000F92CDB7DEB7809181039091820301966C
:1018F000909382038093810380918103909182036E
:10190000863091050CF43EC0809183038F5F8093F5
:10191000830380918303898307C089818F5F8983D3
:101920008981893008F0198280918003882F90E0A6
:101930002981222F30E0022E02C0959587950A94C6
:10194000E2F781709070009741F38981809383035F
:1019500081E090E00E94000F24ED30E08981882F23
:1019600090E0880F991FAC01440F551F440F551F7D
:10197000840F951F820F931F0E94A00F1092820365
:10198000109281030F90CF91DF910895DF93CF9351
:1019900000D000D0CDB7DEB70E943409DC01CB0106
:1019A00089839A83AB83BC8389819A81AB81BC8113
:1019B000803D27E0920720E0A20720E0B20748F42C
:1019C00080917300813029F480918003816080933D
:1019D00080030F900F900F900F90CF91DF9108959B
:1019E0000F931F93DF93CF93CDB7DEB76D970FB6ED
:1019F000F894DEBF0FBECDBF8AE390E02AE330E06B
:101A0000F9012081206FFC01208384E390E0FC0138
:101A1000808184E390E02FEFFC01208387E390E056
:101A200027E330E0F90120812260FC0120830E943D
:101A3000F9188FE30E94A8140E94E0188FE30E9417
:101A4000A81480E090E0A0E2B1E48A839B83AC8399
:101A5000BD836A817B818C819D8120E030E04AE7F3
:101A600053E40E94052EDC01CB018E839F83A8875F
:101A7000B98711E06E817F818885998520E030E00B
:101A800040E85FE30E94B72C88230CF010E011239C
:101A900029F081E090E09B878A8746C011E06E8143
:101AA0007F818885998520E03FEF4FE757E40E94CA
:101AB000012E18160CF010E0112361F16A817B8170
:101AC0008C819D8120E030E040E251E40E94052EAF
:101AD000DC01CB01BC01CD010E94232DDC01CB0137
:101AE0009B878A8712C089E190E09D878C878C85CF
:101AF0009D858C01C8010197F1F78C011D870C872A
:101B00008A859B8501979B878A878A859B85009715
:101B100051F717C06E817F81888599850E94232D9A
:101B2000DC01CB019B878A878A859B859F878E876F
:101B30008E859F858C01F8013197F1F78F011F8702
:101B40000E870E94F91880EC0E94A8140E94E018E9
:101B500080EC0E94A8140E94490E83E00E94000FAE
:101B600082EF90E00E94A00F81E0898383C080E033
:101B700090E0A0E2B1E4888B998BAA8BBB8B68893B
:101B800079898A899B8920E030E04AE753E40E9402
:101B9000052EDC01CB018C8B9D8BAE8BBF8B11E0B6
:101BA0006C897D898E899F8920E030E040E85FE381
:101BB0000E94B72C88230CF010E0112329F081E05B
:101BC00090E0998F888F46C011E06C897D898E895D
:101BD0009F8920E03FEF4FE757E40E94012E18163F
:101BE0000CF010E0112361F1688979898A899B8959
:101BF00020E030E040E251E40E94052EDC01CB0100
:101C0000BC01CD010E94232DDC01CB01998F888F6F
:101C100012C089E190E09B8F8A8F8A8D9B8D8C0109
:101C2000C8010197F1F78C011B8F0A8F888D998D60
:101C30000197998F888F888D998D009751F717C0DC
:101C40006C897D898E899F890E94232DDC01CB01BF
:101C5000998F888F888D998D9D8F8C8F8C8D9D8D80
:101C60008C01F8013197F1F78F011D8F0C8F89815D
:101C70008F5F898389818F3F09F079CF6D960FB689
:101C8000F894DEBF0FBECDBFCF91DF911F910F91B2
:101C90000895DF93CF9300D00F92CDB7DEB7809138
:101CA000AE038B831092AE03198217C089810E9404
:101CB000000F1A820CC08A81803419F481E00E94DE
:101CC000DA0E80E00E94C0158A818F5F8A838A8144
:101CD00088238CF789818F5F89838981883030F3ED
:101CE0008B818093AE0380E00E94000F0F900F90D5
:101CF0000F90CF91DF910895DF93CF9300D00F9293
:101D0000CDB7DEB789836A834B838981882319F035
:101D10008981813009F58A818830F0F48B818034A3
:101D2000D8F48981882319F40E94F91802C00E940E
:101D3000E01889818093AB038A81886B8093AC0320
:101D40008B8180648093AD038091AD030E94A814C1
:101D50008091AC030E94A8140F900F900F90CF9128
:101D6000DF910895DF93CF9300D000D000D0CDB79E
:101D7000DEB79A8389837C836B835E834D83209156
:101D8000AB0389819A81FC0120832091AC038B8174
:101D90009C81FC0120832091AD038D819E81FC01FB
:101DA000208326960FB6F894DEBF0FBECDBFCF912D
:101DB000DF910895DF93CF930F92CDB7DEB789837C
:101DC0008981882319F089818130B1F48981882340
:101DD00019F40E94F91802C00E94E01889818093CA
:101DE000AB0380E48093AD038091AC030E94A81400
:101DF0008091AD030E94A8140F90CF91DF910895B8
:101E0000DF93CF930F92CDB7DEB789838981883076
:101E100038F4898188548093AC0380E00E94DA0E04
:101E20000F90CF91DF910895DF93CF93CDB7DEB7B9
:101E30008091AC038F5F8093AC038091AC03803CB6
:101E400018F088EB8093AC0380E00E94DA0ECF910B
:101E5000DF910895DF93CF93CDB7DEB78FEF8093F7
:101E6000AE03CF91DF910895DF93CF93CDB7DEB767
:101E70001092AE03CF91DF9108951F93DF93CF931C
:101E8000CDB7DEB727970FB6F894DEBF0FBECDBF34
:101E90008F838091AB03813021F48091AD038C3727
:101EA00018F48F818A3011F40E94140F8F818A30C8
:101EB00009F43CC024E833E08F81882F90E0AC0126
:101EC000440F551F440F551F440F551FBA01681B7F
:101ED000790BCB01820F931F9A8389838091AB0387
:101EE000882339F48091AD03803819F481E00E9491
:101EF000DA0E89819A819C838B8389819A810196EC
:101F00009A8389838B819C81FC0114911D838D812F
:101F10008E838E818F3F49F08E810E94C015809103
:101F2000AD038F5F8093AD03D9CF000027960FB626
:101F3000F894DEBF0FBECDBFCF91DF911F91089502
:101F4000DF93CF9300D0CDB7DEB79A8389830CC0DF
:101F500089819A81FC01208189819A8101969A83E5
:101F60008983822F0E943D0F89819A81FC018081A3
:101F7000882371F70F900F90CF91DF9108950F9301
:101F80001F93DF93CF93CDB7DEB760970FB6F8946A
:101F9000DEBF0FBECDBF6C877D878E879F87488B46
:101FA00019828C859D85AE85BF850097A105B105F9
:101FB000C1F419820DC08981882F90E09E012E5FA7
:101FC0003F4F820F931FFC01108289818F5F8983AD
:101FD00099818889981708F061C089818A3058F3FF
:101FE0005DC0198244C08C859D85AE85BF850097F4
:101FF000A105B10549F18981082F10E08C859D85E7
:10200000AE85BF852AE030E040E050E0BC01CD0164
:102010000E94A72EDC01CB01282FCE010296800F53
:10202000911FFC0120838C859D85AE85BF852AE0AC
:1020300030E040E050E0BC01CD010E94A72E2C878B
:102040003D874E875F8710C088898F3F39F1888927
:102050008B3020F58981882F90E09E012E5F3F4FC5
:10206000820F931FFC01108289818F5F8983998180
:102070008889981708F4B7CF11C08981882F90E01C
:1020800001979E012E5F3F4F820F931FFC018081BD
:10209000805D0E943D0F89818150898389818823D9
:1020A00061F760960FB6F894DEBF0FBECDBFCF913B
:1020B000DF911F910F910895DF93CF93CDB7DEB7D6
:1020C00060970FB6F894DEBF0FBECDBF6C877D87DB
:1020D0008E879F87488B19828C859D85AE85BF85AD
:1020E0000097A105B105C1F419820DC08981882F1F
:1020F00090E09E012E5F3F4F820F931FFC011082E4
:1021000089818F5F898399818889981708F072C0C7
:1021100089818A3058F36EC019823BC08C859D85B9
:10212000AE85BF850097A105B105F1F08981882FA3
:1021300090E02C85422F4F709E012E5F3F4F820F03
:10214000931FFC0140838C859D85AE85BF85689477
:1021500013F8B695A795979587951694D1F78C8720
:102160009D87AE87BF8712C088898F3F09F442C020
:1021700088898B3008F03EC08981882F90E09E01CD
:102180002E5F3F4F820F931FFC01108289818F5F6A
:10219000898399818889981708F4C0CF2BC08981D9
:1021A000882F90E001979E012E5F3F4F820F931F73
:1021B000FC0180818A3068F08981882F90E0019746
:1021C0009E012E5F3F4F820F931FFC018081895C2F
:1021D0000CC08981882F90E001979E012E5F3F4FB0
:1021E000820F931FFC018081805D0E943D0F8981D9
:1021F000815089838981882391F660960FB6F8947F
:10220000DEBF0FBECDBFCF91DF910895DF93CF9397
:1022100000D000D000D0CDB7DEB76A837B838C833B
:102220009D834E8328C08E81882F90E09C01215091
:10223000304081E090E002C0880F991F2A95E2F7B4
:102240009C01442737FD4095542F8A819B81AC81A6
:10225000BD8182239323A423B52321E00097A10508
:10226000B10509F420E029838981805D0E943D0F3A
:102270008E8181508E838E818823A9F626960FB693
:10228000F894DEBF0FBECDBFCF91DF9108951F93AD
:10229000DF93CF93CDB7DEB728970FB6F894DEBFA4
:1022A0000FBECDBF6D837E838F83988711E06D81D4
:1022B0007E818F81988520E030E0A9010E94B72CB3
:1022C00088230CF010E0112361F08DE20E943D0F95
:1022D0008D819E81AF81B885BF778D839E83AF83CB
:1022E000B8876D817E818F8198850E94232DDC01C6
:1022F000CB0189839A83AB83BC8389819A81AB812B
:10230000BC81BC01CD014FEF0E94BF0F8EE20E9445
:102310003D0F69817A818B819C810E944F2D9B01A9
:10232000AC016D817E818F8198850E94522CDC01E9
:10233000CB018D839E83AF83B8876D817E818F8132
:10234000988520E034E244E759E40E94052EDC0140
:10235000CB01BC01CD010E94232DDC01CB0189837F
:102360009A83AB83BC8389819A81AB81BC81BC0198
:10237000CD014FEF0E94BF0F28960FB6F894DEBF35
:102380000FBECDBFCF91DF911F910895DF93CF9303
:10239000CDB7DEB768970FB6F894DEBF0FBECDBFDE
:1023A000CE014F96988F8F8B8D8D9E8D9A838983CA
:1023B000BEC189819A81FC018081898789858532A6
:1023C00009F0ADC189819A8101969A8389838981B7
:1023D0009A81FC01808189878985803300F1898514
:1023E0008A33E8F41A8614C08A85880F982F990FCB
:1023F000990F980F8985890F80538A8789819A81DF
:1024000001969A83898389819A81FC0180818987D9
:102410008985803338F089858A3330F304C08FEFA3
:102420008A8701C000008985882F90E08835910552
:1024300009F4F1C08935910504F58434910509F456
:1024400070C08534910564F48234910509F419C192
:10245000833491058CF58532910509F45CC162C124
:102460008335910509F445C18535910509F4A2C06C
:102470008634910509F424C155C18636910509F4C5
:102480001FC1873691055CF483369105A9F0843627
:10249000910509F18236910509F4D7C043C185370A
:1024A000910509F470C08837910509F49DC0833700
:1024B000910509F41EC136C18F89988D9C012E5F4C
:1024C0003F4F388F2F8BFC018081918189878985CF
:1024D0000E943D0F27C18F89988D9C012E5F3F4F31
:1024E000388F2F8BFC01808191819C838B838B8122
:1024F0009C81992354F48B819C81909581959F4F69
:102500009C838B838DE20E943D0F8B819C81AA2747
:1025100097FDA095BA2FBC01CD014A850E94BF0F3F
:1025200001C18F89988D9C012C5F3F4F388F2F8B75
:10253000FC0180819181A281B3818D839E83AF83D1
:10254000B8878D819E81AF81B885BB2394F48D813E
:102550009E81AF81B885B095A095909581959F4F4C
:10256000AF4FBF4F8D839E83AF83B8878DE20E94AC
:102570003D0F8D819E81AF81B885BC01CD014A851B
:102580000E94BF0FCFC08F89988D9C012E5F3F4F57
:10259000388F2F8BFC01808191819C878B878B8565
:1025A0009C85CC01A0E0B0E0BC01CD014A850E9431
:1025B000BF0FB8C08F89988D9C012C5F3F4F388F1B
:1025C0002F8BFC0180819181A281B3818D879E87B1
:1025D000AF87B88B8D859E85AF85B889BC01CD014D
:1025E0004A850E94BF0F9EC08F89988D9C012E5FE7
:1025F0003F4F388F2F8BFC01808191819C878B8787
:102600008B859C85CC01A0E0B0E0BC01CD014A8562
:102610000E945C1087C08F89988D9C012C5F3F4F72
:10262000388F2F8BFC0180819181A281B3818D87AE
:102630009E87AF87B88B8D859E85AF85B889BC0195
:10264000CD014A850E945C106DC08F89988D9C01D8
:102650002E5F3F4F388F2F8BFC01808191819C87AB
:102660008B878A858F3F11F480E18A878B859C85D3
:10267000CC01A0E0B0E0BC01CD014A850E9406116A
:1026800051C08F89988D9C012C5F3F4F388F2F8BC5
:10269000FC0180819181A281B3818D879E87AF8764
:1026A000B88B8A858F3F11F480E18A878D859E855E
:1026B000AF85B889BC01CD014A850E94061132C0A0
:1026C0008F89988D9C012C5F3F4F388F2F8BFC0199
:1026D00080819181A281B381898B9A8BAB8BBC8BDA
:1026E00089899A89AB89BC89BC01CD010E944711B7
:1026F00019C08F89988D9C012E5F3F4F388F2F8B8B
:10270000FC01808191819E8B8D8B8D899E890E9499
:10271000A00F000007C085E20E943D0F03C089851D
:102720000E943D0F89819A8101969A8389838981CC
:102730009A81FC018081882309F03BCE68960FB610
:10274000F894DEBF0FBECDBFCF91DF910895DF9328
:10275000CF9300D0CDB7DEB7198216C089810E9411
:10276000000F1A820BC08A81803411F40E94E01895
:1027700080E00E94C0158A818F5F8A838A818823C6
:1027800094F789818F5F89838981883038F380E06D
:102790000E94000F0F900F90CF91DF910895DF936B
:1027A000CF93CDB7DEB729970FB6F894DEBF0FBE33
:1027B000CDBF888769878885843008F06FC0898598
:1027C000853608F06BC088858295880F807E8B8364
:1027D0008B81803410F41D8205C081E08D838B8154
:1027E00080548B838B81982F985F8D8160E0492F77
:1027F0000E947C0E8985882F90E0A0E0B0E0BC01AB
:10280000CD0143E00E94BF0F898586958987898520
:102810008695869586958E8397E08E81292F281B35
:10282000822F8F8381E0898336C08B81982F945FBC
:102830008D816981492F0E947C0E99818F81981723
:1028400010F41C821AC099818F819817A1F4898590
:1028500087708C838C81882F90E028E030E0281BE3
:10286000390B8FEF90E0022E02C0880F991F0A9457
:10287000E2F78C8302C08FEF8C831A8206C08C81B2
:102880000E94C0158A818F5F8A838A818C30B8F359
:1028900089818F5F89838981883038F229960FB6C4
:1028A000F894DEBF0FBECDBFCF91DF910895DF93C7
:1028B000CF9300D000D0CDB7DEB78B836C838B81F4
:1028C000880F8F5F8A838B818430D8F58C81853621
:1028D000C0F580E06A8140E00E947C0E19820CC045
:1028E0008981803419F481E00E94DA0E8FEF0E9412
:1028F000C01589818F5F898399818C81981780F3B6
:102900008C8189830CC08981803419F481E00E9414
:10291000DA0E80E00E94C01589818F5F89838981EA
:10292000843688F381E06A814EE60E947C0E8C81B9
:10293000882F90E0A0E0B0E0BC01CD0143E00E9410
:10294000BF0F0F900F900F900F90CF91DF910895D0
:102950000F931F93DF93CF93CDB7DEB769970FB671
:10296000F894DEBF0FBECDBF898F0E94DB1685E3D2
:1029700090E0298DFC0120838BE390E02BE330E095
:10298000F90120812F77FC0120838BE390E02BE37A
:1029900030E0F90120812F7BFC0120838BE390E064
:1029A0002BE330E0F90120812062FC01208380E0EC
:1029B00090E0A0E0B0E489839A83AB83BC83698113
:1029C0007A818B819C812BEA3AEA4AEA5EE30E9493
:1029D000052EDC01CB018D839E83AF83B88711E088
:1029E0006D817E818F81988520E030E040E85FE353
:1029F0000E94B72C88230CF010E0112319F081E01D
:102A00008987A3C011E06D817E818F81988520E048
:102A100030E04FE753E40E94012E18160CF010E04E
:102A2000112309F489C069817A818B819C8120E01E
:102A300030E04AE754E40E94BB2CDC01CB018A87DA
:102A40009B87AC87BD876A857B858C859D8520E0CB
:102A500030E04AE753E40E94052EDC01CB018E876B
:102A60009F87A88BB98B11E06E857F8588899989AE
:102A700020E030E040E85FE30E94B72C88230CF0B0
:102A800010E0112329F081E090E09B8B8A8B46C0F7
:102A900011E06E857F858889998920E03FEF4FE7B7
:102AA00057E40E94012E18160CF010E0112361F17A
:102AB0006A857B858C859D8520E030E040E251E48D
:102AC0000E94052EDC01CB01BC01CD010E94232D0B
:102AD000DC01CB019B8B8A8B12C089E190E09D8B3E
:102AE0008C8B8C899D898C01C8010197F1F78C0131
:102AF0001D8B0C8B8A899B8901979B8B8A8B8A897A
:102B00009B89009751F728C06E857F8588899989B0
:102B10000E94232DDC01CB019B8B8A8B8A899B89A8
:102B20009F8B8E8B8E899F898C01F8013197F1F7ED
:102B30008F011F8B0E8B10C06D817E818F819885D8
:102B40000E94232DDC01CB0189878985888F888DA0
:102B5000182F1A95F1F7188F8BE390E02BE330E0F4
:102B6000F90120812F7DFC01208369960FB6F8942E
:102B7000DEBF0FBECDBFCF91DF911F910F910895A2
:102B80000F931F93DF93CF93CDB7DEB769970FB63F
:102B9000F894DEBF0FBECDBF898F0E94DB1685E3A0
:102BA00090E03091AE03298D2327FC0120838BE335
:102BB00090E02BE330E0F90120812068FC012083C4
:102BC0008BE390E02BE330E0F90120812F7BFC01C7
:102BD00020838BE390E02BE330E0F9012081206239
:102BE000FC01208380E090E0A0E0B0E489839A8338
:102BF000AB83BC8369817A818B819C812BEA3AEA21
:102C00004AEA5EE30E94052EDC01CB018D839E83A0
:102C1000AF83B88711E06D817E818F81988520E038
:102C200030E040E85FE30E94B72C88230CF010E00E
:102C3000112319F081E08987A3C011E06D817E81A5
:102C40008F81988520E030E04FE753E40E94012E09
:102C500018160CF010E0112309F489C069817A81FB
:102C60008B819C8120E030E04AE754E40E94BB2C39
:102C7000DC01CB018A879B87AC87BD876A857B8512
:102C80008C859D8520E030E04AE753E40E94052EC4
:102C9000DC01CB018E879F87A88BB98B11E06E85F5
:102CA0007F858889998920E030E040E85FE30E94D1
:102CB000B72C88230CF010E0112329F081E090E07C
:102CC0009B8B8A8B46C011E06E857F8588899989A8
:102CD00020E03FEF4FE757E40E94012E18160CF05A
:102CE00010E0112361F16A857B858C859D8520E04C
:102CF00030E040E251E40E94052EDC01CB01BC0132
:102D0000CD010E94232DDC01CB019B8B8A8B12C04D
:102D100089E190E09D8B8C8B8C899D898C01C80109
:102D20000197F1F78C011D8B0C8B8A899B89019788
:102D30009B8B8A8B8A899B89009751F728C06E8567
:102D40007F85888999890E94232DDC01CB019B8B8B
:102D50008A8B8A899B899F8B8E8B8E899F898C0118
:102D6000F8013197F1F78F011F8B0E8B10C06D8129
:102D70007E818F8198850E94232DDC01CB0189877C
:102D80008985888F888D182F1A95F1F7188F8BE316
:102D900090E02BE330E0F90120812F7DFC012083BE
:102DA00069960FB6F894DEBF0FBECDBFCF91DF910D
:102DB0001F910F9108950F931F93DF93CF93CDB77A
:102DC000DEB7E2970FB6F894DEBF0FBECDBF8AE044
:102DD000898384E390E024E330E0F90120812F77B8
:102DE000FC0120838BE390E02BE330E0F9012081AC
:102DF0002F77FC0120838BE390E02BE330E0F90197
:102E000020812064FC0120838BE390E02BE330E001
:102E1000F90120812F7DFC01208380E090E0A0E07B
:102E2000B0E48B839C83AD83BE836B817C818D8179
:102E30009E812BEA3AEA4AEA5EE30E94052EDC0113
:102E4000CB018F839887A987BA8711E06F81788536
:102E500089859A8520E030E040E85FE30E94B72C46
:102E600088230CF010E0112319F081E08B87A3C0B8
:102E700011E06F81788589859A8520E030E04FE701
:102E800053E40E94012E18160CF010E0112309F4EF
:102E900089C06B817C818D819E8120E030E04AE792
:102EA00054E40E94BB2CDC01CB018C879D87AE874C
:102EB000BF876C857D858E859F8520E030E04AE761
:102EC00053E40E94052EDC01CB01888B998BAA8BE1
:102ED000BB8B11E0688979898A899B8920E030E081
:102EE00040E85FE30E94B72C88230CF010E0112328
:102EF00029F081E090E09D8B8C8B46C011E06889C1
:102F000079898A899B8920E03FEF4FE757E40E9447
:102F1000012E18160CF010E0112361F16C857D85EF
:102F20008E859F8520E030E040E251E40E94052E2E
:102F3000DC01CB01BC01CD010E94232DDC01CB01C2
:102F40009D8B8C8B12C089E190E09F8B8E8B8E893C
:102F50009F898C01C8010197F1F78C011F8B0E8BA3
:102F60008C899D8901979D8B8C8B8C899D8900977D
:102F700051F728C0688979898A899B890E94232D05
:102F8000DC01CB019D8B8C8B8C899D89998F888FDF
:102F9000888D998D8C01F8013197F1F78F01198F88
:102FA000088F10C06F81788589859A850E94232DAE
:102FB000DC01CB018B878B858A8F8A8D182F1A9520
:102FC000F1F71A8F8BE390E02BE330E0F9012081D9
:102FD0002062FC01208380E090E0A0E0B0E48B8FD1
:102FE0009C8FAD8FBE8F6B8D7C8D8D8D9E8D2BEAD2
:102FF0003AEA4AEA5EE30E94052EDC01CB018F8F9C
:1030000098A3A9A3BAA311E06F8D78A189A19AA171
:1030100020E030E040E85FE30E94B72C88230CF00A
:1030200010E0112319F081E08BA3A3C011E06F8D94
:1030300078A189A19AA120E030E04FE753E40E94F3
:10304000012E18160CF010E0112309F489C06B8DC5
:103050007C8D8D8D9E8D20E030E04AE754E40E9407
:10306000BB2CDC01CB018CA39DA3AEA3BFA36CA1A1
:103070007DA18EA19FA120E030E04AE753E40E94A9
:10308000052EDC01CB0188A799A7AAA7BBA711E051
:1030900068A579A58AA59BA520E030E040E85FE31C
:1030A0000E94B72C88230CF010E0112329F081E056
:1030B00090E09DA78CA746C011E068A579A58AA5D8
:1030C0009BA520E03FEF4FE757E40E94012E181622
:1030D0000CF010E0112361F16CA17DA18EA19FA1E4
:1030E00020E030E040E251E40E94052EDC01CB01FB
:1030F000BC01CD010E94232DDC01CB019DA78CA733
:1031000012C089E190E09FA78EA78EA59FA58C0194
:10311000C8010197F1F78C011FA70EA78CA59DA5EB
:1031200001979DA78CA78CA59DA5009751F728C056
:1031300068A579A58AA59BA50E94232DDC01CB015A
:103140009DA78CA78CA59DA599AB88AB88A999A9AB
:103150008C01F8013197F1F78F0119AB08AB10C062
:103160006F8D78A189A19AA10E94232DDC01CB014A
:103170008BA38BA18AAB8AA9182F1A95F1F71AABEA
:1031800083E390E0FC018081881F8827881F8A8361
:103190008A81882309F038CE84E390E024E330E08C
:1031A000F90120812068FC012083E2960FB6F89493
:1031B000DEBF0FBECDBFCF91DF911F910F9108955C
:1031C000DF93CF93CDB7DEB78BE390E02BE330E016
:1031D000F90120812061FC01208388E390E028E34D
:1031E00030E0F90120812D7FFC012083CF91DF9118
:1031F0000895DF93CF93CDB7DEB788E390E028E35F
:1032000030E0F90120812260FC0120838BE390E013
:103210002BE330E0F90120812F7EFC012083CF9148
:10322000DF910895EF92FF920F931F93DF93CF9357
:10323000CDB7DEB760970FB6F894DEBF0FBECDBF37
:10324000888B8091AD038D838091AC038B831F8627
:103250001C8224E530E08889682F70E040E350E06C
:10326000649FC001659F900D749F900D1124820F83
:10327000931F9A83898388898A30B1F501C0000041
:103280008F858F5F8F8789819A819F838E838981C4
:103290009A8101969A8389838E819F818C01F8019E
:1032A000E590F4908F01F986E8861F830E83888568
:1032B00099858A878A850E94C0158F85883108F094
:1032C00068C08F8596E0692F0E94872E892F8823FA
:1032D000B1F68B818F5F8B838D810E94A8148B81C7
:1032E0000E94A814CDCF00008F858F5F8F878981C2
:1032F0009A819C878B8789819A8101969A83898399
:103300008B859C858C01F801E590F4908F01FE86F9
:10331000ED861C870B878D859E858A878A850E940E
:10332000C0158091AD038F5F8093AD038091AD0395
:1033300091E0803809F090E02091AB0381E02223F6
:1033400009F080E08923882329F081E00E94DA0EC9
:1033500081E08C838F858033F0F48F858F70882394
:1033600009F0C1CF8B818F5F8B838C81882321F003
:1033700080E00E94DA0E1C828D818093AD038B81E8
:103380008093AC038D810E94A8148B810E94A814A5
:10339000ABCF000001C0000060960FB6F894DEBF0E
:1033A0000FBECDBFCF91DF911F910F91FF90EF9096
:1033B0000895DF93CF93CDB7DEB781E062E040E3BD
:1033C0000E947C0E8BE00E941219CF91DF9108952C
:1033D000DF93CF93CDB7DEB781E062E040E30E9498
:1033E0007C0E8CE00E941219CF91DF910895DF933B
:1033F000CF93CDB7DEB787E390E027E330E0F90164
:1034000020812F79FC01208388E390E028E330E0DD
:10341000F90120812066FC01208381E390E021E313
:1034200030E0F90120812E7FFC01208382E390E0CF
:1034300022E330E0F90120812160FC012083CF915B
:10344000DF910895DF93CF93CDB7DEB786E390E0A9
:10345000FC0180818072CF91DF910895DF93CF933B
:10346000CDB7DEB786E390E0FC0180818074CF9118
:10347000DF910895DF93CF93CDB7DEB780E390E07F
:10348000FC018081882F90E08170907021E000978E
:1034900009F020E0822FCF91DF910895DF93CF9341
:1034A00000D0CDB7DEB778940E94C2268091090182
:1034B00090910A010E941B270E94F00C0E94402656
:1034C0000E94B92B0E94C2030E94312B0E94510B13
:1034D0000E94F7191A82198207C00E941906898171
:1034E0009A8101969A83898389819A8121E0843F18
:1034F000920798F310920D010BC00E94190680915B
:10350000A603882329F01092A60380E00E94061DDE
:1035100080918503882389F70E9472270E94DD0627
:1035200001C000000E9419068091A6038823C9F3F8
:103530000E9461268091B9039091BA03A091BB03C8
:10354000B091BC030097A105B10599F08091B90332
:103550009091BA03A091BB03B091BC030197A1095C
:10356000B1098093B9039093BA03A093BB03B093BE
:10357000BC038091A2039091A303A091A403B091F6
:10358000A5030097A105B10599F08091A203909140
:10359000A303A091A403B091A5030197A109B109C8
:1035A0008093A2039093A303A093A403B093A503D5
:1035B0008091B3039091B403A091B503B091B60389
:1035C0000097A105B10599F08091B3039091B403E0
:1035D000A091B503B091B6030197A109B1098093F9
:1035E000B3039093B403A093B503B093B6031092C2
:1035F000A6030E94832780918003882311F00E94F4
:103600006E0C80918403882321F40E9405260E9479
:10361000BD2080910A018295869586958370817080
:10362000982F81E08927817081708295880F880F9B
:10363000807C90910A019F7B892B80930A01809165
:10364000090190910A010E941B276CCFDF93CF9351
:103650000F92CDB7DEB72091610230916202809166
:10366000890390918A032817390709F041C0809196
:10367000610290916202FC0184818E5F0E94000FC2
:103680000E942A0F209161023091620280916102B2
:1036900090916202FC018481882F90E0880F991F2D
:1036A000820F931F0596FC0180819181FC0182812C
:1036B00093810E94A00F0E94340F809109038E5FB6
:1036C0000E94000F209161023091620280910903F3
:1036D000882F90E0880F991F820F931F0596FC0199
:1036E00080819181FC01828193810E94A00F69C039
:1036F0000E94490E80E00E94000F8091610290912B
:103700006202FC01828193810E94A00F198255C040
:1037100020916102309162028981882F90E0880FA8
:10372000991F820F931F0596FC018081918100975C
:1037300009F43FC08091610290916202FC01948182
:1037400089819817E9F40E942A0F89818E5F0E946F
:10375000000F20916102309162028981882F90E0F0
:10376000880F991F820F931F0596FC01808191811C
:10377000FC01828193810E94A00F0E94340F1AC025
:1037800089818E5F0E94000F209161023091620258
:103790008981882F90E0880F991F820F931F0596CB
:1037A000FC0180819181FC01828193810E94A00FA4
:1037B00001C0000089818F5F89838981853008F489
:1037C000A7CF809161029091620290938A038093C7
:1037D00089038091610290916202FC01848180934F
:1037E00009030F90CF91DF910895DF93CF930F924C
:1037F000CDB7DEB780918803882321F082E00E9454
:10380000061D25C08091610290916202FC01248115
:103810002F5FFC012483FC01848189832091610254
:10382000309162028981882F90E0880F991F820F62
:10383000931F0596FC0180819181009731F480915E
:10384000610290916202FC0114820E94261B0F907B
:10385000CF91DF910895DF93CF9300D0CDB7DEB73E
:1038600080918803882321F081E00E94061D44C0D6
:103870008091610290916202FC0184818A838A8135
:103880000E94EA2B8A81882369F5198227C020913A
:103890006102309162028981882F90E0880F991F20
:1038A000820F931F0596FC0180819181009799F406
:1038B000809161029091620229812150FC01248350
:1038C0008091610290916202FC0184810E94EA2B46
:1038D0000E94261B11C089818F5F89838981853071
:1038E000B0F20AC080916102909162022A81215057
:1038F000FC0124830E94261B0F900F90CF91DF9133
:103900000895DF93CF93CDB7DEB7809188038823E6
:1039100021F084E00E94061D31C0809161029091E7
:103920006202FC0180819181009771F080916102B7
:1039300090916202FC018081918190936202809358
:1039400061020E94261B1AC089E292E090936202F3
:103950008093610210928A0310928903109284036B
:103960000E94490E0E94BD2021E935E280919D030D
:10397000882F90E0F90109950E940526CF91DF91EB
:103980000895DF93CF930F92CDB7DEB78091880370
:10399000882321F083E00E94061D34C080916102DB
:1039A00090916202FC0184818983209161023091AF
:1039B00062028981882F90E0880F991F820F931FE0
:1039C0000596FC0180819181FC018581968100979B
:1039D000B1F020916102309162028981882F90E0DC
:1039E000880F991F820F931F0596FC01808191819A
:1039F00090936202809361020E94261B03C080E0C4
:103A00000E94061D0F90CF91DF910895EF92FF92D3
:103A10000F931F93DF93CF930F92CDB7DEB78983B8
:103A200010928A0310928903809161029091620240
:103A300022E08035920709F049C28981843099F4E7
:103A4000109285031092880389E292E090936202BB
:103A50008093610210928A03109289030E94490E9A
:103A600010928403DAC280918803882F90E082301C
:103A7000910509F496C0833091053CF4009791F0CC
:103A80008130910509F43FC0C8C28430910509F422
:103A900055C1843091050CF4FCC08530910509F4C2
:103AA000A1C1BBC281E0809384030E94490E80E0E3
:103AB0000E94000F83E692E00E94A00F81E00E9426
:103AC000000F89E792E00E94A00F86E00E94000F9D
:103AD0008AE892E00E94A00F87E00E94000F82EA2D
:103AE00092E00E94A00F80E063E048E20E947C0E1A
:103AF0000E9498290E94DF2981E08093880381E059
:103B0000809385038AC280E063E048E20E947C0ED5
:103B10000E9498290E94DF298981833009F076C2AA
:103B20008091400390914103CC01A0E0B0E0BC0142
:103B3000CD010E944F2DDC01CB0180938B0390932C
:103B40008C03A0938D03B0938E030E9498299093C9
:103B50008703809386030E94490E80E00E94000F35
:103B600083E692E00E94A00F86E00E94000F8BEA9D
:103B700092E00E94A00F87E00E94000F83EC92E089
:103B80000E94A00F80E063E048E20E947C0E8091DA
:103B90008603909187030E94DF2982E08093880347
:103BA0003CC28981882F90E082309105E1F083301A
:103BB000910571F18130910509F02AC28091860347
:103BC000909187030196909387038093860380E00A
:103BD00063E048E20E947C0E809186039091870307
:103BE0000E94DF2955C08091860390918703019739
:103BF000909387038093860380E063E048E20E940D
:103C00007C0E80918603909187030E94DF2940C03B
:103C10008091860390918703CC01A0E0B0E0BC01C5
:103C2000CD010E944F2DDC01CB0180938F03909337
:103C30009003A0939103B09392030E94490E80E0F9
:103C40000E94000F83E692E00E94A00F81E00E9494
:103C5000000F86ED92E00E94A00F86E00E94000F08
:103C60008AE892E00E94A00F87E00E94000F82EA9B
:103C700092E00E94A00F80E063E048E20E947C0E88
:103C80000E9498290E94DF2983E080938803000026
:103C9000C4C180E063E048E20E947C0E0E94982943
:103CA0000E94DF298981833009F0B4C180914003EB
:103CB00090914103CC01A0E0B0E0BC01CD010E9495
:103CC0004F2DDC01CB018093930390939403A09339
:103CD0009503B09396030E9498299093870380934D
:103CE00086030E94490E80E00E94000F83E692E066
:103CF0000E94A00F81E00E94000F86ED92E00E94DA
:103D0000A00F86E00E94000F8BEA92E00E94A00FB5
:103D100087E00E94000F83EC92E00E94A00F80E0F9
:103D200063E048E20E947C0E8091860390918703B5
:103D30000E94DF2984E0809388036FC18981882FE6
:103D400090E082309105E1F08330910571F181308E
:103D5000910509F061C180918603909187030196D6
:103D6000909387038093860380E063E048E20E949B
:103D70007C0E80918603909187030E94DF2930C0DA
:103D80008091860390918703019790938703809396
:103D9000860380E063E048E20E947C0E8091860307
:103DA000909187030E94DF291BC080918603909128
:103DB0008703CC01A0E0B0E0BC01CD010E944F2DF3
:103DC000DC01CB018093970390939803A093990310
:103DD000B0939A030E94490E85E080938803000007
:103DE00000001BC18091970390919803A0919903C3
:103DF000B0919A0320918F033091900340919103E9
:103E000050919203BC01CD010E94522CDC01CB01E8
:103E10007C018D018091930390919403A09195036F
:103E2000B091960320918B0330918C0340918D03C8
:103E300050918E03BC01CD010E94522CDC01CB01BC
:103E40009C01AD01C801B7010E94BB2CDC01CB0174
:103E50008093460390934703A0934803B09349038C
:103E6000E0908F03F09090030091910310919203E2
:103E70008091460390914703A0914803B091490374
:103E800020918B0330918C0340918D0350918E03D0
:103E9000BC01CD010E94052EDC01CB019C01AD01CE
:103EA000C801B7010E94522CDC01CB018093420370
:103EB00090934303A0934403B09345030E940A0CDC
:103EC0000E944B0C84E00E94061DA7C080916102F5
:103ED00090916202E2E08C309E0719F588E398E049
:103EE000ABE0B0E08093D0009093D100A093D200DB
:103EF000B093D3001092840389E292E0909362021F
:103F0000809361020E94490E0E94BD2021E935E2A2
:103F100080919D03882F90E0F90109950E94052664
:103F20007CC08091610290916202F1E0893C9F0720
:103F300009F073C08091610290916202FC0184815A
:103F40008823D9F41092840310927A0389E292E0D4
:103F500090936202809361020E94D70B0E94490EE7
:103F60000E94BD2021E935E280919D03882F90E0D9
:103F7000F90109950E94052623C080916102909164
:103F80006202FC0184818130D9F481E080937A035C
:103F90001092840389E292E090936202809361021E
:103FA0000E94D70B0E94490E0E94BD2021E935E2F4
:103FB00080919D03882F90E0F90109950E940526C4
:103FC00080917300813089F480E063E041E20E94D7
:103FD0007C0E81E30E943D0F80E064E04EE10E9490
:103FE0007C0E80E20E943D0F18C080E063E041E259
:103FF0000E947C0E80E20E943D0F80E064E04EE172
:104000000E947C0E82E30E943D0F07C0000005C0A5
:10401000000003C0000001C000000F90CF91DF91AD
:104020001F910F91FF90EF900895DF93CF9300D0F1
:1040300000D0CDB7DEB79C838B838B819C8120E140
:104040003EE0B9010E94932E9B01C90189838981B9
:10405000482F50E020E13EE0429FC001439F900D79
:10406000529F900D11242B813C81A901481B590BB3
:10407000CA019C838B838B819C812CE330E0B90146
:104080000E94932E9B01C9018A8389818823B9F4F8
:104090008981282F30E000D000D08DB79EB70196DF
:1040A00048EE52E0FC0151834083FC0133832283BC
:1040B0000E94C6110F900F900F900F9016C089812B
:1040C000282F30E000D000D08DB79EB701964AEE81
:1040D00052E0FC0151834083FC01338322830E9420
:1040E000C6110F900F900F900F908A81882371F462
:1040F00000D08DB79EB701962DEE32E0FC013183E2
:1041000020830E94C6110F900F9030C08A818A30A0
:10411000B8F48A81282F30E000D000D08DB79EB748
:10412000019641EF52E0FC0151834083FC0133834F
:1041300022830E94C6110F900F900F900F9016C00F
:104140008A81282F30E000D000D08DB79EB701962D
:1041500046EF52E0FC0151834083FC01338322830C
:104160000E94C6110F900F900F900F900F900F901C
:104170000F900F90CF91DF910895DF93CF93CDB73C
:10418000DEB764970FB6F894DEBF0FBECDBF80E0F8
:1041900067E04AE00E947C0E0E9498290E94DF2975
:1041A0008091D0009091D100A091D200B091D30025
:1041B00081312EE0920720E0A20720E0B20708F448
:1041C0004CC080919D03823099F48091D0009091F1
:1041D000D100A091D200B091D3000197A109B109FB
:1041E0008093D0009093D100A093D200B093D300DD
:1041F00081E067E044E10E947C0E8091D0009091C4
:10420000D100A091D200B091D30020E13EE040E087
:1042100050E0BC01CD010E94A72EDA01C90100D0F7
:1042200000D000D02DB73EB72F5F3F4F4AEF52E08E
:10423000F90151834083F90182839383A483B58379
:104240000E94C6118DB79EB706960FB6F8949EBF12
:104250000FBE8DBF0E94E50B17C081E067E044E10F
:104260000E947C0E00D08DB79EB7019622E033E00D
:10427000FC01318320830E94C6110F900F90809122
:10428000800384608093800380918500882309F0F7
:1042900012C480917300882309F0FDC180917A03D4
:1042A000813009F01EC10E943409DC01CB018D83ED
:1042B0009E83AF83B8878D819E81AF81B885893118
:1042C000F7E49F07F0E0AF07F0E0BF0740F088E1B8
:1042D00097E4A0E0B0E08D839E83AF83B8878D81A3
:1042E0009E81AF81B88584319105A105B105B0F5F6
:1042F00084E190E0A0E0B0E08D839E83AF83B88737
:1043000080E062E04DE20E947C0E8EE090E00E9430
:10431000121980E062E04CE30E947C0E80E090E0A5
:104320000E94121981E062E04CE00E947C0E8AE05B
:1043300090E00E94121981E062E040E10E947C0E50
:1043400080E090E00E94121981E062E040E20E9469
:104350007C0E82E090E00E941219DAC381E062E0F4
:104360004AE00E947C0E8AE090E00E9412198D8142
:104370009E81AF81B88520E137E240E050E0BC018A
:10438000CD010E94A72EDA01C90189838D819E810A
:10439000AF81B88520E137E240E050E0BC01CD01BB
:1043A0000E94A72EDC01CB018D839E83AF83B8874B
:1043B0008981882359F080E062E04AE20E947C0E05
:1043C0008981882F90E00E94121909C080E062E084
:1043D0004AE20E947C0E80E190E00E9412198D81D9
:1043E0009E81AF81B88528EE33E040E050E0BC010B
:1043F000CD010E94A72EDA01C90189838D819E819A
:10440000AF81B88528EE33E040E050E0BC01CD013B
:104410000E94A72EDC01CB018D839E83AF83B887DA
:1044200080E062E04AE30E947C0E8981882F90E060
:104430000E9412198D819E81AF81B88524E630E0FB
:1044400040E050E0BC01CD010E94A72EDA01C90175
:1044500089838D819E81AF81B88524E630E040E07C
:1044600050E0BC01CD010E94A72EDC01CB018D8361
:104470009E83AF83B88781E062E040E10E947C0EBA
:104480008981882F90E00E9412198D819E81AF81D1
:10449000B8852AE030E040E050E0BC01CD010E9448
:1044A000A72EDA01C90189838D819E81AF81B885EC
:1044B0002AE030E040E050E0BC01CD010E94A72E90
:1044C000DC01CB018D839E83AF83B88781E062E0FE
:1044D00040E20E947C0E8981882F90E00E94121990
:1044E00017C30E94F50ADC01CB0189879A87AB8745
:1044F000BC8789859A85AB85BC8581342CE9920778
:1045000020E0A20720E0B20770F180E062E043E320
:104510000E947C0E80E190E00E94121980E062E02F
:1045200048E20E947C0E80E190E00E94121981E036
:1045300062E040E00E947C0E8DE090E00E94121943
:1045400081E062E040E10E947C0E84E090E00E9405
:10455000121981E062E040E20E947C0E80E090E06F
:104560000E941219D5C289859A85AB85BC8520E148
:1045700037E240E050E0BC01CD010E94A72EDA01F5
:10458000C9018A8389859A85AB85BC8520E137E29C
:1045900040E050E0BC01CD010E94A72EDC01CB0120
:1045A00089879A87AB87BC878A81882359F080E006
:1045B00062E04AE30E947C0E8A81882F90E00E948C
:1045C000121909C080E062E04AE30E947C0E80E19B
:1045D00090E00E94121989859A85AB85BC8528EEEA
:1045E00033E040E050E0BC01CD010E94A72EDA018B
:1045F000C9018A8389859A85AB85BC8528EE33E01D
:1046000040E050E0BC01CD010E94A72EDC01CB01AF
:1046100089879A87AB87BC8781E062E04AE00E9485
:104620007C0E8A81882F90E00E94121981E062E05E
:104630004AE10E947C0E8AE090E00E94121989856E
:104640009A85AB85BC8524E630E040E050E0BC01B3
:10465000CD010E94A72EDA01C9018A8389859A8536
:10466000AB85BC8524E630E040E050E0BC01CD01E4
:104670000E94A72EDC01CB0189879A87AB87BC8774
:1046800081E062E040E20E947C0E8A81882F90E007
:104690000E9412193DC280917A03813009F01EC137
:1046A0000E943409DC01CB018D879E87AF87B88BD0
:1046B0008D859E85AF85B8898937E7E39E07E0E061
:1046C000AE07E0E0BE0740F088E197E4A0E0B0E08C
:1046D0008D879E87AF87B88B8D859E85AF85B8897E
:1046E000883C9105A105B105B0F588EC90E0A0E00B
:1046F000B0E08D879E87AF87B88B80E062E04DE2A7
:104700000E947C0E80E190E00E94121980E062E03D
:104710004CE30E947C0E8EE090E00E94121981E032
:1047200062E04CE00E947C0E80E090E00E94121952
:1047300081E062E04BE10E947C0E8AE090E00E9402
:10474000121981E062E040E20E947C0E82E090E07B
:104750000E941219DDC181E062E04AE00E947C0EF5
:104760008AE090E00E9412198D859E85AF85B889F8
:1047700020E137E240E050E0BC01CD010E94A72ECD
:10478000DA01C9018B838D859E85AF85B88920E1CB
:1047900037E240E050E0BC01CD010E94A72EDC01D1
:1047A000CB018D879E87AF87B88B8B81882359F08B
:1047B00080E062E04AE20E947C0E8B81882F90E0CC
:1047C0000E94121909C080E062E04AE20E947C0E59
:1047D00080E190E00E9412198D859E85AF85B88991
:1047E00028EE33E040E050E0BC01CD010E94A72E4E
:1047F000DA01C9018B838D859E85AF85B88928EE46
:1048000033E040E050E0BC01CD010E94A72EDC0166
:10481000CB018D879E87AF87B88B80E062E04AE34B
:104820000E947C0E8B81882F90E00E9412198D854A
:104830009E85AF85B88924E630E040E050E0BC01B9
:10484000CD010E94A72EDA01C9018B838D859E853B
:10485000AF85B88924E630E040E050E0BC01CD01EE
:104860000E94A72EDC01CB018D879E87AF87B88B76
:1048700081E062E040E10E947C0E8B81882F90E015
:104880000E9412198D859E85AF85B8892AE030E097
:1048900040E050E0BC01CD010E94A72EDA01C90121
:1048A0008B838D859E85AF85B8892AE030E040E016
:1048B00050E0BC01CD010E94A72EDC01CB018D8709
:1048C0009E87AF87B88B81E062E040E20E947C0E59
:1048D0008B81882F90E00E9412191AC10E94F50A5C
:1048E000DC01CB01898B9A8BAB8BBC8B89899A8934
:1048F000AB89BC8986349105A105B10540F487E3F5
:1049000090E0A0E0B0E0898B9A8BAB8BBC8B89895F
:104910009A89AB89BC898938F3E19F07F0E0AF073A
:10492000F0E0BF0770F180E062E044E30E947C0E9B
:1049300080E190E00E94121980E062E049E20E946A
:104940007C0E80E190E00E94121981E062E041E07B
:104950000E947C0E80E190E00E94121981E062E0EA
:1049600040E10E947C0E8DE090E00E94121981E0EF
:1049700062E040E20E947C0E85E090E00E94121905
:10498000C7C080E062E04AE30E947C0E8AE090E0CB
:104990000E94121989899A89AB89BC8928EE33E073
:1049A00040E050E0BC01CD010E94A72EDA01C90110
:1049B0008C8389899A89AB89BC8928EE33E040E0F1
:1049C00050E0BC01CD010E94A72EDC01CB01898BF8
:1049D0009A8BAB8BBC8B80E062E049E20E947C0E3C
:1049E0008C81882F90E00E94121989899A89AB895D
:1049F000BC8924E630E040E050E0BC01CD010E94DB
:104A0000A72EDA01C9018C8389899A89AB89BC896F
:104A100024E630E040E050E0BC01CD010E94A72E2A
:104A2000DC01CB01898B9A8BAB8BBC8B81E062E084
:104A300040E00E947C0E8C81882F90E00E94121929
:104A400089899A89AB89BC892AE030E040E050E04E
:104A5000BC01CD010E94A72EDA01C9018C8389898E
:104A60009A89AB89BC892AE030E040E050E0BC0183
:104A7000CD010E94A72EDC01CB01898B9A8BAB8BD9
:104A8000BC8B81E062E040E10E947C0E8C81882F2B
:104A900090E00E94121989899A89AB89BC898C831C
:104AA00081E062E040E20E947C0E8C81882F90E0E1
:104AB0000E9412192DC081E062E040E20E947C0E4B
:104AC0008FE090E00E94121981E062E040E10E94D4
:104AD0007C0E8FE090E00E94121981E062E040E0DD
:104AE0000E947C0E8FE090E00E94121980E062E04C
:104AF00042E30E947C0E80E190E00E94121980E067
:104B000062E047E20E947C0E80E190E00E94121970
:104B100064960FB6F894DEBF0FBECDBFCF91DF9184
:104B20000895DF93CF930F92CDB7DEB7898380913D
:104B30008403882309F064C08981882F90E0833042
:104B40009105A9F1843091054CF481309105F9F07B
:104B50008230910524F5009791F053C0863091057D
:104B6000B1F18730910524F48430910541F149C0B9
:104B700087309105A1F188309105C9F142C080E0EC
:104B80000E94000F82E291E00E94A00F3AC080E0F4
:104B90000E94000F8CE291E00E94A00F32C080E0E2
:104BA0000E94000F88E191E00E94A00F2AC080E0DF
:104BB0000E94000F86E391E00E94A00F22C080E0D7
:104BC0000E94000F80E491E00E94A00F1AC080E0D4
:104BD0000E94000F8CE291E00E94A00F12C080E0C2
:104BE0000E94000F8CE291E00E94A00F0AC080E0BA
:104BF0000E94000F88E691E00E94A00F000001C013
:104C000000000F90CF91DF910895DF93CF93CDB740
:104C1000DEB780918403882379F50E942E1A8823B9
:104C200051F081E060E04CE00E947C0E84E591E070
:104C30000E94A00F17C080919D03863051F481E03F
:104C400060E04CE00E947C0E8AE491E00E94A00F9C
:104C500009C081E060E04CE00E947C0E8EE591E0AE
:104C60000E94A00F80917A03882319F00E94E8190E
:104C700004C00E94D91901C00000CF91DF910895AE
:104C8000DF93CF93CDB7DEB783E590E023E530E047
:104C9000F90120812967FC01208387E390E027E365
:104CA00030E0F90120812860FC0120838CE590E050
:104CB00020910A0330910B03FC012083CF91DF91F7
:104CC0000895DF93CF93CDB7DEB780910C03909119
:104CD0000D039C01285F3F4F80910E0390910F03BD
:104CE0002817390700F580919B038F5F80939B0302
:104CF00010929C0380919B03843008F440C0809103
:104D00000A0390910B03019690930B0380930A037F
:104D100010929B038CE590E020910A0330910B03E5
:104D2000FC0120832CC080910C0390910D039C0109
:104D30002850304080910E0390910F038217930703
:104D4000F0F410929B0380919C038F5F80939C03EF
:104D500080919C03843098F080910A0390910B031A
:104D6000019790930B0380930A0310929C038CE5A8
:104D700090E020910A0330910B03FC012083CF9136
:104D8000DF910895DF93CF93CDB7DEB781E390E055
:104D900021E330E0F9012081206EFC01208380E0D6
:104DA00090E00E941B27CF91DF910895DF93CF936E
:104DB000CDB7DEB782E390E022E330E0F901208155
:104DC0002064FC01208382E390E022E330E0F901DB
:104DD00020812F7BFC012083CF91DF9108951F93C9
:104DE000DF93CF9300D0CDB7DEB782E390E022E32C
:104DF00030E0F90120812068FC01208381E0898373
:104E00008981182F1A95F1F7198382E390E022E344
:104E100030E0F90120812F77FC01208381E08A8333
:104E20008A81182F1A95F1F71A830F900F90CF915E
:104E3000DF911F910895DF93CF9300D00F92CDB7EC
:104E4000DEB79B838A83198222C08A819B81992342
:104E500054F482E390E022E330E0F9012081206203
:104E6000FC01208309C082E390E022E330E0F901F5
:104E700020812F7DFC0120830E94D6268A819B8180
:104E8000880F991F9B838A8389818F5F898389819A
:104E90008031D8F20E94EF260F900F900F90CF91A3
:104EA000DF910895DF93CF93CDB7DEB780910901ED
:104EB0008F7D8093090180910A018F7780930A0189
:104EC000809109018F7E80930901809109018F7B78
:104ED00080930901809109018F7780930901CF9117
:104EE000DF910895DF93CF93CDB7DEB70E94490ECF
:104EF00010929D0380919D03882F90E00E94912540
:104F0000CF91DF910895DF93CF93CDB7DEB7809136
:104F10009D03882F90E08430910509F408C1853005
:104F200091053CF481309105C9F08230910589F1F9
:104F300001C18730910509F489C0883091052CF4AE
:104F40008630910509F467C0F5C08830910509F4F1
:104F5000B1C08930910509F4BFC0ECC00E942E1A7F
:104F6000882329F482E080939D030E949D280E945B
:104F70003A1A882339F00E94960884E090E00E9453
:104F80009125D8C00E94FC0881E090E00E94912504
:104F9000D1C00E942E1A8823A9F08091120390910B
:104FA0001303CC01A0E0B0E08093A2039093A3038D
:104FB000A093A403B093A50389E080939D030E946E
:104FC0009D2809C00E94221A882329F086E0809338
:104FD0009D030E949D288091B3039091B403A091FA
:104FE000B503B091B6030097A105B10511F40E9475
:104FF000C60C0E943A1A882339F00E94960884E071
:1050000090E00E94912596C00E94FC0882E090E00A
:105010000E9491258FC00E94221A882329F482E0E1
:1050200080939D030E949D280E943A1A882339F09C
:105030000E94960884E090E00E9491257BC00E9427
:10504000FC0886E090E00E94912574C00E942E1A10
:10505000882391F48091A2039091A303A091A403CB
:10506000B091A5030097A105B10591F482E080936A
:105070009D030E949D280CC08AE090E0A0E0B0E073
:105080008093A2039093A303A093A403B093A503DA
:105090000E943A1A882339F00E94960884E090E032
:1050A0000E94912547C00E94FC0887E090E00E9482
:1050B000912540C08091B9039091BA03A091BB03A0
:1050C000B091BC030097A105B10599F581E08093EB
:1050D0009D030E949D282EC08091A2039091A3035E
:1050E000A091A403B091A5030097A105B10569F4AF
:1050F0000E942E1A882321F087E080939D0303C02D
:1051000082E080939D030E949D280E943A1A882382
:1051100039F00E94960884E090E00E9491250AC030
:105120000E94FC0882E090E00E94912503C00000EC
:1051300001C00000CF91DF910895DF93CF93CDB7E9
:10514000DEB780919D03882F90E08430910509F4AB
:1051500081C0853091054CF48130910501F1823098
:105160009105B1F1009791F0B7C08730910509F42E
:105170008DC0883091052CF48630910509F478C0F3
:10518000ABC08830910509F48AC0A6C00E9452279E
:1051900080919D03882F90E00E9491259DC01092E0
:1051A000B9031092BA031092BB031092BC03109281
:1051B000A2031092A3031092A4031092A50380915E
:1051C0009D03882F90E00E9491250E94522784C061
:1051D0000E942E1A882331F087E080939D030E945D
:1051E0009D287AC00E94221A882331F086E080939D
:1051F0009D030E949D2870C00E94FC080E945227B7
:105200008091090180618093090180910901806288
:105210008093090180910901806480930901809144
:10522000090188608093090180919D03882F90E097
:105230000E9491258091100390911103CC01A0E070
:10524000B0E08093B3039093B403A093B503B093FD
:10525000B60342C00E94960880910A01806880933C
:105260000A0180919D03882F90E00E94912534C00F
:105270000E945227809109018061809309018091E9
:105280009D03882F90E00E94912526C00E945227FE
:1052900080919D03882F90E00E9491251DC00E945F
:1052A0005227809109018F778093090180919D0396
:1052B000882F90E00E9491258091B7039091B803C8
:1052C000CC01A0E0B0E08093B9039093BA03A0931F
:1052D000BB03B093BC030000CF91DF910895DF932F
:1052E000CF9300D0CDB7DEB79A83898389819A8125
:1052F000FC01808191810F900F90CF91DF910895F3
:10530000DF93CF9300D000D0CDB7DEB79A838983E7
:105310007C836B8389819A812B813C81FC01318361
:1053200020830F900F900F900F90CF91DF910895F1
:10533000DF93CF9300D0CDB7DEB78091400390913B
:105340004103CC01A0E0B0E0BC01CD010E944F2D93
:10535000DC01CB0120914603309147034091480383
:1053600050914903BC01CD010E94052EDC01CB0107
:1053700020914203309143034091440350914503EF
:10538000BC01CD010E94532CDC01CB01BC01CD013D
:105390000E94232DDC01CB019A83898389819A8124
:1053A00022E08F3E920720F08AEF90E09A83898373
:1053B00089819A810F900F90CF91DF910895DF93AB
:1053C000CF93CDB7DEB727970FB6F894DEBF0FBEE9
:1053D000CDBF9F838E838E819F81CC01A0E0B0E002
:1053E0002DB73EB72A5030400FB6F8943EBF0FBEDF
:1053F0002DBF2DB73EB72F5F3F4FAE014F5F5F4FC1
:10540000F9015183408345E050E0F9015383428321
:105410004AE453E0F90155834483F9018683978375
:10542000A087B1870E94292F2DB73EB7265F3F4F37
:105430000FB6F8943EBF0FBE2DBF8E819F8184367C
:10544000910580F18981682F70E08A81482F50E0B2
:105450008B81282F30E08DB79EB708970FB6F89450
:105460009EBF0FBE8DBF8DB79EB70196EEE4F3E0F1
:10547000DC01ED93FC93FC0173836283DC011596E0
:105480005C934E931497FC01378326830E94C611C8
:105490002DB73EB7285F3F4F0FB6F8943EBF0FBE03
:1054A0002DBF3FC08E819F818A30910520F1898177
:1054B000482F50E08A81282F30E000D000D000D063
:1054C0008DB79EB701966BE573E0DC016D937C931D
:1054D000FC0153834283DC0115963C932E93149771
:1054E0000E94C611EDB7FEB736960FB6F894FEBF10
:1054F0000FBEEDBF16C08981282F30E000D000D04C
:105500008DB79EB7019647E653E0DC014D935C935F
:10551000FC01338322830E94C6110F900F900F90DD
:105520000F9027960FB6F894DEBF0FBECDBFCF9178
:10553000DF9108950F931F93DF93CF93CDB7DEB71D
:105540002A970FB6F894DEBF0FBECDBF0E949829F0
:105550009A83898389819A8121E0853F920720F08F
:1055600084EF91E09A83898389819A81009711F46D
:105570001A82198289819A8122E330E0B9010E945E
:10558000932E9B01C9018B8389819A8122E330E0AC
:10559000B9010E94932E8C838B81882F90E0880F15
:1055A000991F880F991F8C5E9C4FFC01808191810F
:1055B000A281B3819C018B81882F90E00196880F96
:1055C000991F880F991F8C5E9C4FFC0180819181EF
:1055D000A281B381A901481B590BCA019E838D8307
:1055E0008B81882F90E0880F991F880F991F8C5E00
:1055F0009C4FFC0100811181228133818D819E812C
:1056000042E350E0BA010E94932EAB01BA018C81B3
:10561000482F50E0649FC001659F900D749F900DCE
:105620001124CC01A0E0B0E0B901A801481B590B3E
:105630006A0B7B0BDB01CA018F839887A987BA8726
:105640008F819885A985BA85BC01CD012A960FB6B0
:10565000F894DEBF0FBECDBFCF91DF911F910F91A8
:105660000895DF93CF93CDB7DEB785E490E025E4CE
:1056700030E0F90120812F60FC01208383E490E079
:1056800023E430E0F90120812D67FC01208389E5C6
:1056900090E029E530E0F90120812068FC012083B9
:1056A000CF91DF9108951F920F920FB60F921124A0
:1056B0008F939F93AF93BF93DF93CF93CDB7DEB715
:1056C0008091A7038D3709F044C081E08093A60341
:1056D00080919E0390919F03A091A003B091A1039C
:1056E0000097A105B10599F080919E0390919F03C9
:1056F000A091A003B091A1030197A109B1098093E2
:105700009E0390939F03A093A003B093A103809165
:10571000A2039091A303A091A403B091A5030097C5
:10572000A105B10599F08091A2039091A303A091E6
:10573000A403B091A5030197A109B1098093A20325
:105740009093A303A093A403B093A5031092A7037F
:1057500005C08091A7038F5F8093A703CF91DF914E
:10576000BF91AF919F918F910F900FBE0F901F909F
:105770001895DF93CF93CDB7DEB780E490E0FC01BE
:10578000108289E290E027E6FC0120838AE290E023
:105790002AE230E0F90120812861FC0120838AE2BD
:1057A00090E02AE230E0F90120812068FC012083AA
:1057B00080E490E020E430E0F90120812668FC01DB
:1057C000208383E19CE260E070E00E94C92ECF91CB
:1057D000DF910895DF93CF930F92CDB7DEB7898322
:1057E00000008BE290E0FC018081882F90E08072C5
:1057F00090700097B1F38CE290E02981FC01208346
:105800000F90CF91DF910895DF93CF93CDB7DEB79F
:105810008BE290E0FC0180818CE290E0FC018081D1
:10582000CF91DF910895DF93CF9300D00F92CDB742
:10583000DEB789837B836A8300008BE290E0FC0102
:105840008081882F90E0807290700097B1F38CE295
:1058500090E02981FC01208380E090E00F900F9080
:105860000F90CF91DF9108951F920F920FB60F9274
:1058700011248F939F93EF93FF93DF93CF93CDB733
:10588000DEB78CE290E0FC01808180930B01CF9128
:10589000DF91FF91EF919F918F910F900FBE0F902D
:1058A0001F9018955058BB27AA270ED070C161D100
:1058B00030F066D120F031F49F3F11F41EF456C150
:1058C0000EF4E095E7FB4CC1E92F72D180F3BA17D3
:1058D000620773078407950718F071F49EF58AC173
:1058E0000EF4E0950B2EBA2FA02D0B01B9019001FB
:1058F0000C01CA01A0011124FF27591B99F0593F3F
:1059000050F4503E68F11A16F040A22F232F342F86
:105910004427585FF3CF469537952795A795F040D4
:105920005395C9F77EF41F16BA0B620B730B840BE9
:10593000BAF09150A1F0FF0FBB1F661F771F881FA1
:10594000C2F70EC0BA0F621F731F841F48F48795F9
:1059500077956795B795F7959E3F08F0B3CF9395E8
:10596000880F08F09927EE0F979587950895D4D062
:1059700008F481E008950CD00AC102D140F0F9D0BA
:1059800030F021F45F3F19F0EBC0511134C1EEC08B
:105990000FD198F39923C9F35523B1F3951B550BF8
:1059A000BB27AA2762177307840738F09F5F5F4FF2
:1059B000220F331F441FAA1FA9F333D00E2E3AF033
:1059C000E0E830D091505040E695001CCAF729D04D
:1059D000FE2F27D0660F771F881FBB1F261737079C
:1059E0004807AB07B0E809F0BB0B802DBF01FF27CC
:1059F00093585F4F2AF09E3F510568F0B1C0FBC03D
:105A00005F3FECF3983EDCF3869577956795B79505
:105A1000F7959F5FC9F7880F911D9695879597F920
:105A20000895E1E0660F771F881FBB1F6217730799
:105A30008407BA0720F0621B730B840BBA0BEE1FAE
:105A400088F7E0950895BCD088F09F5790F0B92F63
:105A50009927B751A0F0D1F0660F771F881F991FC3
:105A60001AF0BA95C9F712C0B13081F0C3D0B1E0D5
:105A70000895C0C0672F782F8827B85F39F0B93FE5
:105A8000CCF3869577956795B395D9F73EF49095C5
:105A90008095709561957F4F8F4F9F4F0895E89443
:105AA00009C097FB3EF490958095709561957F4F66
:105AB0008F4F9F4F9923A9F0F92F96E9BB27939514
:105AC000F695879577956795B795F111F8CFFAF424
:105AD000BB0F11F460FF1BC06F5F7F4F8F4F9F4F55
