:100000000C9486030C940A080C9450070C94A303D8
:100010000C9478260C94A3030C94A3030C94A303D0
:100020000C94A3030C943B070C94A3030C94A3031C
:100030000C94A3030C9459270C94A3030C94A303CE
:100040000C94E9030C94A3030C94A3030C94A30352
:100050000C94A3030000C0E0F0F838181838F8F04A
:10006000E0C0000000FFFFFFFF000000000000FFF5
:10007000FFFFFF0000071F3F7FF8E0C0C0E0F87FF0
:100080003F1F0700000000808080C0E0F8F8F8F80B
:10009000000000000000000101010101FFFFFFFF5F
:1000A000000000000000000000000000FFFFFFFF54
:1000B000000000000080E0F0F0783818181878F898
:1000C000F0E0C00000010101010080C0C0E0F87F45
:1000D0003F1F0F00C0F0F8FCFEDFCFC7C3C1C0C098
:1000E000C0C0C00000C0E0F0F83818181838F8F0A8
:1000F000E0C0000000000000000030303078FFFF5A
:10010000EFC78000000C3C7C7CF0E0C0C0E0F07FDA
:100110007F3F0F0000000000000000C0E0F8F8F88A
:10012000F80000000080E0F07C3E0F0701FFFFFFB9
:10013000FF000000070707070606060606FFFFFF89
:10014000FF0606060000F8F8F8F81818181818182E
:100150001800000000003F3F3F1F1C0C0C1C3CF827
:10016000F8F0C000000C3C7C7CF0E0C0C0E0F07F08
:100170007F3F0F0000C0E0F0F83818181838F8F08A
:10018000E0C0000000FFFFFFFF381C0C0C1C3CFC13
:10019000F8F0C00000071F3F7FF8E0C0C0E0F07F2C
:1001A0007F3F0F0000181818181818181818D8F8DA
:1001B000F8F8380000000000000000C0F8FEFF3F23
:1001C0000F0100000000000080F0FEFF7F0F010023
:1001D000000000000000C0F0F0F838181838F8F0FF
:1001E000F0C00000000083CFFFFF7C78787CFFFF29
:1001F000CF830000001F3F7F7FF0E0C0C0E0F07FB2
:100200007F3F1F000080E0F0F07838181838F8F0D1
:10021000E0C00000000F3F7FFFF0E0C0C0E070FFD3
:10022000FFFFFF0000183878F8E0C0C0E0F0FC7F66
:100230003F1F03000000000000000000000000005D
:1002400000000000000000000000000000000000AE
:100250000000000000000000000000E0E0E0E0001E
:100260000000000000000000000000F0F81818185E
:100270003830000000FE2020103E003173636363BD
:100280007F3E00000002728A8A8A0202FA0AFA0A93
:10029000FA0200000000F0204020F000E0301010D2
:1002A00030E0000000000700000017A045A7100084
:1002B000070500000000788484840100FC04F90430
:1002C000F800000000000000C0E0C0800000000056
:1002D0000000000000000000000103078FDEFCF8B2
:1002E0007020000000000000183C1E0F07030100F2
:1002F000000000000000000000000000000080C0BE
:10030000E0C00000000000002070F8FCDE8F070352
:1003100001000000000000000000000103070F1EA4
:100320003C18000000000000000000000000000079
:1003300000000000000000383838383838383838C5
:10034000383800000000000000000000000000003D
:10035000000000000000000000000000000000009D
:10036000000000000000000000000000000000008D
:10037000000000000000000000000000000000007D
:1003800000000000FFFFFFFFFF00FFFFFFFFFFFF78
:1003900000FFFFFFFFFFFF00FFFFFFFFFFFF00FF6A
:1003A000FFFFFFFFFF00FFFFFFFFFFFF00FFFFFF5B
:1003B000FFFFFF00FFFFFFFFFFFF00FFFFFFFFFF4B
:1003C000FF00FFFFFFFFFFFF00FFFFFFFFFFFF003A
:1003D000FFFFFFFFFFFF00FFFFFFFFFFFF00FFFF2B
:1003E000FFFFFFFF00FFFFFFFFFFFF00FFFFFFFF1B
:1003F000FFFF00FFFFFFFFFFFF00FFFFFFFFFFFF0B
:1004000000FFFFFFFFFFFF00FFFFFFFFFFFF00FFF9
:10041000FFFFFFFFFF00FFFFFFFFFFFF00FFFFFFEA
:10042000FFFFFF00FFFFFFFFFFFF00FFFFFFFFFFDA
:10043000FF00FFFFFFFFFFFF00FFFFFFFFFFFF00C9
:10044000FFFFFFFFFFFF00FFFFFFFFFFFF00FFFFBA
:10045000FFFFFFFF00FFFFFFFFFFFF00FFFFFFFFAA
:10046000FFFF00FF0000000000FFFF00004F000042
:1004700000FF000700070000FF147F147F1400FF37
:10048000242A7F2A1200FF231308646200FF3649E2
:1004900055222000FF000503000000FF001C224140
:1004A0000000FF0041221C0000FF14083E08140059
:1004B000FF08083E080800FF503000000000FF0859
:1004C0000808080800FF006060000000FF20100816
:1004D000040200FF3E5149453E00FF40427F40403C
:1004E00000FF426151494600FF2141454B3100FF69
:1004F0001814127F1000FF274545453900FF3C4A7C
:1005000049493000FF017109050300FF3649494997
:100510003600FF064949291E00FF0036360000005C
:10052000FF005636000000FF081422410000FF14AF
:100530001414141400FF004122140800FF0201519A
:10054000090600FF000002050200FF7E1111117E66
:1005500000FF7F4949493600FF3E4141412200FFEB
:100560007F4141221C00FF7F4949494100FF7F092B
:1005700009090100FF3E4149497A00FF7F08080848
:100580007F00FF00417F410000FF2040413F01000C
:10059000FF7F0814224100FF7F4040404000FF7F62
:1005A000020C027F00FF7F0408107F00FF3E4141E4
:1005B000413E00FF7F0909090600FF3E4151215ECF
:1005C00000FF7F0919294600FF264949493200FFEB
:1005D00001017F010100FF3F4040403F00FF1F201D
:1005E00040201F00FF3F4038403F00FF63140814C5
:1005F0006300FF070870080700FF61514945430089
:10060000FF007F41410000FF020408102000FF00AE
:1006100041417F0000FF040201020400FF4040400E
:10062000404000FF000003050000FF2054545478B0
:1006300000FF7F4444443800FF384444444400FFF2
:10064000384444447F00FF385454541800FF0404D5
:100650007E050500FF085454543C00FF7F08040445
:100660007800FF00447D4000FFFF2040443D00FF34
:10067000FF7F10284400FFFF417F4000FFFFFF7C09
:10068000047C047800FF7C0804047800FF384444AC
:10069000443800FF7C1414140800FF081414147C60
:1006A00000FF7C08040400FFFF485454542400FF5A
:1006B00004043F444400FF3C4040207C00FF1C20D9
:1006C00040201C00FF3C4030403C00FF44281028E4
:1006D0004400FF0C5050503C00FF4464544C440014
:1006E000FF083641410000FF000077000000FF00D6
:1006F0004141360800FF08082A1C0800FF081C2A90
:10070000080800FFFFFFFFFFFF00FF0011241FBECE
:10071000CFE5D8E0DEBFCDBF14E0A0E6B0E0E8E072
:10072000FEE502C005900D92A635B107D9F714E099
:10073000A6E5B4E001C01D92AE38B107E1F70E9412
:1007400035180C94022F0C940000DF93CF93CDB793
:10075000DEB7F89481E0CF91DF910895DF93CF93D6
:1007600000D0CDB7DEB79A8389838FE590E02981E9
:100770003A81F9012081FC0120830F900F90CF91E5
:10078000DF910895DF93CF93CDB7DEB786E290E097
:1007900026E230E0F90120812760FC01208387E216
:1007A00090E020E4FC01208386E290E026E230E045
:1007B000F90120812868FC01208386E290E026E28E
:1007C00030E0F90120812064FC012083CF91DF918A
:1007D00008951F920F920FB60F921124EF92FF927D
:1007E0000F931F932F933F934F935F936F937F9339
:1007F0008F939F93AF93BF93EF93FF93DF93CF9329
:1008000000D000D0CDB7DEB78FE590E0FC0180814D
:100810008C830E94A5038B8313C084E290E0FC01CB
:100820008081282F30E085E290E0FC018081882FD4
:1008300090E0982F8827822B932B9A8389831B82A1
:100840008B81882351F7CE0104960E94AE038091DC
:10085000350490913604CC01A0E0B0E0BC01CD019C
:100860000E947428DC01CB01BC01CD0126E636E6EE
:1008700046E65FE30E942A29DC01CB017C018D0161
:1008800089819A81CC01A0E0B0E0BC01CD010E9439
:100890007428DC01CB01BC01CD012DEC3CEC4CEC0F
:1008A0005DE30E942A29DC01CB019C01AD01C80156
:1008B000B7010E947827DC01CB01BC01CD010E9469
:1008C0004828DC01CB01909336048093350486E2FE
:1008D00090E026E230E0F90120812064FC012083D1
:1008E0002496DEBFCDBFCF91DF91FF91EF91BF91F5
:1008F000AF919F918F917F916F915F914F913F91B8
:100900002F911F910F91FF90EF900F900FBE0F90BE
:100910001F9018950F931F93DF93CF93CDB7DEB73A
:1009200060970FB6F894DEBF0FBECDBF85E390E0B1
:10093000FC0180818F8784E390E0FC018081888BBB
:1009400087E390E027E330E0F90120812E7FFC016E
:10095000208388E390E028E330E0F90120812E7FB6
:10096000FC01208384E390E0FC01108285E390E0A9
:100970002FEFFC01208387E390E027E330E0F901CB
:1009800020812160FC01208388E390E028E330E0AF
:10099000F90120812E7FFC01208380E090E0A0E817
:1009A000BFE389839A83AB83BC8369817A818B811E
:1009B0009C8120E030E04AE755E40E942A29DC01CE
:1009C000CB018D839E83AF83B88711E06D817E81DB
:1009D0008F81988520E030E040E85FE30E94DC27CB
:1009E00088230CF010E0112329F081E090E09A8731
:1009F000898746C011E06D817E818F81988520E0D6
:100A00003FEF4FE757E40E94262918160CF010E03C
:100A1000112361F169817A818B819C8120E030E032
:100A200040E251E40E942A29DC01CB01BC01CD0146
:100A30000E944828DC01CB019A87898712C080E98F
:100A400091E09C878B878B859C858C01C8010197E1
:100A5000F1F78C011C870B8789859A8501979A8706
:100A6000898789859A85009751F717C06D817E81A6
:100A70008F8198850E944828DC01CB019A8789875D
:100A800089859A859E878D878D859E858C01F80145
:100A90003197F1F78F011E870D8783E390E0FC010A
:100AA0008081809580936F0485E390E02F85FC0121
:100AB000208384E390E02889FC01208380916F04E7
:100AC00060960FB6F894DEBF0FBECDBFCF91DF9119
:100AD0001F910F910895DF93CF9300D00F92CDB760
:100AE000DEB79A8389836B8389819A81FC01918126
:100AF0008B819817D1F089819A81FC0180818230A5
:100B0000A0F089819A812B81FC01218389819A81BE
:100B1000FC01108289819A81FC018181882341F145
:100B200089819A81FC01818124C089819A81FC019B
:100B300091818B81981789F089819A81FC0180814C
:100B4000823058F489819A81FC018081282F2F5F9F
:100B500089819A81FC0120830BC089819A81FC01E3
:100B600091818B81981721F489819A81FC011082EF
:100B700080E00F900F900F90CF91DF910895DF9359
:100B8000CF930F92CDB7DEB719820E948A0480936B
:100B90006F0420916F0486E594E0622F0E946B053C
:100BA00089838981882F90E08430910509F491C070
:100BB0008530910564F48130910509F4C5C0823017
:100BC000910509F4A4C0009709F4DCC0C4C08031C9
:100BD0009105B9F1813191052CF48830910509F422
:100BE00053C0B9C080329105B9F08034910509F045
:100BF000B2C080916404882331F481E0809364045E
:100C00000E949323C8C0109264040E94932380E63C
:100C100090E00E94422ABFC080915F04882309F0BF
:100C2000B3C080916404843031F481E08093640423
:100C30000E949323B0C084E0809364040E949323B5
:100C4000AAC08981282F30E000D000D08DB79EB790
:100C5000019647E650E0FC0151834083FC01338359
:100C600022830E942D2A0F900F900F900F90809159
:100C70005F04882319F00E94191A8DC081E08093C7
:100C80005F040E940C1987C08091F800882351F0FE
:100C900087E892E0909399028093980280E090E038
:100CA0000E94911A8981282F30E000D000D08DB7A2
:100CB0009EB7019640E750E0FC0151834083FC0160
:100CC000338322830E942D2A0F900F900F900F9054
:100CD00062C08981282F30E000D000D08DB79EB748
:100CE000019649E750E0FC0151834083FC013383C6
:100CF00022830E942D2A0F900F900F900F908091C9
:100D00005F04882309F442C00E947E1944C089818F
:100D1000282F30E000D000D08DB79EB7019642E872
:100D200050E0FC0151834083FC01338322830E9405
:100D30002D2A0F900F900F900F9080915F048823C1
:100D400039F10E944A1A27C080915F04882311F16B
:100D50000E94C21920C08981282F30E000D000D025
:100D60008DB79EB701964BE850E0FC01518340835C
:100D7000FC01338322830E942D2A0F900F900F9045
:100D80000F9009C0000007C0000005C0000003C0AC
:100D9000000001C000000F90CF91DF910895DF9314
:100DA000CF93CDB7DEB7F89481E0CF91DF9108956E
:100DB000DF93CF9300D0CDB7DEB79A8389838FE5D9
:100DC00090E029813A81F9012081FC0120830F9074
:100DD0000F90CF91DF910895DF93CF93CDB7DEB71A
:100DE00010925904109258048091A400882399F419
:100DF0008BE590E02BE530E0F90120812064FC01D7
:100E000020838BE590E02BE530E0F90120812F77FE
:100E1000FC01208312C08BE590E02BE530E0F90166
:100E200020812068FC0120838BE590E02BE530E0F9
:100E3000F90120812F7BFC01208385E590E025E5E9
:100E400030E0F90120812A60FC0120838FE490E0EA
:100E5000FC0110828EE490E025E0FC01208389E50E
:100E600090E029E530E0F90120812460FC01208335
:100E7000CF91DF9108951F920F920FB60F92112418
:100E80008F93DF93CF93CDB7DEB781E08093B5002A
:100E9000CF91DF918F910F900FBE0F901F901895FB
:100EA0001F920F920FB60F921124EF92FF920F93A1
:100EB0001F932F933F934F935F936F937F938F93E2
:100EC0009F93AF93BF93EF93FF93DF93CF9300D0A4
:100ED000CDB7DEB78FE590E0FC0180818A830E9468
:100EE000CF0689836BC08CE490E0FC018081918106
:100EF00090937104809370048CE490E0FC01118263
:100F000010828091700490917104893C910508F4DD
:100F100045C08091700490917104CC01A0E0B0E0D4
:100F2000BC01CD010E947428DC01CB01BC01CD01C4
:100F30002DEC3CEC4CEC5DE30E942A29DC01CB015A
:100F40007C018D018091A5009091A600CC01A0E0CC
:100F5000B0E0BC01CD010E947428DC01CB01BC01D2
:100F6000CD0126E636E646E65FE30E942A29DC014B
:100F7000CB019C01AD01C801B7010E947827DC01BB
:100F8000CB01BC01CD010E944828DC01CB0190932C
:100F9000A6008093A50010925A040FC080915A04B5
:100FA0008F5F80935A0480915A04853630F01092F6
:100FB0005A041092A6001092A500198289818823F4
:100FC00009F091CFCE0102960E94D8061092B5008A
:100FD0008AE590E02AE530E0F90120812068FC01F3
:100FE00020830F900F90CF91DF91FF91EF91BF91F0
:100FF000AF919F918F917F916F915F914F913F91B1
:101000002F911F910F91FF90EF900F900FBE0F90B7
:101010001F9018951F920F920FB60F921124EF9206
:10102000FF920F931F932F933F934F935F936F9371
:101030007F938F939F93AF93BF93EF93FF93DF9330
:10104000CF9300D0CDB7DEB78FE590E0FC01808173
:101050008A830E94CF0689836BC08CE490E0FC01F8
:101060008081918190937104809370048CE490E06E
:10107000FC01118210828091700490917104893C6E
:10108000910508F445C08091A7009091A800CC017B
:10109000A0E0B0E0BC01CD010E947428DC01CB01CE
:1010A000BC01CD0120E030E040E05FE30E942A294E
:1010B000DC01CB017C018D01809170049091710461
:1010C000CC01A0E0B0E0BC01CD010E947428DC019D
:1010D000CB01BC01CD0120E030E040E05FE30E94A5
:1010E0002A29DC01CB019C01AD01C801B7010E9496
:1010F0007827DC01CB01BC01CD010E944828DC012E
:10110000CB019093A8008093A70010925A040FC0BF
:1011100080915A048F5F80935A0480915A048536D7
:1011200030F010925A041092A8001092A700198271
:101130008981882309F091CFCE0102960E94D806BA
:101140001092B5008AE590E02AE530E0F9012081AF
:101150002064FC0120830F900F90CF91DF91FF91CD
:10116000EF91BF91AF919F918F917F916F915F911F
:101170004F913F912F911F910F91FF90EF900F9002
:101180000FBE0F901F901895DF93CF93CDB7DEB7AA
:101190008BE590E02BE530E0F90120812F7BFC010D
:1011A000208381E090E0A0E0B0E08093A9009093DC
:1011B000AA00A093AB00B093AC0081E08093A400A0
:1011C0008BE590E02BE530E0F90120812068FC01FF
:1011D0002083CF91DF910895DF93CF93CDB7DEB712
:1011E0008BE590E02BE530E0F90120812F77FC01C1
:1011F000208381E090E0A0E0B0E08093A90090938C
:10120000AA00A093AB00B093AC001092A4008BE5B1
:1012100090E02BE530E0F90120812064FC0120837F
:10122000CF91DF910895EF92FF920F931F93DF9379
:10123000CF93CDB7DEB728970FB6F894DEBF0FBEB9
:10124000CDBF80E090E0DC0189839A83AB83BC83CF
:101250008091A400813071F58091A5009091A60045
:10126000CC01A0E0B0E0BC01CD010E947428DC01FB
:10127000CB01209198003091990040919A005091B3
:101280009B00BC01CD010E942A29DC01CB012091E9
:101290009400309195004091960050919700BC01C8
:1012A000CD010E947827DC01CB0189839A83AB832F
:1012B000BC832DC08091A7009091A800CC01A0E034
:1012C000B0E0BC01CD010E947428DC01CB0120916B
:1012D000A0003091A1004091A2005091A300BC0158
:1012E000CD010E942A29DC01CB0120919C00309184
:1012F0009D0040919E0050919F00BC01CD010E9435
:101300007827DC01CB0189839A83AB83BC83698115
:101310007A818B819C8120E038E04EE856E40E947F
:101320002A29DC01CB017C018D010E94BF25DC0153
:10133000CB01BC01CD010E9474289B01AC01C80106
:10134000B7010E94E027DC01CB01BC01CD010E9466
:101350004828DC01CB018D839E83AF83B8878D81C4
:101360009E81AF81B885BC01CD0128960FB6F89457
:10137000DEBF0FBECDBFCF91DF911F910F91FF90C8
:10138000EF900895DF93CF9300D000D0CDB7DEB7B4
:101390000E941309DC01CB01BC01CD010E9474281D
:1013A000DC01CB0189839A83AB83BC8329813A8199
:1013B0004B815C8160E074E284E799E40E94E0275D
:1013C000DC01CB0189839A83AB83BC8389819A81B9
:1013D000AB81BC81BC01CD010E944828DC01CB015E
:1013E000BC01CD010F900F900F900F90CF91DF9126
:1013F0000895DF93CF93CDB7DEB780E090E00E94F1
:101400009D2C21E08230920709F066C08FEB90E0BE
:101410000E94422A82E090E00E948F2C8093B600C6
:1014200087E090E00E94972CDC01CB018093370489
:1014300090933804A0933904B0933A048BE090E081
:101440000E94972CDC01CB0180933B0490933C04D9
:10145000A0933D04B0933E0483E090E00E949D2C55
:10146000CC01A0E0B0E02CE330E040E050E0BC0173
:10147000CD010E948D29DC01CB018093B7009093B0
:10148000B800A093B900B093BA0085E090E00E9444
:101490008F2C482F50E02CE330E0429FC001439F47
:1014A000900D529F900D11249093BC008093BB002F
:1014B00086E090E00E948F2C482F50E02CE330E033
:1014C000429FC001439F900D529F900D1124909315
:1014D000BE008093BD0006C08CEC90E00E94422AC2
:1014E0000E94750ACF91DF910895DF93CF93CDB716
:1014F000DEB780E090E062E071E00E94B82C82E00C
:1015000090E060E00E94A32C8091B7009091B80019
:10151000A091B900B091BA002CE330E040E050E077
:10152000BC01CD010E94C029DA01C9019C0183E000
:1015300090E0B9010E94B82C87E090E040E050E0D4
:10154000BA010E94B02C8BE090E040E050E060E4F3
:101550007FE30E94B02C8091BD009091BE002CE3EF
:1015600030E0B9010E94AC299B01C901282F85E018
:1015700090E0622F0E94A32C8091BB009091BC0050
:101580002CE330E0B9010E94AC299B01C901282F4E
:1015900086E090E0622F0E94A32CCF91DF91089506
:1015A000DF93CF93CDB7DEB72091B60082E090E015
:1015B000622F0E94A32CCF91DF910895DF93CF93E8
:1015C00000D0CDB7DEB78091B7009091B800A09160
:1015D000B900B091BA002CE330E040E050E0BC012B
:1015E000CD010E94C029DA01C9019A83898383E071
:1015F00090E029813A81B9010E94B82C0F900F9098
:10160000CF91DF910895DF93CF93CDB7DEB72091CF
:101610003704309138044091390450913A0487E0FE
:1016200090E0BA01A9010E94B02C20913B043091B6
:101630003C0440913D0450913E048BE090E0BA019F
:10164000A9010E94B02CCF91DF910895DF93CF9331
:10165000CDB7DEB78091BB009091BC002CE330E0A9
:10166000B9010E94AC299B01C901282F85E090E0B7
:10167000622F0E94A32CCF91DF910895DF93CF9327
:10168000CDB7DEB78091BD009091BE002CE330E075
:10169000B9010E94AC299B01C901282F86E090E086
:1016A000622F0E94A32CCF91DF910895DF93CF93F7
:1016B000CDB7DEB785E090E00E948F2C482F50E038
:1016C0002CE330E0429FC001439F900D529F900D4C
:1016D00011249093BC008093BB00CF91DF910895BB
:1016E000DF93CF93CDB7DEB786E090E00E948F2CDA
:1016F000482F50E02CE330E0429FC001439F900D03
:10170000529F900D11249093BE008093BD00CF9105
:10171000DF910895DF93CF930F92CDB7DEB780911D
:101720005C0490915D04019690935D0480935C0449
:1017300080915C0490915D0486309105A4F18091C4
:101740005E04898380915B04882339F18981282F85
:1017500030E081E090E0022E02C0880F991F0A94C9
:10176000E2F70097D1F08981282F30E000D000D037
:101770008DB79EB701964AED50E0FC01518340833E
:10178000FC01338322830E942D2A0F900F900F902B
:101790000F90898180935E0402C010925E0489815B
:1017A0008F5F8983CFCF0F90CF91DF910895DF9323
:1017B000CF9300D000D0CDB7DEB70E941309DC0173
:1017C000CB0189839A83AB83BC8389819A81AB8166
:1017D000BC81803D27E0920720E0A20720E0B2070D
:1017E00078F48091A400813031F480915B048260B0
:1017F00080935B0405C080915B04816080935B04EF
:101800000F900F900F900F90CF91DF9108950F934D
:101810001F93DF93CF93CDB7DEB72E970FB6F89413
:10182000DEBF0FBECDBF8AE390E02AE330E0F901CE
:101830002081206FFC01208384E390E0FC01808103
:1018400084E390E02FEFFC01208387E390E027E31F
:1018500030E0F90120812260FC0120830E9467179B
:101860008FE30E9418130E944E178FE30E941813F3
:1018700080E090E0A0E2B1E489839A83AB83BC83EB
:1018800069817A818B819C8120E030E04AE753E4D2
:101890000E942A29DC01CB018D839E83AF83B88708
:1018A00011E06D817E818F81988520E030E040E8F5
:1018B0005FE30E94DC2788230CF010E0112329F05D
:1018C00081E090E09A87898746C011E06D817E8132
:1018D0008F81988520E03FEF4FE757E40E9426294B
:1018E00018160CF010E0112361F169817A818B8167
:1018F0009C8120E030E040E251E40E942A29DC0192
:10190000CB01BC01CD010E944828DC01CB019A87A4
:10191000898712C089E190E09C878B878B859C85A5
:101920008C01C8010197F1F78C011C870B87898511
:101930009A8501979A87898789859A85009751F7B3
:1019400017C06D817E818F8198850E944828DC01B7
:10195000CB019A87898789859A859E878D878D8512
:101960009E858C01F8013197F1F78F011E870D8755
:101970000E94671780EC0E9418130E944E1780EC9B
:101980000E9418130E94D60C83E00E948D0D83EEF6
:1019900090E00E942D0E2E960FB6F894DEBF0FBE7B
:1019A000CDBFCF91DF911F910F910895DF93CF931A
:1019B00000D00F92CDB7DEB7809175048B83109263
:1019C0007504198217C089810E948D0D1A820CC07E
:1019D0008A81803419F481E00E94670D80E00E94C2
:1019E00030148A818F5F8A838A8188238CF789816A
:1019F0008F5F89838981883030F38B818093750470
:101A000080E00E948D0D0F900F900F90CF91DF918D
:101A10000895DF93CF9300D00F92CDB7DEB78983BF
:101A20006A834B838981882319F08981813009F584
:101A30008A818830F0F48B818034D8F489818823BE
:101A400019F40E94671702C00E944E178981809383
:101A500072048A81886B809373048B818064809385
:101A60007404809174040E941813809173040E947E
:101A700018130F900F900F90CF91DF910895DF937F
:101A8000CF9300D000D000D0CDB7DEB79A83898342
:101A90007C836B835E834D832091720489819A815C
:101AA000FC012083209173048B819C81FC012083A5
:101AB000209174048D819E81FC01208326960FB6AF
:101AC000F894DEBF0FBECDBFCF91DF910895DF93B5
:101AD000CF930F92CDB7DEB789838981882319F020
:101AE00089818130B1F48981882319F40E946717B4
:101AF00002C00E944E1789818093720480E4809313
:101B00007404809173040E941813809174040E94DD
:101B100018130F90CF91DF910895DF93CF930F9219
:101B2000CDB7DEB789838981883038F489818854BC
:101B30008093730480E00E94670D0F90CF91DF9136
:101B40000895DF93CF93CDB7DEB7809173048F5F95
:101B50008093730480917304803C18F088EB809329
:101B6000730480E00E94670DCF91DF910895DF93A9
:101B7000CF93CDB7DEB78FEF80937504CF91DF9110
:101B80000895DF93CF93CDB7DEB710927504CF9150
:101B9000DF9108951F93DF93CF93CDB7DEB72797DB
:101BA0000FB6F894DEBF0FBECDBF8F838091720455
:101BB000813021F4809174048C3718F48F818A303D
:101BC00011F40E94A10D8F818A3009F43CC024E8F1
:101BD00033E08F81882F90E0AC01440F551F440FF4
:101BE000551F440F551FBA01681B790BCB01820F9B
:101BF000931F9A83898380917204882339F480919A
:101C00007404803819F481E00E94670D89819A81FB
:101C10009C838B8389819A8101969A8389838B81A6
:101C20009C81FC0114911D838D818E838E818F3F59
:101C300049F08E810E943014809174048F5F8093EC
:101C40007404D9CF000027960FB6F894DEBF0FBEFC
:101C5000CDBFCF91DF911F910895DF93CF9300D037
:101C6000CDB7DEB79A8389830CC089819A81FC0144
:101C7000208189819A8101969A838983822F0E948B
:101C8000CA0D89819A81FC018081882371F70F90A8
:101C90000F90CF91DF9108950F931F93DF93CF9310
:101CA000CDB7DEB760970FB6F894DEBF0FBECDBFDD
:101CB0006C877D878E879F87488B19828C859D8551
:101CC000AE85BF850097A105B105C1F419820DC08D
:101CD0008981882F90E09E012E5F3F4F820F931FD6
:101CE000FC01108289818F5F898399818889981787
:101CF00008F061C089818A3058F35DC0198244C000
:101D00008C859D85AE85BF850097A105B10549F1FC
:101D10008981082F10E08C859D85AE85BF852AE0DE
:101D200030E040E050E0BC01CD010E94C029DC0160
:101D3000CB01282FCE010296800F911FFC0120833A
:101D40008C859D85AE85BF852AE030E040E050E07F
:101D5000BC01CD010E94C0292C873D874E875F873B
:101D600010C088898F3F39F188898B3020F58981AF
:101D7000882F90E09E012E5F3F4F820F931FFC0142
:101D8000108289818F5F898399818889981708F4E7
:101D9000B7CF11C08981882F90E001979E012E5FF7
:101DA0003F4F820F931FFC018081805D0E94CA0D0E
:101DB0008981815089838981882361F760960FB674
:101DC000F894DEBF0FBECDBFCF91DF911F910F9171
:101DD0000895DF93CF93CDB7DEB760970FB6F89431
:101DE000DEBF0FBECDBF6C877D878E879F87488BF8
:101DF00019828C859D85AE85BF850097A105B105AB
:101E0000C1F419820DC08981882F90E09E012E5F58
:101E10003F4F820F931FFC01108289818F5F89835E
:101E200099818889981708F072C089818A3058F39F
:101E30006EC019823BC08C859D85AE85BF8500979D
:101E4000A105B105F1F08981882F90E02C85422F02
:101E50004F709E012E5F3F4F820F931FFC01408306
:101E60008C859D85AE85BF85689413F8B695A7953A
:101E7000979587951694D1F78C879D87AE87BF87F6
:101E800012C088898F3F09F442C088898B3008F0DE
:101E90003EC08981882F90E09E012E5F3F4F820FC8
:101EA000931FFC01108289818F5F898399818889C2
:101EB000981708F4C0CF2BC08981882F90E0019734
:101EC0009E012E5F3F4F820F931FFC0180818A305D
:101ED00068F08981882F90E001979E012E5F3F4F27
:101EE000820F931FFC018081895C0CC08981882F3F
:101EF00090E001979E012E5F3F4F820F931FFC01E0
:101F00008081805D0E94CA0D898181508983898189
:101F1000882391F660960FB6F894DEBF0FBECDBF52
:101F2000CF91DF910895DF93CF9300D000D000D000
:101F3000CDB7DEB76A837B838C839D834E8328C0B5
:101F40008E81882F90E09C012150304081E090E00C
:101F500002C0880F991F2A95E2F79C01442737FD9C
:101F60004095542F8A819B81AC81BD81822393232C
:101F7000A423B52321E00097A105B10509F420E0D1
:101F800029838981805D0E94CA0D8E8181508E8354
:101F90008E818823A9F626960FB6F894DEBF0FBE71
:101FA000CDBFCF91DF910895DF93CF93CDB7DEB74B
:101FB00028970FB6F894DEBF0FBECDBF6D837E832A
:101FC0008F8398876D817E818F8198850E944828B4
:101FD000DC01CB0189839A83AB83BC8389819A819D
:101FE000AB81BC81BC01CD014FEF0E944C0E8EE253
:101FF0000E94CA0D69817A818B819C810E9474281C
:102000009B01AC016D817E818F8198850E9477272D
:10201000DC01CB018D839E83AF83B8876D817E8188
:102020008F81988520E034E244E759E40E942A2910
:10203000DC01CB01BC01CD010E944828DC01CB01B1
:1020400089839A83AB83BC8389819A81AB81BC816C
:10205000BC01CD014FEF0E944C0E28960FB6F894AC
:10206000DEBF0FBECDBFCF91DF910895DF93CF9339
:10207000CDB7DEB768970FB6F894DEBF0FBECDBF01
:10208000CE014F96988F8F8B8D8D9E8D9A838983ED
:10209000BEC189819A81FC018081898789858532C9
:1020A00009F0ADC189819A8101969A8389838981DA
:1020B0009A81FC01808189878985803300F1898537
:1020C0008A33E8F41A8614C08A85880F982F990FEE
:1020D000990F980F8985890F80538A8789819A8102
:1020E00001969A83898389819A81FC0180818987FD
:1020F0008985803338F089858A3330F304C08FEFC7
:102100008A8701C000008985882F90E08835910575
:1021100009F4F1C08935910504F58434910509F479
:1021200070C08534910564F48234910509F419C1B5
:10213000833491058CF58532910509F45CC162C147
:102140008335910509F445C18535910509F4A2C08F
:102150008634910509F424C155C18636910509F4E8
:102160001FC1873691055CF483369105A9F084364A
:10217000910509F18236910509F4D7C043C185372D
:10218000910509F470C08837910509F49DC0833723
:10219000910509F41EC136C18F89988D9C012E5F6F
:1021A0003F4F388F2F8BFC018081918189878985F2
:1021B0000E94CA0D27C18F89988D9C012E5F3F4FC9
:1021C000388F2F8BFC01808191819C838B838B8145
:1021D0009C81992354F48B819C81909581959F4F8C
:1021E0009C838B838DE20E94CA0D8B819C81AA27E0
:1021F00097FDA095BA2FBC01CD014A850E944C0ED7
:1022000001C18F89988D9C012C5F3F4F388F2F8B98
:10221000FC0180819181A281B3818D839E83AF83F4
:10222000B8878D819E81AF81B885BB2394F48D8161
:102230009E81AF81B885B095A095909581959F4F6F
:10224000AF4FBF4F8D839E83AF83B8878DE20E94CF
:10225000CA0D8D819E81AF81B885BC01CD014A85B3
:102260000E944C0ECFC08F89988D9C012E5F3F4FEE
:10227000388F2F8BFC01808191819C878B878B8588
:102280009C85CC01A0E0B0E0BC01CD014A850E9454
:102290004C0EB8C08F89988D9C012C5F3F4F388FB2
:1022A0002F8BFC0180819181A281B3818D879E87D4
:1022B000AF87B88B8D859E85AF85B889BC01CD0170
:1022C0004A850E944C0E9EC08F89988D9C012E5F7E
:1022D0003F4F388F2F8BFC01808191819C878B87AA
:1022E0008B859C85CC01A0E0B0E0BC01CD014A8586
:1022F0000E94E90E87C08F89988D9C012C5F3F4F0B
:10230000388F2F8BFC0180819181A281B3818D87D1
:102310009E87AF87B88B8D859E85AF85B889BC01B8
:10232000CD014A850E94E90E6DC08F89988D9C0170
:102330002E5F3F4F388F2F8BFC01808191819C87CE
:102340008B878A858F3F11F480E18A878B859C85F6
:10235000CC01A0E0B0E0BC01CD014A850E94930F02
:1023600051C08F89988D9C012C5F3F4F388F2F8BE8
:10237000FC0180819181A281B3818D879E87AF8787
:10238000B88B8A858F3F11F480E18A878D859E8581
:10239000AF85B889BC01CD014A850E94930F32C038
:1023A0008F89988D9C012C5F3F4F388F2F8BFC01BC
:1023B00080819181A281B381898B9A8BAB8BBC8BFD
:1023C00089899A89AB89BC89BC01CD010E94D40F4F
:1023D00019C08F89988D9C012E5F3F4F388F2F8BAE
:1023E000FC01808191819E8B8D8B8D899E890E94BD
:1023F0002D0E000007C085E20E94CA0D03C089852A
:102400000E94CA0D89819A8101969A838983898164
:102410009A81FC018081882309F03BCE68960FB633
:10242000F894DEBF0FBECDBFCF91DF910895DF934B
:10243000CF9300D0CDB7DEB7198216C089810E9434
:102440008D0D1A820BC08A81803411F40E944E17C0
:1024500080E00E9430148A818F5F8A838A8188237A
:1024600094F789818F5F89838981883038F380E090
:102470000E948D0D0F900F90CF91DF910895DF9303
:10248000CF93CDB7DEB729970FB6F894DEBF0FBE56
:10249000CDBF888769878885843008F06FC08985BB
:1024A000853608F06BC088858295880F807E8B8387
:1024B0008B81803410F41D8205C081E08D838B8177
:1024C00080548B838B81982F985F8D8160E0492F9A
:1024D0000E94090D8985882F90E0A0E0B0E0BC0142
:1024E000CD0143E00E944C0E8985869589878985B8
:1024F0008695869586958E8397E08E81292F281B59
:10250000822F8F8381E0898336C08B81982F945FDF
:102510008D816981492F0E94090D99818F819817BA
:1025200010F41C821AC099818F819817A1F48985B3
:1025300087708C838C81882F90E028E030E0281B06
:10254000390B8FEF90E0022E02C0880F991F0A947A
:10255000E2F78C8302C08FEF8C831A8206C08C81D5
:102560000E9430148A818F5F8A838A818C30B8F30D
:1025700089818F5F89838981883038F229960FB6E7
:10258000F894DEBF0FBECDBFCF91DF910895DF93EA
:10259000CF9300D000D0CDB7DEB78B836C838B8117
:1025A000880F8F5F8A838B818430D8F58C81853644
:1025B000C0F580E06A8140E00E94090D19820CC0DC
:1025C0008981803419F481E00E94670D8FEF0E94A9
:1025D000301489818F5F898399818C81981780F36A
:1025E0008C8189830CC08981803419F481E00E9438
:1025F000670D80E00E94301489818F5F8983898113
:10260000843688F381E06A814EE60E94090D8C8150
:10261000882F90E0A0E0B0E0BC01CD0143E00E9433
:102620004C0E0F900F900F900F90CF91DF91089567
:102630000F931F93DF93CF93CDB7DEB769970FB694
:10264000F894DEBF0FBECDBF898F0E944B1585E386
:1026500090E0298DFC0120838BE390E02BE330E0B8
:10266000F90120812F77FC0120838BE390E02BE39D
:1026700030E0F90120812F7BFC0120838BE390E087
:102680002BE330E0F90120812062FC01208380E00F
:1026900090E0A0E0B0E489839A83AB83BC83698136
:1026A0007A818B819C812BEA3AEA4AEA5EE30E94B6
:1026B0002A29DC01CB018D839E83AF83B88711E08B
:1026C0006D817E818F81988520E030E040E85FE376
:1026D0000E94DC2788230CF010E0112319F081E020
:1026E0008987A3C011E06D817E818F81988520E06C
:1026F00030E04FE753E40E94262918160CF010E052
:10270000112309F489C069817A818B819C8120E041
:1027100030E04AE754E40E94E027DC01CB018A87DD
:102720009B87AC87BD876A857B858C859D8520E0EE
:1027300030E04AE753E40E942A29DC01CB018E876E
:102740009F87A88BB98B11E06E857F8588899989D1
:1027500020E030E040E85FE30E94DC2788230CF0B3
:1027600010E0112329F081E090E09B8B8A8B46C01A
:1027700011E06E857F858889998920E03FEF4FE7DA
:1027800057E40E94262918160CF010E0112361F17D
:102790006A857B858C859D8520E030E040E251E4B0
:1027A0000E942A29DC01CB01BC01CD010E944828EE
:1027B000DC01CB019B8B8A8B12C089E190E09D8B61
:1027C0008C8B8C899D898C01C8010197F1F78C0154
:1027D0001D8B0C8B8A899B8901979B8B8A8B8A899D
:1027E0009B89009751F728C06E857F8588899989D4
:1027F0000E944828DC01CB019B8B8A8B8A899B89AC
:102800009F8B8E8B8E899F898C01F8013197F1F710
:102810008F011F8B0E8B10C06D817E818F819885FB
:102820000E944828DC01CB0189878985888F888DA3
:10283000182F1A95F1F7188F8BE390E02BE330E017
:10284000F90120812F7DFC01208369960FB6F89451
:10285000DEBF0FBECDBFCF91DF911F910F910895C5
:102860000F931F93DF93CF93CDB7DEB769970FB662
:10287000F894DEBF0FBECDBF898F0E944B1585E354
:1028800090E030917504298D2327FC0120838BE390
:1028900090E02BE330E0F90120812068FC012083E7
:1028A0008BE390E02BE330E0F90120812F7BFC01EA
:1028B00020838BE390E02BE330E0F901208120625C
:1028C000FC01208380E090E0A0E0B0E489839A835B
:1028D000AB83BC8369817A818B819C812BEA3AEA44
:1028E0004AEA5EE30E942A29DC01CB018D839E83A4
:1028F000AF83B88711E06D817E818F81988520E05C
:1029000030E040E85FE30E94DC2788230CF010E011
:10291000112319F081E08987A3C011E06D817E81C8
:102920008F81988520E030E04FE753E40E9426290C
:1029300018160CF010E0112309F489C069817A811E
:102940008B819C8120E030E04AE754E40E94E0273C
:10295000DC01CB018A879B87AC87BD876A857B8535
:102960008C859D8520E030E04AE753E40E942A29C7
:10297000DC01CB018E879F87A88BB98B11E06E8518
:102980007F858889998920E030E040E85FE30E94F4
:10299000DC2788230CF010E0112329F081E090E07F
:1029A0009B8B8A8B46C011E06E857F8588899989CB
:1029B00020E03FEF4FE757E40E94262918160CF05D
:1029C00010E0112361F16A857B858C859D8520E06F
:1029D00030E040E251E40E942A29DC01CB01BC0135
:1029E000CD010E944828DC01CB019B8B8A8B12C051
:1029F00089E190E09D8B8C8B8C899D898C01C8012D
:102A00000197F1F78C011D8B0C8B8A899B890197AB
:102A10009B8B8A8B8A899B89009751F728C06E858A
:102A20007F85888999890E944828DC01CB019B8B8E
:102A30008A8B8A899B899F8B8E8B8E899F898C013B
:102A4000F8013197F1F78F011F8B0E8B10C06D814C
:102A50007E818F8198850E944828DC01CB0189877F
:102A60008985888F888D182F1A95F1F7188F8BE339
:102A700090E02BE330E0F90120812F7DFC012083E1
:102A800069960FB6F894DEBF0FBECDBFCF91DF9130
:102A90001F910F9108950F931F93DF93CF93CDB79D
:102AA000DEB7E1970FB6F894DEBF0FBECDBF84E36B
:102AB00090E024E330E0F90120812F77FC012083AE
:102AC0008BE390E02BE330E0F90120812F77FC01CC
:102AD00020838BE390E02BE330E0F9012081206438
:102AE000FC0120838BE390E02BE330E0F9012081AF
:102AF0002F7DFC01208380E090E0A0E0B0E48A8399
:102B00009B83AC83BD836A817B818C819D812BEA11
:102B10003AEA4AEA5EE30E942A29DC01CB018E836D
:102B20009F83A887B98711E06E817F818885998509
:102B300020E030E040E85FE30E94DC2788230CF0CF
:102B400010E0112319F081E08A87A3C011E06E81A3
:102B50007F818885998520E030E04FE753E40E942B
:102B6000262918160CF010E0112309F489C06A8197
:102B70007B818C819D8120E030E04AE754E40E9413
:102B8000E027DC01CB018B879C87AD87BE876B85F7
:102B90007C858D859E8520E030E04AE753E40E94E5
:102BA0002A29DC01CB018F87988BA98BBA8B11E086
:102BB0006F85788989899A8920E030E040E85FE371
:102BC0000E94DC2788230CF010E0112329F081E01B
:102BD00090E09C8B8B8B46C011E06F85788989894A
:102BE0009A8920E03FEF4FE757E40E942629181604
:102BF0000CF010E0112361F16B857C858D859E853D
:102C000020E030E040E251E40E942A29DC01CB01BF
:102C1000BC01CD010E944828DC01CB019C8B8B8B31
:102C200012C089E190E09E8B8D8B8D899E898C01ED
:102C3000C8010197F1F78C011E8B0D8B8B899C8944
:102C400001979C8B8B8B8B899C89009751F728C0AF
:102C50006F85788989899A890E944828DC01CB018F
:102C60009C8B8B8B8B899C89988F8F8B8F89988D70
:102C70008C01F8013197F1F78F01188F0F8B10C07D
:102C80006E817F81888599850E944828DC01CB016F
:102C90008A878A85898F898D182F1A95F1F7198F60
:102CA0008BE390E02BE330E0F90120812062FC010E
:102CB000208380E090E0A0E0B0E48A8F9B8FAC8F0F
:102CC000BD8F6A8D7B8D8C8D9D8D2BEA3AEA4AEA09
:102CD0005EE30E942A29DC01CB018E8F9F8FA8A37F
:102CE000B9A311E06E8D7F8D88A199A120E030E01D
:102CF00040E85FE30E94DC2788230CF010E01123FA
:102D000019F081E08AA3A3C011E06E8D7F8D88A1A8
:102D100099A120E030E04FE753E40E9426291816DD
:102D20000CF010E0112309F489C06A8D7B8D8C8D25
:102D30009D8D20E030E04AE754E40E94E027DC016A
:102D4000CB018BA39CA3ADA3BEA36BA17CA18DA142
:102D50009EA120E030E04AE753E40E942A29DC01EA
:102D6000CB018FA398A7A9A7BAA711E06FA178A557
:102D700089A59AA520E030E040E85FE30E94DC27C7
:102D800088230CF010E0112329F081E090E09CA74B
:102D90008BA746C011E06FA178A589A59AA520E070
:102DA0003FEF4FE757E40E94262918160CF010E079
:102DB000112361F16BA17CA18DA19EA120E030E0E7
:102DC00040E251E40E942A29DC01CB01BC01CD0183
:102DD0000E944828DC01CB019CA78BA712C089E187
:102DE00090E09EA78DA78DA59EA58C01C801019797
:102DF000F1F78C011EA70DA78BA59CA501979CA799
:102E00008BA78BA59CA5009751F728C06FA178A52B
:102E100089A59AA50E944828DC01CB019CA78BA715
:102E20008BA59CA598AB8FA78FA598A98C01F801BD
:102E30003197F1F78F0118AB0FA710C06E8D7F8D02
:102E400088A199A10E944828DC01CB018AA38AA10C
:102E500089AB89A9182F1A95F1F719AB83E390E094
:102E6000FC018081881F8827881F898389818823A6
:102E700009F038CE84E390E024E330E0F9012081CA
:102E80002068FC012083E1960FB6F894DEBF0FBEE8
:102E9000CDBFCF91DF911F910F910895DF93CF9315
:102EA000CDB7DEB78BE390E02BE330E0F901208172
:102EB0002061FC01208388E390E028E330E0F90101
:102EC00020812D7FFC012083CF91DF910895DF9336
:102ED000CF93CDB7DEB788E390E028E330E0F90187
:102EE00020812260FC0120838BE390E02BE330E023
:102EF000F90120812F7EFC012083CF91DF9108957D
:102F0000EF92FF920F931F93DF93CF93CDB7DEB76E
:102F10002B970FB6F894DEBF0FBECDBF8B87809185
:102F200074048C83809173048B831A8624E530E0CB
:102F30008B85682F70E040E350E0649FC001659F7F
:102F4000900D749F900D1124820F931F9A83898393
:102F500001C000008A858F5F8A8789819A819E835C
:102F60008D8389819A8101969A8389838D819E813F
:102F70008C01F801E590F4908F01F886EF821E83B2
:102F80000D838F819885898789850E9430148A8571
:102F9000803370F48A858F708823D9F68B818F5F98
:102FA0008B838C810E9418138B810E941813D2CFBF
:102FB00000002B960FB6F894DEBF0FBECDBFCF91A9
:102FC000DF911F910F91FF90EF900895DF93CF93C2
:102FD000CDB7DEB781E062E040E30E94090D8BE0EF
:102FE0000E948017CF91DF910895DF93CF93CDB7E3
:102FF000DEB781E062E040E30E94090D8CE00E94B0
:103000008017CF91DF910895DF93CF93CDB7DEB7CF
:1030100087E390E027E330E0F90120812F79FC017C
:10302000208388E390E028E330E0F90120812066E6
:10303000FC012083CF91DF910895DF93CF93CDB72B
:10304000DEB786E390E0FC0180818072CF91DF9152
:103050000895DF93CF93CDB7DEB786E390E0FC0110
:1030600080818074CF91DF910895DF93CF9300D05A
:10307000CDB7DEB778940E94F5210E94070C0E941C
:10308000D7210E94C2030E94DE260E94EC060E9405
:1030900056260E94A5220E94F9098091F400909181
:1030A000F5000E944E220E9404181A82198207C05D
:1030B0000E94BF0589819A8101969A8389838981BB
:1030C0009A8121E0843F920798F31092F8000CC097
:1030D0000E94BF0580916D04882331F010926D0429
:1030E00080E090E00E94911A80916004882381F72B
:1030F00001C000000E94BF0580916D048823C9F3C0
:103100008091800490918104A0918204B091830405
:103110000097A105B10599F08091800490918104F8
:10312000A0918204B09183040197A109B109809311
:10313000800490938104A0938204B09383048091CF
:10314000690490916A04A0916B04B0916C0400979B
:10315000A105B10599F08091690490916A04A0914C
:103160006B04B0916C040197A109B10980936904C3
:1031700090936A04A0936B04B0936C0480917A04DA
:1031800090917B04A0917C04B0917D040097A105EF
:10319000B10599F080917A0490917B04A0917C0410
:1031A000B0917D040197A109B10980937A049093AD
:1031B0007B04A0937C04B0937D0410926D040E9464
:1031C000B22280915B04882311F00E948A0B8091C7
:1031D0005F04882321F40E949B210E94911E80910C
:1031E000F50082958695869583708170982F81E091
:1031F0008927817081708295880F880F807C9091DB
:10320000F5009F7B892B8093F5008091F4009091CD
:10321000F5000E944E226ECFDF93CF930F92CDB771
:10322000DEB70E94D60C80E00E948D0D809198023E
:1032300090919902FC01828193810E942D0E198246
:1032400055C020919802309199028981882F90E091
:10325000880F991F820F931F0596FC018081918131
:10326000009709F43FC08091980290919902FC0167
:10327000948189819817E9F40E94B70D89818E5F46
:103280000E948D0D20919802309199028981882F9A
:1032900090E0880F991F820F931F0596FC01808193
:1032A0009181FC01828193810E942D0E0E94C10DAB
:1032B0001AC089818E5F0E948D0D209198023091F5
:1032C00099028981882F90E0880F991F820F931FA0
:1032D0000596FC0180819181FC01828193810E948D
:1032E0002D0E01C0000089818F5F8983898185301F
:1032F00008F4A7CF0F90CF91DF910895DF93CF937C
:103300000F92CDB7DEB780916304882329F082E065
:1033100090E00E94911A32C0809198029091990297
:10332000FC0124812F5FFC012483FC0184818983BB
:1033300020919802309199028981882F90E0880F1E
:10334000991F820F931F0596FC0180819181009740
:1033500031F48091980290919902FC01148200D07E
:103360008DB79EB701962AE932E0FC0131832083B4
:103370000E942D2A0F900F900E940C190F90CF9150
:10338000DF910895DF93CF9300D0CDB7DEB7809162
:103390006304882329F081E090E00E94911A44C0E0
:1033A0008091980290919902FC0184818A838A819C
:1033B0000E940F278A81882369F5198227C02091EE
:1033C0009802309199028981882F90E0880F991F87
:1033D000820F931F0596FC0180819181009799F4DB
:1033E000809198029091990229812150FC012483B7
:1033F0008091980290919902FC0184810E940F278C
:103400000E940C1911C089818F5F89838981853061
:10341000B0F20AC080919802909199022A812150BD
:10342000FC0124830E940C190F900F90CF91DF9123
:103430000895DF93CF93CDB7DEB7809163048823DF
:1034400029F084E090E00E94911A21C080919802B6
:1034500090919902FC0180819181009771F0809197
:10346000980290919902FC01808191819093990238
:10347000809398020E940C190AC010925F040E9467
:10348000D60C0E94911E0E9430210E949B21CF9158
:10349000DF910895DF93CF930F92CDB7DEB7809180
:1034A0006304882329F083E090E00E94911A35C0DC
:1034B0008091980290919902FC01848189832091E6
:1034C0009802309199028981882F90E0880F991F86
:1034D000820F931F0596FC0180819181FC018581FB
:1034E00096810097B1F020919802309199028981DC
:1034F000882F90E0880F991F820F931F0596FC017B
:103500008081918190939902809398020E940C1976
:1035100004C080E090E00E94911A0F90CF91DF915B
:103520000895EF92FF920F931F93DF93CF9300D0F4
:10353000CDB7DEB79A8389838091980290919902E2
:10354000FC012281338100D000D08DB79EB7019657
:103550004EE952E0FC0151834083FC013383228316
:103560000E942D2A0F900F900F900F90809198023B
:1035700090919902F2E087389F0709F0E7C08091A7
:103580006304882F90E08130910599F18230910594
:1035900009F46CC0009709F006C384EA92E00E9427
:1035A000422A81E080935F040E94D60C80E00E9452
:1035B0008D0D88EA92E00E942D0E86E00E948D0D0E
:1035C0008EEB92E00E942D0E87E00E948D0D86ED1D
:1035D00092E00E942D0E80E063E048E20E94090D17
:1035E0000E94D12481E08093630481E08093600491
:1035F000E7C28FED92E00E94422A80E063E048E259
:103600000E94090D0E94D12489819A8183309105FD
:1036100009F0CBC20E9494249093620480936104C9
:103620000E94D60C80E00E948D0D88EA92E00E94F4
:103630002D0E86E00E948D0D83EE92E00E942D0EED
:1036400087E00E948D0D8BEF92E00E942D0E80E0AE
:1036500063E048E20E94090D809161049091620448
:103660000E94492582E080936304AAC289819A81DD
:1036700082309105E1F08330910579F18130910537
:1036800009F095C280916104909162040196909333
:1036900062048093610480E063E048E20E94090DC7
:1036A00080916104909162040E94492589C28091B1
:1036B0006104909162040197909362048093610485
:1036C00080E063E048E20E94090D809161049091DE
:1036D00062040E944925000073C2E0903704F09014
:1036E00038040091390410913A040E9494249C01FA
:1036F0008091610490916204A901481B590BCA0191
:10370000CC01A0E0B0E0BC01CD010E9474289B0177
:10371000AC01C801B7010E947727DC01CB0180937F
:10372000370490933804A0933904B0933A0410926C
:10373000630410925F041092600480E692E090931C
:103740009902809398020E94D60C3AC28091980206
:103750009091990252E08334950709F580E99AE047
:10376000ABE0B0E08093B7009093B800A093B900AD
:10377000B093BA0010925F0480E692E090939902B1
:10378000809398020E94D60C0E94911E0E943021C4
:103790000E949B218EE093E00E94422A11C28091F8
:1037A000980290919902E2E080309E07E1F58091C5
:1037B000980290919902FC0184818823A9F41092C7
:1037C0005F041092B60080E692E090939902809395
:1037D00098020E94D00A0E94D60C0E94911E0E945C
:1037E00030210E949B21ECC1809198029091990216
:1037F000FC018481813009F0E3C181E08093B6004F
:1038000010925F0480E692E0909399028093980270
:103810000E94D00A0E94D60C0E94911E0E94302164
:103820000E949B21CDC18091980290919902F2E073
:103830008B319F0709F0C4C1809198029091990241
:10384000FC018481813009F0CAC080916304882F13
:1038500090E0009729F08130910509F441C0B0C192
:103860000E94D60C80E00E948D0D8091980290916C
:103870009902FC0187819085FC01828193810E94DD
:103880002D0E86E00E948D0D83EE92E00E942D0E9B
:1038900087E00E948D0D80E293E00E942D0E81E072
:1038A00063E045E00E94090D00D08DB79EB70196F8
:1038B00025E333E0FC01318320830E9436100F9012
:1038C0000F9080E063E048E20E94090D8091BB0008
:1038D0009091BC000E94E91D81E08093630470C157
:1038E00089819A818230910581F18330910524F498
:1038F0008130910551F064C18330910509F444C0D1
:103900008430910509F456C05BC18091BB00909151
:10391000BC00F8E380349F0708F04BC18091BB00E6
:103920009091BC0006969093BC008093BB0080E011
:1039300063E048E20E94090D109257048091BB0099
:103940009091BC000E94E91D3BC18091BB00909109
:10395000BC008C33910508F42EC18091BB0090917E
:10396000BC000A979093BC008093BB0080E063E0AA
:1039700048E20E94090D109257048091BB0090917B
:10398000BC000E94E91D1CC10E943E0B1092630402
:1039900010925F0480E692E09093990280939802DF
:1039A0000E94D60C0E94911E0E9430210E949B21F1
:1039B000000006C10E94560B1092630410925F042F
:1039C00080E692E090939902809398020E94D60C30
:1039D0000E94911E0E9430210E949B21F1C0809183
:1039E000980290919902FC018481823009F0E8C02C
:1039F00080916304882F90E0009729F08130910531
:103A000009F44CC0DDC00E94D60C80E00E948D0DF0
:103A10008091980290919902FC0187819085FC0128
:103A2000828193810E942D0E86E00E948D0D83EE8F
:103A300092E00E942D0E87E00E948D0D8CE393E0B2
:103A40000E942D0E81E067E044E10E94090D809103
:103A5000BB009091BC000E94E91D81E063E045E05D
:103A60000E94090D00D08DB79EB7019625E333E083
:103A7000FC01318320830E9436100F900F9080E06C
:103A800063E048E20E94090D8091BD009091BE0064
:103A90000E94E91D81E08093630492C089819A812C
:103AA00082309105B1F18330910524F48130910584
:103AB00051F086C08330910509F44AC084309105E5
:103AC00009F45BC07DC08091BB009091BC009C015B
:103AD000265030408091BD009091BE008217930720
:103AE00008F06BC08091BD009091BE000696909347
:103AF000BE008093BD0080E063E048E20E94090DB3
:103B0000109257048091BD009091BE000E94E91D63
:103B100057C08091BD009091BE008C33910508F490
:103B20004EC08091BD009091BE000A979093BE0058
:103B30008093BD0080E063E048E20E94090D10928E
:103B400057048091BD009091BE000E94E91D38C0CD
:103B50000E94260B1092630410925F0480E692E0AC
:103B600090939902809398020E94D60C0E94911E15
:103B70000E9430210E949B2123C00E94700B109252
:103B8000630410925F0480E692E090939902809320
:103B900098020E94D60C0E94911E0E9430210E9421
:103BA0009B2100000DC000000BC0000009C00000F8
:103BB00007C0000005C0000003C0000001C00000F5
:103BC0000F900F90CF91DF911F910F91FF90EF9089
:103BD0000895DF93CF9300D000D0CDB7DEB79C839C
:103BE0008B838B819C8120E13EE0B9010E94AC294E
:103BF0009B01C90189838981482F50E020E13EE083
:103C0000429FC001439F900D529F900D11242B8124
:103C10003C81A901481B590BCA019C838B838B8172
:103C20009C812CE330E0B9010E94AC299B01C901C1
:103C30008A8389818823B9F48981282F30E000D0D4
:103C400000D08DB79EB701964AE453E0FC01518342
:103C50004083FC01338322830E9436100F900F9023
:103C60000F900F9016C08981282F30E000D000D02F
:103C70008DB79EB701964CE453E0FC01518340831D
:103C8000FC01338322830E9436100F900F900F9017
:103C90000F908A81882371F400D08DB79EB701966A
:103CA0002FE433E0FC01318320830E9436100F9013
:103CB0000F9030C08A818A30B8F48A81282F30E092
:103CC00000D000D08DB79EB7019643E553E0FC01CC
:103CD00051834083FC01338322830E9436100F906E
:103CE0000F900F900F9016C08A81282F30E000D0DF
:103CF00000D08DB79EB7019648E553E0FC01518393
:103D00004083FC01338322830E9436100F900F9072
:103D10000F900F900F900F900F900F90CF91DF9119
:103D20000895DF93CF93CDB7DEB72A970FB6F894F7
:103D3000DEBF0FBECDBF80E067E04AE00E94090D04
:103D40000E94D1248091B7009091B800A091B90051
:103D5000B091BA0081312EE0920720E0A20720E066
:103D6000B20708F448C08091B7009091B800A091C4
:103D7000B900B091BA000197A109B1098093B700C9
:103D80009093B800A093B900B093BA0081E067E0C7
:103D900044E10E94090D8091B7009091B800A09174
:103DA000B900B091BA0020E13EE040E050E0BC0133
:103DB000CD010E94C029DA01C90100D000D000D095
:103DC0002DB73EB72F5F3F4F4CE553E0F9015183CC
:103DD0004083F90182839383A483B5830E943610C4
:103DE0008DB79EB706960FB6F8949EBF0FBE8DBFD7
:103DF0000E94DE0A17C081E067E044E10E94090DDD
:103E000000D08DB79EB7019624E633E0FC013183E4
:103E100020830E9436100F900F9080915B04846085
:103E200080935B048091B500882309F0E3C1809101
:103E3000B600813009F0E9C00E941309DC01CB0112
:103E40008B839C83AD83BE838091A400813089F4F1
:103E500080E063E041E20E94090D81E30E94CA0D07
:103E600080E064E04EE10E94090D80E20E94CA0DEC
:103E700010C080E063E041E20E94090D80E20E94F0
:103E8000CA0D80E064E04EE10E94090D82E30E94C9
:103E9000CA0D8B819C81AD81BE818931F7E49F077A
:103EA000F0E0AF07F0E0BF0740F088E197E4A0E062
:103EB000B0E08B839C83AD83BE838B819C81AD817D
:103EC000BE8184369105A105B10588F484E690E0B1
:103ED000A0E0B0E08B839C83AD83BE8380E062E092
:103EE00049E20E94090D8EE090E00E94801781E077
:103EF00062E040E10E94090D8AE090E00E94801794
:103F00008B819C81AD81BE8120E137E240E050E0B1
:103F1000BC01CD010E94C029DA01C90189838B81CE
:103F20009C81AD81BE8120E137E240E050E0BC01E0
:103F3000CD010E94C029DC01CB018B839C83AD8322
:103F4000BE838981882351F080E062E044E30E94CF
:103F5000090D8981882F90E00E9480178B819C81B8
:103F6000AD81BE8128EE33E040E050E0BC01CD01E0
:103F70000E94C029DA01C90189838B819C81AD81AE
:103F8000BE8128EE33E040E050E0BC01CD010E944C
:103F9000C029DC01CB018B839C83AD83BE8381E090
:103FA00062E043E00E94090D8981882F90E00E9421
:103FB00080178B819C81AD81BE8124E630E040E09A
:103FC00050E0BC01CD010E94C029DA01C9018983FA
:103FD0008B819C81AD81BE8124E630E040E050E0E1
:103FE000BC01CD010E94C029DC01CB018B839C83E5
:103FF000AD83BE8381E062E040E20E94090D8981C9
:10400000882F90E00E94801722C10E94C209DC0123
:10401000CB018F839887A987BA878091A4008130CC
:1040200089F480E063E041E20E94090D81E30E948F
:10403000CA0D80E064E04EE10E94090D80E20E941A
:10404000CA0D10C080E063E041E20E94090D80E2E9
:104050000E94CA0D80E064E04EE10E94090D82E3F7
:104060000E94CA0D8F819885A985BA85803127E283
:10407000920720E0A20720E0B20788F08FE097E2E5
:10408000A0E0B0E08F839887A987BA8780E062E0DC
:104090004EE10E94090D8DE090E00E9480178F8113
:1040A0009885A985BA8587339105A105B10540F4A6
:1040B00087E390E0A0E0B0E08F839887A987BA8774
:1040C00080E062E044E30E94090D8AE090E00E94F3
:1040D00080178F819885A985BA8528EE33E040E066
:1040E00050E0BC01CD010E94C029DA01C9018A83D8
:1040F0008F819885A985BA8528EE33E040E050E0AD
:10410000BC01CD010E94C029DC01CB018F839887BF
:10411000A987BA8780E062E049E20E94090D8A819E
:10412000882F90E00E9480178F819885A985BA8595
:1041300024E630E040E050E0BC01CD010E94C029FF
:10414000DA01C9018A838F819885A985BA8524E619
:1041500030E040E050E0BC01CD010E94C029DC010C
:10416000CB018F839887A987BA8781E062E040E01E
:104170000E94090D8A81882F90E00E9480178F810C
:104180009885A985BA852AE030E040E050E0BC017E
:10419000CD010E94C029DA01C9018A838F819885E7
:1041A000A985BA852AE030E040E050E0BC01CD01AD
:1041B0000E94C029DC01CB018F839887A987BA8729
:1041C00081E062E040E10E94090D8A81882F90E041
:1041D0000E9480178F819885A985BA858A8381E09E
:1041E00062E040E20E94090D8A81882F90E00E94DF
:1041F00080172DC081E062E040E20E94090D8FE04F
:1042000090E00E94801781E062E040E10E94090D89
:104210008FE090E00E94801781E062E040E00E9421
:10422000090D8FE090E00E94801780E062E042E399
:104230000E94090D80E190E00E94801780E062E01A
:1042400047E20E94090D80E190E00E9480172A96C3
:104250000FB6F894DEBF0FBECDBFCF91DF910895AA
:10426000DF93CF93CDB7DEB780916404882F90E0C1
:1042700083309105A9F1843091054CF4813091058A
:10428000F9F08230910524F5009791F051C0863005
:104290009105B1F18730910524F48430910541F105
:1042A00047C087309105A1F188309105C9F140C020
:1042B00080E00E948D0D8DE091E00E942D0E38C0AF
:1042C00080E00E948D0D87E191E00E942D0E30C0AC
:1042D00080E00E948D0D83E091E00E942D0E28C0A9
:1042E00080E00E948D0D81E291E00E942D0E20C0A1
:1042F00080E00E948D0D8BE291E00E942D0E18C08F
:1043000080E00E948D0D87E191E00E942D0E10C08B
:1043100080E00E948D0D87E191E00E942D0E08C083
:1043200080E00E948D0D83E591E00E942D0E00003B
:10433000CF91DF910895DF93CF93CDB7DEB70E9481
:104340002918882351F081E060E042E10E94090DC4
:104350008FE391E00E942D0E1EC00E941D1888233D
:1043600089F080916404882369F086E08093640476
:1043700081E060E042E10E94090D85E391E00E9446
:104380002D0E09C081E060E042E10E94090D89E440
:1043900091E00E942D0E8091B600882319F00E94B2
:1043A000F51702C00E94E617CF91DF910895DF93C1
:1043B000CF93CDB7DEB783E590E023E530E0F90198
:1043C00020812967FC01208387E390E027E330E028
:1043D000F90120812860FC0120838CE590E025E92B
:1043E000FC012083CF91DF910895DF93CF93CDB768
:1043F000DEB781E390E021E330E0F9012081206E17
:10440000FC01208380E090E00E944E22CF91DF915A
:104410000895DF93CF93CDB7DEB782E390E022E338
:1044200030E0F90120812064FC01208382E390E0E8
:1044300022E330E0F90120812F7BFC012083CF9122
:10444000DF9108951F93DF93CF9300D0CDB7DEB7F0
:1044500082E390E022E330E0F90120812068FC0152
:10446000208381E089838981182F1A95F1F71983B8
:1044700082E390E022E330E0F90120812F77FC0114
:10448000208381E08A838A81182F1A95F1F71A8395
:104490000F900F90CF91DF911F910895DF93CF93ED
:1044A00000D00F92CDB7DEB79B838A83198222C0DA
:1044B0008A819B81992354F482E390E022E330E0E7
:1044C000F90120812062FC01208309C082E390E091
:1044D00022E330E0F90120812F7DFC0120830E943E
:1044E00009228A819B81880F991F9B838A838981F6
:1044F0008F5F898389818031D8F20E9422220F90B8
:104500000F900F90CF91DF910895DF93CF93CDB7A8
:10451000DEB78091F4008F7D8093F4008091F500E8
:104520008F778093F5008091F4008F7E8093F40064
:104530008091F4008F7B8093F4008091F4008F775A
:104540008093F400CF91DF910895DF93CF93CDB79F
:10455000DEB70E94D60C109264040E943021CF91E5
:10456000DF910895DF93CF93CDB7DEB780916404D8
:10457000882F90E08330910509F479C0843091054B
:104580003CF481309105A9F082309105A4F5C8C0B2
:104590008630910509F48BC0873091050CF4B5C0C5
:1045A0008730910509F495C08830910509F49BC0C6
:1045B000B7C08DE693E00E94422A0E942918009716
:1045C00031F087E0809364040E949323A9C00E9485
:1045D0001D18009751F086E893E00E94422A86E079
:1045E000809364040E9493239BC082E080936404C0
:1045F0000E94932395C080EA93E00E94422A0E9481
:104600002918009731F087E0809364040E94932377
:104610000DC00E941D18009749F089EB93E00E949D
:10462000422A86E0809364040E9493238091800450
:1046300090918104A0918204B09183040097A10518
:10464000B10529F483E0809364040E949323809150
:104650007A0490917B04A0917C04B0917D04009732
:10466000A105B10509F053C00E94D70B59C0809134
:10467000800490918104A0918204B09183040097FA
:10468000A105B10529F481E0809364040E9493237D
:1046900080917A0490917B04A0917C04B0917D0478
:1046A0000097A105B105A9F50E94D70B39C083ED8C
:1046B00093E00E94422A0E941D18009761F58DEE3A
:1046C00093E00E94422A82E0809364040E94932334
:1046D00027C00E942918009701F582E080936404A6
:1046E0000E9493231DC08091800490918104A09129
:1046F0008204B09183040097A105B10581F481E0A3
:10470000809364040E9493230BC0000009C0000042
:1047100007C0000005C0000003C0000001C0000089
:10472000CF91DF910895DF93CF93CDB7DEB780911E
:104730006404882F90E08330910509F465C08430CB
:1047400091054CF48130910501F18230910514F509
:104750000097B1F0BDC08630910509F491C0873053
:1047600091052CF48430910509F47BC0B1C08730E9
:10477000910509F48FC08830910509F490C0A8C054
:104780000E9485220E943021A3C00E9430210E94F5
:1047900085229EC02091BB003091BC008091BD005D
:1047A0009091BE00A901481B590BCA01CC01A0E0A1
:1047B000B0E08093800490938104A0938204B0932E
:1047C00083040E9485228091F40080618093F4002C
:1047D0008091F40080628093F4008091F4008860FE
:1047E0008093F4000E94302180916B0390916C03C0
:1047F000CC01A0E0B0E080937A0490937B04A09376
:104800007C04B0937D0464C00E9485228091F400F2
:1048100080648093F4008091F40081608093F400C0
:104820000E9430218091BD009091BE00CC01A0E09B
:10483000B0E08093800490938104A0938204B093AD
:10484000830480916B0390916C03CC01A0E0B0E0F5
:1048500080937A0490937B04A0937C04B0937D04AE
:1048600037C00E9485228091F40080648093F40018
:104870008091F50080688093F5000E94302128C067
:104880000E9485228091F40080618093F4000E9450
:1048900030211EC00E9485220E94302119C00E9432
:1048A00085228091F4008F778093F4000E9430215C
:1048B00080917E0490917F04CC01A0E0B0E08093D1
:1048C000800490938104A0938204B0938304000039
:1048D000CF91DF910895DF93CF9300D0CDB7DEB7AE
:1048E0009A83898389819A81FC01808191810F90CB
:1048F0000F90CF91DF910895DF93CF9300D000D038
:10490000CDB7DEB79A8389837C836B8389819A8153
:104910002B813C81FC01318320830F900F900F90FD
:104920000F90CF91DF910895DF93CF9300D0CDB753
:10493000DEB78091350490913604CC01A0E0B0E060
:10494000BC01CD010E947428DC01CB0120913B0405
:1049500030913C0440913D0450913E04BC01CD0196
:104960000E942A29DC01CB012091370430913804C0
:104970004091390450913A04BC01CD010E9478273E
:10498000DC01CB01BC01CD010E944828DC01CB0138
:104990009A83898389819A810F900F90CF91DF91BB
:1049A0000895DF93CF93CDB7DEB727970FB6F8946E
:1049B000DEBF0FBECDBF0E9494249A838983898174
:1049C0009A81CC01A0E0B0E02DB73EB72A5030402C
:1049D0000FB6F8943EBF0FBE2DBF2DB73EB72F5F69
:1049E0003F4FAE014D5F5F4FF9015183408345E07A
:1049F00050E0F901538342834FE354E0F9015583BA
:104A00004483F90186839783A087B1870E94772A20
:104A10002DB73EB7265F3F4F0FB6F8943EBF0FBE8F
:104A20002DBF8B81682F70E08C81482F50E08D81E5
:104A3000282F30E08DB79EB708970FB6F8949EBF29
:104A40000FBE8DBF8DB79EB70196E3E4F4E0DC01A5
:104A5000ED93FC93FC0173836283DC0115965C93F8
:104A60004E931497FC01378326830E9436102DB78E
:104A70003EB7285F3F4F0FB6F8943EBF0FBE2DBF25
:104A800027960FB6F894DEBF0FBECDBFCF91DF9152
:104A90000895DF93CF93CDB7DEB727970FB6F8947D
:104AA000DEBF0FBECDBF9F838E838E819F81CC01E1
:104AB000A0E0B0E02DB73EB72A5030400FB6F894D2
:104AC0003EBF0FBE2DBF2DB73EB72F5F3F4FAE018C
:104AD0004F5F5F4FF9015183408345E050E0F9019A
:104AE000538342834FE354E0F90155834483F90132
:104AF00086839783A087B1870E94772A2DB73EB718
:104B0000265F3F4F0FB6F8943EBF0FBE2DBF898181
:104B1000682F70E08A81482F50E08B81282F30E089
:104B20008DB79EB708970FB6F8949EBF0FBE8DBF86
:104B30008DB79EB70196E3E4F4E0DC01ED93FC93BE
:104B4000FC0173836283DC0115965C934E9314978A
:104B5000FC01378326830E9436102DB73EB7285FAD
:104B60003F4F0FB6F8943EBF0FBE2DBF27960FB62E
:104B7000F894DEBF0FBECDBFCF91DF9108950F93A4
:104B80001F93DF93CF93CDB7DEB72A970FB6F89474
:104B9000DEBF0FBECDBF0E9494249A838983898192
:104BA0009A8121E0853F920720F084EF91E09A837B
:104BB000898389819A81009711F41A8219828981E7
:104BC0009A8122E330E0B9010E94AC299B01C9011E
:104BD0008B8389819A8122E330E0B9010E94AC295C
:104BE0008C838B81882F90E0880F991F880F991FE5
:104BF000875F9B4FFC0180819181A281B3819C01E1
:104C00008B81882F90E00196880F991F880F991F3C
:104C1000875F9B4FFC0180819181A281B381A901B3
:104C2000481B590BCA019E838D838B81882F90E08E
:104C3000880F991F880F991F875F9B4FFC01008188
:104C40001181228133818D819E8142E350E0BA013E
:104C50000E94AC29AB01BA018C81482F50E0649FBF
:104C6000C001659F900D749F900D1124CC01A0E0B0
:104C7000B0E0B901A801481B590B6A0B7B0BDB01A3
:104C8000CA018F839887A987BA878F819885A9855C
:104C9000BA85BC01CD012A960FB6F894DEBF0FBECF
:104CA000CDBFCF91DF911F910F910895DF93CF93E7
:104CB000CDB7DEB785E490E025E430E0F90120814E
:104CC0002F60FC01208383E490E023E430E0F901CD
:104CD00020812D67FC01208389E590E029E530E003
:104CE000F90120812068FC012083CF91DF91089594
:104CF0001F920F920FB60F9211248F939F93AF9331
:104D0000BF93DF93CF93CDB7DEB780916E048D371D
:104D100009F044C081E080936D0480916504909116
:104D20006604A0916704B09168040097A105B105DD
:104D300099F08091650490916604A0916704B09108
:104D400068040197A109B1098093650490936604F2
:104D5000A0936704B09368048091690490916A04F9
:104D6000A0916B04B0916C040097A105B10599F076
:104D70008091690490916A04A0916B04B0916C04D5
:104D80000197A109B1098093690490936A04A093E3
:104D90006B04B0936C0410926E0405C080916E0495
:104DA0008F5F80936E04CF91DF91BF91AF919F9100
:104DB0008F910F900FBE0F901F901895DF93CF9398
:104DC000CDB7DEB780E490E0FC01108289E290E08C
:104DD00027E6FC0120838AE290E02AE230E0F90134
:104DE00020812861FC0120838AE290E02AE230E001
:104DF000F90120812068FC01208380E490E020E418
:104E000030E0F90120812668FC01208388E397E2E5
:104E100060E070E00E94E229CF91DF910895DF9376
:104E2000CF930F92CDB7DEB7898300008BE290E07D
:104E3000FC018081882F90E0807290700097B1F320
:104E40008CE290E02981FC0120830F90CF91DF91CB
:104E50000895DF93CF93CDB7DEB78BE290E0FC01EE
:104E600080818CE290E0FC018081CF91DF910895F8
:104E7000DF93CF9300D00F92CDB7DEB789837B83CA
:104E80006A8300008BE290E0FC018081882F90E033
:104E9000807290700097B1F38CE290E02981FC0160
:104EA000208380E090E00F900F900F90CF91DF91E2
:104EB00008951F920F920FB60F9211248F939F9314
:104EC000EF93FF93DF93CF93CDB7DEB78CE290E003
:104ED000FC0180818093F600CF91DF91FF91EF91EB
:104EE0009F918F910F900FBE0F901F901895505863
:104EF000BB27AA270ED070C161D130F066D120F057
:104F000031F49F3F11F41EF456C10EF4E095E7FB17
:104F10004CC1E92F72D180F3BA1762077307840777
:104F2000950718F071F49EF58AC10EF4E0950B2EEA
:104F3000BA2FA02D0B01B90190010C01CA01A001EB
:104F40001124FF27591B99F0593F50F4503E68F146
:104F50001A16F040A22F232F342F4427585FF3CF87
:104F6000469537952795A795F0405395C9F77EF458
:104F70001F16BA0B620B730B840BBAF09150A1F0A1
:104F8000FF0FBB1F661F771F881FC2F70EC0BA0F27
:104F9000621F731F841F48F4879577956795B795AF
:104FA000F7959E3F08F0B3CF9395880F08F09927A7
:104FB000EE0F979587950895D4D008F481E0089571
:104FC0000CD00AC102D140F0F9D030F021F45F3F9B
:104FD00019F0EBC0511134C1EEC00FD198F39923F1
:104FE000C9F35523B1F3951B550BBB27AA276217AD
:104FF0007307840738F09F5F5F4F220F331F441FF2
:10500000AA1FA9F333D00E2E3AF0E0E830D0915029
:105010005040E695001CCAF729D0FE2F27D0660F16
:10502000771F881FBB1F261737074807AB07B0E855
:1050300009F0BB0B802DBF01FF2793585F4F2AF06B
:105040009E3F510568F0B1C0FBC05F3FECF3983E56
:10505000DCF3869577956795B795F7959F5FC9F7C8
:10506000880F911D9695879597F90895E1E0660F51
:10507000771F881FBB1F621773078407BA0720F0CA
:10508000621B730B840BBA0BEE1F88F7E095089533
:10509000BCD088F09F5790F0B92F9927B751A0F056
:1050A000D1F0660F771F881F991F1AF0BA95C9F7BC
:1050B00012C0B13081F0C3D0B1E00895C0C0672FF5
:1050C000782F8827B85F39F0B93FCCF3869577956C
:1050D0006795B395D9F73EF4909580957095619555
:1050E0007F4F8F4F9F4F0895E89409C097FB3EF480
:1050F00090958095709561957F4F8F4F9F4F992325
:10510000A9F0F92F96E9BB279395F69587957795A2
:105110006795B795F111F8CFFAF4BB0F11F460FF62
:105120001BC06F5F7F4F8F4F9F4F16C0882311F0BA
:1051300096E911C0772321F09EE8872F762F05C0CE
:10514000662371F096E8862F70E060E02AF09A9569
:10515000660F771F881FDAF7880F9695879597F95E
:105160000895990F0008550FAA0BE0E8FEEF1616F8
:105170001706E807F907C0F012161306E407F5074B
:1051800098F0621B730B840B950B39F40A2661F0BF
:10519000232B242B252B21F408950A2609F4A14062
:1051A000A6958FEF811D811D089597F99F6780E86F
:1051B00070E060E008959FEF80EC089500240A9469
:1051C0001616170618060906089500240A941216E2
:1051D0001306140605060895092E0394000C11F415
:1051E000882352F0BB0F40F4BF2B11F460FF04C0C2
:1051F0006F5F7F4F8F4F9F4F089557FD9058440F1B
:10520000551F59F05F3F71F04795880F97FB991F25
:1052100061F09F3F79F087950895121613061406E2
:10522000551FF2CF4695F1DF08C01616170618066F
:10523000991FF1CF86957105610508940895E8944A
:10524000BB2766277727CB0197F908958ADF08F4F3
:105250008FEF08950BD0C0CFB1DF28F0B6DF18F084
:10526000952309F0A2CFA7CF1124EACFC6DFA0F380
:10527000959FD1F3950F50E0551F629FF001729FEB
:10528000BB27F00DB11D639FAA27F00DB11DAA1F0A
:10529000649F6627B00DA11D661F829F2227B00D57
:1052A000A11D621F739FB00DA11D621F839FA00DE2
:1052B000611D221F749F3327A00D611D231F849F32
:1052C000600D211D822F762F6A2F11249F57504089
:1052D0008AF0E1F088234AF0EE0FFF1FBB1F661F24
:1052E000771F881F91505040A9F79E3F510570F0DD
:1052F0005CCFA6CF5F3FECF3983EDCF386957795C5
:105300006795B795F795E7959F5FC1F7FE2B880FD7
:10531000911D9695879597F90895629FD001739F87
:10532000F001829FE00DF11D649FE00DF11D929F41
:10533000F00D839FF00D749FF00D659FF00D992780
:10534000729FB00DE11DF91F639FB00DE11DF91FA4
:10535000BD01CF0111240895AA1BBB1B51E107C059
:10536000AA1FBB1FA617B70710F0A61BB70B881FF5
:10537000991F5A95A9F780959095BC01CD01089584
:10538000A1E21A2EAA1BBB1BFD010DC0AA1FBB1F49
:10539000EE1FFF1FA217B307E407F50720F0A21BBB
:1053A000B30BE40BF50B661F771F881F991F1A9428
:1053B00069F760957095809590959B01AC01BD0152
:1053C000CF0108950F931F93CF93DF938C01EB01CF
:1053D000009711F42097C9F181E090E06EE070E051
:1053E0000E94BD2CFC019C01009789F180E8838319
:1053F000209771F0D387C28781E8838380918404EA
:1054000090918504009721F4F0938504E09384043F
:1054100001151105E1F01187008783818260838384
:105420008091860490918704009789F4F093870413
:10543000E09386048091880490918904009739F460
:10544000F0938904E093880402C020E030E0C901B1
:10545000DF91CF911F910F910895A0E0B0E0E3E3B9
:10546000FAE20C94DB2EFE013596619171918091E8
:10547000860490918704AF010E94A82A2096E2E05A
:105480000C94F72EEF92FF920F931F93CF93DF931D
:105490008C01E0918604F0918704838181FF1FC015
:1054A000C0E0D0E00AC0DB011896ED91FC9119979D
:1054B0000995009711F0CFEFDFEFF80181918F018F
:1054C0006091860470918704882369F7DB01189640
:1054D000ED91FC9119978AE00995009711F0CFEFB3
:1054E000DFEFCE01CDB7DEB7E6E00C94F32EAEE0F1
:1054F000B0E0EDE7FAE20C94D92E0D891E898F8970
:10550000988D26E02C831A83098397FF02C080E0E0
:1055100090E801979E838D839E01255E3F4FCE01CB
:105520000196698D7A8DA9010E94A82A4D815E811C
:1055300057FD0AC02F813885421753070CF49A0192
:10554000020F131FF80110822E96E4E00C94F52E42
:10555000ACE0B0E0EEEAFAE20C94CB2E6C011B0159
:105560008A01FC0117821682838181FFD1C12E013D
:105570000894411C511CF6019381F10193FD859122
:1055800093FF81911F01882309F4BEC1853239F44C
:1055900093FD859193FF81911F01853229F490E05D
:1055A000B6010E94312EE7CFEE24FF2420E0203206
:1055B000B0F48B3269F08C3228F4803251F08332AF
:1055C00071F40BC08D3239F0803349F421602CC066
:1055D0002260246029C0286027C0206125C027FDE3
:1055E0002CC0382F30533A3098F426FF08C08E2D47
:1055F000880FE82EEE0CEE0CE80EE30E15C08F2D92
:10560000880FF82EFF0CFF0CF80EF30E20620CC072
:105610008E3221F426FD78C1206406C08C3611F448
:10562000206802C0883649F4F10193FD859193FF0B
:1056300081911F01882309F0BACF982F9554933098
:1056400018F09052933028F40C5F1F4FFFE3F9835A
:105650000DC0833631F0833771F0833509F060C0B7
:1056600022C0F801808189830E5F1F4F420171E0E3
:10567000A72EB12C16C062E0662E712C600E711E32
:10568000F8018080918026FF03C06E2D70E002C07B
:105690006FEF7FEFC4012C870E94262E5C018301EF
:1056A0002C852F7717C052E0652E712C600E711E6D
:1056B000F8018080918026FF03C06E2D70E002C04B
:1056C0006FEF7FEFC4012C870E94142E5C012C85A4
:1056D0002068830123FD20C008C080E290E0B6016D
:1056E0002C870E94312EFA942C858F2D90E0A816DD
:1056F000B90698F311C0F40127FD859127FF819128
:105700004F0190E0B6012C870E94312E2C85F110BC
:10571000FA940894A108B108A114B10461F7F1C08A
:10572000843611F0893649F527FF08C0F8016081F9
:105730007181828193810C5F1F4F09C0F8016081E4
:105740007181882777FD8095982F0E5F1F4F4FE658
:10575000B42EB22297FF09C09095809570956195FF
:105760007F4F8F4F9F4FF0E8BF2AA2012AE030E021
:105770000E945D2E782E741845C0853731F43FEEB7
:10578000B32EB2222AE030E025C099EFB92EB22222
:105790008F36C1F0803720F4883509F0B5C00DC0D0
:1057A000803721F0883709F0AFC002C020E1B22A6B
:1057B000B4FE0BC084E0B82A08C0B4FE09C0E6E01D
:1057C000BE2A06C028E030E005C020E130E002C07B
:1057D00020E132E0B7FE08C0F8016081718182816A
:1057E00093810C5F1F4F07C0F8016081718180E0D9
:1057F00090E00E5F1F4FA2010E945D2E782E74185C
:10580000FFE7BF22B6FE0BC02EEFB2227E1438F4A3
:10581000B4FE07C0B2FC05C08FEEB82202C0A72CB0
:1058200001C0AE2C8B2D90E0B4FE0DC0FE01E70D43
:10583000F11D2081203319F4E9EEBE2209C0A394A2
:10584000B2FE06C004C086789070009709F0A39459
:105850008B2C9924B3FC14C0B0FE0FC0AF1428F4F5
:10586000E72CEF0CEA18AF2C08C0E72C06C080E24A
:1058700090E0B6010E94312EA394AF14C0F304C08F
:10588000AF1410F4FA1801C0FF2484FE0FC080E3A7
:1058900090E0B6010E94312E82FE1FC081FE03C03F
:1058A00088E590E010C088E790E00DC0C4018678DC
:1058B0009070009791F081FC02C080E201C08BE201
:1058C000B7FC8DE290E0B6010E94312E06C080E365
:1058D00090E0B6010E94312EEA947E14C0F37A94CF
:1058E000F201E70DF11D808190E0B6010E94312E9A
:1058F0007720A9F706C080E290E0B6010E94312E21
:10590000FA94FF20C1F737CEF6012681378102C015
:105910002FEF3FEFC9012C96E2E10C94E72EE199BD
:10592000FECF9FBB8EBBE09A99278DB30895A6E169
:10593000B0E044E050E00C94BD2EA8E1B0E042E0BD
:1059400050E00C94BD2E262FE199FECF9FBB8EBB5D
:105950002DBB0FB6F894E29AE19A0FBE0196089516
:10596000242F0E94A42C252F0E94A42C0C94B82C28
:105970000E94A32C272F0C94A42CEF92FF920F933C
:105980001F93CF93DF93689F8001699F100D789FCD
:10599000100D1124C8010E94E12CE82EE7017E01C0
:1059A000F92EE701209731F08E2D60E070E0A8011C
:1059B0000E941F2E7E01CE01CDB7DEB7E6E00C942B
:1059C000F32ECF93DF938230910510F482E090E0C4
:1059D000E0918C04F0918D0440E050E020E030E054
:1059E00026C06081718168177907E0F06817790730
:1059F00081F4828193812115310531F0D90113960B
:105A00009C938E9312972BC090938D0480938C045B
:105A100026C04115510519F06417750718F4AB013C
:105A2000E901DF019F0172816381E72FF62F309733
:105A3000C1F64115510501F1481B590B4430510580
:105A400080F412968D919C911397209719F09B8367
:105A50008A8304C090938D0480938C04FD01329658
:105A600046C0FD01E40FF51F8193919342505040D1
:105A700011965C934E933BC020918A0430918B0425
:105A80002115310541F42091520430915304309393
:105A90008B0420938A0420915404309155042115DD
:105AA000310541F42DB73EB7409150045091510457
:105AB000241B350BE0918A04F0918B04E217F30765
:105AC000A0F42E1B3F0B2817390778F0AC014E5F6E
:105AD0005F4F2417350748F04E0F5F1F50938B041C
