:100000000C9486030C9414080C9415070C94A30309
:100010000C9488290C94A3030C94A3030C94A303BD
:100020000C94A3030C9400070C94A3030C94A30357
:100030000C94A3030C94692A0C94A3030C94A303BB
:100040000C94E9030C94A3030C94A3030C94A30352
:100050000C94A3030000C0E0F0F838181838F8F04A
:10006000E0C0000000FFFFFFFF000000000000FFF5
:10007000FFFFFF0000071F3F7FF8E0C0C0E0F87FF0
:100080003F1F0700000000808080C0E0F8F8F8F80B
:10009000000000000000000101010101FFFFFFFF5F
:1000A000000000000000000000000000FFFFFFFF54
:1000B000000000000080E0F0F0783818181878F898
:1000C000F0E0C00000010101010080C0E0F0F87F15
:1000D0003F1F0F00E0F0F8FCFEDFCFC7C3C1C0C078
:1000E000C0C0C00000C0E0F0F83818181838F8F0A8
:1000F000E0C0000000000000000030303078FFFF5A
:10010000EFC78000000C3C7C7CF0E0C0C0E0F07FDA
:100110007F3F0F0000000000000000C0E0F8F8F88A
:10012000F80000000080E0F07C3E0F0701FFFFFFB9
:10013000FF000000070707070606060606FFFFFF89
:10014000FF0606060000F8F8F8F81818181818182E
:100150001800000000003F3F3F1F1C0C0C1C3CF827
:10016000F8F0C000000C3C7C7CF0E0C0C0E0F07F08
:100170007F3F0F0000C0E0F0F83818181838F8F08A
:10018000E0C0000000FFFFFFFF381C0C0C1C3CFC13
:10019000F8F0C00000071F3F7FF8E0C0C0E0F07F2C
:1001A0007F3F0F0000181818181818181818D8F8DA
:1001B000F8F8380000000000000000C0F8FEFF3F23
:1001C0000F0100000000000000F0FEFFFF0F010023
:1001D000000000000000C0F0F0F838181838F8F0FF
:1001E000F0C00000000083CFFFFF7C78787CFFFF29
:1001F000CF830000001F3F7F7FF0E0C0C0E0F07FB2
:100200007F3F1F000080E0F0F07838181838F8F0D1
:10021000E0C00000000F3F7FFFF0E0C0C0E070FFD3
:10022000FFFFFF0000183878F8E0C0C0E0F0FC7F66
:100230003F1F03000000000000000000000000005D
:1002400000E0E0E00000000000000000000000000E
:1002500000E0E0E0E0000000000000E0E0E0E0E0BE
:10026000E0E0E00000000000000000F0F8181818BE
:100270003830000000FE2020103E003173636363BD
:100280007F3E00000002728A8A8A0202FA0AFA0A93
:10029000FA0200000000F0204020F000E0301010D2
:1002A00030E0000000000700000017A045A7100084
:1002B000070500000000788484840100FC04F90430
:1002C000F800000000000000C0E0C0800000000056
:1002D0000000000000000000000103078FDEFCF8B2
:1002E0007020000000000000183C1E0F07030100F2
:1002F000000000000000000000000000000080C0BE
:10030000E0C00000000000002070F8FCDE8F070352
:1003100001000000000000000000000103070F1EA4
:100320003C18000000000000000000000000000079
:1003300000000000000000383838383838383838C5
:10034000383800000000000000000000000000003D
:10035000000000000000000000000000000000009D
:10036000000000000000000000000000000000008D
:10037000000000000000000000000000000000007D
:1003800000000000FFFFFFFFFF00FFFFFFFFFFFF78
:1003900000FFFFFFFFFFFF00FFFFFFFFFFFF00FF6A
:1003A000FFFFFFFFFF00FFFFFFFFFFFF00FFFFFF5B
:1003B000FFFFFF00FFFFFFFFFFFF00FFFFFFFFFF4B
:1003C000FF00FFFFFFFFFFFF00FFFFFFFFFFFF003A
:1003D000FFFFFFFFFFFF00FFFFFFFFFFFF00FFFF2B
:1003E000FFFFFFFF00FFFFFFFFFFFF00FFFFFFFF1B
:1003F000FFFF00FFFFFFFFFFFF00FFFFFFFFFFFF0B
:1004000000FFFFFFFFFFFF00FFFFFFFFFFFF00FFF9
:10041000FFFFFFFFFF00FFFFFFFFFFFF00FFFFFFEA
:10042000FFFFFF00FFFFFFFFFFFF00FFFFFFFFFFDA
:10043000FF00FFFFFFFFFFFF00FFFFFFFFFFFF00C9
:10044000FFFFFFFFFFFF00FFFFFFFFFFFF00FFFFBA
:10045000FFFFFFFF00FFFFFFFFFFFF00FFFFFFFFAA
:10046000FFFF00FF0000000000FFFF00004F000042
:1004700000FF000700070000FF147F147F1400FF37
:10048000242A7F2A1200FF231308646200FF3649E2
:1004900055222000FF000503000000FF001C224140
:1004A0000000FF0041221C0000FF14083E08140059
:1004B000FF08083E080800FF503000000000FF0859
:1004C0000808080800FF006060000000FF20100816
:1004D000040200FF3E5149453E00FF40427F40403C
:1004E00000FF426151494600FF2141454B3100FF69
:1004F0001814127F1000FF274545453900FF3C4A7C
:1005000049493000FF017109050300FF3649494997
:100510003600FF064949291E00FF0036360000005C
:10052000FF005636000000FF081422410000FF14AF
:100530001414141400FF004122140800FF0201519A
:10054000090600FF000002050200FF7E1111117E66
:1005500000FF7F4949493600FF3E4141412200FFEB
:100560007F4141221C00FF7F4949494100FF7F092B
:1005700009090100FF3E4149497A00FF7F08080848
:100580007F00FF00417F410000FF2040413F01000C
:10059000FF7F0814224100FF7F4040404000FF7F62
:1005A000020C027F00FF7F0408107F00FF3E4141E4
:1005B000413E00FF7F0909090600FF3E4151215ECF
:1005C00000FF7F0919294600FF264949493200FFEB
:1005D00001017F010100FF3F4040403F00FF1F201D
:1005E00040201F00FF3F4038403F00FF63140814C5
:1005F0006300FF070870080700FF61514945430089
:10060000FF007F41410000FF020408102000FF00AE
:1006100041417F0000FF040201020400FF4040400E
:10062000404000FF000003050000FF2054545478B0
:1006300000FF7F4444443800FF384444444400FFF2
:10064000384444447F00FF385454541800FF0404D5
:100650007E050500FF085454543C00FF7F08040445
:100660007800FF00447D4000FFFF2040443D00FF34
:10067000FF7F10284400FFFF417F4000FFFFFF7C09
:10068000047C047800FF7C0804047800FF384444AC
:10069000443800FF7C1414140800FF081414147C60
:1006A00000FF7C08040400FFFF485454542400FF5A
:1006B00004043F444400FF3C4040207C00FF1C20D9
:1006C00040201C00FF3C4030403C00FF44281028E4
:1006D0004400FF0C5050503C00FF4464544C440014
:1006E000FF083641410000FF000077000000FF00D6
:1006F0004141360800FF08082A1C0800FF081C2A90
:10070000080800FFFFFFFFFFFF00FF0011241FBECE
:10071000CFE5D8E0DEBFCDBF14E0A0E6B0E0E0E476
:10072000F4E602C005900D92AE3BB107D9F715E093
:10073000AEEBB4E001C01D92A730B107E1F70E9413
:1007400032190C941E320C940000DF93CF93CDB776
:10075000DEB7F89481E0CF91DF910895DF93CF93D6
:1007600000D0CDB7DEB79A8389838FE590E02981E9
:100770003A81F9012081FC0120830F900F90CF91E5
:10078000DF910895DF93CF93CDB7DEB786E290E097
:1007900026E230E0F90120812760FC01208387E216
:1007A00090E020E4FC01208386E290E026E230E045
:1007B000F90120812868FC01208386E290E026E28E
:1007C00030E0F90120812064FC012083CF91DF918A
:1007D00008951F920F920FB60F921124EF92FF927D
:1007E0000F931F932F933F934F935F936F937F9339
:1007F0008F939F93AF93BF93EF93FF93DF93CF9329
:1008000000D000D0CDB7DEB78FE590E0FC0180814D
:100810008C830E94A5038B8313C084E290E0FC01CB
:100820008081282F30E085E290E0FC018081882FD4
:1008300090E0982F8827822B932B9A8389831B82A1
:100840008B81882351F7CE0104960E94AE038091DC
:10085000860490918704CC01A0E0B0E0BC01CD01FA
:100860000E94842BDC01CB01BC01CD0126E636E6DB
:1008700046E65FE30E943A2CDC01CB017C018D014E
:1008800089819A81CC01A0E0B0E0BC01CD010E9439
:10089000842BDC01CB01BC01CD012DEC3CEC4CECFC
:1008A0005DE30E943A2CDC01CB019C01AD01C80143
:1008B000B7010E94882ADC01CB01BC01CD010E9456
:1008C000582BDC01CB01909387048093860486E249
:1008D00090E026E230E0F90120812064FC012083D1
:1008E0002496DEBFCDBFCF91DF91FF91EF91BF91F5
:1008F000AF919F918F917F916F915F914F913F91B8
:100900002F911F910F91FF90EF900F900FBE0F90BE
:100910001F9018950F931F93DF93CF93CDB7DEB73A
:1009200060970FB6F894DEBF0FBECDBF85E390E0B1
:10093000FC0180818F8784E390E0FC018081888BBB
:1009400087E390E027E330E0F90120812E7FFC016E
:10095000208388E390E028E330E0F90120812E7FB6
:10096000FC01208384E390E0FC01108285E390E0A9
:100970002FEFFC01208387E390E027E330E0F901CB
:1009800020812160FC01208388E390E028E330E0AF
:10099000F90120812E7FFC01208380E090E0A0E817
:1009A000BFE389839A83AB83BC8369817A818B811E
:1009B0009C8120E030E04AE755E40E943A2CDC01BB
:1009C000CB018D839E83AF83B88711E06D817E81DB
:1009D0008F81988520E030E040E85FE30E94EC2AB8
:1009E00088230CF010E0112329F081E090E09A8731
:1009F000898746C011E06D817E818F81988520E0D6
:100A00003FEF4FE757E40E94362C18160CF010E029
:100A1000112361F169817A818B819C8120E030E032
:100A200040E251E40E943A2CDC01CB01BC01CD0133
:100A30000E94582BDC01CB019A87898712C080E97C
:100A400091E09C878B878B859C858C01C8010197E1
:100A5000F1F78C011C870B8789859A8501979A8706
:100A6000898789859A85009751F717C06D817E81A6
:100A70008F8198850E94582BDC01CB019A8789874A
:100A800089859A859E878D878D859E858C01F80145
:100A90003197F1F78F011E870D8783E390E0FC010A
:100AA000808180958093E80485E390E02F85FC01A8
:100AB000208384E390E02889FC0120838091E8046E
:100AC00060960FB6F894DEBF0FBECDBFCF91DF9119
:100AD0001F910F910895DF93CF9300D00F92CDB760
:100AE000DEB79A8389836B8389819A81FC01918126
:100AF0008B819817D1F089819A81FC0180818230A5
:100B0000A0F089819A812B81FC01218389819A81BE
:100B1000FC01108289819A81FC018181882341F145
:100B200089819A81FC01818124C089819A81FC019B
:100B300091818B81981789F089819A81FC0180814C
:100B4000823058F489819A81FC018081282F2F5F9F
:100B500089819A81FC0120830BC089819A81FC01E3
:100B600091818B81981721F489819A81FC011082EF
:100B700080E00F900F900F90CF91DF910895DF9359
:100B8000CF930F92CDB7DEB719820E948A0480936B
:100B9000E8042091E8048EEB94E0622F0E946B053C
:100BA00089838981882F90E08430910509F47BC086
:100BB0008530910564F48130910509F4AFC082302D
:100BC000910509F48EC0009709F4C6C0AEC080310B
:100BD0009105C1F1813191052CF48830910509F41A
:100BE0003EC0A3C08032910599F08034910509F090
:100BF0009CC08091DD04882331F481E08093DD0482
:100C00000E948926B4C01092DD040E948926AFC0DC
:100C10008091C804882309F0A1C08091DD0484304C
:100C200031F481E08093DD040E948926A0C0809188
:100C3000DD04882309F494C084E08093DD040E94DD
:100C4000892695C08091C804882319F00E94131B3F
:100C50008EC081E08093C8040E94081A88C08091E9
:100C60004001882349F08FEC92E09093E102809359
:100C7000E00280E00E94881B8981282F30E000D0AC
:100C800000D08DB79EB7019640E650E0FC0151833D
:100C90004083FC01338322830E94492D0F900F90E3
:100CA0000F900F9064C08981282F30E000D000D0D1
:100CB0008DB79EB7019649E650E0FC015183408311
:100CC000FC01338322830E94492D0F900F900F90D7
:100CD0000F908091C804882309F444C00E947A1AB6
:100CE00046C08981282F30E000D000D08DB79EB754
:100CF000019642E750E0FC0151834083FC013383BD
:100D000022830E94492D0F900F900F900F90809199
:100D1000C804882349F10E94431B29C08091C8045C
:100D2000882321F10E94BD1A22C08981282F30E03A
:100D300000D000D08DB79EB701964BE750E0FC0184
:100D400051834083FC01338322830E94492D0F90FD
:100D50000F900F900F900BC0000009C0000007C05B
:100D6000000005C0000003C0000001C000000F909B
:100D7000CF91DF910895DF93CF93CDB7DEB7F8948D
:100D800081E0CF91DF910895DF93CF9300D0CDB76D
:100D9000DEB79A8389838FE590E029813A81F90152
:100DA0002081FC0120830F900F90CF91DF91089557
:100DB000DF93CF93CDB7DEB71092C1041092C00479
:100DC0000E94360985E590E025E530E0F9012081B3
:100DD0002A60FC0120838FE490E0FC0110828EE405
:100DE00090E025E0FC01208389E590E029E530E0F2
:100DF000F90120812460FC012083CF91DF910895C7
:100E00001F920F920FB60F9211248F93DF93CF93FF
:100E1000CDB7DEB781E08093A500CF91DF918F91B0
:100E20000F900FBE0F901F9018951F920F920FB644
:100E30000F921124EF92FF920F931F932F933F93E2
:100E40004F935F936F937F938F939F93AF93BF93D2
:100E5000EF93FF93DF93CF9300D0CDB7DEB78091B0
:100E6000990090919A00A0919B00B0919C000097EE
:100E7000A105B10549F01092990010929A001092C4
:100E80009B0010929C00B7C08FE590E0FC01808130
:100E90008A830E94BB06898396C08CE490E0FC01A3
:100EA000808191819093EA048093E9048CE490E03E
:100EB000FC01118210828091E9049091EA04893C3E
:100EC000910508F470C08091990090919A00A091CA
:100ED0009B00B0919C000097A105B105F9F08091AD
:100EE000990090919A00A0919B00B0919C0001976D
:100EF000A109B1098093990090939A00A0939B0057
:100F0000B0939C008AE590E02AE530E0F901208169
:100F10002068FC01208300E010E05BC08091E904C0
:100F20009091EA04CC01A0E0B0E0BC01CD010E94A8
:100F3000842BDC01CB01BC01CD012DEC3CEC4CEC55
:100F40005DE30E943A2CDC01CB017C018D01809194
:100F5000970090919800CC01A0E0B0E0BC01CD01D9
:100F60000E94842BDC01CB01BC01CD0126E636E6D4
:100F700046E65FE30E943A2CDC01CB019C01AD0107
:100F8000C801B7010E94882ADC01CB01BC01CD0158
:100F90000E94582BDC01CB0190939800809397001E
:100FA0001092C3040FC08091C3048F5F8093C30469
:100FB0008091C304853630F01092C30410929800DB
:100FC0001092970019828981882309F066CF01E089
:100FD00010E0CE0102960E94C4060130110559F4BA
:100FE0001092A5008AE590E02AE530E0F901208121
:100FF0002068FC0120830F900F90CF91DF91FF912B
:10100000EF91BF91AF919F918F917F916F915F9180
:101010004F913F912F911F910F91FF90EF900F9063
:101020000FBE0F901F9018951F920F920FB60F9240
:101030001124EF92FF920F931F932F933F934F939F
:101040005F936F937F938F939F93AF93BF93EF9330
:10105000FF93DF93CF9300D0CDB7DEB78FE590E05D
:10106000FC0180818A830E94BB06898396C08CE440
:1010700090E0FC01808191819093EA048093E904DF
:101080008CE490E0FC01118210828091E90490913F
:10109000EA04893C910508F470C080919900909110
:1010A0009A00A0919B00B0919C000097A105B1050A
:1010B000F9F08091990090919A00A0919B00B091D5
:1010C0009C000197A109B1098093990090939A001F
:1010D000A0939B00B0939C008AE590E02AE530E065
:1010E000F90120812064FC01208300E010E05BC056
:1010F0008091950090919600CC01A0E0B0E0BC01F9
:10110000CD010E94842BDC01CB01BC01CD012DEC73
:101110003CEC4CEC5DE30E943A2CDC01CB017C0101
:101120008D018091E9049091EA04CC01A0E0B0E047
:10113000BC01CD010E94842BDC01CB01BC01CD019F
:1011400026E636E646E65FE30E943A2CDC01CB0158
:101150009C01AD01C801B7010E94882ADC01CB01C6
:10116000BC01CD010E94582BDC01CB01909396006D
:10117000809395001092C3040FC08091C3048F5FC9
:101180008093C3048091C304853630F01092C30469
:10119000109296001092950019828981882309F097
:1011A00066CF01E010E0CE0102960E94C406013035
:1011B000110559F41092A5008AE590E02AE530E087
:1011C000F90120812064FC0120830F900F90CF91C2
:1011D000DF91FF91EF91BF91AF919F918F917F919F
:1011E0006F915F914F913F912F911F910F91FF90C0
:1011F000EF900F900FBE0F901F901895DF93CF9335
:10120000CDB7DEB78BE590E02BE530E0F90120812A
:101210002F77FC0120838FE090E0A0E0B0E0809386
:10122000990090939A00A0939B00B0939C0081E05A
:101230008093940080E063E041E20E94A50D81E389
:101240000E94660E80E064E04EE10E94A50D80E2FF
:101250000E94660E8BE590E02BE530E0F9012081DD
:101260002064FC012083CF91DF910895DF93CF9319
:10127000CDB7DEB78BE590E02BE530E0F9012081BA
:101280002F7BFC0120838FE090E0A0E0B0E0809312
:10129000990090939A00A0939B00B0939C001092A9
:1012A000940080E063E041E20E94A50D80E20E948C
:1012B000660E80E064E04EE10E94A50D82E30E948C
:1012C000660E8BE590E02BE530E0F9012081206887
:1012D000FC012083CF91DF910895DF93CF9300D05D
:1012E00000D0CDB7DEB780E090E0DC0189839A833F
:1012F000AB83BC8380919400813009F045C020917C
:1013000095003091960000D000D08DB79EB7019621
:1013100046EA50E0FC0151834083FC013383228381
:101320000E94492D0F900F900F900F908091950083
:1013300090919600CC01A0E0B0E0BC01CD010E94EC
:10134000842BDC01CB0120918800309189004091F1
:101350008A0050918B00BC01CD010E943A2CDC0127
:10136000CB012091840030918500409186005091FE
:101370008700BC01CD010E94882ADC01CB01898352
:101380009A83AB83BC8344C020919700309198002E
:1013900000D000D08DB79EB7019644EB50E0FC0121
:1013A00051834083FC01338322830E94492D0F9097
:1013B0000F900F900F908091970090919800CC0122
:1013C000A0E0B0E0BC01CD010E94842BDC01CB0188
:1013D00020919000309191004091920050919300A3
:1013E000BC01CD010E943A2CDC01CB0120918C0084
:1013F00030918D0040918E0050918F00BC01CD0145
:101400000E94882ADC01CB0189839A83AB83BC8349
:1014100080E061E04AE00E94A50D89819A81AB815C
:10142000BC81BC01CD010E94701069817A818B81E1
:101430009C810E94582BDC01CB01BC01CD010F9097
:101440000F900F900F90CF91DF910895DF93CF937E
:1014500000D000D0CDB7DEB70E946D09DC01CB0112
:10146000BC01CD010E94842BDC01CB0189839A83CE
:10147000AB83BC8329813A814B815C8160E074E25B
:1014800084E799E40E94F02ADC01CB0189839A83E6
:10149000AB83BC8389819A81AB81BC81BC01CD01C6
:1014A0000E94582BDC01CB01BC01CD010F900F90A5
:1014B0000F900F90CF91DF910895DF93CF93CDB729
:1014C000DEB780E090E00E94B92F21E082309207E1
:1014D00009F066C08AEC90E00E945E2D82E090E008
:1014E0000E94AB2F8093C20487E090E00E94B32F4C
:1014F000DC01CB018093880490938904A0938A0433
:10150000B0938B048BE090E00E94B32FDC01CB0101
:1015100080938C0490938D04A0938E04B0938F04D9
:1015200083E090E00E94B92FCC01A0E0B0E02CE372
:1015300030E040E050E0BC01CD010E949D2CDC0178
:10154000CB018093C2009093C300A093C400B093DA
:10155000C50085E090E00E94AB2F482F50E02CE3BF
:1015600030E0429FC001439F900D529F900D112487
:101570009093C7008093C60086E090E00E94AB2F56
:10158000482F50E02CE330E0429FC001439F900D74
:10159000529F900D11249093C9008093C80006C0FB
:1015A00087ED90E00E945E2D0E94D90ACF91DF91D5
:1015B0000895DF93CF93CDB7DEB780E090E062E08F
:1015C00071E00E94D42F82E090E060E00E94BF2F83
:1015D0008091C2009091C300A091C400B091C50059
:1015E0002CE330E040E050E0BC01CD010E94DC2C57
:1015F000DA01C9019C0183E090E0B9010E94D42F77
:1016000087E090E040E050E0BA010E94CC2F8BE0F0
:1016100090E040E050E060E47FE30E94CC2F8091B6
:10162000C8009091C9002CE330E0B9010E94C82C99
:101630009B01C901282F85E090E0622F0E94BF2FF7
:101640008091C6009091C7002CE330E0B9010E9460
:10165000C82C9B01C901282F86E090E0622F0E94D0
:10166000BF2FCF91DF910895DF93CF93CDB7DEB732
:101670002091C20482E090E0622F0E94BF2FCF91A0
:10168000DF910895DF93CF9300D0CDB7DEB780917F
:10169000C2009091C300A091C400B091C5002CE39A
:1016A00030E040E050E0BC01CD010E94DC2CDA01CA
:1016B000C9019A83898383E090E029813A81B90145
:1016C0000E94D42F0F900F90CF91DF910895DF9358
:1016D000CF93CDB7DEB72091880430918904409133
:1016E0008A0450918B0487E090E0BA01A9010E941E
:1016F000CC2F20918C0430918D0440918E04509118
:101700008F048BE090E0BA01A9010E94CC2FCF9109
:10171000DF910895DF93CF93CDB7DEB78091C800F6
:101720009091C9002CE330E0B9010E94C82C9B01C4
:10173000C901282F85E090E0622F0E94BF2FCF9132
:10174000DF910895DF93CF93CDB7DEB78091C600C8
:101750009091C7002CE330E0B9010E94C82C9B0196
:10176000C901282F86E090E0622F0E94BF2FCF9101
:10177000DF910895DF93CF93CDB7DEB786E090E099
:101780000E94AB2F482F50E02CE330E0429FC00175
:10179000439F900D529F900D11249093C70080930A
:1017A000C600CF91DF910895DF93CF93CDB7DEB719
:1017B00085E090E00E94AB2F482F50E02CE330E012
:1017C000429FC001439F900D529F900D1124909312
:1017D000C9008093C800CF91DF910895DF93CF9324
:1017E0000F92CDB7DEB78091C5049091C6040196E3
:1017F0009093C6048093C5048091C5049091C6045B
:10180000863091050CF46BC08091C404282F30E021
:1018100000D000D08DB79EB7019643E051E0FC01A7
:1018200051834083FC01338322830E94492D0F9012
:101830000F900F900F908091C7048F5F8093C70423
:101840008091C704898307C089818F5F89838981DB
:10185000893008F019828091C404882F90E0298192
:10186000222F30E0022E02C0959587950A94E2F768
:1018700081709070009741F38981282F30E000D06B
:1018800000D08DB79EB7019646E151E0FC0151832F
:101890004083FC01338322830E94492D0F900F90D7
:1018A0000F900F9089818093C70481E090E00E949F
:1018B000290E25EE30E08981882F90E0880F991F4E
:1018C000AC01440F551F440F551F840F951F820F05
:1018D000931F0E94C90E1092C6041092C5040F9067
:1018E000CF91DF910895DF93CF9300D000D0CDB793
:1018F000DEB70E946D09DC01CB0189839A83AB833B
:10190000BC8389819A81AB81BC81803D27E09207AD
:1019100020E0A20720E0B20778F4809194008130A3
:1019200031F48091C40482608093C40405C0809126
:10193000C40481608093C4040F900F900F900F90A7
:10194000CF91DF9108950F931F93DF93CF93CDB77E
:10195000DEB72E970FB6F894DEBF0FBECDBF8AE379
:1019600090E02AE330E0F9012081206FFC01208320
:1019700084E390E0FC01808184E390E02FEFFC01A0
:10198000208387E390E027E330E0F90120812260A3
:10199000FC0120830E9403188FE30E94B4130E946D
:1019A000EA178FE30E94B41380E090E0A0E2B1E474
:1019B00089839A83AB83BC8369817A818B819C8183
:1019C00020E030E04AE753E40E943A2CDC01CB01EE
:1019D0008D839E83AF83B88711E06D817E818F8177
:1019E000988520E030E040E85FE30E94EC2A8823FD
:1019F0000CF010E0112329F081E090E09A878987AC
:101A000046C011E06D817E818F81988520E03FEF97
:101A10004FE757E40E94362C18160CF010E0112303
:101A200061F169817A818B819C8120E030E040E224
:101A300051E40E943A2CDC01CB01BC01CD010E9493
:101A4000582BDC01CB019A87898712C089E190E08D
:101A50009C878B878B859C858C01C8010197F1F74A
:101A60008C011C870B8789859A8501979A878987BE
:101A700089859A85009751F717C06D817E818F8186
:101A800098850E94582BDC01CB019A87898789852C
:101A90009A859E878D878D859E858C01F80131976B
:101AA000F1F78F011E870D870E94031880EC0E94BA
:101AB000B4130E94EA1780EC0E94B4130E94720DC6
:101AC00083E00E94290E8BE291E00E94C90E2E96BF
:101AD0000FB6F894DEBF0FBECDBFCF91DF911F913F
:101AE0000F910895DF93CF9300D00F92CDB7DEB75B
:101AF0008091EE048B831092EE04198217C08981C5
:101B00000E94290E1A820CC08A81803419F481E067
:101B10000E94030E80E00E94CC148A818F5F8A832A
:101B20008A8188238CF789818F5F898389818830B6
:101B300030F38B818093EE0480E00E94290E0F9099
:101B40000F900F90CF91DF910895DF93CF9300D046
:101B50000F92CDB7DEB789836A834B83898188234F
:101B600019F08981813009F58A818830F0F48B8100
:101B70008034D8F48981882319F40E94031802C0A4
:101B80000E94EA1789818093EB048A81886B809395
:101B9000EC048B8180648093ED048091ED040E94BD
:101BA000B4138091EC040E94B4130F900F900F9027
:101BB000CF91DF910895DF93CF9300D000D000D074
:101BC000CDB7DEB79A8389837C836B835E834D8335
:101BD0002091EB0489819A81FC0120832091EC04FF
:101BE0008B819C81FC0120832091ED048D819E815D
:101BF000FC01208326960FB6F894DEBF0FBECDBF42
:101C0000CF91DF910895DF93CF930F92CDB7DEB7D9
:101C100089838981882319F089818130B1F4898190
:101C2000882319F40E94031802C00E94EA178981D0
:101C30008093EB0480E48093ED048091EC040E9497
:101C4000B4138091ED040E94B4130F90CF91DF91F3
:101C50000895DF93CF930F92CDB7DEB78983898143
:101C6000883038F4898188548093EC0480E00E94A5
:101C7000030E0F90CF91DF910895DF93CF93CDB7EF
:101C8000DEB78091EC048F5F8093EC048091EC04CC
:101C9000803C18F088EB8093EC0480E00E94030EF7
:101CA000CF91DF910895DF93CF93CDB7DEB78FEF5C
:101CB0008093EE04CF91DF910895DF93CF93CDB75A
:101CC000DEB71092EE04CF91DF9108951F93DF935A
:101CD000CF93CDB7DEB727970FB6F894DEBF0FBE10
:101CE000CDBF8F838091EB04813021F48091ED048E
:101CF0008C3718F48F818A3011F40E943D0E8F8149
:101D00008A3009F43CC024E833E08F81882F90E0CA
:101D1000AC01440F551F440F551F440F551FBA0106
:101D2000681B790BCB01820F931F9A838983809163
:101D3000EB04882339F48091ED04803819F481E0B4
:101D40000E94030E89819A819C838B8389819A8169
:101D500001969A8389838B819C81FC0114911D8358
:101D60008D818E838E818F3F49F08E810E94CC14AD
:101D70008091ED048F5F8093ED04D9CF000027960A
:101D80000FB6F894DEBF0FBECDBFCF91DF911F918C
:101D90000895DF93CF9300D0CDB7DEB79A838983C0
:101DA0000CC089819A81FC01208189819A810196E8
:101DB0009A838983822F0E94660E89819A81FC0111
:101DC0008081882371F70F900F90CF91DF91089554
:101DD0000F931F93DF93CF93CDB7DEB760970FB606
:101DE000F894DEBF0FBECDBF6C877D878E879F873F
:101DF000488B19828C859D85AE85BF850097A1058E
:101E0000B105C1F419820DC08981882F90E09E012F
:101E10002E5F3F4F820F931FFC01108289818F5FDD
:101E2000898399818889981708F061C089818A30EF
:101E300058F35DC0198244C08C859D85AE85BF85F1
:101E40000097A105B10549F18981082F10E08C8523
:101E50009D85AE85BF852AE030E040E050E0BC01C2
:101E6000CD010E94DC2CDC01CB01282FCE01029693
:101E7000800F911FFC0120838C859D85AE85BF85D9
:101E80002AE030E040E050E0BC01CD010E94DC2CB3
:101E90002C873D874E875F8710C088898F3F39F137
:101EA00088898B3020F58981882F90E09E012E5FF4
:101EB0003F4F820F931FFC01108289818F5F8983BE
:101EC00099818889981708F4B7CF11C08981882F24
:101ED00090E001979E012E5F3F4F820F931FFC0100
:101EE0008081805D0E94660E89818150898389810D
:101EF000882361F760960FB6F894DEBF0FBECDBFA2
:101F0000CF91DF911F910F910895DF93CF93CDB7BC
:101F1000DEB760970FB6F894DEBF0FBECDBF6C87FB
:101F20007D878E879F87488B19828C859D85AE859E
:101F3000BF850097A105B105C1F419820DC0898143
:101F4000882F90E09E012E5F3F4F820F931FFC0170
:101F5000108289818F5F898399818889981708F019
:101F600072C089818A3058F36EC019823BC08C855B
:101F70009D85AE85BF850097A105B105F1F08981EA
:101F8000882F90E02C85422F4F709E012E5F3F4F8F
:101F9000820F931FFC0140838C859D85AE85BF8594
:101FA000689413F8B695A795979587951694D1F7E9
:101FB0008C879D87AE87BF8712C088898F3F09F4C1
:101FC00042C088898B3008F03EC08981882F90E01C
:101FD0009E012E5F3F4F820F931FFC01108289816B
:101FE0008F5F898399818889981708F4C0CF2BC0A7
:101FF0008981882F90E001979E012E5F3F4F820FCD
:10200000931FFC0180818A3068F08981882F90E0DD
:1020100001979E012E5F3F4F820F931FFC0180812D
:10202000895C0CC08981882F90E001979E012E5F0A
:102030003F4F820F931FFC018081805D0E94660EDE
:102040008981815089838981882391F660960FB6B2
:10205000F894DEBF0FBECDBFCF91DF910895DF931F
:10206000CF9300D000D000D0CDB7DEB76A837B839A
:102070008C839D834E8328C08E81882F90E09C01A5
:102080002150304081E090E002C0880F991F2A95CE
:10209000E2F79C01442737FD4095542F8A819B81AC
:1020A000AC81BD8182239323A423B52321E0009733
:1020B000A105B10509F420E029838981805D0E9492
:1020C000660E8E8181508E838E818823A9F6269696
:1020D0000FB6F894DEBF0FBECDBFCF91DF9108954C
:1020E000DF93CF93CDB7DEB728970FB6F894DEBF56
:1020F0000FBECDBF6D837E838F8398876D817E8178
:102100008F8198850E94582BDC01CB0189839A83AB
:10211000AB83BC8389819A81AB81BC81BC01CD0139
:102120004FEF0E94E80E8EE20E94660E69817A816E
:102130008B819C810E94842B9B01AC016D817E81EF
:102140008F8198850E94872ADC01CB018D839E8335
:10215000AF83B8876D817E818F81988520E034E2DE
:1021600044E759E40E943A2CDC01CB01BC01CD01CB
:102170000E94582BDC01CB0189839A83AB83BC83FB
:1021800089819A81AB81BC81BC01CD014FEF0E9456
:10219000E80E28960FB6F894DEBF0FBECDBFCF91E4
:1021A000DF910895DF93CF93CDB7DEB768970FB671
:1021B000F894DEBF0FBECDBFCE014F96988F8F8BA8
:1021C0008D8D9E8D9A838983BEC189819A81FC0100
:1021D000808189878985853209F0ADC189819A819D
:1021E00001969A83898389819A81FC0180818987FC
:1021F0008985803300F189858A33E8F41A8614C012
:102200008A85880F982F990F990F980F8985890FC4
:1022100080538A8789819A8101969A8389838981EB
:102220009A81FC01808189878985803338F089858E
:102230008A3330F304C08FEF8A8701C0000089859C
:10224000882F90E08835910509F4F1C08935910512
:1022500004F58434910509F470C08534910564F463
:102260008234910509F419C1833491058CF58532C6
:10227000910509F45CC162C18335910509F445C13A
:102280008535910509F4A2C08634910509F424C16D
:1022900055C18636910509F41FC1873691055CF456
:1022A00083369105A9F08436910509F182369105AE
:1022B00009F4D7C043C18537910509F470C0883748
:1022C000910509F49DC08337910509F41EC136C1FB
:1022D0008F89988D9C012E5F3F4F388F2F8BFC018B
:1022E00080819181898789850E94660E27C18F89A7
:1022F000988D9C012E5F3F4F388F2F8BFC01808182
:1023000091819C838B838B819C81992354F48B8155
:102310009C81909581959F4F9C838B838DE20E9439
:10232000660E8B819C81AA2797FDA095BA2FBC01D0
:10233000CD014A850E94E80E01C18F89988D9C01CC
:102340002C5F3F4F388F2F8BFC0180819181A281C0
:10235000B3818D839E83AF83B8878D819E81AF814A
:10236000B885BB2394F48D819E81AF81B885B095EB
:10237000A095909581959F4FAF4FBF4F8D839E83C2
:10238000AF83B8878DE20E94660E8D819E81AF81FA
:10239000B885BC01CD014A850E94E80ECFC08F8967
:1023A000988D9C012E5F3F4F388F2F8BFC018081D1
:1023B00091819C878B878B859C85CC01A0E0B0E0C8
:1023C000BC01CD014A850E94E80EB8C08F89988D66
:1023D0009C012C5F3F4F388F2F8BFC0180819181B6
:1023E000A281B3818D879E87AF87B88B8D859E85AF
:1023F000AF85B889BC01CD014A850E94E80E9EC018
:102400008F89988D9C012E5F3F4F388F2F8BFC0159
:10241000808191819C878B878B859C85CC01A0E0F6
:10242000B0E0BC01CD014A850E94850F87C08F892D
:10243000988D9C012C5F3F4F388F2F8BFC01808142
:102440009181A281B3818D879E87AF87B88B8D855F
:102450009E85AF85B889BC01CD014A850E94850F54
:102460006DC08F89988D9C012E5F3F4F388F2F8BC9
:10247000FC01808191819C878B878A858F3F11F435
:1024800080E18A878B859C85CC01A0E0B0E0BC010F
:10249000CD014A850E942F1051C08F89988D9C01D3
:1024A0002C5F3F4F388F2F8BFC0180819181A2815F
:1024B000B3818D879E87AF87B88B8A858F3F11F454
:1024C00080E18A878D859E85AF85B889BC01CD0165
:1024D0004A850E942F1032C08F89988D9C012C5FF5
:1024E0003F4F388F2F8BFC0180819181A281B38176
:1024F000898B9A8BAB8BBC8B89899A89AB89BC8978
:10250000BC01CD010E94701019C08F89988D9C016B
:102510002E5F3F4F388F2F8BFC01808191819E8BE6
:102520008D8B8D899E890E94C90E000007C085E2AF
:102530000E94660E03C089850E94660E89819A8179
:1025400001969A83898389819A81FC0180818823FD
:1025500009F03BCE68960FB6F894DEBF0FBECDBF34
:10256000CF91DF910895DF93CF9300D0CDB7DEB741
:10257000198216C089810E94290E1A820BC08A8195
:10258000803411F40E94EA1780E00E94CC148A8102
:102590008F5F8A838A81882394F789818F5F8983FB
:1025A0008981883038F380E00E94290E0F900F90C7
:1025B000CF91DF910895DF93CF93CDB7DEB7299701
:1025C0000FB6F894DEBF0FBECDBF888769878885B8
:1025D000843008F06FC08985853608F06BC0888527
:1025E0008295880F807E8B838B81803410F41D82CE
:1025F00005C081E08D838B8180548B838B81982FE4
:10260000985F8D8160E0492F0E94A50D8985882FF4
:1026100090E0A0E0B0E0BC01CD0143E00E94E80EF4
:1026200089858695898789858695869586958E8301
:1026300097E08E81292F281B822F8F8381E0898349
:1026400036C08B81982F945F8D816981492F0E94BC
:10265000A50D99818F81981710F41C821AC0998159
:102660008F819817A1F4898587708C838C81882F3E
:1026700090E028E030E0281B390B8FEF90E0022E2D
:1026800002C0880F991F0A94E2F78C8302C08FEF73
:102690008C831A8206C08C810E94CC148A818F5F41
:1026A0008A838A818C30B8F389818F5F898389819D
:1026B000883038F229960FB6F894DEBF0FBECDBF32
:1026C000CF91DF910895DF93CF9300D000D0CDB7A5
:1026D000DEB78B836C838B81880F8F5F8A838B81BE
:1026E0008430D8F58C818536C0F580E06A8140E081
:1026F0000E94A50D19820CC08981803419F481E0F3
:102700000E94030E8FEF0E94CC1489818F5F898312
:1027100099818C81981780F38C8189830CC0898181
:10272000803419F481E00E94030E80E00E94CC14F2
:1027300089818F5F89838981843688F381E06A810A
:102740004EE60E94A50D8C81882F90E0A0E0B0E0BD
:10275000BC01CD0143E00E94E80E0F900F900F9056
:102760000F90CF91DF9108950F931F93DF93CF9335
:10277000CDB7DEB769970FB6F894DEBF0FBECDBFF9
:10278000898F0E94E71585E390E0298DFC01208365
:102790008BE390E02BE330E0F90120812F77FC01FF
:1027A00020838BE390E02BE330E0F90120812F7B45
:1027B000FC0120838BE390E02BE330E0F9012081E2
:1027C0002062FC01208380E090E0A0E0B0E48983F7
:1027D0009A83AB83BC8369817A818B819C812BEA4C
:1027E0003AEA4AEA5EE30E943A2CDC01CB018D838F
:1027F0009E83AF83B88711E06D817E818F8198853C
:1028000020E030E040E85FE30E94EC2A88230CF0EF
:1028100010E0112319F081E08987A3C011E06D81D8
:102820007E818F81988520E030E04FE753E40E945D
:10283000362C18160CF010E0112309F489C06981B8
:102840007A818B819C8120E030E04AE754E40E9449
:10285000F02ADC01CB018A879B87AC87BD876A851C
:102860007B858C859D8520E030E04AE753E40E941B
:102870003A2CDC01CB018E879F87A88BB98B11E0A6
:102880006E857F858889998920E030E040E85FE3A4
:102890000E94EC2A88230CF010E0112329F081E03B
:1028A00090E09B8B8A8B46C011E06E857F8588897E
:1028B000998920E03FEF4FE757E40E94362C181625
:1028C0000CF010E0112361F16A857B858C859D8574
:1028D00020E030E040E251E40E943A2CDC01CB01E0
:1028E000BC01CD010E94582BDC01CB019B8B8A8B54
:1028F00012C089E190E09D8B8C8B8C899D898C0125
:10290000C8010197F1F78C011D8B0C8B8A899B897B
:1029100001979B8B8A8B8A899B89009751F728C0E6
:102920006E857F85888999890E94582BDC01CB01AF
:102930009B8B8A8B8A899B899F8B8E8B8E899F89A3
:102940008C01F8013197F1F78F011F8B0E8B10C0AE
:102950006D817E818F8198850E94582BDC01CB018F
:1029600089878985888F888D182F1A95F1F7188F98
:102970008BE390E02BE330E0F90120812F7DFC0117
:10298000208369960FB6F894DEBF0FBECDBFCF91FE
:10299000DF911F910F9108950F931F93DF93CF93B2
:1029A000CDB7DEB769970FB6F894DEBF0FBECDBFC7
:1029B000898F0E94E71585E390E03091EE04298D20
:1029C0002327FC0120838BE390E02BE330E0F90127
:1029D00020812068FC0120838BE390E02BE330E032
:1029E000F90120812F7BFC0120838BE390E02BE316
:1029F00030E0F90120812062FC01208380E090E03A
:102A0000A0E0B0E489839A83AB83BC8369817A8137
:102A10008B819C812BEA3AEA4AEA5EE30E943A2CD7
:102A2000DC01CB018D839E83AF83B88711E06D817C
:102A30007E818F81988520E030E040E85FE30E944E
:102A4000EC2A88230CF010E0112319F081E089872B
:102A5000A3C011E06D817E818F81988520E030E0F8
:102A60004FE753E40E94362C18160CF010E01123A7
:102A700009F489C069817A818B819C8120E030E0F2
:102A80004AE754E40E94F02ADC01CB018A879B8745
:102A9000AC87BD876A857B858C859D8520E030E08D
:102AA0004AE753E40E943A2CDC01CB018E879F87D2
:102AB000A88BB98B11E06E857F858889998920E084
:102AC00030E040E85FE30E94EC2A88230CF010E03D
:102AD000112329F081E090E09B8B8A8B46C011E0A6
:102AE0006E857F858889998920E03FEF4FE757E41D
:102AF0000E94362C18160CF010E0112361F16A8543
:102B00007B858C859D8520E030E040E251E40E9489
:102B10003A2CDC01CB01BC01CD010E94582BDC0119
:102B2000CB019B8B8A8B12C089E190E09D8B8C8BB3
:102B30008C899D898C01C8010197F1F78C011D8B4F
:102B40000C8B8A899B8901979B8B8A8B8A899B89AD
:102B5000009751F728C06E857F85888999890E94E2
:102B6000582BDC01CB019B8B8A8B8A899B899F8B9D
:102B70008E8B8E899F898C01F8013197F1F78F0137
:102B80001F8B0E8B10C06D817E818F8198850E9476
:102B9000582BDC01CB0189878985888F888D182F78
:102BA0001A95F1F7188F8BE390E02BE330E0F901F1
:102BB00020812F7DFC01208369960FB6F894DEBF3B
:102BC0000FBECDBFCF91DF911F910F9108950F934D
:102BD0001F93DF93CF93CDB7DEB7E1970FB6F8948D
:102BE000DEBF0FBECDBF84E390E024E330E0F90107
:102BF00020812F77FC0120838BE390E02BE330E0F2
:102C0000F90120812F77FC0120838BE390E02BE3F7
:102C100030E0F90120812064FC0120838BE390E007
:102C20002BE330E0F90120812F7DFC01208380E03F
:102C300090E0A0E0B0E48A839B83AC83BD836A818B
:102C40007B818C819D812BEA3AEA4AEA5EE30E940D
:102C50003A2CDC01CB018E839F83A887B98711E0D2
:102C60006E817F818885998520E030E040E85FE3D0
:102C70000E94EC2A88230CF010E0112319F081E067
:102C80008A87A3C011E06E817F818885998520E0C5
:102C900030E04FE753E40E94362C18160CF010E099
:102CA000112309F489C06A817B818C819D8120E098
:102CB00030E04AE754E40E94F02ADC01CB018B8724
:102CC0009C87AD87BE876B857C858D859E8520E042
:102CD00030E04AE753E40E943A2CDC01CB018F87B5
:102CE000988BA98BBA8B11E06F85788989899A892D
:102CF00020E030E040E85FE30E94EC2A88230CF0FB
:102D000010E0112329F081E090E09C8B8B8B46C072
:102D100011E06F85788989899A8920E03FEF4FE734
:102D200057E40E94362C18160CF010E0112361F1C4
:102D30006B857C858D859E8520E030E040E251E406
:102D40000E943A2CDC01CB01BC01CD010E94582B22
:102D5000DC01CB019C8B8B8B12C089E190E09E8BB8
:102D60008D8B8D899E898C01C8010197F1F78C01AB
:102D70001E8B0D8B8B899C8901979C8B8B8B8B89F0
:102D80009C89009751F728C06F85788989899A892D
:102D90000E94582BDC01CB019C8B8B8B8B899C89EF
:102DA000988F8F8B8F89988D8C01F8013197F1F76F
:102DB0008F01188F0F8B10C06E817F818885998558
:102DC0000E94582BDC01CB018A878A85898F898DE7
:102DD000182F1A95F1F7198F8BE390E02BE330E071
:102DE000F90120812062FC01208380E090E0A0E0D6
:102DF000B0E48A8F9B8FAC8FBD8F6A8D7B8D8C8D5D
:102E00009D8D2BEA3AEA4AEA5EE30E943A2CDC0105
:102E1000CB018E8F9F8FA8A3B9A311E06E8D7F8DFC
:102E200088A199A120E030E040E85FE30E94EC2A0D
:102E300088230CF010E0112319F081E08AA3A3C0CD
:102E400011E06E8D7F8D88A199A120E030E04FE7E1
:102E500053E40E94362C18160CF010E0112309F4EC
:102E600089C06A8D7B8D8C8D9D8D20E030E04AE796
:102E700054E40E94F02ADC01CB018BA39CA3ADA3F8
:102E8000BEA36BA17CA18DA19EA120E030E04AE70A
:102E900053E40E943A2CDC01CB018FA398A7A9A789
:102EA000BAA711E06FA178A589A59AA520E030E026
:102EB00040E85FE30E94EC2A88230CF010E0112325
:102EC00029F081E090E09CA78BA746C011E06FA19C
:102ED00078A589A59AA520E03FEF4FE757E40E9427
:102EE000362C18160CF010E0112361F16BA17CA1B7
:102EF0008DA19EA120E030E040E251E40E943A2CF6
:102F0000DC01CB01BC01CD010E94582BDC01CB01BF
:102F10009CA78BA712C089E190E09EA78DA78DA5E5
:102F20009EA58C01C8010197F1F78C011EA70DA782
:102F30008BA59CA501979CA78BA78BA59CA500970B
:102F400051F728C06FA178A589A59AA50E94582B92
:102F5000DC01CB019CA78BA78BA59CA598AB8FA769
:102F60008FA598A98C01F8013197F1F78F0118AB63
:102F70000FA710C06E8D7F8D88A199A10E94582B3C
:102F8000DC01CB018AA38AA189AB89A9182F1A95E4
:102F9000F1F719AB83E390E0FC018081881F88275B
:102FA000881F89838981882309F038CE84E390E0E3
:102FB00024E330E0F90120812068FC012083E196C0
:102FC0000FB6F894DEBF0FBECDBFCF91DF911F913A
:102FD0000F910895DF93CF93CDB7DEB78BE390E0E9
:102FE0002BE330E0F90120812061FC01208388E39C
:102FF00090E028E330E0F90120812D7FFC0120835F
:10300000CF91DF910895DF93CF93CDB7DEB788E3FB
:1030100090E028E330E0F90120812260FC01208368
:103020008BE390E02BE330E0F90120812F7EFC015F
:103030002083CF91DF910895EF92FF920F931F931A
:10304000DF93CF93CDB7DEB760970FB6F894DEBFAE
:103050000FBECDBF888B8091ED048D838091EC04F1
:103060008B831F861C8224E530E08889682F70E0FE
:1030700040E350E0649FC001659F900D749F900DE8
:103080001124820F931F9A83898388898A30B1F52E
:1030900001C000008F858F5F8F8789819A819F8310
:1030A0008E8389819A8101969A8389838E819F81FB
:1030B0008C01F801E590F4908F01F986E8861F8372
:1030C0000E83888599858A878A850E94CC148F858E
:1030D000883108F068C08F8596E0692F0E94BC2C6B
:1030E000892F8823B1F68B818F5F8B838D810E941E
:1030F000B4138B810E94B413CDCF00008F858F5FF6
:103100008F8789819A819C878B8789819A81019693
:103110009A8389838B859C858C01F801E590F490D6
:103120008F01FE86ED861C870B878D859E858A879D
:103130008A850E94CC148091ED048F5F8093ED040A
:103140008091ED0491E0803809F090E02091EB044B
:1031500081E0222309F080E08923882329F081E09F
:103160000E94030E81E08C838F858033F0F48F857D
:103170008F70882309F0C1CF8B818F5F8B838C8107
:10318000882321F080E00E94030E1C828D818093B1
:10319000ED048B818093EC048D810E94B4138B81AC
:1031A0000E94B413ABCF000001C0000060960FB6C0
:1031B000F894DEBF0FBECDBFCF91DF911F910F916D
:1031C000FF90EF900895DF93CF93CDB7DEB781E006
:1031D00062E040E30E94A50D8BE00E941C18CF9195
:1031E000DF910895DF93CF93CDB7DEB781E062E042
:1031F00040E30E94A50D8CE00E941C18CF91DF9146
:103200000895DF93CF93CDB7DEB787E390E027E350
:1032100030E0F90120812F79FC01208388E390E0E0
:1032200028E330E0F90120812066FC012083CF9162
:10323000DF910895DF93CF93CDB7DEB786E390E0BB
:10324000FC0180818072CF91DF910895DF93CF934D
:10325000CDB7DEB786E390E0FC0180818074CF912A
:10326000DF910895DF93CF9300D0CDB7DEB7789488
:103270000E947D240E94A30C0E945F240E94C2032E
:103280000E94EE290E9466290E945D0A80913C01FD
:1032900090913D010E94D6240E9401191A82198240
:1032A00007C00E94BF0589819A8101969A8389830C
:1032B00089819A8121E0843F920798F3109240011E
:1032C0000BC00E94BF058091E604882329F010926C
:1032D000E60480E00E94881B8091C904882389F756
:1032E0000E942D250E94D80601C000000E94BF0543
:1032F0008091E6048823C9F38091F9049091FA043F
:10330000A091FB04B091FC040097A105B10599F0D0
:103310008091F9049091FA04A091FB04B091FC040F
:103320000197A109B1098093F9049093FA04A0933D
:10333000FB04B093FC048091E2049091E304A0911B
:10334000E404B091E5040097A105B10599F08091DE
:10335000E2049091E304A091E404B091E5040197A4
:10336000A109B1098093E2049093E304A093E404DB
:10337000B093E5048091F3049091F404A091F504D6
:10338000B091F6040097A105B10599F08091F3047E
:103390009091F404A091F504B091F6040197A1096D
:1033A000B1098093F3049093F404A093F504B093CF
:1033B000F6041092E6040E943A258091C404882302
:1033C00011F00E94EE0B8091C804882321F40E9422
:1033D0002A240E94ED2080913D0182958695869554
:1033E00083708170982F81E0892781708170829528
:1033F000880F880F807C90913D019F7B892B809363
:103400003D0180913C0190913D010E94D6246ECFF8
:10341000DF93CF930F92CDB7DEB70E94720D80E09D
:103420000E94290E8091E0029091E102FC018281CC
:1034300093810E94C90E198255C02091E0023091FB
:10344000E1028981882F90E0880F991F820F931FD6
:103450000596FC0180819181009709F43FC080911D
:10346000E0029091E102FC01948189819817E9F4CE
:103470000E94530E89818E5F0E94290E2091E002E6
:103480003091E1028981882F90E0880F991F820F87
:10349000931F0596FC0180819181FC0182819381BB
:1034A0000E94C90E0E945D0E1AC089818E5F0E9423
:1034B000290E2091E0023091E1028981882F90E06D
:1034C000880F991F820F931F0596FC0180819181BF
:1034D000FC01828193810E94C90E01C00000898194
:1034E0008F5F89838981853008F4A7CF0F90CF91B2
:1034F000DF910895DF93CF930F92CDB7DEB7809120
:10350000CC04882321F082E00E94881B32C0809185
:10351000E0029091E102FC0124812F5FFC012483F1
:10352000FC01848189832091E0023091E10289814C
:10353000882F90E0880F991F820F931F0596FC013A
:1035400080819181009731F48091E0029091E102B5
:10355000FC01148200D08DB79EB7019622EE32E0B6
:10356000FC01318320830E94492D0F900F900E940F
:10357000081A0F90CF91DF910895DF93CF9300D079
:10358000CDB7DEB78091CC04882321F081E00E9482
:10359000881B44C08091E0029091E102FC0184818B
:1035A0008A838A810E941F2A8A81882369F5198269
:1035B00027C02091E0023091E1028981882F90E0BC
:1035C000880F991F820F931F0596FC0180819181BE
:1035D000009799F48091E0029091E10229812150B5
:1035E000FC0124838091E0029091E102FC0184813E
:1035F0000E941F2A0E94081A11C089818F5F898347
:1036000089818530B0F20AC08091E0029091E10298
:103610002A812150FC0124830E94081A0F900F90E8
:10362000CF91DF910895DF93CF93CDB7DEB780912F
:10363000CC04882321F084E00E94881B21C0809163
:10364000E0029091E102FC0180819181009771F08C
:103650008091E0029091E102FC0180819181909340
:10366000E1028093E0020E94081A0AC01092C80486
:103670000E94720D0E94ED200E94BF230E942A2406
:10368000CF91DF910895DF93CF930F92CDB7DEB73F
:103690008091CC04882321F083E00E94881B34C0F1
:1036A0008091E0029091E102FC0184818983209164
:1036B000E0023091E1028981882F90E0880F991F04
:1036C000820F931F0596FC0180819181FC01858109
:1036D00096810097B1F02091E0023091E10289815A
:1036E000882F90E0880F991F820F931F0596FC0189
:1036F000808191819093E1028093E0020E94081AF8
:1037000003C080E00E94881B0F90CF91DF91089545
:10371000EF92FF920F931F93DF93CF930F92CDB74A
:10372000DEB789838091E0029091E102FC01228161
:10373000338100D000D08DB79EB7019646EE52E09F
:10374000FC0151834083FC01338322830E94492D75
:103750000F900F900F900F908981282F30E000D0AC
:1037600000D08DB79EB701964CEE52E0FC0151831C
:103770004083FC01338322830E94492D0F900F90D8
:103780000F900F908091E0029091E102F2E08F3C67
:103790009F0709F048C28981843049F41092C90416
:1037A0001092CC040E94720D1092C80466C48091DD
:1037B000CC04882F90E08230910509F49EC08330BC
:1037C00091053CF4009791F08130910509F443C0D4
:1037D00054C48430910509F45DC1843091050CF422
:1037E00004C18530910509F4A9C147C484EF92E072
:1037F0000E945E2D81E08093C8040E94720D80E0DB
:103800000E94290E88EF92E00E94C90E81E00E947A
:10381000290E8EE093E00E94C90E86E00E94290ED8
:103820008FE193E00E94C90E87E00E94290E87E392
:1038300093E00E94C90E80E063E048E20E94A50D7B
:103840000E94D7270E94142881E08093CC0481E055
:103850008093C90412C480E493E00E945E2D80E04E
:1038600063E048E20E94A50D0E94D7270E94142819
:103870008981833009F0F2C3809186049091870496
:10388000CC01A0E0B0E0BC01CD010E94842BDC01A2
:10389000CB018093CD049093CE04A093CF04B0933A
:1038A000D0040E94D7279093CB048093CA040E942F
:1038B000720D80E00E94290E88EF92E00E94C90EEE
:1038C00086E00E94290E84E493E00E94C90E87E0FE
:1038D0000E94290E8CE593E00E94C90E80E063E00F
:1038E00048E20E94A50D8091CA049091CB040E94E9
:1038F000142882E08093CC04C0C38981882F90E093
:1039000082309105E1F08330910571F181309105AC
:1039100009F0A6C38091CA049091CB0401969093BC
:10392000CB048093CA0480E063E048E20E94A50DC6
:103930008091CA049091CB040E94142855C08091B4
:10394000CA049091CB0401979093CB048093CA044E
:1039500080E063E048E20E94A50D8091CA04909146
:10396000CB040E94142840C08091CA049091CB04DB
:10397000CC01A0E0B0E0BC01CD010E94842BDC01B1
:10398000CB018093D1049093D204A093D304B0933D
:10399000D4040E94720D80E00E94290E88EF92E00C
:1039A0000E94C90E81E00E94290E8FE693E00E94DA
:1039B000C90E86E00E94290E8FE193E00E94C90E95
:1039C00087E00E94290E87E393E00E94C90E80E001
:1039D00063E048E20E94A50D0E94D7270E941428A8
:1039E00083E08093CC04000048C380E063E048E2B9
:1039F0000E94A50D0E94D7270E9414288981833038
:103A000009F030C38091860490918704CC01A0E036
:103A1000B0E0BC01CD010E94842BDC01CB0180937E
:103A2000D5049093D604A093D704B093D8040E94F1
:103A3000D7279093CB048093CA040E94720D80E034
:103A40000E94290E88EF92E00E94C90E81E00E9438
:103A5000290E8FE693E00E94C90E86E00E94290E8F
:103A600084E493E00E94C90E87E00E94290E8CE551
:103A700093E00E94C90E80E063E048E20E94A50D39
:103A80008091CA049091CB040E94142884E0809312
:103A9000CC04F3C28981882F90E082309105E1F057
:103AA0008330910571F18130910509F0DDC280917B
:103AB000CA049091CB0401969093CB048093CA04DE
:103AC00080E063E048E20E94A50D8091CA049091D5
:103AD000CB040E94142830C08091CA049091CB047A
:103AE00001979093CB048093CA0480E063E048E29E
:103AF0000E94A50D8091CA049091CB040E941428C5
:103B00001BC08091CA049091CB04CC01A0E0B0E02E
:103B1000BC01CD010E94842BDC01CB018093D90430
:103B20009093DA04A093DB04B093DC040E94720D3E
:103B300085E08093CC04000000009FC28091D904EE
:103B40009091DA04A091DB04B091DC042091D104BF
:103B50003091D2044091D3045091D404BC01CD01E2
:103B60000E94872ADC01CB017C018D018091D50464
:103B70009091D604A091D704B091D8042091CD049F
:103B80003091CE044091CF045091D004BC01CD01BE
:103B90000E94872ADC01CB019C01AD01C801B7015D
:103BA0000E94F02ADC01CB0180938C0490938D0459
:103BB000A0938E04B0938F04E090D104F090D204CF
:103BC0000091D3041091D40480918C0490918D04C1
:103BD000A0918E04B0918F042091CD043091CE0439
:103BE0004091CF045091D004BC01CD010E943A2CE9
:103BF000DC01CB019C01AD01C801B7010E94872AFD
:103C0000DC01CB018093880490938904A0938A04FB
:103C1000B0938B041092C9040E94720D1092C804D4
:103C20001092CC042AC28091E0029091E10222E03D
:103C30008B38920709F580E99AE0ABE0B0E0809319
:103C4000C2009093C300A093C400B093C50010922B
:103C5000C80488EA92E09093E1028093E0020E9417
:103C6000720D0E94ED200E94BF230E942A2481E849
:103C700093E00E945E2D01C28091E0029091E102EA
:103C8000E2E088349E0709F060C08091E0029091E4
:103C9000E102FC0184818823A9F41092C8041092E7
:103CA000C20488EA92E09093E1028093E0020E94CD
:103CB000340B0E94720D0E94ED200E94BF230E94CF
:103CC0002A241DC08091E0029091E102FC018481D0
:103CD0008130A9F481E08093C2041092C80488EA7C
:103CE00092E09093E1028093E0020E94340B0E94E4
:103CF000720D0E94ED200E94BF230E942A24809111
:103D00009400813089F480E063E041E20E94A50DD7
:103D100081E30E94660E80E064E04EE10E94A50D02
:103D200080E20E94660EA9C180E063E041E20E9449
:103D3000A50D80E20E94660E80E064E04EE10E94E4
:103D4000A50D82E30E94660E98C18091E0029091D9
:103D5000E102F2E083369F0709F08FC18091E00213
:103D60009091E102FC018481813009F0AFC0809123
:103D7000CC04882F90E0009729F08130910509F458
:103D800041C07BC10E94720D80E00E94290E80918B
:103D9000E0029091E102FC0187819085FC01828123
:103DA00093810E94C90E86E00E94290E84E493E06C
:103DB0000E94C90E87E00E94290E83E993E00E94C9
:103DC000C90E81E063E045E00E94A50D00D08DB7EB
:103DD0009EB7019628EA33E0FC01318320830E94DC
:103DE000D2100F900F9080E063E048E20E94A50D92
:103DF0008091C6009091C7000E94452081E0809389
:103E0000CC043BC18981882F90E08230910581F1FB
:103E10008330910524F48130910551F02EC1833017
:103E2000910509F444C08430910509F448C025C1C6
:103E30008091C6009091C700F8E380349F0708F096
:103E400015C18091C6009091C70006969093C70057
:103E50008093C60080E063E048E20E94A50D1092C6
:103E6000BF048091C6009091C7000E94452005C103
:103E70008091C6009091C7008C33910508F4F8C07A
:103E80008091C6009091C7000A979093C7008093D5
:103E9000C60080E063E048E20E94A50D1092BF04D6
:103EA0008091C6009091C7000E944520E6C00E9404
:103EB000A20B1092CC040E94081A0000DEC00E94DF
:103EC000BA0B1092CC040E94081AD7C08091E0026D
:103ED0009091E102FC018481823009F0CEC0809192
:103EE000CC04882F90E0009729F08130910509F4E7
:103EF0004CC0C3C00E94720D80E00E94290E8091C8
:103F0000E0029091E102FC0187819085FC018281B1
:103F100093810E94C90E86E00E94290E84E493E0FA
:103F20000E94C90E87E00E94290E8FEA93E00E944A
:103F3000C90E81E067E044E10E94A50D8091C600B2
:103F40009091C7000E94452081E063E045E00E9417
:103F5000A50D00D08DB79EB7019628EA33E0FC018D
:103F6000318320830E94D2100F900F9080E063E095
:103F700048E20E94A50D8091C8009091C9000E945E
:103F8000452081E08093CC0478C08981882F90E01F
:103F900082309105B1F18330910524F4813091058F
:103FA00051F06BC08330910509F449C0843091050C
:103FB00009F44CC062C08091C6009091C7009C017A
:103FC000265030408091C8009091C9008217930715
:103FD00008F050C08091C8009091C9000696909357
:103FE000C9008093C80080E063E048E20E94A50D0C
:103FF0001092BF048091C8009091C9000E94452092
:104000003CC08091C8009091C9008C339105A0F10B
:104010008091C8009091C9000A979093C90080933D
:10402000C80080E063E048E20E94A50D1092BF0442
:104030008091C8009091C9000E9445201EC00E9436
:104040008A0B1092CC040E94081A17C00E94D40B4D
:104050001092CC040E94081A00000FC000000DC08E
:1040600000000BC0000009C0000007C0000005C030
:10407000000003C0000001C000000F90CF91DF914D
:104080001F910F91FF90EF900895DF93CF9300D091
:1040900000D0CDB7DEB79C838B838B819C8120E1E0
:1040A0003EE0B9010E94C82C9B01C9018983898126
:1040B000482F50E020E13EE0429FC001439F900D19
:1040C000529F900D11242B813C81A901481B590B53
:1040D000CA019C838B838B819C812CE330E0B901E6
:1040E0000E94C82C9B01C9018A8389818823B9F465
:1040F0008981282F30E000D000D08DB79EB701967F
:104100004DEB53E0FC0151834083FC013383228358
:104110000E94D2100F900F900F900F9016C08981BF
:10412000282F30E000D000D08DB79EB701964FEB1E
:1041300053E0FC0151834083FC01338322830E94BE
:10414000D2100F900F900F900F908A81882371F4F6
:1041500000D08DB79EB7019622EC33E0FC0131838D
:1041600020830E94D2100F900F9030C08A818A3035
:10417000B8F48A81282F30E000D000D08DB79EB7E8
:10418000019646EC53E0FC0151834083FC013383EC
:1041900022830E94D2100F900F900F900F9016C0A4
:1041A0008A81282F30E000D000D08DB79EB70196CD
:1041B0004BEC53E0FC0151834083FC0133832283A9
:1041C0000E94D2100F900F900F900F900F900F90B1
:1041D0000F900F90CF91DF910895DF93CF93CDB7DC
:1041E000DEB72A970FB6F894DEBF0FBECDBF80E0D2
:1041F00067E04AE00E94A50D0E94D7270E9414287C
:104200008091C2009091C300A091C400B091C500FC
:1042100081312EE0920720E0A20720E0B20708F4E7
:104220004CC08091DD04823099F48091C20090915D
:10423000C300A091C400B091C5000197A109B109C4
:104240008093C2009093C300A093C400B093C500B4
:1042500081E067E044E10E94A50D8091C200909149
:10426000C300A091C400B091C50020E13EE040E051
:1042700050E0BC01CD010E94DC2CDA01C90100D064
:1042800000D000D02DB73EB72F5F3F4F4FEC53E02B
:10429000F90151834083F90182839383A483B58319
:1042A0000E94D2108DB79EB706960FB6F8949EBFA7
:1042B0000FBE8DBF0E94420B17C081E067E044E152
:1042C0000E94A50D00D08DB79EB7019627ED33E073
:1042D000FC01318320830E94D2100F900F908091B7
:1042E000C40484608093C4048091A500882309F0ED
:1042F00010C28091C204813009F01EC10E946D0974
:10430000DC01CB018B839C83AD83BE838B819C813D
:10431000AD81BE818931F7E49F07F0E0AF07F0E09F
:10432000BF0740F088E197E4A0E0B0E08B839C8376
:10433000AD83BE838B819C81AD81BE818436910526
:10434000A105B105B0F584E690E0A0E0B0E08B8374
:104350009C83AD83BE8380E062E04AE20E94A50DAB
:1043600080E190E00E941C1880E062E04CE30E9433
:10437000A50D8EE090E00E941C1881E062E04CE008
:104380000E94A50D80E090E00E941C1881E062E090
:104390004CE10E94A50D8AE090E00E941C1881E08B
:1043A00062E040E20E94A50D81E090E00E941C18AE
:1043B000DDC181E062E04AE00E94A50D8AE090E064
:1043C0000E941C188B819C81AD81BE8120E137E267
:1043D00040E050E0BC01CD010E94DC2CDA01C901B3
:1043E00089838B819C81AD81BE8120E137E240E0F1
:1043F00050E0BC01CD010E94DC2CDC01CB018B83A1
:104400009C83AD83BE838981882359F080E062E07C
:104410004AE20E94A50D8981882F90E00E941C1815
:1044200009C080E062E04AE20E94A50D80E190E0D0
:104430000E941C188B819C81AD81BE8128EE33E0E7
:1044400040E050E0BC01CD010E94DC2CDA01C90142
:1044500089838B819C81AD81BE8128EE33E040E071
:1044600050E0BC01CD010E94DC2CDC01CB018B8330
:104470009C83AD83BE8380E062E04AE30E94A50D89
:104480008981882F90E00E941C188B819C81AD81CE
:10449000BE8124E630E040E050E0BC01CD010E9446
:1044A000DC2CDA01C90189838B819C81AD81BE81BD
:1044B00024E630E040E050E0BC01CD010E94DC2C5D
:1044C000DC01CB018B839C83AD83BE8381E062E002
:1044D00040E10E94A50D8981882F90E00E941C1860
:1044E0008B819C81AD81BE812AE030E040E050E0CC
:1044F000BC01CD010E94DC2CDA01C90189838B81CA
:104500009C81AD81BE812AE030E040E050E0BC01FA
:10451000CD010E94DC2CDC01CB018B839C83AD831D
:10452000BE8381E062E040E20E94A50D8981882F70
:1045300090E00E941C181AC10E94260ADC01CB01DF
:104540008F839887A987BA878F819885A985BA852F
:1045500087339105A105B10540F487E390E0A0E021
:10456000B0E08F839887A987BA878F819885A985BE
:10457000BA85803127E2920720E0A20720E0B20747
:1045800070F180E062E044E30E94A50D80E190E0DC
:104590000E941C1880E062E049E20E94A50D80E1C3
:1045A00090E00E941C1881E062E041E00E94A50DAD
:1045B0008DE090E00E941C1881E062E040E10E94E2
:1045C000A50D81E090E00E941C1881E062E040E2CD
:1045D0000E94A50D80E090E00E941C18C7C080E0FA
:1045E00062E04AE30E94A50D8AE090E00E941C1858
:1045F0008F819885A985BA8528EE33E040E050E0A8
:10460000BC01CD010E94DC2CDA01C9018A838F81B3
:104610009885A985BA8528EE33E040E050E0BC01DA
:10462000CD010E94DC2CDC01CB018F839887A98708
:10463000BA8780E062E049E20E94A50D8A81882F56
:1046400090E00E941C188F819885A985BA8524E680
:1046500030E040E050E0BC01CD010E94DC2CDA01EA
:10466000C9018A838F819885A985BA8524E630E0BF
:1046700040E050E0BC01CD010E94DC2CDC01CB010C
:104680008F839887A987BA8781E062E040E00E9423
:10469000A50D8A81882F90E00E941C188F81988533
:1046A000A985BA852AE030E040E050E0BC01CD01A8
:1046B0000E94DC2CDA01C9018A838F819885A98543
:1046C000BA852AE030E040E050E0BC01CD010E9414
:1046D000DC2CDC01CB018F839887A987BA8781E026
:1046E00062E040E10E94A50D8A81882F90E00E943F
:1046F0001C188F819885A985BA858A8381E062E03C
:1047000040E20E94A50D8A81882F90E00E941C182B
:104710002DC081E062E040E20E94A50D8FE090E0B4
:104720000E941C1881E062E040E10E94A50D8FE02C
:1047300090E00E941C1881E062E040E00E94A50D1C
:104740008FE090E00E941C1880E062E042E30E944B
:10475000A50D80E190E00E941C1880E062E047E235
:104760000E94A50D80E190E00E941C182A960FB6C9
:10477000F894DEBF0FBECDBFCF91DF910895DF93D8
:10478000CF93CDB7DEB78091DD04882F90E08330E2
:104790009105A9F1843091054CF481309105F9F02F
:1047A0008230910524F5009791F051C08630910533
:1047B000B1F18730910524F48430910541F147C06F
:1047C00087309105A1F188309105C9F140C080E0A2
:1047D0000E94290E85E591E00E94C90E38C080E054
:1047E0000E94290E8FE591E00E94C90E30C080E042
:1047F0000E94290E8BE491E00E94C90E28C080E03F
:104800000E94290E89E691E00E94C90E20C080E036
:104810000E94290E83E791E00E94C90E18C080E033
:104820000E94290E8FE591E00E94C90E10C080E021
:104830000E94290E8FE591E00E94C90E08C080E019
:104840000E94290E8BE991E00E94C90E0000CF91D1
:10485000DF910895DF93CF93CDB7DEB70E9426197D
:10486000882351F081E060E041E10E94A50D87E8D6
:1048700091E00E94C90E17C08091DD04863051F48A
:1048800081E060E041E10E94A50D8DE791E00E948A
:10489000C90E09C081E060E041E10E94A50D81E9F7
:1048A00091E00E94C90E8091C204882319F00E94F1
:1048B000F21802C00E94E318CF91DF910895DF93B0
:1048C000CF93CDB7DEB783E590E023E530E0F90183
:1048D00020812967FC01208387E390E027E330E013
:1048E000F90120812860FC0120838CE590E025E916
:1048F000FC012083CF91DF910895DF93CF93CDB753
:10490000DEB781E390E021E330E0F9012081206E01
:10491000FC01208380E090E00E94D624CF91DF91BB
:104920000895DF93CF93CDB7DEB782E390E022E323
:1049300030E0F90120812064FC01208382E390E0D3
:1049400022E330E0F90120812F7BFC012083CF910D
:10495000DF9108951F93DF93CF9300D0CDB7DEB7DB
:1049600082E390E022E330E0F90120812068FC013D
:10497000208381E089838981182F1A95F1F71983A3
:1049800082E390E022E330E0F90120812F77FC01FF
:10499000208381E08A838A81182F1A95F1F71A8380
:1049A0000F900F90CF91DF911F910895DF93CF93D8
:1049B00000D00F92CDB7DEB79B838A83198222C0C5
:1049C0008A819B81992354F482E390E022E330E0D2
:1049D000F90120812062FC01208309C082E390E07C
:1049E00022E330E0F90120812F7DFC0120830E9429
:1049F00091248A819B81880F991F9B838A83898157
:104A00008F5F898389818031D8F20E94AA240F9018
:104A10000F900F90CF91DF910895DF93CF93CDB793
:104A2000DEB780913C018F7D80933C0180913D01F8
:104A30008F7780933D0180913C018F7E80933C0174
:104A400080913C018F7B80933C0180913C018F776A
:104A500080933C01CF91DF910895DF93CF93CDB741
:104A6000DEB70E94720D1092DD040E94BF23CF9129
:104A7000DF910895DF93CF93CDB7DEB78091DD044A
:104A8000882F90E08430910509F431C1853091057B
:104A900084F48130910511F1823091050CF429C123
:104AA0008230910509F44BC08330910509F48AC026
:104AB0002DC18730910509F4B9C0883091052CF4D7
:104AC0008630910509F49FC021C18830910509F411
:104AD000E2C08930910509F4F0C018C10E9426197E
:104AE0000097E9F02091C6003091C7008091C8007E
:104AF0009091C900A901481B590BCA01CC01A0E043
:104B0000B0E08093F9049093FA04A093FB04B0936F
:104B1000FC0487E08093DD040E948926F7C00E9490
:104B20001A19009731F086E08093DD040E948926EF
:104B3000EDC082E08093DD040E948926E7C00E94D8
:104B400026190097A9F08091E0039091E103CC0130
:104B5000A0E0B0E08093E2049093E304A093E40427
:104B6000B093E50489E08093DD040E94892609C0A2
:104B70000E941A19009729F086E08093DD040E94B4
:104B800089268091F9049091FA04A091FB04B091D8
:104B9000FC040097A105B10529F483E08093DD04AE
:104BA0000E9489268091F3049091F404A091F50469
:104BB000B091F6040097A105B10509F09CC00E94D0
:104BC000730CA4C08091F9049091FA04A091FB04A5
:104BD000B091FC040097A105B10529F481E0809310
:104BE000DD040E9489268091F3049091F404A09141
:104BF000F504B091F6040097A105B10509F07DC058
:104C00000E94730C83C082EE93E00E945E2D0E948E
:104C10001A19009709F073C08CEF93E00E945E2D83
:104C200082E08093DD040E94892670C00E942619CC
:104C3000009791F48091E2049091E304A091E40440
:104C4000B091E5040097A105B10591F482E080934D
:104C5000DD040E9489260CC08AE090E0A0E0B0E06C
:104C60008093E2049093E304A093E404B093E504FA
:104C70008091F9049091FA04A091FB04B091FC0496
:104C80000097A105B10509F03CC083E08093DD04E5
:104C90000E9489263BC08091F9049091FA04A0916A
:104CA000FB04B091FC040097A105B10561F581E01A
:104CB0008093DD040E94892629C08091E2049091AE
:104CC000E304A091E404B091E5040097A105B105C7
:104CD000E1F40E942619009721F087E08093DD041B
:104CE00003C082E08093DD040E9489260FC000008B
:104CF0000DC000000BC0000009C0000007C000008C
:104D000005C0000003C0000001C00000CF91DF918A
:104D10000895DF93CF93CDB7DEB78091DD04282FC0
:104D200030E000D000D08DB79EB7019648E154E046
:104D3000FC0151834083FC01338322830E94492D6F
:104D40000F900F900F900F908091DD04882F90E0CE
:104D50008430910509F4C6C0853091058CF481300A
:104D6000910521F1823091051CF40097D1F0F3C038
:104D70008230910581F18330910509F484C0EBC044
:104D80008730910509F4C9C0883091052CF486302C
:104D9000910509F4B8C0DFC08830910509F4C2C09C
:104DA000DAC00E940D250E94BF23D5C01092F904DD
:104DB0001092FA041092FB041092FC041092E20488
:104DC0001092E3041092E4041092E5040E94BF23C1
:104DD0000E940D25C0C00E942619009731F087E07F
:104DE0008093DD040E948926B6C00E941A1900979C
:104DF00051F083E294E00E945E2D86E08093DD0412
:104E00000E948926A8C00E9436092091C6003091D0
:104E1000C7008091C8009091C900A901481B590B97
:104E2000CA01CC01A0E0B0E08093F9049093FA04A9
:104E3000A093FB04B093FC040E940D2580913C01DB
:104E4000806180933C0180913C01806280933C01B1
:104E500080913C01886080933C010E94BF23809137
:104E6000DE039091DF03CC01A0E0B0E08093F30477
:104E70009093F404A093F504B093F6048DE394E0CA
:104E80000E945E2D68C00E94FE080E940D25809140
:104E90003C01806480933C0180913C01816080935F
:104EA0003C010E94BF238091C8009091C900CC01B1
:104EB000A0E0B0E08093F9049093FA04A093FB047F
:104EC000B093FC048091DE039091DF03CC01A0E05D
:104ED000B0E08093F3049093F404A093F504B093AE
:104EE000F60439C00E94FE080E940D2580913C0105
:104EF000806480933C0180913D01806880933D01F6
:104F00000E94BF2328C00E940D2580913C01806132
:104F100080933C010E94BF231EC00E940D250E9469
:104F2000BF2319C00E940D2580913C018F7780938B
:104F30003C010E94BF238091F7049091F804CC01BA
:104F4000A0E0B0E08093F9049093FA04A093FB04EE
:104F5000B093FC040000CF91DF910895DF93CF93CD
:104F600000D0CDB7DEB79A83898389819A81FC010D
:104F7000808191810F900F90CF91DF910895DF9301
:104F8000CF9300D000D0CDB7DEB79A8389837C83DE
:104F90006B8389819A812B813C81FC013183208341
:104FA0000F900F900F900F90CF91DF910895DF93A6
:104FB000CF9300D0CDB7DEB780918604909187045F
:104FC000CC01A0E0B0E0BC01CD010E94842BDC014B
:104FD000CB0120918C0430918D0440918E0450912E
:104FE0008F04BC01CD010E943A2CDC01CB01209141
:104FF00088043091890440918A0450918B04BC014B
:10500000CD010E94882ADC01CB01BC01CD010E94A8
:10501000582BDC01CB019A83898389819A810F9077
:105020000F90CF91DF910895DF93CF93CDB7DEB787
:1050300027970FB6F894DEBF0FBECDBF9F838E8338
:105040008E819F81CC01A0E0B0E02DB73EB72A5001
:1050500030400FB6F8943EBF0FBE2DBF2DB73EB700
:105060002F5F3F4FAE014F5F5F4FF9015183408388
:1050700045E050E0F9015383428340E954E0F901EF
:1050800055834483F90186839783A087B1870E9463
:10509000932D2DB73EB7265F3F4F0FB6F8943EBF16
:1050A0000FBE2DBF8E819F818436910580F189814D
:1050B000682F70E08A81482F50E08B81282F30E0E4
:1050C0008DB79EB708970FB6F8949EBF0FBE8DBFE1
:1050D0008DB79EB70196E4E9F4E0DC01ED93FC9313
:1050E000FC0173836283DC0115965C934E931497E5
:1050F000FC01378326830E94D2102DB73EB7285F6C
:105100003F4F0FB6F8943EBF0FBE2DBF3FC08E81FC
:105110009F818A30910520F18981482F50E08A8152
:10512000282F30E000D000D000D08DB79EB7019678
:1051300061EA74E0DC016D937C93FC01538342834C
:10514000DC0115963C932E9314970E94D210EDB774
:10515000FEB736960FB6F894FEBF0FBEEDBF16C071
:105160008981282F30E000D000D08DB79EB70196FE
:105170004DEA54E0DC014D935C93FC0133832283C0
:105180000E94D2100F900F900F900F9027960FB69D
:10519000F894DEBF0FBECDBFCF91DF9108950F937E
:1051A0001F93DF93CF93CDB7DEB72A970FB6F8944E
:1051B000DEBF0FBECDBF0E94D7279A838983898126
:1051C0009A8121E0853F920720F084EF91E09A8355
:1051D000898389819A81009711F41A8219828981C1
:1051E0009A8122E330E0B9010E94C82C9B01C901D9
:1051F0008B8389819A8122E330E0B9010E94C82C17
:105200008C838B81882F90E0880F991F880F991FBE
:10521000865A9B4FFC0180819181A281B3819C01C0
:105220008B81882F90E00196880F991F880F991F16
:10523000865A9B4FFC0180819181A281B381A90193
:10524000481B590BCA019E838D838B81882F90E068
:10525000880F991F880F991F865A9B4FFC01008168
:105260001181228133818D819E8142E350E0BA0118
:105270000E94C82CAB01BA018C81482F50E0649F7A
:10528000C001659F900D749F900D1124CC01A0E08A
:10529000B0E0B901A801481B590B6A0B7B0BDB017D
:1052A000CA018F839887A987BA878F819885A98536
:1052B000BA85BC01CD012A960FB6F894DEBF0FBEA9
:1052C000CDBFCF91DF911F910F910895DF93CF93C1
:1052D000CDB7DEB785E490E025E430E0F901208128
:1052E0002F60FC01208383E490E023E430E0F901A7
:1052F00020812D67FC01208389E590E029E530E0DD
:10530000F90120812068FC012083CF91DF9108956D
:105310001F920F920FB60F9211248F939F93AF930A
:10532000BF93DF93CF93CDB7DEB78091E7048D377E
:1053300009F044C081E08093E6048091DE049091FE
:10534000DF04A091E004B091E1040097A105B1054C
:1053500099F08091DE049091DF04A091E004B09177
:10536000E1040197A109B1098093DE049093DF0461
:10537000A093E004B093E1048091E2049091E304EF
:10538000A091E404B091E5040097A105B10599F05E
:105390008091E2049091E304A091E404B091E504CB
:1053A0000197A109B1098093E2049093E304A093CB
:1053B000E404B093E5041092E70405C08091E7048B
:1053C0008F5F8093E704CF91DF91BF91AF919F9161
:1053D0008F910F900FBE0F901F901895DF93CF9372
:1053E000CDB7DEB780E490E0FC01108289E290E066
:1053F00027E6FC0120838AE290E02AE230E0F9010E
:1054000020812861FC0120838AE290E02AE230E0DA
:10541000F90120812068FC01208380E490E020E4F1
:1054200030E0F90120812668FC01208388E49AE2BB
:1054300060E070E00E94FE2CCF91DF910895DF9331
:10544000CF930F92CDB7DEB7898300008BE290E057
:10545000FC018081882F90E0807290700097B1F3FA
:105460008CE290E02981FC0120830F90CF91DF91A5
:105470000895DF93CF93CDB7DEB78BE290E0FC01C8
:1054800080818CE290E0FC018081CF91DF910895D2
:10549000DF93CF9300D00F92CDB7DEB789837B83A4
:1054A0006A8300008BE290E0FC018081882F90E00D
:1054B000807290700097B1F38CE290E02981FC013A
:1054C000208380E090E00F900F900F90CF91DF91BC
:1054D00008951F920F920FB60F9211248F939F93EE
:1054E000EF93FF93DF93CF93CDB7DEB78CE290E0DD
:1054F000FC01808180933E01CF91DF91FF91EF917C
:105500009F918F910F900FBE0F901F90189550583C
:10551000BB27AA270ED070C161D130F066D120F030
:1055200031F49F3F11F41EF456C10EF4E095E7FBF1
:105530004CC1E92F72D180F3BA1762077307840751
:10554000950718F071F49EF58AC10EF4E0950B2EC4
:10555000BA2FA02D0B01B90190010C01CA01A001C5
:105560001124FF27591B99F0593F50F4503E68F120
:105570001A16F040A22F232F342F4427585FF3CF61
:10558000469537952795A795F0405395C9F77EF432
:105590001F16BA0B620B730B840BBAF09150A1F07B
:1055A000FF0FBB1F661F771F881FC2F70EC0BA0F01
:1055B000621F731F841F48F4879577956795B79589
:1055C000F7959E3F08F0B3CF9395880F08F0992781
:1055D000EE0F979587950895D4D008F481E008954B
:1055E0000CD00AC102D140F0F9D030F021F45F3F75
:1055F00019F0EBC0511134C1EEC00FD198F39923CB
:10560000C9F35523B1F3951B550BBB27AA27621786
:105610007307840738F09F5F5F4F220F331F441FCB
:10562000AA1FA9F333D00E2E3AF0E0E830D0915003
:105630005040E695001CCAF729D0FE2F27D0660FF0
:10564000771F881FBB1F261737074807AB07B0E82F
:1056500009F0BB0B802DBF01FF2793585F4F2AF045
:105660009E3F510568F0B1C0FBC05F3FECF3983E30
:10567000DCF3869577956795B795F7959F5FC9F7A2
:10568000880F911D9695879597F90895E1E0660F2B
:10569000771F881FBB1F621773078407BA0720F0A4
:1056A000621B730B840BBA0BEE1F88F7E09508950D
:1056B000BCD088F09F5790F0B92F9927B751A0F030
:1056C000D1F0660F771F881F991F1AF0BA95C9F796
:1056D00012C0B13081F0C3D0B1E00895C0C0672FCF
:1056E000782F8827B85F39F0B93FCCF38695779546
:1056F0006795B395D9F73EF490958095709561952F
:105700007F4F8F4F9F4F0895E89409C097FB3EF459
:1057100090958095709561957F4F8F4F9F4F9923FE
:10572000A9F0F92F96E9BB279395F695879577957C
:105730006795B795F111F8CFFAF4BB0F11F460FF3C
:105740001BC06F5F7F4F8F4F9F4F16C0882311F094
:1057500096E911C0772321F09EE8872F762F05C0A8
:10576000662371F096E8862F70E060E02AF09A9543
:10577000660F771F881FDAF7880F9695879597F938
:105780000895990F0008550FAA0BE0E8FEEF1616D2
:105790001706E807F907C0F012161306E407F50725
:1057A00098F0621B730B840B950B39F40A2661F099
:1057B000232B242B252B21F408950A2609F4A1403C
:1057C000A6958FEF811D811D089597F99F6780E849
:1057D00070E060E008959FEF80EC089500240A9443
:1057E0001616170618060906089500240A941216BC
:1057F0001306140605060895092E0394000C11F4EF
:10580000882352F0BB0F40F4BF2B11F460FF04C09B
:105810006F5F7F4F8F4F9F4F089557FD9058440FF4
:10582000551F59F05F3F71F04795880F97FB991FFF
:1058300061F09F3F79F087950895121613061406BC
:10584000551FF2CF4695F1DF08C016161706180649
:10585000991FF1CF86957105610508940895E89424
:10586000BB2766277727CB0197F908958ADF08F4CD
:105870008FEF08950BD0C0CFB1DF28F0B6DF18F05E
:10588000952309F0A2CFA7CF1124EACFC6DFA0F35A
:10589000959FD1F3950F50E0551F629FF001729FC5
:1058A000BB27F00DB11D639FAA27F00DB11DAA1FE4
:1058B000649F6627B00DA11D661F829F2227B00D31
:1058C000A11D621F739FB00DA11D621F839FA00DBC
:1058D000611D221F749F3327A00D611D231F849F0C
:1058E000600D211D822F762F6A2F11249F57504063
:1058F0008AF0E1F088234AF0EE0FFF1FBB1F661FFE
:10590000771F881F91505040A9F79E3F510570F0B6
:105910005CCFA6CF5F3FECF3983EDCF3869577959E
:105920006795B795F795E7959F5FC1F7FE2B880FB1
:10593000911D9695879597F90895629FD001739F61
:10594000F001829FE00DF11D649FE00DF11D929F1B
:10595000F00D839FF00D749FF00D659FF00D99275A
:10596000729FB00DE11DF91F639FB00DE11DF91F7E
:10597000BD01CF0111240895991B79E004C0991F3E
:10598000961708F0961B881F7A95C9F78095089599
:10599000AA1BBB1B51E107C0AA1FBB1FA617B70755
:1059A00010F0A61BB70B881F991F5A95A9F7809571
:1059B0009095BC01CD010895A1E21A2EAA1BBB1B34
:1059C000FD010DC0AA1FBB1FEE1FFF1FA217B307CB
:1059D000E407F50720F0A21BB30BE40BF50B661FE1
:1059E000771F881F991F1A9469F7609570958095A5
:1059F00090959B01AC01BD01CF0108950F931F93BA
:105A0000CF93DF938C01EB01009711F42097C9F13C
:105A100081E090E06EE070E00E94D92FFC019C01D3
:105A2000009789F180E88383209771F0D387C2873C
:105A300081E883838091FD049091FE04009721F416
:105A4000F093FE04E093FD0401151105E1F01187C8
:105A500000878381826083838091FF049091000599
:105A6000009789F4F0930005E093FF04809101050D
:105A700090910205009739F4F0930205E093010537
:105A800002C020E030E0C901DF91CF911F910F915A
:105A90000895A0E0B0E0EFE4FDE20C94F731FE01E0
:105AA0003596619171918091FF0490910005AF014D
:105AB0000E94C42D2096E2E00C941332EF92FF92E4
:105AC0000F931F93CF93DF938C01E091FF04F0912C
:105AD0000005838181FF1FC0C0E0D0E00AC0DB0168
