:100000000C9486030C94D8070C941A070C94A30341
:100010000C94842B0C94A3030C94A3030C94A303BF
:100020000C94A3030C9405070C94A3030C94A30352
:100030000C94A3030C94652C0C94A3030C94A303BD
:100040000C94E9030C94A3030C94A3030C94A30352
:100050000C94A3030000C0E0F0F838181838F8F04A
:10006000E0C0000000FFFFFFFF000000000000FFF5
:10007000FFFFFF0000071F3F7FF8E0C0C0E0F87FF0
:100080003F1F0700000000808080C0E0F8F8F8F80B
:10009000000000000000000101010101FFFFFFFF5F
:1000A000000000000000000000000000FFFFFFFF54
:1000B000000000000080E0F0F0783818181878F898
:1000C000F0E0C00000010101010080C0E0F0F87F15
:1000D0003F1F0F00E0F0F8FCFEDFCFC7C3C1C0C078
:1000E000C0C0C00000C0E0F0F83818181838F8F0A8
:1000F000E0C0000000000000000030303078FFFF5A
:10010000EFC78000000C3C7C7CF0E0C0C0E0F07FDA
:100110007F3F0F0000000000000000C0E0F8F8F88A
:10012000F80000000080E0F07C3E0F0701FFFFFFB9
:10013000FF000000070707070606060606FFFFFF89
:10014000FF0606060000F8F8F8F81818181818182E
:100150001800000000003F3F3F1F1C0C0C1C3CF827
:10016000F8F0C000000C3C7C7CF0E0C0C0E0F07F08
:100170007F3F0F0000C0E0F0F83818181838F8F08A
:10018000E0C0000000FFFFFFFF381C0C0C1C3CFC13
:10019000F8F0C00000071F3F7FF8E0C0C0E0F07F2C
:1001A0007F3F0F0000181818181818181818D8F8DA
:1001B000F8F8380000000000000000C0F8FEFF3F23
:1001C0000F0100000000000000F0FEFFFF0F010023
:1001D000000000000000C0F0F0F838181838F8F0FF
:1001E000F0C00000000083CFFFFF7C78787CFFFF29
:1001F000CF830000001F3F7F7FF0E0C0C0E0F07FB2
:100200007F3F1F000080E0F0F07838181838F8F0D1
:10021000E0C00000000F3F7FFFF0E0C0C0E070FFD3
:10022000FFFFFF0000183878F8E0C0C0E0F0FC7F66
:100230003F1F03000000000000000000000000005D
:1002400000E0E0E00000000000000000000000000E
:1002500000E0E0E0E0000000000000E0E0E0E0E0BE
:10026000E0E0E00000000000000000F0F8181818BE
:100270003830000000FE2020103E003173636363BD
:100280007F3E00000002728A8A8A0202FA0AFA0A93
:10029000FA0200000000F0204020F000E0301010D2
:1002A00030E0000000000700000017A045A7100084
:1002B000070500000000788484840100FC04F90430
:1002C000F800000000000000C0E0C0800000000056
:1002D0000000000000000000000103078FDEFCF8B2
:1002E0007020000000000000183C1E0F07030100F2
:1002F000000000000000000000000000000080C0BE
:10030000E0C00000000000002070F8FCDE8F070352
:1003100001000000000000000000000103070F1EA4
:100320003C18000000000000000000000000000079
:1003300000000000000000383838383838383838C5
:10034000383800000000000000000000000000003D
:10035000000000000000000000000000000000009D
:10036000000000000000000000000000000000008D
:10037000000000000000000000000000000000007D
:1003800000000000FFFFFFFFFF00FFFFFFFFFFFF78
:1003900000FFFFFFFFFFFF00FFFFFFFFFFFF00FF6A
:1003A000FFFFFFFFFF00FFFFFFFFFFFF00FFFFFF5B
:1003B000FFFFFF00FFFFFFFFFFFF00FFFFFFFFFF4B
:1003C000FF00FFFFFFFFFFFF00FFFFFFFFFFFF003A
:1003D000FFFFFFFFFFFF00FFFFFFFFFFFF00FFFF2B
:1003E000FFFFFFFF00FFFFFFFFFFFF00FFFFFFFF1B
:1003F000FFFF00FFFFFFFFFFFF00FFFFFFFFFFFF0B
:1004000000FFFFFFFFFFFF00FFFFFFFFFFFF00FFF9
:10041000FFFFFFFFFF00FFFFFFFFFFFF00FFFFFFEA
:10042000FFFFFF00FFFFFFFFFFFF00FFFFFFFFFFDA
:10043000FF00FFFFFFFFFFFF00FFFFFFFFFFFF00C9
:10044000FFFFFFFFFFFF00FFFFFFFFFFFF00FFFFBA
:10045000FFFFFFFF00FFFFFFFFFFFF00FFFFFFFFAA
:10046000FFFF00FF0000000000FFFF00004F000042
:1004700000FF000700070000FF147F147F1400FF37
:10048000242A7F2A1200FF231308646200FF3649E2
:1004900055222000FF000503000000FF001C224140
:1004A0000000FF0041221C0000FF14083E08140059
:1004B000FF08083E080800FF503000000000FF0859
:1004C0000808080800FF006060000000FF20100816
:1004D000040200FF3E5149453E00FF40427F40403C
:1004E00000FF426151494600FF2141454B3100FF69
:1004F0001814127F1000FF274545453900FF3C4A7C
:1005000049493000FF017109050300FF3649494997
:100510003600FF064949291E00FF0036360000005C
:10052000FF005636000000FF081422410000FF14AF
:100530001414141400FF004122140800FF0201519A
:10054000090600FF000002050200FF7E1111117E66
:1005500000FF7F4949493600FF3E4141412200FFEB
:100560007F4141221C00FF7F4949494100FF7F092B
:1005700009090100FF3E4149497A00FF7F08080848
:100580007F00FF00417F410000FF2040413F01000C
:10059000FF7F0814224100FF7F4040404000FF7F62
:1005A000020C027F00FF7F0408107F00FF3E4141E4
:1005B000413E00FF7F0909090600FF3E4151215ECF
:1005C00000FF7F0919294600FF264949493200FFEB
:1005D00001017F010100FF3F4040403F00FF1F201D
:1005E00040201F00FF3F4038403F00FF63140814C5
:1005F0006300FF070870080700FF61514945430089
:10060000FF007F41410000FF020408102000FF00AE
:1006100041417F0000FF040201020400FF4040400E
:10062000404000FF000003050000FF2054545478B0
:1006300000FF7F4444443800FF384444444400FFF2
:10064000384444447F00FF385454541800FF0404D5
:100650007E050500FF085454543C00FF7F08040445
:100660007800FF00447D4000FFFF2040443D00FF34
:10067000FF7F10284400FFFF417F4000FFFFFF7C09
:10068000047C047800FF7C0804047800FF384444AC
:10069000443800FF7C1414140800FF081414147C60
:1006A00000FF7C08040400FFFF485454542400FF5A
:1006B00004043F444400FF3C4040207C00FF1C20D9
:1006C00040201C00FF3C4030403C00FF44281028E4
:1006D0004400FF0C5050503C00FF4464544C440014
:1006E000FF083641410000FF000077000000FF00D6
:1006F0004141360800FF08082A1C0800FF081C2A90
:10070000080800FFFFFFFFFFFF00FF0011241FBECE
:10071000CFE5D8E0DEBFCDBF13E0A0E6B0E0E8E370
:10072000F8E602C005900D92AC3BB107D9F714E092
:10073000ACEBB3E001C01D92AC30B107E1F70E9411
:100740005F1A0C941A340C940000DF93CF93CDB74A
:10075000DEB7F89481E0CF91DF910895DF93CF93D6
:1007600000D0CDB7DEB79A8389838FE590E02981E9
:100770003A81F9012081FC0120830F900F90CF91E5
:10078000DF910895DF93CF93CDB7DEB786E290E097
:1007900026E230E0F90120812760FC01208387E216
:1007A00090E020E4FC01208386E290E026E230E045
:1007B000F90120812868FC01208386E290E026E28E
:1007C00030E0F90120812064FC012083CF91DF918A
:1007D00008951F920F920FB60F921124EF92FF927D
:1007E0000F931F932F933F934F935F936F937F9339
:1007F0008F939F93AF93BF93EF93FF93DF93CF9329
:1008000000D000D0CDB7DEB78FE590E0FC0180814D
:100810008C830E94A5038B8313C084E290E0FC01CB
:100820008081282F30E085E290E0FC018081882FD4
:1008300090E0982F8827822B932B9A8389831B82A1
:100840008B81882351F7CE0104960E94AE0387E284
:1008500090E0FC018081882F90E08034910529F0A0
:100860008134910509F447C08CC087E290E021E40F
:10087000FC0120838091830390918403CC01A0E04C
:10088000B0E0BC01CD010E94802DDC01CB01BC0198
:10089000CD012DEC3CEC4CE45FE30E94362EDC01F4
:1008A000CB017C018D0189819A81CC01A0E0B0E06F
:1008B000BC01CD010E94802DDC01CB01BC01CD012A
:1008C0002DEC3CEC4CE45EE30E94362EDC01CB01C7
:1008D0009C01AD01C801B7010E94842CDC01CB0151
:1008E000BC01CD010E94542DDC01CB019093840307
:1008F0008093830346C087E290E020E4FC012083DC
:100900008091510390915203CC01A0E0B0E0BC0172
:10091000CD010E94802DDC01CB01BC01CD0120E086
:1009200030E040E05FE30E94362EDC01CB017C0129
:100930008D0189819A81CC01A0E0B0E0BC01CD019C
:100940000E94802DDC01CB01BC01CD0120E030E014
:1009500040E05FE30E94362EDC01CB019C01AD013B
:10096000C801B7010E94842CDC01CB01BC01CD0180
:100970000E94542DDC01CB019093520380935103CC
:10098000000086E290E026E230E0F9012081206458
:10099000FC0120832496DEBFCDBFCF91DF91FF9174
:1009A000EF91BF91AF919F918F917F916F915F91E7
:1009B0004F913F912F911F910F91FF90EF900F90CA
:1009C0000FBE0F901F9018950F931F93DF93CF9337
:1009D000CDB7DEB760970FB6F894DEBF0FBECDBFC0
:1009E00085E390E0FC0180818F8784E390E0FC0147
:1009F0008081888B87E390E027E330E0F901208154
:100A00002E7FFC01208388E390E028E330E0F901A9
:100A100020812E7FFC01208384E390E0FC01108282
:100A200085E390E02FEFFC01208387E390E027E34C
:100A300030E0F90120812160FC01208388E390E00F
:100A400028E330E0F90120812E7FFC01208380E043
:100A500090E0A0E8BFE389839A83AB83BC8369817C
:100A60007A818B819C8120E030E04AE755E40E9446
:100A7000362EDC01CB018D839E83AF83B88711E0D6
:100A80006D817E818F81988520E030E040E85FE3D2
:100A90000E94E82C88230CF010E0112329F081E05B
:100AA00090E09A87898746C011E06D817E818F81B1
:100AB000988520E03FEF4FE757E40E94322E18164A
:100AC0000CF010E0112361F169817A818B819C81A6
:100AD00020E030E040E251E40E94362EDC01CB0100
:100AE000BC01CD010E94542DDC01CB019A8789877E
:100AF00012C080E991E09C878B878B859C858C0157
:100B0000C8010197F1F78C011C870B8789859A85AD
:100B100001979A87898789859A85009751F717C029
:100B20006D817E818F8198850E94542DDC01CB01DF
:100B30009A87898789859A859E878D878D859E85E9
:100B40008C01F8013197F1F78F011E870D8783E340
:100B500090E0FC01808180958093ED0385E390E037
:100B60002F85FC01208384E390E02889FC01208309
:100B70008091ED0360960FB6F894DEBF0FBECDBF37
:100B8000CF91DF911F910F910895DF93CF9300D004
:100B90000F92CDB7DEB79A8389836B8389819A815F
:100BA000FC0191818B819817D1F089819A81FC0198
:100BB00080818230A0F089819A812B81FC01218380
:100BC00089819A81FC01108289819A81FC0181814D
:100BD000882341F189819A81FC01818124C0898126
:100BE0009A81FC0191818B81981789F089819A8182
:100BF000FC018081823058F489819A81FC018081D6
:100C0000282F2F5F89819A81FC0120830BC0898165
:100C10009A81FC0191818B81981721F489819A81B5
:100C2000FC01108280E00F900F900F90CF91DF9128
:100C30000895DF93CF930F92CDB7DEB719820E944C
:100C4000E4048093ED032091ED038CEB93E0622F9D
:100C50000E94C505898380912901882319F0898123
:100C6000887089838981882F90E08430910509F408
:100C700061C0853091054CF48130910509F468C05C
:100C80008230910509F45DC077C080319105B9F1DA
:100C9000813191052CF48830910509F43DC06CC078
:100CA0008032910599F08034910509F058C0809107
:100CB000E103882331F481E08093E1030E949428CA
:100CC0005BC01092E1030E94942856C08091C80333
:100CD000882309F046C08091E103843031F481E03B
:100CE0008093E1030E94942847C08091E103882308
:100CF000D1F184E08093E1030E9494283DC080916B
:100D0000C803882319F00E94AF1C36C081E080938D
:100D1000C8030E94371B30C080912901882329F124
:100D200083E892E0909395028093940280E00E9481
:100D3000341D22C08091C8038823C9F00E94231C5F
:100D40001BC08091C8038823A1F00E94EF1C14C02F
:100D50008091C803882379F00E94591C0DC00000BF
:100D60000BC0000009C0000007C0000005C0000063
:100D700003C0000001C000000F90CF91DF910895E3
:100D8000DF93CF93CDB7DEB7F89481E0CF91DF91B9
:100D90000895DF93CF9300D0CDB7DEB79A838983D0
:100DA0008FE590E029813A81F9012081FC012083BF
:100DB0000F900F90CF91DF910895DF93CF93CDB730
:100DC000DEB710927200109271000E94CF0885E584
:100DD00090E025E530E0F90120812A60FC012083C4
:100DE0008FE490E0FC0110828EE490E025E0FC01AD
:100DF000208389E590E029E530E0F9012081246035
:100E0000FC012083CF91DF9108951F920F920FB6BE
:100E10000F9211248F93DF93CF93CDB7DEB781E08C
:100E200080938500CF91DF918F910F900FBE0F902F
:100E30001F9018951F920F920FB60F921124EF92E8
:100E4000FF920F931F932F933F934F935F936F9353
:100E50007F938F939F93AF93BF93EF93FF93DF9312
:100E6000CF9300D0CDB7DEB78FE590E0FC01808155
:100E70008A830E94C00689836FC08CE490E0FC01E5
:100E8000808191819093EF038093EE038CE490E056
:100E9000FC011182108280916000282F30E0809147
:100EA000EE039091EF032817390708F045C08091B1
:100EB000EE039091EF03CC01A0E0B0E0BC01CD01C6
:100EC0000E94802DDC01CB01BC01CD012DEC3CEC5E
:100ED0004CEC5DE30E94362EDC01CB017C018D01E0
:100EE0008091760090917700CC01A0E0B0E0BC0149
:100EF000CD010E94802DDC01CB01BC01CD0126E695
:100F000036E646E65FE30E94362EDC01CB019C010B
:100F1000AD01C801B7010E94842CDC01CB01BC01EA
:100F2000CD010E94542DDC01CB019093770080937A
:100F300076001092BF030FC08091BF038F5F809334
:100F4000BF038091BF03853630F01092BF0310922B
:100F500077001092760019828981882309F08DCF5D
:100F6000CE0102960E94C906109285008AE590E0A3
:100F70002AE530E0F90120812068FC0120830F90F0
:100F80000F90CF91DF91FF91EF91BF91AF919F9122
:100F90008F917F916F915F914F913F912F911F9111
:100FA0000F91FF90EF900F900FBE0F901F9018952C
:100FB0001F920F920FB60F921124EF92FF920F9390
:100FC0001F932F933F934F935F936F937F938F93D1
:100FD0009F93AF93BF93EF93FF93DF93CF9300D093
:100FE000CDB7DEB78FE590E0FC0180818A830E9457
:100FF000C00689836FC08CE490E0FC018081918100
:101000009093EF038093EE038CE490E0FC01118257
:10101000108280916000282F30E08091EE03909143
:10102000EF032817390708F045C0809174009091AC
:101030007500CC01A0E0B0E0BC01CD010E94802D84
:10104000DC01CB01BC01CD012AE939E949E95EE3C4
:101050000E94362EDC01CB017C018D018091EE03D4
:101060009091EF03CC01A0E0B0E0BC01CD010E9463
:10107000802DDC01CB01BC01CD0123E333E343E34D
:101080005FE30E94362EDC01CB019C01AD01C8015B
:10109000B7010E94842CDC01CB01BC01CD010E9470
:1010A000542DDC01CB019093750080937400109255
:1010B000BF030FC08091BF038F5F8093BF038091F8
:1010C000BF03853630F01092BF0310927500109266
:1010D000740019828981882309F08DCFCE01029690
:1010E0000E94C906109285008AE590E02AE530E06A
:1010F000F90120812064FC0120830F900F90CF9193
:10110000DF91FF91EF91BF91AF919F918F917F916F
:101110006F915F914F913F912F911F910F91FF9090
:10112000EF900F900FBE0F901F901895DF93CF9305
:10113000CDB7DEB78BE590E02BE530E0F9012081FB
:101140002F77FC0120838BE590E02BE530E0F9015F
:1011500020812064FC0120838091EB00882319F416
:1011600087E080937C001092EB0081E08093730015
:101170008091C803882381F480E063E041E20E940B
:10118000660E82E30E94270F80E064E04EE10E9439
:10119000660E80E20E94270FCF91DF910895DF93C2
:1011A000CF93CDB7DEB78BE590E02BE530E0F901CA
:1011B00020812F7BFC0120838BE590E02BE530E044
:1011C000F90120812068FC0120838091EA008823B6
:1011D00019F487E080937C001092EA00109273006B
:1011E0008091C803882381F480E063E041E20E949B
:1011F000660E80E20E94270F80E064E04EE10E94CC
:10120000660E83E30E94270FCF91DF910895EF923E
:10121000FF920F931F93DF93CF9300D000D0CDB7F1
:10122000DEB780E090E0DC0189839A83AB83BC83E6
:1012300080917300813009F0C5C080917400909155
:101240007500009729F481E090E0A0E0B0E0AAC129
:1012500080917C0061E0882309F060E08091740057
:10126000909175009C01329522952F7023273F7035
:1012700023274091740050917500809178009091DF
:101280007900FA01E81BF90BCF0199231CF4909522
:1012900081959F4F41E02817390708F040E0862FDD
:1012A00084238823B1F18091740090917500CC0162
:1012B000A0E0B0E0BC01CD010E94802DDC01CB019B
:1012C0002091650030916600409167005091680060
:1012D000BC01CD010E94362EDC01CB0120916100C2
:1012E000309162004091630050916400BC01CD01D7
:1012F0000E94842CDC01CB0189839A83AB83BC835D
:10130000809174009091750090937900809378009B
:1013100036C080917C00882329F080917C00815028
:1013200080937C008091780090917900CC01A0E0BE
:10133000B0E0BC01CD010E94802DDC01CB012091E9
:101340006500309166004091670050916800BC01D3
:10135000CD010E94362EDC01CB012091610030913D
:1013600062004091630050916400BC01CD010E9475
:10137000842CDC01CB0189839A83AB83BC83698194
:101380007A818B819C8120E038E04EE856E40E940F
:10139000362EDC01CB017C018D010E94CB2ADC01C1
:1013A000CB01BC01CD010E94802D9B01AC01C80185
:1013B000B7010E94EC2CDC01CB0189839A83AB83BB
:1013C000BC83D1C08091760090917700009729F47A
:1013D00081E090E0A0E0B0E0E5C080917C0061E0B9
:1013E000882309F060E080917600909177009C015D
:1013F000329522952F7023273F7023274091760046
:101400005091770080917A0090917B00FA01E81B5F
:10141000F90BCF0199231CF4909581959F4F41E0E2
:101420002817390708F040E0862F8423882309F421
:101430004DC0209176003091770000D000D08DB75C
:101440009EB7019646E850E0FC0151834083FC01C1
:10145000338322830E94452F0F900F900F900F909F
:101460008091760090917700CC01A0E0B0E0BC01C3
:10147000CD010E94802DDC01CB0120916D003091C7
:101480006E0040916F0050917000BC01CD010E9430
:10149000362EDC01CB012091690030916A00409129
:1014A0006B0050916C00BC01CD010E94842CDC01CA
:1014B000CB0189839A83AB83BC8380917600909122
:1014C000770090937B0080937A004DC080917C00E0
:1014D000882329F080917C00815080937C002091AA
:1014E00076003091770000D000D08DB79EB701967E
:1014F00043EA50E0FC0151834083FC0133832283A3
:101500000E94452F0F900F900F900F9080917A00BE
:1015100090917B00CC01A0E0B0E0BC01CD010E9425
:10152000802DDC01CB0120916D0030916E00409147
:101530006F0050917000BC01CD010E94362EDC017D
:10154000CB012091690030916A0040916B0050916D
:101550006C00BC01CD010E94842CDC01CB0189838D
:101560009A83AB83BC8380917C00282F30E000D02D
:1015700000D08DB79EB7019640EC50E0FC0151833E
:101580004083FC01338322830E94452F0F900F90EC
:101590000F900F9069817A818B819C810E94542DDC
:1015A000DC01CB01BC01CD010F900F900F900F908B
:1015B000CF91DF911F910F91FF90EF900895DF93EE
:1015C000CF9300D000D0CDB7DEB70E940709DC0171
:1015D000CB01BC01CD010E94802DDC01CB018983B0
:1015E0009A83AB83BC8329813A814B815C8160E023
:1015F00074E284E799E40E94EC2CDC01CB0189833E
:101600009A83AB83BC8389819A81AB81BC81BC0105
:10161000CD010E94542DDC01CB0100D000D000D0C0
:101620002DB73EB72F5F3F4F4CED50E0F90151838E
:101630004083F90182839383A483B5830E94452F5D
:101640008DB79EB706960FB6F8949EBF0FBE8DBF9E
:1016500089819A81AB81BC81BC01CD010E94542D4E
:10166000DC01CB01BC01CD010F900F900F900F90CA
:10167000CF91DF910895DF93CF93CDB7DEB780E0B0
:1016800090E00E94B53121E082309207E1F582E0DE
:1016900090E00E94A7318093BE0387E090E00E9413
:1016A000AF31DC01CB018093850390938603A09337
:1016B0008703B09388038BE090E00E94AF31DC0198
:1016C000CB018093890390938A03A0938B03B093FB
:1016D0008C0383E090E00E94B531CC01A0E0B0E043
:1016E0002CE330E040E050E0BC01CD010E94992E97
:1016F000DC01CB018093EC009093ED00A093EE0011
:10170000B093EF0002C00E94880BCF91DF91089543
:10171000DF93CF93CDB7DEB780E090E062E071E079
:101720000E94D03182E090E060E00E94BB31809165
:10173000EC009091ED00A091EE00B091EF002CE351
:1017400030E040E050E0BC01CD010E94D82EDA012B
:10175000C9019C0183E090E0B9010E94D03187E08B
:1017600090E040E050E0BA010E94C8318BE090E088
:1017700040E050E060E47FE30E94C831CF91DF9108
:101780000895DF93CF93CDB7DEB72091BE0382E0FB
:1017900090E0622F0E94BB31CF91DF910895DF93DB
:1017A000CF9300D0CDB7DEB78091EC009091ED00E3
:1017B000A091EE00B091EF002CE330E040E050E06B
:1017C000BC01CD010E94D82EDA01C9019A83898318
:1017D00083E090E029813A81B9010E94D0310F90D5
:1017E0000F90CF91DF910895DF93CF93CDB7DEB700
:1017F000209185033091860340918703509188039F
:1018000087E090E0BA01A9010E94C83120918903C4
:1018100030918A0340918B0350918C038BE090E0D0
:10182000BA01A9010E94C83183E00E94EA0E8091AA
:10183000890390918A03A0918B03B0918C03BC0122
:10184000CD010E94311184E00E94EA0E809185034F
:1018500090918603A0918703B0918803BC01CD01CC
:101860000E943111CF91DF910895DF93CF93CDB7CF
:10187000DEB787E090E00E94AF31DC01CB018093BE
:10188000850390938603A0938703B09388038BE02E
:1018900090E00E94AF31DC01CB01809389039093EB
:1018A0008A03A0938B03B0938C03CF91DF910895AB
:1018B000DF93CF930F92CDB7DEB78091C5039091A0
:1018C000C60301969093C6038093C5038091C50318
:1018D0009091C603863091050CF43EC08091C703F9
:1018E0008F5F8093C7038091C703898307C0898175
:1018F0008F5F89838981893008F019828091C403C0
:10190000882F90E02981222F30E0022E02C0959589
:1019100087950A94E2F781709070009741F389816E
:101920008093C70381E090E00E94EA0E20EF30E050
:101930008981882F90E0880F991FAC01440F551FB3
:10194000440F551F840F951F820F931F0E948A0F0B
:101950001092C6031092C5030F90CF91DF910895A6
:10196000DF93CF9300D000D0CDB7DEB70E94070938
:10197000DC01CB0189839A83AB83BC8389819A8103
:10198000AB81BC81803D27E0920720E0A20720E0E8
:10199000B20748F480917300813029F48091C40328
:1019A00081608093C4030F900F900F900F90CF91A0
:1019B000DF9108950F931F93DF93CF93CDB7DEB7D9
:1019C0006D970FB6F894DEBF0FBECDBF8AE390E0EF
:1019D0002AE330E0F9012081206FFC01208384E3B9
:1019E00090E0FC01808184E390E02FEFFC012083F4
:1019F00087E390E027E330E0F90120812260FC01D9
:101A000020830E94E3188FE30E9492140E94CA1858
:101A10008FE30E94921480E090E0A0E2B1E48A8318
:101A20009B83AC83BD836A817B818C819D8120E017
:101A300030E04AE753E40E94362EDC01CB018E836E
:101A40009F83A887B98711E06E817F8188859985FA
:101A500020E030E040E85FE30E94E82C88230CF0AF
:101A600010E0112329F081E090E09B878A8746C02F
:101A700011E06E817F818885998520E03FEF4FE7F7
:101A800057E40E94322E18160CF010E0112361F179
:101A90006A817B818C819D8120E030E040E251E4CD
:101AA0000E94362EDC01CB01BC01CD010E94542DD9
:101AB000DC01CB019B878A8712C089E190E09D877A
:101AC0008C878C859D858C01C8010197F1F78C016D
:101AD0001D870C878A859B8501979B878A878A85C6
:101AE0009B85009751F717C06E817F818885998506
:101AF0000E94542DDC01CB019B878A878A859B85B8
:101B00009F878E878E859F858C01F8013197F1F72D
:101B10008F011F870E870E94E31880EC0E949214A9
:101B20000E94CA1880EC0E9492140E94330E83E037
:101B30000E94EA0E8EE091E00E948A0F81E0898384
:101B400083C080E090E0A0E2B1E4888B998BAA8BFF
:101B5000BB8B688979898A899B8920E030E04AE7D4
:101B600053E40E94362EDC01CB018C8B9D8BAE8B17
:101B7000BF8B11E06C897D898E899F8920E030E0E0
:101B800040E85FE30E94E82C88230CF010E011236A
:101B900029F081E090E0998F888F46C011E06C8930
:101BA0007D898E899F8920E03FEF4FE757E40E94AF
:101BB000322E18160CF010E0112361F16889798932
:101BC0008A899B8920E030E040E251E40E94362E71
:101BD000DC01CB01BC01CD010E94542DDC01CB0105
:101BE000998F888F12C089E190E09B8F8A8F8A8DB0
:101BF0009B8D8C01C8010197F1F78C011B8F0A8F17
:101C0000888D998D0197998F888F888D998D0097F0
:101C100051F717C06C897D898E899F890E94542D48
:101C2000DC01CB01998F888F888D998D9D8F8C8F4A
:101C30008C8D9D8D8C01F8013197F1F78F011D8FEF
:101C40000C8F89818F5F898389818F3F09F079CFDC
:101C50006D960FB6F894DEBF0FBECDBFCF91DF916A
:101C60001F910F910895DF93CF9300D00F92CDB7BE
:101C7000DEB78091F3038B831092F303198217C0B0
:101C800089810E94EA0E1A820CC08A81803419F47C
:101C900081E00E94C40E80E00E94AA158A818F5FB5
:101CA0008A838A8188238CF789818F5F89838981E0
:101CB000883030F38B818093F30380E00E94EA0E3A
:101CC0000F900F900F90CF91DF910895DF93CF93F6
:101CD00000D00F92CDB7DEB789836A834B838981A9
:101CE000882319F08981813009F58A818830F0F4E0
:101CF0008B818034D8F48981882319F40E94E318F9
:101D000002C00E94CA1889818093F0038A81886B7F
:101D10008093F1038B8180648093F2038091F203BE
:101D20000E9492148091F1030E9492140F900F90E0
:101D30000F90CF91DF910895DF93CF9300D000D023
:101D400000D0CDB7DEB79A8389837C836B835E83B3
:101D50004D832091F00389819A81FC012083209199
:101D6000F1038B819C81FC0120832091F2038D8102
:101D70009E81FC01208326960FB6F894DEBF0FBE2D
:101D8000CDBFCF91DF910895DF93CF930F92CDB761
:101D9000DEB789838981882319F089818130B1F484
:101DA0008981882319F40E94E31802C00E94CA188E
:101DB00089818093F00380E48093F2038091F103A2
:101DC0000E9492148091F2030E9492140F90CF917E
:101DD000DF910895DF93CF930F92CDB7DEB789835C
:101DE0008981883038F4898188548093F10380E0B8
:101DF0000E94C40E0F90CF91DF910895DF93CF938F
:101E0000CDB7DEB78091F1038F5F8093F1038091AE
:101E1000F103803C18F088EB8093F10380E00E948E
:101E2000C40ECF91DF910895DF93CF93CDB7DEB786
:101E30008FEF8093F303CF91DF910895DF93CF93DA
:101E4000CDB7DEB71092F303CF91DF9108951F93C2
:101E5000DF93CF93CDB7DEB727970FB6F894DEBFE9
:101E60000FBECDBF8F838091F003813021F480912C
:101E7000F2038C3718F48F818A3011F40E94FE0E21
:101E80008F818A3009F43CC024E833E08F81882FA9
:101E900090E0AC01440F551F440F551F440F551FD0
:101EA000BA01681B790BCB01820F931F9A83898338
:101EB0008091F003882339F48091F203803819F47B
:101EC00081E00E94C40E89819A819C838B838981E1
:101ED0009A8101969A8389838B819C81FC0114915C
:101EE0001D838D818E838E818F3F49F08E810E946C
:101EF000AA158091F2038F5F8093F203D9CF00007F
:101F000027960FB6F894DEBF0FBECDBFCF91DF91FD
:101F10001F910895DF93CF9300D0CDB7DEB79A839A
:101F200089830CC089819A81FC01208189819A81F1
:101F300001969A838983822F0E94270F89819A8133
:101F4000FC018081882371F70F900F90CF91DF9172
:101F500008950F931F93DF93CF93CDB7DEB76097AC
:101F60000FB6F894DEBF0FBECDBF6C877D878E871E
:101F70009F87488B19828C859D85AE85BF8500978C
:101F8000A105B105C1F419820DC08981882F90E0A7
:101F90009E012E5F3F4F820F931FFC0110828981AB
:101FA0008F5F898399818889981708F061C089813A
:101FB0008A3058F35DC0198244C08C859D85AE85FA
:101FC000BF850097A105B10549F18981082F10E06F
:101FD0008C859D85AE85BF852AE030E040E050E0ED
:101FE000BC01CD010E94D82EDC01CB01282FCE01EF
:101FF0000296800F911FFC0120838C859D85AE8504
:10200000BF852AE030E040E050E0BC01CD010E94F5
:10201000D82E2C873D874E875F8710C088898F3FD9
:1020200039F188898B3020F58981882F90E09E01D5
:102030002E5F3F4F820F931FFC01108289818F5FBB
:10204000898399818889981708F4B7CF11C089814D
:10205000882F90E001979E012E5F3F4F820F931FC4
:10206000FC018081805D0E94270F898181508983D6
:102070008981882361F760960FB6F894DEBF0FBEA2
:10208000CDBFCF91DF911F910F910895DF93CF9333
:10209000CDB7DEB760970FB6F894DEBF0FBECDBFE9
:1020A0006C877D878E879F87488B19828C859D855D
:1020B000AE85BF850097A105B105C1F419820DC099
:1020C0008981882F90E09E012E5F3F4F820F931FE2
:1020D000FC01108289818F5F898399818889981793
:1020E00008F072C089818A3058F36EC019823BC0F3
:1020F0008C859D85AE85BF850097A105B105F1F062
:102100008981882F90E02C85422F4F709E012E5F91
:102110003F4F820F931FFC0140838C859D85AE85C8
:10212000BF85689413F8B695A795979587951694EB
:10213000D1F78C879D87AE87BF8712C088898F3F74
:1021400009F442C088898B3008F03EC08981882F0D
:1021500090E09E012E5F3F4F820F931FFC01108283
:1021600089818F5F898399818889981708F4C0CF06
:102170002BC08981882F90E001979E012E5F3F4FF1
:10218000820F931FFC0180818A3068F08981882F3B
:1021900090E001979E012E5F3F4F820F931FFC013D
:1021A0008081895C0CC08981882F90E001979E0115
:1021B0002E5F3F4F820F931FFC018081805D0E9444
:1021C000270F8981815089838981882391F66096C0
:1021D0000FB6F894DEBF0FBECDBFCF91DF9108954B
:1021E000DF93CF9300D000D000D0CDB7DEB76A83A5
:1021F0007B838C839D834E8328C08E81882F90E0C3
:102200009C012150304081E090E002C0880F991F6E
:102210002A95E2F79C01442737FD4095542F8A8187
:102220009B81AC81BD8182239323A423B52321E02C
:102230000097A105B10509F420E029838981805D1B
:102240000E94270F8E8181508E838E818823A9F66C
:1022500026960FB6F894DEBF0FBECDBFCF91DF91AB
:1022600008951F93DF93CF93CDB7DEB728970FB6AE
:10227000F894DEBF0FBECDBF6D837E838F839887BA
:1022800011E06D817E818F81988520E030E0A90189
:102290000E94E82C88230CF010E0112361F08DE2FD
:1022A0000E94270F8D819E81AF81B885BF778D8376
:1022B0009E83AF83B8876D817E818F8198850E94D0
:1022C000542DDC01CB0189839A83AB83BC83898144
:1022D0009A81AB81BC81BC01CD014FEF0E94A90F57
:1022E0008EE20E94270F69817A818B819C810E94F6
:1022F000802D9B01AC016D817E818F8198850E942C
:10230000832CDC01CB018D839E83AF83B8876D81E5
:102310007E818F81988520E034E244E759E40E9471
:10232000362EDC01CB01BC01CD010E94542DDC0115
:10233000CB0189839A83AB83BC8389819A81AB81EA
:10234000BC81BC01CD014FEF0E94A90F28960FB6AA
:10235000F894DEBF0FBECDBFCF91DF911F910895DE
:10236000DF93CF93CDB7DEB768970FB6F894DEBF93
:102370000FBECDBFCE014F96988F8F8B8D8D9E8DCA
:102380009A838983BEC189819A81FC018081898772
:102390008985853209F0ADC189819A8101969A8338
:1023A000898389819A81FC0180818987898580332D
:1023B00000F189858A33E8F41A8614C08A85880F6B
:1023C000982F990F990F980F8985890F80538A87C5
:1023D00089819A8101969A83898389819A81FC01F6
:1023E000808189878985803338F089858A3330F305
:1023F00004C08FEF8A8701C000008985882F90E094
:102400008835910509F4F1C08935910504F58434C6
:10241000910509F470C08534910564F48234910506
:1024200009F419C1833491058CF58532910509F4BD
:102430005CC162C18335910509F445C185359105BB
:1024400009F4A2C08634910509F424C155C1863629
:10245000910509F41FC1873691055CF48336910517
:10246000A9F08436910509F18236910509F4D7C0A7
:1024700043C18537910509F470C08837910509F487
:102480009DC08337910509F41EC136C18F89988D8F
:102490009C012E5F3F4F388F2F8BFC0180819181F3
:1024A000898789850E94270F27C18F89988D9C0174
:1024B0002E5F3F4F388F2F8BFC01808191819C8351
:1024C0008B838B819C81992354F48B819C81909583
:1024D00081959F4F9C838B838DE20E94270F8B8178
:1024E0009C81AA2797FDA095BA2FBC01CD014A85F2
:1024F0000E94A90F01C18F89988D9C012C5F3F4FCD
:10250000388F2F8BFC0180819181A281B3818D83D3
:102510009E83AF83B8878D819E81AF81B885BB23B1
:1025200094F48D819E81AF81B885B095A0959095EA
:1025300081959F4FAF4FBF4F8D839E83AF83B887E9
:102540008DE20E94270F8D819E81AF81B885BC01ED
:10255000CD014A850E94A90FCFC08F89988D9C011B
:102560002E5F3F4F388F2F8BFC01808191819C879C
:102570008B878B859C85CC01A0E0B0E0BC01CD01B0
:102580004A850E94A90FB8C08F89988D9C012C5F45
:102590003F4F388F2F8BFC0180819181A281B381C5
:1025A0008D879E87AF87B88B8D859E85AF85B889CF
:1025B000BC01CD014A850E94A90F9EC08F89988DCC
:1025C0009C012E5F3F4F388F2F8BFC0180819181C2
:1025D0009C878B878B859C85CC01A0E0B0E0BC01FB
:1025E000CD014A850E94461087C08F89988D9C0135
:1025F0002C5F3F4F388F2F8BFC0180819181A2810E
:10260000B3818D879E87AF87B88B8D859E85AF857B
:10261000B889BC01CD014A850E9446106DC08F89E2
:10262000988D9C012E5F3F4F388F2F8BFC0180814E
:1026300091819C878B878A858F3F11F480E18A87FF
:102640008B859C85CC01A0E0B0E0BC01CD014A8522
:102650000E94F01051C08F89988D9C012C5F3F4FD4
:10266000388F2F8BFC0180819181A281B3818D876E
:102670009E87AF87B88B8A858F3F11F480E18A8768
:102680008D859E85AF85B889BC01CD014A850E94A4
:10269000F01032C08F89988D9C012C5F3F4F388F8E
:1026A0002F8BFC0180819181A281B381898B9A8BD0
:1026B000AB8BBC8B89899A89AB89BC89BC01CD0164
:1026C0000E94311119C08F89988D9C012E5F3F4F58
:1026D000388F2F8BFC01808191819E8B8D8B8D8912
:1026E0009E890E948A0F000007C085E20E94270F82
:1026F00003C089850E94270F89819A8101969A8358
:10270000898389819A81FC018081882309F03BCEED
:1027100068960FB6F894DEBF0FBECDBFCF91DF91A4
:102720000895DF93CF9300D0CDB7DEB7198216C0DE
:1027300089810E94EA0E1A820BC08A81803411F4CA
:102740000E94CA1880E00E94AA158A818F5F8A833E
:102750008A81882394F789818F5F89838981883072
:1027600038F380E00E94EA0E0F900F90CF91DF9136
:102770000895DF93CF93CDB7DEB729970FB6F894BE
:10278000DEBF0FBECDBF888769878885843008F09B
:102790006FC08985853608F06BC088858295880F63
:1027A000807E8B838B81803410F41D8205C081E094
:1027B0008D838B8180548B838B81982F985F8D8143
:1027C00060E0492F0E94660E8985882F90E0A0E086
:1027D000B0E0BC01CD0143E00E94A90F8985869538
:1027E000898789858695869586958E8397E08E81E3
:1027F000292F281B822F8F8381E0898336C08B810C
:10280000982F945F8D816981492F0E94660E99816E
:102810008F81981710F41C821AC099818F819817A4
:10282000A1F4898587708C838C81882F90E028E0C3
:1028300030E0281B390B8FEF90E0022E02C0880F8A
:10284000991F0A94E2F78C8302C08FEF8C831A825F
:1028500006C08C810E94AA158A818F5F8A838A8133
:102860008C30B8F389818F5F89838981883038F211
:1028700029960FB6F894DEBF0FBECDBFCF91DF9182
:102880000895DF93CF9300D000D0CDB7DEB78B8310
:102890006C838B81880F8F5F8A838B818430D8F51E
:1028A0008C818536C0F580E06A8140E00E94660E2A
:1028B00019820CC08981803419F481E00E94C40E11
:1028C0008FEF0E94AA1589818F5F898399818C81FE
:1028D000981780F38C8189830CC08981803419F426
:1028E00081E00E94C40E80E00E94AA1589818F5F5A
:1028F00089838981843688F381E06A814EE60E946B
:10290000660E8C81882F90E0A0E0B0E0BC01CD0184
:1029100043E00E94A90F0F900F900F900F90CF915E
:10292000DF9108950F931F93DF93CF93CDB7DEB759
:1029300069970FB6F894DEBF0FBECDBF898F0E9496
:10294000C51685E390E0298DFC0120838BE390E0A0
:102950002BE330E0F90120812F77FC0120838BE30A
:1029600090E02BE330E0F90120812F7BFC012083F4
:102970008BE390E02BE330E0F90120812062FC0141
:10298000208380E090E0A0E0B0E489839A83AB8369
:10299000BC8369817A818B819C812BEA3AEA4AEA7D
:1029A0005EE30E94362EDC01CB018D839E83AF83D4
:1029B000B88711E06D817E818F81988520E030E0BD
:1029C00040E85FE30E94E82C88230CF010E011231C
:1029D00019F081E08987A3C011E06D817E818F812C
:1029E000988520E030E04FE753E40E94322E18161D
:1029F0000CF010E0112309F489C069817A818B8180
:102A00009C8120E030E04AE754E40E94EC2CDC0199
:102A1000CB018A879B87AC87BD876A857B858C8540
:102A20009D8520E030E04AE753E40E94362EDC0129
:102A3000CB018E879F87A88BB98B11E06E857F8530
:102A40008889998920E030E040E85FE30E94E82C23
:102A500088230CF010E0112329F081E090E09B8B9B
:102A60008A8B46C011E06E857F858889998920E030
:102A70003FEF4FE757E40E94322E18160CF010E09B
:102A8000112361F16A857B858C859D8520E030E08E
:102A900040E251E40E94362EDC01CB01BC01CD01A5
:102AA0000E94542DDC01CB019B8B8A8B12C089E1E3
:102AB00090E09D8B8C8B8C899D898C01C80101973E
:102AC000F1F78C011D8B0C8B8A899B8901979B8B5D
:102AD0008A8B8A899B89009751F728C06E857F85EC
:102AE000888999890E94542DDC01CB019B8B8A8BAC
:102AF0008A899B899F8B8E8B8E899F898C01F80197
:102B00003197F1F78F011F8B0E8B10C06D817E8185
:102B10008F8198850E94542DDC01CB01898789859E
:102B2000888F888D182F1A95F1F7188F8BE390E016
:102B30002BE330E0F90120812F7DFC012083699691
:102B40000FB6F894DEBF0FBECDBFCF91DF911F91BE
:102B50000F9108950F931F93DF93CF93CDB7DEB7F7
:102B600069970FB6F894DEBF0FBECDBF898F0E9464
:102B7000C51685E390E03091F303298D2327FC01EE
:102B800020838BE390E02BE330E0F9012081206883
:102B9000FC0120838BE390E02BE330E0F9012081FE
:102BA0002F7BFC0120838BE390E02BE330E0F901E5
:102BB00020812062FC01208380E090E0A0E0B0E46E
:102BC00089839A83AB83BC8369817A818B819C8161
:102BD0002BEA3AEA4AEA5EE30E94362EDC01CB0198
:102BE0008D839E83AF83B88711E06D817E818F8155
:102BF000988520E030E040E85FE30E94E82C8823DD
:102C00000CF010E0112319F081E08987A3C011E0D6
:102C10006D817E818F81988520E030E04FE753E41D
:102C20000E94322E18160CF010E0112309F489C00E
:102C300069817A818B819C8120E030E04AE754E40D
:102C40000E94EC2CDC01CB018A879B87AC87BD8777
:102C50006A857B858C859D8520E030E04AE753E4DA
:102C60000E94362EDC01CB018E879F87A88BB98B03
:102C700011E06E857F858889998920E030E040E801
:102C80005FE30E94E82C88230CF010E0112329F068
:102C900081E090E09B8B8A8B46C011E06E857F853A
:102CA0008889998920E03FEF4FE757E40E94322E50
:102CB00018160CF010E0112361F16A857B858C8574
:102CC0009D8520E030E040E251E40E94362EDC0198
:102CD000CB01BC01CD010E94542DDC01CB019B8BAB
:102CE0008A8B12C089E190E09D8B8C8B8C899D89A9
:102CF0008C01C8010197F1F78C011D8B0C8B8A891F
:102D00009B8901979B8B8A8B8A899B89009751F7B6
:102D100028C06E857F85888999890E94542DDC01A1
:102D2000CB019B8B8A8B8A899B899F8B8E8B8E890B
:102D30009F898C01F8013197F1F78F011F8B0E8B62
:102D400010C06D817E818F8198850E94542DDC0199
:102D5000CB0189878985888F888D182F1A95F1F77F
:102D6000188F8BE390E02BE330E0F90120812F7D79
:102D7000FC01208369960FB6F894DEBF0FBECDBF6D
:102D8000CF91DF911F910F9108950F931F93DF93C0
:102D9000CF93CDB7DEB7E2970FB6F894DEBF0FBE84
:102DA000CDBF8AE0898384E390E024E330E0F90139
:102DB00020812F77FC0120838BE390E02BE330E030
:102DC000F90120812F77FC0120838BE390E02BE336
:102DD00030E0F90120812064FC0120838BE390E046
:102DE0002BE330E0F90120812F7DFC01208380E07E
:102DF00090E0A0E0B0E48B839C83AD83BE836B81C5
:102E00007C818D819E812BEA3AEA4AEA5EE30E9448
:102E1000362EDC01CB018F839887A987BA8711E012
:102E20006F81788589859A8520E030E040E85FE30E
:102E30000E94E82C88230CF010E0112319F081E0A7
:102E40008B87A3C011E06F81788589859A8520E002
:102E500030E04FE753E40E94322E18160CF010E0D9
:102E6000112309F489C06B817C818D819E8120E0D2
:102E700030E04AE754E40E94EC2CDC01CB018C8763
:102E80009D87AE87BF876C857D858E859F8520E079
:102E900030E04AE753E40E94362EDC01CB01888BF8
:102EA000998BAA8BBB8B11E0688979898A899B8968
:102EB00020E030E040E85FE30E94E82C88230CF03B
:102EC00010E0112329F081E090E09D8B8C8B46C0AF
:102ED00011E0688979898A899B8920E03FEF4FE773
:102EE00057E40E94322E18160CF010E0112361F105
:102EF0006C857D858E859F8520E030E040E251E441
:102F00000E94362EDC01CB01BC01CD010E94542D64
:102F1000DC01CB019D8B8C8B12C089E190E09F8BF3
:102F20008E8B8E899F898C01C8010197F1F78C01E6
:102F30001F8B0E8B8C899D8901979D8B8C8B8C8927
:102F40009D89009751F728C0688979898A899B896A
:102F50000E94542DDC01CB019D8B8C8B8C899D892B
:102F6000998F888F888D998D8C01F8013197F1F7B1
:102F70008F01198F088F10C06F81788589859A8598
:102F80000E94542DDC01CB018B878B858A8F8A8D23
:102F9000182F1A95F1F71A8F8BE390E02BE330E0AE
:102FA000F90120812062FC01208380E090E0A0E014
:102FB000B0E48B8F9C8FAD8FBE8F6B8D7C8D8D8D94
:102FC0009E8D2BEA3AEA4AEA5EE30E94362EDC0145
:102FD000CB018F8F98A3A9A3BAA311E06F8D78A11D
:102FE00089A19AA120E030E040E85FE30E94E82C4C
:102FF00088230CF010E0112319F081E08BA3A3C00B
:1030000011E06F8D78A189A19AA120E030E04FE70F
:1030100053E40E94322E18160CF010E0112309F42C
:1030200089C06B8D7C8D8D8D9E8D20E030E04AE7D0
:1030300054E40E94EC2CDC01CB018CA39DA3AEA335
:10304000BFA36CA17DA18EA19FA120E030E04AE743
:1030500053E40E94362EDC01CB0188A799A7AAA7CA
:10306000BBA711E068A579A58AA59BA520E030E063
:1030700040E85FE30E94E82C88230CF010E0112365
:1030800029F081E090E09DA78CA746C011E068A5DB
:1030900079A58AA59BA520E03FEF4FE757E40E9462
:1030A000322E18160CF010E0112361F16CA17DA1F5
:1030B0008EA19FA120E030E040E251E40E94362E34
:1030C000DC01CB01BC01CD010E94542DDC01CB0100
:1030D0009DA78CA712C089E190E09FA78EA78EA51F
:1030E0009FA58C01C8010197F1F78C011FA70EA7BE
:1030F0008CA59DA501979DA78CA78CA59DA5009744
:1031000051F728C068A579A58AA59BA50E94542DD2
:10311000DC01CB019DA78CA78CA59DA599AB88ABA5
:1031200088A999A98C01F8013197F1F78F0119ABA2
:1031300008AB10C06F8D78A189A19AA10E94542D6F
:10314000DC01CB018BA38BA18AAB8AA9182F1A951E
:10315000F1F71AAB83E390E0FC018081881F882798
:10316000881F8A838A81882309F038CE84E390E01F
:1031700024E330E0F90120812068FC012083E296FD
:103180000FB6F894DEBF0FBECDBFCF91DF911F9178
:103190000F910895DF93CF93CDB7DEB78BE390E027
:1031A0002BE330E0F90120812061FC01208388E3DA
:1031B00090E028E330E0F90120812D7FFC0120839D
:1031C000CF91DF910895DF93CF93CDB7DEB788E33A
:1031D00090E028E330E0F90120812260FC012083A7
:1031E0008BE390E02BE330E0F90120812F7EFC019E
:1031F0002083CF91DF910895EF92FF920F931F9359
:10320000DF93CF93CDB7DEB760970FB6F894DEBFEC
:103210000FBECDBF888B8091F2038D838091F10327
:103220008B831F861C8224E530E08889682F70E03C
:1032300040E350E0649FC001659F900D749F900D26
:103240001124820F931F9A83898388898A30B1F56C
:1032500001C000008F858F5F8F8789819A819F834E
:103260008E8389819A8101969A8389838E819F8139
:103270008C01F801E590F4908F01F986E8861F83B0
:103280000E83888599858A878A850E94AA158F85ED
:10329000883108F068C08F8596E0692F0E94B82EAB
:1032A000892F8823B1F68B818F5F8B838D810E945C
:1032B00092148B810E949214CDCF00008F858F5F76
:1032C0008F8789819A819C878B8789819A810196D2
:1032D0009A8389838B859C858C01F801E590F49015
:1032E0008F01FE86ED861C870B878D859E858A87DC
:1032F0008A850E94AA158091F2038F5F8093F20362
:103300008091F20391E0803809F090E02091F00381
:1033100081E0222309F080E08923882329F081E0DD
:103320000E94C40E81E08C838F858033F0F48F85FA
:103330008F70882309F0C1CF8B818F5F8B838C8145
:10334000882321F080E00E94C40E1C828D8180932E
:10335000F2038B818093F1038D810E9492148B8103
:103360000E949214ABCF000001C0000060960FB61F
:10337000F894DEBF0FBECDBFCF91DF911F910F91AB
:10338000FF90EF900895DF93CF930F92CDB7DEB704
:10339000198216C089810E94AA158091F2038F5F5D
:1033A0008093F2038091F2038F3751F489810E9458
:1033B000AA158091F003882341F481E00E94C40E95
:1033C0008091F203882334F701C000000F90CF9161
:1033D000DF910895DF93CF93CDB7DEB781E062E050
:1033E00040E30E94660E8BE00E94FC18CF91DF91B3
:1033F0000895DF93CF93CDB7DEB781E062E040E37D
:103400000E94660E8CE00E94FC18CF91DF91089517
:10341000DF93CF93CDB7DEB787E390E027E330E0CB
:10342000F90120812F79FC01208388E390E028E3D3
:1034300030E0F90120812066FC01208381E390E0E7
:1034400021E330E0F90120812E7FFC01208382E31B
:1034500090E022E330E0F90120812160FC0120832B
:10346000CF91DF910895DF93CF93CDB7DEB786E399
:1034700090E0FC0180818072CF91DF910895DF930D
:10348000CF93CDB7DEB786E390E0FC0180818074F6
:10349000CF91DF910895DF93CF93CDB7DEB780E36F
:1034A00090E0FC018081882F90E08170907021E095
:1034B000009709F020E0822FCF91DF910895DF93EC
:1034C000CF9300D0CDB7DEB778940E94F9268091D3
:1034D0002501909126010E9452270E94DA0C0E9439
:1034E00077260E94EA2B0E94C2030E94622B0E9450
:1034F0003B0B0E94081A1A82198207C00E94190603
:1035000089819A8101969A83898389819A8121E0B0
:10351000843F920798F3109229010BC00E9419066C
:103520008091EB03882329F01092EB0380E00E9446
:10353000341D8091C903882389F70E94A9270E941E
:10354000DD0601C000000E9419068091EB0388236C
:10355000C9F30E9498268091FE039091FF03A091E9
:103560000004B09101040097A105B10599F0809184
:10357000FE039091FF03A0910004B0910104019714
:10358000A109B1098093FE039093FF03A093000467
:10359000B09301048091E7039091E803A091E903BF
:1035A000B091EA030097A105B10599F08091E70376
:1035B0009091E803A091E903B091EA030197A10972
:1035C000B1098093E7039093E803A093E903B093D4
:1035D000EA038091F8039091F903A091FA03B09166
:1035E000FB030097A105B10599F08091F803909134
:1035F000F903A091FA03B091FB030197A109B10966
:103600008093F8039093F903A093FA03B093FB031C
:103610001092EB030E94BA278091C403882311F013
:103620000E94580C8091C803882321F40E943C26F4
:103630000E94EB2080912601829586958695837065
:103640008170982F81E08927817081708295880F21
:10365000880F807C909126019F7B892B8093260187
:1036600080912501909126010E9452276CCFDF9313
:10367000CF930F92CDB7DEB720919402309195028F
:103680008091CD039091CE032817390709F054C0DB
:103690008091940290919502FC01948180914C0359
:1036A000981709F4CBC08091940290919502FC0187
:1036B00084818E5F0E94EA0E0E94140F2091940272
:1036C000309195028091940290919502FC01848141
:1036D000882F90E0880F991F820F931F0596FC0199
:1036E00080819181FC01828193810E948A0F0E94D6
:1036F000C3190E941E0F80914C038E5F0E94EA0E38
:10370000209194023091950280914C03882F90E093
:10371000880F991F820F931F0596FC01808191816C
:10372000FC01828193810E948A0F0E94C31986E95D
:1037300092E00E945A2F71C08EE992E00E945A2FA7
:103740000E94330E80E00E94EA0E809194029091D4
:103750009502FC01828193810E948A0F198259C0CF
:1037600020919402309195028981882F90E0880FF2
:10377000991F820F931F0596FC018081918100970C
:1037800009F443C08091940290919502FC019481C8
:1037900089819817F9F40E94140F89818E5F0E9425
:1037A000EA0E20919402309195028981882F90E051
:1037B000880F991F820F931F0596FC0180819181CC
:1037C000FC01828193810E948A0F0E94C3190E948A
:1037D0001E0F1CC089818E5F0E94EA0E2091940208
:1037E000309195028981882F90E0880F991F820F70
:1037F000931F0596FC0180819181FC018281938158
:103800000E948A0F0E94C31901C0000089818F5F46
:1038100089838981853008F4A3CF809194029091A7
:1038200095029093CE038093CD0380919402909162
:103830009502FC01848180934C0301C000000F902D
:10384000CF91DF910895DF93CF930F92CDB7DEB77D
:103850008091CC03882321F082E00E94341D25C092
:103860008091940290919502FC0124812F5FFC01CC
:103870002483FC01848189832091940230919502F4
:103880008981882F90E0880F991F820F931F0596DA
:10389000FC0180819181009731F480919402909194
:1038A0009502FC0114820E94371B0F90CF91DF918B
:1038B0000895DF93CF9300D0CDB7DEB78091CC03CE
:1038C000882321F081E00E94341D44C0809194023D
:1038D00090919502FC0184818A838A810E941B2C2D
:1038E0008A81882369F5198227C02091940230913A
:1038F00095028981882F90E0880F991F820F931F6E
:103900000596FC0180819181009799F48091940241
:103910009091950229812150FC0124838091940289
:1039200090919502FC0184810E941B2C0E94371B00
:1039300011C089818F5F898389818530B0F20AC087
:1039400080919402909195022A812150FC01248358
:103950000E94371B0F900F90CF91DF910895DF9356
:10396000CF93CDB7DEB78091CC03882321F084E0DC
:103970000E94341D31C08091940290919502FC0107
:1039800080819181009771F08091940290919502CD
:10399000FC018081918190939502809394020E9412
:1039A000371B1AC08BE592E09093950280939402A6
:1039B0001092CE031092CD031092C8030E94330ED2
:1039C0000E94EB2028EC35E28091E103882F90E003
:1039D000F90109950E943C26CF91DF910895DF936C
:1039E000CF930F92CDB7DEB78091CC03882321F01F
:1039F00083E00E94341D34C080919402909195021E
:103A0000FC018481898320919402309195028981FF
:103A1000882F90E0880F991F820F931F0596FC0155
:103A200080819181FC01858196810097B1F0209180
:103A30009402309195028981882F90E0880F991F18
:103A4000820F931F0596FC018081918190939502CE
:103A5000809394020E94371B03C080E00E94341DB3
:103A60000F90CF91DF910895EF92FF920F931F93E4
:103A7000DF93CF930F92CDB7DEB789831092CE0339
:103A80001092CD03809194029091950222E08338A8
:103A9000920709F049C28981843099F41092C903D0
:103AA0001092CC038BE592E0909395028093940260
:103AB0001092CE031092CD030E94330E1092C803D1
:103AC000DAC28091CC03882F90E08230910509F40E
:103AD00096C0833091053CF4009791F081309105B8
:103AE00009F43FC0C8C28430910509F455C184303F
:103AF00091050CF4FCC08530910509F4A1C1BBC24D
:103B000081E08093C8030E94330E80E00E94EA0E99
:103B100086EA92E00E948A0F81E00E94EA0E8CEB16
:103B200092E00E948A0F86E00E94EA0E8DEC92E0FD
:103B30000E948A0F87E00E94EA0E85EE92E00E94C2
:103B40008A0F80E063E048E20E94660E0E94C92965
:103B50000E94102A81E08093CC0381E08093C90306
:103B60008AC280E063E048E20E94660E0E94C92992
:103B70000E94102A8981833009F076C280918303E4
:103B800090918403CC01A0E0B0E0BC01CD010E9483
:103B9000802DDC01CB018093CF039093D003A093C1
:103BA000D103B093D2030E94C9299093CB03809391
:103BB000CA030E94330E80E00E94EA0E86EA92E079
:103BC0000E948A0F86E00E94EA0E8EEE92E00E942A
:103BD0008A0F87E00E94EA0E86E093E00E948A0F37
:103BE00080E063E048E20E94660E8091CA039091F3
:103BF000CB030E94102A82E08093CC033CC28981CF
:103C0000882F90E082309105E1F08330910571F1C9
:103C10008130910509F02AC28091CA039091CB03AB
:103C200001969093CB038093CA0380E063E048E25F
:103C30000E94660E8091CA039091CB030E94102AC5
:103C400055C08091CA039091CB0301979093CB0309
:103C50008093CA0380E063E048E20E94660E809190
:103C6000CA039091CB030E94102A40C08091CA03DE
:103C70009091CB03CC01A0E0B0E0BC01CD010E944B
:103C8000802DDC01CB018093D3039093D403A093C8
:103C9000D503B093D6030E94330E80E00E94EA0E53
:103CA00086EA92E00E948A0F81E00E94EA0E89E192
:103CB00093E00E948A0F86E00E94EA0E8DEC92E06B
:103CC0000E948A0F87E00E94EA0E85EE92E00E9431
:103CD0008A0F80E063E048E20E94660E0E94C929D4
:103CE0000E94102A83E08093CC030000C4C180E0CE
:103CF00063E048E20E94660E0E94C9290E94102AD1
:103D00008981833009F0B4C1809183039091840349
:103D1000CC01A0E0B0E0BC01CD010E94802DDC010F
:103D2000CB018093D7039093D803A093D903B0938A
:103D3000DA030E94C9299093CB038093CA030E949F
:103D4000330E80E00E94EA0E86EA92E00E948A0F1B
:103D500081E00E94EA0E89E193E00E948A0F86E0EA
:103D60000E94EA0E8EEE92E00E948A0F87E00E9487
:103D7000EA0E86E093E00E948A0F80E063E048E26A
:103D80000E94660E8091CA039091CB030E94102A74
:103D900084E08093CC036FC18981882F90E08230CA
:103DA0009105E1F08330910571F18130910509F0C1
:103DB00061C18091CA039091CB0301969093CB038C
:103DC0008093CA0380E063E048E20E94660E80911F
:103DD000CA039091CB030E94102A30C08091CA037D
:103DE0009091CB0301979093CB038093CA0380E01B
:103DF00063E048E20E94660E8091CA039091CB0373
:103E00000E94102A1BC08091CA039091CB03CC0161
:103E1000A0E0B0E0BC01CD010E94802DDC01CB010F
:103E20008093DB039093DC03A093DD03B093DE0368
:103E30000E94330E85E08093CC03000000001BC17C
:103E40008091DB039091DC03A091DD03B091DE0350
:103E50002091D3033091D4034091D5035091D603E0
:103E6000BC01CD010E94832CDC01CB017C018D01C2
:103E70008091D7039091D803A091D903B091DA0330
:103E80002091CF033091D0034091D1035091D203C0
:103E9000BC01CD010E94832CDC01CB019C01AD0152
:103EA000C801B7010E94EC2CDC01CB01809389038F
:103EB00090938A03A0938B03B0938C03E090D30379
:103EC000F090D4030091D5031091D603809189031B
:103ED00090918A03A0918B03B0918C032091CF0322
:103EE0003091D0034091D1035091D203BC01CD0158
:103EF0000E94362EDC01CB019C01AD01C801B70147
:103F00000E94832CDC01CB01809385039093860370
:103F1000A0938703B09388030E94F40B0E94350C92
:103F200084E00E94341DA7C0809194029091950274
:103F3000E2E08D339E0719F588E398E0ABE0B0E04E
:103F40008093EC009093ED00A093EE00B093EF000F
:103F50001092C8038BE592E09093950280939402AF
:103F60000E94330E0E94EB2028EC35E28091E103A1
:103F7000882F90E0F90109950E943C267CC0809131
:103F8000940290919502F1E08A3F9F0709F073C077
:103F90008091940290919502FC0184818823D9F448
:103FA0001092C8031092BE038BE592E090939502A5
:103FB000809394020E94C10B0E94330E0E94EB205A
:103FC00028EC35E28091E103882F90E0F901099512
:103FD0000E943C2623C08091940290919502FC019E
:103FE00084818130D9F481E08093BE031092C803AC
:103FF0008BE592E090939502809394020E94C10B0E
:104000000E94330E0E94EB2028EC35E28091E10300
:10401000882F90E0F90109950E943C268091730059
:10402000813089F480E063E041E20E94660E81E322
:104030000E94270F80E064E04EE10E94660E80E25D
:104040000E94270F18C080E063E041E20E94660EE4
:1040500080E20E94270F80E064E04EE10E94660E3D
:1040600082E30E94270F07C0000005C0000003C0C4
:10407000000001C000000F90CF91DF911F910F91C0
:10408000FF90EF900895DF93CF9300D000D0CDB78D
:10409000DEB79C838B838B819C8120E13EE0B9015C
:1040A0000E94C42E9B01C90189838981482F50E059
:1040B00020E13EE0429FC001439F900D529F900D32
:1040C00011242B813C81A901481B590BCA019C83F7
:1040D0008B838B819C812CE330E0B9010E94C42E3C
:1040E0009B01C9018A8389818823B9F48981282F9A
:1040F00030E000D000D08DB79EB701964BE253E080
:10410000FC0151834083FC01338322830E94B01160
:104110000F900F900F900F9016C08981282F30E0DC
:1041200000D000D08DB79EB701964DE253E0FC0160
:1041300051834083FC01338322830E94B0110F908E
:104140000F900F900F908A81882371F400D08DB763
:104150009EB7019620E333E0FC01318320830E9467
:10416000B0110F900F9030C08A818A30B8F48A81E4
:10417000282F30E000D000D08DB79EB7019644E3E1
:1041800053E0FC0151834083FC01338322830E946E
:10419000B0110F900F900F900F9016C08A81282FAA
:1041A00030E000D000D08DB79EB7019649E353E0D0
:1041B000FC0151834083FC01338322830E94B011B0
:1041C0000F900F900F900F900F900F900F900F90F7
:1041D000CF91DF910895DF93CF93CDB7DEB764978A
:1041E0000FB6F894DEBF0FBECDBF80E067E04AE0B7
:1041F0000E94660E0E94C9290E94102A8091EC003C
:104200009091ED00A091EE00B091EF0081312EE091
:10421000920720E0A20720E0B20708F44CC080918A
:10422000E103823099F48091EC009091ED00A0912F
:10423000EE00B091EF000197A109B1098093EC0065
:104240009093ED00A093EE00B093EF0081E067E063
:1042500044E10E94660E8091EC009091ED00A091E7
:10426000EE00B091EF0020E13EE040E050E0BC0104
:10427000CD010E94D82EDA01C90100D000D000D0B3
:104280002DB73EB72F5F3F4F4DE353E0F901518308
:104290004083F90182839383A483B5830E94B01184
:1042A0008DB79EB706960FB6F8949EBF0FBE8DBF12
:1042B0000E94CF0B17C081E067E044E10E94660EC8
:1042C00000D08DB79EB7019625E433E0FC01318321
:1042D00020830E94B0110F900F908091C4038460DE
:1042E0008093C40380918500882309F01BC48091CA
:1042F0007300882309F006C28091BE03813009F063
:104300001EC10E940709DC01CB018D839E83AF8310
:10431000B8878D819E81AF81B8858931F7E49F0789
:10432000F0E0AF07F0E0BF0740F088E197E4A0E0DD
:10433000B0E08D839E83AF83B8878D819E81AF81EE
:10434000B88584319105A105B105B0F584E190E00F
:10435000A0E0B0E08D839E83AF83B88780E062E009
:104360004DE20E94660E8EE090E00E94FC1880E014
:1043700062E04CE30E94660E80E090E00E94FC1830
:1043800081E062E04CE00E94660E8AE090E00E94CC
:10439000FC1881E062E040E10E94660E80E090E05F
:1043A0000E94FC1881E062E040E20E94660E82E01A
:1043B00090E00E94FC18E3C380E062E04AE00E94C3
:1043C000660E8AE090E00E94FC188D819E81AF818C
:1043D000B88520E137E240E050E0BC01CD010E9409
:1043E000D82EDA01C90189838D819E81AF81B8857C
:1043F00020E137E240E050E0BC01CD010E94D82E20
:10440000DC01CB018D839E83AF83B88789818823AC
:1044100059F080E062E04AE20E94660E8981882FAE
:1044200090E00E94FC1809C080E062E04AE20E942D
:10443000660E80E190E00E94FC188D819E81AF8124
:10444000B88528EE33E040E050E0BC01CD010E9489
:10445000D82EDA01C90189838D819E81AF81B8850B
:1044600028EE33E040E050E0BC01CD010E94D82EA0
:10447000DC01CB018D839E83AF83B88780E062E04F
:104480004AE30E94660E8981882F90E00E94FC1802
:104490008D819E81AF81B88524E630E040E050E018
:1044A000BC01CD010E94D82EDA01C90189838D811A
:1044B0009E81AF81B88524E630E040E050E0BC0149
:1044C000CD010E94D82EDC01CB018D839E83AF836A
:1044D000B88781E062E040E10E94660E8981882F02
:1044E00090E00E94FC188D819E81AF81B8852AE002
:1044F00030E040E050E0BC01CD010E94D82EDA014E
:10450000C90189838D819E81AF81B8852AE030E021
:1045100040E050E0BC01CD010E94D82EDC01CB016F
:104520008D839E83AF83B88781E062E040E20E9482
:10453000660E8981882F90E00E94FC1820C30E949B
:10454000DF0ADC01CB0189879A87AB87BC87898525
:104550009A85AB85BC8581342CE9920720E0A207BF
:1045600020E0B20770F180E062E043E30E94660E53
:1045700080E190E00E94FC1880E062E048E20E9446
:10458000660E80E190E00E94FC1881E062E040E06D
:104590000E94660E8DE090E00E94FC1881E062E0CF
:1045A00040E10E94660E84E090E00E94FC1881E0E9
:1045B00062E040E20E94660E80E090E00E94FC18FB
:1045C000DEC280E062E04AE20E94660E80E190E096
:1045D0000E94FC1889859A85AB85BC8520E137E26D
:1045E00040E050E0BC01CD010E94D82EDA01C901A3
:1045F0008A8389859A85AB85BC8520E137E240E0D6
:1046000050E0BC01CD010E94D82EDC01CB0189878E
:104610009A87AB87BC878A81882359F080E062E063
:104620004AE30E94660E8A81882F90E00E94FC185F
:1046300009C080E062E04AE30E94660E80E190E0FB
:104640000E94FC1889859A85AB85BC8528EE33E0ED
:1046500040E050E0BC01CD010E94D82EDA01C90132
:104660008A8389859A85AB85BC8528EE33E040E056
:1046700050E0BC01CD010E94D82EDC01CB0189871E
:104680009A87AB87BC8781E062E04AE00E94660EB1
:104690008A81882F90E00E94FC1881E062E04AE164
:1046A0000E94660E8AE090E00E94FC1889859A8537
:1046B000AB85BC8524E630E040E050E0BC01CD0194
:1046C0000E94D82EDA01C9018A8389859A85AB8533
:1046D000BC8524E630E040E050E0BC01CD010E9402
:1046E000D82EDC01CB0189879A87AB87BC8781E014
:1046F00062E040E20E94660E8A81882F90E00E946C
:10470000FC183DC28091BE03813009F01EC10E9499
:104710000709DC01CB018D879E87AF87B88B8D851C
:104720009E85AF85B8898937E7E39E07E0E0AE074D
:10473000E0E0BE0740F088E197E4A0E0B0E08D87BC
:104740009E87AF87B88B8D859E85AF85B889883C5D
:104750009105A105B105B0F588EC90E0A0E0B0E0CE
:104760008D879E87AF87B88B80E062E04DE20E9424
:10477000660E80E190E00E94FC1880E062E04CE36D
:104780000E94660E8EE090E00E94FC1881E062E0DC
:104790004CE00E94660E80E090E00E94FC1881E0F0
:1047A00062E04BE10E94660E8AE090E00E94FC18F5
:1047B00081E062E040E20E94660E82E090E00E94AA
:1047C000FC18DDC181E062E04AE00E94660E8AE0EA
:1047D00090E00E94FC188D859E85AF85B88920E108
:1047E00037E240E050E0BC01CD010E94D82EDA0152
:1047F000C9018B838D859E85AF85B88920E137E21D
:1048000040E050E0BC01CD010E94D82EDC01CB017C
:104810008D879E87AF87B88B8B81882359F080E086
:1048200062E04AE20E94660E8B81882F90E00E942F
:10483000FC1809C080E062E04AE20E94660E80E156
:1048400090E00E94FC188D859E85AF85B88928EE82
:1048500033E040E050E0BC01CD010E94D82EDA01E7
:10486000C9018B838D859E85AF85B88928EE33E09D
:1048700040E050E0BC01CD010E94D82EDC01CB010C
:104880008D879E87AF87B88B80E062E04AE30E9405
:10489000660E8B81882F90E00E94FC188D859E8586
:1048A000AF85B88924E630E040E050E0BC01CD019E
:1048B0000E94D82EDA01C9018B838D859E85AF8534
:1048C000B88924E630E040E050E0BC01CD010E9410
:1048D000D82EDC01CB018D879E87AF87B88B81E016
:1048E00062E040E10E94660E8B81882F90E00E947A
:1048F000FC188D859E85AF85B8892AE030E040E0C0
:1049000050E0BC01CD010E94D82EDA01C9018B8391
:104910008D859E85AF85B8892AE030E040E050E083
:10492000BC01CD010E94D82EDC01CB018D879E8772
:10493000AF87B88B81E062E040E20E94660E8B8117
:10494000882F90E00E94FC181AC10E94DF0ADC0147
:10495000CB01898B9A8BAB8BBC8B89899A89AB896C
:10496000BC8986349105A105B10540F487E390E048
:10497000A0E0B0E0898B9A8BAB8BBC8B89899A893C
:10498000AB89BC898938F3E19F07F0E0AF07F0E01D
:10499000BF0770F180E062E044E30E94660E80E1B0
:1049A00090E00E94FC1880E062E049E20E94660EFE
:1049B00080E190E00E94FC1881E062E041E00E940A
:1049C000660E80E190E00E94FC1881E062E040E128
:1049D0000E94660E8DE090E00E94FC1881E062E08B
:1049E00040E20E94660E85E090E00E94FC18C7C07D
:1049F00080E062E04AE30E94660E8AE090E00E9456
:104A0000FC1889899A89AB89BC8928EE33E040E09B
:104A100050E0BC01CD010E94D82EDA01C9018C837F
:104A200089899A89AB89BC8928EE33E040E050E05F
:104A3000BC01CD010E94D82EDC01CB01898B9A8B61
:104A4000AB8BBC8B80E062E049E20E94660E8C81F9
:104A5000882F90E00E94FC1889899A89AB89BC89CB
:104A600024E630E040E050E0BC01CD010E94D82EA9
:104A7000DA01C9018C8389899A89AB89BC8924E6CA
:104A800030E040E050E0BC01CD010E94D82EDC01B6
:104A9000CB01898B9A8BAB8BBC8B81E062E040E0D1
:104AA0000E94660E8C81882F90E00E94FC188989F4
:104AB0009A89AB89BC892AE030E040E050E0BC0133
:104AC000CD010E94D82EDA01C9018C8389899A8987
:104AD000AB89BC892AE030E040E050E0BC01CD0168
:104AE0000E94D82EDC01CB01898B9A8BAB8BBC8BBF
:104AF00081E062E040E10E94660E8C81882F90E0A8
:104B00000E94FC1889899A89AB89BC898C8381E0D1
:104B100062E040E20E94660E8C81882F90E00E9445
:104B2000FC182DC081E062E040E20E94660E8FE03A
:104B300090E00E94FC1881E062E040E10E94660E75
:104B40008FE090E00E94FC1881E062E040E00E946B
:104B5000660E8FE090E00E94FC1880E062E042E385
:104B60000E94660E80E190E00E94FC1880E062E006
:104B700047E20E94660E80E190E00E94FC18649675
:104B80000FB6F894DEBF0FBECDBFCF91DF91089571
:104B9000DF93CF930F92CDB7DEB789838091C8039F
:104BA000882309F064C08981882F90E083309105C3
:104BB000A9F1843091054CF481309105F9F08230EF
:104BC000910524F5009791F053C086309105B1F11D
:104BD0008730910524F48430910541F149C0873034
:104BE0009105A1F188309105C9F142C080E00E9491
:104BF000EA0E8EE391E00E948A0F3AC080E00E94A4
:104C0000EA0E88E491E00E948A0F32C080E00E94A0
:104C1000EA0E84E391E00E948A0F2AC080E00E949D
:104C2000EA0E82E591E00E948A0F22C080E00E9495
:104C3000EA0E8CE591E00E948A0F1AC080E00E9483
:104C4000EA0E88E491E00E948A0F12C080E00E9480
:104C5000EA0E88E491E00E948A0F0AC080E00E9478
:104C6000EA0E84E891E00E948A0F000001C0000073
:104C70000F90CF91DF910895DF93CF93CDB7DEB73B
:104C80008091C803882379F50E943F1A882351F048
:104C900081E060E04CE00E94660E80E791E00E94B7
:104CA0008A0F17C08091E103863051F481E060E003
:104CB0004CE00E94660E86E691E00E948A0F09C0D1
:104CC00081E060E04CE00E94660E8AE791E00E947D
:104CD0008A0F8091BE03882319F00E94F91904C03D
:104CE0000E94EA1901C00000CF91DF910895DF937F
:104CF000CF93CDB7DEB783E590E023E530E0F9014F
:104D000020812967FC01208387E390E027E330E0DE
:104D1000F90120812860FC0120838CE590E020913E
:104D20004D0330914E03FC012083CF91DF91089514
:104D3000DF93CF93CDB7DEB780914F0390915003AF
:104D40009C01285F3F4F8091510390915203281797
:104D5000390700F58091DF038F5F8093DF031092A6
:104D6000E0038091DF03843008F440C080914D035C
:104D700090914E03019690934E0380934D031092B1
:104D8000DF038CE590E020914D0330914E03FC0150
:104D900020832CC080914F03909150039C01285098
:104DA0003040809151039091520382179307F0F4A1
:104DB0001092DF038091E0038F5F8093E003809186
:104DC000E003843098F080914D0390914E03019759
:104DD00090934E0380934D031092E0038CE590E096
:104DE00020914D0330914E03FC012083CF91DF9140
:104DF0000895DF93CF93CDB7DEB781E390E021E351
:104E000030E0F9012081206EFC01208380E090E0F9
:104E10000E945227CF91DF910895DF93CF93CDB7B2
:104E2000DEB782E390E022E330E0F90120812064E4
:104E3000FC01208382E390E022E330E0F90120814D
:104E40002F7BFC012083CF91DF9108951F93DF9387
:104E5000CF9300D0CDB7DEB782E390E022E330E01D
:104E6000F90120812068FC01208381E08983898108
:104E7000182F1A95F1F7198382E390E022E330E0CE
:104E8000F90120812F77FC01208381E08A838A81C8
:104E9000182F1A95F1F71A830F900F90CF91DF9189
:104EA0001F910895DF93CF9300D00F92CDB7DEB757
:104EB0009B838A83198222C08A819B81992354F41F
:104EC00082E390E022E330E0F90120812062FC01DE
:104ED000208309C082E390E022E330E0F9012081E1
:104EE0002F7DFC0120830E940D278A819B81880FE2
:104EF000991F9B838A8389818F5F89838981803110
:104F0000D8F20E9426270F900F900F90CF91DF913B
:104F10000895DF93CF93CDB7DEB7809125018F7DC4
:104F200080932501809126018F77809326018091BF
:104F300025018F7E80932501809125018F7B8093B1
:104F40002501809125018F7780932501CF91DF91F5
:104F50000895DF93CF93CDB7DEB70E94330E109242
:104F6000E1038091E103882F90E00E94C825CF9152
:104F7000DF910895DF93CF93CDB7DEB78091E10342
:104F8000882F90E08430910509F4C8C085309105E0
:104F90003CF481309105C9F08230910521F1C1C006
:104FA0008730910509F462C0883091052CF4863071
:104FB000910509F44DC0B5C08830910509F47DC054
:104FC0008930910509F48BC0ACC00E943F1A882338
:104FD00029F482E08093E1030E94942886E699E216
:104FE000FC0109959EC00E943F1A8823A9F0809178
:104FF000550390915603CC01A0E0B0E08093E70305
:105000009093E803A093E903B093EA0389E08093C7
:10501000E1030E94942809C00E94331A882329F0D2
:1050200086E08093E1030E9494288091F803909198
:10503000F903A091FA03B091FB030097A105B10514
:1050400011F40E94B00C86E699E2FC01099569C052
:105050000E94331A882329F482E08093E1030E949E
:10506000942886E699E2FC0109955BC00E943F1AEC
:10507000882391F48091E7039091E803A091E903DC
:10508000B091EA030097A105B10591F482E0809305
:10509000E1030E9494280CC08AE090E0A0E0B0E018
:1050A0008093E7039093E803A093E903B093EA03A6
:1050B00086E699E2FC01099534C08091FE03909147
:1050C000FF03A0910004B09101040097A105B10570
:1050D00039F581E08093E1030E94942822C08091F9
:1050E000E7039091E803A091E903B091EA030097E8
:1050F000A105B10569F40E943F1A882321F087E0D9
:105100008093E10303C082E08093E1030E9494282E
:1051100086E699E2FC010995000003C0000001C089
:105120000000CF91DF910895DF93CF93CDB7DEB725
:105130008091E103882F90E08430910509F481C0CB
:10514000853091054CF48130910501F18230910553
:10515000B1F1009791F0B7C08730910509F48DC087
:10516000883091052CF48630910509F478C0ABC0E5
:105170008830910509F48AC0A6C00E9489278091D1
:10518000E103882F90E00E94C8259DC01092FE0385
:105190001092FF0310920004109201041092E70392
:1051A0001092E8031092E9031092EA038091E10360
:1051B000882F90E00E94C8250E94892784C00E9401
:1051C0003F1A882331F087E08093E1030E949428FE
:1051D0007AC00E94331A882331F086E08093E1037D
:1051E0000E94942870C00E94CF080E948927809155
:1051F0002501806180932501809125018062809343
:1052000025018091250180648093250180912501ED
:105210008860809325018091E103882F90E00E94AF
:10522000C8258091530390915403CC01A0E0B0E0D5
:105230008093F8039093F903A093FA03B093FB03D0
:1052400042C00E94960880912601806880932601C2
:105250008091E103882F90E00E94C82534C00E940D
:105260008927809125018061809325018091E10348
:10527000882F90E00E94C82526C00E94892780912F
:10528000E103882F90E00E94C8251DC00E94892755
:10529000809125018F77809325018091E103882FEC
:1052A00090E00E94C8258091FC039091FD03CC0101
:1052B000A0E0B0E08093FE039093FF03A09300046E
:1052C000B09301040000CF91DF910895DF93CF9355
:1052D000CDB7DEB70E944B1A282F30E04091E20391
:1052E00081E090E0442311F080E090E0822393235A
:1052F000009751F081E08093E2030E94960884E0D9
:1053000090E00E94C82519C00E944B1A282F81E006
:1053100090E0222311F080E090E02091E203222F20
:1053200030E082239323009741F01092E2030E9421
:10533000CF0882E090E00E94C825CF91DF910895C8
:10534000DF93CF9300D0CDB7DEB79A83898389816D
:105350009A81FC01808191810F900F90CF91DF9114
:105360000895DF93CF9300D000D0CDB7DEB79A83F6
:1053700089837C836B8389819A812B813C81FC01A9
:10538000318320830F900F900F900F90CF91DF917A
:105390000895DF93CF9300D0CDB7DEB7809183031C
:1053A00090918403CC01A0E0B0E0BC01CD010E944B
:1053B000802DDC01CB012091890330918A0340913B
:1053C0008B0350918C03BC01CD010E94362EDC0171
:1053D000CB01209185033091860340918703509142
:1053E0008803BC01CD010E94842CDC01CB01BC01EF
:1053F000CD010E94542DDC01CB019A8389838981E0
:105400009A8122E08F3E920720F08AEF90E09A8303
:10541000898389819A810F900F90CF91DF910895B0
:10542000DF93CF93CDB7DEB727970FB6F894DEBFE3
:105430000FBECDBF9F838E838E819F81CC01A0E064
:10544000B0E02DB73EB72A5030400FB6F8943EBFBB
:105450000FBE2DBF2DB73EB72F5F3F4FAE014F5F41
:105460005F4FF9015183408345E050E0F9015383D8
:1054700042834DE853E0F90155834483F901868363
:105480009783A087B1870E948F2F2DB73EB7265FE5
:105490003F4F0FB6F8943EBF0FBE2DBF8E819F8148
:1054A0008436910580F18981682F70E08A81482FC8
:1054B00050E08B81282F30E08DB79EB708970FB64C
:1054C000F8949EBF0FBE8DBF8DB79EB70196E1E9E0
:1054D000F3E0DC01ED93FC93FC0173836283DC0158
:1054E00015965C934E931497FC01378326830E9494
:1054F000B0112DB73EB7285F3F4F0FB6F8943EBFAF
:105500000FBE2DBF3FC08E819F818A30910520F153
:105510008981482F50E08A81282F30E000D000D0C8
:1055200000D08DB79EB701966EE973E0DC016D93F4
:105530007C93FC0153834283DC0115963C932E93AC
:1055400014970E94B011EDB7FEB736960FB6F894D7
:10555000FEBF0FBEEDBF16C08981282F30E000D0FE
:1055600000D08DB79EB701964AEA53E0DC014D9317
:105570005C93FC01338322830E94B0110F900F9043
:105580000F900F9027960FB6F894DEBF0FBECDBFD9
:10559000CF91DF9108950F931F93DF93CF93CDB7F2
:1055A000DEB72A970FB6F894DEBF0FBECDBF0E94BC
:1055B000C9299A83898389819A8121E0853F92074D
:1055C00020F084EF91E09A83898389819A81009702
:1055D00011F41A82198289819A8122E330E0B9019B
:1055E0000E94C42E9B01C9018B8389819A8122E389
:1055F00030E0B9010E94C42E8C838B81882F90E00B
:10560000880F991F880F991F895A9C4FFC01808130
:105610009181A281B3819C018B81882F90E00196BA
:10562000880F991F880F991F895A9C4FFC01808110
:105630009181A281B381A901481B590BCA019E83A4
:105640008D838B81882F90E0880F991F880F991F79
:10565000895A9C4FFC0100811181228133818D8107
:105660009E8142E350E0BA010E94C42EAB01BA0110
:105670008C81482F50E0649FC001659F900D749FFE
:10568000900D1124CC01A0E0B0E0B901A801481BA5
:10569000590B6A0B7B0BDB01CA018F839887A987A3
:1056A000BA878F819885A985BA85BC01CD012A96D4
:1056B0000FB6F894DEBF0FBECDBFCF91DF911F9123
:1056C0000F910895DF93CF93CDB7DEB785E490E0D7
:1056D00025E430E0F90120812F60FC01208383E480
:1056E00090E023E430E0F90120812D67FC01208364
:1056F00089E590E029E530E0F90120812068FC018E
:105700002083CF91DF9108951F920F920FB60F92D1
:1057100011248F939F93AF93BF93DF93CF93CDB714
:10572000DEB78091EC038D3709F044C081E08093AF
:10573000EB038091E3039091E403A091E503B09122
:10574000E6030097A105B10599F08091E3039091DC
:10575000E403A091E503B091E6030197A109B10923
:105760008093E3039093E403A093E503B093E603EF
:105770008091E7039091E803A091E903B091EA03D7
:105780000097A105B10599F08091E7039091E80396
:10579000A091E903B091EA030197A109B1098093AF
:1057A000E7039093E803A093E903B093EA03109210
:1057B000EC0305C08091EC038F5F8093EC03CF91E5
:1057C000DF91BF91AF919F918F910F900FBE0F907E
:1057D0001F901895DF93CF93CDB7DEB780E490E0AC
:1057E000FC01108289E290E027E6FC0120838AE236
:1057F00090E02AE230E0F90120812861FC01208359
:105800008AE290E02AE230E0F90120812068FC0180
:10581000208380E490E020E430E0F90120812668D4
:10582000FC01208384E49CE260E070E00E94FA2E98
:10583000CF91DF910895DF93CF930F92CDB7DEB76D
:10584000898300008BE290E0FC018081882F90E04A
:10585000807290700097B1F38CE290E02981FC0196
:1058600020830F90CF91DF910895DF93CF93CDB731
:10587000DEB78BE290E0FC0180818CE290E0FC01DD
:105880008081CF91DF910895DF93CF9300D00F9265
:10589000CDB7DEB789837B836A8300008BE290E01B
:1058A000FC018081882F90E0807290700097B1F3A6
:1058B0008CE290E02981FC01208380E090E00F9051
:1058C0000F900F90CF91DF9108951F920F920FB616
:1058D0000F9211248F939F93EF93FF93DF93CF93B6
:1058E000CDB7DEB78CE290E0FC0180818093270188
:1058F000CF91DF91FF91EF919F918F910F900FBE0C
:105900000F901F9018955058BB27AA270ED070C132
:1059100061D130F066D120F031F49F3F11F41EF4D4
:1059200056C10EF4E095E7FB4CC1E92F72D180F32C
:10593000BA17620773078407950718F071F49EF58C
:105940008AC10EF4E0950B2EBA2FA02D0B01B901E0
:1059500090010C01CA01A0011124FF27591B99F0E5
:10596000593F50F4503E68F11A16F040A22F232FF1
:10597000342F4427585FF3CF469537952795A79541
:10598000F0405395C9F77EF41F16BA0B620B730BE8
:10599000840BBAF09150A1F0FF0FBB1F661F771F59
:1059A000881FC2F70EC0BA0F621F731F841F48F40E
:1059B000879577956795B795F7959E3F08F0B3CF94
:1059C0009395880F08F09927EE0F9795879508957E
:1059D000D4D008F481E008950CD00AC102D140F07F
:1059E000F9D030F021F45F3F19F0EBC0511134C110
:1059F000EEC00FD198F39923C9F35523B1F3951B4A
:105A0000550BBB27AA2762177307840738F09F5FDF
:105A10005F4F220F331F441FAA1FA9F333D00E2E4E
:105A20003AF0E0E830D091505040E695001CCAF7BB
:105A300029D0FE2F27D0660F771F881FBB1F261780
:105A400037074807AB07B0E809F0BB0B802DBF0153
:105A5000FF2793585F4F2AF09E3F510568F0B1C071
:105A6000FBC05F3FECF3983EDCF386957795679536
:105A7000B795F7959F5FC9F7880F911D9695879504
:105A800097F90895E1E0660F771F881FBB1F621723
:105A900073078407BA0720F0621B730B840BBA0BE1
:105AA000EE1F88F7E0950895BCD088F09F5790F0DE
:105AB000B92F9927B751A0F0D1F0660F771F881F33
:105AC000991F1AF0BA95C9F712C0B13081F0C3D04E
:105AD000B1E00895C0C0672F782F8827B85F39F0EC
